{
  "abi": [
    {
      "inputs": [],
      "stateMutability": "nonpayable",
      "type": "constructor"
    },
    {
      "inputs": [
        {
          "internalType": "string[]",
          "name": "_companies",
          "type": "string[]"
        }
      ],
      "name": "addCompanies",
      "outputs": [],
      "stateMutability": "nonpayable",
      "type": "function"
    },
    {
      "inputs": [
        {
          "internalType": "string",
          "name": "_company",
          "type": "string"
        }
      ],
      "name": "addCompany",
      "outputs": [],
      "stateMutability": "nonpayable",
      "type": "function"
    },
    {
      "inputs": [
        {
          "internalType": "string",
          "name": "_company",
          "type": "string"
        }
      ],
      "name": "getBalance",
      "outputs": [
        {
          "internalType": "uint256",
          "name": "",
          "type": "uint256"
        }
      ],
      "stateMutability": "view",
      "type": "function"
    },
    {
      "inputs": [],
      "name": "getBalances",
      "outputs": [
        {
          "internalType": "uint256[]",
          "name": "",
          "type": "uint256[]"
        }
      ],
      "stateMutability": "view",
      "type": "function"
    },
    {
      "inputs": [],
      "name": "getCompaniesAddresses",
      "outputs": [
        {
          "internalType": "address[]",
          "name": "",
          "type": "address[]"
        }
      ],
      "stateMutability": "view",
      "type": "function"
    },
    {
      "inputs": [],
      "name": "getCompaniesNames",
      "outputs": [
        {
          "internalType": "string[]",
          "name": "",
          "type": "string[]"
        }
      ],
      "stateMutability": "view",
      "type": "function"
    },
    {
      "inputs": [
        {
          "internalType": "string",
          "name": "c_name",
          "type": "string"
        }
      ],
      "name": "getCompanyComplaints",
      "outputs": [
        {
          "internalType": "string[]",
          "name": "",
          "type": "string[]"
        }
      ],
      "stateMutability": "view",
      "type": "function"
    },
    {
      "inputs": [],
      "name": "getTotalComplaints",
      "outputs": [
        {
          "internalType": "uint256",
          "name": "",
          "type": "uint256"
        }
      ],
      "stateMutability": "view",
      "type": "function"
    },
    {
      "inputs": [
        {
          "internalType": "string",
          "name": "_company",
          "type": "string"
        },
        {
          "internalType": "string",
          "name": "_hash",
          "type": "string"
        }
      ],
      "name": "newComplaint",
      "outputs": [],
      "stateMutability": "nonpayable",
      "type": "function"
    }
  ],
  "devdoc": {
    "kind": "dev",
    "methods": {},
    "version": 1
  },
  "evm": {
    "assembly": "    /* \"ReputationControl.sol\":5326:8399  contract ReputationControl {... */\n  mstore(0x40, 0xa0)\n    /* \"ReputationControl.sol\":5620:5740  constructor(){... */\n  callvalue\n  dup1\n  iszero\n  tag_1\n  jumpi\n  0x00\n  dup1\n  revert\ntag_1:\n  pop\n    /* \"ReputationControl.sol\":5652:5662  msg.sender */\n  caller\n    /* \"ReputationControl.sol\":5644:5662  owner = msg.sender */\n  0xffffffffffffffffffffffffffffffffffffffff\n  and\n  0x80\n  dup2\n  0xffffffffffffffffffffffffffffffffffffffff\n  and\n  dup2\n  mstore\n  pop\n  pop\n    /* \"ReputationControl.sol\":5691:5692  0 */\n  0x00\n    /* \"ReputationControl.sol\":5673:5688  totalComplaints */\n  0x03\n    /* \"ReputationControl.sol\":5673:5692  totalComplaints = 0 */\n  dup2\n  swap1\n  sstore\n  pop\n    /* \"ReputationControl.sol\":5719:5732  new ERC4974() */\n  mload(0x40)\n  tag_4\n  swap1\n  tag_5\n  jump\t// in\ntag_4:\n  mload(0x40)\n  dup1\n  swap2\n  sub\n  swap1\n  0x00\n  create\n  dup1\n  iszero\n  dup1\n  iszero\n  tag_6\n  jumpi\n  returndatasize\n  0x00\n  dup1\n  returndatacopy\n  revert(0x00, returndatasize)\ntag_6:\n  pop\n    /* \"ReputationControl.sol\":5703:5716  tokenContract */\n  0x00\n  dup1\n    /* \"ReputationControl.sol\":5703:5732  tokenContract = new ERC4974() */\n  0x0100\n  exp\n  dup2\n  sload\n  dup2\n  0xffffffffffffffffffffffffffffffffffffffff\n  mul\n  not\n  and\n  swap1\n  dup4\n  0xffffffffffffffffffffffffffffffffffffffff\n  and\n  mul\n  or\n  swap1\n  sstore\n  pop\n    /* \"ReputationControl.sol\":5326:8399  contract ReputationControl {... */\n  jump(tag_7)\ntag_5:\n  dataSize(sub_1)\n  dup1\n  dataOffset(sub_1)\n  dup4\n  codecopy\n  add\n  swap1\n  jump\t// out\ntag_7:\n  mload(0x80)\n  codecopy(0x00, dataOffset(sub_0), dataSize(sub_0))\n  0x00\n  assignImmutable(\"0x251437c0092c2b0ae5c27df55e04490f08f4eb0dcb868271fba9915d5c3457ef\")\n  return(0x00, dataSize(sub_0))\nstop\n\nsub_0: assembly {\n        /* \"ReputationControl.sol\":5326:8399  contract ReputationControl {... */\n      mstore(0x40, 0x80)\n      callvalue\n      dup1\n      iszero\n      tag_1\n      jumpi\n      0x00\n      dup1\n      revert\n    tag_1:\n      pop\n      jumpi(tag_2, lt(calldatasize, 0x04))\n      shr(0xe0, calldataload(0x00))\n      dup1\n      0x3a51d246\n      gt\n      tag_12\n      jumpi\n      dup1\n      0x3a51d246\n      eq\n      tag_7\n      jumpi\n      dup1\n      0x59f97801\n      eq\n      tag_8\n      jumpi\n      dup1\n      0x6b5f35c2\n      eq\n      tag_9\n      jumpi\n      dup1\n      0xd09cdac1\n      eq\n      tag_10\n      jumpi\n      dup1\n      0xd6483d17\n      eq\n      tag_11\n      jumpi\n      jump(tag_2)\n    tag_12:\n      dup1\n      0x113e08\n      eq\n      tag_3\n      jumpi\n      dup1\n      0x05e5e5a3\n      eq\n      tag_4\n      jumpi\n      dup1\n      0x09a7a006\n      eq\n      tag_5\n      jumpi\n      dup1\n      0x356eede6\n      eq\n      tag_6\n      jumpi\n    tag_2:\n      0x00\n      dup1\n      revert\n        /* \"ReputationControl.sol\":7228:7541  function getBalances() external view returns (uint[] memory){... */\n    tag_3:\n      tag_13\n      tag_14\n      jump\t// in\n    tag_13:\n      mload(0x40)\n      tag_15\n      swap2\n      swap1\n      tag_16\n      jump\t// in\n    tag_15:\n      mload(0x40)\n      dup1\n      swap2\n      sub\n      swap1\n      return\n        /* \"ReputationControl.sol\":7549:7863  function getCompaniesAddresses() external view returns (address[] memory){... */\n    tag_4:\n      tag_17\n      tag_18\n      jump\t// in\n    tag_17:\n      mload(0x40)\n      tag_19\n      swap2\n      swap1\n      tag_20\n      jump\t// in\n    tag_19:\n      mload(0x40)\n      dup1\n      swap2\n      sub\n      swap1\n      return\n        /* \"ReputationControl.sol\":6852:6955  function getCompaniesNames() external view returns (string[] memory){... */\n    tag_5:\n      tag_21\n      tag_22\n      jump\t// in\n    tag_21:\n      mload(0x40)\n      tag_23\n      swap2\n      swap1\n      tag_24\n      jump\t// in\n    tag_23:\n      mload(0x40)\n      dup1\n      swap2\n      sub\n      swap1\n      return\n        /* \"ReputationControl.sol\":5854:6342  function addCompanies(string[] memory _companies) external onlyOwner{... */\n    tag_6:\n      tag_25\n      0x04\n      dup1\n      calldatasize\n      sub\n      dup2\n      add\n      swap1\n      tag_26\n      swap2\n      swap1\n      tag_27\n      jump\t// in\n    tag_26:\n      tag_28\n      jump\t// in\n    tag_25:\n      stop\n        /* \"ReputationControl.sol\":6963:7220  function getBalance(string memory _company) external view returns (uint){... */\n    tag_7:\n      tag_29\n      0x04\n      dup1\n      calldatasize\n      sub\n      dup2\n      add\n      swap1\n      tag_30\n      swap2\n      swap1\n      tag_31\n      jump\t// in\n    tag_30:\n      tag_32\n      jump\t// in\n    tag_29:\n      mload(0x40)\n      tag_33\n      swap2\n      swap1\n      tag_34\n      jump\t// in\n    tag_33:\n      mload(0x40)\n      dup1\n      swap2\n      sub\n      swap1\n      return\n        /* \"ReputationControl.sol\":6746:6844  function getTotalComplaints() external view returns(uint){... */\n    tag_8:\n      tag_35\n      tag_36\n      jump\t// in\n    tag_35:\n      mload(0x40)\n      tag_37\n      swap2\n      swap1\n      tag_34\n      jump\t// in\n    tag_37:\n      mload(0x40)\n      dup1\n      swap2\n      sub\n      swap1\n      return\n        /* \"ReputationControl.sol\":7871:8024  function getCompanyComplaints(string memory c_name) external view returns (string[] memory){... */\n    tag_9:\n      tag_38\n      0x04\n      dup1\n      calldatasize\n      sub\n      dup2\n      add\n      swap1\n      tag_39\n      swap2\n      swap1\n      tag_31\n      jump\t// in\n    tag_39:\n      tag_40\n      jump\t// in\n    tag_38:\n      mload(0x40)\n      tag_41\n      swap2\n      swap1\n      tag_24\n      jump\t// in\n    tag_41:\n      mload(0x40)\n      dup1\n      swap2\n      sub\n      swap1\n      return\n        /* \"ReputationControl.sol\":8032:8396  function newComplaint(string memory _company, string memory _hash) external onlyOwner{... */\n    tag_10:\n      tag_42\n      0x04\n      dup1\n      calldatasize\n      sub\n      dup2\n      add\n      swap1\n      tag_43\n      swap2\n      swap1\n      tag_44\n      jump\t// in\n    tag_43:\n      tag_45\n      jump\t// in\n    tag_42:\n      stop\n        /* \"ReputationControl.sol\":6350:6738  function addCompany(string memory _company) external onlyOwner{... */\n    tag_11:\n      tag_46\n      0x04\n      dup1\n      calldatasize\n      sub\n      dup2\n      add\n      swap1\n      tag_47\n      swap2\n      swap1\n      tag_31\n      jump\t// in\n    tag_47:\n      tag_48\n      jump\t// in\n    tag_46:\n      stop\n        /* \"ReputationControl.sol\":7228:7541  function getBalances() external view returns (uint[] memory){... */\n    tag_14:\n        /* \"ReputationControl.sol\":7274:7287  uint[] memory */\n      0x60\n        /* \"ReputationControl.sol\":7299:7323  uint [] memory _balances */\n      0x00\n        /* \"ReputationControl.sol\":7337:7346  companies */\n      0x02\n        /* \"ReputationControl.sol\":7337:7353  companies.length */\n      dup1\n      sload\n      swap1\n      pop\n        /* \"ReputationControl.sol\":7326:7354  new uint[](companies.length) */\n      0xffffffffffffffff\n      dup2\n      gt\n      iszero\n      tag_50\n      jumpi\n      tag_51\n      tag_52\n      jump\t// in\n    tag_51:\n    tag_50:\n      mload(0x40)\n      swap1\n      dup1\n      dup3\n      mstore\n      dup1\n      0x20\n      mul\n      0x20\n      add\n      dup3\n      add\n      0x40\n      mstore\n      dup1\n      iszero\n      tag_53\n      jumpi\n      dup2\n      0x20\n      add\n      0x20\n      dup3\n      mul\n      dup1\n      calldatasize\n      dup4\n      calldatacopy\n      dup1\n      dup3\n      add\n      swap2\n      pop\n      pop\n      swap1\n      pop\n    tag_53:\n      pop\n        /* \"ReputationControl.sol\":7299:7354  uint [] memory _balances = new uint[](companies.length) */\n      swap1\n      pop\n        /* \"ReputationControl.sol\":7369:7375  uint i */\n      0x00\n        /* \"ReputationControl.sol\":7365:7507  for(uint i = 0; i<companies.length;++i){... */\n    tag_54:\n        /* \"ReputationControl.sol\":7383:7392  companies */\n      0x02\n        /* \"ReputationControl.sol\":7383:7399  companies.length */\n      dup1\n      sload\n      swap1\n      pop\n        /* \"ReputationControl.sol\":7381:7382  i */\n      dup2\n        /* \"ReputationControl.sol\":7381:7399  i<companies.length */\n      lt\n        /* \"ReputationControl.sol\":7365:7507  for(uint i = 0; i<companies.length;++i){... */\n      iszero\n      tag_55\n      jumpi\n        /* \"ReputationControl.sol\":7434:7447  tokenContract */\n      0x00\n      dup1\n      sload\n      swap1\n      0x0100\n      exp\n      swap1\n      div\n      0xffffffffffffffffffffffffffffffffffffffff\n      and\n        /* \"ReputationControl.sol\":7434:7457  tokenContract.balanceOf */\n      0xffffffffffffffffffffffffffffffffffffffff\n      and\n      0x70a08231\n        /* \"ReputationControl.sol\":7458:7471  infoCompanies */\n      0x01\n        /* \"ReputationControl.sol\":7472:7481  companies */\n      0x02\n        /* \"ReputationControl.sol\":7482:7483  i */\n      dup5\n        /* \"ReputationControl.sol\":7472:7484  companies[i] */\n      dup2\n      sload\n      dup2\n      lt\n      tag_57\n      jumpi\n      tag_58\n      tag_59\n      jump\t// in\n    tag_58:\n    tag_57:\n      swap1\n      0x00\n      mstore\n      keccak256(0x00, 0x20)\n      add\n        /* \"ReputationControl.sol\":7458:7485  infoCompanies[companies[i]] */\n      mload(0x40)\n      tag_61\n      swap2\n      swap1\n      tag_62\n      jump\t// in\n    tag_61:\n      swap1\n      dup2\n      mstore\n      0x20\n      add\n      mload(0x40)\n      dup1\n      swap2\n      sub\n      swap1\n      keccak256\n        /* \"ReputationControl.sol\":7458:7494  infoCompanies[companies[i]]._address */\n      0x00\n      add\n      0x00\n      swap1\n      sload\n      swap1\n      0x0100\n      exp\n      swap1\n      div\n      0xffffffffffffffffffffffffffffffffffffffff\n      and\n        /* \"ReputationControl.sol\":7434:7495  tokenContract.balanceOf(infoCompanies[companies[i]]._address) */\n      mload(0x40)\n      dup3\n      0xffffffff\n      and\n      0xe0\n      shl\n      dup2\n      mstore\n      0x04\n      add\n      tag_63\n      swap2\n      swap1\n      tag_64\n      jump\t// in\n    tag_63:\n      0x20\n      mload(0x40)\n      dup1\n      dup4\n      sub\n      dup2\n      dup7\n      gas\n      staticcall\n      iszero\n      dup1\n      iszero\n      tag_66\n      jumpi\n      returndatasize\n      0x00\n      dup1\n      returndatacopy\n      revert(0x00, returndatasize)\n    tag_66:\n      pop\n      pop\n      pop\n      pop\n      mload(0x40)\n      returndatasize\n      not(0x1f)\n      0x1f\n      dup3\n      add\n      and\n      dup3\n      add\n      dup1\n      0x40\n      mstore\n      pop\n      dup2\n      add\n      swap1\n      tag_67\n      swap2\n      swap1\n      tag_68\n      jump\t// in\n    tag_67:\n        /* \"ReputationControl.sol\":7419:7428  _balances */\n      dup3\n        /* \"ReputationControl.sol\":7429:7430  i */\n      dup3\n        /* \"ReputationControl.sol\":7419:7431  _balances[i] */\n      dup2\n      mload\n      dup2\n      lt\n      tag_69\n      jumpi\n      tag_70\n      tag_59\n      jump\t// in\n    tag_70:\n    tag_69:\n      0x20\n      mul\n      0x20\n      add\n      add\n        /* \"ReputationControl.sol\":7419:7495  _balances[i] = tokenContract.balanceOf(infoCompanies[companies[i]]._address) */\n      dup2\n      dup2\n      mstore\n      pop\n      pop\n        /* \"ReputationControl.sol\":7400:7403  ++i */\n      dup1\n      tag_71\n      swap1\n      tag_72\n      jump\t// in\n    tag_71:\n      swap1\n      pop\n        /* \"ReputationControl.sol\":7365:7507  for(uint i = 0; i<companies.length;++i){... */\n      jump(tag_54)\n    tag_55:\n      pop\n        /* \"ReputationControl.sol\":7524:7533  _balances */\n      dup1\n        /* \"ReputationControl.sol\":7517:7533  return _balances */\n      swap2\n      pop\n      pop\n        /* \"ReputationControl.sol\":7228:7541  function getBalances() external view returns (uint[] memory){... */\n      swap1\n      jump\t// out\n        /* \"ReputationControl.sol\":7549:7863  function getCompaniesAddresses() external view returns (address[] memory){... */\n    tag_18:\n        /* \"ReputationControl.sol\":7605:7621  address[] memory */\n      0x60\n        /* \"ReputationControl.sol\":7633:7639  uint l */\n      0x00\n        /* \"ReputationControl.sol\":7642:7651  companies */\n      0x02\n        /* \"ReputationControl.sol\":7642:7658  companies.length */\n      dup1\n      sload\n      swap1\n      pop\n        /* \"ReputationControl.sol\":7633:7658  uint l = companies.length */\n      swap1\n      pop\n        /* \"ReputationControl.sol\":7669:7695  address [] memory accounts */\n      0x00\n        /* \"ReputationControl.sol\":7713:7714  l */\n      dup2\n        /* \"ReputationControl.sol\":7699:7715  new address[](l) */\n      0xffffffffffffffff\n      dup2\n      gt\n      iszero\n      tag_74\n      jumpi\n      tag_75\n      tag_52\n      jump\t// in\n    tag_75:\n    tag_74:\n      mload(0x40)\n      swap1\n      dup1\n      dup3\n      mstore\n      dup1\n      0x20\n      mul\n      0x20\n      add\n      dup3\n      add\n      0x40\n      mstore\n      dup1\n      iszero\n      tag_76\n      jumpi\n      dup2\n      0x20\n      add\n      0x20\n      dup3\n      mul\n      dup1\n      calldatasize\n      dup4\n      calldatacopy\n      dup1\n      dup3\n      add\n      swap2\n      pop\n      pop\n      swap1\n      pop\n    tag_76:\n      pop\n        /* \"ReputationControl.sol\":7669:7715  address [] memory accounts  = new address[](l) */\n      swap1\n      pop\n        /* \"ReputationControl.sol\":7730:7736  uint i */\n      0x00\n        /* \"ReputationControl.sol\":7726:7830  for(uint i = 0; i < l; ++i){... */\n    tag_77:\n        /* \"ReputationControl.sol\":7746:7747  l */\n      dup3\n        /* \"ReputationControl.sol\":7742:7743  i */\n      dup2\n        /* \"ReputationControl.sol\":7742:7747  i < l */\n      lt\n        /* \"ReputationControl.sol\":7726:7830  for(uint i = 0; i < l; ++i){... */\n      iszero\n      tag_78\n      jumpi\n        /* \"ReputationControl.sol\":7782:7795  infoCompanies */\n      0x01\n        /* \"ReputationControl.sol\":7796:7805  companies */\n      0x02\n        /* \"ReputationControl.sol\":7806:7807  i */\n      dup3\n        /* \"ReputationControl.sol\":7796:7808  companies[i] */\n      dup2\n      sload\n      dup2\n      lt\n      tag_80\n      jumpi\n      tag_81\n      tag_59\n      jump\t// in\n    tag_81:\n    tag_80:\n      swap1\n      0x00\n      mstore\n      keccak256(0x00, 0x20)\n      add\n        /* \"ReputationControl.sol\":7782:7809  infoCompanies[companies[i]] */\n      mload(0x40)\n      tag_83\n      swap2\n      swap1\n      tag_62\n      jump\t// in\n    tag_83:\n      swap1\n      dup2\n      mstore\n      0x20\n      add\n      mload(0x40)\n      dup1\n      swap2\n      sub\n      swap1\n      keccak256\n        /* \"ReputationControl.sol\":7782:7818  infoCompanies[companies[i]]._address */\n      0x00\n      add\n      0x00\n      swap1\n      sload\n      swap1\n      0x0100\n      exp\n      swap1\n      div\n      0xffffffffffffffffffffffffffffffffffffffff\n      and\n        /* \"ReputationControl.sol\":7768:7776  accounts */\n      dup3\n        /* \"ReputationControl.sol\":7777:7778  i */\n      dup3\n        /* \"ReputationControl.sol\":7768:7779  accounts[i] */\n      dup2\n      mload\n      dup2\n      lt\n      tag_84\n      jumpi\n      tag_85\n      tag_59\n      jump\t// in\n    tag_85:\n    tag_84:\n      0x20\n      mul\n      0x20\n      add\n      add\n        /* \"ReputationControl.sol\":7768:7818  accounts[i] = infoCompanies[companies[i]]._address */\n      swap1\n      0xffffffffffffffffffffffffffffffffffffffff\n      and\n      swap1\n      dup2\n      0xffffffffffffffffffffffffffffffffffffffff\n      and\n      dup2\n      mstore\n      pop\n      pop\n        /* \"ReputationControl.sol\":7749:7752  ++i */\n      dup1\n      tag_86\n      swap1\n      tag_72\n      jump\t// in\n    tag_86:\n      swap1\n      pop\n        /* \"ReputationControl.sol\":7726:7830  for(uint i = 0; i < l; ++i){... */\n      jump(tag_77)\n    tag_78:\n      pop\n        /* \"ReputationControl.sol\":7847:7855  accounts */\n      dup1\n        /* \"ReputationControl.sol\":7840:7855  return accounts */\n      swap3\n      pop\n      pop\n      pop\n        /* \"ReputationControl.sol\":7549:7863  function getCompaniesAddresses() external view returns (address[] memory){... */\n      swap1\n      jump\t// out\n        /* \"ReputationControl.sol\":6852:6955  function getCompaniesNames() external view returns (string[] memory){... */\n    tag_22:\n        /* \"ReputationControl.sol\":6904:6919  string[] memory */\n      0x60\n        /* \"ReputationControl.sol\":6938:6947  companies */\n      0x02\n        /* \"ReputationControl.sol\":6931:6947  return companies */\n      dup1\n      sload\n      dup1\n      0x20\n      mul\n      0x20\n      add\n      mload(0x40)\n      swap1\n      dup2\n      add\n      0x40\n      mstore\n      dup1\n      swap3\n      swap2\n      swap1\n      dup2\n      dup2\n      mstore\n      0x20\n      add\n      0x00\n      swap1\n    tag_88:\n      dup3\n      dup3\n      lt\n      iszero\n      tag_89\n      jumpi\n      dup4\n      dup3\n      swap1\n      0x00\n      mstore\n      keccak256(0x00, 0x20)\n      add\n      dup1\n      sload\n      tag_91\n      swap1\n      tag_92\n      jump\t// in\n    tag_91:\n      dup1\n      0x1f\n      add\n      0x20\n      dup1\n      swap2\n      div\n      mul\n      0x20\n      add\n      mload(0x40)\n      swap1\n      dup2\n      add\n      0x40\n      mstore\n      dup1\n      swap3\n      swap2\n      swap1\n      dup2\n      dup2\n      mstore\n      0x20\n      add\n      dup3\n      dup1\n      sload\n      tag_93\n      swap1\n      tag_92\n      jump\t// in\n    tag_93:\n      dup1\n      iszero\n      tag_94\n      jumpi\n      dup1\n      0x1f\n      lt\n      tag_95\n      jumpi\n      0x0100\n      dup1\n      dup4\n      sload\n      div\n      mul\n      dup4\n      mstore\n      swap2\n      0x20\n      add\n      swap2\n      jump(tag_94)\n    tag_95:\n      dup3\n      add\n      swap2\n      swap1\n      0x00\n      mstore\n      keccak256(0x00, 0x20)\n      swap1\n    tag_96:\n      dup2\n      sload\n      dup2\n      mstore\n      swap1\n      0x01\n      add\n      swap1\n      0x20\n      add\n      dup1\n      dup4\n      gt\n      tag_96\n      jumpi\n      dup3\n      swap1\n      sub\n      0x1f\n      and\n      dup3\n      add\n      swap2\n    tag_94:\n      pop\n      pop\n      pop\n      pop\n      pop\n      dup2\n      mstore\n      0x20\n      add\n      swap1\n      0x01\n      add\n      swap1\n      jump(tag_88)\n    tag_89:\n      pop\n      pop\n      pop\n      pop\n      swap1\n      pop\n        /* \"ReputationControl.sol\":6852:6955  function getCompaniesNames() external view returns (string[] memory){... */\n      swap1\n      jump\t// out\n        /* \"ReputationControl.sol\":5854:6342  function addCompanies(string[] memory _companies) external onlyOwner{... */\n    tag_28:\n        /* \"ReputationControl.sol\":5799:5804  owner */\n      immutable(\"0x251437c0092c2b0ae5c27df55e04490f08f4eb0dcb868271fba9915d5c3457ef\")\n        /* \"ReputationControl.sol\":5785:5804  msg.sender == owner */\n      0xffffffffffffffffffffffffffffffffffffffff\n      and\n        /* \"ReputationControl.sol\":5785:5795  msg.sender */\n      caller\n        /* \"ReputationControl.sol\":5785:5804  msg.sender == owner */\n      0xffffffffffffffffffffffffffffffffffffffff\n      and\n      eq\n        /* \"ReputationControl.sol\":5777:5826  require(msg.sender == owner,\"No tienes permisos\") */\n      tag_98\n      jumpi\n      mload(0x40)\n      0x08c379a000000000000000000000000000000000000000000000000000000000\n      dup2\n      mstore\n      0x04\n      add\n      tag_99\n      swap1\n      tag_100\n      jump\t// in\n    tag_99:\n      mload(0x40)\n      dup1\n      swap2\n      sub\n      swap1\n      revert\n    tag_98:\n        /* \"ReputationControl.sol\":5937:5943  uint i */\n      0x00\n        /* \"ReputationControl.sol\":5933:6335  for(uint i = 0; i < _companies.length; ++i){... */\n    tag_102:\n        /* \"ReputationControl.sol\":5953:5963  _companies */\n      dup2\n        /* \"ReputationControl.sol\":5953:5970  _companies.length */\n      mload\n        /* \"ReputationControl.sol\":5949:5950  i */\n      dup2\n        /* \"ReputationControl.sol\":5949:5970  i < _companies.length */\n      lt\n        /* \"ReputationControl.sol\":5933:6335  for(uint i = 0; i < _companies.length; ++i){... */\n      iszero\n      tag_103\n      jumpi\n        /* \"ReputationControl.sol\":6043:6044  0 */\n      0x00\n        /* \"ReputationControl.sol\":5994:6045  infoCompanies[_companies[i]]._address == address(0) */\n      0xffffffffffffffffffffffffffffffffffffffff\n      and\n        /* \"ReputationControl.sol\":5994:6007  infoCompanies */\n      0x01\n        /* \"ReputationControl.sol\":6008:6018  _companies */\n      dup4\n        /* \"ReputationControl.sol\":6019:6020  i */\n      dup4\n        /* \"ReputationControl.sol\":6008:6021  _companies[i] */\n      dup2\n      mload\n      dup2\n      lt\n      tag_105\n      jumpi\n      tag_106\n      tag_59\n      jump\t// in\n    tag_106:\n    tag_105:\n      0x20\n      mul\n      0x20\n      add\n      add\n      mload\n        /* \"ReputationControl.sol\":5994:6022  infoCompanies[_companies[i]] */\n      mload(0x40)\n      tag_107\n      swap2\n      swap1\n      tag_108\n      jump\t// in\n    tag_107:\n      swap1\n      dup2\n      mstore\n      0x20\n      add\n      mload(0x40)\n      dup1\n      swap2\n      sub\n      swap1\n      keccak256\n        /* \"ReputationControl.sol\":5994:6031  infoCompanies[_companies[i]]._address */\n      0x00\n      add\n      0x00\n      swap1\n      sload\n      swap1\n      0x0100\n      exp\n      swap1\n      div\n      0xffffffffffffffffffffffffffffffffffffffff\n      and\n        /* \"ReputationControl.sol\":5994:6045  infoCompanies[_companies[i]]._address == address(0) */\n      0xffffffffffffffffffffffffffffffffffffffff\n      and\n      eq\n        /* \"ReputationControl.sol\":5991:6324  if(infoCompanies[_companies[i]]._address == address(0)){... */\n      iszero\n      tag_109\n      jumpi\n        /* \"ReputationControl.sol\":6065:6076  address add */\n      0x00\n        /* \"ReputationControl.sol\":6122:6132  _companies */\n      dup3\n        /* \"ReputationControl.sol\":6133:6134  i */\n      dup3\n        /* \"ReputationControl.sol\":6122:6135  _companies[i] */\n      dup2\n      mload\n      dup2\n      lt\n      tag_110\n      jumpi\n      tag_111\n      tag_59\n      jump\t// in\n    tag_111:\n    tag_110:\n      0x20\n      mul\n      0x20\n      add\n      add\n      mload\n        /* \"ReputationControl.sol\":6105:6136  abi.encodePacked(_companies[i]) */\n      add(0x20, mload(0x40))\n      tag_112\n      swap2\n      swap1\n      tag_108\n      jump\t// in\n    tag_112:\n      mload(0x40)\n      0x20\n      dup2\n      dup4\n      sub\n      sub\n      dup2\n      mstore\n      swap1\n      0x40\n      mstore\n        /* \"ReputationControl.sol\":6095:6137  keccak256(abi.encodePacked(_companies[i])) */\n      dup1\n      mload\n      swap1\n      0x20\n      add\n      keccak256\n        /* \"ReputationControl.sol\":6079:6139  address(bytes20(keccak256(abi.encodePacked(_companies[i])))) */\n      0x60\n      shr\n        /* \"ReputationControl.sol\":6065:6139  address add = address(bytes20(keccak256(abi.encodePacked(_companies[i])))) */\n      swap1\n      pop\n        /* \"ReputationControl.sol\":6198:6201  add */\n      dup1\n        /* \"ReputationControl.sol\":6158:6171  infoCompanies */\n      0x01\n        /* \"ReputationControl.sol\":6172:6182  _companies */\n      dup5\n        /* \"ReputationControl.sol\":6183:6184  i */\n      dup5\n        /* \"ReputationControl.sol\":6172:6185  _companies[i] */\n      dup2\n      mload\n      dup2\n      lt\n      tag_113\n      jumpi\n      tag_114\n      tag_59\n      jump\t// in\n    tag_114:\n    tag_113:\n      0x20\n      mul\n      0x20\n      add\n      add\n      mload\n        /* \"ReputationControl.sol\":6158:6186  infoCompanies[_companies[i]] */\n      mload(0x40)\n      tag_115\n      swap2\n      swap1\n      tag_108\n      jump\t// in\n    tag_115:\n      swap1\n      dup2\n      mstore\n      0x20\n      add\n      mload(0x40)\n      dup1\n      swap2\n      sub\n      swap1\n      keccak256\n        /* \"ReputationControl.sol\":6158:6195  infoCompanies[_companies[i]]._address */\n      0x00\n      add\n      0x00\n        /* \"ReputationControl.sol\":6158:6201  infoCompanies[_companies[i]]._address = add */\n      0x0100\n      exp\n      dup2\n      sload\n      dup2\n      0xffffffffffffffffffffffffffffffffffffffff\n      mul\n      not\n      and\n      swap1\n      dup4\n      0xffffffffffffffffffffffffffffffffffffffff\n      and\n      mul\n      or\n      swap1\n      sstore\n      pop\n        /* \"ReputationControl.sol\":6220:6229  companies */\n      0x02\n        /* \"ReputationControl.sol\":6235:6245  _companies */\n      dup4\n        /* \"ReputationControl.sol\":6246:6247  i */\n      dup4\n        /* \"ReputationControl.sol\":6235:6248  _companies[i] */\n      dup2\n      mload\n      dup2\n      lt\n      tag_116\n      jumpi\n      tag_117\n      tag_59\n      jump\t// in\n    tag_117:\n    tag_116:\n      0x20\n      mul\n      0x20\n      add\n      add\n      mload\n        /* \"ReputationControl.sol\":6220:6249  companies.push(_companies[i]) */\n      swap1\n      dup1\n      0x01\n      dup2\n      sload\n      add\n      dup1\n      dup3\n      sstore\n      dup1\n      swap2\n      pop\n      pop\n      0x01\n      swap1\n      sub\n      swap1\n      0x00\n      mstore\n      keccak256(0x00, 0x20)\n      add\n      0x00\n      swap1\n      swap2\n      swap1\n      swap2\n      swap1\n      swap2\n      pop\n      swap1\n      dup1\n      mload\n      swap1\n      0x20\n      add\n      swap1\n      tag_119\n      swap3\n      swap2\n      swap1\n      tag_120\n      jump\t// in\n    tag_119:\n      pop\n        /* \"ReputationControl.sol\":6268:6281  tokenContract */\n      0x00\n      dup1\n      sload\n      swap1\n      0x0100\n      exp\n      swap1\n      div\n      0xffffffffffffffffffffffffffffffffffffffff\n      and\n        /* \"ReputationControl.sol\":6268:6298  tokenContract.setParticipation */\n      0xffffffffffffffffffffffffffffffffffffffff\n      and\n      0x0cd8418d\n        /* \"ReputationControl.sol\":6299:6302  add */\n      dup3\n        /* \"ReputationControl.sol\":6303:6307  true */\n      0x01\n        /* \"ReputationControl.sol\":6268:6308  tokenContract.setParticipation(add,true) */\n      mload(0x40)\n      dup4\n      0xffffffff\n      and\n      0xe0\n      shl\n      dup2\n      mstore\n      0x04\n      add\n      tag_121\n      swap3\n      swap2\n      swap1\n      tag_122\n      jump\t// in\n    tag_121:\n      0x00\n      mload(0x40)\n      dup1\n      dup4\n      sub\n      dup2\n      0x00\n      dup8\n      dup1\n      extcodesize\n      iszero\n      dup1\n      iszero\n      tag_123\n      jumpi\n      0x00\n      dup1\n      revert\n    tag_123:\n      pop\n      gas\n      call\n      iszero\n      dup1\n      iszero\n      tag_125\n      jumpi\n      returndatasize\n      0x00\n      dup1\n      returndatacopy\n      revert(0x00, returndatasize)\n    tag_125:\n      pop\n      pop\n      pop\n      pop\n        /* \"ReputationControl.sol\":6046:6324  {... */\n      pop\n        /* \"ReputationControl.sol\":5991:6324  if(infoCompanies[_companies[i]]._address == address(0)){... */\n    tag_109:\n        /* \"ReputationControl.sol\":5972:5975  ++i */\n      dup1\n      tag_126\n      swap1\n      tag_72\n      jump\t// in\n    tag_126:\n      swap1\n      pop\n        /* \"ReputationControl.sol\":5933:6335  for(uint i = 0; i < _companies.length; ++i){... */\n      jump(tag_102)\n    tag_103:\n      pop\n        /* \"ReputationControl.sol\":5854:6342  function addCompanies(string[] memory _companies) external onlyOwner{... */\n      pop\n      jump\t// out\n        /* \"ReputationControl.sol\":6963:7220  function getBalance(string memory _company) external view returns (uint){... */\n    tag_32:\n        /* \"ReputationControl.sol\":7030:7034  uint */\n      0x00\n        /* \"ReputationControl.sol\":7098:7099  0 */\n      dup1\n        /* \"ReputationControl.sol\":7054:7100  infoCompanies[_company]._address != address(0) */\n      0xffffffffffffffffffffffffffffffffffffffff\n      and\n        /* \"ReputationControl.sol\":7054:7067  infoCompanies */\n      0x01\n        /* \"ReputationControl.sol\":7068:7076  _company */\n      dup4\n        /* \"ReputationControl.sol\":7054:7077  infoCompanies[_company] */\n      mload(0x40)\n      tag_128\n      swap2\n      swap1\n      tag_108\n      jump\t// in\n    tag_128:\n      swap1\n      dup2\n      mstore\n      0x20\n      add\n      mload(0x40)\n      dup1\n      swap2\n      sub\n      swap1\n      keccak256\n        /* \"ReputationControl.sol\":7054:7086  infoCompanies[_company]._address */\n      0x00\n      add\n      0x00\n      swap1\n      sload\n      swap1\n      0x0100\n      exp\n      swap1\n      div\n      0xffffffffffffffffffffffffffffffffffffffff\n      and\n        /* \"ReputationControl.sol\":7054:7100  infoCompanies[_company]._address != address(0) */\n      0xffffffffffffffffffffffffffffffffffffffff\n      and\n      eq\n      iszero\n        /* \"ReputationControl.sol\":7046:7137  require(infoCompanies[_company]._address != address(0), \"La empresa no esta en el sistema\") */\n      tag_129\n      jumpi\n      mload(0x40)\n      0x08c379a000000000000000000000000000000000000000000000000000000000\n      dup2\n      mstore\n      0x04\n      add\n      tag_130\n      swap1\n      tag_131\n      jump\t// in\n    tag_130:\n      mload(0x40)\n      dup1\n      swap2\n      sub\n      swap1\n      revert\n    tag_129:\n        /* \"ReputationControl.sol\":7155:7168  tokenContract */\n      0x00\n      dup1\n      sload\n      swap1\n      0x0100\n      exp\n      swap1\n      div\n      0xffffffffffffffffffffffffffffffffffffffff\n      and\n        /* \"ReputationControl.sol\":7155:7178  tokenContract.balanceOf */\n      0xffffffffffffffffffffffffffffffffffffffff\n      and\n      0x70a08231\n        /* \"ReputationControl.sol\":7179:7192  infoCompanies */\n      0x01\n        /* \"ReputationControl.sol\":7193:7201  _company */\n      dup5\n        /* \"ReputationControl.sol\":7179:7202  infoCompanies[_company] */\n      mload(0x40)\n      tag_132\n      swap2\n      swap1\n      tag_108\n      jump\t// in\n    tag_132:\n      swap1\n      dup2\n      mstore\n      0x20\n      add\n      mload(0x40)\n      dup1\n      swap2\n      sub\n      swap1\n      keccak256\n        /* \"ReputationControl.sol\":7179:7211  infoCompanies[_company]._address */\n      0x00\n      add\n      0x00\n      swap1\n      sload\n      swap1\n      0x0100\n      exp\n      swap1\n      div\n      0xffffffffffffffffffffffffffffffffffffffff\n      and\n        /* \"ReputationControl.sol\":7155:7212  tokenContract.balanceOf(infoCompanies[_company]._address) */\n      mload(0x40)\n      dup3\n      0xffffffff\n      and\n      0xe0\n      shl\n      dup2\n      mstore\n      0x04\n      add\n      tag_133\n      swap2\n      swap1\n      tag_64\n      jump\t// in\n    tag_133:\n      0x20\n      mload(0x40)\n      dup1\n      dup4\n      sub\n      dup2\n      dup7\n      gas\n      staticcall\n      iszero\n      dup1\n      iszero\n      tag_135\n      jumpi\n      returndatasize\n      0x00\n      dup1\n      returndatacopy\n      revert(0x00, returndatasize)\n    tag_135:\n      pop\n      pop\n      pop\n      pop\n      mload(0x40)\n      returndatasize\n      not(0x1f)\n      0x1f\n      dup3\n      add\n      and\n      dup3\n      add\n      dup1\n      0x40\n      mstore\n      pop\n      dup2\n      add\n      swap1\n      tag_136\n      swap2\n      swap1\n      tag_68\n      jump\t// in\n    tag_136:\n        /* \"ReputationControl.sol\":7148:7212  return tokenContract.balanceOf(infoCompanies[_company]._address) */\n      swap1\n      pop\n        /* \"ReputationControl.sol\":6963:7220  function getBalance(string memory _company) external view returns (uint){... */\n      swap2\n      swap1\n      pop\n      jump\t// out\n        /* \"ReputationControl.sol\":6746:6844  function getTotalComplaints() external view returns(uint){... */\n    tag_36:\n        /* \"ReputationControl.sol\":6798:6802  uint */\n      0x00\n        /* \"ReputationControl.sol\":6821:6836  totalComplaints */\n      sload(0x03)\n        /* \"ReputationControl.sol\":6814:6836  return totalComplaints */\n      swap1\n      pop\n        /* \"ReputationControl.sol\":6746:6844  function getTotalComplaints() external view returns(uint){... */\n      swap1\n      jump\t// out\n        /* \"ReputationControl.sol\":7871:8024  function getCompanyComplaints(string memory c_name) external view returns (string[] memory){... */\n    tag_40:\n        /* \"ReputationControl.sol\":7946:7961  string[] memory */\n      0x60\n        /* \"ReputationControl.sol\":7980:7993  infoCompanies */\n      0x01\n        /* \"ReputationControl.sol\":7994:8000  c_name */\n      dup3\n        /* \"ReputationControl.sol\":7980:8001  infoCompanies[c_name] */\n      mload(0x40)\n      tag_139\n      swap2\n      swap1\n      tag_108\n      jump\t// in\n    tag_139:\n      swap1\n      dup2\n      mstore\n      0x20\n      add\n      mload(0x40)\n      dup1\n      swap2\n      sub\n      swap1\n      keccak256\n        /* \"ReputationControl.sol\":7980:8016  infoCompanies[c_name].hashComplaints */\n      0x01\n      add\n        /* \"ReputationControl.sol\":7973:8016  return infoCompanies[c_name].hashComplaints */\n      dup1\n      sload\n      dup1\n      0x20\n      mul\n      0x20\n      add\n      mload(0x40)\n      swap1\n      dup2\n      add\n      0x40\n      mstore\n      dup1\n      swap3\n      swap2\n      swap1\n      dup2\n      dup2\n      mstore\n      0x20\n      add\n      0x00\n      swap1\n    tag_140:\n      dup3\n      dup3\n      lt\n      iszero\n      tag_141\n      jumpi\n      dup4\n      dup3\n      swap1\n      0x00\n      mstore\n      keccak256(0x00, 0x20)\n      add\n      dup1\n      sload\n      tag_143\n      swap1\n      tag_92\n      jump\t// in\n    tag_143:\n      dup1\n      0x1f\n      add\n      0x20\n      dup1\n      swap2\n      div\n      mul\n      0x20\n      add\n      mload(0x40)\n      swap1\n      dup2\n      add\n      0x40\n      mstore\n      dup1\n      swap3\n      swap2\n      swap1\n      dup2\n      dup2\n      mstore\n      0x20\n      add\n      dup3\n      dup1\n      sload\n      tag_144\n      swap1\n      tag_92\n      jump\t// in\n    tag_144:\n      dup1\n      iszero\n      tag_145\n      jumpi\n      dup1\n      0x1f\n      lt\n      tag_146\n      jumpi\n      0x0100\n      dup1\n      dup4\n      sload\n      div\n      mul\n      dup4\n      mstore\n      swap2\n      0x20\n      add\n      swap2\n      jump(tag_145)\n    tag_146:\n      dup3\n      add\n      swap2\n      swap1\n      0x00\n      mstore\n      keccak256(0x00, 0x20)\n      swap1\n    tag_147:\n      dup2\n      sload\n      dup2\n      mstore\n      swap1\n      0x01\n      add\n      swap1\n      0x20\n      add\n      dup1\n      dup4\n      gt\n      tag_147\n      jumpi\n      dup3\n      swap1\n      sub\n      0x1f\n      and\n      dup3\n      add\n      swap2\n    tag_145:\n      pop\n      pop\n      pop\n      pop\n      pop\n      dup2\n      mstore\n      0x20\n      add\n      swap1\n      0x01\n      add\n      swap1\n      jump(tag_140)\n    tag_141:\n      pop\n      pop\n      pop\n      pop\n      swap1\n      pop\n        /* \"ReputationControl.sol\":7871:8024  function getCompanyComplaints(string memory c_name) external view returns (string[] memory){... */\n      swap2\n      swap1\n      pop\n      jump\t// out\n        /* \"ReputationControl.sol\":8032:8396  function newComplaint(string memory _company, string memory _hash) external onlyOwner{... */\n    tag_45:\n        /* \"ReputationControl.sol\":5799:5804  owner */\n      immutable(\"0x251437c0092c2b0ae5c27df55e04490f08f4eb0dcb868271fba9915d5c3457ef\")\n        /* \"ReputationControl.sol\":5785:5804  msg.sender == owner */\n      0xffffffffffffffffffffffffffffffffffffffff\n      and\n        /* \"ReputationControl.sol\":5785:5795  msg.sender */\n      caller\n        /* \"ReputationControl.sol\":5785:5804  msg.sender == owner */\n      0xffffffffffffffffffffffffffffffffffffffff\n      and\n      eq\n        /* \"ReputationControl.sol\":5777:5826  require(msg.sender == owner,\"No tienes permisos\") */\n      tag_149\n      jumpi\n      mload(0x40)\n      0x08c379a000000000000000000000000000000000000000000000000000000000\n      dup2\n      mstore\n      0x04\n      add\n      tag_150\n      swap1\n      tag_100\n      jump\t// in\n    tag_150:\n      mload(0x40)\n      dup1\n      swap2\n      sub\n      swap1\n      revert\n    tag_149:\n        /* \"ReputationControl.sol\":8128:8143  address account */\n      0x00\n        /* \"ReputationControl.sol\":8146:8159  infoCompanies */\n      0x01\n        /* \"ReputationControl.sol\":8160:8168  _company */\n      dup4\n        /* \"ReputationControl.sol\":8146:8169  infoCompanies[_company] */\n      mload(0x40)\n      tag_152\n      swap2\n      swap1\n      tag_108\n      jump\t// in\n    tag_152:\n      swap1\n      dup2\n      mstore\n      0x20\n      add\n      mload(0x40)\n      dup1\n      swap2\n      sub\n      swap1\n      keccak256\n        /* \"ReputationControl.sol\":8146:8178  infoCompanies[_company]._address */\n      0x00\n      add\n      0x00\n      swap1\n      sload\n      swap1\n      0x0100\n      exp\n      swap1\n      div\n      0xffffffffffffffffffffffffffffffffffffffff\n      and\n        /* \"ReputationControl.sol\":8128:8178  address account = infoCompanies[_company]._address */\n      swap1\n      pop\n        /* \"ReputationControl.sol\":8216:8217  0 */\n      0x00\n        /* \"ReputationControl.sol\":8197:8218  account != address(0) */\n      0xffffffffffffffffffffffffffffffffffffffff\n      and\n        /* \"ReputationControl.sol\":8197:8204  account */\n      dup2\n        /* \"ReputationControl.sol\":8197:8218  account != address(0) */\n      0xffffffffffffffffffffffffffffffffffffffff\n      and\n      eq\n      iszero\n        /* \"ReputationControl.sol\":8189:8256  require(account != address(0),\"No esta en el sistema esta empresa\") */\n      tag_153\n      jumpi\n      mload(0x40)\n      0x08c379a000000000000000000000000000000000000000000000000000000000\n      dup2\n      mstore\n      0x04\n      add\n      tag_154\n      swap1\n      tag_155\n      jump\t// in\n    tag_154:\n      mload(0x40)\n      dup1\n      swap2\n      sub\n      swap1\n      revert\n    tag_153:\n        /* \"ReputationControl.sol\":8267:8280  infoCompanies */\n      0x01\n        /* \"ReputationControl.sol\":8281:8289  _company */\n      dup4\n        /* \"ReputationControl.sol\":8267:8290  infoCompanies[_company] */\n      mload(0x40)\n      tag_156\n      swap2\n      swap1\n      tag_108\n      jump\t// in\n    tag_156:\n      swap1\n      dup2\n      mstore\n      0x20\n      add\n      mload(0x40)\n      dup1\n      swap2\n      sub\n      swap1\n      keccak256\n        /* \"ReputationControl.sol\":8267:8305  infoCompanies[_company].hashComplaints */\n      0x01\n      add\n        /* \"ReputationControl.sol\":8311:8316  _hash */\n      dup3\n        /* \"ReputationControl.sol\":8267:8317  infoCompanies[_company].hashComplaints.push(_hash) */\n      swap1\n      dup1\n      0x01\n      dup2\n      sload\n      add\n      dup1\n      dup3\n      sstore\n      dup1\n      swap2\n      pop\n      pop\n      0x01\n      swap1\n      sub\n      swap1\n      0x00\n      mstore\n      keccak256(0x00, 0x20)\n      add\n      0x00\n      swap1\n      swap2\n      swap1\n      swap2\n      swap1\n      swap2\n      pop\n      swap1\n      dup1\n      mload\n      swap1\n      0x20\n      add\n      swap1\n      tag_158\n      swap3\n      swap2\n      swap1\n      tag_120\n      jump\t// in\n    tag_158:\n      pop\n        /* \"ReputationControl.sol\":8347:8348  1 */\n      0x01\n        /* \"ReputationControl.sol\":8328:8343  totalComplaints */\n      0x03\n      0x00\n        /* \"ReputationControl.sol\":8328:8348  totalComplaints += 1 */\n      dup3\n      dup3\n      sload\n      tag_159\n      swap2\n      swap1\n      tag_160\n      jump\t// in\n    tag_159:\n      swap3\n      pop\n      pop\n      dup2\n      swap1\n      sstore\n      pop\n        /* \"ReputationControl.sol\":8359:8372  tokenContract */\n      0x00\n      dup1\n      sload\n      swap1\n      0x0100\n      exp\n      swap1\n      div\n      0xffffffffffffffffffffffffffffffffffffffff\n      and\n        /* \"ReputationControl.sol\":8359:8377  tokenContract.mint */\n      0xffffffffffffffffffffffffffffffffffffffff\n      and\n      0x40c10f19\n        /* \"ReputationControl.sol\":8378:8385  account */\n      dup3\n        /* \"ReputationControl.sol\":8386:8387  1 */\n      0x01\n        /* \"ReputationControl.sol\":8359:8388  tokenContract.mint(account,1) */\n      mload(0x40)\n      dup4\n      0xffffffff\n      and\n      0xe0\n      shl\n      dup2\n      mstore\n      0x04\n      add\n      tag_161\n      swap3\n      swap2\n      swap1\n      tag_162\n      jump\t// in\n    tag_161:\n      0x00\n      mload(0x40)\n      dup1\n      dup4\n      sub\n      dup2\n      0x00\n      dup8\n      dup1\n      extcodesize\n      iszero\n      dup1\n      iszero\n      tag_163\n      jumpi\n      0x00\n      dup1\n      revert\n    tag_163:\n      pop\n      gas\n      call\n      iszero\n      dup1\n      iszero\n      tag_165\n      jumpi\n      returndatasize\n      0x00\n      dup1\n      returndatacopy\n      revert(0x00, returndatasize)\n    tag_165:\n      pop\n      pop\n      pop\n      pop\n        /* \"ReputationControl.sol\":8117:8396  {... */\n      pop\n        /* \"ReputationControl.sol\":8032:8396  function newComplaint(string memory _company, string memory _hash) external onlyOwner{... */\n      pop\n      pop\n      jump\t// out\n        /* \"ReputationControl.sol\":6350:6738  function addCompany(string memory _company) external onlyOwner{... */\n    tag_48:\n        /* \"ReputationControl.sol\":5799:5804  owner */\n      immutable(\"0x251437c0092c2b0ae5c27df55e04490f08f4eb0dcb868271fba9915d5c3457ef\")\n        /* \"ReputationControl.sol\":5785:5804  msg.sender == owner */\n      0xffffffffffffffffffffffffffffffffffffffff\n      and\n        /* \"ReputationControl.sol\":5785:5795  msg.sender */\n      caller\n        /* \"ReputationControl.sol\":5785:5804  msg.sender == owner */\n      0xffffffffffffffffffffffffffffffffffffffff\n      and\n      eq\n        /* \"ReputationControl.sol\":5777:5826  require(msg.sender == owner,\"No tienes permisos\") */\n      tag_167\n      jumpi\n      mload(0x40)\n      0x08c379a000000000000000000000000000000000000000000000000000000000\n      dup2\n      mstore\n      0x04\n      add\n      tag_168\n      swap1\n      tag_100\n      jump\t// in\n    tag_168:\n      mload(0x40)\n      dup1\n      swap2\n      sub\n      swap1\n      revert\n    tag_167:\n        /* \"ReputationControl.sol\":6475:6476  0 */\n      0x00\n        /* \"ReputationControl.sol\":6431:6477  infoCompanies[_company]._address == address(0) */\n      0xffffffffffffffffffffffffffffffffffffffff\n      and\n        /* \"ReputationControl.sol\":6431:6444  infoCompanies */\n      0x01\n        /* \"ReputationControl.sol\":6445:6453  _company */\n      dup3\n        /* \"ReputationControl.sol\":6431:6454  infoCompanies[_company] */\n      mload(0x40)\n      tag_170\n      swap2\n      swap1\n      tag_108\n      jump\t// in\n    tag_170:\n      swap1\n      dup2\n      mstore\n      0x20\n      add\n      mload(0x40)\n      dup1\n      swap2\n      sub\n      swap1\n      keccak256\n        /* \"ReputationControl.sol\":6431:6463  infoCompanies[_company]._address */\n      0x00\n      add\n      0x00\n      swap1\n      sload\n      swap1\n      0x0100\n      exp\n      swap1\n      div\n      0xffffffffffffffffffffffffffffffffffffffff\n      and\n        /* \"ReputationControl.sol\":6431:6477  infoCompanies[_company]._address == address(0) */\n      0xffffffffffffffffffffffffffffffffffffffff\n      and\n      eq\n        /* \"ReputationControl.sol\":6423:6515  require(infoCompanies[_company]._address == address(0),\"Ya esta en el sistema esta empresa\") */\n      tag_171\n      jumpi\n      mload(0x40)\n      0x08c379a000000000000000000000000000000000000000000000000000000000\n      dup2\n      mstore\n      0x04\n      add\n      tag_172\n      swap1\n      tag_173\n      jump\t// in\n    tag_172:\n      mload(0x40)\n      dup1\n      swap2\n      sub\n      swap1\n      revert\n    tag_171:\n        /* \"ReputationControl.sol\":6526:6537  address add */\n      0x00\n        /* \"ReputationControl.sol\":6583:6591  _company */\n      dup2\n        /* \"ReputationControl.sol\":6566:6592  abi.encodePacked(_company) */\n      add(0x20, mload(0x40))\n      tag_174\n      swap2\n      swap1\n      tag_108\n      jump\t// in\n    tag_174:\n      mload(0x40)\n      0x20\n      dup2\n      dup4\n      sub\n      sub\n      dup2\n      mstore\n      swap1\n      0x40\n      mstore\n        /* \"ReputationControl.sol\":6556:6593  keccak256(abi.encodePacked(_company)) */\n      dup1\n      mload\n      swap1\n      0x20\n      add\n      keccak256\n        /* \"ReputationControl.sol\":6540:6595  address(bytes20(keccak256(abi.encodePacked(_company)))) */\n      0x60\n      shr\n        /* \"ReputationControl.sol\":6526:6595  address add = address(bytes20(keccak256(abi.encodePacked(_company)))) */\n      swap1\n      pop\n        /* \"ReputationControl.sol\":6641:6644  add */\n      dup1\n        /* \"ReputationControl.sol\":6606:6619  infoCompanies */\n      0x01\n        /* \"ReputationControl.sol\":6620:6628  _company */\n      dup4\n        /* \"ReputationControl.sol\":6606:6629  infoCompanies[_company] */\n      mload(0x40)\n      tag_175\n      swap2\n      swap1\n      tag_108\n      jump\t// in\n    tag_175:\n      swap1\n      dup2\n      mstore\n      0x20\n      add\n      mload(0x40)\n      dup1\n      swap2\n      sub\n      swap1\n      keccak256\n        /* \"ReputationControl.sol\":6606:6638  infoCompanies[_company]._address */\n      0x00\n      add\n      0x00\n        /* \"ReputationControl.sol\":6606:6644  infoCompanies[_company]._address = add */\n      0x0100\n      exp\n      dup2\n      sload\n      dup2\n      0xffffffffffffffffffffffffffffffffffffffff\n      mul\n      not\n      and\n      swap1\n      dup4\n      0xffffffffffffffffffffffffffffffffffffffff\n      and\n      mul\n      or\n      swap1\n      sstore\n      pop\n        /* \"ReputationControl.sol\":6655:6664  companies */\n      0x02\n        /* \"ReputationControl.sol\":6670:6678  _company */\n      dup3\n        /* \"ReputationControl.sol\":6655:6679  companies.push(_company) */\n      swap1\n      dup1\n      0x01\n      dup2\n      sload\n      add\n      dup1\n      dup3\n      sstore\n      dup1\n      swap2\n      pop\n      pop\n      0x01\n      swap1\n      sub\n      swap1\n      0x00\n      mstore\n      keccak256(0x00, 0x20)\n      add\n      0x00\n      swap1\n      swap2\n      swap1\n      swap2\n      swap1\n      swap2\n      pop\n      swap1\n      dup1\n      mload\n      swap1\n      0x20\n      add\n      swap1\n      tag_177\n      swap3\n      swap2\n      swap1\n      tag_120\n      jump\t// in\n    tag_177:\n      pop\n        /* \"ReputationControl.sol\":6690:6703  tokenContract */\n      0x00\n      dup1\n      sload\n      swap1\n      0x0100\n      exp\n      swap1\n      div\n      0xffffffffffffffffffffffffffffffffffffffff\n      and\n        /* \"ReputationControl.sol\":6690:6720  tokenContract.setParticipation */\n      0xffffffffffffffffffffffffffffffffffffffff\n      and\n      0x0cd8418d\n        /* \"ReputationControl.sol\":6721:6724  add */\n      dup3\n        /* \"ReputationControl.sol\":6725:6729  true */\n      0x01\n        /* \"ReputationControl.sol\":6690:6730  tokenContract.setParticipation(add,true) */\n      mload(0x40)\n      dup4\n      0xffffffff\n      and\n      0xe0\n      shl\n      dup2\n      mstore\n      0x04\n      add\n      tag_178\n      swap3\n      swap2\n      swap1\n      tag_122\n      jump\t// in\n    tag_178:\n      0x00\n      mload(0x40)\n      dup1\n      dup4\n      sub\n      dup2\n      0x00\n      dup8\n      dup1\n      extcodesize\n      iszero\n      dup1\n      iszero\n      tag_179\n      jumpi\n      0x00\n      dup1\n      revert\n    tag_179:\n      pop\n      gas\n      call\n      iszero\n      dup1\n      iszero\n      tag_181\n      jumpi\n      returndatasize\n      0x00\n      dup1\n      returndatacopy\n      revert(0x00, returndatasize)\n    tag_181:\n      pop\n      pop\n      pop\n      pop\n        /* \"ReputationControl.sol\":6412:6738  {... */\n      pop\n        /* \"ReputationControl.sol\":6350:6738  function addCompany(string memory _company) external onlyOwner{... */\n      pop\n      jump\t// out\n    tag_120:\n      dup3\n      dup1\n      sload\n      tag_182\n      swap1\n      tag_92\n      jump\t// in\n    tag_182:\n      swap1\n      0x00\n      mstore\n      keccak256(0x00, 0x20)\n      swap1\n      0x1f\n      add\n      0x20\n      swap1\n      div\n      dup2\n      add\n      swap3\n      dup3\n      tag_184\n      jumpi\n      0x00\n      dup6\n      sstore\n      jump(tag_183)\n    tag_184:\n      dup3\n      0x1f\n      lt\n      tag_185\n      jumpi\n      dup1\n      mload\n      not(0xff)\n      and\n      dup4\n      dup1\n      add\n      or\n      dup6\n      sstore\n      jump(tag_183)\n    tag_185:\n      dup3\n      dup1\n      add\n      0x01\n      add\n      dup6\n      sstore\n      dup3\n      iszero\n      tag_183\n      jumpi\n      swap2\n      dup3\n      add\n    tag_186:\n      dup3\n      dup2\n      gt\n      iszero\n      tag_187\n      jumpi\n      dup3\n      mload\n      dup3\n      sstore\n      swap2\n      0x20\n      add\n      swap2\n      swap1\n      0x01\n      add\n      swap1\n      jump(tag_186)\n    tag_187:\n    tag_183:\n      pop\n      swap1\n      pop\n      tag_188\n      swap2\n      swap1\n      tag_189\n      jump\t// in\n    tag_188:\n      pop\n      swap1\n      jump\t// out\n    tag_189:\n    tag_190:\n      dup1\n      dup3\n      gt\n      iszero\n      tag_191\n      jumpi\n      0x00\n      dup2\n      0x00\n      swap1\n      sstore\n      pop\n      0x01\n      add\n      jump(tag_190)\n    tag_191:\n      pop\n      swap1\n      jump\t// out\n        /* \"#utility.yul\":7:121   */\n    tag_192:\n        /* \"#utility.yul\":74:80   */\n      0x00\n        /* \"#utility.yul\":108:113   */\n      dup2\n        /* \"#utility.yul\":102:114   */\n      mload\n        /* \"#utility.yul\":92:114   */\n      swap1\n      pop\n        /* \"#utility.yul\":7:121   */\n      swap2\n      swap1\n      pop\n      jump\t// out\n        /* \"#utility.yul\":127:311   */\n    tag_193:\n        /* \"#utility.yul\":226:237   */\n      0x00\n        /* \"#utility.yul\":260:266   */\n      dup3\n        /* \"#utility.yul\":255:258   */\n      dup3\n        /* \"#utility.yul\":248:267   */\n      mstore\n        /* \"#utility.yul\":300:304   */\n      0x20\n        /* \"#utility.yul\":295:298   */\n      dup3\n        /* \"#utility.yul\":291:305   */\n      add\n        /* \"#utility.yul\":276:305   */\n      swap1\n      pop\n        /* \"#utility.yul\":127:311   */\n      swap3\n      swap2\n      pop\n      pop\n      jump\t// out\n        /* \"#utility.yul\":317:449   */\n    tag_194:\n        /* \"#utility.yul\":384:388   */\n      0x00\n        /* \"#utility.yul\":407:410   */\n      dup2\n        /* \"#utility.yul\":399:410   */\n      swap1\n      pop\n        /* \"#utility.yul\":437:441   */\n      0x20\n        /* \"#utility.yul\":432:435   */\n      dup3\n        /* \"#utility.yul\":428:442   */\n      add\n        /* \"#utility.yul\":420:442   */\n      swap1\n      pop\n        /* \"#utility.yul\":317:449   */\n      swap2\n      swap1\n      pop\n      jump\t// out\n        /* \"#utility.yul\":455:532   */\n    tag_195:\n        /* \"#utility.yul\":492:499   */\n      0x00\n        /* \"#utility.yul\":521:526   */\n      dup2\n        /* \"#utility.yul\":510:526   */\n      swap1\n      pop\n        /* \"#utility.yul\":455:532   */\n      swap2\n      swap1\n      pop\n      jump\t// out\n        /* \"#utility.yul\":538:646   */\n    tag_196:\n        /* \"#utility.yul\":615:639   */\n      tag_266\n        /* \"#utility.yul\":633:638   */\n      dup2\n        /* \"#utility.yul\":615:639   */\n      tag_195\n      jump\t// in\n    tag_266:\n        /* \"#utility.yul\":610:613   */\n      dup3\n        /* \"#utility.yul\":603:640   */\n      mstore\n        /* \"#utility.yul\":538:646   */\n      pop\n      pop\n      jump\t// out\n        /* \"#utility.yul\":652:831   */\n    tag_197:\n        /* \"#utility.yul\":721:731   */\n      0x00\n        /* \"#utility.yul\":742:788   */\n      tag_268\n        /* \"#utility.yul\":784:787   */\n      dup4\n        /* \"#utility.yul\":776:782   */\n      dup4\n        /* \"#utility.yul\":742:788   */\n      tag_196\n      jump\t// in\n    tag_268:\n        /* \"#utility.yul\":820:824   */\n      0x20\n        /* \"#utility.yul\":815:818   */\n      dup4\n        /* \"#utility.yul\":811:825   */\n      add\n        /* \"#utility.yul\":797:825   */\n      swap1\n      pop\n        /* \"#utility.yul\":652:831   */\n      swap3\n      swap2\n      pop\n      pop\n      jump\t// out\n        /* \"#utility.yul\":837:950   */\n    tag_198:\n        /* \"#utility.yul\":907:911   */\n      0x00\n        /* \"#utility.yul\":939:943   */\n      0x20\n        /* \"#utility.yul\":934:937   */\n      dup3\n        /* \"#utility.yul\":930:944   */\n      add\n        /* \"#utility.yul\":922:944   */\n      swap1\n      pop\n        /* \"#utility.yul\":837:950   */\n      swap2\n      swap1\n      pop\n      jump\t// out\n        /* \"#utility.yul\":986:1718   */\n    tag_199:\n        /* \"#utility.yul\":1105:1108   */\n      0x00\n        /* \"#utility.yul\":1134:1188   */\n      tag_271\n        /* \"#utility.yul\":1182:1187   */\n      dup3\n        /* \"#utility.yul\":1134:1188   */\n      tag_192\n      jump\t// in\n    tag_271:\n        /* \"#utility.yul\":1204:1290   */\n      tag_272\n        /* \"#utility.yul\":1283:1289   */\n      dup2\n        /* \"#utility.yul\":1278:1281   */\n      dup6\n        /* \"#utility.yul\":1204:1290   */\n      tag_193\n      jump\t// in\n    tag_272:\n        /* \"#utility.yul\":1197:1290   */\n      swap4\n      pop\n        /* \"#utility.yul\":1314:1370   */\n      tag_273\n        /* \"#utility.yul\":1364:1369   */\n      dup4\n        /* \"#utility.yul\":1314:1370   */\n      tag_194\n      jump\t// in\n    tag_273:\n        /* \"#utility.yul\":1393:1400   */\n      dup1\n        /* \"#utility.yul\":1424:1425   */\n      0x00\n        /* \"#utility.yul\":1409:1693   */\n    tag_274:\n        /* \"#utility.yul\":1434:1440   */\n      dup4\n        /* \"#utility.yul\":1431:1432   */\n      dup2\n        /* \"#utility.yul\":1428:1441   */\n      lt\n        /* \"#utility.yul\":1409:1693   */\n      iszero\n      tag_276\n      jumpi\n        /* \"#utility.yul\":1510:1516   */\n      dup2\n        /* \"#utility.yul\":1504:1517   */\n      mload\n        /* \"#utility.yul\":1537:1600   */\n      tag_277\n        /* \"#utility.yul\":1596:1599   */\n      dup9\n        /* \"#utility.yul\":1581:1594   */\n      dup3\n        /* \"#utility.yul\":1537:1600   */\n      tag_197\n      jump\t// in\n    tag_277:\n        /* \"#utility.yul\":1530:1600   */\n      swap8\n      pop\n        /* \"#utility.yul\":1623:1683   */\n      tag_278\n        /* \"#utility.yul\":1676:1682   */\n      dup4\n        /* \"#utility.yul\":1623:1683   */\n      tag_198\n      jump\t// in\n    tag_278:\n        /* \"#utility.yul\":1613:1683   */\n      swap3\n      pop\n        /* \"#utility.yul\":1469:1693   */\n      pop\n        /* \"#utility.yul\":1456:1457   */\n      0x01\n        /* \"#utility.yul\":1453:1454   */\n      dup2\n        /* \"#utility.yul\":1449:1458   */\n      add\n        /* \"#utility.yul\":1444:1458   */\n      swap1\n      pop\n        /* \"#utility.yul\":1409:1693   */\n      jump(tag_274)\n    tag_276:\n        /* \"#utility.yul\":1413:1427   */\n      pop\n        /* \"#utility.yul\":1709:1712   */\n      dup6\n        /* \"#utility.yul\":1702:1712   */\n      swap4\n      pop\n        /* \"#utility.yul\":1110:1718   */\n      pop\n      pop\n      pop\n        /* \"#utility.yul\":986:1718   */\n      swap3\n      swap2\n      pop\n      pop\n      jump\t// out\n        /* \"#utility.yul\":1724:2097   */\n    tag_16:\n        /* \"#utility.yul\":1867:1871   */\n      0x00\n        /* \"#utility.yul\":1905:1907   */\n      0x20\n        /* \"#utility.yul\":1894:1903   */\n      dup3\n        /* \"#utility.yul\":1890:1908   */\n      add\n        /* \"#utility.yul\":1882:1908   */\n      swap1\n      pop\n        /* \"#utility.yul\":1954:1963   */\n      dup2\n        /* \"#utility.yul\":1948:1952   */\n      dup2\n        /* \"#utility.yul\":1944:1964   */\n      sub\n        /* \"#utility.yul\":1940:1941   */\n      0x00\n        /* \"#utility.yul\":1929:1938   */\n      dup4\n        /* \"#utility.yul\":1925:1942   */\n      add\n        /* \"#utility.yul\":1918:1965   */\n      mstore\n        /* \"#utility.yul\":1982:2090   */\n      tag_280\n        /* \"#utility.yul\":2085:2089   */\n      dup2\n        /* \"#utility.yul\":2076:2082   */\n      dup5\n        /* \"#utility.yul\":1982:2090   */\n      tag_199\n      jump\t// in\n    tag_280:\n        /* \"#utility.yul\":1974:2090   */\n      swap1\n      pop\n        /* \"#utility.yul\":1724:2097   */\n      swap3\n      swap2\n      pop\n      pop\n      jump\t// out\n        /* \"#utility.yul\":2103:2217   */\n    tag_200:\n        /* \"#utility.yul\":2170:2176   */\n      0x00\n        /* \"#utility.yul\":2204:2209   */\n      dup2\n        /* \"#utility.yul\":2198:2210   */\n      mload\n        /* \"#utility.yul\":2188:2210   */\n      swap1\n      pop\n        /* \"#utility.yul\":2103:2217   */\n      swap2\n      swap1\n      pop\n      jump\t// out\n        /* \"#utility.yul\":2223:2407   */\n    tag_201:\n        /* \"#utility.yul\":2322:2333   */\n      0x00\n        /* \"#utility.yul\":2356:2362   */\n      dup3\n        /* \"#utility.yul\":2351:2354   */\n      dup3\n        /* \"#utility.yul\":2344:2363   */\n      mstore\n        /* \"#utility.yul\":2396:2400   */\n      0x20\n        /* \"#utility.yul\":2391:2394   */\n      dup3\n        /* \"#utility.yul\":2387:2401   */\n      add\n        /* \"#utility.yul\":2372:2401   */\n      swap1\n      pop\n        /* \"#utility.yul\":2223:2407   */\n      swap3\n      swap2\n      pop\n      pop\n      jump\t// out\n        /* \"#utility.yul\":2413:2545   */\n    tag_202:\n        /* \"#utility.yul\":2480:2484   */\n      0x00\n        /* \"#utility.yul\":2503:2506   */\n      dup2\n        /* \"#utility.yul\":2495:2506   */\n      swap1\n      pop\n        /* \"#utility.yul\":2533:2537   */\n      0x20\n        /* \"#utility.yul\":2528:2531   */\n      dup3\n        /* \"#utility.yul\":2524:2538   */\n      add\n        /* \"#utility.yul\":2516:2538   */\n      swap1\n      pop\n        /* \"#utility.yul\":2413:2545   */\n      swap2\n      swap1\n      pop\n      jump\t// out\n        /* \"#utility.yul\":2551:2677   */\n    tag_203:\n        /* \"#utility.yul\":2588:2595   */\n      0x00\n        /* \"#utility.yul\":2628:2670   */\n      0xffffffffffffffffffffffffffffffffffffffff\n        /* \"#utility.yul\":2621:2626   */\n      dup3\n        /* \"#utility.yul\":2617:2671   */\n      and\n        /* \"#utility.yul\":2606:2671   */\n      swap1\n      pop\n        /* \"#utility.yul\":2551:2677   */\n      swap2\n      swap1\n      pop\n      jump\t// out\n        /* \"#utility.yul\":2683:2779   */\n    tag_204:\n        /* \"#utility.yul\":2720:2727   */\n      0x00\n        /* \"#utility.yul\":2749:2773   */\n      tag_286\n        /* \"#utility.yul\":2767:2772   */\n      dup3\n        /* \"#utility.yul\":2749:2773   */\n      tag_203\n      jump\t// in\n    tag_286:\n        /* \"#utility.yul\":2738:2773   */\n      swap1\n      pop\n        /* \"#utility.yul\":2683:2779   */\n      swap2\n      swap1\n      pop\n      jump\t// out\n        /* \"#utility.yul\":2785:2893   */\n    tag_205:\n        /* \"#utility.yul\":2862:2886   */\n      tag_288\n        /* \"#utility.yul\":2880:2885   */\n      dup2\n        /* \"#utility.yul\":2862:2886   */\n      tag_204\n      jump\t// in\n    tag_288:\n        /* \"#utility.yul\":2857:2860   */\n      dup3\n        /* \"#utility.yul\":2850:2887   */\n      mstore\n        /* \"#utility.yul\":2785:2893   */\n      pop\n      pop\n      jump\t// out\n        /* \"#utility.yul\":2899:3078   */\n    tag_206:\n        /* \"#utility.yul\":2968:2978   */\n      0x00\n        /* \"#utility.yul\":2989:3035   */\n      tag_290\n        /* \"#utility.yul\":3031:3034   */\n      dup4\n        /* \"#utility.yul\":3023:3029   */\n      dup4\n        /* \"#utility.yul\":2989:3035   */\n      tag_205\n      jump\t// in\n    tag_290:\n        /* \"#utility.yul\":3067:3071   */\n      0x20\n        /* \"#utility.yul\":3062:3065   */\n      dup4\n        /* \"#utility.yul\":3058:3072   */\n      add\n        /* \"#utility.yul\":3044:3072   */\n      swap1\n      pop\n        /* \"#utility.yul\":2899:3078   */\n      swap3\n      swap2\n      pop\n      pop\n      jump\t// out\n        /* \"#utility.yul\":3084:3197   */\n    tag_207:\n        /* \"#utility.yul\":3154:3158   */\n      0x00\n        /* \"#utility.yul\":3186:3190   */\n      0x20\n        /* \"#utility.yul\":3181:3184   */\n      dup3\n        /* \"#utility.yul\":3177:3191   */\n      add\n        /* \"#utility.yul\":3169:3191   */\n      swap1\n      pop\n        /* \"#utility.yul\":3084:3197   */\n      swap2\n      swap1\n      pop\n      jump\t// out\n        /* \"#utility.yul\":3233:3965   */\n    tag_208:\n        /* \"#utility.yul\":3352:3355   */\n      0x00\n        /* \"#utility.yul\":3381:3435   */\n      tag_293\n        /* \"#utility.yul\":3429:3434   */\n      dup3\n        /* \"#utility.yul\":3381:3435   */\n      tag_200\n      jump\t// in\n    tag_293:\n        /* \"#utility.yul\":3451:3537   */\n      tag_294\n        /* \"#utility.yul\":3530:3536   */\n      dup2\n        /* \"#utility.yul\":3525:3528   */\n      dup6\n        /* \"#utility.yul\":3451:3537   */\n      tag_201\n      jump\t// in\n    tag_294:\n        /* \"#utility.yul\":3444:3537   */\n      swap4\n      pop\n        /* \"#utility.yul\":3561:3617   */\n      tag_295\n        /* \"#utility.yul\":3611:3616   */\n      dup4\n        /* \"#utility.yul\":3561:3617   */\n      tag_202\n      jump\t// in\n    tag_295:\n        /* \"#utility.yul\":3640:3647   */\n      dup1\n        /* \"#utility.yul\":3671:3672   */\n      0x00\n        /* \"#utility.yul\":3656:3940   */\n    tag_296:\n        /* \"#utility.yul\":3681:3687   */\n      dup4\n        /* \"#utility.yul\":3678:3679   */\n      dup2\n        /* \"#utility.yul\":3675:3688   */\n      lt\n        /* \"#utility.yul\":3656:3940   */\n      iszero\n      tag_298\n      jumpi\n        /* \"#utility.yul\":3757:3763   */\n      dup2\n        /* \"#utility.yul\":3751:3764   */\n      mload\n        /* \"#utility.yul\":3784:3847   */\n      tag_299\n        /* \"#utility.yul\":3843:3846   */\n      dup9\n        /* \"#utility.yul\":3828:3841   */\n      dup3\n        /* \"#utility.yul\":3784:3847   */\n      tag_206\n      jump\t// in\n    tag_299:\n        /* \"#utility.yul\":3777:3847   */\n      swap8\n      pop\n        /* \"#utility.yul\":3870:3930   */\n      tag_300\n        /* \"#utility.yul\":3923:3929   */\n      dup4\n        /* \"#utility.yul\":3870:3930   */\n      tag_207\n      jump\t// in\n    tag_300:\n        /* \"#utility.yul\":3860:3930   */\n      swap3\n      pop\n        /* \"#utility.yul\":3716:3940   */\n      pop\n        /* \"#utility.yul\":3703:3704   */\n      0x01\n        /* \"#utility.yul\":3700:3701   */\n      dup2\n        /* \"#utility.yul\":3696:3705   */\n      add\n        /* \"#utility.yul\":3691:3705   */\n      swap1\n      pop\n        /* \"#utility.yul\":3656:3940   */\n      jump(tag_296)\n    tag_298:\n        /* \"#utility.yul\":3660:3674   */\n      pop\n        /* \"#utility.yul\":3956:3959   */\n      dup6\n        /* \"#utility.yul\":3949:3959   */\n      swap4\n      pop\n        /* \"#utility.yul\":3357:3965   */\n      pop\n      pop\n      pop\n        /* \"#utility.yul\":3233:3965   */\n      swap3\n      swap2\n      pop\n      pop\n      jump\t// out\n        /* \"#utility.yul\":3971:4344   */\n    tag_20:\n        /* \"#utility.yul\":4114:4118   */\n      0x00\n        /* \"#utility.yul\":4152:4154   */\n      0x20\n        /* \"#utility.yul\":4141:4150   */\n      dup3\n        /* \"#utility.yul\":4137:4155   */\n      add\n        /* \"#utility.yul\":4129:4155   */\n      swap1\n      pop\n        /* \"#utility.yul\":4201:4210   */\n      dup2\n        /* \"#utility.yul\":4195:4199   */\n      dup2\n        /* \"#utility.yul\":4191:4211   */\n      sub\n        /* \"#utility.yul\":4187:4188   */\n      0x00\n        /* \"#utility.yul\":4176:4185   */\n      dup4\n        /* \"#utility.yul\":4172:4189   */\n      add\n        /* \"#utility.yul\":4165:4212   */\n      mstore\n        /* \"#utility.yul\":4229:4337   */\n      tag_302\n        /* \"#utility.yul\":4332:4336   */\n      dup2\n        /* \"#utility.yul\":4323:4329   */\n      dup5\n        /* \"#utility.yul\":4229:4337   */\n      tag_208\n      jump\t// in\n    tag_302:\n        /* \"#utility.yul\":4221:4337   */\n      swap1\n      pop\n        /* \"#utility.yul\":3971:4344   */\n      swap3\n      swap2\n      pop\n      pop\n      jump\t// out\n        /* \"#utility.yul\":4350:4474   */\n    tag_209:\n        /* \"#utility.yul\":4427:4433   */\n      0x00\n        /* \"#utility.yul\":4461:4466   */\n      dup2\n        /* \"#utility.yul\":4455:4467   */\n      mload\n        /* \"#utility.yul\":4445:4467   */\n      swap1\n      pop\n        /* \"#utility.yul\":4350:4474   */\n      swap2\n      swap1\n      pop\n      jump\t// out\n        /* \"#utility.yul\":4480:4674   */\n    tag_210:\n        /* \"#utility.yul\":4589:4600   */\n      0x00\n        /* \"#utility.yul\":4623:4629   */\n      dup3\n        /* \"#utility.yul\":4618:4621   */\n      dup3\n        /* \"#utility.yul\":4611:4630   */\n      mstore\n        /* \"#utility.yul\":4663:4667   */\n      0x20\n        /* \"#utility.yul\":4658:4661   */\n      dup3\n        /* \"#utility.yul\":4654:4668   */\n      add\n        /* \"#utility.yul\":4639:4668   */\n      swap1\n      pop\n        /* \"#utility.yul\":4480:4674   */\n      swap3\n      swap2\n      pop\n      pop\n      jump\t// out\n        /* \"#utility.yul\":4680:4822   */\n    tag_211:\n        /* \"#utility.yul\":4757:4761   */\n      0x00\n        /* \"#utility.yul\":4780:4783   */\n      dup2\n        /* \"#utility.yul\":4772:4783   */\n      swap1\n      pop\n        /* \"#utility.yul\":4810:4814   */\n      0x20\n        /* \"#utility.yul\":4805:4808   */\n      dup3\n        /* \"#utility.yul\":4801:4815   */\n      add\n        /* \"#utility.yul\":4793:4815   */\n      swap1\n      pop\n        /* \"#utility.yul\":4680:4822   */\n      swap2\n      swap1\n      pop\n      jump\t// out\n        /* \"#utility.yul\":4828:4927   */\n    tag_212:\n        /* \"#utility.yul\":4880:4886   */\n      0x00\n        /* \"#utility.yul\":4914:4919   */\n      dup2\n        /* \"#utility.yul\":4908:4920   */\n      mload\n        /* \"#utility.yul\":4898:4920   */\n      swap1\n      pop\n        /* \"#utility.yul\":4828:4927   */\n      swap2\n      swap1\n      pop\n      jump\t// out\n        /* \"#utility.yul\":4933:5092   */\n    tag_213:\n        /* \"#utility.yul\":5007:5018   */\n      0x00\n        /* \"#utility.yul\":5041:5047   */\n      dup3\n        /* \"#utility.yul\":5036:5039   */\n      dup3\n        /* \"#utility.yul\":5029:5048   */\n      mstore\n        /* \"#utility.yul\":5081:5085   */\n      0x20\n        /* \"#utility.yul\":5076:5079   */\n      dup3\n        /* \"#utility.yul\":5072:5086   */\n      add\n        /* \"#utility.yul\":5057:5086   */\n      swap1\n      pop\n        /* \"#utility.yul\":4933:5092   */\n      swap3\n      swap2\n      pop\n      pop\n      jump\t// out\n        /* \"#utility.yul\":5098:5405   */\n    tag_214:\n        /* \"#utility.yul\":5166:5167   */\n      0x00\n        /* \"#utility.yul\":5176:5289   */\n    tag_309:\n        /* \"#utility.yul\":5190:5196   */\n      dup4\n        /* \"#utility.yul\":5187:5188   */\n      dup2\n        /* \"#utility.yul\":5184:5197   */\n      lt\n        /* \"#utility.yul\":5176:5289   */\n      iszero\n      tag_311\n      jumpi\n        /* \"#utility.yul\":5275:5276   */\n      dup1\n        /* \"#utility.yul\":5270:5273   */\n      dup3\n        /* \"#utility.yul\":5266:5277   */\n      add\n        /* \"#utility.yul\":5260:5278   */\n      mload\n        /* \"#utility.yul\":5256:5257   */\n      dup2\n        /* \"#utility.yul\":5251:5254   */\n      dup5\n        /* \"#utility.yul\":5247:5258   */\n      add\n        /* \"#utility.yul\":5240:5279   */\n      mstore\n        /* \"#utility.yul\":5212:5214   */\n      0x20\n        /* \"#utility.yul\":5209:5210   */\n      dup2\n        /* \"#utility.yul\":5205:5215   */\n      add\n        /* \"#utility.yul\":5200:5215   */\n      swap1\n      pop\n        /* \"#utility.yul\":5176:5289   */\n      jump(tag_309)\n    tag_311:\n        /* \"#utility.yul\":5307:5313   */\n      dup4\n        /* \"#utility.yul\":5304:5305   */\n      dup2\n        /* \"#utility.yul\":5301:5314   */\n      gt\n        /* \"#utility.yul\":5298:5399   */\n      iszero\n      tag_312\n      jumpi\n        /* \"#utility.yul\":5387:5388   */\n      0x00\n        /* \"#utility.yul\":5378:5384   */\n      dup5\n        /* \"#utility.yul\":5373:5376   */\n      dup5\n        /* \"#utility.yul\":5369:5385   */\n      add\n        /* \"#utility.yul\":5362:5389   */\n      mstore\n        /* \"#utility.yul\":5298:5399   */\n    tag_312:\n        /* \"#utility.yul\":5147:5405   */\n      pop\n        /* \"#utility.yul\":5098:5405   */\n      pop\n      pop\n      pop\n      jump\t// out\n        /* \"#utility.yul\":5411:5513   */\n    tag_215:\n        /* \"#utility.yul\":5452:5458   */\n      0x00\n        /* \"#utility.yul\":5503:5505   */\n      0x1f\n        /* \"#utility.yul\":5499:5506   */\n      not\n        /* \"#utility.yul\":5494:5496   */\n      0x1f\n        /* \"#utility.yul\":5487:5492   */\n      dup4\n        /* \"#utility.yul\":5483:5497   */\n      add\n        /* \"#utility.yul\":5479:5507   */\n      and\n        /* \"#utility.yul\":5469:5507   */\n      swap1\n      pop\n        /* \"#utility.yul\":5411:5513   */\n      swap2\n      swap1\n      pop\n      jump\t// out\n        /* \"#utility.yul\":5519:5863   */\n    tag_216:\n        /* \"#utility.yul\":5597:5600   */\n      0x00\n        /* \"#utility.yul\":5625:5664   */\n      tag_315\n        /* \"#utility.yul\":5658:5663   */\n      dup3\n        /* \"#utility.yul\":5625:5664   */\n      tag_212\n      jump\t// in\n    tag_315:\n        /* \"#utility.yul\":5680:5741   */\n      tag_316\n        /* \"#utility.yul\":5734:5740   */\n      dup2\n        /* \"#utility.yul\":5729:5732   */\n      dup6\n        /* \"#utility.yul\":5680:5741   */\n      tag_213\n      jump\t// in\n    tag_316:\n        /* \"#utility.yul\":5673:5741   */\n      swap4\n      pop\n        /* \"#utility.yul\":5750:5802   */\n      tag_317\n        /* \"#utility.yul\":5795:5801   */\n      dup2\n        /* \"#utility.yul\":5790:5793   */\n      dup6\n        /* \"#utility.yul\":5783:5787   */\n      0x20\n        /* \"#utility.yul\":5776:5781   */\n      dup7\n        /* \"#utility.yul\":5772:5788   */\n      add\n        /* \"#utility.yul\":5750:5802   */\n      tag_214\n      jump\t// in\n    tag_317:\n        /* \"#utility.yul\":5827:5856   */\n      tag_318\n        /* \"#utility.yul\":5849:5855   */\n      dup2\n        /* \"#utility.yul\":5827:5856   */\n      tag_215\n      jump\t// in\n    tag_318:\n        /* \"#utility.yul\":5822:5825   */\n      dup5\n        /* \"#utility.yul\":5818:5857   */\n      add\n        /* \"#utility.yul\":5811:5857   */\n      swap2\n      pop\n        /* \"#utility.yul\":5601:5863   */\n      pop\n        /* \"#utility.yul\":5519:5863   */\n      swap3\n      swap2\n      pop\n      pop\n      jump\t// out\n        /* \"#utility.yul\":5869:6065   */\n    tag_217:\n        /* \"#utility.yul\":5958:5968   */\n      0x00\n        /* \"#utility.yul\":5993:6059   */\n      tag_320\n        /* \"#utility.yul\":6055:6058   */\n      dup4\n        /* \"#utility.yul\":6047:6053   */\n      dup4\n        /* \"#utility.yul\":5993:6059   */\n      tag_216\n      jump\t// in\n    tag_320:\n        /* \"#utility.yul\":5979:6059   */\n      swap1\n      pop\n        /* \"#utility.yul\":5869:6065   */\n      swap3\n      swap2\n      pop\n      pop\n      jump\t// out\n        /* \"#utility.yul\":6071:6194   */\n    tag_218:\n        /* \"#utility.yul\":6151:6155   */\n      0x00\n        /* \"#utility.yul\":6183:6187   */\n      0x20\n        /* \"#utility.yul\":6178:6181   */\n      dup3\n        /* \"#utility.yul\":6174:6188   */\n      add\n        /* \"#utility.yul\":6166:6188   */\n      swap1\n      pop\n        /* \"#utility.yul\":6071:6194   */\n      swap2\n      swap1\n      pop\n      jump\t// out\n        /* \"#utility.yul\":6228:7219   */\n    tag_219:\n        /* \"#utility.yul\":6367:6370   */\n      0x00\n        /* \"#utility.yul\":6396:6460   */\n      tag_323\n        /* \"#utility.yul\":6454:6459   */\n      dup3\n        /* \"#utility.yul\":6396:6460   */\n      tag_209\n      jump\t// in\n    tag_323:\n        /* \"#utility.yul\":6476:6572   */\n      tag_324\n        /* \"#utility.yul\":6565:6571   */\n      dup2\n        /* \"#utility.yul\":6560:6563   */\n      dup6\n        /* \"#utility.yul\":6476:6572   */\n      tag_210\n      jump\t// in\n    tag_324:\n        /* \"#utility.yul\":6469:6572   */\n      swap4\n      pop\n        /* \"#utility.yul\":6598:6601   */\n      dup4\n        /* \"#utility.yul\":6643:6647   */\n      0x20\n        /* \"#utility.yul\":6635:6641   */\n      dup3\n        /* \"#utility.yul\":6631:6648   */\n      mul\n        /* \"#utility.yul\":6626:6629   */\n      dup6\n        /* \"#utility.yul\":6622:6649   */\n      add\n        /* \"#utility.yul\":6673:6739   */\n      tag_325\n        /* \"#utility.yul\":6733:6738   */\n      dup6\n        /* \"#utility.yul\":6673:6739   */\n      tag_211\n      jump\t// in\n    tag_325:\n        /* \"#utility.yul\":6762:6769   */\n      dup1\n        /* \"#utility.yul\":6793:6794   */\n      0x00\n        /* \"#utility.yul\":6778:7174   */\n    tag_326:\n        /* \"#utility.yul\":6803:6809   */\n      dup6\n        /* \"#utility.yul\":6800:6801   */\n      dup2\n        /* \"#utility.yul\":6797:6810   */\n      lt\n        /* \"#utility.yul\":6778:7174   */\n      iszero\n      tag_328\n      jumpi\n        /* \"#utility.yul\":6874:6883   */\n      dup5\n        /* \"#utility.yul\":6868:6872   */\n      dup5\n        /* \"#utility.yul\":6864:6884   */\n      sub\n        /* \"#utility.yul\":6859:6862   */\n      dup10\n        /* \"#utility.yul\":6852:6885   */\n      mstore\n        /* \"#utility.yul\":6925:6931   */\n      dup2\n        /* \"#utility.yul\":6919:6932   */\n      mload\n        /* \"#utility.yul\":6953:7037   */\n      tag_329\n        /* \"#utility.yul\":7032:7036   */\n      dup6\n        /* \"#utility.yul\":7017:7030   */\n      dup3\n        /* \"#utility.yul\":6953:7037   */\n      tag_217\n      jump\t// in\n    tag_329:\n        /* \"#utility.yul\":6945:7037   */\n      swap5\n      pop\n        /* \"#utility.yul\":7060:7130   */\n      tag_330\n        /* \"#utility.yul\":7123:7129   */\n      dup4\n        /* \"#utility.yul\":7060:7130   */\n      tag_218\n      jump\t// in\n    tag_330:\n        /* \"#utility.yul\":7050:7130   */\n      swap3\n      pop\n        /* \"#utility.yul\":7159:7163   */\n      0x20\n        /* \"#utility.yul\":7154:7157   */\n      dup11\n        /* \"#utility.yul\":7150:7164   */\n      add\n        /* \"#utility.yul\":7143:7164   */\n      swap10\n      pop\n        /* \"#utility.yul\":6838:7174   */\n      pop\n        /* \"#utility.yul\":6825:6826   */\n      0x01\n        /* \"#utility.yul\":6822:6823   */\n      dup2\n        /* \"#utility.yul\":6818:6827   */\n      add\n        /* \"#utility.yul\":6813:6827   */\n      swap1\n      pop\n        /* \"#utility.yul\":6778:7174   */\n      jump(tag_326)\n    tag_328:\n        /* \"#utility.yul\":6782:6796   */\n      pop\n        /* \"#utility.yul\":7190:7194   */\n      dup3\n        /* \"#utility.yul\":7183:7194   */\n      swap8\n      pop\n        /* \"#utility.yul\":7210:7213   */\n      dup8\n        /* \"#utility.yul\":7203:7213   */\n      swap6\n      pop\n        /* \"#utility.yul\":6372:7219   */\n      pop\n      pop\n      pop\n      pop\n      pop\n        /* \"#utility.yul\":6228:7219   */\n      swap3\n      swap2\n      pop\n      pop\n      jump\t// out\n        /* \"#utility.yul\":7225:7638   */\n    tag_24:\n        /* \"#utility.yul\":7388:7392   */\n      0x00\n        /* \"#utility.yul\":7426:7428   */\n      0x20\n        /* \"#utility.yul\":7415:7424   */\n      dup3\n        /* \"#utility.yul\":7411:7429   */\n      add\n        /* \"#utility.yul\":7403:7429   */\n      swap1\n      pop\n        /* \"#utility.yul\":7475:7484   */\n      dup2\n        /* \"#utility.yul\":7469:7473   */\n      dup2\n        /* \"#utility.yul\":7465:7485   */\n      sub\n        /* \"#utility.yul\":7461:7462   */\n      0x00\n        /* \"#utility.yul\":7450:7459   */\n      dup4\n        /* \"#utility.yul\":7446:7463   */\n      add\n        /* \"#utility.yul\":7439:7486   */\n      mstore\n        /* \"#utility.yul\":7503:7631   */\n      tag_332\n        /* \"#utility.yul\":7626:7630   */\n      dup2\n        /* \"#utility.yul\":7617:7623   */\n      dup5\n        /* \"#utility.yul\":7503:7631   */\n      tag_219\n      jump\t// in\n    tag_332:\n        /* \"#utility.yul\":7495:7631   */\n      swap1\n      pop\n        /* \"#utility.yul\":7225:7638   */\n      swap3\n      swap2\n      pop\n      pop\n      jump\t// out\n        /* \"#utility.yul\":7644:7719   */\n    tag_220:\n        /* \"#utility.yul\":7677:7683   */\n      0x00\n        /* \"#utility.yul\":7710:7712   */\n      0x40\n        /* \"#utility.yul\":7704:7713   */\n      mload\n        /* \"#utility.yul\":7694:7713   */\n      swap1\n      pop\n        /* \"#utility.yul\":7644:7719   */\n      swap1\n      jump\t// out\n        /* \"#utility.yul\":7725:7842   */\n    tag_221:\n        /* \"#utility.yul\":7834:7835   */\n      0x00\n        /* \"#utility.yul\":7831:7832   */\n      dup1\n        /* \"#utility.yul\":7824:7836   */\n      revert\n        /* \"#utility.yul\":7848:7965   */\n    tag_222:\n        /* \"#utility.yul\":7957:7958   */\n      0x00\n        /* \"#utility.yul\":7954:7955   */\n      dup1\n        /* \"#utility.yul\":7947:7959   */\n      revert\n        /* \"#utility.yul\":7971:8088   */\n    tag_223:\n        /* \"#utility.yul\":8080:8081   */\n      0x00\n        /* \"#utility.yul\":8077:8078   */\n      dup1\n        /* \"#utility.yul\":8070:8082   */\n      revert\n        /* \"#utility.yul\":8094:8274   */\n    tag_52:\n        /* \"#utility.yul\":8142:8219   */\n      0x4e487b7100000000000000000000000000000000000000000000000000000000\n        /* \"#utility.yul\":8139:8140   */\n      0x00\n        /* \"#utility.yul\":8132:8220   */\n      mstore\n        /* \"#utility.yul\":8239:8243   */\n      0x41\n        /* \"#utility.yul\":8236:8237   */\n      0x04\n        /* \"#utility.yul\":8229:8244   */\n      mstore\n        /* \"#utility.yul\":8263:8267   */\n      0x24\n        /* \"#utility.yul\":8260:8261   */\n      0x00\n        /* \"#utility.yul\":8253:8268   */\n      revert\n        /* \"#utility.yul\":8280:8561   */\n    tag_224:\n        /* \"#utility.yul\":8363:8390   */\n      tag_339\n        /* \"#utility.yul\":8385:8389   */\n      dup3\n        /* \"#utility.yul\":8363:8390   */\n      tag_215\n      jump\t// in\n    tag_339:\n        /* \"#utility.yul\":8355:8361   */\n      dup2\n        /* \"#utility.yul\":8351:8391   */\n      add\n        /* \"#utility.yul\":8493:8499   */\n      dup2\n        /* \"#utility.yul\":8481:8491   */\n      dup2\n        /* \"#utility.yul\":8478:8500   */\n      lt\n        /* \"#utility.yul\":8457:8475   */\n      0xffffffffffffffff\n        /* \"#utility.yul\":8445:8455   */\n      dup3\n        /* \"#utility.yul\":8442:8476   */\n      gt\n        /* \"#utility.yul\":8439:8501   */\n      or\n        /* \"#utility.yul\":8436:8524   */\n      iszero\n      tag_340\n      jumpi\n        /* \"#utility.yul\":8504:8522   */\n      tag_341\n      tag_52\n      jump\t// in\n    tag_341:\n        /* \"#utility.yul\":8436:8524   */\n    tag_340:\n        /* \"#utility.yul\":8544:8554   */\n      dup1\n        /* \"#utility.yul\":8540:8542   */\n      0x40\n        /* \"#utility.yul\":8533:8555   */\n      mstore\n        /* \"#utility.yul\":8323:8561   */\n      pop\n        /* \"#utility.yul\":8280:8561   */\n      pop\n      pop\n      jump\t// out\n        /* \"#utility.yul\":8567:8696   */\n    tag_225:\n        /* \"#utility.yul\":8601:8607   */\n      0x00\n        /* \"#utility.yul\":8628:8648   */\n      tag_343\n      tag_220\n      jump\t// in\n    tag_343:\n        /* \"#utility.yul\":8618:8648   */\n      swap1\n      pop\n        /* \"#utility.yul\":8657:8690   */\n      tag_344\n        /* \"#utility.yul\":8685:8689   */\n      dup3\n        /* \"#utility.yul\":8677:8683   */\n      dup3\n        /* \"#utility.yul\":8657:8690   */\n      tag_224\n      jump\t// in\n    tag_344:\n        /* \"#utility.yul\":8567:8696   */\n      swap2\n      swap1\n      pop\n      jump\t// out\n        /* \"#utility.yul\":8702:9023   */\n    tag_226:\n        /* \"#utility.yul\":8789:8793   */\n      0x00\n        /* \"#utility.yul\":8879:8897   */\n      0xffffffffffffffff\n        /* \"#utility.yul\":8871:8877   */\n      dup3\n        /* \"#utility.yul\":8868:8898   */\n      gt\n        /* \"#utility.yul\":8865:8921   */\n      iszero\n      tag_346\n      jumpi\n        /* \"#utility.yul\":8901:8919   */\n      tag_347\n      tag_52\n      jump\t// in\n    tag_347:\n        /* \"#utility.yul\":8865:8921   */\n    tag_346:\n        /* \"#utility.yul\":8951:8955   */\n      0x20\n        /* \"#utility.yul\":8943:8949   */\n      dup3\n        /* \"#utility.yul\":8939:8956   */\n      mul\n        /* \"#utility.yul\":8931:8956   */\n      swap1\n      pop\n        /* \"#utility.yul\":9011:9015   */\n      0x20\n        /* \"#utility.yul\":9005:9009   */\n      dup2\n        /* \"#utility.yul\":9001:9016   */\n      add\n        /* \"#utility.yul\":8993:9016   */\n      swap1\n      pop\n        /* \"#utility.yul\":8702:9023   */\n      swap2\n      swap1\n      pop\n      jump\t// out\n        /* \"#utility.yul\":9029:9146   */\n    tag_227:\n        /* \"#utility.yul\":9138:9139   */\n      0x00\n        /* \"#utility.yul\":9135:9136   */\n      dup1\n        /* \"#utility.yul\":9128:9140   */\n      revert\n        /* \"#utility.yul\":9152:9269   */\n    tag_228:\n        /* \"#utility.yul\":9261:9262   */\n      0x00\n        /* \"#utility.yul\":9258:9259   */\n      dup1\n        /* \"#utility.yul\":9251:9263   */\n      revert\n        /* \"#utility.yul\":9275:9583   */\n    tag_229:\n        /* \"#utility.yul\":9337:9341   */\n      0x00\n        /* \"#utility.yul\":9427:9445   */\n      0xffffffffffffffff\n        /* \"#utility.yul\":9419:9425   */\n      dup3\n        /* \"#utility.yul\":9416:9446   */\n      gt\n        /* \"#utility.yul\":9413:9469   */\n      iszero\n      tag_351\n      jumpi\n        /* \"#utility.yul\":9449:9467   */\n      tag_352\n      tag_52\n      jump\t// in\n    tag_352:\n        /* \"#utility.yul\":9413:9469   */\n    tag_351:\n        /* \"#utility.yul\":9487:9516   */\n      tag_353\n        /* \"#utility.yul\":9509:9515   */\n      dup3\n        /* \"#utility.yul\":9487:9516   */\n      tag_215\n      jump\t// in\n    tag_353:\n        /* \"#utility.yul\":9479:9516   */\n      swap1\n      pop\n        /* \"#utility.yul\":9571:9575   */\n      0x20\n        /* \"#utility.yul\":9565:9569   */\n      dup2\n        /* \"#utility.yul\":9561:9576   */\n      add\n        /* \"#utility.yul\":9553:9576   */\n      swap1\n      pop\n        /* \"#utility.yul\":9275:9583   */\n      swap2\n      swap1\n      pop\n      jump\t// out\n        /* \"#utility.yul\":9589:9743   */\n    tag_230:\n        /* \"#utility.yul\":9673:9679   */\n      dup3\n        /* \"#utility.yul\":9668:9671   */\n      dup2\n        /* \"#utility.yul\":9663:9666   */\n      dup4\n        /* \"#utility.yul\":9650:9680   */\n      calldatacopy\n        /* \"#utility.yul\":9735:9736   */\n      0x00\n        /* \"#utility.yul\":9726:9732   */\n      dup4\n        /* \"#utility.yul\":9721:9724   */\n      dup4\n        /* \"#utility.yul\":9717:9733   */\n      add\n        /* \"#utility.yul\":9710:9737   */\n      mstore\n        /* \"#utility.yul\":9589:9743   */\n      pop\n      pop\n      pop\n      jump\t// out\n        /* \"#utility.yul\":9749:10161   */\n    tag_231:\n        /* \"#utility.yul\":9827:9832   */\n      0x00\n        /* \"#utility.yul\":9852:9918   */\n      tag_356\n        /* \"#utility.yul\":9868:9917   */\n      tag_357\n        /* \"#utility.yul\":9910:9916   */\n      dup5\n        /* \"#utility.yul\":9868:9917   */\n      tag_229\n      jump\t// in\n    tag_357:\n        /* \"#utility.yul\":9852:9918   */\n      tag_225\n      jump\t// in\n    tag_356:\n        /* \"#utility.yul\":9843:9918   */\n      swap1\n      pop\n        /* \"#utility.yul\":9941:9947   */\n      dup3\n        /* \"#utility.yul\":9934:9939   */\n      dup2\n        /* \"#utility.yul\":9927:9948   */\n      mstore\n        /* \"#utility.yul\":9979:9983   */\n      0x20\n        /* \"#utility.yul\":9972:9977   */\n      dup2\n        /* \"#utility.yul\":9968:9984   */\n      add\n        /* \"#utility.yul\":10017:10020   */\n      dup5\n        /* \"#utility.yul\":10008:10014   */\n      dup5\n        /* \"#utility.yul\":10003:10006   */\n      dup5\n        /* \"#utility.yul\":9999:10015   */\n      add\n        /* \"#utility.yul\":9996:10021   */\n      gt\n        /* \"#utility.yul\":9993:10105   */\n      iszero\n      tag_358\n      jumpi\n        /* \"#utility.yul\":10024:10103   */\n      tag_359\n      tag_228\n      jump\t// in\n    tag_359:\n        /* \"#utility.yul\":9993:10105   */\n    tag_358:\n        /* \"#utility.yul\":10114:10155   */\n      tag_360\n        /* \"#utility.yul\":10148:10154   */\n      dup5\n        /* \"#utility.yul\":10143:10146   */\n      dup3\n        /* \"#utility.yul\":10138:10141   */\n      dup6\n        /* \"#utility.yul\":10114:10155   */\n      tag_230\n      jump\t// in\n    tag_360:\n        /* \"#utility.yul\":9833:10161   */\n      pop\n        /* \"#utility.yul\":9749:10161   */\n      swap4\n      swap3\n      pop\n      pop\n      pop\n      jump\t// out\n        /* \"#utility.yul\":10181:10521   */\n    tag_232:\n        /* \"#utility.yul\":10237:10242   */\n      0x00\n        /* \"#utility.yul\":10286:10289   */\n      dup3\n        /* \"#utility.yul\":10279:10283   */\n      0x1f\n        /* \"#utility.yul\":10271:10277   */\n      dup4\n        /* \"#utility.yul\":10267:10284   */\n      add\n        /* \"#utility.yul\":10263:10290   */\n      slt\n        /* \"#utility.yul\":10253:10375   */\n      tag_362\n      jumpi\n        /* \"#utility.yul\":10294:10373   */\n      tag_363\n      tag_223\n      jump\t// in\n    tag_363:\n        /* \"#utility.yul\":10253:10375   */\n    tag_362:\n        /* \"#utility.yul\":10411:10417   */\n      dup2\n        /* \"#utility.yul\":10398:10418   */\n      calldataload\n        /* \"#utility.yul\":10436:10515   */\n      tag_364\n        /* \"#utility.yul\":10511:10514   */\n      dup5\n        /* \"#utility.yul\":10503:10509   */\n      dup3\n        /* \"#utility.yul\":10496:10500   */\n      0x20\n        /* \"#utility.yul\":10488:10494   */\n      dup7\n        /* \"#utility.yul\":10484:10501   */\n      add\n        /* \"#utility.yul\":10436:10515   */\n      tag_231\n      jump\t// in\n    tag_364:\n        /* \"#utility.yul\":10427:10515   */\n      swap2\n      pop\n        /* \"#utility.yul\":10243:10521   */\n      pop\n        /* \"#utility.yul\":10181:10521   */\n      swap3\n      swap2\n      pop\n      pop\n      jump\t// out\n        /* \"#utility.yul\":10543:11488   */\n    tag_233:\n        /* \"#utility.yul\":10649:10654   */\n      0x00\n        /* \"#utility.yul\":10674:10765   */\n      tag_366\n        /* \"#utility.yul\":10690:10764   */\n      tag_367\n        /* \"#utility.yul\":10757:10763   */\n      dup5\n        /* \"#utility.yul\":10690:10764   */\n      tag_226\n      jump\t// in\n    tag_367:\n        /* \"#utility.yul\":10674:10765   */\n      tag_225\n      jump\t// in\n    tag_366:\n        /* \"#utility.yul\":10665:10765   */\n      swap1\n      pop\n        /* \"#utility.yul\":10785:10790   */\n      dup1\n        /* \"#utility.yul\":10814:10820   */\n      dup4\n        /* \"#utility.yul\":10807:10812   */\n      dup3\n        /* \"#utility.yul\":10800:10821   */\n      mstore\n        /* \"#utility.yul\":10848:10852   */\n      0x20\n        /* \"#utility.yul\":10841:10846   */\n      dup3\n        /* \"#utility.yul\":10837:10853   */\n      add\n        /* \"#utility.yul\":10830:10853   */\n      swap1\n      pop\n        /* \"#utility.yul\":10901:10905   */\n      0x20\n        /* \"#utility.yul\":10893:10899   */\n      dup5\n        /* \"#utility.yul\":10889:10906   */\n      mul\n        /* \"#utility.yul\":10881:10887   */\n      dup4\n        /* \"#utility.yul\":10877:10907   */\n      add\n        /* \"#utility.yul\":10930:10933   */\n      dup6\n        /* \"#utility.yul\":10922:10928   */\n      dup2\n        /* \"#utility.yul\":10919:10934   */\n      gt\n        /* \"#utility.yul\":10916:11038   */\n      iszero\n      tag_368\n      jumpi\n        /* \"#utility.yul\":10949:11028   */\n      tag_369\n      tag_227\n      jump\t// in\n    tag_369:\n        /* \"#utility.yul\":10916:11038   */\n    tag_368:\n        /* \"#utility.yul\":11064:11070   */\n      dup4\n        /* \"#utility.yul\":11047:11482   */\n    tag_370:\n        /* \"#utility.yul\":11081:11087   */\n      dup2\n        /* \"#utility.yul\":11076:11079   */\n      dup2\n        /* \"#utility.yul\":11073:11088   */\n      lt\n        /* \"#utility.yul\":11047:11482   */\n      iszero\n      tag_372\n      jumpi\n        /* \"#utility.yul\":11170:11173   */\n      dup1\n        /* \"#utility.yul\":11157:11174   */\n      calldataload\n        /* \"#utility.yul\":11206:11224   */\n      0xffffffffffffffff\n        /* \"#utility.yul\":11193:11204   */\n      dup2\n        /* \"#utility.yul\":11190:11225   */\n      gt\n        /* \"#utility.yul\":11187:11309   */\n      iszero\n      tag_373\n      jumpi\n        /* \"#utility.yul\":11228:11307   */\n      tag_374\n      tag_223\n      jump\t// in\n    tag_374:\n        /* \"#utility.yul\":11187:11309   */\n    tag_373:\n        /* \"#utility.yul\":11352:11363   */\n      dup1\n        /* \"#utility.yul\":11344:11350   */\n      dup7\n        /* \"#utility.yul\":11340:11364   */\n      add\n        /* \"#utility.yul\":11390:11437   */\n      tag_375\n        /* \"#utility.yul\":11433:11436   */\n      dup10\n        /* \"#utility.yul\":11421:11431   */\n      dup3\n        /* \"#utility.yul\":11390:11437   */\n      tag_232\n      jump\t// in\n    tag_375:\n        /* \"#utility.yul\":11385:11388   */\n      dup6\n        /* \"#utility.yul\":11378:11438   */\n      mstore\n        /* \"#utility.yul\":11467:11471   */\n      0x20\n        /* \"#utility.yul\":11462:11465   */\n      dup6\n        /* \"#utility.yul\":11458:11472   */\n      add\n        /* \"#utility.yul\":11451:11472   */\n      swap5\n      pop\n        /* \"#utility.yul\":11123:11482   */\n      pop\n      pop\n        /* \"#utility.yul\":11107:11111   */\n      0x20\n        /* \"#utility.yul\":11102:11105   */\n      dup2\n        /* \"#utility.yul\":11098:11112   */\n      add\n        /* \"#utility.yul\":11091:11112   */\n      swap1\n      pop\n        /* \"#utility.yul\":11047:11482   */\n      jump(tag_370)\n    tag_372:\n        /* \"#utility.yul\":11051:11072   */\n      pop\n        /* \"#utility.yul\":10655:11488   */\n      pop\n      pop\n        /* \"#utility.yul\":10543:11488   */\n      swap4\n      swap3\n      pop\n      pop\n      pop\n      jump\t// out\n        /* \"#utility.yul\":11510:11900   */\n    tag_234:\n        /* \"#utility.yul\":11591:11596   */\n      0x00\n        /* \"#utility.yul\":11640:11643   */\n      dup3\n        /* \"#utility.yul\":11633:11637   */\n      0x1f\n        /* \"#utility.yul\":11625:11631   */\n      dup4\n        /* \"#utility.yul\":11621:11638   */\n      add\n        /* \"#utility.yul\":11617:11644   */\n      slt\n        /* \"#utility.yul\":11607:11729   */\n      tag_377\n      jumpi\n        /* \"#utility.yul\":11648:11727   */\n      tag_378\n      tag_223\n      jump\t// in\n    tag_378:\n        /* \"#utility.yul\":11607:11729   */\n    tag_377:\n        /* \"#utility.yul\":11765:11771   */\n      dup2\n        /* \"#utility.yul\":11752:11772   */\n      calldataload\n        /* \"#utility.yul\":11790:11894   */\n      tag_379\n        /* \"#utility.yul\":11890:11893   */\n      dup5\n        /* \"#utility.yul\":11882:11888   */\n      dup3\n        /* \"#utility.yul\":11875:11879   */\n      0x20\n        /* \"#utility.yul\":11867:11873   */\n      dup7\n        /* \"#utility.yul\":11863:11880   */\n      add\n        /* \"#utility.yul\":11790:11894   */\n      tag_233\n      jump\t// in\n    tag_379:\n        /* \"#utility.yul\":11781:11894   */\n      swap2\n      pop\n        /* \"#utility.yul\":11597:11900   */\n      pop\n        /* \"#utility.yul\":11510:11900   */\n      swap3\n      swap2\n      pop\n      pop\n      jump\t// out\n        /* \"#utility.yul\":11906:12465   */\n    tag_27:\n        /* \"#utility.yul\":12000:12006   */\n      0x00\n        /* \"#utility.yul\":12049:12051   */\n      0x20\n        /* \"#utility.yul\":12037:12046   */\n      dup3\n        /* \"#utility.yul\":12028:12035   */\n      dup5\n        /* \"#utility.yul\":12024:12047   */\n      sub\n        /* \"#utility.yul\":12020:12052   */\n      slt\n        /* \"#utility.yul\":12017:12136   */\n      iszero\n      tag_381\n      jumpi\n        /* \"#utility.yul\":12055:12134   */\n      tag_382\n      tag_221\n      jump\t// in\n    tag_382:\n        /* \"#utility.yul\":12017:12136   */\n    tag_381:\n        /* \"#utility.yul\":12203:12204   */\n      0x00\n        /* \"#utility.yul\":12192:12201   */\n      dup3\n        /* \"#utility.yul\":12188:12205   */\n      add\n        /* \"#utility.yul\":12175:12206   */\n      calldataload\n        /* \"#utility.yul\":12233:12251   */\n      0xffffffffffffffff\n        /* \"#utility.yul\":12225:12231   */\n      dup2\n        /* \"#utility.yul\":12222:12252   */\n      gt\n        /* \"#utility.yul\":12219:12336   */\n      iszero\n      tag_383\n      jumpi\n        /* \"#utility.yul\":12255:12334   */\n      tag_384\n      tag_222\n      jump\t// in\n    tag_384:\n        /* \"#utility.yul\":12219:12336   */\n    tag_383:\n        /* \"#utility.yul\":12360:12448   */\n      tag_385\n        /* \"#utility.yul\":12440:12447   */\n      dup5\n        /* \"#utility.yul\":12431:12437   */\n      dup3\n        /* \"#utility.yul\":12420:12429   */\n      dup6\n        /* \"#utility.yul\":12416:12438   */\n      add\n        /* \"#utility.yul\":12360:12448   */\n      tag_234\n      jump\t// in\n    tag_385:\n        /* \"#utility.yul\":12350:12448   */\n      swap2\n      pop\n        /* \"#utility.yul\":12146:12458   */\n      pop\n        /* \"#utility.yul\":11906:12465   */\n      swap3\n      swap2\n      pop\n      pop\n      jump\t// out\n        /* \"#utility.yul\":12471:12980   */\n    tag_31:\n        /* \"#utility.yul\":12540:12546   */\n      0x00\n        /* \"#utility.yul\":12589:12591   */\n      0x20\n        /* \"#utility.yul\":12577:12586   */\n      dup3\n        /* \"#utility.yul\":12568:12575   */\n      dup5\n        /* \"#utility.yul\":12564:12587   */\n      sub\n        /* \"#utility.yul\":12560:12592   */\n      slt\n        /* \"#utility.yul\":12557:12676   */\n      iszero\n      tag_387\n      jumpi\n        /* \"#utility.yul\":12595:12674   */\n      tag_388\n      tag_221\n      jump\t// in\n    tag_388:\n        /* \"#utility.yul\":12557:12676   */\n    tag_387:\n        /* \"#utility.yul\":12743:12744   */\n      0x00\n        /* \"#utility.yul\":12732:12741   */\n      dup3\n        /* \"#utility.yul\":12728:12745   */\n      add\n        /* \"#utility.yul\":12715:12746   */\n      calldataload\n        /* \"#utility.yul\":12773:12791   */\n      0xffffffffffffffff\n        /* \"#utility.yul\":12765:12771   */\n      dup2\n        /* \"#utility.yul\":12762:12792   */\n      gt\n        /* \"#utility.yul\":12759:12876   */\n      iszero\n      tag_389\n      jumpi\n        /* \"#utility.yul\":12795:12874   */\n      tag_390\n      tag_222\n      jump\t// in\n    tag_390:\n        /* \"#utility.yul\":12759:12876   */\n    tag_389:\n        /* \"#utility.yul\":12900:12963   */\n      tag_391\n        /* \"#utility.yul\":12955:12962   */\n      dup5\n        /* \"#utility.yul\":12946:12952   */\n      dup3\n        /* \"#utility.yul\":12935:12944   */\n      dup6\n        /* \"#utility.yul\":12931:12953   */\n      add\n        /* \"#utility.yul\":12900:12963   */\n      tag_232\n      jump\t// in\n    tag_391:\n        /* \"#utility.yul\":12890:12963   */\n      swap2\n      pop\n        /* \"#utility.yul\":12686:12973   */\n      pop\n        /* \"#utility.yul\":12471:12980   */\n      swap3\n      swap2\n      pop\n      pop\n      jump\t// out\n        /* \"#utility.yul\":12986:13104   */\n    tag_235:\n        /* \"#utility.yul\":13073:13097   */\n      tag_393\n        /* \"#utility.yul\":13091:13096   */\n      dup2\n        /* \"#utility.yul\":13073:13097   */\n      tag_195\n      jump\t// in\n    tag_393:\n        /* \"#utility.yul\":13068:13071   */\n      dup3\n        /* \"#utility.yul\":13061:13098   */\n      mstore\n        /* \"#utility.yul\":12986:13104   */\n      pop\n      pop\n      jump\t// out\n        /* \"#utility.yul\":13110:13332   */\n    tag_34:\n        /* \"#utility.yul\":13203:13207   */\n      0x00\n        /* \"#utility.yul\":13241:13243   */\n      0x20\n        /* \"#utility.yul\":13230:13239   */\n      dup3\n        /* \"#utility.yul\":13226:13244   */\n      add\n        /* \"#utility.yul\":13218:13244   */\n      swap1\n      pop\n        /* \"#utility.yul\":13254:13325   */\n      tag_395\n        /* \"#utility.yul\":13322:13323   */\n      0x00\n        /* \"#utility.yul\":13311:13320   */\n      dup4\n        /* \"#utility.yul\":13307:13324   */\n      add\n        /* \"#utility.yul\":13298:13304   */\n      dup5\n        /* \"#utility.yul\":13254:13325   */\n      tag_235\n      jump\t// in\n    tag_395:\n        /* \"#utility.yul\":13110:13332   */\n      swap3\n      swap2\n      pop\n      pop\n      jump\t// out\n        /* \"#utility.yul\":13338:14172   */\n    tag_44:\n        /* \"#utility.yul\":13426:13432   */\n      0x00\n        /* \"#utility.yul\":13434:13440   */\n      dup1\n        /* \"#utility.yul\":13483:13485   */\n      0x40\n        /* \"#utility.yul\":13471:13480   */\n      dup4\n        /* \"#utility.yul\":13462:13469   */\n      dup6\n        /* \"#utility.yul\":13458:13481   */\n      sub\n        /* \"#utility.yul\":13454:13486   */\n      slt\n        /* \"#utility.yul\":13451:13570   */\n      iszero\n      tag_397\n      jumpi\n        /* \"#utility.yul\":13489:13568   */\n      tag_398\n      tag_221\n      jump\t// in\n    tag_398:\n        /* \"#utility.yul\":13451:13570   */\n    tag_397:\n        /* \"#utility.yul\":13637:13638   */\n      0x00\n        /* \"#utility.yul\":13626:13635   */\n      dup4\n        /* \"#utility.yul\":13622:13639   */\n      add\n        /* \"#utility.yul\":13609:13640   */\n      calldataload\n        /* \"#utility.yul\":13667:13685   */\n      0xffffffffffffffff\n        /* \"#utility.yul\":13659:13665   */\n      dup2\n        /* \"#utility.yul\":13656:13686   */\n      gt\n        /* \"#utility.yul\":13653:13770   */\n      iszero\n      tag_399\n      jumpi\n        /* \"#utility.yul\":13689:13768   */\n      tag_400\n      tag_222\n      jump\t// in\n    tag_400:\n        /* \"#utility.yul\":13653:13770   */\n    tag_399:\n        /* \"#utility.yul\":13794:13857   */\n      tag_401\n        /* \"#utility.yul\":13849:13856   */\n      dup6\n        /* \"#utility.yul\":13840:13846   */\n      dup3\n        /* \"#utility.yul\":13829:13838   */\n      dup7\n        /* \"#utility.yul\":13825:13847   */\n      add\n        /* \"#utility.yul\":13794:13857   */\n      tag_232\n      jump\t// in\n    tag_401:\n        /* \"#utility.yul\":13784:13857   */\n      swap3\n      pop\n        /* \"#utility.yul\":13580:13867   */\n      pop\n        /* \"#utility.yul\":13934:13936   */\n      0x20\n        /* \"#utility.yul\":13923:13932   */\n      dup4\n        /* \"#utility.yul\":13919:13937   */\n      add\n        /* \"#utility.yul\":13906:13938   */\n      calldataload\n        /* \"#utility.yul\":13965:13983   */\n      0xffffffffffffffff\n        /* \"#utility.yul\":13957:13963   */\n      dup2\n        /* \"#utility.yul\":13954:13984   */\n      gt\n        /* \"#utility.yul\":13951:14068   */\n      iszero\n      tag_402\n      jumpi\n        /* \"#utility.yul\":13987:14066   */\n      tag_403\n      tag_222\n      jump\t// in\n    tag_403:\n        /* \"#utility.yul\":13951:14068   */\n    tag_402:\n        /* \"#utility.yul\":14092:14155   */\n      tag_404\n        /* \"#utility.yul\":14147:14154   */\n      dup6\n        /* \"#utility.yul\":14138:14144   */\n      dup3\n        /* \"#utility.yul\":14127:14136   */\n      dup7\n        /* \"#utility.yul\":14123:14145   */\n      add\n        /* \"#utility.yul\":14092:14155   */\n      tag_232\n      jump\t// in\n    tag_404:\n        /* \"#utility.yul\":14082:14155   */\n      swap2\n      pop\n        /* \"#utility.yul\":13877:14165   */\n      pop\n        /* \"#utility.yul\":13338:14172   */\n      swap3\n      pop\n      swap3\n      swap1\n      pop\n      jump\t// out\n        /* \"#utility.yul\":14178:14358   */\n    tag_59:\n        /* \"#utility.yul\":14226:14303   */\n      0x4e487b7100000000000000000000000000000000000000000000000000000000\n        /* \"#utility.yul\":14223:14224   */\n      0x00\n        /* \"#utility.yul\":14216:14304   */\n      mstore\n        /* \"#utility.yul\":14323:14327   */\n      0x32\n        /* \"#utility.yul\":14320:14321   */\n      0x04\n        /* \"#utility.yul\":14313:14328   */\n      mstore\n        /* \"#utility.yul\":14347:14351   */\n      0x24\n        /* \"#utility.yul\":14344:14345   */\n      0x00\n        /* \"#utility.yul\":14337:14352   */\n      revert\n        /* \"#utility.yul\":14364:14544   */\n    tag_236:\n        /* \"#utility.yul\":14412:14489   */\n      0x4e487b7100000000000000000000000000000000000000000000000000000000\n        /* \"#utility.yul\":14409:14410   */\n      0x00\n        /* \"#utility.yul\":14402:14490   */\n      mstore\n        /* \"#utility.yul\":14509:14513   */\n      0x22\n        /* \"#utility.yul\":14506:14507   */\n      0x04\n        /* \"#utility.yul\":14499:14514   */\n      mstore\n        /* \"#utility.yul\":14533:14537   */\n      0x24\n        /* \"#utility.yul\":14530:14531   */\n      0x00\n        /* \"#utility.yul\":14523:14538   */\n      revert\n        /* \"#utility.yul\":14550:14870   */\n    tag_92:\n        /* \"#utility.yul\":14594:14600   */\n      0x00\n        /* \"#utility.yul\":14631:14632   */\n      0x02\n        /* \"#utility.yul\":14625:14629   */\n      dup3\n        /* \"#utility.yul\":14621:14633   */\n      div\n        /* \"#utility.yul\":14611:14633   */\n      swap1\n      pop\n        /* \"#utility.yul\":14678:14679   */\n      0x01\n        /* \"#utility.yul\":14672:14676   */\n      dup3\n        /* \"#utility.yul\":14668:14680   */\n      and\n        /* \"#utility.yul\":14699:14717   */\n      dup1\n        /* \"#utility.yul\":14689:14770   */\n      tag_408\n      jumpi\n        /* \"#utility.yul\":14755:14759   */\n      0x7f\n        /* \"#utility.yul\":14747:14753   */\n      dup3\n        /* \"#utility.yul\":14743:14760   */\n      and\n        /* \"#utility.yul\":14733:14760   */\n      swap2\n      pop\n        /* \"#utility.yul\":14689:14770   */\n    tag_408:\n        /* \"#utility.yul\":14817:14819   */\n      0x20\n        /* \"#utility.yul\":14809:14815   */\n      dup3\n        /* \"#utility.yul\":14806:14820   */\n      lt\n        /* \"#utility.yul\":14786:14804   */\n      dup2\n        /* \"#utility.yul\":14783:14821   */\n      eq\n        /* \"#utility.yul\":14780:14864   */\n      iszero\n      tag_409\n      jumpi\n        /* \"#utility.yul\":14836:14854   */\n      tag_410\n      tag_236\n      jump\t// in\n    tag_410:\n        /* \"#utility.yul\":14780:14864   */\n    tag_409:\n        /* \"#utility.yul\":14601:14870   */\n      pop\n        /* \"#utility.yul\":14550:14870   */\n      swap2\n      swap1\n      pop\n      jump\t// out\n        /* \"#utility.yul\":14876:15024   */\n    tag_237:\n        /* \"#utility.yul\":14978:14989   */\n      0x00\n        /* \"#utility.yul\":15015:15018   */\n      dup2\n        /* \"#utility.yul\":15000:15018   */\n      swap1\n      pop\n        /* \"#utility.yul\":14876:15024   */\n      swap3\n      swap2\n      pop\n      pop\n      jump\t// out\n        /* \"#utility.yul\":15030:15171   */\n    tag_238:\n        /* \"#utility.yul\":15079:15083   */\n      0x00\n        /* \"#utility.yul\":15102:15105   */\n      dup2\n        /* \"#utility.yul\":15094:15105   */\n      swap1\n      pop\n        /* \"#utility.yul\":15125:15128   */\n      dup2\n        /* \"#utility.yul\":15122:15123   */\n      0x00\n        /* \"#utility.yul\":15115:15129   */\n      mstore\n        /* \"#utility.yul\":15159:15163   */\n      0x20\n        /* \"#utility.yul\":15156:15157   */\n      0x00\n        /* \"#utility.yul\":15146:15164   */\n      keccak256\n        /* \"#utility.yul\":15138:15164   */\n      swap1\n      pop\n        /* \"#utility.yul\":15030:15171   */\n      swap2\n      swap1\n      pop\n      jump\t// out\n        /* \"#utility.yul\":15201:16046   */\n    tag_239:\n        /* \"#utility.yul\":15304:15307   */\n      0x00\n        /* \"#utility.yul\":15341:15346   */\n      dup2\n        /* \"#utility.yul\":15335:15347   */\n      sload\n        /* \"#utility.yul\":15370:15406   */\n      tag_414\n        /* \"#utility.yul\":15396:15405   */\n      dup2\n        /* \"#utility.yul\":15370:15406   */\n      tag_92\n      jump\t// in\n    tag_414:\n        /* \"#utility.yul\":15422:15511   */\n      tag_415\n        /* \"#utility.yul\":15504:15510   */\n      dup2\n        /* \"#utility.yul\":15499:15502   */\n      dup7\n        /* \"#utility.yul\":15422:15511   */\n      tag_237\n      jump\t// in\n    tag_415:\n        /* \"#utility.yul\":15415:15511   */\n      swap5\n      pop\n        /* \"#utility.yul\":15542:15543   */\n      0x01\n        /* \"#utility.yul\":15531:15540   */\n      dup3\n        /* \"#utility.yul\":15527:15544   */\n      and\n        /* \"#utility.yul\":15558:15559   */\n      0x00\n        /* \"#utility.yul\":15553:15690   */\n      dup2\n      eq\n      tag_417\n      jumpi\n        /* \"#utility.yul\":15704:15705   */\n      0x01\n        /* \"#utility.yul\":15699:16040   */\n      dup2\n      eq\n      tag_418\n      jumpi\n        /* \"#utility.yul\":15520:16040   */\n      jump(tag_416)\n        /* \"#utility.yul\":15553:15690   */\n    tag_417:\n        /* \"#utility.yul\":15637:15641   */\n      0xff\n        /* \"#utility.yul\":15633:15642   */\n      not\n        /* \"#utility.yul\":15622:15631   */\n      dup4\n        /* \"#utility.yul\":15618:15643   */\n      and\n        /* \"#utility.yul\":15613:15616   */\n      dup7\n        /* \"#utility.yul\":15606:15644   */\n      mstore\n        /* \"#utility.yul\":15673:15679   */\n      dup2\n        /* \"#utility.yul\":15668:15671   */\n      dup7\n        /* \"#utility.yul\":15664:15680   */\n      add\n        /* \"#utility.yul\":15657:15680   */\n      swap4\n      pop\n        /* \"#utility.yul\":15553:15690   */\n      jump(tag_416)\n        /* \"#utility.yul\":15699:16040   */\n    tag_418:\n        /* \"#utility.yul\":15766:15804   */\n      tag_419\n        /* \"#utility.yul\":15798:15803   */\n      dup6\n        /* \"#utility.yul\":15766:15804   */\n      tag_238\n      jump\t// in\n    tag_419:\n        /* \"#utility.yul\":15826:15827   */\n      0x00\n        /* \"#utility.yul\":15840:15994   */\n    tag_420:\n        /* \"#utility.yul\":15854:15860   */\n      dup4\n        /* \"#utility.yul\":15851:15852   */\n      dup2\n        /* \"#utility.yul\":15848:15861   */\n      lt\n        /* \"#utility.yul\":15840:15994   */\n      iszero\n      tag_422\n      jumpi\n        /* \"#utility.yul\":15928:15935   */\n      dup2\n        /* \"#utility.yul\":15922:15936   */\n      sload\n        /* \"#utility.yul\":15918:15919   */\n      dup2\n        /* \"#utility.yul\":15913:15916   */\n      dup10\n        /* \"#utility.yul\":15909:15920   */\n      add\n        /* \"#utility.yul\":15902:15937   */\n      mstore\n        /* \"#utility.yul\":15978:15979   */\n      0x01\n        /* \"#utility.yul\":15969:15976   */\n      dup3\n        /* \"#utility.yul\":15965:15980   */\n      add\n        /* \"#utility.yul\":15954:15980   */\n      swap2\n      pop\n        /* \"#utility.yul\":15876:15880   */\n      0x20\n        /* \"#utility.yul\":15873:15874   */\n      dup2\n        /* \"#utility.yul\":15869:15881   */\n      add\n        /* \"#utility.yul\":15864:15881   */\n      swap1\n      pop\n        /* \"#utility.yul\":15840:15994   */\n      jump(tag_420)\n    tag_422:\n        /* \"#utility.yul\":16023:16029   */\n      dup4\n        /* \"#utility.yul\":16018:16021   */\n      dup9\n        /* \"#utility.yul\":16014:16030   */\n      add\n        /* \"#utility.yul\":16007:16030   */\n      swap6\n      pop\n        /* \"#utility.yul\":15706:16040   */\n      pop\n      pop\n        /* \"#utility.yul\":15520:16040   */\n    tag_416:\n      pop\n        /* \"#utility.yul\":15308:16046   */\n      pop\n      pop\n        /* \"#utility.yul\":15201:16046   */\n      swap3\n      swap2\n      pop\n      pop\n      jump\t// out\n        /* \"#utility.yul\":16052:16321   */\n    tag_62:\n        /* \"#utility.yul\":16181:16184   */\n      0x00\n        /* \"#utility.yul\":16203:16295   */\n      tag_424\n        /* \"#utility.yul\":16291:16294   */\n      dup3\n        /* \"#utility.yul\":16282:16288   */\n      dup5\n        /* \"#utility.yul\":16203:16295   */\n      tag_239\n      jump\t// in\n    tag_424:\n        /* \"#utility.yul\":16196:16295   */\n      swap2\n      pop\n        /* \"#utility.yul\":16312:16315   */\n      dup2\n        /* \"#utility.yul\":16305:16315   */\n      swap1\n      pop\n        /* \"#utility.yul\":16052:16321   */\n      swap3\n      swap2\n      pop\n      pop\n      jump\t// out\n        /* \"#utility.yul\":16327:16445   */\n    tag_240:\n        /* \"#utility.yul\":16414:16438   */\n      tag_426\n        /* \"#utility.yul\":16432:16437   */\n      dup2\n        /* \"#utility.yul\":16414:16438   */\n      tag_204\n      jump\t// in\n    tag_426:\n        /* \"#utility.yul\":16409:16412   */\n      dup3\n        /* \"#utility.yul\":16402:16439   */\n      mstore\n        /* \"#utility.yul\":16327:16445   */\n      pop\n      pop\n      jump\t// out\n        /* \"#utility.yul\":16451:16673   */\n    tag_64:\n        /* \"#utility.yul\":16544:16548   */\n      0x00\n        /* \"#utility.yul\":16582:16584   */\n      0x20\n        /* \"#utility.yul\":16571:16580   */\n      dup3\n        /* \"#utility.yul\":16567:16585   */\n      add\n        /* \"#utility.yul\":16559:16585   */\n      swap1\n      pop\n        /* \"#utility.yul\":16595:16666   */\n      tag_428\n        /* \"#utility.yul\":16663:16664   */\n      0x00\n        /* \"#utility.yul\":16652:16661   */\n      dup4\n        /* \"#utility.yul\":16648:16665   */\n      add\n        /* \"#utility.yul\":16639:16645   */\n      dup5\n        /* \"#utility.yul\":16595:16666   */\n      tag_240\n      jump\t// in\n    tag_428:\n        /* \"#utility.yul\":16451:16673   */\n      swap3\n      swap2\n      pop\n      pop\n      jump\t// out\n        /* \"#utility.yul\":16679:16801   */\n    tag_241:\n        /* \"#utility.yul\":16752:16776   */\n      tag_430\n        /* \"#utility.yul\":16770:16775   */\n      dup2\n        /* \"#utility.yul\":16752:16776   */\n      tag_195\n      jump\t// in\n    tag_430:\n        /* \"#utility.yul\":16745:16750   */\n      dup2\n        /* \"#utility.yul\":16742:16777   */\n      eq\n        /* \"#utility.yul\":16732:16795   */\n      tag_431\n      jumpi\n        /* \"#utility.yul\":16791:16792   */\n      0x00\n        /* \"#utility.yul\":16788:16789   */\n      dup1\n        /* \"#utility.yul\":16781:16793   */\n      revert\n        /* \"#utility.yul\":16732:16795   */\n    tag_431:\n        /* \"#utility.yul\":16679:16801   */\n      pop\n      jump\t// out\n        /* \"#utility.yul\":16807:16950   */\n    tag_242:\n        /* \"#utility.yul\":16864:16869   */\n      0x00\n        /* \"#utility.yul\":16895:16901   */\n      dup2\n        /* \"#utility.yul\":16889:16902   */\n      mload\n        /* \"#utility.yul\":16880:16902   */\n      swap1\n      pop\n        /* \"#utility.yul\":16911:16944   */\n      tag_433\n        /* \"#utility.yul\":16938:16943   */\n      dup2\n        /* \"#utility.yul\":16911:16944   */\n      tag_241\n      jump\t// in\n    tag_433:\n        /* \"#utility.yul\":16807:16950   */\n      swap3\n      swap2\n      pop\n      pop\n      jump\t// out\n        /* \"#utility.yul\":16956:17307   */\n    tag_68:\n        /* \"#utility.yul\":17026:17032   */\n      0x00\n        /* \"#utility.yul\":17075:17077   */\n      0x20\n        /* \"#utility.yul\":17063:17072   */\n      dup3\n        /* \"#utility.yul\":17054:17061   */\n      dup5\n        /* \"#utility.yul\":17050:17073   */\n      sub\n        /* \"#utility.yul\":17046:17078   */\n      slt\n        /* \"#utility.yul\":17043:17162   */\n      iszero\n      tag_435\n      jumpi\n        /* \"#utility.yul\":17081:17160   */\n      tag_436\n      tag_221\n      jump\t// in\n    tag_436:\n        /* \"#utility.yul\":17043:17162   */\n    tag_435:\n        /* \"#utility.yul\":17201:17202   */\n      0x00\n        /* \"#utility.yul\":17226:17290   */\n      tag_437\n        /* \"#utility.yul\":17282:17289   */\n      dup5\n        /* \"#utility.yul\":17273:17279   */\n      dup3\n        /* \"#utility.yul\":17262:17271   */\n      dup6\n        /* \"#utility.yul\":17258:17280   */\n      add\n        /* \"#utility.yul\":17226:17290   */\n      tag_242\n      jump\t// in\n    tag_437:\n        /* \"#utility.yul\":17216:17290   */\n      swap2\n      pop\n        /* \"#utility.yul\":17172:17300   */\n      pop\n        /* \"#utility.yul\":16956:17307   */\n      swap3\n      swap2\n      pop\n      pop\n      jump\t// out\n        /* \"#utility.yul\":17313:17493   */\n    tag_243:\n        /* \"#utility.yul\":17361:17438   */\n      0x4e487b7100000000000000000000000000000000000000000000000000000000\n        /* \"#utility.yul\":17358:17359   */\n      0x00\n        /* \"#utility.yul\":17351:17439   */\n      mstore\n        /* \"#utility.yul\":17458:17462   */\n      0x11\n        /* \"#utility.yul\":17455:17456   */\n      0x04\n        /* \"#utility.yul\":17448:17463   */\n      mstore\n        /* \"#utility.yul\":17482:17486   */\n      0x24\n        /* \"#utility.yul\":17479:17480   */\n      0x00\n        /* \"#utility.yul\":17472:17487   */\n      revert\n        /* \"#utility.yul\":17499:17732   */\n    tag_72:\n        /* \"#utility.yul\":17538:17541   */\n      0x00\n        /* \"#utility.yul\":17561:17585   */\n      tag_440\n        /* \"#utility.yul\":17579:17584   */\n      dup3\n        /* \"#utility.yul\":17561:17585   */\n      tag_195\n      jump\t// in\n    tag_440:\n        /* \"#utility.yul\":17552:17585   */\n      swap2\n      pop\n        /* \"#utility.yul\":17607:17673   */\n      0xffffffffffffffffffffffffffffffffffffffffffffffffffffffffffffffff\n        /* \"#utility.yul\":17600:17605   */\n      dup3\n        /* \"#utility.yul\":17597:17674   */\n      eq\n        /* \"#utility.yul\":17594:17697   */\n      iszero\n      tag_441\n      jumpi\n        /* \"#utility.yul\":17677:17695   */\n      tag_442\n      tag_243\n      jump\t// in\n    tag_442:\n        /* \"#utility.yul\":17594:17697   */\n    tag_441:\n        /* \"#utility.yul\":17724:17725   */\n      0x01\n        /* \"#utility.yul\":17717:17722   */\n      dup3\n        /* \"#utility.yul\":17713:17726   */\n      add\n        /* \"#utility.yul\":17706:17726   */\n      swap1\n      pop\n        /* \"#utility.yul\":17499:17732   */\n      swap2\n      swap1\n      pop\n      jump\t// out\n        /* \"#utility.yul\":17738:17907   */\n    tag_244:\n        /* \"#utility.yul\":17822:17833   */\n      0x00\n        /* \"#utility.yul\":17856:17862   */\n      dup3\n        /* \"#utility.yul\":17851:17854   */\n      dup3\n        /* \"#utility.yul\":17844:17863   */\n      mstore\n        /* \"#utility.yul\":17896:17900   */\n      0x20\n        /* \"#utility.yul\":17891:17894   */\n      dup3\n        /* \"#utility.yul\":17887:17901   */\n      add\n        /* \"#utility.yul\":17872:17901   */\n      swap1\n      pop\n        /* \"#utility.yul\":17738:17907   */\n      swap3\n      swap2\n      pop\n      pop\n      jump\t// out\n        /* \"#utility.yul\":17913:18081   */\n    tag_245:\n        /* \"#utility.yul\":18053:18073   */\n      0x4e6f207469656e6573207065726d69736f730000000000000000000000000000\n        /* \"#utility.yul\":18049:18050   */\n      0x00\n        /* \"#utility.yul\":18041:18047   */\n      dup3\n        /* \"#utility.yul\":18037:18051   */\n      add\n        /* \"#utility.yul\":18030:18074   */\n      mstore\n        /* \"#utility.yul\":17913:18081   */\n      pop\n      jump\t// out\n        /* \"#utility.yul\":18087:18453   */\n    tag_246:\n        /* \"#utility.yul\":18229:18232   */\n      0x00\n        /* \"#utility.yul\":18250:18317   */\n      tag_446\n        /* \"#utility.yul\":18314:18316   */\n      0x12\n        /* \"#utility.yul\":18309:18312   */\n      dup4\n        /* \"#utility.yul\":18250:18317   */\n      tag_244\n      jump\t// in\n    tag_446:\n        /* \"#utility.yul\":18243:18317   */\n      swap2\n      pop\n        /* \"#utility.yul\":18326:18419   */\n      tag_447\n        /* \"#utility.yul\":18415:18418   */\n      dup3\n        /* \"#utility.yul\":18326:18419   */\n      tag_245\n      jump\t// in\n    tag_447:\n        /* \"#utility.yul\":18444:18446   */\n      0x20\n        /* \"#utility.yul\":18439:18442   */\n      dup3\n        /* \"#utility.yul\":18435:18447   */\n      add\n        /* \"#utility.yul\":18428:18447   */\n      swap1\n      pop\n        /* \"#utility.yul\":18087:18453   */\n      swap2\n      swap1\n      pop\n      jump\t// out\n        /* \"#utility.yul\":18459:18878   */\n    tag_100:\n        /* \"#utility.yul\":18625:18629   */\n      0x00\n        /* \"#utility.yul\":18663:18665   */\n      0x20\n        /* \"#utility.yul\":18652:18661   */\n      dup3\n        /* \"#utility.yul\":18648:18666   */\n      add\n        /* \"#utility.yul\":18640:18666   */\n      swap1\n      pop\n        /* \"#utility.yul\":18712:18721   */\n      dup2\n        /* \"#utility.yul\":18706:18710   */\n      dup2\n        /* \"#utility.yul\":18702:18722   */\n      sub\n        /* \"#utility.yul\":18698:18699   */\n      0x00\n        /* \"#utility.yul\":18687:18696   */\n      dup4\n        /* \"#utility.yul\":18683:18700   */\n      add\n        /* \"#utility.yul\":18676:18723   */\n      mstore\n        /* \"#utility.yul\":18740:18871   */\n      tag_449\n        /* \"#utility.yul\":18866:18870   */\n      dup2\n        /* \"#utility.yul\":18740:18871   */\n      tag_246\n      jump\t// in\n    tag_449:\n        /* \"#utility.yul\":18732:18871   */\n      swap1\n      pop\n        /* \"#utility.yul\":18459:18878   */\n      swap2\n      swap1\n      pop\n      jump\t// out\n        /* \"#utility.yul\":18884:19261   */\n    tag_247:\n        /* \"#utility.yul\":18990:18993   */\n      0x00\n        /* \"#utility.yul\":19018:19057   */\n      tag_451\n        /* \"#utility.yul\":19051:19056   */\n      dup3\n        /* \"#utility.yul\":19018:19057   */\n      tag_212\n      jump\t// in\n    tag_451:\n        /* \"#utility.yul\":19073:19162   */\n      tag_452\n        /* \"#utility.yul\":19155:19161   */\n      dup2\n        /* \"#utility.yul\":19150:19153   */\n      dup6\n        /* \"#utility.yul\":19073:19162   */\n      tag_237\n      jump\t// in\n    tag_452:\n        /* \"#utility.yul\":19066:19162   */\n      swap4\n      pop\n        /* \"#utility.yul\":19171:19223   */\n      tag_453\n        /* \"#utility.yul\":19216:19222   */\n      dup2\n        /* \"#utility.yul\":19211:19214   */\n      dup6\n        /* \"#utility.yul\":19204:19208   */\n      0x20\n        /* \"#utility.yul\":19197:19202   */\n      dup7\n        /* \"#utility.yul\":19193:19209   */\n      add\n        /* \"#utility.yul\":19171:19223   */\n      tag_214\n      jump\t// in\n    tag_453:\n        /* \"#utility.yul\":19248:19254   */\n      dup1\n        /* \"#utility.yul\":19243:19246   */\n      dup5\n        /* \"#utility.yul\":19239:19255   */\n      add\n        /* \"#utility.yul\":19232:19255   */\n      swap2\n      pop\n        /* \"#utility.yul\":18994:19261   */\n      pop\n        /* \"#utility.yul\":18884:19261   */\n      swap3\n      swap2\n      pop\n      pop\n      jump\t// out\n        /* \"#utility.yul\":19267:19542   */\n    tag_108:\n        /* \"#utility.yul\":19399:19402   */\n      0x00\n        /* \"#utility.yul\":19421:19516   */\n      tag_455\n        /* \"#utility.yul\":19512:19515   */\n      dup3\n        /* \"#utility.yul\":19503:19509   */\n      dup5\n        /* \"#utility.yul\":19421:19516   */\n      tag_247\n      jump\t// in\n    tag_455:\n        /* \"#utility.yul\":19414:19516   */\n      swap2\n      pop\n        /* \"#utility.yul\":19533:19536   */\n      dup2\n        /* \"#utility.yul\":19526:19536   */\n      swap1\n      pop\n        /* \"#utility.yul\":19267:19542   */\n      swap3\n      swap2\n      pop\n      pop\n      jump\t// out\n        /* \"#utility.yul\":19548:19638   */\n    tag_248:\n        /* \"#utility.yul\":19582:19589   */\n      0x00\n        /* \"#utility.yul\":19625:19630   */\n      dup2\n        /* \"#utility.yul\":19618:19631   */\n      iszero\n        /* \"#utility.yul\":19611:19632   */\n      iszero\n        /* \"#utility.yul\":19600:19632   */\n      swap1\n      pop\n        /* \"#utility.yul\":19548:19638   */\n      swap2\n      swap1\n      pop\n      jump\t// out\n        /* \"#utility.yul\":19644:19753   */\n    tag_249:\n        /* \"#utility.yul\":19725:19746   */\n      tag_458\n        /* \"#utility.yul\":19740:19745   */\n      dup2\n        /* \"#utility.yul\":19725:19746   */\n      tag_248\n      jump\t// in\n    tag_458:\n        /* \"#utility.yul\":19720:19723   */\n      dup3\n        /* \"#utility.yul\":19713:19747   */\n      mstore\n        /* \"#utility.yul\":19644:19753   */\n      pop\n      pop\n      jump\t// out\n        /* \"#utility.yul\":19759:20079   */\n    tag_122:\n        /* \"#utility.yul\":19874:19878   */\n      0x00\n        /* \"#utility.yul\":19912:19914   */\n      0x40\n        /* \"#utility.yul\":19901:19910   */\n      dup3\n        /* \"#utility.yul\":19897:19915   */\n      add\n        /* \"#utility.yul\":19889:19915   */\n      swap1\n      pop\n        /* \"#utility.yul\":19925:19996   */\n      tag_460\n        /* \"#utility.yul\":19993:19994   */\n      0x00\n        /* \"#utility.yul\":19982:19991   */\n      dup4\n        /* \"#utility.yul\":19978:19995   */\n      add\n        /* \"#utility.yul\":19969:19975   */\n      dup6\n        /* \"#utility.yul\":19925:19996   */\n      tag_240\n      jump\t// in\n    tag_460:\n        /* \"#utility.yul\":20006:20072   */\n      tag_461\n        /* \"#utility.yul\":20068:20070   */\n      0x20\n        /* \"#utility.yul\":20057:20066   */\n      dup4\n        /* \"#utility.yul\":20053:20071   */\n      add\n        /* \"#utility.yul\":20044:20050   */\n      dup5\n        /* \"#utility.yul\":20006:20072   */\n      tag_249\n      jump\t// in\n    tag_461:\n        /* \"#utility.yul\":19759:20079   */\n      swap4\n      swap3\n      pop\n      pop\n      pop\n      jump\t// out\n        /* \"#utility.yul\":20085:20267   */\n    tag_250:\n        /* \"#utility.yul\":20225:20259   */\n      0x4c6120656d7072657361206e6f206573746120656e20656c2073697374656d61\n        /* \"#utility.yul\":20221:20222   */\n      0x00\n        /* \"#utility.yul\":20213:20219   */\n      dup3\n        /* \"#utility.yul\":20209:20223   */\n      add\n        /* \"#utility.yul\":20202:20260   */\n      mstore\n        /* \"#utility.yul\":20085:20267   */\n      pop\n      jump\t// out\n        /* \"#utility.yul\":20273:20639   */\n    tag_251:\n        /* \"#utility.yul\":20415:20418   */\n      0x00\n        /* \"#utility.yul\":20436:20503   */\n      tag_464\n        /* \"#utility.yul\":20500:20502   */\n      0x20\n        /* \"#utility.yul\":20495:20498   */\n      dup4\n        /* \"#utility.yul\":20436:20503   */\n      tag_244\n      jump\t// in\n    tag_464:\n        /* \"#utility.yul\":20429:20503   */\n      swap2\n      pop\n        /* \"#utility.yul\":20512:20605   */\n      tag_465\n        /* \"#utility.yul\":20601:20604   */\n      dup3\n        /* \"#utility.yul\":20512:20605   */\n      tag_250\n      jump\t// in\n    tag_465:\n        /* \"#utility.yul\":20630:20632   */\n      0x20\n        /* \"#utility.yul\":20625:20628   */\n      dup3\n        /* \"#utility.yul\":20621:20633   */\n      add\n        /* \"#utility.yul\":20614:20633   */\n      swap1\n      pop\n        /* \"#utility.yul\":20273:20639   */\n      swap2\n      swap1\n      pop\n      jump\t// out\n        /* \"#utility.yul\":20645:21064   */\n    tag_131:\n        /* \"#utility.yul\":20811:20815   */\n      0x00\n        /* \"#utility.yul\":20849:20851   */\n      0x20\n        /* \"#utility.yul\":20838:20847   */\n      dup3\n        /* \"#utility.yul\":20834:20852   */\n      add\n        /* \"#utility.yul\":20826:20852   */\n      swap1\n      pop\n        /* \"#utility.yul\":20898:20907   */\n      dup2\n        /* \"#utility.yul\":20892:20896   */\n      dup2\n        /* \"#utility.yul\":20888:20908   */\n      sub\n        /* \"#utility.yul\":20884:20885   */\n      0x00\n        /* \"#utility.yul\":20873:20882   */\n      dup4\n        /* \"#utility.yul\":20869:20886   */\n      add\n        /* \"#utility.yul\":20862:20909   */\n      mstore\n        /* \"#utility.yul\":20926:21057   */\n      tag_467\n        /* \"#utility.yul\":21052:21056   */\n      dup2\n        /* \"#utility.yul\":20926:21057   */\n      tag_251\n      jump\t// in\n    tag_467:\n        /* \"#utility.yul\":20918:21057   */\n      swap1\n      pop\n        /* \"#utility.yul\":20645:21064   */\n      swap2\n      swap1\n      pop\n      jump\t// out\n        /* \"#utility.yul\":21070:21291   */\n    tag_252:\n        /* \"#utility.yul\":21210:21244   */\n      0x4e6f206573746120656e20656c2073697374656d61206573746120656d707265\n        /* \"#utility.yul\":21206:21207   */\n      0x00\n        /* \"#utility.yul\":21198:21204   */\n      dup3\n        /* \"#utility.yul\":21194:21208   */\n      add\n        /* \"#utility.yul\":21187:21245   */\n      mstore\n        /* \"#utility.yul\":21279:21283   */\n      0x7361000000000000000000000000000000000000000000000000000000000000\n        /* \"#utility.yul\":21274:21276   */\n      0x20\n        /* \"#utility.yul\":21266:21272   */\n      dup3\n        /* \"#utility.yul\":21262:21277   */\n      add\n        /* \"#utility.yul\":21255:21284   */\n      mstore\n        /* \"#utility.yul\":21070:21291   */\n      pop\n      jump\t// out\n        /* \"#utility.yul\":21297:21663   */\n    tag_253:\n        /* \"#utility.yul\":21439:21442   */\n      0x00\n        /* \"#utility.yul\":21460:21527   */\n      tag_470\n        /* \"#utility.yul\":21524:21526   */\n      0x22\n        /* \"#utility.yul\":21519:21522   */\n      dup4\n        /* \"#utility.yul\":21460:21527   */\n      tag_244\n      jump\t// in\n    tag_470:\n        /* \"#utility.yul\":21453:21527   */\n      swap2\n      pop\n        /* \"#utility.yul\":21536:21629   */\n      tag_471\n        /* \"#utility.yul\":21625:21628   */\n      dup3\n        /* \"#utility.yul\":21536:21629   */\n      tag_252\n      jump\t// in\n    tag_471:\n        /* \"#utility.yul\":21654:21656   */\n      0x40\n        /* \"#utility.yul\":21649:21652   */\n      dup3\n        /* \"#utility.yul\":21645:21657   */\n      add\n        /* \"#utility.yul\":21638:21657   */\n      swap1\n      pop\n        /* \"#utility.yul\":21297:21663   */\n      swap2\n      swap1\n      pop\n      jump\t// out\n        /* \"#utility.yul\":21669:22088   */\n    tag_155:\n        /* \"#utility.yul\":21835:21839   */\n      0x00\n        /* \"#utility.yul\":21873:21875   */\n      0x20\n        /* \"#utility.yul\":21862:21871   */\n      dup3\n        /* \"#utility.yul\":21858:21876   */\n      add\n        /* \"#utility.yul\":21850:21876   */\n      swap1\n      pop\n        /* \"#utility.yul\":21922:21931   */\n      dup2\n        /* \"#utility.yul\":21916:21920   */\n      dup2\n        /* \"#utility.yul\":21912:21932   */\n      sub\n        /* \"#utility.yul\":21908:21909   */\n      0x00\n        /* \"#utility.yul\":21897:21906   */\n      dup4\n        /* \"#utility.yul\":21893:21910   */\n      add\n        /* \"#utility.yul\":21886:21933   */\n      mstore\n        /* \"#utility.yul\":21950:22081   */\n      tag_473\n        /* \"#utility.yul\":22076:22080   */\n      dup2\n        /* \"#utility.yul\":21950:22081   */\n      tag_253\n      jump\t// in\n    tag_473:\n        /* \"#utility.yul\":21942:22081   */\n      swap1\n      pop\n        /* \"#utility.yul\":21669:22088   */\n      swap2\n      swap1\n      pop\n      jump\t// out\n        /* \"#utility.yul\":22094:22399   */\n    tag_160:\n        /* \"#utility.yul\":22134:22137   */\n      0x00\n        /* \"#utility.yul\":22153:22173   */\n      tag_475\n        /* \"#utility.yul\":22171:22172   */\n      dup3\n        /* \"#utility.yul\":22153:22173   */\n      tag_195\n      jump\t// in\n    tag_475:\n        /* \"#utility.yul\":22148:22173   */\n      swap2\n      pop\n        /* \"#utility.yul\":22187:22207   */\n      tag_476\n        /* \"#utility.yul\":22205:22206   */\n      dup4\n        /* \"#utility.yul\":22187:22207   */\n      tag_195\n      jump\t// in\n    tag_476:\n        /* \"#utility.yul\":22182:22207   */\n      swap3\n      pop\n        /* \"#utility.yul\":22341:22342   */\n      dup3\n        /* \"#utility.yul\":22273:22339   */\n      0xffffffffffffffffffffffffffffffffffffffffffffffffffffffffffffffff\n        /* \"#utility.yul\":22269:22343   */\n      sub\n        /* \"#utility.yul\":22266:22267   */\n      dup3\n        /* \"#utility.yul\":22263:22344   */\n      gt\n        /* \"#utility.yul\":22260:22367   */\n      iszero\n      tag_477\n      jumpi\n        /* \"#utility.yul\":22347:22365   */\n      tag_478\n      tag_243\n      jump\t// in\n    tag_478:\n        /* \"#utility.yul\":22260:22367   */\n    tag_477:\n        /* \"#utility.yul\":22391:22392   */\n      dup3\n        /* \"#utility.yul\":22388:22389   */\n      dup3\n        /* \"#utility.yul\":22384:22393   */\n      add\n        /* \"#utility.yul\":22377:22393   */\n      swap1\n      pop\n        /* \"#utility.yul\":22094:22399   */\n      swap3\n      swap2\n      pop\n      pop\n      jump\t// out\n        /* \"#utility.yul\":22405:22490   */\n    tag_254:\n        /* \"#utility.yul\":22450:22457   */\n      0x00\n        /* \"#utility.yul\":22479:22484   */\n      dup2\n        /* \"#utility.yul\":22468:22484   */\n      swap1\n      pop\n        /* \"#utility.yul\":22405:22490   */\n      swap2\n      swap1\n      pop\n      jump\t// out\n        /* \"#utility.yul\":22496:22556   */\n    tag_255:\n        /* \"#utility.yul\":22524:22527   */\n      0x00\n        /* \"#utility.yul\":22545:22550   */\n      dup2\n        /* \"#utility.yul\":22538:22550   */\n      swap1\n      pop\n        /* \"#utility.yul\":22496:22556   */\n      swap2\n      swap1\n      pop\n      jump\t// out\n        /* \"#utility.yul\":22562:22720   */\n    tag_256:\n        /* \"#utility.yul\":22620:22629   */\n      0x00\n        /* \"#utility.yul\":22653:22714   */\n      tag_482\n        /* \"#utility.yul\":22671:22713   */\n      tag_483\n        /* \"#utility.yul\":22680:22712   */\n      tag_484\n        /* \"#utility.yul\":22706:22711   */\n      dup5\n        /* \"#utility.yul\":22680:22712   */\n      tag_254\n      jump\t// in\n    tag_484:\n        /* \"#utility.yul\":22671:22713   */\n      tag_255\n      jump\t// in\n    tag_483:\n        /* \"#utility.yul\":22653:22714   */\n      tag_195\n      jump\t// in\n    tag_482:\n        /* \"#utility.yul\":22640:22714   */\n      swap1\n      pop\n        /* \"#utility.yul\":22562:22720   */\n      swap2\n      swap1\n      pop\n      jump\t// out\n        /* \"#utility.yul\":22726:22873   */\n    tag_257:\n        /* \"#utility.yul\":22821:22866   */\n      tag_486\n        /* \"#utility.yul\":22860:22865   */\n      dup2\n        /* \"#utility.yul\":22821:22866   */\n      tag_256\n      jump\t// in\n    tag_486:\n        /* \"#utility.yul\":22816:22819   */\n      dup3\n        /* \"#utility.yul\":22809:22867   */\n      mstore\n        /* \"#utility.yul\":22726:22873   */\n      pop\n      pop\n      jump\t// out\n        /* \"#utility.yul\":22879:23227   */\n    tag_162:\n        /* \"#utility.yul\":23008:23012   */\n      0x00\n        /* \"#utility.yul\":23046:23048   */\n      0x40\n        /* \"#utility.yul\":23035:23044   */\n      dup3\n        /* \"#utility.yul\":23031:23049   */\n      add\n        /* \"#utility.yul\":23023:23049   */\n      swap1\n      pop\n        /* \"#utility.yul\":23059:23130   */\n      tag_488\n        /* \"#utility.yul\":23127:23128   */\n      0x00\n        /* \"#utility.yul\":23116:23125   */\n      dup4\n        /* \"#utility.yul\":23112:23129   */\n      add\n        /* \"#utility.yul\":23103:23109   */\n      dup6\n        /* \"#utility.yul\":23059:23130   */\n      tag_240\n      jump\t// in\n    tag_488:\n        /* \"#utility.yul\":23140:23220   */\n      tag_489\n        /* \"#utility.yul\":23216:23218   */\n      0x20\n        /* \"#utility.yul\":23205:23214   */\n      dup4\n        /* \"#utility.yul\":23201:23219   */\n      add\n        /* \"#utility.yul\":23192:23198   */\n      dup5\n        /* \"#utility.yul\":23140:23220   */\n      tag_257\n      jump\t// in\n    tag_489:\n        /* \"#utility.yul\":22879:23227   */\n      swap4\n      swap3\n      pop\n      pop\n      pop\n      jump\t// out\n        /* \"#utility.yul\":23233:23454   */\n    tag_258:\n        /* \"#utility.yul\":23373:23407   */\n      0x5961206573746120656e20656c2073697374656d61206573746120656d707265\n        /* \"#utility.yul\":23369:23370   */\n      0x00\n        /* \"#utility.yul\":23361:23367   */\n      dup3\n        /* \"#utility.yul\":23357:23371   */\n      add\n        /* \"#utility.yul\":23350:23408   */\n      mstore\n        /* \"#utility.yul\":23442:23446   */\n      0x7361000000000000000000000000000000000000000000000000000000000000\n        /* \"#utility.yul\":23437:23439   */\n      0x20\n        /* \"#utility.yul\":23429:23435   */\n      dup3\n        /* \"#utility.yul\":23425:23440   */\n      add\n        /* \"#utility.yul\":23418:23447   */\n      mstore\n        /* \"#utility.yul\":23233:23454   */\n      pop\n      jump\t// out\n        /* \"#utility.yul\":23460:23826   */\n    tag_259:\n        /* \"#utility.yul\":23602:23605   */\n      0x00\n        /* \"#utility.yul\":23623:23690   */\n      tag_492\n        /* \"#utility.yul\":23687:23689   */\n      0x22\n        /* \"#utility.yul\":23682:23685   */\n      dup4\n        /* \"#utility.yul\":23623:23690   */\n      tag_244\n      jump\t// in\n    tag_492:\n        /* \"#utility.yul\":23616:23690   */\n      swap2\n      pop\n        /* \"#utility.yul\":23699:23792   */\n      tag_493\n        /* \"#utility.yul\":23788:23791   */\n      dup3\n        /* \"#utility.yul\":23699:23792   */\n      tag_258\n      jump\t// in\n    tag_493:\n        /* \"#utility.yul\":23817:23819   */\n      0x40\n        /* \"#utility.yul\":23812:23815   */\n      dup3\n        /* \"#utility.yul\":23808:23820   */\n      add\n        /* \"#utility.yul\":23801:23820   */\n      swap1\n      pop\n        /* \"#utility.yul\":23460:23826   */\n      swap2\n      swap1\n      pop\n      jump\t// out\n        /* \"#utility.yul\":23832:24251   */\n    tag_173:\n        /* \"#utility.yul\":23998:24002   */\n      0x00\n        /* \"#utility.yul\":24036:24038   */\n      0x20\n        /* \"#utility.yul\":24025:24034   */\n      dup3\n        /* \"#utility.yul\":24021:24039   */\n      add\n        /* \"#utility.yul\":24013:24039   */\n      swap1\n      pop\n        /* \"#utility.yul\":24085:24094   */\n      dup2\n        /* \"#utility.yul\":24079:24083   */\n      dup2\n        /* \"#utility.yul\":24075:24095   */\n      sub\n        /* \"#utility.yul\":24071:24072   */\n      0x00\n        /* \"#utility.yul\":24060:24069   */\n      dup4\n        /* \"#utility.yul\":24056:24073   */\n      add\n        /* \"#utility.yul\":24049:24096   */\n      mstore\n        /* \"#utility.yul\":24113:24244   */\n      tag_495\n        /* \"#utility.yul\":24239:24243   */\n      dup2\n        /* \"#utility.yul\":24113:24244   */\n      tag_259\n      jump\t// in\n    tag_495:\n        /* \"#utility.yul\":24105:24244   */\n      swap1\n      pop\n        /* \"#utility.yul\":23832:24251   */\n      swap2\n      swap1\n      pop\n      jump\t// out\n\n    auxdata: 0xa26469706673582212206cef32cbf9e4549db4081f2f82aebe9371f2d1575b735ed9f2d202eb0155852464736f6c634300080a0033\n}\n\nsub_1: assembly {\n        /* \"ReputationControl.sol\":817:5322  contract ERC4974 is IERC4974{... */\n      mstore(0x40, 0x80)\n        /* \"ReputationControl.sol\":1085:1349  constructor() {... */\n      callvalue\n      dup1\n      iszero\n      tag_1\n      jumpi\n      0x00\n      dup1\n      revert\n    tag_1:\n      pop\n        /* \"ReputationControl.sol\":1140:1141  0 */\n      0x00\n        /* \"ReputationControl.sol\":1118:1142  msg.sender != address(0) */\n      0xffffffffffffffffffffffffffffffffffffffff\n      and\n        /* \"ReputationControl.sol\":1118:1128  msg.sender */\n      caller\n        /* \"ReputationControl.sol\":1118:1142  msg.sender != address(0) */\n      0xffffffffffffffffffffffffffffffffffffffff\n      and\n      eq\n      iszero\n        /* \"ReputationControl.sol\":1110:1183  require(msg.sender != address(0), \"Operator cannot be the zero address.\") */\n      tag_4\n      jumpi\n      mload(0x40)\n      0x08c379a000000000000000000000000000000000000000000000000000000000\n      dup2\n      mstore\n      0x04\n      add\n      tag_5\n      swap1\n      tag_6\n      jump\t// in\n    tag_5:\n      mload(0x40)\n      dup1\n      swap2\n      sub\n      swap1\n      revert\n    tag_4:\n        /* \"ReputationControl.sol\":1206:1216  msg.sender */\n      caller\n        /* \"ReputationControl.sol\":1194:1203  _operator */\n      0x03\n      0x00\n        /* \"ReputationControl.sol\":1194:1216  _operator = msg.sender */\n      0x0100\n      exp\n      dup2\n      sload\n      dup2\n      0xffffffffffffffffffffffffffffffffffffffff\n      mul\n      not\n      and\n      swap1\n      dup4\n      0xffffffffffffffffffffffffffffffffffffffff\n      and\n      mul\n      or\n      swap1\n      sstore\n      pop\n        /* \"ReputationControl.sol\":1254:1258  true */\n      0x01\n        /* \"ReputationControl.sol\":1227:1240  _participants */\n      dup1\n        /* \"ReputationControl.sol\":1227:1251  _participants[_operator] */\n      0x00\n        /* \"ReputationControl.sol\":1241:1250  _operator */\n      0x03\n      0x00\n      swap1\n      sload\n      swap1\n      0x0100\n      exp\n      swap1\n      div\n      0xffffffffffffffffffffffffffffffffffffffff\n      and\n        /* \"ReputationControl.sol\":1227:1251  _participants[_operator] */\n      0xffffffffffffffffffffffffffffffffffffffff\n      and\n      0xffffffffffffffffffffffffffffffffffffffff\n      and\n      dup2\n      mstore\n      0x20\n      add\n      swap1\n      dup2\n      mstore\n      0x20\n      add\n      0x00\n      keccak256\n      0x00\n        /* \"ReputationControl.sol\":1227:1258  _participants[_operator] = true */\n      0x0100\n      exp\n      dup2\n      sload\n      dup2\n      0xff\n      mul\n      not\n      and\n      swap1\n      dup4\n      iszero\n      iszero\n      mul\n      or\n      swap1\n      sstore\n      pop\n        /* \"ReputationControl.sol\":1294:1298  true */\n      0x01\n        /* \"ReputationControl.sol\":1269:1280  _authorized */\n      0x02\n        /* \"ReputationControl.sol\":1269:1291  _authorized[_operator] */\n      0x00\n        /* \"ReputationControl.sol\":1281:1290  _operator */\n      0x03\n      0x00\n      swap1\n      sload\n      swap1\n      0x0100\n      exp\n      swap1\n      div\n      0xffffffffffffffffffffffffffffffffffffffff\n      and\n        /* \"ReputationControl.sol\":1269:1291  _authorized[_operator] */\n      0xffffffffffffffffffffffffffffffffffffffff\n      and\n      0xffffffffffffffffffffffffffffffffffffffff\n      and\n      dup2\n      mstore\n      0x20\n      add\n      swap1\n      dup2\n      mstore\n      0x20\n      add\n      0x00\n      keccak256\n      0x00\n        /* \"ReputationControl.sol\":1269:1298  _authorized[_operator] = true */\n      0x0100\n      exp\n      dup2\n      sload\n      dup2\n      0xff\n      mul\n      not\n      and\n      swap1\n      dup4\n      iszero\n      iszero\n      mul\n      or\n      swap1\n      sstore\n      pop\n        /* \"ReputationControl.sol\":1337:1341  true */\n      0x01\n        /* \"ReputationControl.sol\":1309:1322  _participants */\n      dup1\n        /* \"ReputationControl.sol\":1309:1334  _participants[address(0)] */\n      0x00\n        /* \"ReputationControl.sol\":1331:1332  0 */\n      dup1\n        /* \"ReputationControl.sol\":1309:1334  _participants[address(0)] */\n      0xffffffffffffffffffffffffffffffffffffffff\n      and\n      0xffffffffffffffffffffffffffffffffffffffff\n      and\n      dup2\n      mstore\n      0x20\n      add\n      swap1\n      dup2\n      mstore\n      0x20\n      add\n      0x00\n      keccak256\n      0x00\n        /* \"ReputationControl.sol\":1309:1341  _participants[address(0)] = true */\n      0x0100\n      exp\n      dup2\n      sload\n      dup2\n      0xff\n      mul\n      not\n      and\n      swap1\n      dup4\n      iszero\n      iszero\n      mul\n      or\n      swap1\n      sstore\n      pop\n        /* \"ReputationControl.sol\":817:5322  contract ERC4974 is IERC4974{... */\n      jump(tag_7)\n        /* \"#utility.yul\":7:176   */\n    tag_8:\n        /* \"#utility.yul\":91:102   */\n      0x00\n        /* \"#utility.yul\":125:131   */\n      dup3\n        /* \"#utility.yul\":120:123   */\n      dup3\n        /* \"#utility.yul\":113:132   */\n      mstore\n        /* \"#utility.yul\":165:169   */\n      0x20\n        /* \"#utility.yul\":160:163   */\n      dup3\n        /* \"#utility.yul\":156:170   */\n      add\n        /* \"#utility.yul\":141:170   */\n      swap1\n      pop\n        /* \"#utility.yul\":7:176   */\n      swap3\n      swap2\n      pop\n      pop\n      jump\t// out\n        /* \"#utility.yul\":182:405   */\n    tag_9:\n        /* \"#utility.yul\":322:356   */\n      0x4f70657261746f722063616e6e6f7420626520746865207a65726f2061646472\n        /* \"#utility.yul\":318:319   */\n      0x00\n        /* \"#utility.yul\":310:316   */\n      dup3\n        /* \"#utility.yul\":306:320   */\n      add\n        /* \"#utility.yul\":299:357   */\n      mstore\n        /* \"#utility.yul\":391:397   */\n      0x6573732e00000000000000000000000000000000000000000000000000000000\n        /* \"#utility.yul\":386:388   */\n      0x20\n        /* \"#utility.yul\":378:384   */\n      dup3\n        /* \"#utility.yul\":374:389   */\n      add\n        /* \"#utility.yul\":367:398   */\n      mstore\n        /* \"#utility.yul\":182:405   */\n      pop\n      jump\t// out\n        /* \"#utility.yul\":411:777   */\n    tag_10:\n        /* \"#utility.yul\":553:556   */\n      0x00\n        /* \"#utility.yul\":574:641   */\n      tag_15\n        /* \"#utility.yul\":638:640   */\n      0x24\n        /* \"#utility.yul\":633:636   */\n      dup4\n        /* \"#utility.yul\":574:641   */\n      tag_8\n      jump\t// in\n    tag_15:\n        /* \"#utility.yul\":567:641   */\n      swap2\n      pop\n        /* \"#utility.yul\":650:743   */\n      tag_16\n        /* \"#utility.yul\":739:742   */\n      dup3\n        /* \"#utility.yul\":650:743   */\n      tag_9\n      jump\t// in\n    tag_16:\n        /* \"#utility.yul\":768:770   */\n      0x40\n        /* \"#utility.yul\":763:766   */\n      dup3\n        /* \"#utility.yul\":759:771   */\n      add\n        /* \"#utility.yul\":752:771   */\n      swap1\n      pop\n        /* \"#utility.yul\":411:777   */\n      swap2\n      swap1\n      pop\n      jump\t// out\n        /* \"#utility.yul\":783:1202   */\n    tag_6:\n        /* \"#utility.yul\":949:953   */\n      0x00\n        /* \"#utility.yul\":987:989   */\n      0x20\n        /* \"#utility.yul\":976:985   */\n      dup3\n        /* \"#utility.yul\":972:990   */\n      add\n        /* \"#utility.yul\":964:990   */\n      swap1\n      pop\n        /* \"#utility.yul\":1036:1045   */\n      dup2\n        /* \"#utility.yul\":1030:1034   */\n      dup2\n        /* \"#utility.yul\":1026:1046   */\n      sub\n        /* \"#utility.yul\":1022:1023   */\n      0x00\n        /* \"#utility.yul\":1011:1020   */\n      dup4\n        /* \"#utility.yul\":1007:1024   */\n      add\n        /* \"#utility.yul\":1000:1047   */\n      mstore\n        /* \"#utility.yul\":1064:1195   */\n      tag_18\n        /* \"#utility.yul\":1190:1194   */\n      dup2\n        /* \"#utility.yul\":1064:1195   */\n      tag_10\n      jump\t// in\n    tag_18:\n        /* \"#utility.yul\":1056:1195   */\n      swap1\n      pop\n        /* \"#utility.yul\":783:1202   */\n      swap2\n      swap1\n      pop\n      jump\t// out\n        /* \"ReputationControl.sol\":817:5322  contract ERC4974 is IERC4974{... */\n    tag_7:\n      dataSize(sub_0)\n      dup1\n      dataOffset(sub_0)\n      0x00\n      codecopy\n      0x00\n      return\n    stop\n\n    sub_0: assembly {\n            /* \"ReputationControl.sol\":817:5322  contract ERC4974 is IERC4974{... */\n          mstore(0x40, 0x80)\n          callvalue\n          dup1\n          iszero\n          tag_1\n          jumpi\n          0x00\n          dup1\n          revert\n        tag_1:\n          pop\n          jumpi(tag_2, lt(calldatasize, 0x04))\n          shr(0xe0, calldataload(0x00))\n          dup1\n          0x570ca735\n          gt\n          tag_14\n          jumpi\n          dup1\n          0x570ca735\n          eq\n          tag_8\n          jumpi\n          dup1\n          0x70a08231\n          eq\n          tag_9\n          jumpi\n          dup1\n          0x9dc29fac\n          eq\n          tag_10\n          jumpi\n          dup1\n          0xb3ab15fb\n          eq\n          tag_11\n          jumpi\n          dup1\n          0xd3df65ee\n          eq\n          tag_12\n          jumpi\n          dup1\n          0xf00eaafc\n          eq\n          tag_13\n          jumpi\n          jump(tag_2)\n        tag_14:\n          dup1\n          0x025c126e\n          eq\n          tag_3\n          jumpi\n          dup1\n          0x0cd8418d\n          eq\n          tag_4\n          jumpi\n          dup1\n          0x18160ddd\n          eq\n          tag_5\n          jumpi\n          dup1\n          0x308b8c00\n          eq\n          tag_6\n          jumpi\n          dup1\n          0x40c10f19\n          eq\n          tag_7\n          jumpi\n        tag_2:\n          0x00\n          dup1\n          revert\n            /* \"ReputationControl.sol\":2036:2197  function setAuthorization(address account) external virtual onlyOperator{... */\n        tag_3:\n          tag_15\n          0x04\n          dup1\n          calldatasize\n          sub\n          dup2\n          add\n          swap1\n          tag_16\n          swap2\n          swap1\n          tag_17\n          jump\t// in\n        tag_16:\n          tag_18\n          jump\t// in\n        tag_15:\n          stop\n            /* \"ReputationControl.sol\":1789:1998  function setParticipation(address participant, bool participation) external virtual override onlyOperator{... */\n        tag_4:\n          tag_19\n          0x04\n          dup1\n          calldatasize\n          sub\n          dup2\n          add\n          swap1\n          tag_20\n          swap2\n          swap1\n          tag_21\n          jump\t// in\n        tag_20:\n          tag_22\n          jump\t// in\n        tag_19:\n          stop\n            /* \"ReputationControl.sol\":2891:2992  function totalSupply() external view virtual returns (uint256) {... */\n        tag_5:\n          tag_23\n          tag_24\n          jump\t// in\n        tag_23:\n          mload(0x40)\n          tag_25\n          swap2\n          swap1\n          tag_26\n          jump\t// in\n        tag_25:\n          mload(0x40)\n          dup1\n          swap2\n          sub\n          swap1\n          return\n            /* \"ReputationControl.sol\":3458:3618  function reallocate(address from, address to, uint256 amount) external virtual override onlyAuthorized(msg.sender){... */\n        tag_6:\n          tag_27\n          0x04\n          dup1\n          calldatasize\n          sub\n          dup2\n          add\n          swap1\n          tag_28\n          swap2\n          swap1\n          tag_29\n          jump\t// in\n        tag_28:\n          tag_30\n          jump\t// in\n        tag_27:\n          stop\n            /* \"ReputationControl.sol\":3000:3218  function mint(address to, uint256 amount) external virtual override onlyAuthorized(msg.sender){... */\n        tag_7:\n          tag_31\n          0x04\n          dup1\n          calldatasize\n          sub\n          dup2\n          add\n          swap1\n          tag_32\n          swap2\n          swap1\n          tag_33\n          jump\t// in\n        tag_32:\n          tag_34\n          jump\t// in\n        tag_31:\n          stop\n            /* \"ReputationControl.sol\":2516:2611  function operator() external view virtual returns (address) {... */\n        tag_8:\n          tag_35\n          tag_36\n          jump\t// in\n        tag_35:\n          mload(0x40)\n          tag_37\n          swap2\n          swap1\n          tag_38\n          jump\t// in\n        tag_37:\n          mload(0x40)\n          dup1\n          swap2\n          sub\n          swap1\n          return\n            /* \"ReputationControl.sol\":2619:2748  function balanceOf(address account) external view virtual override returns (uint256) {... */\n        tag_9:\n          tag_39\n          0x04\n          dup1\n          calldatasize\n          sub\n          dup2\n          add\n          swap1\n          tag_40\n          swap2\n          swap1\n          tag_17\n          jump\t// in\n        tag_40:\n          tag_41\n          jump\t// in\n        tag_39:\n          mload(0x40)\n          tag_42\n          swap2\n          swap1\n          tag_26\n          jump\t// in\n        tag_42:\n          mload(0x40)\n          dup1\n          swap2\n          sub\n          swap1\n          return\n            /* \"ReputationControl.sol\":3226:3450  function burn(address from, uint256 amount) external virtual override onlyAuthorized(msg.sender){... */\n        tag_10:\n          tag_43\n          0x04\n          dup1\n          calldatasize\n          sub\n          dup2\n          add\n          swap1\n          tag_44\n          swap2\n          swap1\n          tag_33\n          jump\t// in\n        tag_44:\n          tag_45\n          jump\t// in\n        tag_43:\n          stop\n            /* \"ReputationControl.sol\":2378:2502  function setOperator(address newOperator) external virtual override onlyOperator{... */\n        tag_11:\n          tag_46\n          0x04\n          dup1\n          calldatasize\n          sub\n          dup2\n          add\n          swap1\n          tag_47\n          swap2\n          swap1\n          tag_17\n          jump\t// in\n        tag_47:\n          tag_48\n          jump\t// in\n        tag_46:\n          stop\n            /* \"ReputationControl.sol\":2205:2370  function retireAuthorization(address account) external virtual onlyOperator{... */\n        tag_12:\n          tag_49\n          0x04\n          dup1\n          calldatasize\n          sub\n          dup2\n          add\n          swap1\n          tag_50\n          swap2\n          swap1\n          tag_17\n          jump\t// in\n        tag_50:\n          tag_51\n          jump\t// in\n        tag_49:\n          stop\n            /* \"ReputationControl.sol\":2756:2883  function participationOf(address account) external view virtual returns (bool) {... */\n        tag_13:\n          tag_52\n          0x04\n          dup1\n          calldatasize\n          sub\n          dup2\n          add\n          swap1\n          tag_53\n          swap2\n          swap1\n          tag_17\n          jump\t// in\n        tag_53:\n          tag_54\n          jump\t// in\n        tag_52:\n          mload(0x40)\n          tag_55\n          swap2\n          swap1\n          tag_56\n          jump\t// in\n        tag_55:\n          mload(0x40)\n          dup1\n          swap2\n          sub\n          swap1\n          return\n            /* \"ReputationControl.sol\":2036:2197  function setAuthorization(address account) external virtual onlyOperator{... */\n        tag_18:\n            /* \"ReputationControl.sol\":1413:1422  _operator */\n          0x03\n          0x00\n          swap1\n          sload\n          swap1\n          0x0100\n          exp\n          swap1\n          div\n          0xffffffffffffffffffffffffffffffffffffffff\n          and\n            /* \"ReputationControl.sol\":1399:1422  msg.sender == _operator */\n          0xffffffffffffffffffffffffffffffffffffffff\n          and\n            /* \"ReputationControl.sol\":1399:1409  msg.sender */\n          caller\n            /* \"ReputationControl.sol\":1399:1422  msg.sender == _operator */\n          0xffffffffffffffffffffffffffffffffffffffff\n          and\n          eq\n            /* \"ReputationControl.sol\":1391:1451  require(msg.sender == _operator, \"You must be the operator\") */\n          tag_58\n          jumpi\n          mload(0x40)\n          0x08c379a000000000000000000000000000000000000000000000000000000000\n          dup2\n          mstore\n          0x04\n          add\n          tag_59\n          swap1\n          tag_60\n          jump\t// in\n        tag_59:\n          mload(0x40)\n          dup1\n          swap2\n          sub\n          swap1\n          revert\n        tag_58:\n            /* \"ReputationControl.sol\":2141:2150  _operator */\n          0x03\n          0x00\n          swap1\n          sload\n          swap1\n          0x0100\n          exp\n          swap1\n          div\n          0xffffffffffffffffffffffffffffffffffffffff\n          and\n            /* \"ReputationControl.sol\":2127:2150  msg.sender == _operator */\n          0xffffffffffffffffffffffffffffffffffffffff\n          and\n            /* \"ReputationControl.sol\":2127:2137  msg.sender */\n          caller\n            /* \"ReputationControl.sol\":2127:2150  msg.sender == _operator */\n          0xffffffffffffffffffffffffffffffffffffffff\n          and\n          eq\n            /* \"ReputationControl.sol\":2119:2151  require(msg.sender == _operator) */\n          tag_62\n          jumpi\n          0x00\n          dup1\n          revert\n        tag_62:\n            /* \"ReputationControl.sol\":2185:2189  true */\n          0x01\n            /* \"ReputationControl.sol\":2162:2173  _authorized */\n          0x02\n            /* \"ReputationControl.sol\":2162:2182  _authorized[account] */\n          0x00\n            /* \"ReputationControl.sol\":2174:2181  account */\n          dup4\n            /* \"ReputationControl.sol\":2162:2182  _authorized[account] */\n          0xffffffffffffffffffffffffffffffffffffffff\n          and\n          0xffffffffffffffffffffffffffffffffffffffff\n          and\n          dup2\n          mstore\n          0x20\n          add\n          swap1\n          dup2\n          mstore\n          0x20\n          add\n          0x00\n          keccak256\n          0x00\n            /* \"ReputationControl.sol\":2162:2189  _authorized[account] = true */\n          0x0100\n          exp\n          dup2\n          sload\n          dup2\n          0xff\n          mul\n          not\n          and\n          swap1\n          dup4\n          iszero\n          iszero\n          mul\n          or\n          swap1\n          sstore\n          pop\n            /* \"ReputationControl.sol\":2036:2197  function setAuthorization(address account) external virtual onlyOperator{... */\n          pop\n          jump\t// out\n            /* \"ReputationControl.sol\":1789:1998  function setParticipation(address participant, bool participation) external virtual override onlyOperator{... */\n        tag_22:\n            /* \"ReputationControl.sol\":1413:1422  _operator */\n          0x03\n          0x00\n          swap1\n          sload\n          swap1\n          0x0100\n          exp\n          swap1\n          div\n          0xffffffffffffffffffffffffffffffffffffffff\n          and\n            /* \"ReputationControl.sol\":1399:1422  msg.sender == _operator */\n          0xffffffffffffffffffffffffffffffffffffffff\n          and\n            /* \"ReputationControl.sol\":1399:1409  msg.sender */\n          caller\n            /* \"ReputationControl.sol\":1399:1422  msg.sender == _operator */\n          0xffffffffffffffffffffffffffffffffffffffff\n          and\n          eq\n            /* \"ReputationControl.sol\":1391:1451  require(msg.sender == _operator, \"You must be the operator\") */\n          tag_64\n          jumpi\n          mload(0x40)\n          0x08c379a000000000000000000000000000000000000000000000000000000000\n          dup2\n          mstore\n          0x04\n          add\n          tag_65\n          swap1\n          tag_60\n          jump\t// in\n        tag_65:\n          mload(0x40)\n          dup1\n          swap2\n          sub\n          swap1\n          revert\n        tag_64:\n            /* \"ReputationControl.sol\":1927:1936  _operator */\n          0x03\n          0x00\n          swap1\n          sload\n          swap1\n          0x0100\n          exp\n          swap1\n          div\n          0xffffffffffffffffffffffffffffffffffffffff\n          and\n            /* \"ReputationControl.sol\":1913:1936  msg.sender == _operator */\n          0xffffffffffffffffffffffffffffffffffffffff\n          and\n            /* \"ReputationControl.sol\":1913:1923  msg.sender */\n          caller\n            /* \"ReputationControl.sol\":1913:1936  msg.sender == _operator */\n          0xffffffffffffffffffffffffffffffffffffffff\n          and\n          eq\n            /* \"ReputationControl.sol\":1905:1937  require(msg.sender == _operator) */\n          tag_67\n          jumpi\n          0x00\n          dup1\n          revert\n        tag_67:\n            /* \"ReputationControl.sol\":1948:1990  _participation(participant, participation) */\n          tag_68\n            /* \"ReputationControl.sol\":1963:1974  participant */\n          dup3\n            /* \"ReputationControl.sol\":1976:1989  participation */\n          dup3\n            /* \"ReputationControl.sol\":1948:1962  _participation */\n          tag_69\n            /* \"ReputationControl.sol\":1948:1990  _participation(participant, participation) */\n          jump\t// in\n        tag_68:\n            /* \"ReputationControl.sol\":1789:1998  function setParticipation(address participant, bool participation) external virtual override onlyOperator{... */\n          pop\n          pop\n          jump\t// out\n            /* \"ReputationControl.sol\":2891:2992  function totalSupply() external view virtual returns (uint256) {... */\n        tag_24:\n            /* \"ReputationControl.sol\":2945:2952  uint256 */\n          0x00\n            /* \"ReputationControl.sol\":2972:2984  _totalSupply */\n          sload(0x04)\n            /* \"ReputationControl.sol\":2965:2984  return _totalSupply */\n          swap1\n          pop\n            /* \"ReputationControl.sol\":2891:2992  function totalSupply() external view virtual returns (uint256) {... */\n          swap1\n          jump\t// out\n            /* \"ReputationControl.sol\":3458:3618  function reallocate(address from, address to, uint256 amount) external virtual override onlyAuthorized(msg.sender){... */\n        tag_30:\n            /* \"ReputationControl.sol\":3561:3571  msg.sender */\n          caller\n            /* \"ReputationControl.sol\":1536:1547  _authorized */\n          0x02\n            /* \"ReputationControl.sol\":1536:1556  _authorized[account] */\n          0x00\n            /* \"ReputationControl.sol\":1548:1555  account */\n          dup3\n            /* \"ReputationControl.sol\":1536:1556  _authorized[account] */\n          0xffffffffffffffffffffffffffffffffffffffff\n          and\n          0xffffffffffffffffffffffffffffffffffffffff\n          and\n          dup2\n          mstore\n          0x20\n          add\n          swap1\n          dup2\n          mstore\n          0x20\n          add\n          0x00\n          keccak256\n          0x00\n          swap1\n          sload\n          swap1\n          0x0100\n          exp\n          swap1\n          div\n          0xff\n          and\n            /* \"ReputationControl.sol\":1528:1557  require(_authorized[account]) */\n          tag_72\n          jumpi\n          0x00\n          dup1\n          revert\n        tag_72:\n            /* \"ReputationControl.sol\":3583:3610  _transfer(from, to, amount) */\n          tag_74\n            /* \"ReputationControl.sol\":3593:3597  from */\n          dup5\n            /* \"ReputationControl.sol\":3599:3601  to */\n          dup5\n            /* \"ReputationControl.sol\":3603:3609  amount */\n          dup5\n            /* \"ReputationControl.sol\":3583:3592  _transfer */\n          tag_75\n            /* \"ReputationControl.sol\":3583:3610  _transfer(from, to, amount) */\n          jump\t// in\n        tag_74:\n            /* \"ReputationControl.sol\":3458:3618  function reallocate(address from, address to, uint256 amount) external virtual override onlyAuthorized(msg.sender){... */\n          pop\n          pop\n          pop\n          pop\n          jump\t// out\n            /* \"ReputationControl.sol\":3000:3218  function mint(address to, uint256 amount) external virtual override onlyAuthorized(msg.sender){... */\n        tag_34:\n            /* \"ReputationControl.sol\":3083:3093  msg.sender */\n          caller\n            /* \"ReputationControl.sol\":1536:1547  _authorized */\n          0x02\n            /* \"ReputationControl.sol\":1536:1556  _authorized[account] */\n          0x00\n            /* \"ReputationControl.sol\":1548:1555  account */\n          dup3\n            /* \"ReputationControl.sol\":1536:1556  _authorized[account] */\n          0xffffffffffffffffffffffffffffffffffffffff\n          and\n          0xffffffffffffffffffffffffffffffffffffffff\n          and\n          dup2\n          mstore\n          0x20\n          add\n          swap1\n          dup2\n          mstore\n          0x20\n          add\n          0x00\n          keccak256\n          0x00\n          swap1\n          sload\n          swap1\n          0x0100\n          exp\n          swap1\n          div\n          0xff\n          and\n            /* \"ReputationControl.sol\":1528:1557  require(_authorized[account]) */\n          tag_77\n          jumpi\n          0x00\n          dup1\n          revert\n        tag_77:\n            /* \"ReputationControl.sol\":3127:3128  0 */\n          0x00\n            /* \"ReputationControl.sol\":3113:3129  to != address(0) */\n          0xffffffffffffffffffffffffffffffffffffffff\n          and\n            /* \"ReputationControl.sol\":3113:3115  to */\n          dup4\n            /* \"ReputationControl.sol\":3113:3129  to != address(0) */\n          0xffffffffffffffffffffffffffffffffffffffff\n          and\n          eq\n          iszero\n            /* \"ReputationControl.sol\":3105:3166  require(to != address(0), \"Cannot mint to the zero address.\") */\n          tag_79\n          jumpi\n          mload(0x40)\n          0x08c379a000000000000000000000000000000000000000000000000000000000\n          dup2\n          mstore\n          0x04\n          add\n          tag_80\n          swap1\n          tag_81\n          jump\t// in\n        tag_80:\n          mload(0x40)\n          dup1\n          swap2\n          sub\n          swap1\n          revert\n        tag_79:\n            /* \"ReputationControl.sol\":3177:3210  _transfer(address(0), to, amount) */\n          tag_82\n            /* \"ReputationControl.sol\":3195:3196  0 */\n          0x00\n            /* \"ReputationControl.sol\":3199:3201  to */\n          dup5\n            /* \"ReputationControl.sol\":3203:3209  amount */\n          dup5\n            /* \"ReputationControl.sol\":3177:3186  _transfer */\n          tag_75\n            /* \"ReputationControl.sol\":3177:3210  _transfer(address(0), to, amount) */\n          jump\t// in\n        tag_82:\n            /* \"ReputationControl.sol\":3000:3218  function mint(address to, uint256 amount) external virtual override onlyAuthorized(msg.sender){... */\n          pop\n          pop\n          pop\n          jump\t// out\n            /* \"ReputationControl.sol\":2516:2611  function operator() external view virtual returns (address) {... */\n        tag_36:\n            /* \"ReputationControl.sol\":2567:2574  address */\n          0x00\n            /* \"ReputationControl.sol\":2594:2603  _operator */\n          0x03\n          0x00\n          swap1\n          sload\n          swap1\n          0x0100\n          exp\n          swap1\n          div\n          0xffffffffffffffffffffffffffffffffffffffff\n          and\n            /* \"ReputationControl.sol\":2587:2603  return _operator */\n          swap1\n          pop\n            /* \"ReputationControl.sol\":2516:2611  function operator() external view virtual returns (address) {... */\n          swap1\n          jump\t// out\n            /* \"ReputationControl.sol\":2619:2748  function balanceOf(address account) external view virtual override returns (uint256) {... */\n        tag_41:\n            /* \"ReputationControl.sol\":2695:2702  uint256 */\n          0x00\n            /* \"ReputationControl.sol\":2722:2731  _balances */\n          dup1\n            /* \"ReputationControl.sol\":2722:2740  _balances[account] */\n          0x00\n            /* \"ReputationControl.sol\":2732:2739  account */\n          dup4\n            /* \"ReputationControl.sol\":2722:2740  _balances[account] */\n          0xffffffffffffffffffffffffffffffffffffffff\n          and\n          0xffffffffffffffffffffffffffffffffffffffff\n          and\n          dup2\n          mstore\n          0x20\n          add\n          swap1\n          dup2\n          mstore\n          0x20\n          add\n          0x00\n          keccak256\n          sload\n            /* \"ReputationControl.sol\":2715:2740  return _balances[account] */\n          swap1\n          pop\n            /* \"ReputationControl.sol\":2619:2748  function balanceOf(address account) external view virtual override returns (uint256) {... */\n          swap2\n          swap1\n          pop\n          jump\t// out\n            /* \"ReputationControl.sol\":3226:3450  function burn(address from, uint256 amount) external virtual override onlyAuthorized(msg.sender){... */\n        tag_45:\n            /* \"ReputationControl.sol\":3311:3321  msg.sender */\n          caller\n            /* \"ReputationControl.sol\":1536:1547  _authorized */\n          0x02\n            /* \"ReputationControl.sol\":1536:1556  _authorized[account] */\n          0x00\n            /* \"ReputationControl.sol\":1548:1555  account */\n          dup3\n            /* \"ReputationControl.sol\":1536:1556  _authorized[account] */\n          0xffffffffffffffffffffffffffffffffffffffff\n          and\n          0xffffffffffffffffffffffffffffffffffffffff\n          and\n          dup2\n          mstore\n          0x20\n          add\n          swap1\n          dup2\n          mstore\n          0x20\n          add\n          0x00\n          keccak256\n          0x00\n          swap1\n          sload\n          swap1\n          0x0100\n          exp\n          swap1\n          div\n          0xff\n          and\n            /* \"ReputationControl.sol\":1528:1557  require(_authorized[account]) */\n          tag_86\n          jumpi\n          0x00\n          dup1\n          revert\n        tag_86:\n            /* \"ReputationControl.sol\":3357:3358  0 */\n          0x00\n            /* \"ReputationControl.sol\":3341:3359  from != address(0) */\n          0xffffffffffffffffffffffffffffffffffffffff\n          and\n            /* \"ReputationControl.sol\":3341:3345  from */\n          dup4\n            /* \"ReputationControl.sol\":3341:3359  from != address(0) */\n          0xffffffffffffffffffffffffffffffffffffffff\n          and\n          eq\n          iszero\n            /* \"ReputationControl.sol\":3333:3396  require(from != address(0), \"Cannot burn to the zero address.\") */\n          tag_88\n          jumpi\n          mload(0x40)\n          0x08c379a000000000000000000000000000000000000000000000000000000000\n          dup2\n          mstore\n          0x04\n          add\n          tag_89\n          swap1\n          tag_90\n          jump\t// in\n        tag_89:\n          mload(0x40)\n          dup1\n          swap2\n          sub\n          swap1\n          revert\n        tag_88:\n            /* \"ReputationControl.sol\":3407:3442  _transfer(from, address(0), amount) */\n          tag_91\n            /* \"ReputationControl.sol\":3417:3421  from */\n          dup4\n            /* \"ReputationControl.sol\":3431:3432  0 */\n          0x00\n            /* \"ReputationControl.sol\":3435:3441  amount */\n          dup5\n            /* \"ReputationControl.sol\":3407:3416  _transfer */\n          tag_75\n            /* \"ReputationControl.sol\":3407:3442  _transfer(from, address(0), amount) */\n          jump\t// in\n        tag_91:\n            /* \"ReputationControl.sol\":3226:3450  function burn(address from, uint256 amount) external virtual override onlyAuthorized(msg.sender){... */\n          pop\n          pop\n          pop\n          jump\t// out\n            /* \"ReputationControl.sol\":2378:2502  function setOperator(address newOperator) external virtual override onlyOperator{... */\n        tag_48:\n            /* \"ReputationControl.sol\":1413:1422  _operator */\n          0x03\n          0x00\n          swap1\n          sload\n          swap1\n          0x0100\n          exp\n          swap1\n          div\n          0xffffffffffffffffffffffffffffffffffffffff\n          and\n            /* \"ReputationControl.sol\":1399:1422  msg.sender == _operator */\n          0xffffffffffffffffffffffffffffffffffffffff\n          and\n            /* \"ReputationControl.sol\":1399:1409  msg.sender */\n          caller\n            /* \"ReputationControl.sol\":1399:1422  msg.sender == _operator */\n          0xffffffffffffffffffffffffffffffffffffffff\n          and\n          eq\n            /* \"ReputationControl.sol\":1391:1451  require(msg.sender == _operator, \"You must be the operator\") */\n          tag_93\n          jumpi\n          mload(0x40)\n          0x08c379a000000000000000000000000000000000000000000000000000000000\n          dup2\n          mstore\n          0x04\n          add\n          tag_94\n          swap1\n          tag_60\n          jump\t// in\n        tag_94:\n          mload(0x40)\n          dup1\n          swap2\n          sub\n          swap1\n          revert\n        tag_93:\n            /* \"ReputationControl.sol\":2469:2494  _setOperator(newOperator) */\n          tag_96\n            /* \"ReputationControl.sol\":2482:2493  newOperator */\n          dup2\n            /* \"ReputationControl.sol\":2469:2481  _setOperator */\n          tag_97\n            /* \"ReputationControl.sol\":2469:2494  _setOperator(newOperator) */\n          jump\t// in\n        tag_96:\n            /* \"ReputationControl.sol\":2378:2502  function setOperator(address newOperator) external virtual override onlyOperator{... */\n          pop\n          jump\t// out\n            /* \"ReputationControl.sol\":2205:2370  function retireAuthorization(address account) external virtual onlyOperator{... */\n        tag_51:\n            /* \"ReputationControl.sol\":1413:1422  _operator */\n          0x03\n          0x00\n          swap1\n          sload\n          swap1\n          0x0100\n          exp\n          swap1\n          div\n          0xffffffffffffffffffffffffffffffffffffffff\n          and\n            /* \"ReputationControl.sol\":1399:1422  msg.sender == _operator */\n          0xffffffffffffffffffffffffffffffffffffffff\n          and\n            /* \"ReputationControl.sol\":1399:1409  msg.sender */\n          caller\n            /* \"ReputationControl.sol\":1399:1422  msg.sender == _operator */\n          0xffffffffffffffffffffffffffffffffffffffff\n          and\n          eq\n            /* \"ReputationControl.sol\":1391:1451  require(msg.sender == _operator, \"You must be the operator\") */\n          tag_99\n          jumpi\n          mload(0x40)\n          0x08c379a000000000000000000000000000000000000000000000000000000000\n          dup2\n          mstore\n          0x04\n          add\n          tag_100\n          swap1\n          tag_60\n          jump\t// in\n        tag_100:\n          mload(0x40)\n          dup1\n          swap2\n          sub\n          swap1\n          revert\n        tag_99:\n            /* \"ReputationControl.sol\":2313:2322  _operator */\n          0x03\n          0x00\n          swap1\n          sload\n          swap1\n          0x0100\n          exp\n          swap1\n          div\n          0xffffffffffffffffffffffffffffffffffffffff\n          and\n            /* \"ReputationControl.sol\":2299:2322  msg.sender == _operator */\n          0xffffffffffffffffffffffffffffffffffffffff\n          and\n            /* \"ReputationControl.sol\":2299:2309  msg.sender */\n          caller\n            /* \"ReputationControl.sol\":2299:2322  msg.sender == _operator */\n          0xffffffffffffffffffffffffffffffffffffffff\n          and\n          eq\n            /* \"ReputationControl.sol\":2291:2323  require(msg.sender == _operator) */\n          tag_102\n          jumpi\n          0x00\n          dup1\n          revert\n        tag_102:\n            /* \"ReputationControl.sol\":2357:2362  false */\n          0x00\n            /* \"ReputationControl.sol\":2334:2345  _authorized */\n          0x02\n            /* \"ReputationControl.sol\":2334:2354  _authorized[account] */\n          0x00\n            /* \"ReputationControl.sol\":2346:2353  account */\n          dup4\n            /* \"ReputationControl.sol\":2334:2354  _authorized[account] */\n          0xffffffffffffffffffffffffffffffffffffffff\n          and\n          0xffffffffffffffffffffffffffffffffffffffff\n          and\n          dup2\n          mstore\n          0x20\n          add\n          swap1\n          dup2\n          mstore\n          0x20\n          add\n          0x00\n          keccak256\n          0x00\n            /* \"ReputationControl.sol\":2334:2362  _authorized[account] = false */\n          0x0100\n          exp\n          dup2\n          sload\n          dup2\n          0xff\n          mul\n          not\n          and\n          swap1\n          dup4\n          iszero\n          iszero\n          mul\n          or\n          swap1\n          sstore\n          pop\n            /* \"ReputationControl.sol\":2205:2370  function retireAuthorization(address account) external virtual onlyOperator{... */\n          pop\n          jump\t// out\n            /* \"ReputationControl.sol\":2756:2883  function participationOf(address account) external view virtual returns (bool) {... */\n        tag_54:\n            /* \"ReputationControl.sol\":2829:2833  bool */\n          0x00\n            /* \"ReputationControl.sol\":2853:2866  _participants */\n          0x01\n            /* \"ReputationControl.sol\":2853:2875  _participants[account] */\n          0x00\n            /* \"ReputationControl.sol\":2867:2874  account */\n          dup4\n            /* \"ReputationControl.sol\":2853:2875  _participants[account] */\n          0xffffffffffffffffffffffffffffffffffffffff\n          and\n          0xffffffffffffffffffffffffffffffffffffffff\n          and\n          dup2\n          mstore\n          0x20\n          add\n          swap1\n          dup2\n          mstore\n          0x20\n          add\n          0x00\n          keccak256\n          0x00\n          swap1\n          sload\n          swap1\n          0x0100\n          exp\n          swap1\n          div\n          0xff\n          and\n            /* \"ReputationControl.sol\":2846:2875  return _participants[account] */\n          swap1\n          pop\n            /* \"ReputationControl.sol\":2756:2883  function participationOf(address account) external view virtual returns (bool) {... */\n          swap2\n          swap1\n          pop\n          jump\t// out\n            /* \"ReputationControl.sol\":4373:4848  function _participation(address participant, bool participation) internal virtual {... */\n        tag_69:\n            /* \"ReputationControl.sol\":4488:4497  _operator */\n          0x03\n          0x00\n          swap1\n          sload\n          swap1\n          0x0100\n          exp\n          swap1\n          div\n          0xffffffffffffffffffffffffffffffffffffffff\n          and\n            /* \"ReputationControl.sol\":4474:4497  msg.sender == _operator */\n          0xffffffffffffffffffffffffffffffffffffffff\n          and\n            /* \"ReputationControl.sol\":4474:4484  msg.sender */\n          caller\n            /* \"ReputationControl.sol\":4474:4497  msg.sender == _operator */\n          0xffffffffffffffffffffffffffffffffffffffff\n          and\n          eq\n            /* \"ReputationControl.sol\":4466:4537  require(msg.sender == _operator,\"Operator cannot change participation\") */\n          tag_105\n          jumpi\n          mload(0x40)\n          0x08c379a000000000000000000000000000000000000000000000000000000000\n          dup2\n          mstore\n          0x04\n          add\n          tag_106\n          swap1\n          tag_107\n          jump\t// in\n        tag_106:\n          mload(0x40)\n          dup1\n          swap2\n          sub\n          swap1\n          revert\n        tag_105:\n            /* \"ReputationControl.sol\":4579:4580  0 */\n          0x00\n            /* \"ReputationControl.sol\":4556:4581  participant != address(0) */\n          0xffffffffffffffffffffffffffffffffffffffff\n          and\n            /* \"ReputationControl.sol\":4556:4567  participant */\n          dup3\n            /* \"ReputationControl.sol\":4556:4581  participant != address(0) */\n          0xffffffffffffffffffffffffffffffffffffffff\n          and\n          eq\n          iszero\n            /* \"ReputationControl.sol\":4548:4617  require(participant != address(0), \"Zero address cannot be removed.\") */\n          tag_108\n          jumpi\n          mload(0x40)\n          0x08c379a000000000000000000000000000000000000000000000000000000000\n          dup2\n          mstore\n          0x04\n          add\n          tag_109\n          swap1\n          tag_110\n          jump\t// in\n        tag_109:\n          mload(0x40)\n          dup1\n          swap2\n          sub\n          swap1\n          revert\n        tag_108:\n            /* \"ReputationControl.sol\":4666:4679  participation */\n          dup1\n            /* \"ReputationControl.sol\":4636:4679  _participants[participant] != participation */\n          iszero\n          iszero\n            /* \"ReputationControl.sol\":4636:4649  _participants */\n          0x01\n            /* \"ReputationControl.sol\":4636:4662  _participants[participant] */\n          0x00\n            /* \"ReputationControl.sol\":4650:4661  participant */\n          dup5\n            /* \"ReputationControl.sol\":4636:4662  _participants[participant] */\n          0xffffffffffffffffffffffffffffffffffffffff\n          and\n          0xffffffffffffffffffffffffffffffffffffffff\n          and\n          dup2\n          mstore\n          0x20\n          add\n          swap1\n          dup2\n          mstore\n          0x20\n          add\n          0x00\n          keccak256\n          0x00\n          swap1\n          sload\n          swap1\n          0x0100\n          exp\n          swap1\n          div\n          0xff\n          and\n            /* \"ReputationControl.sol\":4636:4679  _participants[participant] != participation */\n          iszero\n          iszero\n          eq\n          iszero\n            /* \"ReputationControl.sol\":4628:4730  require(_participants[participant] != participation, \"Participant already has {participation} status\") */\n          tag_111\n          jumpi\n          mload(0x40)\n          0x08c379a000000000000000000000000000000000000000000000000000000000\n          dup2\n          mstore\n          0x04\n          add\n          tag_112\n          swap1\n          tag_113\n          jump\t// in\n        tag_112:\n          mload(0x40)\n          dup1\n          swap2\n          sub\n          swap1\n          revert\n        tag_111:\n            /* \"ReputationControl.sol\":4770:4783  participation */\n          dup1\n            /* \"ReputationControl.sol\":4741:4754  _participants */\n          0x01\n            /* \"ReputationControl.sol\":4741:4767  _participants[participant] */\n          0x00\n            /* \"ReputationControl.sol\":4755:4766  participant */\n          dup5\n            /* \"ReputationControl.sol\":4741:4767  _participants[participant] */\n          0xffffffffffffffffffffffffffffffffffffffff\n          and\n          0xffffffffffffffffffffffffffffffffffffffff\n          and\n          dup2\n          mstore\n          0x20\n          add\n          swap1\n          dup2\n          mstore\n          0x20\n          add\n          0x00\n          keccak256\n          0x00\n            /* \"ReputationControl.sol\":4741:4783  _participants[participant] = participation */\n          0x0100\n          exp\n          dup2\n          sload\n          dup2\n          0xff\n          mul\n          not\n          and\n          swap1\n          dup4\n          iszero\n          iszero\n          mul\n          or\n          swap1\n          sstore\n          pop\n            /* \"ReputationControl.sol\":4813:4824  participant */\n          dup2\n            /* \"ReputationControl.sol\":4799:4840  Participation(participant, participation) */\n          0xffffffffffffffffffffffffffffffffffffffff\n          and\n          0x2c41d9af4701c767a5661c887f466dd2ddfba0572128a2cc04d43bd623445061\n            /* \"ReputationControl.sol\":4826:4839  participation */\n          dup3\n            /* \"ReputationControl.sol\":4799:4840  Participation(participant, participation) */\n          mload(0x40)\n          tag_114\n          swap2\n          swap1\n          tag_56\n          jump\t// in\n        tag_114:\n          mload(0x40)\n          dup1\n          swap2\n          sub\n          swap1\n          log2\n            /* \"ReputationControl.sol\":4373:4848  function _participation(address participant, bool participation) internal virtual {... */\n          pop\n          pop\n          jump\t// out\n            /* \"ReputationControl.sol\":3689:4365  function _transfer(... */\n        tag_75:\n            /* \"ReputationControl.sol\":3834:3843  _operator */\n          0x03\n          0x00\n          swap1\n          sload\n          swap1\n          0x0100\n          exp\n          swap1\n          div\n          0xffffffffffffffffffffffffffffffffffffffff\n          and\n            /* \"ReputationControl.sol\":3820:3843  msg.sender == _operator */\n          0xffffffffffffffffffffffffffffffffffffffff\n          and\n            /* \"ReputationControl.sol\":3820:3830  msg.sender */\n          caller\n            /* \"ReputationControl.sol\":3820:3843  msg.sender == _operator */\n          0xffffffffffffffffffffffffffffffffffffffff\n          and\n          eq\n            /* \"ReputationControl.sol\":3812:3875  require(msg.sender == _operator, \"Sender is not the operator.\") */\n          tag_116\n          jumpi\n          mload(0x40)\n          0x08c379a000000000000000000000000000000000000000000000000000000000\n          dup2\n          mstore\n          0x04\n          add\n          tag_117\n          swap1\n          tag_118\n          jump\t// in\n        tag_117:\n          mload(0x40)\n          dup1\n          swap2\n          sub\n          swap1\n          revert\n        tag_116:\n            /* \"ReputationControl.sol\":3915:3919  true */\n          0x01\n            /* \"ReputationControl.sol\":3894:3919  _participants[to] == true */\n          iszero\n          iszero\n            /* \"ReputationControl.sol\":3894:3907  _participants */\n          0x01\n            /* \"ReputationControl.sol\":3894:3911  _participants[to] */\n          0x00\n            /* \"ReputationControl.sol\":3908:3910  to */\n          dup5\n            /* \"ReputationControl.sol\":3894:3911  _participants[to] */\n          0xffffffffffffffffffffffffffffffffffffffff\n          and\n          0xffffffffffffffffffffffffffffffffffffffff\n          and\n          dup2\n          mstore\n          0x20\n          add\n          swap1\n          dup2\n          mstore\n          0x20\n          add\n          0x00\n          keccak256\n          0x00\n          swap1\n          sload\n          swap1\n          0x0100\n          exp\n          swap1\n          div\n          0xff\n          and\n            /* \"ReputationControl.sol\":3894:3919  _participants[to] == true */\n          iszero\n          iszero\n          eq\n            /* \"ReputationControl.sol\":3886:3966  require(_participants[to] == true, \"{to} address is not an active participant.\") */\n          tag_119\n          jumpi\n          mload(0x40)\n          0x08c379a000000000000000000000000000000000000000000000000000000000\n          dup2\n          mstore\n          0x04\n          add\n          tag_120\n          swap1\n          tag_121\n          jump\t// in\n        tag_120:\n          mload(0x40)\n          dup1\n          swap2\n          sub\n          swap1\n          revert\n        tag_119:\n            /* \"ReputationControl.sol\":3997:3998  0 */\n          0x00\n            /* \"ReputationControl.sol\":3981:3999  from == address(0) */\n          0xffffffffffffffffffffffffffffffffffffffff\n          and\n            /* \"ReputationControl.sol\":3981:3985  from */\n          dup4\n            /* \"ReputationControl.sol\":3981:3999  from == address(0) */\n          0xffffffffffffffffffffffffffffffffffffffff\n          and\n          eq\n            /* \"ReputationControl.sol\":3977:4282  if (from == address(0)) {... */\n          iszero\n          tag_122\n          jumpi\n            /* \"ReputationControl.sol\":4032:4038  amount */\n          dup1\n            /* \"ReputationControl.sol\":4016:4028  _totalSupply */\n          0x04\n          0x00\n            /* \"ReputationControl.sol\":4016:4038  _totalSupply += amount */\n          dup3\n          dup3\n          sload\n          tag_123\n          swap2\n          swap1\n          tag_124\n          jump\t// in\n        tag_123:\n          swap3\n          pop\n          pop\n          dup2\n          swap1\n          sstore\n          pop\n            /* \"ReputationControl.sol\":3977:4282  if (from == address(0)) {... */\n          jump(tag_125)\n        tag_122:\n            /* \"ReputationControl.sol\":4074:4075  0 */\n          0x00\n            /* \"ReputationControl.sol\":4060:4076  to == address(0) */\n          0xffffffffffffffffffffffffffffffffffffffff\n          and\n            /* \"ReputationControl.sol\":4060:4062  to */\n          dup3\n            /* \"ReputationControl.sol\":4060:4076  to == address(0) */\n          0xffffffffffffffffffffffffffffffffffffffff\n          and\n          eq\n            /* \"ReputationControl.sol\":4056:4282  if (to == address(0)) {... */\n          iszero\n          tag_126\n          jumpi\n            /* \"ReputationControl.sol\":4109:4115  amount */\n          dup1\n            /* \"ReputationControl.sol\":4093:4105  _totalSupply */\n          0x04\n          0x00\n            /* \"ReputationControl.sol\":4093:4115  _totalSupply -= amount */\n          dup3\n          dup3\n          sload\n          tag_127\n          swap2\n          swap1\n          tag_128\n          jump\t// in\n        tag_127:\n          swap3\n          pop\n          pop\n          dup2\n          swap1\n          sstore\n          pop\n            /* \"ReputationControl.sol\":4056:4282  if (to == address(0)) {... */\n          jump(tag_129)\n        tag_126:\n            /* \"ReputationControl.sol\":4175:4181  amount */\n          dup1\n            /* \"ReputationControl.sol\":4156:4165  _balances */\n          0x00\n            /* \"ReputationControl.sol\":4156:4171  _balances[from] */\n          dup1\n            /* \"ReputationControl.sol\":4166:4170  from */\n          dup6\n            /* \"ReputationControl.sol\":4156:4171  _balances[from] */\n          0xffffffffffffffffffffffffffffffffffffffff\n          and\n          0xffffffffffffffffffffffffffffffffffffffff\n          and\n          dup2\n          mstore\n          0x20\n          add\n          swap1\n          dup2\n          mstore\n          0x20\n          add\n          0x00\n          keccak256\n          sload\n            /* \"ReputationControl.sol\":4156:4181  _balances[from] >= amount */\n          lt\n          iszero\n            /* \"ReputationControl.sol\":4148:4230  require(_balances[from] >= amount, \"{from} address holds less EXP than {amount}.\") */\n          tag_130\n          jumpi\n          mload(0x40)\n          0x08c379a000000000000000000000000000000000000000000000000000000000\n          dup2\n          mstore\n          0x04\n          add\n          tag_131\n          swap1\n          tag_132\n          jump\t// in\n        tag_131:\n          mload(0x40)\n          dup1\n          swap2\n          sub\n          swap1\n          revert\n        tag_130:\n            /* \"ReputationControl.sol\":4264:4270  amount */\n          dup1\n            /* \"ReputationControl.sol\":4245:4254  _balances */\n          0x00\n            /* \"ReputationControl.sol\":4245:4260  _balances[from] */\n          dup1\n            /* \"ReputationControl.sol\":4255:4259  from */\n          dup6\n            /* \"ReputationControl.sol\":4245:4260  _balances[from] */\n          0xffffffffffffffffffffffffffffffffffffffff\n          and\n          0xffffffffffffffffffffffffffffffffffffffff\n          and\n          dup2\n          mstore\n          0x20\n          add\n          swap1\n          dup2\n          mstore\n          0x20\n          add\n          0x00\n          keccak256\n          0x00\n            /* \"ReputationControl.sol\":4245:4270  _balances[from] -= amount */\n          dup3\n          dup3\n          sload\n          tag_133\n          swap2\n          swap1\n          tag_128\n          jump\t// in\n        tag_133:\n          swap3\n          pop\n          pop\n          dup2\n          swap1\n          sstore\n          pop\n            /* \"ReputationControl.sol\":4056:4282  if (to == address(0)) {... */\n        tag_129:\n            /* \"ReputationControl.sol\":3977:4282  if (from == address(0)) {... */\n        tag_125:\n            /* \"ReputationControl.sol\":4309:4315  amount */\n          dup1\n            /* \"ReputationControl.sol\":4292:4301  _balances */\n          0x00\n            /* \"ReputationControl.sol\":4292:4305  _balances[to] */\n          dup1\n            /* \"ReputationControl.sol\":4302:4304  to */\n          dup5\n            /* \"ReputationControl.sol\":4292:4305  _balances[to] */\n          0xffffffffffffffffffffffffffffffffffffffff\n          and\n          0xffffffffffffffffffffffffffffffffffffffff\n          and\n          dup2\n          mstore\n          0x20\n          add\n          swap1\n          dup2\n          mstore\n          0x20\n          add\n          0x00\n          keccak256\n          0x00\n            /* \"ReputationControl.sol\":4292:4315  _balances[to] += amount */\n          dup3\n          dup3\n          sload\n          tag_134\n          swap2\n          swap1\n          tag_124\n          jump\t// in\n        tag_134:\n          swap3\n          pop\n          pop\n          dup2\n          swap1\n          sstore\n          pop\n            /* \"ReputationControl.sol\":4346:4348  to */\n          dup2\n            /* \"ReputationControl.sol\":4331:4357  Transfer(from, to, amount) */\n          0xffffffffffffffffffffffffffffffffffffffff\n          and\n            /* \"ReputationControl.sol\":4340:4344  from */\n          dup4\n            /* \"ReputationControl.sol\":4331:4357  Transfer(from, to, amount) */\n          0xffffffffffffffffffffffffffffffffffffffff\n          and\n          0xddf252ad1be2c89b69c2b068fc378daa952ba7f163c4a11628f55a4df523b3ef\n            /* \"ReputationControl.sol\":4350:4356  amount */\n          dup4\n            /* \"ReputationControl.sol\":4331:4357  Transfer(from, to, amount) */\n          mload(0x40)\n          tag_135\n          swap2\n          swap1\n          tag_26\n          jump\t// in\n        tag_135:\n          mload(0x40)\n          dup1\n          swap2\n          sub\n          swap1\n          log3\n            /* \"ReputationControl.sol\":3689:4365  function _transfer(... */\n          pop\n          pop\n          pop\n          jump\t// out\n            /* \"ReputationControl.sol\":4856:5172  function _setOperator(address newOperator) internal virtual {... */\n        tag_97:\n            /* \"ReputationControl.sol\":4958:4959  0 */\n          0x00\n            /* \"ReputationControl.sol\":4935:4960  newOperator != address(0) */\n          0xffffffffffffffffffffffffffffffffffffffff\n          and\n            /* \"ReputationControl.sol\":4935:4946  newOperator */\n          dup2\n            /* \"ReputationControl.sol\":4935:4960  newOperator != address(0) */\n          0xffffffffffffffffffffffffffffffffffffffff\n          and\n          eq\n          iszero\n            /* \"ReputationControl.sol\":4927:5001  require(newOperator != address(0), \"Operator cannot be the zero address.\") */\n          tag_137\n          jumpi\n          mload(0x40)\n          0x08c379a000000000000000000000000000000000000000000000000000000000\n          dup2\n          mstore\n          0x04\n          add\n          tag_138\n          swap1\n          tag_139\n          jump\t// in\n        tag_138:\n          mload(0x40)\n          dup1\n          swap2\n          sub\n          swap1\n          revert\n        tag_137:\n            /* \"ReputationControl.sol\":5033:5044  newOperator */\n          dup1\n            /* \"ReputationControl.sol\":5020:5044  _operator != newOperator */\n          0xffffffffffffffffffffffffffffffffffffffff\n          and\n            /* \"ReputationControl.sol\":5020:5029  _operator */\n          0x03\n          0x00\n          swap1\n          sload\n          swap1\n          0x0100\n          exp\n          swap1\n          div\n          0xffffffffffffffffffffffffffffffffffffffff\n          and\n            /* \"ReputationControl.sol\":5020:5044  _operator != newOperator */\n          0xffffffffffffffffffffffffffffffffffffffff\n          and\n          eq\n          iszero\n            /* \"ReputationControl.sol\":5012:5090  require(_operator != newOperator, \"{address} is already assigned as operator\") */\n          tag_140\n          jumpi\n          mload(0x40)\n          0x08c379a000000000000000000000000000000000000000000000000000000000\n          dup2\n          mstore\n          0x04\n          add\n          tag_141\n          swap1\n          tag_142\n          jump\t// in\n        tag_141:\n          mload(0x40)\n          dup1\n          swap2\n          sub\n          swap1\n          revert\n        tag_140:\n            /* \"ReputationControl.sol\":5113:5124  newOperator */\n          dup1\n            /* \"ReputationControl.sol\":5101:5110  _operator */\n          0x03\n          0x00\n            /* \"ReputationControl.sol\":5101:5124  _operator = newOperator */\n          0x0100\n          exp\n          dup2\n          sload\n          dup2\n          0xffffffffffffffffffffffffffffffffffffffff\n          mul\n          not\n          and\n          swap1\n          dup4\n          0xffffffffffffffffffffffffffffffffffffffff\n          and\n          mul\n          or\n          swap1\n          sstore\n          pop\n            /* \"ReputationControl.sol\":5152:5163  newOperator */\n          dup1\n            /* \"ReputationControl.sol\":5140:5164  Appointment(newOperator) */\n          0xffffffffffffffffffffffffffffffffffffffff\n          and\n          0x235b4d5c4596af250d851d446f469c532805433b6138b8c7ad6fcdcd07b9db27\n          mload(0x40)\n          mload(0x40)\n          dup1\n          swap2\n          sub\n          swap1\n          log2\n            /* \"ReputationControl.sol\":4856:5172  function _setOperator(address newOperator) internal virtual {... */\n          pop\n          jump\t// out\n            /* \"#utility.yul\":88:205   */\n        tag_144:\n            /* \"#utility.yul\":197:198   */\n          0x00\n            /* \"#utility.yul\":194:195   */\n          dup1\n            /* \"#utility.yul\":187:199   */\n          revert\n            /* \"#utility.yul\":334:460   */\n        tag_146:\n            /* \"#utility.yul\":371:378   */\n          0x00\n            /* \"#utility.yul\":411:453   */\n          0xffffffffffffffffffffffffffffffffffffffff\n            /* \"#utility.yul\":404:409   */\n          dup3\n            /* \"#utility.yul\":400:454   */\n          and\n            /* \"#utility.yul\":389:454   */\n          swap1\n          pop\n            /* \"#utility.yul\":334:460   */\n          swap2\n          swap1\n          pop\n          jump\t// out\n            /* \"#utility.yul\":466:562   */\n        tag_147:\n            /* \"#utility.yul\":503:510   */\n          0x00\n            /* \"#utility.yul\":532:556   */\n          tag_189\n            /* \"#utility.yul\":550:555   */\n          dup3\n            /* \"#utility.yul\":532:556   */\n          tag_146\n          jump\t// in\n        tag_189:\n            /* \"#utility.yul\":521:556   */\n          swap1\n          pop\n            /* \"#utility.yul\":466:562   */\n          swap2\n          swap1\n          pop\n          jump\t// out\n            /* \"#utility.yul\":568:690   */\n        tag_148:\n            /* \"#utility.yul\":641:665   */\n          tag_191\n            /* \"#utility.yul\":659:664   */\n          dup2\n            /* \"#utility.yul\":641:665   */\n          tag_147\n          jump\t// in\n        tag_191:\n            /* \"#utility.yul\":634:639   */\n          dup2\n            /* \"#utility.yul\":631:666   */\n          eq\n            /* \"#utility.yul\":621:684   */\n          tag_192\n          jumpi\n            /* \"#utility.yul\":680:681   */\n          0x00\n            /* \"#utility.yul\":677:678   */\n          dup1\n            /* \"#utility.yul\":670:682   */\n          revert\n            /* \"#utility.yul\":621:684   */\n        tag_192:\n            /* \"#utility.yul\":568:690   */\n          pop\n          jump\t// out\n            /* \"#utility.yul\":696:835   */\n        tag_149:\n            /* \"#utility.yul\":742:747   */\n          0x00\n            /* \"#utility.yul\":780:786   */\n          dup2\n            /* \"#utility.yul\":767:787   */\n          calldataload\n            /* \"#utility.yul\":758:787   */\n          swap1\n          pop\n            /* \"#utility.yul\":796:829   */\n          tag_194\n            /* \"#utility.yul\":823:828   */\n          dup2\n            /* \"#utility.yul\":796:829   */\n          tag_148\n          jump\t// in\n        tag_194:\n            /* \"#utility.yul\":696:835   */\n          swap3\n          swap2\n          pop\n          pop\n          jump\t// out\n            /* \"#utility.yul\":841:1170   */\n        tag_17:\n            /* \"#utility.yul\":900:906   */\n          0x00\n            /* \"#utility.yul\":949:951   */\n          0x20\n            /* \"#utility.yul\":937:946   */\n          dup3\n            /* \"#utility.yul\":928:935   */\n          dup5\n            /* \"#utility.yul\":924:947   */\n          sub\n            /* \"#utility.yul\":920:952   */\n          slt\n            /* \"#utility.yul\":917:1036   */\n          iszero\n          tag_196\n          jumpi\n            /* \"#utility.yul\":955:1034   */\n          tag_197\n          tag_144\n          jump\t// in\n        tag_197:\n            /* \"#utility.yul\":917:1036   */\n        tag_196:\n            /* \"#utility.yul\":1075:1076   */\n          0x00\n            /* \"#utility.yul\":1100:1153   */\n          tag_198\n            /* \"#utility.yul\":1145:1152   */\n          dup5\n            /* \"#utility.yul\":1136:1142   */\n          dup3\n            /* \"#utility.yul\":1125:1134   */\n          dup6\n            /* \"#utility.yul\":1121:1143   */\n          add\n            /* \"#utility.yul\":1100:1153   */\n          tag_149\n          jump\t// in\n        tag_198:\n            /* \"#utility.yul\":1090:1153   */\n          swap2\n          pop\n            /* \"#utility.yul\":1046:1163   */\n          pop\n            /* \"#utility.yul\":841:1170   */\n          swap3\n          swap2\n          pop\n          pop\n          jump\t// out\n            /* \"#utility.yul\":1176:1266   */\n        tag_150:\n            /* \"#utility.yul\":1210:1217   */\n          0x00\n            /* \"#utility.yul\":1253:1258   */\n          dup2\n            /* \"#utility.yul\":1246:1259   */\n          iszero\n            /* \"#utility.yul\":1239:1260   */\n          iszero\n            /* \"#utility.yul\":1228:1260   */\n          swap1\n          pop\n            /* \"#utility.yul\":1176:1266   */\n          swap2\n          swap1\n          pop\n          jump\t// out\n            /* \"#utility.yul\":1272:1388   */\n        tag_151:\n            /* \"#utility.yul\":1342:1363   */\n          tag_201\n            /* \"#utility.yul\":1357:1362   */\n          dup2\n            /* \"#utility.yul\":1342:1363   */\n          tag_150\n          jump\t// in\n        tag_201:\n            /* \"#utility.yul\":1335:1340   */\n          dup2\n            /* \"#utility.yul\":1332:1364   */\n          eq\n            /* \"#utility.yul\":1322:1382   */\n          tag_202\n          jumpi\n            /* \"#utility.yul\":1378:1379   */\n          0x00\n            /* \"#utility.yul\":1375:1376   */\n          dup1\n            /* \"#utility.yul\":1368:1380   */\n          revert\n            /* \"#utility.yul\":1322:1382   */\n        tag_202:\n            /* \"#utility.yul\":1272:1388   */\n          pop\n          jump\t// out\n            /* \"#utility.yul\":1394:1527   */\n        tag_152:\n            /* \"#utility.yul\":1437:1442   */\n          0x00\n            /* \"#utility.yul\":1475:1481   */\n          dup2\n            /* \"#utility.yul\":1462:1482   */\n          calldataload\n            /* \"#utility.yul\":1453:1482   */\n          swap1\n          pop\n            /* \"#utility.yul\":1491:1521   */\n          tag_204\n            /* \"#utility.yul\":1515:1520   */\n          dup2\n            /* \"#utility.yul\":1491:1521   */\n          tag_151\n          jump\t// in\n        tag_204:\n            /* \"#utility.yul\":1394:1527   */\n          swap3\n          swap2\n          pop\n          pop\n          jump\t// out\n            /* \"#utility.yul\":1533:2001   */\n        tag_21:\n            /* \"#utility.yul\":1598:1604   */\n          0x00\n            /* \"#utility.yul\":1606:1612   */\n          dup1\n            /* \"#utility.yul\":1655:1657   */\n          0x40\n            /* \"#utility.yul\":1643:1652   */\n          dup4\n            /* \"#utility.yul\":1634:1641   */\n          dup6\n            /* \"#utility.yul\":1630:1653   */\n          sub\n            /* \"#utility.yul\":1626:1658   */\n          slt\n            /* \"#utility.yul\":1623:1742   */\n          iszero\n          tag_206\n          jumpi\n            /* \"#utility.yul\":1661:1740   */\n          tag_207\n          tag_144\n          jump\t// in\n        tag_207:\n            /* \"#utility.yul\":1623:1742   */\n        tag_206:\n            /* \"#utility.yul\":1781:1782   */\n          0x00\n            /* \"#utility.yul\":1806:1859   */\n          tag_208\n            /* \"#utility.yul\":1851:1858   */\n          dup6\n            /* \"#utility.yul\":1842:1848   */\n          dup3\n            /* \"#utility.yul\":1831:1840   */\n          dup7\n            /* \"#utility.yul\":1827:1849   */\n          add\n            /* \"#utility.yul\":1806:1859   */\n          tag_149\n          jump\t// in\n        tag_208:\n            /* \"#utility.yul\":1796:1859   */\n          swap3\n          pop\n            /* \"#utility.yul\":1752:1869   */\n          pop\n            /* \"#utility.yul\":1908:1910   */\n          0x20\n            /* \"#utility.yul\":1934:1984   */\n          tag_209\n            /* \"#utility.yul\":1976:1983   */\n          dup6\n            /* \"#utility.yul\":1967:1973   */\n          dup3\n            /* \"#utility.yul\":1956:1965   */\n          dup7\n            /* \"#utility.yul\":1952:1974   */\n          add\n            /* \"#utility.yul\":1934:1984   */\n          tag_152\n          jump\t// in\n        tag_209:\n            /* \"#utility.yul\":1924:1984   */\n          swap2\n          pop\n            /* \"#utility.yul\":1879:1994   */\n          pop\n            /* \"#utility.yul\":1533:2001   */\n          swap3\n          pop\n          swap3\n          swap1\n          pop\n          jump\t// out\n            /* \"#utility.yul\":2007:2084   */\n        tag_153:\n            /* \"#utility.yul\":2044:2051   */\n          0x00\n            /* \"#utility.yul\":2073:2078   */\n          dup2\n            /* \"#utility.yul\":2062:2078   */\n          swap1\n          pop\n            /* \"#utility.yul\":2007:2084   */\n          swap2\n          swap1\n          pop\n          jump\t// out\n            /* \"#utility.yul\":2090:2208   */\n        tag_154:\n            /* \"#utility.yul\":2177:2201   */\n          tag_212\n            /* \"#utility.yul\":2195:2200   */\n          dup2\n            /* \"#utility.yul\":2177:2201   */\n          tag_153\n          jump\t// in\n        tag_212:\n            /* \"#utility.yul\":2172:2175   */\n          dup3\n            /* \"#utility.yul\":2165:2202   */\n          mstore\n            /* \"#utility.yul\":2090:2208   */\n          pop\n          pop\n          jump\t// out\n            /* \"#utility.yul\":2214:2436   */\n        tag_26:\n            /* \"#utility.yul\":2307:2311   */\n          0x00\n            /* \"#utility.yul\":2345:2347   */\n          0x20\n            /* \"#utility.yul\":2334:2343   */\n          dup3\n            /* \"#utility.yul\":2330:2348   */\n          add\n            /* \"#utility.yul\":2322:2348   */\n          swap1\n          pop\n            /* \"#utility.yul\":2358:2429   */\n          tag_214\n            /* \"#utility.yul\":2426:2427   */\n          0x00\n            /* \"#utility.yul\":2415:2424   */\n          dup4\n            /* \"#utility.yul\":2411:2428   */\n          add\n            /* \"#utility.yul\":2402:2408   */\n          dup5\n            /* \"#utility.yul\":2358:2429   */\n          tag_154\n          jump\t// in\n        tag_214:\n            /* \"#utility.yul\":2214:2436   */\n          swap3\n          swap2\n          pop\n          pop\n          jump\t// out\n            /* \"#utility.yul\":2442:2564   */\n        tag_155:\n            /* \"#utility.yul\":2515:2539   */\n          tag_216\n            /* \"#utility.yul\":2533:2538   */\n          dup2\n            /* \"#utility.yul\":2515:2539   */\n          tag_153\n          jump\t// in\n        tag_216:\n            /* \"#utility.yul\":2508:2513   */\n          dup2\n            /* \"#utility.yul\":2505:2540   */\n          eq\n            /* \"#utility.yul\":2495:2558   */\n          tag_217\n          jumpi\n            /* \"#utility.yul\":2554:2555   */\n          0x00\n            /* \"#utility.yul\":2551:2552   */\n          dup1\n            /* \"#utility.yul\":2544:2556   */\n          revert\n            /* \"#utility.yul\":2495:2558   */\n        tag_217:\n            /* \"#utility.yul\":2442:2564   */\n          pop\n          jump\t// out\n            /* \"#utility.yul\":2570:2709   */\n        tag_156:\n            /* \"#utility.yul\":2616:2621   */\n          0x00\n            /* \"#utility.yul\":2654:2660   */\n          dup2\n            /* \"#utility.yul\":2641:2661   */\n          calldataload\n            /* \"#utility.yul\":2632:2661   */\n          swap1\n          pop\n            /* \"#utility.yul\":2670:2703   */\n          tag_219\n            /* \"#utility.yul\":2697:2702   */\n          dup2\n            /* \"#utility.yul\":2670:2703   */\n          tag_155\n          jump\t// in\n        tag_219:\n            /* \"#utility.yul\":2570:2709   */\n          swap3\n          swap2\n          pop\n          pop\n          jump\t// out\n            /* \"#utility.yul\":2715:3334   */\n        tag_29:\n            /* \"#utility.yul\":2792:2798   */\n          0x00\n            /* \"#utility.yul\":2800:2806   */\n          dup1\n            /* \"#utility.yul\":2808:2814   */\n          0x00\n            /* \"#utility.yul\":2857:2859   */\n          0x60\n            /* \"#utility.yul\":2845:2854   */\n          dup5\n            /* \"#utility.yul\":2836:2843   */\n          dup7\n            /* \"#utility.yul\":2832:2855   */\n          sub\n            /* \"#utility.yul\":2828:2860   */\n          slt\n            /* \"#utility.yul\":2825:2944   */\n          iszero\n          tag_221\n          jumpi\n            /* \"#utility.yul\":2863:2942   */\n          tag_222\n          tag_144\n          jump\t// in\n        tag_222:\n            /* \"#utility.yul\":2825:2944   */\n        tag_221:\n            /* \"#utility.yul\":2983:2984   */\n          0x00\n            /* \"#utility.yul\":3008:3061   */\n          tag_223\n            /* \"#utility.yul\":3053:3060   */\n          dup7\n            /* \"#utility.yul\":3044:3050   */\n          dup3\n            /* \"#utility.yul\":3033:3042   */\n          dup8\n            /* \"#utility.yul\":3029:3051   */\n          add\n            /* \"#utility.yul\":3008:3061   */\n          tag_149\n          jump\t// in\n        tag_223:\n            /* \"#utility.yul\":2998:3061   */\n          swap4\n          pop\n            /* \"#utility.yul\":2954:3071   */\n          pop\n            /* \"#utility.yul\":3110:3112   */\n          0x20\n            /* \"#utility.yul\":3136:3189   */\n          tag_224\n            /* \"#utility.yul\":3181:3188   */\n          dup7\n            /* \"#utility.yul\":3172:3178   */\n          dup3\n            /* \"#utility.yul\":3161:3170   */\n          dup8\n            /* \"#utility.yul\":3157:3179   */\n          add\n            /* \"#utility.yul\":3136:3189   */\n          tag_149\n          jump\t// in\n        tag_224:\n            /* \"#utility.yul\":3126:3189   */\n          swap3\n          pop\n            /* \"#utility.yul\":3081:3199   */\n          pop\n            /* \"#utility.yul\":3238:3240   */\n          0x40\n            /* \"#utility.yul\":3264:3317   */\n          tag_225\n            /* \"#utility.yul\":3309:3316   */\n          dup7\n            /* \"#utility.yul\":3300:3306   */\n          dup3\n            /* \"#utility.yul\":3289:3298   */\n          dup8\n            /* \"#utility.yul\":3285:3307   */\n          add\n            /* \"#utility.yul\":3264:3317   */\n          tag_156\n          jump\t// in\n        tag_225:\n            /* \"#utility.yul\":3254:3317   */\n          swap2\n          pop\n            /* \"#utility.yul\":3209:3327   */\n          pop\n            /* \"#utility.yul\":2715:3334   */\n          swap3\n          pop\n          swap3\n          pop\n          swap3\n          jump\t// out\n            /* \"#utility.yul\":3340:3814   */\n        tag_33:\n            /* \"#utility.yul\":3408:3414   */\n          0x00\n            /* \"#utility.yul\":3416:3422   */\n          dup1\n            /* \"#utility.yul\":3465:3467   */\n          0x40\n            /* \"#utility.yul\":3453:3462   */\n          dup4\n            /* \"#utility.yul\":3444:3451   */\n          dup6\n            /* \"#utility.yul\":3440:3463   */\n          sub\n            /* \"#utility.yul\":3436:3468   */\n          slt\n            /* \"#utility.yul\":3433:3552   */\n          iszero\n          tag_227\n          jumpi\n            /* \"#utility.yul\":3471:3550   */\n          tag_228\n          tag_144\n          jump\t// in\n        tag_228:\n            /* \"#utility.yul\":3433:3552   */\n        tag_227:\n            /* \"#utility.yul\":3591:3592   */\n          0x00\n            /* \"#utility.yul\":3616:3669   */\n          tag_229\n            /* \"#utility.yul\":3661:3668   */\n          dup6\n            /* \"#utility.yul\":3652:3658   */\n          dup3\n            /* \"#utility.yul\":3641:3650   */\n          dup7\n            /* \"#utility.yul\":3637:3659   */\n          add\n            /* \"#utility.yul\":3616:3669   */\n          tag_149\n          jump\t// in\n        tag_229:\n            /* \"#utility.yul\":3606:3669   */\n          swap3\n          pop\n            /* \"#utility.yul\":3562:3679   */\n          pop\n            /* \"#utility.yul\":3718:3720   */\n          0x20\n            /* \"#utility.yul\":3744:3797   */\n          tag_230\n            /* \"#utility.yul\":3789:3796   */\n          dup6\n            /* \"#utility.yul\":3780:3786   */\n          dup3\n            /* \"#utility.yul\":3769:3778   */\n          dup7\n            /* \"#utility.yul\":3765:3787   */\n          add\n            /* \"#utility.yul\":3744:3797   */\n          tag_156\n          jump\t// in\n        tag_230:\n            /* \"#utility.yul\":3734:3797   */\n          swap2\n          pop\n            /* \"#utility.yul\":3689:3807   */\n          pop\n            /* \"#utility.yul\":3340:3814   */\n          swap3\n          pop\n          swap3\n          swap1\n          pop\n          jump\t// out\n            /* \"#utility.yul\":3820:3938   */\n        tag_157:\n            /* \"#utility.yul\":3907:3931   */\n          tag_232\n            /* \"#utility.yul\":3925:3930   */\n          dup2\n            /* \"#utility.yul\":3907:3931   */\n          tag_147\n          jump\t// in\n        tag_232:\n            /* \"#utility.yul\":3902:3905   */\n          dup3\n            /* \"#utility.yul\":3895:3932   */\n          mstore\n            /* \"#utility.yul\":3820:3938   */\n          pop\n          pop\n          jump\t// out\n            /* \"#utility.yul\":3944:4166   */\n        tag_38:\n            /* \"#utility.yul\":4037:4041   */\n          0x00\n            /* \"#utility.yul\":4075:4077   */\n          0x20\n            /* \"#utility.yul\":4064:4073   */\n          dup3\n            /* \"#utility.yul\":4060:4078   */\n          add\n            /* \"#utility.yul\":4052:4078   */\n          swap1\n          pop\n            /* \"#utility.yul\":4088:4159   */\n          tag_234\n            /* \"#utility.yul\":4156:4157   */\n          0x00\n            /* \"#utility.yul\":4145:4154   */\n          dup4\n            /* \"#utility.yul\":4141:4158   */\n          add\n            /* \"#utility.yul\":4132:4138   */\n          dup5\n            /* \"#utility.yul\":4088:4159   */\n          tag_157\n          jump\t// in\n        tag_234:\n            /* \"#utility.yul\":3944:4166   */\n          swap3\n          swap2\n          pop\n          pop\n          jump\t// out\n            /* \"#utility.yul\":4172:4281   */\n        tag_158:\n            /* \"#utility.yul\":4253:4274   */\n          tag_236\n            /* \"#utility.yul\":4268:4273   */\n          dup2\n            /* \"#utility.yul\":4253:4274   */\n          tag_150\n          jump\t// in\n        tag_236:\n            /* \"#utility.yul\":4248:4251   */\n          dup3\n            /* \"#utility.yul\":4241:4275   */\n          mstore\n            /* \"#utility.yul\":4172:4281   */\n          pop\n          pop\n          jump\t// out\n            /* \"#utility.yul\":4287:4497   */\n        tag_56:\n            /* \"#utility.yul\":4374:4378   */\n          0x00\n            /* \"#utility.yul\":4412:4414   */\n          0x20\n            /* \"#utility.yul\":4401:4410   */\n          dup3\n            /* \"#utility.yul\":4397:4415   */\n          add\n            /* \"#utility.yul\":4389:4415   */\n          swap1\n          pop\n            /* \"#utility.yul\":4425:4490   */\n          tag_238\n            /* \"#utility.yul\":4487:4488   */\n          0x00\n            /* \"#utility.yul\":4476:4485   */\n          dup4\n            /* \"#utility.yul\":4472:4489   */\n          add\n            /* \"#utility.yul\":4463:4469   */\n          dup5\n            /* \"#utility.yul\":4425:4490   */\n          tag_158\n          jump\t// in\n        tag_238:\n            /* \"#utility.yul\":4287:4497   */\n          swap3\n          swap2\n          pop\n          pop\n          jump\t// out\n            /* \"#utility.yul\":4503:4672   */\n        tag_159:\n            /* \"#utility.yul\":4587:4598   */\n          0x00\n            /* \"#utility.yul\":4621:4627   */\n          dup3\n            /* \"#utility.yul\":4616:4619   */\n          dup3\n            /* \"#utility.yul\":4609:4628   */\n          mstore\n            /* \"#utility.yul\":4661:4665   */\n          0x20\n            /* \"#utility.yul\":4656:4659   */\n          dup3\n            /* \"#utility.yul\":4652:4666   */\n          add\n            /* \"#utility.yul\":4637:4666   */\n          swap1\n          pop\n            /* \"#utility.yul\":4503:4672   */\n          swap3\n          swap2\n          pop\n          pop\n          jump\t// out\n            /* \"#utility.yul\":4678:4852   */\n        tag_160:\n            /* \"#utility.yul\":4818:4844   */\n          0x596f75206d75737420626520746865206f70657261746f720000000000000000\n            /* \"#utility.yul\":4814:4815   */\n          0x00\n            /* \"#utility.yul\":4806:4812   */\n          dup3\n            /* \"#utility.yul\":4802:4816   */\n          add\n            /* \"#utility.yul\":4795:4845   */\n          mstore\n            /* \"#utility.yul\":4678:4852   */\n          pop\n          jump\t// out\n            /* \"#utility.yul\":4858:5224   */\n        tag_161:\n            /* \"#utility.yul\":5000:5003   */\n          0x00\n            /* \"#utility.yul\":5021:5088   */\n          tag_242\n            /* \"#utility.yul\":5085:5087   */\n          0x18\n            /* \"#utility.yul\":5080:5083   */\n          dup4\n            /* \"#utility.yul\":5021:5088   */\n          tag_159\n          jump\t// in\n        tag_242:\n            /* \"#utility.yul\":5014:5088   */\n          swap2\n          pop\n            /* \"#utility.yul\":5097:5190   */\n          tag_243\n            /* \"#utility.yul\":5186:5189   */\n          dup3\n            /* \"#utility.yul\":5097:5190   */\n          tag_160\n          jump\t// in\n        tag_243:\n            /* \"#utility.yul\":5215:5217   */\n          0x20\n            /* \"#utility.yul\":5210:5213   */\n          dup3\n            /* \"#utility.yul\":5206:5218   */\n          add\n            /* \"#utility.yul\":5199:5218   */\n          swap1\n          pop\n            /* \"#utility.yul\":4858:5224   */\n          swap2\n          swap1\n          pop\n          jump\t// out\n            /* \"#utility.yul\":5230:5649   */\n        tag_60:\n            /* \"#utility.yul\":5396:5400   */\n          0x00\n            /* \"#utility.yul\":5434:5436   */\n          0x20\n            /* \"#utility.yul\":5423:5432   */\n          dup3\n            /* \"#utility.yul\":5419:5437   */\n          add\n            /* \"#utility.yul\":5411:5437   */\n          swap1\n          pop\n            /* \"#utility.yul\":5483:5492   */\n          dup2\n            /* \"#utility.yul\":5477:5481   */\n          dup2\n            /* \"#utility.yul\":5473:5493   */\n          sub\n            /* \"#utility.yul\":5469:5470   */\n          0x00\n            /* \"#utility.yul\":5458:5467   */\n          dup4\n            /* \"#utility.yul\":5454:5471   */\n          add\n            /* \"#utility.yul\":5447:5494   */\n          mstore\n            /* \"#utility.yul\":5511:5642   */\n          tag_245\n            /* \"#utility.yul\":5637:5641   */\n          dup2\n            /* \"#utility.yul\":5511:5642   */\n          tag_161\n          jump\t// in\n        tag_245:\n            /* \"#utility.yul\":5503:5642   */\n          swap1\n          pop\n            /* \"#utility.yul\":5230:5649   */\n          swap2\n          swap1\n          pop\n          jump\t// out\n            /* \"#utility.yul\":5655:5837   */\n        tag_162:\n            /* \"#utility.yul\":5795:5829   */\n          0x43616e6e6f74206d696e7420746f20746865207a65726f20616464726573732e\n            /* \"#utility.yul\":5791:5792   */\n          0x00\n            /* \"#utility.yul\":5783:5789   */\n          dup3\n            /* \"#utility.yul\":5779:5793   */\n          add\n            /* \"#utility.yul\":5772:5830   */\n          mstore\n            /* \"#utility.yul\":5655:5837   */\n          pop\n          jump\t// out\n            /* \"#utility.yul\":5843:6209   */\n        tag_163:\n            /* \"#utility.yul\":5985:5988   */\n          0x00\n            /* \"#utility.yul\":6006:6073   */\n          tag_248\n            /* \"#utility.yul\":6070:6072   */\n          0x20\n            /* \"#utility.yul\":6065:6068   */\n          dup4\n            /* \"#utility.yul\":6006:6073   */\n          tag_159\n          jump\t// in\n        tag_248:\n            /* \"#utility.yul\":5999:6073   */\n          swap2\n          pop\n            /* \"#utility.yul\":6082:6175   */\n          tag_249\n            /* \"#utility.yul\":6171:6174   */\n          dup3\n            /* \"#utility.yul\":6082:6175   */\n          tag_162\n          jump\t// in\n        tag_249:\n            /* \"#utility.yul\":6200:6202   */\n          0x20\n            /* \"#utility.yul\":6195:6198   */\n          dup3\n            /* \"#utility.yul\":6191:6203   */\n          add\n            /* \"#utility.yul\":6184:6203   */\n          swap1\n          pop\n            /* \"#utility.yul\":5843:6209   */\n          swap2\n          swap1\n          pop\n          jump\t// out\n            /* \"#utility.yul\":6215:6634   */\n        tag_81:\n            /* \"#utility.yul\":6381:6385   */\n          0x00\n            /* \"#utility.yul\":6419:6421   */\n          0x20\n            /* \"#utility.yul\":6408:6417   */\n          dup3\n            /* \"#utility.yul\":6404:6422   */\n          add\n            /* \"#utility.yul\":6396:6422   */\n          swap1\n          pop\n            /* \"#utility.yul\":6468:6477   */\n          dup2\n            /* \"#utility.yul\":6462:6466   */\n          dup2\n            /* \"#utility.yul\":6458:6478   */\n          sub\n            /* \"#utility.yul\":6454:6455   */\n          0x00\n            /* \"#utility.yul\":6443:6452   */\n          dup4\n            /* \"#utility.yul\":6439:6456   */\n          add\n            /* \"#utility.yul\":6432:6479   */\n          mstore\n            /* \"#utility.yul\":6496:6627   */\n          tag_251\n            /* \"#utility.yul\":6622:6626   */\n          dup2\n            /* \"#utility.yul\":6496:6627   */\n          tag_163\n          jump\t// in\n        tag_251:\n            /* \"#utility.yul\":6488:6627   */\n          swap1\n          pop\n            /* \"#utility.yul\":6215:6634   */\n          swap2\n          swap1\n          pop\n          jump\t// out\n            /* \"#utility.yul\":6640:6822   */\n        tag_164:\n            /* \"#utility.yul\":6780:6814   */\n          0x43616e6e6f74206275726e20746f20746865207a65726f20616464726573732e\n            /* \"#utility.yul\":6776:6777   */\n          0x00\n            /* \"#utility.yul\":6768:6774   */\n          dup3\n            /* \"#utility.yul\":6764:6778   */\n          add\n            /* \"#utility.yul\":6757:6815   */\n          mstore\n            /* \"#utility.yul\":6640:6822   */\n          pop\n          jump\t// out\n            /* \"#utility.yul\":6828:7194   */\n        tag_165:\n            /* \"#utility.yul\":6970:6973   */\n          0x00\n            /* \"#utility.yul\":6991:7058   */\n          tag_254\n            /* \"#utility.yul\":7055:7057   */\n          0x20\n            /* \"#utility.yul\":7050:7053   */\n          dup4\n            /* \"#utility.yul\":6991:7058   */\n          tag_159\n          jump\t// in\n        tag_254:\n            /* \"#utility.yul\":6984:7058   */\n          swap2\n          pop\n            /* \"#utility.yul\":7067:7160   */\n          tag_255\n            /* \"#utility.yul\":7156:7159   */\n          dup3\n            /* \"#utility.yul\":7067:7160   */\n          tag_164\n          jump\t// in\n        tag_255:\n            /* \"#utility.yul\":7185:7187   */\n          0x20\n            /* \"#utility.yul\":7180:7183   */\n          dup3\n            /* \"#utility.yul\":7176:7188   */\n          add\n            /* \"#utility.yul\":7169:7188   */\n          swap1\n          pop\n            /* \"#utility.yul\":6828:7194   */\n          swap2\n          swap1\n          pop\n          jump\t// out\n            /* \"#utility.yul\":7200:7619   */\n        tag_90:\n            /* \"#utility.yul\":7366:7370   */\n          0x00\n            /* \"#utility.yul\":7404:7406   */\n          0x20\n            /* \"#utility.yul\":7393:7402   */\n          dup3\n            /* \"#utility.yul\":7389:7407   */\n          add\n            /* \"#utility.yul\":7381:7407   */\n          swap1\n          pop\n            /* \"#utility.yul\":7453:7462   */\n          dup2\n            /* \"#utility.yul\":7447:7451   */\n          dup2\n            /* \"#utility.yul\":7443:7463   */\n          sub\n            /* \"#utility.yul\":7439:7440   */\n          0x00\n            /* \"#utility.yul\":7428:7437   */\n          dup4\n            /* \"#utility.yul\":7424:7441   */\n          add\n            /* \"#utility.yul\":7417:7464   */\n          mstore\n            /* \"#utility.yul\":7481:7612   */\n          tag_257\n            /* \"#utility.yul\":7607:7611   */\n          dup2\n            /* \"#utility.yul\":7481:7612   */\n          tag_165\n          jump\t// in\n        tag_257:\n            /* \"#utility.yul\":7473:7612   */\n          swap1\n          pop\n            /* \"#utility.yul\":7200:7619   */\n          swap2\n          swap1\n          pop\n          jump\t// out\n            /* \"#utility.yul\":7625:7848   */\n        tag_166:\n            /* \"#utility.yul\":7765:7799   */\n          0x4f70657261746f722063616e6e6f74206368616e676520706172746963697061\n            /* \"#utility.yul\":7761:7762   */\n          0x00\n            /* \"#utility.yul\":7753:7759   */\n          dup3\n            /* \"#utility.yul\":7749:7763   */\n          add\n            /* \"#utility.yul\":7742:7800   */\n          mstore\n            /* \"#utility.yul\":7834:7840   */\n          0x74696f6e00000000000000000000000000000000000000000000000000000000\n            /* \"#utility.yul\":7829:7831   */\n          0x20\n            /* \"#utility.yul\":7821:7827   */\n          dup3\n            /* \"#utility.yul\":7817:7832   */\n          add\n            /* \"#utility.yul\":7810:7841   */\n          mstore\n            /* \"#utility.yul\":7625:7848   */\n          pop\n          jump\t// out\n            /* \"#utility.yul\":7854:8220   */\n        tag_167:\n            /* \"#utility.yul\":7996:7999   */\n          0x00\n            /* \"#utility.yul\":8017:8084   */\n          tag_260\n            /* \"#utility.yul\":8081:8083   */\n          0x24\n            /* \"#utility.yul\":8076:8079   */\n          dup4\n            /* \"#utility.yul\":8017:8084   */\n          tag_159\n          jump\t// in\n        tag_260:\n            /* \"#utility.yul\":8010:8084   */\n          swap2\n          pop\n            /* \"#utility.yul\":8093:8186   */\n          tag_261\n            /* \"#utility.yul\":8182:8185   */\n          dup3\n            /* \"#utility.yul\":8093:8186   */\n          tag_166\n          jump\t// in\n        tag_261:\n            /* \"#utility.yul\":8211:8213   */\n          0x40\n            /* \"#utility.yul\":8206:8209   */\n          dup3\n            /* \"#utility.yul\":8202:8214   */\n          add\n            /* \"#utility.yul\":8195:8214   */\n          swap1\n          pop\n            /* \"#utility.yul\":7854:8220   */\n          swap2\n          swap1\n          pop\n          jump\t// out\n            /* \"#utility.yul\":8226:8645   */\n        tag_107:\n            /* \"#utility.yul\":8392:8396   */\n          0x00\n            /* \"#utility.yul\":8430:8432   */\n          0x20\n            /* \"#utility.yul\":8419:8428   */\n          dup3\n            /* \"#utility.yul\":8415:8433   */\n          add\n            /* \"#utility.yul\":8407:8433   */\n          swap1\n          pop\n            /* \"#utility.yul\":8479:8488   */\n          dup2\n            /* \"#utility.yul\":8473:8477   */\n          dup2\n            /* \"#utility.yul\":8469:8489   */\n          sub\n            /* \"#utility.yul\":8465:8466   */\n          0x00\n            /* \"#utility.yul\":8454:8463   */\n          dup4\n            /* \"#utility.yul\":8450:8467   */\n          add\n            /* \"#utility.yul\":8443:8490   */\n          mstore\n            /* \"#utility.yul\":8507:8638   */\n          tag_263\n            /* \"#utility.yul\":8633:8637   */\n          dup2\n            /* \"#utility.yul\":8507:8638   */\n          tag_167\n          jump\t// in\n        tag_263:\n            /* \"#utility.yul\":8499:8638   */\n          swap1\n          pop\n            /* \"#utility.yul\":8226:8645   */\n          swap2\n          swap1\n          pop\n          jump\t// out\n            /* \"#utility.yul\":8651:8832   */\n        tag_168:\n            /* \"#utility.yul\":8791:8824   */\n          0x5a65726f20616464726573732063616e6e6f742062652072656d6f7665642e00\n            /* \"#utility.yul\":8787:8788   */\n          0x00\n            /* \"#utility.yul\":8779:8785   */\n          dup3\n            /* \"#utility.yul\":8775:8789   */\n          add\n            /* \"#utility.yul\":8768:8825   */\n          mstore\n            /* \"#utility.yul\":8651:8832   */\n          pop\n          jump\t// out\n            /* \"#utility.yul\":8838:9204   */\n        tag_169:\n            /* \"#utility.yul\":8980:8983   */\n          0x00\n            /* \"#utility.yul\":9001:9068   */\n          tag_266\n            /* \"#utility.yul\":9065:9067   */\n          0x1f\n            /* \"#utility.yul\":9060:9063   */\n          dup4\n            /* \"#utility.yul\":9001:9068   */\n          tag_159\n          jump\t// in\n        tag_266:\n            /* \"#utility.yul\":8994:9068   */\n          swap2\n          pop\n            /* \"#utility.yul\":9077:9170   */\n          tag_267\n            /* \"#utility.yul\":9166:9169   */\n          dup3\n            /* \"#utility.yul\":9077:9170   */\n          tag_168\n          jump\t// in\n        tag_267:\n            /* \"#utility.yul\":9195:9197   */\n          0x20\n            /* \"#utility.yul\":9190:9193   */\n          dup3\n            /* \"#utility.yul\":9186:9198   */\n          add\n            /* \"#utility.yul\":9179:9198   */\n          swap1\n          pop\n            /* \"#utility.yul\":8838:9204   */\n          swap2\n          swap1\n          pop\n          jump\t// out\n            /* \"#utility.yul\":9210:9629   */\n        tag_110:\n            /* \"#utility.yul\":9376:9380   */\n          0x00\n            /* \"#utility.yul\":9414:9416   */\n          0x20\n            /* \"#utility.yul\":9403:9412   */\n          dup3\n            /* \"#utility.yul\":9399:9417   */\n          add\n            /* \"#utility.yul\":9391:9417   */\n          swap1\n          pop\n            /* \"#utility.yul\":9463:9472   */\n          dup2\n            /* \"#utility.yul\":9457:9461   */\n          dup2\n            /* \"#utility.yul\":9453:9473   */\n          sub\n            /* \"#utility.yul\":9449:9450   */\n          0x00\n            /* \"#utility.yul\":9438:9447   */\n          dup4\n            /* \"#utility.yul\":9434:9451   */\n          add\n            /* \"#utility.yul\":9427:9474   */\n          mstore\n            /* \"#utility.yul\":9491:9622   */\n          tag_269\n            /* \"#utility.yul\":9617:9621   */\n          dup2\n            /* \"#utility.yul\":9491:9622   */\n          tag_169\n          jump\t// in\n        tag_269:\n            /* \"#utility.yul\":9483:9622   */\n          swap1\n          pop\n            /* \"#utility.yul\":9210:9629   */\n          swap2\n          swap1\n          pop\n          jump\t// out\n            /* \"#utility.yul\":9635:9868   */\n        tag_170:\n            /* \"#utility.yul\":9775:9809   */\n          0x5061727469636970616e7420616c726561647920686173207b70617274696369\n            /* \"#utility.yul\":9771:9772   */\n          0x00\n            /* \"#utility.yul\":9763:9769   */\n          dup3\n            /* \"#utility.yul\":9759:9773   */\n          add\n            /* \"#utility.yul\":9752:9810   */\n          mstore\n            /* \"#utility.yul\":9844:9860   */\n          0x706174696f6e7d20737461747573000000000000000000000000000000000000\n            /* \"#utility.yul\":9839:9841   */\n          0x20\n            /* \"#utility.yul\":9831:9837   */\n          dup3\n            /* \"#utility.yul\":9827:9842   */\n          add\n            /* \"#utility.yul\":9820:9861   */\n          mstore\n            /* \"#utility.yul\":9635:9868   */\n          pop\n          jump\t// out\n            /* \"#utility.yul\":9874:10240   */\n        tag_171:\n            /* \"#utility.yul\":10016:10019   */\n          0x00\n            /* \"#utility.yul\":10037:10104   */\n          tag_272\n            /* \"#utility.yul\":10101:10103   */\n          0x2e\n            /* \"#utility.yul\":10096:10099   */\n          dup4\n            /* \"#utility.yul\":10037:10104   */\n          tag_159\n          jump\t// in\n        tag_272:\n            /* \"#utility.yul\":10030:10104   */\n          swap2\n          pop\n            /* \"#utility.yul\":10113:10206   */\n          tag_273\n            /* \"#utility.yul\":10202:10205   */\n          dup3\n            /* \"#utility.yul\":10113:10206   */\n          tag_170\n          jump\t// in\n        tag_273:\n            /* \"#utility.yul\":10231:10233   */\n          0x40\n            /* \"#utility.yul\":10226:10229   */\n          dup3\n            /* \"#utility.yul\":10222:10234   */\n          add\n            /* \"#utility.yul\":10215:10234   */\n          swap1\n          pop\n            /* \"#utility.yul\":9874:10240   */\n          swap2\n          swap1\n          pop\n          jump\t// out\n            /* \"#utility.yul\":10246:10665   */\n        tag_113:\n            /* \"#utility.yul\":10412:10416   */\n          0x00\n            /* \"#utility.yul\":10450:10452   */\n          0x20\n            /* \"#utility.yul\":10439:10448   */\n          dup3\n            /* \"#utility.yul\":10435:10453   */\n          add\n            /* \"#utility.yul\":10427:10453   */\n          swap1\n          pop\n            /* \"#utility.yul\":10499:10508   */\n          dup2\n            /* \"#utility.yul\":10493:10497   */\n          dup2\n            /* \"#utility.yul\":10489:10509   */\n          sub\n            /* \"#utility.yul\":10485:10486   */\n          0x00\n            /* \"#utility.yul\":10474:10483   */\n          dup4\n            /* \"#utility.yul\":10470:10487   */\n          add\n            /* \"#utility.yul\":10463:10510   */\n          mstore\n            /* \"#utility.yul\":10527:10658   */\n          tag_275\n            /* \"#utility.yul\":10653:10657   */\n          dup2\n            /* \"#utility.yul\":10527:10658   */\n          tag_171\n          jump\t// in\n        tag_275:\n            /* \"#utility.yul\":10519:10658   */\n          swap1\n          pop\n            /* \"#utility.yul\":10246:10665   */\n          swap2\n          swap1\n          pop\n          jump\t// out\n            /* \"#utility.yul\":10671:10848   */\n        tag_172:\n            /* \"#utility.yul\":10811:10840   */\n          0x53656e646572206973206e6f7420746865206f70657261746f722e0000000000\n            /* \"#utility.yul\":10807:10808   */\n          0x00\n            /* \"#utility.yul\":10799:10805   */\n          dup3\n            /* \"#utility.yul\":10795:10809   */\n          add\n            /* \"#utility.yul\":10788:10841   */\n          mstore\n            /* \"#utility.yul\":10671:10848   */\n          pop\n          jump\t// out\n            /* \"#utility.yul\":10854:11220   */\n        tag_173:\n            /* \"#utility.yul\":10996:10999   */\n          0x00\n            /* \"#utility.yul\":11017:11084   */\n          tag_278\n            /* \"#utility.yul\":11081:11083   */\n          0x1b\n            /* \"#utility.yul\":11076:11079   */\n          dup4\n            /* \"#utility.yul\":11017:11084   */\n          tag_159\n          jump\t// in\n        tag_278:\n            /* \"#utility.yul\":11010:11084   */\n          swap2\n          pop\n            /* \"#utility.yul\":11093:11186   */\n          tag_279\n            /* \"#utility.yul\":11182:11185   */\n          dup3\n            /* \"#utility.yul\":11093:11186   */\n          tag_172\n          jump\t// in\n        tag_279:\n            /* \"#utility.yul\":11211:11213   */\n          0x20\n            /* \"#utility.yul\":11206:11209   */\n          dup3\n            /* \"#utility.yul\":11202:11214   */\n          add\n            /* \"#utility.yul\":11195:11214   */\n          swap1\n          pop\n            /* \"#utility.yul\":10854:11220   */\n          swap2\n          swap1\n          pop\n          jump\t// out\n            /* \"#utility.yul\":11226:11645   */\n        tag_118:\n            /* \"#utility.yul\":11392:11396   */\n          0x00\n            /* \"#utility.yul\":11430:11432   */\n          0x20\n            /* \"#utility.yul\":11419:11428   */\n          dup3\n            /* \"#utility.yul\":11415:11433   */\n          add\n            /* \"#utility.yul\":11407:11433   */\n          swap1\n          pop\n            /* \"#utility.yul\":11479:11488   */\n          dup2\n            /* \"#utility.yul\":11473:11477   */\n          dup2\n            /* \"#utility.yul\":11469:11489   */\n          sub\n            /* \"#utility.yul\":11465:11466   */\n          0x00\n            /* \"#utility.yul\":11454:11463   */\n          dup4\n            /* \"#utility.yul\":11450:11467   */\n          add\n            /* \"#utility.yul\":11443:11490   */\n          mstore\n            /* \"#utility.yul\":11507:11638   */\n          tag_281\n            /* \"#utility.yul\":11633:11637   */\n          dup2\n            /* \"#utility.yul\":11507:11638   */\n          tag_173\n          jump\t// in\n        tag_281:\n            /* \"#utility.yul\":11499:11638   */\n          swap1\n          pop\n            /* \"#utility.yul\":11226:11645   */\n          swap2\n          swap1\n          pop\n          jump\t// out\n            /* \"#utility.yul\":11651:11880   */\n        tag_174:\n            /* \"#utility.yul\":11791:11825   */\n          0x7b746f7d2061646472657373206973206e6f7420616e20616374697665207061\n            /* \"#utility.yul\":11787:11788   */\n          0x00\n            /* \"#utility.yul\":11779:11785   */\n          dup3\n            /* \"#utility.yul\":11775:11789   */\n          add\n            /* \"#utility.yul\":11768:11826   */\n          mstore\n            /* \"#utility.yul\":11860:11872   */\n          0x727469636970616e742e00000000000000000000000000000000000000000000\n            /* \"#utility.yul\":11855:11857   */\n          0x20\n            /* \"#utility.yul\":11847:11853   */\n          dup3\n            /* \"#utility.yul\":11843:11858   */\n          add\n            /* \"#utility.yul\":11836:11873   */\n          mstore\n            /* \"#utility.yul\":11651:11880   */\n          pop\n          jump\t// out\n            /* \"#utility.yul\":11886:12252   */\n        tag_175:\n            /* \"#utility.yul\":12028:12031   */\n          0x00\n            /* \"#utility.yul\":12049:12116   */\n          tag_284\n            /* \"#utility.yul\":12113:12115   */\n          0x2a\n            /* \"#utility.yul\":12108:12111   */\n          dup4\n            /* \"#utility.yul\":12049:12116   */\n          tag_159\n          jump\t// in\n        tag_284:\n            /* \"#utility.yul\":12042:12116   */\n          swap2\n          pop\n            /* \"#utility.yul\":12125:12218   */\n          tag_285\n            /* \"#utility.yul\":12214:12217   */\n          dup3\n            /* \"#utility.yul\":12125:12218   */\n          tag_174\n          jump\t// in\n        tag_285:\n            /* \"#utility.yul\":12243:12245   */\n          0x40\n            /* \"#utility.yul\":12238:12241   */\n          dup3\n            /* \"#utility.yul\":12234:12246   */\n          add\n            /* \"#utility.yul\":12227:12246   */\n          swap1\n          pop\n            /* \"#utility.yul\":11886:12252   */\n          swap2\n          swap1\n          pop\n          jump\t// out\n            /* \"#utility.yul\":12258:12677   */\n        tag_121:\n            /* \"#utility.yul\":12424:12428   */\n          0x00\n            /* \"#utility.yul\":12462:12464   */\n          0x20\n            /* \"#utility.yul\":12451:12460   */\n          dup3\n            /* \"#utility.yul\":12447:12465   */\n          add\n            /* \"#utility.yul\":12439:12465   */\n          swap1\n          pop\n            /* \"#utility.yul\":12511:12520   */\n          dup2\n            /* \"#utility.yul\":12505:12509   */\n          dup2\n            /* \"#utility.yul\":12501:12521   */\n          sub\n            /* \"#utility.yul\":12497:12498   */\n          0x00\n            /* \"#utility.yul\":12486:12495   */\n          dup4\n            /* \"#utility.yul\":12482:12499   */\n          add\n            /* \"#utility.yul\":12475:12522   */\n          mstore\n            /* \"#utility.yul\":12539:12670   */\n          tag_287\n            /* \"#utility.yul\":12665:12669   */\n          dup2\n            /* \"#utility.yul\":12539:12670   */\n          tag_175\n          jump\t// in\n        tag_287:\n            /* \"#utility.yul\":12531:12670   */\n          swap1\n          pop\n            /* \"#utility.yul\":12258:12677   */\n          swap2\n          swap1\n          pop\n          jump\t// out\n            /* \"#utility.yul\":12683:12863   */\n        tag_176:\n            /* \"#utility.yul\":12731:12808   */\n          0x4e487b7100000000000000000000000000000000000000000000000000000000\n            /* \"#utility.yul\":12728:12729   */\n          0x00\n            /* \"#utility.yul\":12721:12809   */\n          mstore\n            /* \"#utility.yul\":12828:12832   */\n          0x11\n            /* \"#utility.yul\":12825:12826   */\n          0x04\n            /* \"#utility.yul\":12818:12833   */\n          mstore\n            /* \"#utility.yul\":12852:12856   */\n          0x24\n            /* \"#utility.yul\":12849:12850   */\n          0x00\n            /* \"#utility.yul\":12842:12857   */\n          revert\n            /* \"#utility.yul\":12869:13174   */\n        tag_124:\n            /* \"#utility.yul\":12909:12912   */\n          0x00\n            /* \"#utility.yul\":12928:12948   */\n          tag_290\n            /* \"#utility.yul\":12946:12947   */\n          dup3\n            /* \"#utility.yul\":12928:12948   */\n          tag_153\n          jump\t// in\n        tag_290:\n            /* \"#utility.yul\":12923:12948   */\n          swap2\n          pop\n            /* \"#utility.yul\":12962:12982   */\n          tag_291\n            /* \"#utility.yul\":12980:12981   */\n          dup4\n            /* \"#utility.yul\":12962:12982   */\n          tag_153\n          jump\t// in\n        tag_291:\n            /* \"#utility.yul\":12957:12982   */\n          swap3\n          pop\n            /* \"#utility.yul\":13116:13117   */\n          dup3\n            /* \"#utility.yul\":13048:13114   */\n          0xffffffffffffffffffffffffffffffffffffffffffffffffffffffffffffffff\n            /* \"#utility.yul\":13044:13118   */\n          sub\n            /* \"#utility.yul\":13041:13042   */\n          dup3\n            /* \"#utility.yul\":13038:13119   */\n          gt\n            /* \"#utility.yul\":13035:13142   */\n          iszero\n          tag_292\n          jumpi\n            /* \"#utility.yul\":13122:13140   */\n          tag_293\n          tag_176\n          jump\t// in\n        tag_293:\n            /* \"#utility.yul\":13035:13142   */\n        tag_292:\n            /* \"#utility.yul\":13166:13167   */\n          dup3\n            /* \"#utility.yul\":13163:13164   */\n          dup3\n            /* \"#utility.yul\":13159:13168   */\n          add\n            /* \"#utility.yul\":13152:13168   */\n          swap1\n          pop\n            /* \"#utility.yul\":12869:13174   */\n          swap3\n          swap2\n          pop\n          pop\n          jump\t// out\n            /* \"#utility.yul\":13180:13371   */\n        tag_128:\n            /* \"#utility.yul\":13220:13224   */\n          0x00\n            /* \"#utility.yul\":13240:13260   */\n          tag_295\n            /* \"#utility.yul\":13258:13259   */\n          dup3\n            /* \"#utility.yul\":13240:13260   */\n          tag_153\n          jump\t// in\n        tag_295:\n            /* \"#utility.yul\":13235:13260   */\n          swap2\n          pop\n            /* \"#utility.yul\":13274:13294   */\n          tag_296\n            /* \"#utility.yul\":13292:13293   */\n          dup4\n            /* \"#utility.yul\":13274:13294   */\n          tag_153\n          jump\t// in\n        tag_296:\n            /* \"#utility.yul\":13269:13294   */\n          swap3\n          pop\n            /* \"#utility.yul\":13313:13314   */\n          dup3\n            /* \"#utility.yul\":13310:13311   */\n          dup3\n            /* \"#utility.yul\":13307:13315   */\n          lt\n            /* \"#utility.yul\":13304:13338   */\n          iszero\n          tag_297\n          jumpi\n            /* \"#utility.yul\":13318:13336   */\n          tag_298\n          tag_176\n          jump\t// in\n        tag_298:\n            /* \"#utility.yul\":13304:13338   */\n        tag_297:\n            /* \"#utility.yul\":13363:13364   */\n          dup3\n            /* \"#utility.yul\":13360:13361   */\n          dup3\n            /* \"#utility.yul\":13356:13365   */\n          sub\n            /* \"#utility.yul\":13348:13365   */\n          swap1\n          pop\n            /* \"#utility.yul\":13180:13371   */\n          swap3\n          swap2\n          pop\n          pop\n          jump\t// out\n            /* \"#utility.yul\":13377:13608   */\n        tag_177:\n            /* \"#utility.yul\":13517:13551   */\n          0x7b66726f6d7d206164647265737320686f6c6473206c65737320455850207468\n            /* \"#utility.yul\":13513:13514   */\n          0x00\n            /* \"#utility.yul\":13505:13511   */\n          dup3\n            /* \"#utility.yul\":13501:13515   */\n          add\n            /* \"#utility.yul\":13494:13552   */\n          mstore\n            /* \"#utility.yul\":13586:13600   */\n          0x616e207b616d6f756e747d2e0000000000000000000000000000000000000000\n            /* \"#utility.yul\":13581:13583   */\n          0x20\n            /* \"#utility.yul\":13573:13579   */\n          dup3\n            /* \"#utility.yul\":13569:13584   */\n          add\n            /* \"#utility.yul\":13562:13601   */\n          mstore\n            /* \"#utility.yul\":13377:13608   */\n          pop\n          jump\t// out\n            /* \"#utility.yul\":13614:13980   */\n        tag_178:\n            /* \"#utility.yul\":13756:13759   */\n          0x00\n            /* \"#utility.yul\":13777:13844   */\n          tag_301\n            /* \"#utility.yul\":13841:13843   */\n          0x2c\n            /* \"#utility.yul\":13836:13839   */\n          dup4\n            /* \"#utility.yul\":13777:13844   */\n          tag_159\n          jump\t// in\n        tag_301:\n            /* \"#utility.yul\":13770:13844   */\n          swap2\n          pop\n            /* \"#utility.yul\":13853:13946   */\n          tag_302\n            /* \"#utility.yul\":13942:13945   */\n          dup3\n            /* \"#utility.yul\":13853:13946   */\n          tag_177\n          jump\t// in\n        tag_302:\n            /* \"#utility.yul\":13971:13973   */\n          0x40\n            /* \"#utility.yul\":13966:13969   */\n          dup3\n            /* \"#utility.yul\":13962:13974   */\n          add\n            /* \"#utility.yul\":13955:13974   */\n          swap1\n          pop\n            /* \"#utility.yul\":13614:13980   */\n          swap2\n          swap1\n          pop\n          jump\t// out\n            /* \"#utility.yul\":13986:14405   */\n        tag_132:\n            /* \"#utility.yul\":14152:14156   */\n          0x00\n            /* \"#utility.yul\":14190:14192   */\n          0x20\n            /* \"#utility.yul\":14179:14188   */\n          dup3\n            /* \"#utility.yul\":14175:14193   */\n          add\n            /* \"#utility.yul\":14167:14193   */\n          swap1\n          pop\n            /* \"#utility.yul\":14239:14248   */\n          dup2\n            /* \"#utility.yul\":14233:14237   */\n          dup2\n            /* \"#utility.yul\":14229:14249   */\n          sub\n            /* \"#utility.yul\":14225:14226   */\n          0x00\n            /* \"#utility.yul\":14214:14223   */\n          dup4\n            /* \"#utility.yul\":14210:14227   */\n          add\n            /* \"#utility.yul\":14203:14250   */\n          mstore\n            /* \"#utility.yul\":14267:14398   */\n          tag_304\n            /* \"#utility.yul\":14393:14397   */\n          dup2\n            /* \"#utility.yul\":14267:14398   */\n          tag_178\n          jump\t// in\n        tag_304:\n            /* \"#utility.yul\":14259:14398   */\n          swap1\n          pop\n            /* \"#utility.yul\":13986:14405   */\n          swap2\n          swap1\n          pop\n          jump\t// out\n            /* \"#utility.yul\":14411:14634   */\n        tag_179:\n            /* \"#utility.yul\":14551:14585   */\n          0x4f70657261746f722063616e6e6f7420626520746865207a65726f2061646472\n            /* \"#utility.yul\":14547:14548   */\n          0x00\n            /* \"#utility.yul\":14539:14545   */\n          dup3\n            /* \"#utility.yul\":14535:14549   */\n          add\n            /* \"#utility.yul\":14528:14586   */\n          mstore\n            /* \"#utility.yul\":14620:14626   */\n          0x6573732e00000000000000000000000000000000000000000000000000000000\n            /* \"#utility.yul\":14615:14617   */\n          0x20\n            /* \"#utility.yul\":14607:14613   */\n          dup3\n            /* \"#utility.yul\":14603:14618   */\n          add\n            /* \"#utility.yul\":14596:14627   */\n          mstore\n            /* \"#utility.yul\":14411:14634   */\n          pop\n          jump\t// out\n            /* \"#utility.yul\":14640:15006   */\n        tag_180:\n            /* \"#utility.yul\":14782:14785   */\n          0x00\n            /* \"#utility.yul\":14803:14870   */\n          tag_307\n            /* \"#utility.yul\":14867:14869   */\n          0x24\n            /* \"#utility.yul\":14862:14865   */\n          dup4\n            /* \"#utility.yul\":14803:14870   */\n          tag_159\n          jump\t// in\n        tag_307:\n            /* \"#utility.yul\":14796:14870   */\n          swap2\n          pop\n            /* \"#utility.yul\":14879:14972   */\n          tag_308\n            /* \"#utility.yul\":14968:14971   */\n          dup3\n            /* \"#utility.yul\":14879:14972   */\n          tag_179\n          jump\t// in\n        tag_308:\n            /* \"#utility.yul\":14997:14999   */\n          0x40\n            /* \"#utility.yul\":14992:14995   */\n          dup3\n            /* \"#utility.yul\":14988:15000   */\n          add\n            /* \"#utility.yul\":14981:15000   */\n          swap1\n          pop\n            /* \"#utility.yul\":14640:15006   */\n          swap2\n          swap1\n          pop\n          jump\t// out\n            /* \"#utility.yul\":15012:15431   */\n        tag_139:\n            /* \"#utility.yul\":15178:15182   */\n          0x00\n            /* \"#utility.yul\":15216:15218   */\n          0x20\n            /* \"#utility.yul\":15205:15214   */\n          dup3\n            /* \"#utility.yul\":15201:15219   */\n          add\n            /* \"#utility.yul\":15193:15219   */\n          swap1\n          pop\n            /* \"#utility.yul\":15265:15274   */\n          dup2\n            /* \"#utility.yul\":15259:15263   */\n          dup2\n            /* \"#utility.yul\":15255:15275   */\n          sub\n            /* \"#utility.yul\":15251:15252   */\n          0x00\n            /* \"#utility.yul\":15240:15249   */\n          dup4\n            /* \"#utility.yul\":15236:15253   */\n          add\n            /* \"#utility.yul\":15229:15276   */\n          mstore\n            /* \"#utility.yul\":15293:15424   */\n          tag_310\n            /* \"#utility.yul\":15419:15423   */\n          dup2\n            /* \"#utility.yul\":15293:15424   */\n          tag_180\n          jump\t// in\n        tag_310:\n            /* \"#utility.yul\":15285:15424   */\n          swap1\n          pop\n            /* \"#utility.yul\":15012:15431   */\n          swap2\n          swap1\n          pop\n          jump\t// out\n            /* \"#utility.yul\":15437:15665   */\n        tag_181:\n            /* \"#utility.yul\":15577:15611   */\n          0x7b616464726573737d20697320616c72656164792061737369676e6564206173\n            /* \"#utility.yul\":15573:15574   */\n          0x00\n            /* \"#utility.yul\":15565:15571   */\n          dup3\n            /* \"#utility.yul\":15561:15575   */\n          add\n            /* \"#utility.yul\":15554:15612   */\n          mstore\n            /* \"#utility.yul\":15646:15657   */\n          0x206f70657261746f720000000000000000000000000000000000000000000000\n            /* \"#utility.yul\":15641:15643   */\n          0x20\n            /* \"#utility.yul\":15633:15639   */\n          dup3\n            /* \"#utility.yul\":15629:15644   */\n          add\n            /* \"#utility.yul\":15622:15658   */\n          mstore\n            /* \"#utility.yul\":15437:15665   */\n          pop\n          jump\t// out\n            /* \"#utility.yul\":15671:16037   */\n        tag_182:\n            /* \"#utility.yul\":15813:15816   */\n          0x00\n            /* \"#utility.yul\":15834:15901   */\n          tag_313\n            /* \"#utility.yul\":15898:15900   */\n          0x29\n            /* \"#utility.yul\":15893:15896   */\n          dup4\n            /* \"#utility.yul\":15834:15901   */\n          tag_159\n          jump\t// in\n        tag_313:\n            /* \"#utility.yul\":15827:15901   */\n          swap2\n          pop\n            /* \"#utility.yul\":15910:16003   */\n          tag_314\n            /* \"#utility.yul\":15999:16002   */\n          dup3\n            /* \"#utility.yul\":15910:16003   */\n          tag_181\n          jump\t// in\n        tag_314:\n            /* \"#utility.yul\":16028:16030   */\n          0x40\n            /* \"#utility.yul\":16023:16026   */\n          dup3\n            /* \"#utility.yul\":16019:16031   */\n          add\n            /* \"#utility.yul\":16012:16031   */\n          swap1\n          pop\n            /* \"#utility.yul\":15671:16037   */\n          swap2\n          swap1\n          pop\n          jump\t// out\n            /* \"#utility.yul\":16043:16462   */\n        tag_142:\n            /* \"#utility.yul\":16209:16213   */\n          0x00\n            /* \"#utility.yul\":16247:16249   */\n          0x20\n            /* \"#utility.yul\":16236:16245   */\n          dup3\n            /* \"#utility.yul\":16232:16250   */\n          add\n            /* \"#utility.yul\":16224:16250   */\n          swap1\n          pop\n            /* \"#utility.yul\":16296:16305   */\n          dup2\n            /* \"#utility.yul\":16290:16294   */\n          dup2\n            /* \"#utility.yul\":16286:16306   */\n          sub\n            /* \"#utility.yul\":16282:16283   */\n          0x00\n            /* \"#utility.yul\":16271:16280   */\n          dup4\n            /* \"#utility.yul\":16267:16284   */\n          add\n            /* \"#utility.yul\":16260:16307   */\n          mstore\n            /* \"#utility.yul\":16324:16455   */\n          tag_316\n            /* \"#utility.yul\":16450:16454   */\n          dup2\n            /* \"#utility.yul\":16324:16455   */\n          tag_182\n          jump\t// in\n        tag_316:\n            /* \"#utility.yul\":16316:16455   */\n          swap1\n          pop\n            /* \"#utility.yul\":16043:16462   */\n          swap2\n          swap1\n          pop\n          jump\t// out\n\n        auxdata: 0xa2646970667358221220dea09ca7e498ae8178bf784ef6b12f46d4fef3bf683cf2099917255dc6058aee64736f6c634300080a0033\n    }\n}\n",
    "bytecode": {
      "linkReferences": {},
      "object": "60a060405234801561001057600080fd5b503373ffffffffffffffffffffffffffffffffffffffff1660808173ffffffffffffffffffffffffffffffffffffffff16815250506000600381905550604051610059906100ba565b604051809103906000f080158015610075573d6000803e3d6000fd5b506000806101000a81548173ffffffffffffffffffffffffffffffffffffffff021916908373ffffffffffffffffffffffffffffffffffffffff1602179055506100c8565b611be08062001e0483390190565b608051611d12620000f26000396000818161055c01528181610adb0152610d270152611d126000f3fe608060405234801561001057600080fd5b50600436106100925760003560e01c80633a51d246116100665780633a51d2461461010d57806359f978011461013d5780636b5f35c21461015b578063d09cdac11461018b578063d6483d17146101a757610092565b8062113e081461009757806305e5e5a3146100b557806309a7a006146100d3578063356eede6146100f1575b600080fd5b61009f6101c3565b6040516100ac919061112a565b60405180910390f35b6100bd610357565b6040516100ca919061123c565b60405180910390f35b6100db610481565b6040516100e891906113b9565b60405180910390f35b61010b6004803603810190610106919061160a565b61055a565b005b61012760048036038101906101229190611653565b610841565b60405161013491906116ab565b60405180910390f35b6101456109d5565b60405161015291906116ab565b60405180910390f35b61017560048036038101906101709190611653565b6109df565b60405161018291906113b9565b60405180910390f35b6101a560048036038101906101a091906116c6565b610ad9565b005b6101c160048036038101906101bc9190611653565b610d25565b005b6060600060028054905067ffffffffffffffff8111156101e6576101e56113f4565b5b6040519080825280602002602001820160405280156102145781602001602082028036833780820191505090505b50905060005b60028054905081101561034f5760008054906101000a900473ffffffffffffffffffffffffffffffffffffffff1673ffffffffffffffffffffffffffffffffffffffff166370a082316001600284815481106102795761027861173e565b5b90600052602060002001604051610290919061186d565b908152602001604051809103902060000160009054906101000a900473ffffffffffffffffffffffffffffffffffffffff166040518263ffffffff1660e01b81526004016102de9190611893565b602060405180830381865afa1580156102fb573d6000803e3d6000fd5b505050506040513d601f19601f8201168201806040525081019061031f91906118da565b8282815181106103325761033161173e565b5b6020026020010181815250508061034890611936565b905061021a565b508091505090565b60606000600280549050905060008167ffffffffffffffff81111561037f5761037e6113f4565b5b6040519080825280602002602001820160405280156103ad5781602001602082028036833780820191505090505b50905060005b82811015610478576001600282815481106103d1576103d061173e565b5b906000526020600020016040516103e8919061186d565b908152602001604051809103902060000160009054906101000a900473ffffffffffffffffffffffffffffffffffffffff1682828151811061042d5761042c61173e565b5b602002602001019073ffffffffffffffffffffffffffffffffffffffff16908173ffffffffffffffffffffffffffffffffffffffff16815250508061047190611936565b90506103b3565b50809250505090565b60606002805480602002602001604051908101604052809291908181526020016000905b828210156105515783829060005260206000200180546104c49061179c565b80601f01602080910402602001604051908101604052809291908181526020018280546104f09061179c565b801561053d5780601f106105125761010080835404028352916020019161053d565b820191906000526020600020905b81548152906001019060200180831161052057829003601f168201915b5050505050815260200190600101906104a5565b50505050905090565b7f000000000000000000000000000000000000000000000000000000000000000073ffffffffffffffffffffffffffffffffffffffff163373ffffffffffffffffffffffffffffffffffffffff16146105e8576040517f08c379a00000000000000000000000000000000000000000000000000000000081526004016105df906119dc565b60405180910390fd5b60005b815181101561083d57600073ffffffffffffffffffffffffffffffffffffffff1660018383815181106106215761062061173e565b5b60200260200101516040516106369190611a2d565b908152602001604051809103902060000160009054906101000a900473ffffffffffffffffffffffffffffffffffffffff1673ffffffffffffffffffffffffffffffffffffffff16141561082c5760008282815181106106995761069861173e565b5b60200260200101516040516020016106b19190611a2d565b6040516020818303038152906040528051906020012060601c90508060018484815181106106e2576106e161173e565b5b60200260200101516040516106f79190611a2d565b908152602001604051809103902060000160006101000a81548173ffffffffffffffffffffffffffffffffffffffff021916908373ffffffffffffffffffffffffffffffffffffffff160217905550600283838151811061075b5761075a61173e565b5b602002602001015190806001815401808255809150506001900390600052602060002001600090919091909150908051906020019061079b929190610fbf565b5060008054906101000a900473ffffffffffffffffffffffffffffffffffffffff1673ffffffffffffffffffffffffffffffffffffffff16630cd8418d8260016040518363ffffffff1660e01b81526004016107f8929190611a5f565b600060405180830381600087803b15801561081257600080fd5b505af1158015610826573d6000803e3d6000fd5b50505050505b8061083690611936565b90506105eb565b5050565b60008073ffffffffffffffffffffffffffffffffffffffff1660018360405161086a9190611a2d565b908152602001604051809103902060000160009054906101000a900473ffffffffffffffffffffffffffffffffffffffff1673ffffffffffffffffffffffffffffffffffffffff1614156108f3576040517f08c379a00000000000000000000000000000000000000000000000000000000081526004016108ea90611ad4565b60405180910390fd5b60008054906101000a900473ffffffffffffffffffffffffffffffffffffffff1673ffffffffffffffffffffffffffffffffffffffff166370a0823160018460405161093f9190611a2d565b908152602001604051809103902060000160009054906101000a900473ffffffffffffffffffffffffffffffffffffffff166040518263ffffffff1660e01b815260040161098d9190611893565b602060405180830381865afa1580156109aa573d6000803e3d6000fd5b505050506040513d601f19601f820116820180604052508101906109ce91906118da565b9050919050565b6000600354905090565b60606001826040516109f19190611a2d565b9081526020016040518091039020600101805480602002602001604051908101604052809291908181526020016000905b82821015610ace578382906000526020600020018054610a419061179c565b80601f0160208091040260200160405190810160405280929190818152602001828054610a6d9061179c565b8015610aba5780601f10610a8f57610100808354040283529160200191610aba565b820191906000526020600020905b815481529060010190602001808311610a9d57829003601f168201915b505050505081526020019060010190610a22565b505050509050919050565b7f000000000000000000000000000000000000000000000000000000000000000073ffffffffffffffffffffffffffffffffffffffff163373ffffffffffffffffffffffffffffffffffffffff1614610b67576040517f08c379a0000000000000000000000000000000000000000000000000000000008152600401610b5e906119dc565b60405180910390fd5b6000600183604051610b799190611a2d565b908152602001604051809103902060000160009054906101000a900473ffffffffffffffffffffffffffffffffffffffff169050600073ffffffffffffffffffffffffffffffffffffffff168173ffffffffffffffffffffffffffffffffffffffff161415610c1d576040517f08c379a0000000000000000000000000000000000000000000000000000000008152600401610c1490611b66565b60405180910390fd5b600183604051610c2d9190611a2d565b908152602001604051809103902060010182908060018154018082558091505060019003906000526020600020016000909190919091509080519060200190610c77929190610fbf565b50600160036000828254610c8b9190611b86565b9250508190555060008054906101000a900473ffffffffffffffffffffffffffffffffffffffff1673ffffffffffffffffffffffffffffffffffffffff166340c10f198260016040518363ffffffff1660e01b8152600401610cee929190611c21565b600060405180830381600087803b158015610d0857600080fd5b505af1158015610d1c573d6000803e3d6000fd5b50505050505050565b7f000000000000000000000000000000000000000000000000000000000000000073ffffffffffffffffffffffffffffffffffffffff163373ffffffffffffffffffffffffffffffffffffffff1614610db3576040517f08c379a0000000000000000000000000000000000000000000000000000000008152600401610daa906119dc565b60405180910390fd5b600073ffffffffffffffffffffffffffffffffffffffff16600182604051610ddb9190611a2d565b908152602001604051809103902060000160009054906101000a900473ffffffffffffffffffffffffffffffffffffffff1673ffffffffffffffffffffffffffffffffffffffff1614610e63576040517f08c379a0000000000000000000000000000000000000000000000000000000008152600401610e5a90611cbc565b60405180910390fd5b600081604051602001610e769190611a2d565b6040516020818303038152906040528051906020012060601c905080600183604051610ea29190611a2d565b908152602001604051809103902060000160006101000a81548173ffffffffffffffffffffffffffffffffffffffff021916908373ffffffffffffffffffffffffffffffffffffffff160217905550600282908060018154018082558091505060019003906000526020600020016000909190919091509080519060200190610f2c929190610fbf565b5060008054906101000a900473ffffffffffffffffffffffffffffffffffffffff1673ffffffffffffffffffffffffffffffffffffffff16630cd8418d8260016040518363ffffffff1660e01b8152600401610f89929190611a5f565b600060405180830381600087803b158015610fa357600080fd5b505af1158015610fb7573d6000803e3d6000fd5b505050505050565b828054610fcb9061179c565b90600052602060002090601f016020900481019282610fed5760008555611034565b82601f1061100657805160ff1916838001178555611034565b82800160010185558215611034579182015b82811115611033578251825591602001919060010190611018565b5b5090506110419190611045565b5090565b5b8082111561105e576000816000905550600101611046565b5090565b600081519050919050565b600082825260208201905092915050565b6000819050602082019050919050565b6000819050919050565b6110a18161108e565b82525050565b60006110b38383611098565b60208301905092915050565b6000602082019050919050565b60006110d782611062565b6110e1818561106d565b93506110ec8361107e565b8060005b8381101561111d57815161110488826110a7565b975061110f836110bf565b9250506001810190506110f0565b5085935050505092915050565b6000602082019050818103600083015261114481846110cc565b905092915050565b600081519050919050565b600082825260208201905092915050565b6000819050602082019050919050565b600073ffffffffffffffffffffffffffffffffffffffff82169050919050565b60006111a382611178565b9050919050565b6111b381611198565b82525050565b60006111c583836111aa565b60208301905092915050565b6000602082019050919050565b60006111e98261114c565b6111f38185611157565b93506111fe83611168565b8060005b8381101561122f57815161121688826111b9565b9750611221836111d1565b925050600181019050611202565b5085935050505092915050565b6000602082019050818103600083015261125681846111de565b905092915050565b600081519050919050565b600082825260208201905092915050565b6000819050602082019050919050565b600081519050919050565b600082825260208201905092915050565b60005b838110156112c45780820151818401526020810190506112a9565b838111156112d3576000848401525b50505050565b6000601f19601f8301169050919050565b60006112f58261128a565b6112ff8185611295565b935061130f8185602086016112a6565b611318816112d9565b840191505092915050565b600061132f83836112ea565b905092915050565b6000602082019050919050565b600061134f8261125e565b6113598185611269565b93508360208202850161136b8561127a565b8060005b858110156113a757848403895281516113888582611323565b945061139383611337565b925060208a0199505060018101905061136f565b50829750879550505050505092915050565b600060208201905081810360008301526113d38184611344565b905092915050565b6000604051905090565b600080fd5b600080fd5b600080fd5b7f4e487b7100000000000000000000000000000000000000000000000000000000600052604160045260246000fd5b61142c826112d9565b810181811067ffffffffffffffff8211171561144b5761144a6113f4565b5b80604052505050565b600061145e6113db565b905061146a8282611423565b919050565b600067ffffffffffffffff82111561148a576114896113f4565b5b602082029050602081019050919050565b600080fd5b600080fd5b600067ffffffffffffffff8211156114c0576114bf6113f4565b5b6114c9826112d9565b9050602081019050919050565b82818337600083830152505050565b60006114f86114f3846114a5565b611454565b905082815260208101848484011115611514576115136114a0565b5b61151f8482856114d6565b509392505050565b600082601f83011261153c5761153b6113ef565b5b813561154c8482602086016114e5565b91505092915050565b60006115686115638461146f565b611454565b9050808382526020820190506020840283018581111561158b5761158a61149b565b5b835b818110156115d257803567ffffffffffffffff8111156115b0576115af6113ef565b5b8086016115bd8982611527565b8552602085019450505060208101905061158d565b5050509392505050565b600082601f8301126115f1576115f06113ef565b5b8135611601848260208601611555565b91505092915050565b6000602082840312156116205761161f6113e5565b5b600082013567ffffffffffffffff81111561163e5761163d6113ea565b5b61164a848285016115dc565b91505092915050565b600060208284031215611669576116686113e5565b5b600082013567ffffffffffffffff811115611687576116866113ea565b5b61169384828501611527565b91505092915050565b6116a58161108e565b82525050565b60006020820190506116c0600083018461169c565b92915050565b600080604083850312156116dd576116dc6113e5565b5b600083013567ffffffffffffffff8111156116fb576116fa6113ea565b5b61170785828601611527565b925050602083013567ffffffffffffffff811115611728576117276113ea565b5b61173485828601611527565b9150509250929050565b7f4e487b7100000000000000000000000000000000000000000000000000000000600052603260045260246000fd5b7f4e487b7100000000000000000000000000000000000000000000000000000000600052602260045260246000fd5b600060028204905060018216806117b457607f821691505b602082108114156117c8576117c761176d565b5b50919050565b600081905092915050565b60008190508160005260206000209050919050565b600081546117fb8161179c565b61180581866117ce565b94506001821660008114611820576001811461183157611864565b60ff19831686528186019350611864565b61183a856117d9565b60005b8381101561185c5781548189015260018201915060208101905061183d565b838801955050505b50505092915050565b600061187982846117ee565b915081905092915050565b61188d81611198565b82525050565b60006020820190506118a86000830184611884565b92915050565b6118b78161108e565b81146118c257600080fd5b50565b6000815190506118d4816118ae565b92915050565b6000602082840312156118f0576118ef6113e5565b5b60006118fe848285016118c5565b91505092915050565b7f4e487b7100000000000000000000000000000000000000000000000000000000600052601160045260246000fd5b60006119418261108e565b91507fffffffffffffffffffffffffffffffffffffffffffffffffffffffffffffffff82141561197457611973611907565b5b600182019050919050565b600082825260208201905092915050565b7f4e6f207469656e6573207065726d69736f730000000000000000000000000000600082015250565b60006119c660128361197f565b91506119d182611990565b602082019050919050565b600060208201905081810360008301526119f5816119b9565b9050919050565b6000611a078261128a565b611a1181856117ce565b9350611a218185602086016112a6565b80840191505092915050565b6000611a3982846119fc565b915081905092915050565b60008115159050919050565b611a5981611a44565b82525050565b6000604082019050611a746000830185611884565b611a816020830184611a50565b9392505050565b7f4c6120656d7072657361206e6f206573746120656e20656c2073697374656d61600082015250565b6000611abe60208361197f565b9150611ac982611a88565b602082019050919050565b60006020820190508181036000830152611aed81611ab1565b9050919050565b7f4e6f206573746120656e20656c2073697374656d61206573746120656d70726560008201527f7361000000000000000000000000000000000000000000000000000000000000602082015250565b6000611b5060228361197f565b9150611b5b82611af4565b604082019050919050565b60006020820190508181036000830152611b7f81611b43565b9050919050565b6000611b918261108e565b9150611b9c8361108e565b9250827fffffffffffffffffffffffffffffffffffffffffffffffffffffffffffffffff03821115611bd157611bd0611907565b5b828201905092915050565b6000819050919050565b6000819050919050565b6000611c0b611c06611c0184611bdc565b611be6565b61108e565b9050919050565b611c1b81611bf0565b82525050565b6000604082019050611c366000830185611884565b611c436020830184611c12565b9392505050565b7f5961206573746120656e20656c2073697374656d61206573746120656d70726560008201527f7361000000000000000000000000000000000000000000000000000000000000602082015250565b6000611ca660228361197f565b9150611cb182611c4a565b604082019050919050565b60006020820190508181036000830152611cd581611c99565b905091905056fea26469706673582212206cef32cbf9e4549db4081f2f82aebe9371f2d1575b735ed9f2d202eb0155852464736f6c634300080a003360806040523480156200001157600080fd5b50600073ffffffffffffffffffffffffffffffffffffffff163373ffffffffffffffffffffffffffffffffffffffff16141562000085576040517f08c379a00000000000000000000000000000000000000000000000000000000081526004016200007c906200029d565b60405180910390fd5b33600360006101000a81548173ffffffffffffffffffffffffffffffffffffffff021916908373ffffffffffffffffffffffffffffffffffffffff1602179055506001806000600360009054906101000a900473ffffffffffffffffffffffffffffffffffffffff1673ffffffffffffffffffffffffffffffffffffffff1673ffffffffffffffffffffffffffffffffffffffff16815260200190815260200160002060006101000a81548160ff021916908315150217905550600160026000600360009054906101000a900473ffffffffffffffffffffffffffffffffffffffff1673ffffffffffffffffffffffffffffffffffffffff1673ffffffffffffffffffffffffffffffffffffffff16815260200190815260200160002060006101000a81548160ff02191690831515021790555060018060008073ffffffffffffffffffffffffffffffffffffffff1673ffffffffffffffffffffffffffffffffffffffff16815260200190815260200160002060006101000a81548160ff021916908315150217905550620002bf565b600082825260208201905092915050565b7f4f70657261746f722063616e6e6f7420626520746865207a65726f206164647260008201527f6573732e00000000000000000000000000000000000000000000000000000000602082015250565b60006200028560248362000216565b9150620002928262000227565b604082019050919050565b60006020820190508181036000830152620002b88162000276565b9050919050565b61191180620002cf6000396000f3fe608060405234801561001057600080fd5b50600436106100a95760003560e01c8063570ca73511610071578063570ca7351461013c57806370a082311461015a5780639dc29fac1461018a578063b3ab15fb146101a6578063d3df65ee146101c2578063f00eaafc146101de576100a9565b8063025c126e146100ae5780630cd8418d146100ca57806318160ddd146100e6578063308b8c001461010457806340c10f1914610120575b600080fd5b6100c860048036038101906100c3919061109d565b61020e565b005b6100e460048036038101906100df9190611102565b610353565b005b6100ee61044b565b6040516100fb919061115b565b60405180910390f35b61011e600480360381019061011991906111a2565b610455565b005b61013a600480360381019061013591906111f5565b6104bd565b005b610144610595565b6040516101519190611244565b60405180910390f35b610174600480360381019061016f919061109d565b6105bf565b604051610181919061115b565b60405180910390f35b6101a4600480360381019061019f91906111f5565b610607565b005b6101c060048036038101906101bb919061109d565b6106df565b005b6101dc60048036038101906101d7919061109d565b61077b565b005b6101f860048036038101906101f3919061109d565b6108c0565b604051610205919061126e565b60405180910390f35b600360009054906101000a900473ffffffffffffffffffffffffffffffffffffffff1673ffffffffffffffffffffffffffffffffffffffff163373ffffffffffffffffffffffffffffffffffffffff161461029e576040517f08c379a0000000000000000000000000000000000000000000000000000000008152600401610295906112e6565b60405180910390fd5b600360009054906101000a900473ffffffffffffffffffffffffffffffffffffffff1673ffffffffffffffffffffffffffffffffffffffff163373ffffffffffffffffffffffffffffffffffffffff16146102f857600080fd5b6001600260008373ffffffffffffffffffffffffffffffffffffffff1673ffffffffffffffffffffffffffffffffffffffff16815260200190815260200160002060006101000a81548160ff02191690831515021790555050565b600360009054906101000a900473ffffffffffffffffffffffffffffffffffffffff1673ffffffffffffffffffffffffffffffffffffffff163373ffffffffffffffffffffffffffffffffffffffff16146103e3576040517f08c379a00000000000000000000000000000000000000000000000000000000081526004016103da906112e6565b60405180910390fd5b600360009054906101000a900473ffffffffffffffffffffffffffffffffffffffff1673ffffffffffffffffffffffffffffffffffffffff163373ffffffffffffffffffffffffffffffffffffffff161461043d57600080fd5b6104478282610916565b5050565b6000600454905090565b33600260008273ffffffffffffffffffffffffffffffffffffffff1673ffffffffffffffffffffffffffffffffffffffff16815260200190815260200160002060009054906101000a900460ff166104ac57600080fd5b6104b7848484610b52565b50505050565b33600260008273ffffffffffffffffffffffffffffffffffffffff1673ffffffffffffffffffffffffffffffffffffffff16815260200190815260200160002060009054906101000a900460ff1661051457600080fd5b600073ffffffffffffffffffffffffffffffffffffffff168373ffffffffffffffffffffffffffffffffffffffff161415610584576040517f08c379a000000000000000000000000000000000000000000000000000000000815260040161057b90611352565b60405180910390fd5b61059060008484610b52565b505050565b6000600360009054906101000a900473ffffffffffffffffffffffffffffffffffffffff16905090565b60008060008373ffffffffffffffffffffffffffffffffffffffff1673ffffffffffffffffffffffffffffffffffffffff168152602001908152602001600020549050919050565b33600260008273ffffffffffffffffffffffffffffffffffffffff1673ffffffffffffffffffffffffffffffffffffffff16815260200190815260200160002060009054906101000a900460ff1661065e57600080fd5b600073ffffffffffffffffffffffffffffffffffffffff168373ffffffffffffffffffffffffffffffffffffffff1614156106ce576040517f08c379a00000000000000000000000000000000000000000000000000000000081526004016106c5906113be565b60405180910390fd5b6106da83600084610b52565b505050565b600360009054906101000a900473ffffffffffffffffffffffffffffffffffffffff1673ffffffffffffffffffffffffffffffffffffffff163373ffffffffffffffffffffffffffffffffffffffff161461076f576040517f08c379a0000000000000000000000000000000000000000000000000000000008152600401610766906112e6565b60405180910390fd5b61077881610eb2565b50565b600360009054906101000a900473ffffffffffffffffffffffffffffffffffffffff1673ffffffffffffffffffffffffffffffffffffffff163373ffffffffffffffffffffffffffffffffffffffff161461080b576040517f08c379a0000000000000000000000000000000000000000000000000000000008152600401610802906112e6565b60405180910390fd5b600360009054906101000a900473ffffffffffffffffffffffffffffffffffffffff1673ffffffffffffffffffffffffffffffffffffffff163373ffffffffffffffffffffffffffffffffffffffff161461086557600080fd5b6000600260008373ffffffffffffffffffffffffffffffffffffffff1673ffffffffffffffffffffffffffffffffffffffff16815260200190815260200160002060006101000a81548160ff02191690831515021790555050565b6000600160008373ffffffffffffffffffffffffffffffffffffffff1673ffffffffffffffffffffffffffffffffffffffff16815260200190815260200160002060009054906101000a900460ff169050919050565b600360009054906101000a900473ffffffffffffffffffffffffffffffffffffffff1673ffffffffffffffffffffffffffffffffffffffff163373ffffffffffffffffffffffffffffffffffffffff16146109a6576040517f08c379a000000000000000000000000000000000000000000000000000000000815260040161099d90611450565b60405180910390fd5b600073ffffffffffffffffffffffffffffffffffffffff168273ffffffffffffffffffffffffffffffffffffffff161415610a16576040517f08c379a0000000000000000000000000000000000000000000000000000000008152600401610a0d906114bc565b60405180910390fd5b801515600160008473ffffffffffffffffffffffffffffffffffffffff1673ffffffffffffffffffffffffffffffffffffffff16815260200190815260200160002060009054906101000a900460ff1615151415610aa9576040517f08c379a0000000000000000000000000000000000000000000000000000000008152600401610aa09061154e565b60405180910390fd5b80600160008473ffffffffffffffffffffffffffffffffffffffff1673ffffffffffffffffffffffffffffffffffffffff16815260200190815260200160002060006101000a81548160ff0219169083151502179055508173ffffffffffffffffffffffffffffffffffffffff167f2c41d9af4701c767a5661c887f466dd2ddfba0572128a2cc04d43bd62344506182604051610b46919061126e565b60405180910390a25050565b600360009054906101000a900473ffffffffffffffffffffffffffffffffffffffff1673ffffffffffffffffffffffffffffffffffffffff163373ffffffffffffffffffffffffffffffffffffffff1614610be2576040517f08c379a0000000000000000000000000000000000000000000000000000000008152600401610bd9906115ba565b60405180910390fd5b60011515600160008473ffffffffffffffffffffffffffffffffffffffff1673ffffffffffffffffffffffffffffffffffffffff16815260200190815260200160002060009054906101000a900460ff16151514610c75576040517f08c379a0000000000000000000000000000000000000000000000000000000008152600401610c6c9061164c565b60405180910390fd5b600073ffffffffffffffffffffffffffffffffffffffff168373ffffffffffffffffffffffffffffffffffffffff161415610cc8578060046000828254610cbc919061169b565b92505081905550610df3565b600073ffffffffffffffffffffffffffffffffffffffff168273ffffffffffffffffffffffffffffffffffffffff161415610d1b578060046000828254610d0f91906116f1565b92505081905550610df2565b806000808573ffffffffffffffffffffffffffffffffffffffff1673ffffffffffffffffffffffffffffffffffffffff168152602001908152602001600020541015610d9c576040517f08c379a0000000000000000000000000000000000000000000000000000000008152600401610d9390611797565b60405180910390fd5b806000808573ffffffffffffffffffffffffffffffffffffffff1673ffffffffffffffffffffffffffffffffffffffff1681526020019081526020016000206000828254610dea91906116f1565b925050819055505b5b806000808473ffffffffffffffffffffffffffffffffffffffff1673ffffffffffffffffffffffffffffffffffffffff1681526020019081526020016000206000828254610e41919061169b565b925050819055508173ffffffffffffffffffffffffffffffffffffffff168373ffffffffffffffffffffffffffffffffffffffff167fddf252ad1be2c89b69c2b068fc378daa952ba7f163c4a11628f55a4df523b3ef83604051610ea5919061115b565b60405180910390a3505050565b600073ffffffffffffffffffffffffffffffffffffffff168173ffffffffffffffffffffffffffffffffffffffff161415610f22576040517f08c379a0000000000000000000000000000000000000000000000000000000008152600401610f1990611829565b60405180910390fd5b8073ffffffffffffffffffffffffffffffffffffffff16600360009054906101000a900473ffffffffffffffffffffffffffffffffffffffff1673ffffffffffffffffffffffffffffffffffffffff161415610fb3576040517f08c379a0000000000000000000000000000000000000000000000000000000008152600401610faa906118bb565b60405180910390fd5b80600360006101000a81548173ffffffffffffffffffffffffffffffffffffffff021916908373ffffffffffffffffffffffffffffffffffffffff1602179055508073ffffffffffffffffffffffffffffffffffffffff167f235b4d5c4596af250d851d446f469c532805433b6138b8c7ad6fcdcd07b9db2760405160405180910390a250565b600080fd5b600073ffffffffffffffffffffffffffffffffffffffff82169050919050565b600061106a8261103f565b9050919050565b61107a8161105f565b811461108557600080fd5b50565b60008135905061109781611071565b92915050565b6000602082840312156110b3576110b261103a565b5b60006110c184828501611088565b91505092915050565b60008115159050919050565b6110df816110ca565b81146110ea57600080fd5b50565b6000813590506110fc816110d6565b92915050565b600080604083850312156111195761111861103a565b5b600061112785828601611088565b9250506020611138858286016110ed565b9150509250929050565b6000819050919050565b61115581611142565b82525050565b6000602082019050611170600083018461114c565b92915050565b61117f81611142565b811461118a57600080fd5b50565b60008135905061119c81611176565b92915050565b6000806000606084860312156111bb576111ba61103a565b5b60006111c986828701611088565b93505060206111da86828701611088565b92505060406111eb8682870161118d565b9150509250925092565b6000806040838503121561120c5761120b61103a565b5b600061121a85828601611088565b925050602061122b8582860161118d565b9150509250929050565b61123e8161105f565b82525050565b60006020820190506112596000830184611235565b92915050565b611268816110ca565b82525050565b6000602082019050611283600083018461125f565b92915050565b600082825260208201905092915050565b7f596f75206d75737420626520746865206f70657261746f720000000000000000600082015250565b60006112d0601883611289565b91506112db8261129a565b602082019050919050565b600060208201905081810360008301526112ff816112c3565b9050919050565b7f43616e6e6f74206d696e7420746f20746865207a65726f20616464726573732e600082015250565b600061133c602083611289565b915061134782611306565b602082019050919050565b6000602082019050818103600083015261136b8161132f565b9050919050565b7f43616e6e6f74206275726e20746f20746865207a65726f20616464726573732e600082015250565b60006113a8602083611289565b91506113b382611372565b602082019050919050565b600060208201905081810360008301526113d78161139b565b9050919050565b7f4f70657261746f722063616e6e6f74206368616e67652070617274696369706160008201527f74696f6e00000000000000000000000000000000000000000000000000000000602082015250565b600061143a602483611289565b9150611445826113de565b604082019050919050565b600060208201905081810360008301526114698161142d565b9050919050565b7f5a65726f20616464726573732063616e6e6f742062652072656d6f7665642e00600082015250565b60006114a6601f83611289565b91506114b182611470565b602082019050919050565b600060208201905081810360008301526114d581611499565b9050919050565b7f5061727469636970616e7420616c726561647920686173207b7061727469636960008201527f706174696f6e7d20737461747573000000000000000000000000000000000000602082015250565b6000611538602e83611289565b9150611543826114dc565b604082019050919050565b600060208201905081810360008301526115678161152b565b9050919050565b7f53656e646572206973206e6f7420746865206f70657261746f722e0000000000600082015250565b60006115a4601b83611289565b91506115af8261156e565b602082019050919050565b600060208201905081810360008301526115d381611597565b9050919050565b7f7b746f7d2061646472657373206973206e6f7420616e2061637469766520706160008201527f727469636970616e742e00000000000000000000000000000000000000000000602082015250565b6000611636602a83611289565b9150611641826115da565b604082019050919050565b6000602082019050818103600083015261166581611629565b9050919050565b7f4e487b7100000000000000000000000000000000000000000000000000000000600052601160045260246000fd5b60006116a682611142565b91506116b183611142565b9250827fffffffffffffffffffffffffffffffffffffffffffffffffffffffffffffffff038211156116e6576116e561166c565b5b828201905092915050565b60006116fc82611142565b915061170783611142565b92508282101561171a5761171961166c565b5b828203905092915050565b7f7b66726f6d7d206164647265737320686f6c6473206c6573732045585020746860008201527f616e207b616d6f756e747d2e0000000000000000000000000000000000000000602082015250565b6000611781602c83611289565b915061178c82611725565b604082019050919050565b600060208201905081810360008301526117b081611774565b9050919050565b7f4f70657261746f722063616e6e6f7420626520746865207a65726f206164647260008201527f6573732e00000000000000000000000000000000000000000000000000000000602082015250565b6000611813602483611289565b915061181e826117b7565b604082019050919050565b6000602082019050818103600083015261184281611806565b9050919050565b7f7b616464726573737d20697320616c72656164792061737369676e656420617360008201527f206f70657261746f720000000000000000000000000000000000000000000000602082015250565b60006118a5602983611289565b91506118b082611849565b604082019050919050565b600060208201905081810360008301526118d481611898565b905091905056fea2646970667358221220dea09ca7e498ae8178bf784ef6b12f46d4fef3bf683cf2099917255dc6058aee64736f6c634300080a0033",
      "opcodes": "PUSH1 0xA0 PUSH1 0x40 MSTORE CALLVALUE DUP1 ISZERO PUSH2 0x10 JUMPI PUSH1 0x0 DUP1 REVERT JUMPDEST POP CALLER PUSH20 0xFFFFFFFFFFFFFFFFFFFFFFFFFFFFFFFFFFFFFFFF AND PUSH1 0x80 DUP2 PUSH20 0xFFFFFFFFFFFFFFFFFFFFFFFFFFFFFFFFFFFFFFFF AND DUP2 MSTORE POP POP PUSH1 0x0 PUSH1 0x3 DUP2 SWAP1 SSTORE POP PUSH1 0x40 MLOAD PUSH2 0x59 SWAP1 PUSH2 0xBA JUMP JUMPDEST PUSH1 0x40 MLOAD DUP1 SWAP2 SUB SWAP1 PUSH1 0x0 CREATE DUP1 ISZERO DUP1 ISZERO PUSH2 0x75 JUMPI RETURNDATASIZE PUSH1 0x0 DUP1 RETURNDATACOPY RETURNDATASIZE PUSH1 0x0 REVERT JUMPDEST POP PUSH1 0x0 DUP1 PUSH2 0x100 EXP DUP2 SLOAD DUP2 PUSH20 0xFFFFFFFFFFFFFFFFFFFFFFFFFFFFFFFFFFFFFFFF MUL NOT AND SWAP1 DUP4 PUSH20 0xFFFFFFFFFFFFFFFFFFFFFFFFFFFFFFFFFFFFFFFF AND MUL OR SWAP1 SSTORE POP PUSH2 0xC8 JUMP JUMPDEST PUSH2 0x1BE0 DUP1 PUSH3 0x1E04 DUP4 CODECOPY ADD SWAP1 JUMP JUMPDEST PUSH1 0x80 MLOAD PUSH2 0x1D12 PUSH3 0xF2 PUSH1 0x0 CODECOPY PUSH1 0x0 DUP2 DUP2 PUSH2 0x55C ADD MSTORE DUP2 DUP2 PUSH2 0xADB ADD MSTORE PUSH2 0xD27 ADD MSTORE PUSH2 0x1D12 PUSH1 0x0 RETURN INVALID PUSH1 0x80 PUSH1 0x40 MSTORE CALLVALUE DUP1 ISZERO PUSH2 0x10 JUMPI PUSH1 0x0 DUP1 REVERT JUMPDEST POP PUSH1 0x4 CALLDATASIZE LT PUSH2 0x92 JUMPI PUSH1 0x0 CALLDATALOAD PUSH1 0xE0 SHR DUP1 PUSH4 0x3A51D246 GT PUSH2 0x66 JUMPI DUP1 PUSH4 0x3A51D246 EQ PUSH2 0x10D JUMPI DUP1 PUSH4 0x59F97801 EQ PUSH2 0x13D JUMPI DUP1 PUSH4 0x6B5F35C2 EQ PUSH2 0x15B JUMPI DUP1 PUSH4 0xD09CDAC1 EQ PUSH2 0x18B JUMPI DUP1 PUSH4 0xD6483D17 EQ PUSH2 0x1A7 JUMPI PUSH2 0x92 JUMP JUMPDEST DUP1 PUSH3 0x113E08 EQ PUSH2 0x97 JUMPI DUP1 PUSH4 0x5E5E5A3 EQ PUSH2 0xB5 JUMPI DUP1 PUSH4 0x9A7A006 EQ PUSH2 0xD3 JUMPI DUP1 PUSH4 0x356EEDE6 EQ PUSH2 0xF1 JUMPI JUMPDEST PUSH1 0x0 DUP1 REVERT JUMPDEST PUSH2 0x9F PUSH2 0x1C3 JUMP JUMPDEST PUSH1 0x40 MLOAD PUSH2 0xAC SWAP2 SWAP1 PUSH2 0x112A JUMP JUMPDEST PUSH1 0x40 MLOAD DUP1 SWAP2 SUB SWAP1 RETURN JUMPDEST PUSH2 0xBD PUSH2 0x357 JUMP JUMPDEST PUSH1 0x40 MLOAD PUSH2 0xCA SWAP2 SWAP1 PUSH2 0x123C JUMP JUMPDEST PUSH1 0x40 MLOAD DUP1 SWAP2 SUB SWAP1 RETURN JUMPDEST PUSH2 0xDB PUSH2 0x481 JUMP JUMPDEST PUSH1 0x40 MLOAD PUSH2 0xE8 SWAP2 SWAP1 PUSH2 0x13B9 JUMP JUMPDEST PUSH1 0x40 MLOAD DUP1 SWAP2 SUB SWAP1 RETURN JUMPDEST PUSH2 0x10B PUSH1 0x4 DUP1 CALLDATASIZE SUB DUP2 ADD SWAP1 PUSH2 0x106 SWAP2 SWAP1 PUSH2 0x160A JUMP JUMPDEST PUSH2 0x55A JUMP JUMPDEST STOP JUMPDEST PUSH2 0x127 PUSH1 0x4 DUP1 CALLDATASIZE SUB DUP2 ADD SWAP1 PUSH2 0x122 SWAP2 SWAP1 PUSH2 0x1653 JUMP JUMPDEST PUSH2 0x841 JUMP JUMPDEST PUSH1 0x40 MLOAD PUSH2 0x134 SWAP2 SWAP1 PUSH2 0x16AB JUMP JUMPDEST PUSH1 0x40 MLOAD DUP1 SWAP2 SUB SWAP1 RETURN JUMPDEST PUSH2 0x145 PUSH2 0x9D5 JUMP JUMPDEST PUSH1 0x40 MLOAD PUSH2 0x152 SWAP2 SWAP1 PUSH2 0x16AB JUMP JUMPDEST PUSH1 0x40 MLOAD DUP1 SWAP2 SUB SWAP1 RETURN JUMPDEST PUSH2 0x175 PUSH1 0x4 DUP1 CALLDATASIZE SUB DUP2 ADD SWAP1 PUSH2 0x170 SWAP2 SWAP1 PUSH2 0x1653 JUMP JUMPDEST PUSH2 0x9DF JUMP JUMPDEST PUSH1 0x40 MLOAD PUSH2 0x182 SWAP2 SWAP1 PUSH2 0x13B9 JUMP JUMPDEST PUSH1 0x40 MLOAD DUP1 SWAP2 SUB SWAP1 RETURN JUMPDEST PUSH2 0x1A5 PUSH1 0x4 DUP1 CALLDATASIZE SUB DUP2 ADD SWAP1 PUSH2 0x1A0 SWAP2 SWAP1 PUSH2 0x16C6 JUMP JUMPDEST PUSH2 0xAD9 JUMP JUMPDEST STOP JUMPDEST PUSH2 0x1C1 PUSH1 0x4 DUP1 CALLDATASIZE SUB DUP2 ADD SWAP1 PUSH2 0x1BC SWAP2 SWAP1 PUSH2 0x1653 JUMP JUMPDEST PUSH2 0xD25 JUMP JUMPDEST STOP JUMPDEST PUSH1 0x60 PUSH1 0x0 PUSH1 0x2 DUP1 SLOAD SWAP1 POP PUSH8 0xFFFFFFFFFFFFFFFF DUP2 GT ISZERO PUSH2 0x1E6 JUMPI PUSH2 0x1E5 PUSH2 0x13F4 JUMP JUMPDEST JUMPDEST PUSH1 0x40 MLOAD SWAP1 DUP1 DUP3 MSTORE DUP1 PUSH1 0x20 MUL PUSH1 0x20 ADD DUP3 ADD PUSH1 0x40 MSTORE DUP1 ISZERO PUSH2 0x214 JUMPI DUP2 PUSH1 0x20 ADD PUSH1 0x20 DUP3 MUL DUP1 CALLDATASIZE DUP4 CALLDATACOPY DUP1 DUP3 ADD SWAP2 POP POP SWAP1 POP JUMPDEST POP SWAP1 POP PUSH1 0x0 JUMPDEST PUSH1 0x2 DUP1 SLOAD SWAP1 POP DUP2 LT ISZERO PUSH2 0x34F JUMPI PUSH1 0x0 DUP1 SLOAD SWAP1 PUSH2 0x100 EXP SWAP1 DIV PUSH20 0xFFFFFFFFFFFFFFFFFFFFFFFFFFFFFFFFFFFFFFFF AND PUSH20 0xFFFFFFFFFFFFFFFFFFFFFFFFFFFFFFFFFFFFFFFF AND PUSH4 0x70A08231 PUSH1 0x1 PUSH1 0x2 DUP5 DUP2 SLOAD DUP2 LT PUSH2 0x279 JUMPI PUSH2 0x278 PUSH2 0x173E JUMP JUMPDEST JUMPDEST SWAP1 PUSH1 0x0 MSTORE PUSH1 0x20 PUSH1 0x0 KECCAK256 ADD PUSH1 0x40 MLOAD PUSH2 0x290 SWAP2 SWAP1 PUSH2 0x186D JUMP JUMPDEST SWAP1 DUP2 MSTORE PUSH1 0x20 ADD PUSH1 0x40 MLOAD DUP1 SWAP2 SUB SWAP1 KECCAK256 PUSH1 0x0 ADD PUSH1 0x0 SWAP1 SLOAD SWAP1 PUSH2 0x100 EXP SWAP1 DIV PUSH20 0xFFFFFFFFFFFFFFFFFFFFFFFFFFFFFFFFFFFFFFFF AND PUSH1 0x40 MLOAD DUP3 PUSH4 0xFFFFFFFF AND PUSH1 0xE0 SHL DUP2 MSTORE PUSH1 0x4 ADD PUSH2 0x2DE SWAP2 SWAP1 PUSH2 0x1893 JUMP JUMPDEST PUSH1 0x20 PUSH1 0x40 MLOAD DUP1 DUP4 SUB DUP2 DUP7 GAS STATICCALL ISZERO DUP1 ISZERO PUSH2 0x2FB JUMPI RETURNDATASIZE PUSH1 0x0 DUP1 RETURNDATACOPY RETURNDATASIZE PUSH1 0x0 REVERT JUMPDEST POP POP POP POP PUSH1 0x40 MLOAD RETURNDATASIZE PUSH1 0x1F NOT PUSH1 0x1F DUP3 ADD AND DUP3 ADD DUP1 PUSH1 0x40 MSTORE POP DUP2 ADD SWAP1 PUSH2 0x31F SWAP2 SWAP1 PUSH2 0x18DA JUMP JUMPDEST DUP3 DUP3 DUP2 MLOAD DUP2 LT PUSH2 0x332 JUMPI PUSH2 0x331 PUSH2 0x173E JUMP JUMPDEST JUMPDEST PUSH1 0x20 MUL PUSH1 0x20 ADD ADD DUP2 DUP2 MSTORE POP POP DUP1 PUSH2 0x348 SWAP1 PUSH2 0x1936 JUMP JUMPDEST SWAP1 POP PUSH2 0x21A JUMP JUMPDEST POP DUP1 SWAP2 POP POP SWAP1 JUMP JUMPDEST PUSH1 0x60 PUSH1 0x0 PUSH1 0x2 DUP1 SLOAD SWAP1 POP SWAP1 POP PUSH1 0x0 DUP2 PUSH8 0xFFFFFFFFFFFFFFFF DUP2 GT ISZERO PUSH2 0x37F JUMPI PUSH2 0x37E PUSH2 0x13F4 JUMP JUMPDEST JUMPDEST PUSH1 0x40 MLOAD SWAP1 DUP1 DUP3 MSTORE DUP1 PUSH1 0x20 MUL PUSH1 0x20 ADD DUP3 ADD PUSH1 0x40 MSTORE DUP1 ISZERO PUSH2 0x3AD JUMPI DUP2 PUSH1 0x20 ADD PUSH1 0x20 DUP3 MUL DUP1 CALLDATASIZE DUP4 CALLDATACOPY DUP1 DUP3 ADD SWAP2 POP POP SWAP1 POP JUMPDEST POP SWAP1 POP PUSH1 0x0 JUMPDEST DUP3 DUP2 LT ISZERO PUSH2 0x478 JUMPI PUSH1 0x1 PUSH1 0x2 DUP3 DUP2 SLOAD DUP2 LT PUSH2 0x3D1 JUMPI PUSH2 0x3D0 PUSH2 0x173E JUMP JUMPDEST JUMPDEST SWAP1 PUSH1 0x0 MSTORE PUSH1 0x20 PUSH1 0x0 KECCAK256 ADD PUSH1 0x40 MLOAD PUSH2 0x3E8 SWAP2 SWAP1 PUSH2 0x186D JUMP JUMPDEST SWAP1 DUP2 MSTORE PUSH1 0x20 ADD PUSH1 0x40 MLOAD DUP1 SWAP2 SUB SWAP1 KECCAK256 PUSH1 0x0 ADD PUSH1 0x0 SWAP1 SLOAD SWAP1 PUSH2 0x100 EXP SWAP1 DIV PUSH20 0xFFFFFFFFFFFFFFFFFFFFFFFFFFFFFFFFFFFFFFFF AND DUP3 DUP3 DUP2 MLOAD DUP2 LT PUSH2 0x42D JUMPI PUSH2 0x42C PUSH2 0x173E JUMP JUMPDEST JUMPDEST PUSH1 0x20 MUL PUSH1 0x20 ADD ADD SWAP1 PUSH20 0xFFFFFFFFFFFFFFFFFFFFFFFFFFFFFFFFFFFFFFFF AND SWAP1 DUP2 PUSH20 0xFFFFFFFFFFFFFFFFFFFFFFFFFFFFFFFFFFFFFFFF AND DUP2 MSTORE POP POP DUP1 PUSH2 0x471 SWAP1 PUSH2 0x1936 JUMP JUMPDEST SWAP1 POP PUSH2 0x3B3 JUMP JUMPDEST POP DUP1 SWAP3 POP POP POP SWAP1 JUMP JUMPDEST PUSH1 0x60 PUSH1 0x2 DUP1 SLOAD DUP1 PUSH1 0x20 MUL PUSH1 0x20 ADD PUSH1 0x40 MLOAD SWAP1 DUP2 ADD PUSH1 0x40 MSTORE DUP1 SWAP3 SWAP2 SWAP1 DUP2 DUP2 MSTORE PUSH1 0x20 ADD PUSH1 0x0 SWAP1 JUMPDEST DUP3 DUP3 LT ISZERO PUSH2 0x551 JUMPI DUP4 DUP3 SWAP1 PUSH1 0x0 MSTORE PUSH1 0x20 PUSH1 0x0 KECCAK256 ADD DUP1 SLOAD PUSH2 0x4C4 SWAP1 PUSH2 0x179C JUMP JUMPDEST DUP1 PUSH1 0x1F ADD PUSH1 0x20 DUP1 SWAP2 DIV MUL PUSH1 0x20 ADD PUSH1 0x40 MLOAD SWAP1 DUP2 ADD PUSH1 0x40 MSTORE DUP1 SWAP3 SWAP2 SWAP1 DUP2 DUP2 MSTORE PUSH1 0x20 ADD DUP3 DUP1 SLOAD PUSH2 0x4F0 SWAP1 PUSH2 0x179C JUMP JUMPDEST DUP1 ISZERO PUSH2 0x53D JUMPI DUP1 PUSH1 0x1F LT PUSH2 0x512 JUMPI PUSH2 0x100 DUP1 DUP4 SLOAD DIV MUL DUP4 MSTORE SWAP2 PUSH1 0x20 ADD SWAP2 PUSH2 0x53D JUMP JUMPDEST DUP3 ADD SWAP2 SWAP1 PUSH1 0x0 MSTORE PUSH1 0x20 PUSH1 0x0 KECCAK256 SWAP1 JUMPDEST DUP2 SLOAD DUP2 MSTORE SWAP1 PUSH1 0x1 ADD SWAP1 PUSH1 0x20 ADD DUP1 DUP4 GT PUSH2 0x520 JUMPI DUP3 SWAP1 SUB PUSH1 0x1F AND DUP3 ADD SWAP2 JUMPDEST POP POP POP POP POP DUP2 MSTORE PUSH1 0x20 ADD SWAP1 PUSH1 0x1 ADD SWAP1 PUSH2 0x4A5 JUMP JUMPDEST POP POP POP POP SWAP1 POP SWAP1 JUMP JUMPDEST PUSH32 0x0 PUSH20 0xFFFFFFFFFFFFFFFFFFFFFFFFFFFFFFFFFFFFFFFF AND CALLER PUSH20 0xFFFFFFFFFFFFFFFFFFFFFFFFFFFFFFFFFFFFFFFF AND EQ PUSH2 0x5E8 JUMPI PUSH1 0x40 MLOAD PUSH32 0x8C379A000000000000000000000000000000000000000000000000000000000 DUP2 MSTORE PUSH1 0x4 ADD PUSH2 0x5DF SWAP1 PUSH2 0x19DC JUMP JUMPDEST PUSH1 0x40 MLOAD DUP1 SWAP2 SUB SWAP1 REVERT JUMPDEST PUSH1 0x0 JUMPDEST DUP2 MLOAD DUP2 LT ISZERO PUSH2 0x83D JUMPI PUSH1 0x0 PUSH20 0xFFFFFFFFFFFFFFFFFFFFFFFFFFFFFFFFFFFFFFFF AND PUSH1 0x1 DUP4 DUP4 DUP2 MLOAD DUP2 LT PUSH2 0x621 JUMPI PUSH2 0x620 PUSH2 0x173E JUMP JUMPDEST JUMPDEST PUSH1 0x20 MUL PUSH1 0x20 ADD ADD MLOAD PUSH1 0x40 MLOAD PUSH2 0x636 SWAP2 SWAP1 PUSH2 0x1A2D JUMP JUMPDEST SWAP1 DUP2 MSTORE PUSH1 0x20 ADD PUSH1 0x40 MLOAD DUP1 SWAP2 SUB SWAP1 KECCAK256 PUSH1 0x0 ADD PUSH1 0x0 SWAP1 SLOAD SWAP1 PUSH2 0x100 EXP SWAP1 DIV PUSH20 0xFFFFFFFFFFFFFFFFFFFFFFFFFFFFFFFFFFFFFFFF AND PUSH20 0xFFFFFFFFFFFFFFFFFFFFFFFFFFFFFFFFFFFFFFFF AND EQ ISZERO PUSH2 0x82C JUMPI PUSH1 0x0 DUP3 DUP3 DUP2 MLOAD DUP2 LT PUSH2 0x699 JUMPI PUSH2 0x698 PUSH2 0x173E JUMP JUMPDEST JUMPDEST PUSH1 0x20 MUL PUSH1 0x20 ADD ADD MLOAD PUSH1 0x40 MLOAD PUSH1 0x20 ADD PUSH2 0x6B1 SWAP2 SWAP1 PUSH2 0x1A2D JUMP JUMPDEST PUSH1 0x40 MLOAD PUSH1 0x20 DUP2 DUP4 SUB SUB DUP2 MSTORE SWAP1 PUSH1 0x40 MSTORE DUP1 MLOAD SWAP1 PUSH1 0x20 ADD KECCAK256 PUSH1 0x60 SHR SWAP1 POP DUP1 PUSH1 0x1 DUP5 DUP5 DUP2 MLOAD DUP2 LT PUSH2 0x6E2 JUMPI PUSH2 0x6E1 PUSH2 0x173E JUMP JUMPDEST JUMPDEST PUSH1 0x20 MUL PUSH1 0x20 ADD ADD MLOAD PUSH1 0x40 MLOAD PUSH2 0x6F7 SWAP2 SWAP1 PUSH2 0x1A2D JUMP JUMPDEST SWAP1 DUP2 MSTORE PUSH1 0x20 ADD PUSH1 0x40 MLOAD DUP1 SWAP2 SUB SWAP1 KECCAK256 PUSH1 0x0 ADD PUSH1 0x0 PUSH2 0x100 EXP DUP2 SLOAD DUP2 PUSH20 0xFFFFFFFFFFFFFFFFFFFFFFFFFFFFFFFFFFFFFFFF MUL NOT AND SWAP1 DUP4 PUSH20 0xFFFFFFFFFFFFFFFFFFFFFFFFFFFFFFFFFFFFFFFF AND MUL OR SWAP1 SSTORE POP PUSH1 0x2 DUP4 DUP4 DUP2 MLOAD DUP2 LT PUSH2 0x75B JUMPI PUSH2 0x75A PUSH2 0x173E JUMP JUMPDEST JUMPDEST PUSH1 0x20 MUL PUSH1 0x20 ADD ADD MLOAD SWAP1 DUP1 PUSH1 0x1 DUP2 SLOAD ADD DUP1 DUP3 SSTORE DUP1 SWAP2 POP POP PUSH1 0x1 SWAP1 SUB SWAP1 PUSH1 0x0 MSTORE PUSH1 0x20 PUSH1 0x0 KECCAK256 ADD PUSH1 0x0 SWAP1 SWAP2 SWAP1 SWAP2 SWAP1 SWAP2 POP SWAP1 DUP1 MLOAD SWAP1 PUSH1 0x20 ADD SWAP1 PUSH2 0x79B SWAP3 SWAP2 SWAP1 PUSH2 0xFBF JUMP JUMPDEST POP PUSH1 0x0 DUP1 SLOAD SWAP1 PUSH2 0x100 EXP SWAP1 DIV PUSH20 0xFFFFFFFFFFFFFFFFFFFFFFFFFFFFFFFFFFFFFFFF AND PUSH20 0xFFFFFFFFFFFFFFFFFFFFFFFFFFFFFFFFFFFFFFFF AND PUSH4 0xCD8418D DUP3 PUSH1 0x1 PUSH1 0x40 MLOAD DUP4 PUSH4 0xFFFFFFFF AND PUSH1 0xE0 SHL DUP2 MSTORE PUSH1 0x4 ADD PUSH2 0x7F8 SWAP3 SWAP2 SWAP1 PUSH2 0x1A5F JUMP JUMPDEST PUSH1 0x0 PUSH1 0x40 MLOAD DUP1 DUP4 SUB DUP2 PUSH1 0x0 DUP8 DUP1 EXTCODESIZE ISZERO DUP1 ISZERO PUSH2 0x812 JUMPI PUSH1 0x0 DUP1 REVERT JUMPDEST POP GAS CALL ISZERO DUP1 ISZERO PUSH2 0x826 JUMPI RETURNDATASIZE PUSH1 0x0 DUP1 RETURNDATACOPY RETURNDATASIZE PUSH1 0x0 REVERT JUMPDEST POP POP POP POP POP JUMPDEST DUP1 PUSH2 0x836 SWAP1 PUSH2 0x1936 JUMP JUMPDEST SWAP1 POP PUSH2 0x5EB JUMP JUMPDEST POP POP JUMP JUMPDEST PUSH1 0x0 DUP1 PUSH20 0xFFFFFFFFFFFFFFFFFFFFFFFFFFFFFFFFFFFFFFFF AND PUSH1 0x1 DUP4 PUSH1 0x40 MLOAD PUSH2 0x86A SWAP2 SWAP1 PUSH2 0x1A2D JUMP JUMPDEST SWAP1 DUP2 MSTORE PUSH1 0x20 ADD PUSH1 0x40 MLOAD DUP1 SWAP2 SUB SWAP1 KECCAK256 PUSH1 0x0 ADD PUSH1 0x0 SWAP1 SLOAD SWAP1 PUSH2 0x100 EXP SWAP1 DIV PUSH20 0xFFFFFFFFFFFFFFFFFFFFFFFFFFFFFFFFFFFFFFFF AND PUSH20 0xFFFFFFFFFFFFFFFFFFFFFFFFFFFFFFFFFFFFFFFF AND EQ ISZERO PUSH2 0x8F3 JUMPI PUSH1 0x40 MLOAD PUSH32 0x8C379A000000000000000000000000000000000000000000000000000000000 DUP2 MSTORE PUSH1 0x4 ADD PUSH2 0x8EA SWAP1 PUSH2 0x1AD4 JUMP JUMPDEST PUSH1 0x40 MLOAD DUP1 SWAP2 SUB SWAP1 REVERT JUMPDEST PUSH1 0x0 DUP1 SLOAD SWAP1 PUSH2 0x100 EXP SWAP1 DIV PUSH20 0xFFFFFFFFFFFFFFFFFFFFFFFFFFFFFFFFFFFFFFFF AND PUSH20 0xFFFFFFFFFFFFFFFFFFFFFFFFFFFFFFFFFFFFFFFF AND PUSH4 0x70A08231 PUSH1 0x1 DUP5 PUSH1 0x40 MLOAD PUSH2 0x93F SWAP2 SWAP1 PUSH2 0x1A2D JUMP JUMPDEST SWAP1 DUP2 MSTORE PUSH1 0x20 ADD PUSH1 0x40 MLOAD DUP1 SWAP2 SUB SWAP1 KECCAK256 PUSH1 0x0 ADD PUSH1 0x0 SWAP1 SLOAD SWAP1 PUSH2 0x100 EXP SWAP1 DIV PUSH20 0xFFFFFFFFFFFFFFFFFFFFFFFFFFFFFFFFFFFFFFFF AND PUSH1 0x40 MLOAD DUP3 PUSH4 0xFFFFFFFF AND PUSH1 0xE0 SHL DUP2 MSTORE PUSH1 0x4 ADD PUSH2 0x98D SWAP2 SWAP1 PUSH2 0x1893 JUMP JUMPDEST PUSH1 0x20 PUSH1 0x40 MLOAD DUP1 DUP4 SUB DUP2 DUP7 GAS STATICCALL ISZERO DUP1 ISZERO PUSH2 0x9AA JUMPI RETURNDATASIZE PUSH1 0x0 DUP1 RETURNDATACOPY RETURNDATASIZE PUSH1 0x0 REVERT JUMPDEST POP POP POP POP PUSH1 0x40 MLOAD RETURNDATASIZE PUSH1 0x1F NOT PUSH1 0x1F DUP3 ADD AND DUP3 ADD DUP1 PUSH1 0x40 MSTORE POP DUP2 ADD SWAP1 PUSH2 0x9CE SWAP2 SWAP1 PUSH2 0x18DA JUMP JUMPDEST SWAP1 POP SWAP2 SWAP1 POP JUMP JUMPDEST PUSH1 0x0 PUSH1 0x3 SLOAD SWAP1 POP SWAP1 JUMP JUMPDEST PUSH1 0x60 PUSH1 0x1 DUP3 PUSH1 0x40 MLOAD PUSH2 0x9F1 SWAP2 SWAP1 PUSH2 0x1A2D JUMP JUMPDEST SWAP1 DUP2 MSTORE PUSH1 0x20 ADD PUSH1 0x40 MLOAD DUP1 SWAP2 SUB SWAP1 KECCAK256 PUSH1 0x1 ADD DUP1 SLOAD DUP1 PUSH1 0x20 MUL PUSH1 0x20 ADD PUSH1 0x40 MLOAD SWAP1 DUP2 ADD PUSH1 0x40 MSTORE DUP1 SWAP3 SWAP2 SWAP1 DUP2 DUP2 MSTORE PUSH1 0x20 ADD PUSH1 0x0 SWAP1 JUMPDEST DUP3 DUP3 LT ISZERO PUSH2 0xACE JUMPI DUP4 DUP3 SWAP1 PUSH1 0x0 MSTORE PUSH1 0x20 PUSH1 0x0 KECCAK256 ADD DUP1 SLOAD PUSH2 0xA41 SWAP1 PUSH2 0x179C JUMP JUMPDEST DUP1 PUSH1 0x1F ADD PUSH1 0x20 DUP1 SWAP2 DIV MUL PUSH1 0x20 ADD PUSH1 0x40 MLOAD SWAP1 DUP2 ADD PUSH1 0x40 MSTORE DUP1 SWAP3 SWAP2 SWAP1 DUP2 DUP2 MSTORE PUSH1 0x20 ADD DUP3 DUP1 SLOAD PUSH2 0xA6D SWAP1 PUSH2 0x179C JUMP JUMPDEST DUP1 ISZERO PUSH2 0xABA JUMPI DUP1 PUSH1 0x1F LT PUSH2 0xA8F JUMPI PUSH2 0x100 DUP1 DUP4 SLOAD DIV MUL DUP4 MSTORE SWAP2 PUSH1 0x20 ADD SWAP2 PUSH2 0xABA JUMP JUMPDEST DUP3 ADD SWAP2 SWAP1 PUSH1 0x0 MSTORE PUSH1 0x20 PUSH1 0x0 KECCAK256 SWAP1 JUMPDEST DUP2 SLOAD DUP2 MSTORE SWAP1 PUSH1 0x1 ADD SWAP1 PUSH1 0x20 ADD DUP1 DUP4 GT PUSH2 0xA9D JUMPI DUP3 SWAP1 SUB PUSH1 0x1F AND DUP3 ADD SWAP2 JUMPDEST POP POP POP POP POP DUP2 MSTORE PUSH1 0x20 ADD SWAP1 PUSH1 0x1 ADD SWAP1 PUSH2 0xA22 JUMP JUMPDEST POP POP POP POP SWAP1 POP SWAP2 SWAP1 POP JUMP JUMPDEST PUSH32 0x0 PUSH20 0xFFFFFFFFFFFFFFFFFFFFFFFFFFFFFFFFFFFFFFFF AND CALLER PUSH20 0xFFFFFFFFFFFFFFFFFFFFFFFFFFFFFFFFFFFFFFFF AND EQ PUSH2 0xB67 JUMPI PUSH1 0x40 MLOAD PUSH32 0x8C379A000000000000000000000000000000000000000000000000000000000 DUP2 MSTORE PUSH1 0x4 ADD PUSH2 0xB5E SWAP1 PUSH2 0x19DC JUMP JUMPDEST PUSH1 0x40 MLOAD DUP1 SWAP2 SUB SWAP1 REVERT JUMPDEST PUSH1 0x0 PUSH1 0x1 DUP4 PUSH1 0x40 MLOAD PUSH2 0xB79 SWAP2 SWAP1 PUSH2 0x1A2D JUMP JUMPDEST SWAP1 DUP2 MSTORE PUSH1 0x20 ADD PUSH1 0x40 MLOAD DUP1 SWAP2 SUB SWAP1 KECCAK256 PUSH1 0x0 ADD PUSH1 0x0 SWAP1 SLOAD SWAP1 PUSH2 0x100 EXP SWAP1 DIV PUSH20 0xFFFFFFFFFFFFFFFFFFFFFFFFFFFFFFFFFFFFFFFF AND SWAP1 POP PUSH1 0x0 PUSH20 0xFFFFFFFFFFFFFFFFFFFFFFFFFFFFFFFFFFFFFFFF AND DUP2 PUSH20 0xFFFFFFFFFFFFFFFFFFFFFFFFFFFFFFFFFFFFFFFF AND EQ ISZERO PUSH2 0xC1D JUMPI PUSH1 0x40 MLOAD PUSH32 0x8C379A000000000000000000000000000000000000000000000000000000000 DUP2 MSTORE PUSH1 0x4 ADD PUSH2 0xC14 SWAP1 PUSH2 0x1B66 JUMP JUMPDEST PUSH1 0x40 MLOAD DUP1 SWAP2 SUB SWAP1 REVERT JUMPDEST PUSH1 0x1 DUP4 PUSH1 0x40 MLOAD PUSH2 0xC2D SWAP2 SWAP1 PUSH2 0x1A2D JUMP JUMPDEST SWAP1 DUP2 MSTORE PUSH1 0x20 ADD PUSH1 0x40 MLOAD DUP1 SWAP2 SUB SWAP1 KECCAK256 PUSH1 0x1 ADD DUP3 SWAP1 DUP1 PUSH1 0x1 DUP2 SLOAD ADD DUP1 DUP3 SSTORE DUP1 SWAP2 POP POP PUSH1 0x1 SWAP1 SUB SWAP1 PUSH1 0x0 MSTORE PUSH1 0x20 PUSH1 0x0 KECCAK256 ADD PUSH1 0x0 SWAP1 SWAP2 SWAP1 SWAP2 SWAP1 SWAP2 POP SWAP1 DUP1 MLOAD SWAP1 PUSH1 0x20 ADD SWAP1 PUSH2 0xC77 SWAP3 SWAP2 SWAP1 PUSH2 0xFBF JUMP JUMPDEST POP PUSH1 0x1 PUSH1 0x3 PUSH1 0x0 DUP3 DUP3 SLOAD PUSH2 0xC8B SWAP2 SWAP1 PUSH2 0x1B86 JUMP JUMPDEST SWAP3 POP POP DUP2 SWAP1 SSTORE POP PUSH1 0x0 DUP1 SLOAD SWAP1 PUSH2 0x100 EXP SWAP1 DIV PUSH20 0xFFFFFFFFFFFFFFFFFFFFFFFFFFFFFFFFFFFFFFFF AND PUSH20 0xFFFFFFFFFFFFFFFFFFFFFFFFFFFFFFFFFFFFFFFF AND PUSH4 0x40C10F19 DUP3 PUSH1 0x1 PUSH1 0x40 MLOAD DUP4 PUSH4 0xFFFFFFFF AND PUSH1 0xE0 SHL DUP2 MSTORE PUSH1 0x4 ADD PUSH2 0xCEE SWAP3 SWAP2 SWAP1 PUSH2 0x1C21 JUMP JUMPDEST PUSH1 0x0 PUSH1 0x40 MLOAD DUP1 DUP4 SUB DUP2 PUSH1 0x0 DUP8 DUP1 EXTCODESIZE ISZERO DUP1 ISZERO PUSH2 0xD08 JUMPI PUSH1 0x0 DUP1 REVERT JUMPDEST POP GAS CALL ISZERO DUP1 ISZERO PUSH2 0xD1C JUMPI RETURNDATASIZE PUSH1 0x0 DUP1 RETURNDATACOPY RETURNDATASIZE PUSH1 0x0 REVERT JUMPDEST POP POP POP POP POP POP POP JUMP JUMPDEST PUSH32 0x0 PUSH20 0xFFFFFFFFFFFFFFFFFFFFFFFFFFFFFFFFFFFFFFFF AND CALLER PUSH20 0xFFFFFFFFFFFFFFFFFFFFFFFFFFFFFFFFFFFFFFFF AND EQ PUSH2 0xDB3 JUMPI PUSH1 0x40 MLOAD PUSH32 0x8C379A000000000000000000000000000000000000000000000000000000000 DUP2 MSTORE PUSH1 0x4 ADD PUSH2 0xDAA SWAP1 PUSH2 0x19DC JUMP JUMPDEST PUSH1 0x40 MLOAD DUP1 SWAP2 SUB SWAP1 REVERT JUMPDEST PUSH1 0x0 PUSH20 0xFFFFFFFFFFFFFFFFFFFFFFFFFFFFFFFFFFFFFFFF AND PUSH1 0x1 DUP3 PUSH1 0x40 MLOAD PUSH2 0xDDB SWAP2 SWAP1 PUSH2 0x1A2D JUMP JUMPDEST SWAP1 DUP2 MSTORE PUSH1 0x20 ADD PUSH1 0x40 MLOAD DUP1 SWAP2 SUB SWAP1 KECCAK256 PUSH1 0x0 ADD PUSH1 0x0 SWAP1 SLOAD SWAP1 PUSH2 0x100 EXP SWAP1 DIV PUSH20 0xFFFFFFFFFFFFFFFFFFFFFFFFFFFFFFFFFFFFFFFF AND PUSH20 0xFFFFFFFFFFFFFFFFFFFFFFFFFFFFFFFFFFFFFFFF AND EQ PUSH2 0xE63 JUMPI PUSH1 0x40 MLOAD PUSH32 0x8C379A000000000000000000000000000000000000000000000000000000000 DUP2 MSTORE PUSH1 0x4 ADD PUSH2 0xE5A SWAP1 PUSH2 0x1CBC JUMP JUMPDEST PUSH1 0x40 MLOAD DUP1 SWAP2 SUB SWAP1 REVERT JUMPDEST PUSH1 0x0 DUP2 PUSH1 0x40 MLOAD PUSH1 0x20 ADD PUSH2 0xE76 SWAP2 SWAP1 PUSH2 0x1A2D JUMP JUMPDEST PUSH1 0x40 MLOAD PUSH1 0x20 DUP2 DUP4 SUB SUB DUP2 MSTORE SWAP1 PUSH1 0x40 MSTORE DUP1 MLOAD SWAP1 PUSH1 0x20 ADD KECCAK256 PUSH1 0x60 SHR SWAP1 POP DUP1 PUSH1 0x1 DUP4 PUSH1 0x40 MLOAD PUSH2 0xEA2 SWAP2 SWAP1 PUSH2 0x1A2D JUMP JUMPDEST SWAP1 DUP2 MSTORE PUSH1 0x20 ADD PUSH1 0x40 MLOAD DUP1 SWAP2 SUB SWAP1 KECCAK256 PUSH1 0x0 ADD PUSH1 0x0 PUSH2 0x100 EXP DUP2 SLOAD DUP2 PUSH20 0xFFFFFFFFFFFFFFFFFFFFFFFFFFFFFFFFFFFFFFFF MUL NOT AND SWAP1 DUP4 PUSH20 0xFFFFFFFFFFFFFFFFFFFFFFFFFFFFFFFFFFFFFFFF AND MUL OR SWAP1 SSTORE POP PUSH1 0x2 DUP3 SWAP1 DUP1 PUSH1 0x1 DUP2 SLOAD ADD DUP1 DUP3 SSTORE DUP1 SWAP2 POP POP PUSH1 0x1 SWAP1 SUB SWAP1 PUSH1 0x0 MSTORE PUSH1 0x20 PUSH1 0x0 KECCAK256 ADD PUSH1 0x0 SWAP1 SWAP2 SWAP1 SWAP2 SWAP1 SWAP2 POP SWAP1 DUP1 MLOAD SWAP1 PUSH1 0x20 ADD SWAP1 PUSH2 0xF2C SWAP3 SWAP2 SWAP1 PUSH2 0xFBF JUMP JUMPDEST POP PUSH1 0x0 DUP1 SLOAD SWAP1 PUSH2 0x100 EXP SWAP1 DIV PUSH20 0xFFFFFFFFFFFFFFFFFFFFFFFFFFFFFFFFFFFFFFFF AND PUSH20 0xFFFFFFFFFFFFFFFFFFFFFFFFFFFFFFFFFFFFFFFF AND PUSH4 0xCD8418D DUP3 PUSH1 0x1 PUSH1 0x40 MLOAD DUP4 PUSH4 0xFFFFFFFF AND PUSH1 0xE0 SHL DUP2 MSTORE PUSH1 0x4 ADD PUSH2 0xF89 SWAP3 SWAP2 SWAP1 PUSH2 0x1A5F JUMP JUMPDEST PUSH1 0x0 PUSH1 0x40 MLOAD DUP1 DUP4 SUB DUP2 PUSH1 0x0 DUP8 DUP1 EXTCODESIZE ISZERO DUP1 ISZERO PUSH2 0xFA3 JUMPI PUSH1 0x0 DUP1 REVERT JUMPDEST POP GAS CALL ISZERO DUP1 ISZERO PUSH2 0xFB7 JUMPI RETURNDATASIZE PUSH1 0x0 DUP1 RETURNDATACOPY RETURNDATASIZE PUSH1 0x0 REVERT JUMPDEST POP POP POP POP POP POP JUMP JUMPDEST DUP3 DUP1 SLOAD PUSH2 0xFCB SWAP1 PUSH2 0x179C JUMP JUMPDEST SWAP1 PUSH1 0x0 MSTORE PUSH1 0x20 PUSH1 0x0 KECCAK256 SWAP1 PUSH1 0x1F ADD PUSH1 0x20 SWAP1 DIV DUP2 ADD SWAP3 DUP3 PUSH2 0xFED JUMPI PUSH1 0x0 DUP6 SSTORE PUSH2 0x1034 JUMP JUMPDEST DUP3 PUSH1 0x1F LT PUSH2 0x1006 JUMPI DUP1 MLOAD PUSH1 0xFF NOT AND DUP4 DUP1 ADD OR DUP6 SSTORE PUSH2 0x1034 JUMP JUMPDEST DUP3 DUP1 ADD PUSH1 0x1 ADD DUP6 SSTORE DUP3 ISZERO PUSH2 0x1034 JUMPI SWAP2 DUP3 ADD JUMPDEST DUP3 DUP2 GT ISZERO PUSH2 0x1033 JUMPI DUP3 MLOAD DUP3 SSTORE SWAP2 PUSH1 0x20 ADD SWAP2 SWAP1 PUSH1 0x1 ADD SWAP1 PUSH2 0x1018 JUMP JUMPDEST JUMPDEST POP SWAP1 POP PUSH2 0x1041 SWAP2 SWAP1 PUSH2 0x1045 JUMP JUMPDEST POP SWAP1 JUMP JUMPDEST JUMPDEST DUP1 DUP3 GT ISZERO PUSH2 0x105E JUMPI PUSH1 0x0 DUP2 PUSH1 0x0 SWAP1 SSTORE POP PUSH1 0x1 ADD PUSH2 0x1046 JUMP JUMPDEST POP SWAP1 JUMP JUMPDEST PUSH1 0x0 DUP2 MLOAD SWAP1 POP SWAP2 SWAP1 POP JUMP JUMPDEST PUSH1 0x0 DUP3 DUP3 MSTORE PUSH1 0x20 DUP3 ADD SWAP1 POP SWAP3 SWAP2 POP POP JUMP JUMPDEST PUSH1 0x0 DUP2 SWAP1 POP PUSH1 0x20 DUP3 ADD SWAP1 POP SWAP2 SWAP1 POP JUMP JUMPDEST PUSH1 0x0 DUP2 SWAP1 POP SWAP2 SWAP1 POP JUMP JUMPDEST PUSH2 0x10A1 DUP2 PUSH2 0x108E JUMP JUMPDEST DUP3 MSTORE POP POP JUMP JUMPDEST PUSH1 0x0 PUSH2 0x10B3 DUP4 DUP4 PUSH2 0x1098 JUMP JUMPDEST PUSH1 0x20 DUP4 ADD SWAP1 POP SWAP3 SWAP2 POP POP JUMP JUMPDEST PUSH1 0x0 PUSH1 0x20 DUP3 ADD SWAP1 POP SWAP2 SWAP1 POP JUMP JUMPDEST PUSH1 0x0 PUSH2 0x10D7 DUP3 PUSH2 0x1062 JUMP JUMPDEST PUSH2 0x10E1 DUP2 DUP6 PUSH2 0x106D JUMP JUMPDEST SWAP4 POP PUSH2 0x10EC DUP4 PUSH2 0x107E JUMP JUMPDEST DUP1 PUSH1 0x0 JUMPDEST DUP4 DUP2 LT ISZERO PUSH2 0x111D JUMPI DUP2 MLOAD PUSH2 0x1104 DUP9 DUP3 PUSH2 0x10A7 JUMP JUMPDEST SWAP8 POP PUSH2 0x110F DUP4 PUSH2 0x10BF JUMP JUMPDEST SWAP3 POP POP PUSH1 0x1 DUP2 ADD SWAP1 POP PUSH2 0x10F0 JUMP JUMPDEST POP DUP6 SWAP4 POP POP POP POP SWAP3 SWAP2 POP POP JUMP JUMPDEST PUSH1 0x0 PUSH1 0x20 DUP3 ADD SWAP1 POP DUP2 DUP2 SUB PUSH1 0x0 DUP4 ADD MSTORE PUSH2 0x1144 DUP2 DUP5 PUSH2 0x10CC JUMP JUMPDEST SWAP1 POP SWAP3 SWAP2 POP POP JUMP JUMPDEST PUSH1 0x0 DUP2 MLOAD SWAP1 POP SWAP2 SWAP1 POP JUMP JUMPDEST PUSH1 0x0 DUP3 DUP3 MSTORE PUSH1 0x20 DUP3 ADD SWAP1 POP SWAP3 SWAP2 POP POP JUMP JUMPDEST PUSH1 0x0 DUP2 SWAP1 POP PUSH1 0x20 DUP3 ADD SWAP1 POP SWAP2 SWAP1 POP JUMP JUMPDEST PUSH1 0x0 PUSH20 0xFFFFFFFFFFFFFFFFFFFFFFFFFFFFFFFFFFFFFFFF DUP3 AND SWAP1 POP SWAP2 SWAP1 POP JUMP JUMPDEST PUSH1 0x0 PUSH2 0x11A3 DUP3 PUSH2 0x1178 JUMP JUMPDEST SWAP1 POP SWAP2 SWAP1 POP JUMP JUMPDEST PUSH2 0x11B3 DUP2 PUSH2 0x1198 JUMP JUMPDEST DUP3 MSTORE POP POP JUMP JUMPDEST PUSH1 0x0 PUSH2 0x11C5 DUP4 DUP4 PUSH2 0x11AA JUMP JUMPDEST PUSH1 0x20 DUP4 ADD SWAP1 POP SWAP3 SWAP2 POP POP JUMP JUMPDEST PUSH1 0x0 PUSH1 0x20 DUP3 ADD SWAP1 POP SWAP2 SWAP1 POP JUMP JUMPDEST PUSH1 0x0 PUSH2 0x11E9 DUP3 PUSH2 0x114C JUMP JUMPDEST PUSH2 0x11F3 DUP2 DUP6 PUSH2 0x1157 JUMP JUMPDEST SWAP4 POP PUSH2 0x11FE DUP4 PUSH2 0x1168 JUMP JUMPDEST DUP1 PUSH1 0x0 JUMPDEST DUP4 DUP2 LT ISZERO PUSH2 0x122F JUMPI DUP2 MLOAD PUSH2 0x1216 DUP9 DUP3 PUSH2 0x11B9 JUMP JUMPDEST SWAP8 POP PUSH2 0x1221 DUP4 PUSH2 0x11D1 JUMP JUMPDEST SWAP3 POP POP PUSH1 0x1 DUP2 ADD SWAP1 POP PUSH2 0x1202 JUMP JUMPDEST POP DUP6 SWAP4 POP POP POP POP SWAP3 SWAP2 POP POP JUMP JUMPDEST PUSH1 0x0 PUSH1 0x20 DUP3 ADD SWAP1 POP DUP2 DUP2 SUB PUSH1 0x0 DUP4 ADD MSTORE PUSH2 0x1256 DUP2 DUP5 PUSH2 0x11DE JUMP JUMPDEST SWAP1 POP SWAP3 SWAP2 POP POP JUMP JUMPDEST PUSH1 0x0 DUP2 MLOAD SWAP1 POP SWAP2 SWAP1 POP JUMP JUMPDEST PUSH1 0x0 DUP3 DUP3 MSTORE PUSH1 0x20 DUP3 ADD SWAP1 POP SWAP3 SWAP2 POP POP JUMP JUMPDEST PUSH1 0x0 DUP2 SWAP1 POP PUSH1 0x20 DUP3 ADD SWAP1 POP SWAP2 SWAP1 POP JUMP JUMPDEST PUSH1 0x0 DUP2 MLOAD SWAP1 POP SWAP2 SWAP1 POP JUMP JUMPDEST PUSH1 0x0 DUP3 DUP3 MSTORE PUSH1 0x20 DUP3 ADD SWAP1 POP SWAP3 SWAP2 POP POP JUMP JUMPDEST PUSH1 0x0 JUMPDEST DUP4 DUP2 LT ISZERO PUSH2 0x12C4 JUMPI DUP1 DUP3 ADD MLOAD DUP2 DUP5 ADD MSTORE PUSH1 0x20 DUP2 ADD SWAP1 POP PUSH2 0x12A9 JUMP JUMPDEST DUP4 DUP2 GT ISZERO PUSH2 0x12D3 JUMPI PUSH1 0x0 DUP5 DUP5 ADD MSTORE JUMPDEST POP POP POP POP JUMP JUMPDEST PUSH1 0x0 PUSH1 0x1F NOT PUSH1 0x1F DUP4 ADD AND SWAP1 POP SWAP2 SWAP1 POP JUMP JUMPDEST PUSH1 0x0 PUSH2 0x12F5 DUP3 PUSH2 0x128A JUMP JUMPDEST PUSH2 0x12FF DUP2 DUP6 PUSH2 0x1295 JUMP JUMPDEST SWAP4 POP PUSH2 0x130F DUP2 DUP6 PUSH1 0x20 DUP7 ADD PUSH2 0x12A6 JUMP JUMPDEST PUSH2 0x1318 DUP2 PUSH2 0x12D9 JUMP JUMPDEST DUP5 ADD SWAP2 POP POP SWAP3 SWAP2 POP POP JUMP JUMPDEST PUSH1 0x0 PUSH2 0x132F DUP4 DUP4 PUSH2 0x12EA JUMP JUMPDEST SWAP1 POP SWAP3 SWAP2 POP POP JUMP JUMPDEST PUSH1 0x0 PUSH1 0x20 DUP3 ADD SWAP1 POP SWAP2 SWAP1 POP JUMP JUMPDEST PUSH1 0x0 PUSH2 0x134F DUP3 PUSH2 0x125E JUMP JUMPDEST PUSH2 0x1359 DUP2 DUP6 PUSH2 0x1269 JUMP JUMPDEST SWAP4 POP DUP4 PUSH1 0x20 DUP3 MUL DUP6 ADD PUSH2 0x136B DUP6 PUSH2 0x127A JUMP JUMPDEST DUP1 PUSH1 0x0 JUMPDEST DUP6 DUP2 LT ISZERO PUSH2 0x13A7 JUMPI DUP5 DUP5 SUB DUP10 MSTORE DUP2 MLOAD PUSH2 0x1388 DUP6 DUP3 PUSH2 0x1323 JUMP JUMPDEST SWAP5 POP PUSH2 0x1393 DUP4 PUSH2 0x1337 JUMP JUMPDEST SWAP3 POP PUSH1 0x20 DUP11 ADD SWAP10 POP POP PUSH1 0x1 DUP2 ADD SWAP1 POP PUSH2 0x136F JUMP JUMPDEST POP DUP3 SWAP8 POP DUP8 SWAP6 POP POP POP POP POP POP SWAP3 SWAP2 POP POP JUMP JUMPDEST PUSH1 0x0 PUSH1 0x20 DUP3 ADD SWAP1 POP DUP2 DUP2 SUB PUSH1 0x0 DUP4 ADD MSTORE PUSH2 0x13D3 DUP2 DUP5 PUSH2 0x1344 JUMP JUMPDEST SWAP1 POP SWAP3 SWAP2 POP POP JUMP JUMPDEST PUSH1 0x0 PUSH1 0x40 MLOAD SWAP1 POP SWAP1 JUMP JUMPDEST PUSH1 0x0 DUP1 REVERT JUMPDEST PUSH1 0x0 DUP1 REVERT JUMPDEST PUSH1 0x0 DUP1 REVERT JUMPDEST PUSH32 0x4E487B7100000000000000000000000000000000000000000000000000000000 PUSH1 0x0 MSTORE PUSH1 0x41 PUSH1 0x4 MSTORE PUSH1 0x24 PUSH1 0x0 REVERT JUMPDEST PUSH2 0x142C DUP3 PUSH2 0x12D9 JUMP JUMPDEST DUP2 ADD DUP2 DUP2 LT PUSH8 0xFFFFFFFFFFFFFFFF DUP3 GT OR ISZERO PUSH2 0x144B JUMPI PUSH2 0x144A PUSH2 0x13F4 JUMP JUMPDEST JUMPDEST DUP1 PUSH1 0x40 MSTORE POP POP POP JUMP JUMPDEST PUSH1 0x0 PUSH2 0x145E PUSH2 0x13DB JUMP JUMPDEST SWAP1 POP PUSH2 0x146A DUP3 DUP3 PUSH2 0x1423 JUMP JUMPDEST SWAP2 SWAP1 POP JUMP JUMPDEST PUSH1 0x0 PUSH8 0xFFFFFFFFFFFFFFFF DUP3 GT ISZERO PUSH2 0x148A JUMPI PUSH2 0x1489 PUSH2 0x13F4 JUMP JUMPDEST JUMPDEST PUSH1 0x20 DUP3 MUL SWAP1 POP PUSH1 0x20 DUP2 ADD SWAP1 POP SWAP2 SWAP1 POP JUMP JUMPDEST PUSH1 0x0 DUP1 REVERT JUMPDEST PUSH1 0x0 DUP1 REVERT JUMPDEST PUSH1 0x0 PUSH8 0xFFFFFFFFFFFFFFFF DUP3 GT ISZERO PUSH2 0x14C0 JUMPI PUSH2 0x14BF PUSH2 0x13F4 JUMP JUMPDEST JUMPDEST PUSH2 0x14C9 DUP3 PUSH2 0x12D9 JUMP JUMPDEST SWAP1 POP PUSH1 0x20 DUP2 ADD SWAP1 POP SWAP2 SWAP1 POP JUMP JUMPDEST DUP3 DUP2 DUP4 CALLDATACOPY PUSH1 0x0 DUP4 DUP4 ADD MSTORE POP POP POP JUMP JUMPDEST PUSH1 0x0 PUSH2 0x14F8 PUSH2 0x14F3 DUP5 PUSH2 0x14A5 JUMP JUMPDEST PUSH2 0x1454 JUMP JUMPDEST SWAP1 POP DUP3 DUP2 MSTORE PUSH1 0x20 DUP2 ADD DUP5 DUP5 DUP5 ADD GT ISZERO PUSH2 0x1514 JUMPI PUSH2 0x1513 PUSH2 0x14A0 JUMP JUMPDEST JUMPDEST PUSH2 0x151F DUP5 DUP3 DUP6 PUSH2 0x14D6 JUMP JUMPDEST POP SWAP4 SWAP3 POP POP POP JUMP JUMPDEST PUSH1 0x0 DUP3 PUSH1 0x1F DUP4 ADD SLT PUSH2 0x153C JUMPI PUSH2 0x153B PUSH2 0x13EF JUMP JUMPDEST JUMPDEST DUP2 CALLDATALOAD PUSH2 0x154C DUP5 DUP3 PUSH1 0x20 DUP7 ADD PUSH2 0x14E5 JUMP JUMPDEST SWAP2 POP POP SWAP3 SWAP2 POP POP JUMP JUMPDEST PUSH1 0x0 PUSH2 0x1568 PUSH2 0x1563 DUP5 PUSH2 0x146F JUMP JUMPDEST PUSH2 0x1454 JUMP JUMPDEST SWAP1 POP DUP1 DUP4 DUP3 MSTORE PUSH1 0x20 DUP3 ADD SWAP1 POP PUSH1 0x20 DUP5 MUL DUP4 ADD DUP6 DUP2 GT ISZERO PUSH2 0x158B JUMPI PUSH2 0x158A PUSH2 0x149B JUMP JUMPDEST JUMPDEST DUP4 JUMPDEST DUP2 DUP2 LT ISZERO PUSH2 0x15D2 JUMPI DUP1 CALLDATALOAD PUSH8 0xFFFFFFFFFFFFFFFF DUP2 GT ISZERO PUSH2 0x15B0 JUMPI PUSH2 0x15AF PUSH2 0x13EF JUMP JUMPDEST JUMPDEST DUP1 DUP7 ADD PUSH2 0x15BD DUP10 DUP3 PUSH2 0x1527 JUMP JUMPDEST DUP6 MSTORE PUSH1 0x20 DUP6 ADD SWAP5 POP POP POP PUSH1 0x20 DUP2 ADD SWAP1 POP PUSH2 0x158D JUMP JUMPDEST POP POP POP SWAP4 SWAP3 POP POP POP JUMP JUMPDEST PUSH1 0x0 DUP3 PUSH1 0x1F DUP4 ADD SLT PUSH2 0x15F1 JUMPI PUSH2 0x15F0 PUSH2 0x13EF JUMP JUMPDEST JUMPDEST DUP2 CALLDATALOAD PUSH2 0x1601 DUP5 DUP3 PUSH1 0x20 DUP7 ADD PUSH2 0x1555 JUMP JUMPDEST SWAP2 POP POP SWAP3 SWAP2 POP POP JUMP JUMPDEST PUSH1 0x0 PUSH1 0x20 DUP3 DUP5 SUB SLT ISZERO PUSH2 0x1620 JUMPI PUSH2 0x161F PUSH2 0x13E5 JUMP JUMPDEST JUMPDEST PUSH1 0x0 DUP3 ADD CALLDATALOAD PUSH8 0xFFFFFFFFFFFFFFFF DUP2 GT ISZERO PUSH2 0x163E JUMPI PUSH2 0x163D PUSH2 0x13EA JUMP JUMPDEST JUMPDEST PUSH2 0x164A DUP5 DUP3 DUP6 ADD PUSH2 0x15DC JUMP JUMPDEST SWAP2 POP POP SWAP3 SWAP2 POP POP JUMP JUMPDEST PUSH1 0x0 PUSH1 0x20 DUP3 DUP5 SUB SLT ISZERO PUSH2 0x1669 JUMPI PUSH2 0x1668 PUSH2 0x13E5 JUMP JUMPDEST JUMPDEST PUSH1 0x0 DUP3 ADD CALLDATALOAD PUSH8 0xFFFFFFFFFFFFFFFF DUP2 GT ISZERO PUSH2 0x1687 JUMPI PUSH2 0x1686 PUSH2 0x13EA JUMP JUMPDEST JUMPDEST PUSH2 0x1693 DUP5 DUP3 DUP6 ADD PUSH2 0x1527 JUMP JUMPDEST SWAP2 POP POP SWAP3 SWAP2 POP POP JUMP JUMPDEST PUSH2 0x16A5 DUP2 PUSH2 0x108E JUMP JUMPDEST DUP3 MSTORE POP POP JUMP JUMPDEST PUSH1 0x0 PUSH1 0x20 DUP3 ADD SWAP1 POP PUSH2 0x16C0 PUSH1 0x0 DUP4 ADD DUP5 PUSH2 0x169C JUMP JUMPDEST SWAP3 SWAP2 POP POP JUMP JUMPDEST PUSH1 0x0 DUP1 PUSH1 0x40 DUP4 DUP6 SUB SLT ISZERO PUSH2 0x16DD JUMPI PUSH2 0x16DC PUSH2 0x13E5 JUMP JUMPDEST JUMPDEST PUSH1 0x0 DUP4 ADD CALLDATALOAD PUSH8 0xFFFFFFFFFFFFFFFF DUP2 GT ISZERO PUSH2 0x16FB JUMPI PUSH2 0x16FA PUSH2 0x13EA JUMP JUMPDEST JUMPDEST PUSH2 0x1707 DUP6 DUP3 DUP7 ADD PUSH2 0x1527 JUMP JUMPDEST SWAP3 POP POP PUSH1 0x20 DUP4 ADD CALLDATALOAD PUSH8 0xFFFFFFFFFFFFFFFF DUP2 GT ISZERO PUSH2 0x1728 JUMPI PUSH2 0x1727 PUSH2 0x13EA JUMP JUMPDEST JUMPDEST PUSH2 0x1734 DUP6 DUP3 DUP7 ADD PUSH2 0x1527 JUMP JUMPDEST SWAP2 POP POP SWAP3 POP SWAP3 SWAP1 POP JUMP JUMPDEST PUSH32 0x4E487B7100000000000000000000000000000000000000000000000000000000 PUSH1 0x0 MSTORE PUSH1 0x32 PUSH1 0x4 MSTORE PUSH1 0x24 PUSH1 0x0 REVERT JUMPDEST PUSH32 0x4E487B7100000000000000000000000000000000000000000000000000000000 PUSH1 0x0 MSTORE PUSH1 0x22 PUSH1 0x4 MSTORE PUSH1 0x24 PUSH1 0x0 REVERT JUMPDEST PUSH1 0x0 PUSH1 0x2 DUP3 DIV SWAP1 POP PUSH1 0x1 DUP3 AND DUP1 PUSH2 0x17B4 JUMPI PUSH1 0x7F DUP3 AND SWAP2 POP JUMPDEST PUSH1 0x20 DUP3 LT DUP2 EQ ISZERO PUSH2 0x17C8 JUMPI PUSH2 0x17C7 PUSH2 0x176D JUMP JUMPDEST JUMPDEST POP SWAP2 SWAP1 POP JUMP JUMPDEST PUSH1 0x0 DUP2 SWAP1 POP SWAP3 SWAP2 POP POP JUMP JUMPDEST PUSH1 0x0 DUP2 SWAP1 POP DUP2 PUSH1 0x0 MSTORE PUSH1 0x20 PUSH1 0x0 KECCAK256 SWAP1 POP SWAP2 SWAP1 POP JUMP JUMPDEST PUSH1 0x0 DUP2 SLOAD PUSH2 0x17FB DUP2 PUSH2 0x179C JUMP JUMPDEST PUSH2 0x1805 DUP2 DUP7 PUSH2 0x17CE JUMP JUMPDEST SWAP5 POP PUSH1 0x1 DUP3 AND PUSH1 0x0 DUP2 EQ PUSH2 0x1820 JUMPI PUSH1 0x1 DUP2 EQ PUSH2 0x1831 JUMPI PUSH2 0x1864 JUMP JUMPDEST PUSH1 0xFF NOT DUP4 AND DUP7 MSTORE DUP2 DUP7 ADD SWAP4 POP PUSH2 0x1864 JUMP JUMPDEST PUSH2 0x183A DUP6 PUSH2 0x17D9 JUMP JUMPDEST PUSH1 0x0 JUMPDEST DUP4 DUP2 LT ISZERO PUSH2 0x185C JUMPI DUP2 SLOAD DUP2 DUP10 ADD MSTORE PUSH1 0x1 DUP3 ADD SWAP2 POP PUSH1 0x20 DUP2 ADD SWAP1 POP PUSH2 0x183D JUMP JUMPDEST DUP4 DUP9 ADD SWAP6 POP POP POP JUMPDEST POP POP POP SWAP3 SWAP2 POP POP JUMP JUMPDEST PUSH1 0x0 PUSH2 0x1879 DUP3 DUP5 PUSH2 0x17EE JUMP JUMPDEST SWAP2 POP DUP2 SWAP1 POP SWAP3 SWAP2 POP POP JUMP JUMPDEST PUSH2 0x188D DUP2 PUSH2 0x1198 JUMP JUMPDEST DUP3 MSTORE POP POP JUMP JUMPDEST PUSH1 0x0 PUSH1 0x20 DUP3 ADD SWAP1 POP PUSH2 0x18A8 PUSH1 0x0 DUP4 ADD DUP5 PUSH2 0x1884 JUMP JUMPDEST SWAP3 SWAP2 POP POP JUMP JUMPDEST PUSH2 0x18B7 DUP2 PUSH2 0x108E JUMP JUMPDEST DUP2 EQ PUSH2 0x18C2 JUMPI PUSH1 0x0 DUP1 REVERT JUMPDEST POP JUMP JUMPDEST PUSH1 0x0 DUP2 MLOAD SWAP1 POP PUSH2 0x18D4 DUP2 PUSH2 0x18AE JUMP JUMPDEST SWAP3 SWAP2 POP POP JUMP JUMPDEST PUSH1 0x0 PUSH1 0x20 DUP3 DUP5 SUB SLT ISZERO PUSH2 0x18F0 JUMPI PUSH2 0x18EF PUSH2 0x13E5 JUMP JUMPDEST JUMPDEST PUSH1 0x0 PUSH2 0x18FE DUP5 DUP3 DUP6 ADD PUSH2 0x18C5 JUMP JUMPDEST SWAP2 POP POP SWAP3 SWAP2 POP POP JUMP JUMPDEST PUSH32 0x4E487B7100000000000000000000000000000000000000000000000000000000 PUSH1 0x0 MSTORE PUSH1 0x11 PUSH1 0x4 MSTORE PUSH1 0x24 PUSH1 0x0 REVERT JUMPDEST PUSH1 0x0 PUSH2 0x1941 DUP3 PUSH2 0x108E JUMP JUMPDEST SWAP2 POP PUSH32 0xFFFFFFFFFFFFFFFFFFFFFFFFFFFFFFFFFFFFFFFFFFFFFFFFFFFFFFFFFFFFFFFF DUP3 EQ ISZERO PUSH2 0x1974 JUMPI PUSH2 0x1973 PUSH2 0x1907 JUMP JUMPDEST JUMPDEST PUSH1 0x1 DUP3 ADD SWAP1 POP SWAP2 SWAP1 POP JUMP JUMPDEST PUSH1 0x0 DUP3 DUP3 MSTORE PUSH1 0x20 DUP3 ADD SWAP1 POP SWAP3 SWAP2 POP POP JUMP JUMPDEST PUSH32 0x4E6F207469656E6573207065726D69736F730000000000000000000000000000 PUSH1 0x0 DUP3 ADD MSTORE POP JUMP JUMPDEST PUSH1 0x0 PUSH2 0x19C6 PUSH1 0x12 DUP4 PUSH2 0x197F JUMP JUMPDEST SWAP2 POP PUSH2 0x19D1 DUP3 PUSH2 0x1990 JUMP JUMPDEST PUSH1 0x20 DUP3 ADD SWAP1 POP SWAP2 SWAP1 POP JUMP JUMPDEST PUSH1 0x0 PUSH1 0x20 DUP3 ADD SWAP1 POP DUP2 DUP2 SUB PUSH1 0x0 DUP4 ADD MSTORE PUSH2 0x19F5 DUP2 PUSH2 0x19B9 JUMP JUMPDEST SWAP1 POP SWAP2 SWAP1 POP JUMP JUMPDEST PUSH1 0x0 PUSH2 0x1A07 DUP3 PUSH2 0x128A JUMP JUMPDEST PUSH2 0x1A11 DUP2 DUP6 PUSH2 0x17CE JUMP JUMPDEST SWAP4 POP PUSH2 0x1A21 DUP2 DUP6 PUSH1 0x20 DUP7 ADD PUSH2 0x12A6 JUMP JUMPDEST DUP1 DUP5 ADD SWAP2 POP POP SWAP3 SWAP2 POP POP JUMP JUMPDEST PUSH1 0x0 PUSH2 0x1A39 DUP3 DUP5 PUSH2 0x19FC JUMP JUMPDEST SWAP2 POP DUP2 SWAP1 POP SWAP3 SWAP2 POP POP JUMP JUMPDEST PUSH1 0x0 DUP2 ISZERO ISZERO SWAP1 POP SWAP2 SWAP1 POP JUMP JUMPDEST PUSH2 0x1A59 DUP2 PUSH2 0x1A44 JUMP JUMPDEST DUP3 MSTORE POP POP JUMP JUMPDEST PUSH1 0x0 PUSH1 0x40 DUP3 ADD SWAP1 POP PUSH2 0x1A74 PUSH1 0x0 DUP4 ADD DUP6 PUSH2 0x1884 JUMP JUMPDEST PUSH2 0x1A81 PUSH1 0x20 DUP4 ADD DUP5 PUSH2 0x1A50 JUMP JUMPDEST SWAP4 SWAP3 POP POP POP JUMP JUMPDEST PUSH32 0x4C6120656D7072657361206E6F206573746120656E20656C2073697374656D61 PUSH1 0x0 DUP3 ADD MSTORE POP JUMP JUMPDEST PUSH1 0x0 PUSH2 0x1ABE PUSH1 0x20 DUP4 PUSH2 0x197F JUMP JUMPDEST SWAP2 POP PUSH2 0x1AC9 DUP3 PUSH2 0x1A88 JUMP JUMPDEST PUSH1 0x20 DUP3 ADD SWAP1 POP SWAP2 SWAP1 POP JUMP JUMPDEST PUSH1 0x0 PUSH1 0x20 DUP3 ADD SWAP1 POP DUP2 DUP2 SUB PUSH1 0x0 DUP4 ADD MSTORE PUSH2 0x1AED DUP2 PUSH2 0x1AB1 JUMP JUMPDEST SWAP1 POP SWAP2 SWAP1 POP JUMP JUMPDEST PUSH32 0x4E6F206573746120656E20656C2073697374656D61206573746120656D707265 PUSH1 0x0 DUP3 ADD MSTORE PUSH32 0x7361000000000000000000000000000000000000000000000000000000000000 PUSH1 0x20 DUP3 ADD MSTORE POP JUMP JUMPDEST PUSH1 0x0 PUSH2 0x1B50 PUSH1 0x22 DUP4 PUSH2 0x197F JUMP JUMPDEST SWAP2 POP PUSH2 0x1B5B DUP3 PUSH2 0x1AF4 JUMP JUMPDEST PUSH1 0x40 DUP3 ADD SWAP1 POP SWAP2 SWAP1 POP JUMP JUMPDEST PUSH1 0x0 PUSH1 0x20 DUP3 ADD SWAP1 POP DUP2 DUP2 SUB PUSH1 0x0 DUP4 ADD MSTORE PUSH2 0x1B7F DUP2 PUSH2 0x1B43 JUMP JUMPDEST SWAP1 POP SWAP2 SWAP1 POP JUMP JUMPDEST PUSH1 0x0 PUSH2 0x1B91 DUP3 PUSH2 0x108E JUMP JUMPDEST SWAP2 POP PUSH2 0x1B9C DUP4 PUSH2 0x108E JUMP JUMPDEST SWAP3 POP DUP3 PUSH32 0xFFFFFFFFFFFFFFFFFFFFFFFFFFFFFFFFFFFFFFFFFFFFFFFFFFFFFFFFFFFFFFFF SUB DUP3 GT ISZERO PUSH2 0x1BD1 JUMPI PUSH2 0x1BD0 PUSH2 0x1907 JUMP JUMPDEST JUMPDEST DUP3 DUP3 ADD SWAP1 POP SWAP3 SWAP2 POP POP JUMP JUMPDEST PUSH1 0x0 DUP2 SWAP1 POP SWAP2 SWAP1 POP JUMP JUMPDEST PUSH1 0x0 DUP2 SWAP1 POP SWAP2 SWAP1 POP JUMP JUMPDEST PUSH1 0x0 PUSH2 0x1C0B PUSH2 0x1C06 PUSH2 0x1C01 DUP5 PUSH2 0x1BDC JUMP JUMPDEST PUSH2 0x1BE6 JUMP JUMPDEST PUSH2 0x108E JUMP JUMPDEST SWAP1 POP SWAP2 SWAP1 POP JUMP JUMPDEST PUSH2 0x1C1B DUP2 PUSH2 0x1BF0 JUMP JUMPDEST DUP3 MSTORE POP POP JUMP JUMPDEST PUSH1 0x0 PUSH1 0x40 DUP3 ADD SWAP1 POP PUSH2 0x1C36 PUSH1 0x0 DUP4 ADD DUP6 PUSH2 0x1884 JUMP JUMPDEST PUSH2 0x1C43 PUSH1 0x20 DUP4 ADD DUP5 PUSH2 0x1C12 JUMP JUMPDEST SWAP4 SWAP3 POP POP POP JUMP JUMPDEST PUSH32 0x5961206573746120656E20656C2073697374656D61206573746120656D707265 PUSH1 0x0 DUP3 ADD MSTORE PUSH32 0x7361000000000000000000000000000000000000000000000000000000000000 PUSH1 0x20 DUP3 ADD MSTORE POP JUMP JUMPDEST PUSH1 0x0 PUSH2 0x1CA6 PUSH1 0x22 DUP4 PUSH2 0x197F JUMP JUMPDEST SWAP2 POP PUSH2 0x1CB1 DUP3 PUSH2 0x1C4A JUMP JUMPDEST PUSH1 0x40 DUP3 ADD SWAP1 POP SWAP2 SWAP1 POP JUMP JUMPDEST PUSH1 0x0 PUSH1 0x20 DUP3 ADD SWAP1 POP DUP2 DUP2 SUB PUSH1 0x0 DUP4 ADD MSTORE PUSH2 0x1CD5 DUP2 PUSH2 0x1C99 JUMP JUMPDEST SWAP1 POP SWAP2 SWAP1 POP JUMP INVALID LOG2 PUSH5 0x6970667358 0x22 SLT KECCAK256 PUSH13 0xEF32CBF9E4549DB4081F2F82AE 0xBE SWAP4 PUSH18 0xF2D1575B735ED9F2D202EB0155852464736F PUSH13 0x634300080A0033608060405234 DUP1 ISZERO PUSH3 0x11 JUMPI PUSH1 0x0 DUP1 REVERT JUMPDEST POP PUSH1 0x0 PUSH20 0xFFFFFFFFFFFFFFFFFFFFFFFFFFFFFFFFFFFFFFFF AND CALLER PUSH20 0xFFFFFFFFFFFFFFFFFFFFFFFFFFFFFFFFFFFFFFFF AND EQ ISZERO PUSH3 0x85 JUMPI PUSH1 0x40 MLOAD PUSH32 0x8C379A000000000000000000000000000000000000000000000000000000000 DUP2 MSTORE PUSH1 0x4 ADD PUSH3 0x7C SWAP1 PUSH3 0x29D JUMP JUMPDEST PUSH1 0x40 MLOAD DUP1 SWAP2 SUB SWAP1 REVERT JUMPDEST CALLER PUSH1 0x3 PUSH1 0x0 PUSH2 0x100 EXP DUP2 SLOAD DUP2 PUSH20 0xFFFFFFFFFFFFFFFFFFFFFFFFFFFFFFFFFFFFFFFF MUL NOT AND SWAP1 DUP4 PUSH20 0xFFFFFFFFFFFFFFFFFFFFFFFFFFFFFFFFFFFFFFFF AND MUL OR SWAP1 SSTORE POP PUSH1 0x1 DUP1 PUSH1 0x0 PUSH1 0x3 PUSH1 0x0 SWAP1 SLOAD SWAP1 PUSH2 0x100 EXP SWAP1 DIV PUSH20 0xFFFFFFFFFFFFFFFFFFFFFFFFFFFFFFFFFFFFFFFF AND PUSH20 0xFFFFFFFFFFFFFFFFFFFFFFFFFFFFFFFFFFFFFFFF AND PUSH20 0xFFFFFFFFFFFFFFFFFFFFFFFFFFFFFFFFFFFFFFFF AND DUP2 MSTORE PUSH1 0x20 ADD SWAP1 DUP2 MSTORE PUSH1 0x20 ADD PUSH1 0x0 KECCAK256 PUSH1 0x0 PUSH2 0x100 EXP DUP2 SLOAD DUP2 PUSH1 0xFF MUL NOT AND SWAP1 DUP4 ISZERO ISZERO MUL OR SWAP1 SSTORE POP PUSH1 0x1 PUSH1 0x2 PUSH1 0x0 PUSH1 0x3 PUSH1 0x0 SWAP1 SLOAD SWAP1 PUSH2 0x100 EXP SWAP1 DIV PUSH20 0xFFFFFFFFFFFFFFFFFFFFFFFFFFFFFFFFFFFFFFFF AND PUSH20 0xFFFFFFFFFFFFFFFFFFFFFFFFFFFFFFFFFFFFFFFF AND PUSH20 0xFFFFFFFFFFFFFFFFFFFFFFFFFFFFFFFFFFFFFFFF AND DUP2 MSTORE PUSH1 0x20 ADD SWAP1 DUP2 MSTORE PUSH1 0x20 ADD PUSH1 0x0 KECCAK256 PUSH1 0x0 PUSH2 0x100 EXP DUP2 SLOAD DUP2 PUSH1 0xFF MUL NOT AND SWAP1 DUP4 ISZERO ISZERO MUL OR SWAP1 SSTORE POP PUSH1 0x1 DUP1 PUSH1 0x0 DUP1 PUSH20 0xFFFFFFFFFFFFFFFFFFFFFFFFFFFFFFFFFFFFFFFF AND PUSH20 0xFFFFFFFFFFFFFFFFFFFFFFFFFFFFFFFFFFFFFFFF AND DUP2 MSTORE PUSH1 0x20 ADD SWAP1 DUP2 MSTORE PUSH1 0x20 ADD PUSH1 0x0 KECCAK256 PUSH1 0x0 PUSH2 0x100 EXP DUP2 SLOAD DUP2 PUSH1 0xFF MUL NOT AND SWAP1 DUP4 ISZERO ISZERO MUL OR SWAP1 SSTORE POP PUSH3 0x2BF JUMP JUMPDEST PUSH1 0x0 DUP3 DUP3 MSTORE PUSH1 0x20 DUP3 ADD SWAP1 POP SWAP3 SWAP2 POP POP JUMP JUMPDEST PUSH32 0x4F70657261746F722063616E6E6F7420626520746865207A65726F2061646472 PUSH1 0x0 DUP3 ADD MSTORE PUSH32 0x6573732E00000000000000000000000000000000000000000000000000000000 PUSH1 0x20 DUP3 ADD MSTORE POP JUMP JUMPDEST PUSH1 0x0 PUSH3 0x285 PUSH1 0x24 DUP4 PUSH3 0x216 JUMP JUMPDEST SWAP2 POP PUSH3 0x292 DUP3 PUSH3 0x227 JUMP JUMPDEST PUSH1 0x40 DUP3 ADD SWAP1 POP SWAP2 SWAP1 POP JUMP JUMPDEST PUSH1 0x0 PUSH1 0x20 DUP3 ADD SWAP1 POP DUP2 DUP2 SUB PUSH1 0x0 DUP4 ADD MSTORE PUSH3 0x2B8 DUP2 PUSH3 0x276 JUMP JUMPDEST SWAP1 POP SWAP2 SWAP1 POP JUMP JUMPDEST PUSH2 0x1911 DUP1 PUSH3 0x2CF PUSH1 0x0 CODECOPY PUSH1 0x0 RETURN INVALID PUSH1 0x80 PUSH1 0x40 MSTORE CALLVALUE DUP1 ISZERO PUSH2 0x10 JUMPI PUSH1 0x0 DUP1 REVERT JUMPDEST POP PUSH1 0x4 CALLDATASIZE LT PUSH2 0xA9 JUMPI PUSH1 0x0 CALLDATALOAD PUSH1 0xE0 SHR DUP1 PUSH4 0x570CA735 GT PUSH2 0x71 JUMPI DUP1 PUSH4 0x570CA735 EQ PUSH2 0x13C JUMPI DUP1 PUSH4 0x70A08231 EQ PUSH2 0x15A JUMPI DUP1 PUSH4 0x9DC29FAC EQ PUSH2 0x18A JUMPI DUP1 PUSH4 0xB3AB15FB EQ PUSH2 0x1A6 JUMPI DUP1 PUSH4 0xD3DF65EE EQ PUSH2 0x1C2 JUMPI DUP1 PUSH4 0xF00EAAFC EQ PUSH2 0x1DE JUMPI PUSH2 0xA9 JUMP JUMPDEST DUP1 PUSH4 0x25C126E EQ PUSH2 0xAE JUMPI DUP1 PUSH4 0xCD8418D EQ PUSH2 0xCA JUMPI DUP1 PUSH4 0x18160DDD EQ PUSH2 0xE6 JUMPI DUP1 PUSH4 0x308B8C00 EQ PUSH2 0x104 JUMPI DUP1 PUSH4 0x40C10F19 EQ PUSH2 0x120 JUMPI JUMPDEST PUSH1 0x0 DUP1 REVERT JUMPDEST PUSH2 0xC8 PUSH1 0x4 DUP1 CALLDATASIZE SUB DUP2 ADD SWAP1 PUSH2 0xC3 SWAP2 SWAP1 PUSH2 0x109D JUMP JUMPDEST PUSH2 0x20E JUMP JUMPDEST STOP JUMPDEST PUSH2 0xE4 PUSH1 0x4 DUP1 CALLDATASIZE SUB DUP2 ADD SWAP1 PUSH2 0xDF SWAP2 SWAP1 PUSH2 0x1102 JUMP JUMPDEST PUSH2 0x353 JUMP JUMPDEST STOP JUMPDEST PUSH2 0xEE PUSH2 0x44B JUMP JUMPDEST PUSH1 0x40 MLOAD PUSH2 0xFB SWAP2 SWAP1 PUSH2 0x115B JUMP JUMPDEST PUSH1 0x40 MLOAD DUP1 SWAP2 SUB SWAP1 RETURN JUMPDEST PUSH2 0x11E PUSH1 0x4 DUP1 CALLDATASIZE SUB DUP2 ADD SWAP1 PUSH2 0x119 SWAP2 SWAP1 PUSH2 0x11A2 JUMP JUMPDEST PUSH2 0x455 JUMP JUMPDEST STOP JUMPDEST PUSH2 0x13A PUSH1 0x4 DUP1 CALLDATASIZE SUB DUP2 ADD SWAP1 PUSH2 0x135 SWAP2 SWAP1 PUSH2 0x11F5 JUMP JUMPDEST PUSH2 0x4BD JUMP JUMPDEST STOP JUMPDEST PUSH2 0x144 PUSH2 0x595 JUMP JUMPDEST PUSH1 0x40 MLOAD PUSH2 0x151 SWAP2 SWAP1 PUSH2 0x1244 JUMP JUMPDEST PUSH1 0x40 MLOAD DUP1 SWAP2 SUB SWAP1 RETURN JUMPDEST PUSH2 0x174 PUSH1 0x4 DUP1 CALLDATASIZE SUB DUP2 ADD SWAP1 PUSH2 0x16F SWAP2 SWAP1 PUSH2 0x109D JUMP JUMPDEST PUSH2 0x5BF JUMP JUMPDEST PUSH1 0x40 MLOAD PUSH2 0x181 SWAP2 SWAP1 PUSH2 0x115B JUMP JUMPDEST PUSH1 0x40 MLOAD DUP1 SWAP2 SUB SWAP1 RETURN JUMPDEST PUSH2 0x1A4 PUSH1 0x4 DUP1 CALLDATASIZE SUB DUP2 ADD SWAP1 PUSH2 0x19F SWAP2 SWAP1 PUSH2 0x11F5 JUMP JUMPDEST PUSH2 0x607 JUMP JUMPDEST STOP JUMPDEST PUSH2 0x1C0 PUSH1 0x4 DUP1 CALLDATASIZE SUB DUP2 ADD SWAP1 PUSH2 0x1BB SWAP2 SWAP1 PUSH2 0x109D JUMP JUMPDEST PUSH2 0x6DF JUMP JUMPDEST STOP JUMPDEST PUSH2 0x1DC PUSH1 0x4 DUP1 CALLDATASIZE SUB DUP2 ADD SWAP1 PUSH2 0x1D7 SWAP2 SWAP1 PUSH2 0x109D JUMP JUMPDEST PUSH2 0x77B JUMP JUMPDEST STOP JUMPDEST PUSH2 0x1F8 PUSH1 0x4 DUP1 CALLDATASIZE SUB DUP2 ADD SWAP1 PUSH2 0x1F3 SWAP2 SWAP1 PUSH2 0x109D JUMP JUMPDEST PUSH2 0x8C0 JUMP JUMPDEST PUSH1 0x40 MLOAD PUSH2 0x205 SWAP2 SWAP1 PUSH2 0x126E JUMP JUMPDEST PUSH1 0x40 MLOAD DUP1 SWAP2 SUB SWAP1 RETURN JUMPDEST PUSH1 0x3 PUSH1 0x0 SWAP1 SLOAD SWAP1 PUSH2 0x100 EXP SWAP1 DIV PUSH20 0xFFFFFFFFFFFFFFFFFFFFFFFFFFFFFFFFFFFFFFFF AND PUSH20 0xFFFFFFFFFFFFFFFFFFFFFFFFFFFFFFFFFFFFFFFF AND CALLER PUSH20 0xFFFFFFFFFFFFFFFFFFFFFFFFFFFFFFFFFFFFFFFF AND EQ PUSH2 0x29E JUMPI PUSH1 0x40 MLOAD PUSH32 0x8C379A000000000000000000000000000000000000000000000000000000000 DUP2 MSTORE PUSH1 0x4 ADD PUSH2 0x295 SWAP1 PUSH2 0x12E6 JUMP JUMPDEST PUSH1 0x40 MLOAD DUP1 SWAP2 SUB SWAP1 REVERT JUMPDEST PUSH1 0x3 PUSH1 0x0 SWAP1 SLOAD SWAP1 PUSH2 0x100 EXP SWAP1 DIV PUSH20 0xFFFFFFFFFFFFFFFFFFFFFFFFFFFFFFFFFFFFFFFF AND PUSH20 0xFFFFFFFFFFFFFFFFFFFFFFFFFFFFFFFFFFFFFFFF AND CALLER PUSH20 0xFFFFFFFFFFFFFFFFFFFFFFFFFFFFFFFFFFFFFFFF AND EQ PUSH2 0x2F8 JUMPI PUSH1 0x0 DUP1 REVERT JUMPDEST PUSH1 0x1 PUSH1 0x2 PUSH1 0x0 DUP4 PUSH20 0xFFFFFFFFFFFFFFFFFFFFFFFFFFFFFFFFFFFFFFFF AND PUSH20 0xFFFFFFFFFFFFFFFFFFFFFFFFFFFFFFFFFFFFFFFF AND DUP2 MSTORE PUSH1 0x20 ADD SWAP1 DUP2 MSTORE PUSH1 0x20 ADD PUSH1 0x0 KECCAK256 PUSH1 0x0 PUSH2 0x100 EXP DUP2 SLOAD DUP2 PUSH1 0xFF MUL NOT AND SWAP1 DUP4 ISZERO ISZERO MUL OR SWAP1 SSTORE POP POP JUMP JUMPDEST PUSH1 0x3 PUSH1 0x0 SWAP1 SLOAD SWAP1 PUSH2 0x100 EXP SWAP1 DIV PUSH20 0xFFFFFFFFFFFFFFFFFFFFFFFFFFFFFFFFFFFFFFFF AND PUSH20 0xFFFFFFFFFFFFFFFFFFFFFFFFFFFFFFFFFFFFFFFF AND CALLER PUSH20 0xFFFFFFFFFFFFFFFFFFFFFFFFFFFFFFFFFFFFFFFF AND EQ PUSH2 0x3E3 JUMPI PUSH1 0x40 MLOAD PUSH32 0x8C379A000000000000000000000000000000000000000000000000000000000 DUP2 MSTORE PUSH1 0x4 ADD PUSH2 0x3DA SWAP1 PUSH2 0x12E6 JUMP JUMPDEST PUSH1 0x40 MLOAD DUP1 SWAP2 SUB SWAP1 REVERT JUMPDEST PUSH1 0x3 PUSH1 0x0 SWAP1 SLOAD SWAP1 PUSH2 0x100 EXP SWAP1 DIV PUSH20 0xFFFFFFFFFFFFFFFFFFFFFFFFFFFFFFFFFFFFFFFF AND PUSH20 0xFFFFFFFFFFFFFFFFFFFFFFFFFFFFFFFFFFFFFFFF AND CALLER PUSH20 0xFFFFFFFFFFFFFFFFFFFFFFFFFFFFFFFFFFFFFFFF AND EQ PUSH2 0x43D JUMPI PUSH1 0x0 DUP1 REVERT JUMPDEST PUSH2 0x447 DUP3 DUP3 PUSH2 0x916 JUMP JUMPDEST POP POP JUMP JUMPDEST PUSH1 0x0 PUSH1 0x4 SLOAD SWAP1 POP SWAP1 JUMP JUMPDEST CALLER PUSH1 0x2 PUSH1 0x0 DUP3 PUSH20 0xFFFFFFFFFFFFFFFFFFFFFFFFFFFFFFFFFFFFFFFF AND PUSH20 0xFFFFFFFFFFFFFFFFFFFFFFFFFFFFFFFFFFFFFFFF AND DUP2 MSTORE PUSH1 0x20 ADD SWAP1 DUP2 MSTORE PUSH1 0x20 ADD PUSH1 0x0 KECCAK256 PUSH1 0x0 SWAP1 SLOAD SWAP1 PUSH2 0x100 EXP SWAP1 DIV PUSH1 0xFF AND PUSH2 0x4AC JUMPI PUSH1 0x0 DUP1 REVERT JUMPDEST PUSH2 0x4B7 DUP5 DUP5 DUP5 PUSH2 0xB52 JUMP JUMPDEST POP POP POP POP JUMP JUMPDEST CALLER PUSH1 0x2 PUSH1 0x0 DUP3 PUSH20 0xFFFFFFFFFFFFFFFFFFFFFFFFFFFFFFFFFFFFFFFF AND PUSH20 0xFFFFFFFFFFFFFFFFFFFFFFFFFFFFFFFFFFFFFFFF AND DUP2 MSTORE PUSH1 0x20 ADD SWAP1 DUP2 MSTORE PUSH1 0x20 ADD PUSH1 0x0 KECCAK256 PUSH1 0x0 SWAP1 SLOAD SWAP1 PUSH2 0x100 EXP SWAP1 DIV PUSH1 0xFF AND PUSH2 0x514 JUMPI PUSH1 0x0 DUP1 REVERT JUMPDEST PUSH1 0x0 PUSH20 0xFFFFFFFFFFFFFFFFFFFFFFFFFFFFFFFFFFFFFFFF AND DUP4 PUSH20 0xFFFFFFFFFFFFFFFFFFFFFFFFFFFFFFFFFFFFFFFF AND EQ ISZERO PUSH2 0x584 JUMPI PUSH1 0x40 MLOAD PUSH32 0x8C379A000000000000000000000000000000000000000000000000000000000 DUP2 MSTORE PUSH1 0x4 ADD PUSH2 0x57B SWAP1 PUSH2 0x1352 JUMP JUMPDEST PUSH1 0x40 MLOAD DUP1 SWAP2 SUB SWAP1 REVERT JUMPDEST PUSH2 0x590 PUSH1 0x0 DUP5 DUP5 PUSH2 0xB52 JUMP JUMPDEST POP POP POP JUMP JUMPDEST PUSH1 0x0 PUSH1 0x3 PUSH1 0x0 SWAP1 SLOAD SWAP1 PUSH2 0x100 EXP SWAP1 DIV PUSH20 0xFFFFFFFFFFFFFFFFFFFFFFFFFFFFFFFFFFFFFFFF AND SWAP1 POP SWAP1 JUMP JUMPDEST PUSH1 0x0 DUP1 PUSH1 0x0 DUP4 PUSH20 0xFFFFFFFFFFFFFFFFFFFFFFFFFFFFFFFFFFFFFFFF AND PUSH20 0xFFFFFFFFFFFFFFFFFFFFFFFFFFFFFFFFFFFFFFFF AND DUP2 MSTORE PUSH1 0x20 ADD SWAP1 DUP2 MSTORE PUSH1 0x20 ADD PUSH1 0x0 KECCAK256 SLOAD SWAP1 POP SWAP2 SWAP1 POP JUMP JUMPDEST CALLER PUSH1 0x2 PUSH1 0x0 DUP3 PUSH20 0xFFFFFFFFFFFFFFFFFFFFFFFFFFFFFFFFFFFFFFFF AND PUSH20 0xFFFFFFFFFFFFFFFFFFFFFFFFFFFFFFFFFFFFFFFF AND DUP2 MSTORE PUSH1 0x20 ADD SWAP1 DUP2 MSTORE PUSH1 0x20 ADD PUSH1 0x0 KECCAK256 PUSH1 0x0 SWAP1 SLOAD SWAP1 PUSH2 0x100 EXP SWAP1 DIV PUSH1 0xFF AND PUSH2 0x65E JUMPI PUSH1 0x0 DUP1 REVERT JUMPDEST PUSH1 0x0 PUSH20 0xFFFFFFFFFFFFFFFFFFFFFFFFFFFFFFFFFFFFFFFF AND DUP4 PUSH20 0xFFFFFFFFFFFFFFFFFFFFFFFFFFFFFFFFFFFFFFFF AND EQ ISZERO PUSH2 0x6CE JUMPI PUSH1 0x40 MLOAD PUSH32 0x8C379A000000000000000000000000000000000000000000000000000000000 DUP2 MSTORE PUSH1 0x4 ADD PUSH2 0x6C5 SWAP1 PUSH2 0x13BE JUMP JUMPDEST PUSH1 0x40 MLOAD DUP1 SWAP2 SUB SWAP1 REVERT JUMPDEST PUSH2 0x6DA DUP4 PUSH1 0x0 DUP5 PUSH2 0xB52 JUMP JUMPDEST POP POP POP JUMP JUMPDEST PUSH1 0x3 PUSH1 0x0 SWAP1 SLOAD SWAP1 PUSH2 0x100 EXP SWAP1 DIV PUSH20 0xFFFFFFFFFFFFFFFFFFFFFFFFFFFFFFFFFFFFFFFF AND PUSH20 0xFFFFFFFFFFFFFFFFFFFFFFFFFFFFFFFFFFFFFFFF AND CALLER PUSH20 0xFFFFFFFFFFFFFFFFFFFFFFFFFFFFFFFFFFFFFFFF AND EQ PUSH2 0x76F JUMPI PUSH1 0x40 MLOAD PUSH32 0x8C379A000000000000000000000000000000000000000000000000000000000 DUP2 MSTORE PUSH1 0x4 ADD PUSH2 0x766 SWAP1 PUSH2 0x12E6 JUMP JUMPDEST PUSH1 0x40 MLOAD DUP1 SWAP2 SUB SWAP1 REVERT JUMPDEST PUSH2 0x778 DUP2 PUSH2 0xEB2 JUMP JUMPDEST POP JUMP JUMPDEST PUSH1 0x3 PUSH1 0x0 SWAP1 SLOAD SWAP1 PUSH2 0x100 EXP SWAP1 DIV PUSH20 0xFFFFFFFFFFFFFFFFFFFFFFFFFFFFFFFFFFFFFFFF AND PUSH20 0xFFFFFFFFFFFFFFFFFFFFFFFFFFFFFFFFFFFFFFFF AND CALLER PUSH20 0xFFFFFFFFFFFFFFFFFFFFFFFFFFFFFFFFFFFFFFFF AND EQ PUSH2 0x80B JUMPI PUSH1 0x40 MLOAD PUSH32 0x8C379A000000000000000000000000000000000000000000000000000000000 DUP2 MSTORE PUSH1 0x4 ADD PUSH2 0x802 SWAP1 PUSH2 0x12E6 JUMP JUMPDEST PUSH1 0x40 MLOAD DUP1 SWAP2 SUB SWAP1 REVERT JUMPDEST PUSH1 0x3 PUSH1 0x0 SWAP1 SLOAD SWAP1 PUSH2 0x100 EXP SWAP1 DIV PUSH20 0xFFFFFFFFFFFFFFFFFFFFFFFFFFFFFFFFFFFFFFFF AND PUSH20 0xFFFFFFFFFFFFFFFFFFFFFFFFFFFFFFFFFFFFFFFF AND CALLER PUSH20 0xFFFFFFFFFFFFFFFFFFFFFFFFFFFFFFFFFFFFFFFF AND EQ PUSH2 0x865 JUMPI PUSH1 0x0 DUP1 REVERT JUMPDEST PUSH1 0x0 PUSH1 0x2 PUSH1 0x0 DUP4 PUSH20 0xFFFFFFFFFFFFFFFFFFFFFFFFFFFFFFFFFFFFFFFF AND PUSH20 0xFFFFFFFFFFFFFFFFFFFFFFFFFFFFFFFFFFFFFFFF AND DUP2 MSTORE PUSH1 0x20 ADD SWAP1 DUP2 MSTORE PUSH1 0x20 ADD PUSH1 0x0 KECCAK256 PUSH1 0x0 PUSH2 0x100 EXP DUP2 SLOAD DUP2 PUSH1 0xFF MUL NOT AND SWAP1 DUP4 ISZERO ISZERO MUL OR SWAP1 SSTORE POP POP JUMP JUMPDEST PUSH1 0x0 PUSH1 0x1 PUSH1 0x0 DUP4 PUSH20 0xFFFFFFFFFFFFFFFFFFFFFFFFFFFFFFFFFFFFFFFF AND PUSH20 0xFFFFFFFFFFFFFFFFFFFFFFFFFFFFFFFFFFFFFFFF AND DUP2 MSTORE PUSH1 0x20 ADD SWAP1 DUP2 MSTORE PUSH1 0x20 ADD PUSH1 0x0 KECCAK256 PUSH1 0x0 SWAP1 SLOAD SWAP1 PUSH2 0x100 EXP SWAP1 DIV PUSH1 0xFF AND SWAP1 POP SWAP2 SWAP1 POP JUMP JUMPDEST PUSH1 0x3 PUSH1 0x0 SWAP1 SLOAD SWAP1 PUSH2 0x100 EXP SWAP1 DIV PUSH20 0xFFFFFFFFFFFFFFFFFFFFFFFFFFFFFFFFFFFFFFFF AND PUSH20 0xFFFFFFFFFFFFFFFFFFFFFFFFFFFFFFFFFFFFFFFF AND CALLER PUSH20 0xFFFFFFFFFFFFFFFFFFFFFFFFFFFFFFFFFFFFFFFF AND EQ PUSH2 0x9A6 JUMPI PUSH1 0x40 MLOAD PUSH32 0x8C379A000000000000000000000000000000000000000000000000000000000 DUP2 MSTORE PUSH1 0x4 ADD PUSH2 0x99D SWAP1 PUSH2 0x1450 JUMP JUMPDEST PUSH1 0x40 MLOAD DUP1 SWAP2 SUB SWAP1 REVERT JUMPDEST PUSH1 0x0 PUSH20 0xFFFFFFFFFFFFFFFFFFFFFFFFFFFFFFFFFFFFFFFF AND DUP3 PUSH20 0xFFFFFFFFFFFFFFFFFFFFFFFFFFFFFFFFFFFFFFFF AND EQ ISZERO PUSH2 0xA16 JUMPI PUSH1 0x40 MLOAD PUSH32 0x8C379A000000000000000000000000000000000000000000000000000000000 DUP2 MSTORE PUSH1 0x4 ADD PUSH2 0xA0D SWAP1 PUSH2 0x14BC JUMP JUMPDEST PUSH1 0x40 MLOAD DUP1 SWAP2 SUB SWAP1 REVERT JUMPDEST DUP1 ISZERO ISZERO PUSH1 0x1 PUSH1 0x0 DUP5 PUSH20 0xFFFFFFFFFFFFFFFFFFFFFFFFFFFFFFFFFFFFFFFF AND PUSH20 0xFFFFFFFFFFFFFFFFFFFFFFFFFFFFFFFFFFFFFFFF AND DUP2 MSTORE PUSH1 0x20 ADD SWAP1 DUP2 MSTORE PUSH1 0x20 ADD PUSH1 0x0 KECCAK256 PUSH1 0x0 SWAP1 SLOAD SWAP1 PUSH2 0x100 EXP SWAP1 DIV PUSH1 0xFF AND ISZERO ISZERO EQ ISZERO PUSH2 0xAA9 JUMPI PUSH1 0x40 MLOAD PUSH32 0x8C379A000000000000000000000000000000000000000000000000000000000 DUP2 MSTORE PUSH1 0x4 ADD PUSH2 0xAA0 SWAP1 PUSH2 0x154E JUMP JUMPDEST PUSH1 0x40 MLOAD DUP1 SWAP2 SUB SWAP1 REVERT JUMPDEST DUP1 PUSH1 0x1 PUSH1 0x0 DUP5 PUSH20 0xFFFFFFFFFFFFFFFFFFFFFFFFFFFFFFFFFFFFFFFF AND PUSH20 0xFFFFFFFFFFFFFFFFFFFFFFFFFFFFFFFFFFFFFFFF AND DUP2 MSTORE PUSH1 0x20 ADD SWAP1 DUP2 MSTORE PUSH1 0x20 ADD PUSH1 0x0 KECCAK256 PUSH1 0x0 PUSH2 0x100 EXP DUP2 SLOAD DUP2 PUSH1 0xFF MUL NOT AND SWAP1 DUP4 ISZERO ISZERO MUL OR SWAP1 SSTORE POP DUP2 PUSH20 0xFFFFFFFFFFFFFFFFFFFFFFFFFFFFFFFFFFFFFFFF AND PUSH32 0x2C41D9AF4701C767A5661C887F466DD2DDFBA0572128A2CC04D43BD623445061 DUP3 PUSH1 0x40 MLOAD PUSH2 0xB46 SWAP2 SWAP1 PUSH2 0x126E JUMP JUMPDEST PUSH1 0x40 MLOAD DUP1 SWAP2 SUB SWAP1 LOG2 POP POP JUMP JUMPDEST PUSH1 0x3 PUSH1 0x0 SWAP1 SLOAD SWAP1 PUSH2 0x100 EXP SWAP1 DIV PUSH20 0xFFFFFFFFFFFFFFFFFFFFFFFFFFFFFFFFFFFFFFFF AND PUSH20 0xFFFFFFFFFFFFFFFFFFFFFFFFFFFFFFFFFFFFFFFF AND CALLER PUSH20 0xFFFFFFFFFFFFFFFFFFFFFFFFFFFFFFFFFFFFFFFF AND EQ PUSH2 0xBE2 JUMPI PUSH1 0x40 MLOAD PUSH32 0x8C379A000000000000000000000000000000000000000000000000000000000 DUP2 MSTORE PUSH1 0x4 ADD PUSH2 0xBD9 SWAP1 PUSH2 0x15BA JUMP JUMPDEST PUSH1 0x40 MLOAD DUP1 SWAP2 SUB SWAP1 REVERT JUMPDEST PUSH1 0x1 ISZERO ISZERO PUSH1 0x1 PUSH1 0x0 DUP5 PUSH20 0xFFFFFFFFFFFFFFFFFFFFFFFFFFFFFFFFFFFFFFFF AND PUSH20 0xFFFFFFFFFFFFFFFFFFFFFFFFFFFFFFFFFFFFFFFF AND DUP2 MSTORE PUSH1 0x20 ADD SWAP1 DUP2 MSTORE PUSH1 0x20 ADD PUSH1 0x0 KECCAK256 PUSH1 0x0 SWAP1 SLOAD SWAP1 PUSH2 0x100 EXP SWAP1 DIV PUSH1 0xFF AND ISZERO ISZERO EQ PUSH2 0xC75 JUMPI PUSH1 0x40 MLOAD PUSH32 0x8C379A000000000000000000000000000000000000000000000000000000000 DUP2 MSTORE PUSH1 0x4 ADD PUSH2 0xC6C SWAP1 PUSH2 0x164C JUMP JUMPDEST PUSH1 0x40 MLOAD DUP1 SWAP2 SUB SWAP1 REVERT JUMPDEST PUSH1 0x0 PUSH20 0xFFFFFFFFFFFFFFFFFFFFFFFFFFFFFFFFFFFFFFFF AND DUP4 PUSH20 0xFFFFFFFFFFFFFFFFFFFFFFFFFFFFFFFFFFFFFFFF AND EQ ISZERO PUSH2 0xCC8 JUMPI DUP1 PUSH1 0x4 PUSH1 0x0 DUP3 DUP3 SLOAD PUSH2 0xCBC SWAP2 SWAP1 PUSH2 0x169B JUMP JUMPDEST SWAP3 POP POP DUP2 SWAP1 SSTORE POP PUSH2 0xDF3 JUMP JUMPDEST PUSH1 0x0 PUSH20 0xFFFFFFFFFFFFFFFFFFFFFFFFFFFFFFFFFFFFFFFF AND DUP3 PUSH20 0xFFFFFFFFFFFFFFFFFFFFFFFFFFFFFFFFFFFFFFFF AND EQ ISZERO PUSH2 0xD1B JUMPI DUP1 PUSH1 0x4 PUSH1 0x0 DUP3 DUP3 SLOAD PUSH2 0xD0F SWAP2 SWAP1 PUSH2 0x16F1 JUMP JUMPDEST SWAP3 POP POP DUP2 SWAP1 SSTORE POP PUSH2 0xDF2 JUMP JUMPDEST DUP1 PUSH1 0x0 DUP1 DUP6 PUSH20 0xFFFFFFFFFFFFFFFFFFFFFFFFFFFFFFFFFFFFFFFF AND PUSH20 0xFFFFFFFFFFFFFFFFFFFFFFFFFFFFFFFFFFFFFFFF AND DUP2 MSTORE PUSH1 0x20 ADD SWAP1 DUP2 MSTORE PUSH1 0x20 ADD PUSH1 0x0 KECCAK256 SLOAD LT ISZERO PUSH2 0xD9C JUMPI PUSH1 0x40 MLOAD PUSH32 0x8C379A000000000000000000000000000000000000000000000000000000000 DUP2 MSTORE PUSH1 0x4 ADD PUSH2 0xD93 SWAP1 PUSH2 0x1797 JUMP JUMPDEST PUSH1 0x40 MLOAD DUP1 SWAP2 SUB SWAP1 REVERT JUMPDEST DUP1 PUSH1 0x0 DUP1 DUP6 PUSH20 0xFFFFFFFFFFFFFFFFFFFFFFFFFFFFFFFFFFFFFFFF AND PUSH20 0xFFFFFFFFFFFFFFFFFFFFFFFFFFFFFFFFFFFFFFFF AND DUP2 MSTORE PUSH1 0x20 ADD SWAP1 DUP2 MSTORE PUSH1 0x20 ADD PUSH1 0x0 KECCAK256 PUSH1 0x0 DUP3 DUP3 SLOAD PUSH2 0xDEA SWAP2 SWAP1 PUSH2 0x16F1 JUMP JUMPDEST SWAP3 POP POP DUP2 SWAP1 SSTORE POP JUMPDEST JUMPDEST DUP1 PUSH1 0x0 DUP1 DUP5 PUSH20 0xFFFFFFFFFFFFFFFFFFFFFFFFFFFFFFFFFFFFFFFF AND PUSH20 0xFFFFFFFFFFFFFFFFFFFFFFFFFFFFFFFFFFFFFFFF AND DUP2 MSTORE PUSH1 0x20 ADD SWAP1 DUP2 MSTORE PUSH1 0x20 ADD PUSH1 0x0 KECCAK256 PUSH1 0x0 DUP3 DUP3 SLOAD PUSH2 0xE41 SWAP2 SWAP1 PUSH2 0x169B JUMP JUMPDEST SWAP3 POP POP DUP2 SWAP1 SSTORE POP DUP2 PUSH20 0xFFFFFFFFFFFFFFFFFFFFFFFFFFFFFFFFFFFFFFFF AND DUP4 PUSH20 0xFFFFFFFFFFFFFFFFFFFFFFFFFFFFFFFFFFFFFFFF AND PUSH32 0xDDF252AD1BE2C89B69C2B068FC378DAA952BA7F163C4A11628F55A4DF523B3EF DUP4 PUSH1 0x40 MLOAD PUSH2 0xEA5 SWAP2 SWAP1 PUSH2 0x115B JUMP JUMPDEST PUSH1 0x40 MLOAD DUP1 SWAP2 SUB SWAP1 LOG3 POP POP POP JUMP JUMPDEST PUSH1 0x0 PUSH20 0xFFFFFFFFFFFFFFFFFFFFFFFFFFFFFFFFFFFFFFFF AND DUP2 PUSH20 0xFFFFFFFFFFFFFFFFFFFFFFFFFFFFFFFFFFFFFFFF AND EQ ISZERO PUSH2 0xF22 JUMPI PUSH1 0x40 MLOAD PUSH32 0x8C379A000000000000000000000000000000000000000000000000000000000 DUP2 MSTORE PUSH1 0x4 ADD PUSH2 0xF19 SWAP1 PUSH2 0x1829 JUMP JUMPDEST PUSH1 0x40 MLOAD DUP1 SWAP2 SUB SWAP1 REVERT JUMPDEST DUP1 PUSH20 0xFFFFFFFFFFFFFFFFFFFFFFFFFFFFFFFFFFFFFFFF AND PUSH1 0x3 PUSH1 0x0 SWAP1 SLOAD SWAP1 PUSH2 0x100 EXP SWAP1 DIV PUSH20 0xFFFFFFFFFFFFFFFFFFFFFFFFFFFFFFFFFFFFFFFF AND PUSH20 0xFFFFFFFFFFFFFFFFFFFFFFFFFFFFFFFFFFFFFFFF AND EQ ISZERO PUSH2 0xFB3 JUMPI PUSH1 0x40 MLOAD PUSH32 0x8C379A000000000000000000000000000000000000000000000000000000000 DUP2 MSTORE PUSH1 0x4 ADD PUSH2 0xFAA SWAP1 PUSH2 0x18BB JUMP JUMPDEST PUSH1 0x40 MLOAD DUP1 SWAP2 SUB SWAP1 REVERT JUMPDEST DUP1 PUSH1 0x3 PUSH1 0x0 PUSH2 0x100 EXP DUP2 SLOAD DUP2 PUSH20 0xFFFFFFFFFFFFFFFFFFFFFFFFFFFFFFFFFFFFFFFF MUL NOT AND SWAP1 DUP4 PUSH20 0xFFFFFFFFFFFFFFFFFFFFFFFFFFFFFFFFFFFFFFFF AND MUL OR SWAP1 SSTORE POP DUP1 PUSH20 0xFFFFFFFFFFFFFFFFFFFFFFFFFFFFFFFFFFFFFFFF AND PUSH32 0x235B4D5C4596AF250D851D446F469C532805433B6138B8C7AD6FCDCD07B9DB27 PUSH1 0x40 MLOAD PUSH1 0x40 MLOAD DUP1 SWAP2 SUB SWAP1 LOG2 POP JUMP JUMPDEST PUSH1 0x0 DUP1 REVERT JUMPDEST PUSH1 0x0 PUSH20 0xFFFFFFFFFFFFFFFFFFFFFFFFFFFFFFFFFFFFFFFF DUP3 AND SWAP1 POP SWAP2 SWAP1 POP JUMP JUMPDEST PUSH1 0x0 PUSH2 0x106A DUP3 PUSH2 0x103F JUMP JUMPDEST SWAP1 POP SWAP2 SWAP1 POP JUMP JUMPDEST PUSH2 0x107A DUP2 PUSH2 0x105F JUMP JUMPDEST DUP2 EQ PUSH2 0x1085 JUMPI PUSH1 0x0 DUP1 REVERT JUMPDEST POP JUMP JUMPDEST PUSH1 0x0 DUP2 CALLDATALOAD SWAP1 POP PUSH2 0x1097 DUP2 PUSH2 0x1071 JUMP JUMPDEST SWAP3 SWAP2 POP POP JUMP JUMPDEST PUSH1 0x0 PUSH1 0x20 DUP3 DUP5 SUB SLT ISZERO PUSH2 0x10B3 JUMPI PUSH2 0x10B2 PUSH2 0x103A JUMP JUMPDEST JUMPDEST PUSH1 0x0 PUSH2 0x10C1 DUP5 DUP3 DUP6 ADD PUSH2 0x1088 JUMP JUMPDEST SWAP2 POP POP SWAP3 SWAP2 POP POP JUMP JUMPDEST PUSH1 0x0 DUP2 ISZERO ISZERO SWAP1 POP SWAP2 SWAP1 POP JUMP JUMPDEST PUSH2 0x10DF DUP2 PUSH2 0x10CA JUMP JUMPDEST DUP2 EQ PUSH2 0x10EA JUMPI PUSH1 0x0 DUP1 REVERT JUMPDEST POP JUMP JUMPDEST PUSH1 0x0 DUP2 CALLDATALOAD SWAP1 POP PUSH2 0x10FC DUP2 PUSH2 0x10D6 JUMP JUMPDEST SWAP3 SWAP2 POP POP JUMP JUMPDEST PUSH1 0x0 DUP1 PUSH1 0x40 DUP4 DUP6 SUB SLT ISZERO PUSH2 0x1119 JUMPI PUSH2 0x1118 PUSH2 0x103A JUMP JUMPDEST JUMPDEST PUSH1 0x0 PUSH2 0x1127 DUP6 DUP3 DUP7 ADD PUSH2 0x1088 JUMP JUMPDEST SWAP3 POP POP PUSH1 0x20 PUSH2 0x1138 DUP6 DUP3 DUP7 ADD PUSH2 0x10ED JUMP JUMPDEST SWAP2 POP POP SWAP3 POP SWAP3 SWAP1 POP JUMP JUMPDEST PUSH1 0x0 DUP2 SWAP1 POP SWAP2 SWAP1 POP JUMP JUMPDEST PUSH2 0x1155 DUP2 PUSH2 0x1142 JUMP JUMPDEST DUP3 MSTORE POP POP JUMP JUMPDEST PUSH1 0x0 PUSH1 0x20 DUP3 ADD SWAP1 POP PUSH2 0x1170 PUSH1 0x0 DUP4 ADD DUP5 PUSH2 0x114C JUMP JUMPDEST SWAP3 SWAP2 POP POP JUMP JUMPDEST PUSH2 0x117F DUP2 PUSH2 0x1142 JUMP JUMPDEST DUP2 EQ PUSH2 0x118A JUMPI PUSH1 0x0 DUP1 REVERT JUMPDEST POP JUMP JUMPDEST PUSH1 0x0 DUP2 CALLDATALOAD SWAP1 POP PUSH2 0x119C DUP2 PUSH2 0x1176 JUMP JUMPDEST SWAP3 SWAP2 POP POP JUMP JUMPDEST PUSH1 0x0 DUP1 PUSH1 0x0 PUSH1 0x60 DUP5 DUP7 SUB SLT ISZERO PUSH2 0x11BB JUMPI PUSH2 0x11BA PUSH2 0x103A JUMP JUMPDEST JUMPDEST PUSH1 0x0 PUSH2 0x11C9 DUP7 DUP3 DUP8 ADD PUSH2 0x1088 JUMP JUMPDEST SWAP4 POP POP PUSH1 0x20 PUSH2 0x11DA DUP7 DUP3 DUP8 ADD PUSH2 0x1088 JUMP JUMPDEST SWAP3 POP POP PUSH1 0x40 PUSH2 0x11EB DUP7 DUP3 DUP8 ADD PUSH2 0x118D JUMP JUMPDEST SWAP2 POP POP SWAP3 POP SWAP3 POP SWAP3 JUMP JUMPDEST PUSH1 0x0 DUP1 PUSH1 0x40 DUP4 DUP6 SUB SLT ISZERO PUSH2 0x120C JUMPI PUSH2 0x120B PUSH2 0x103A JUMP JUMPDEST JUMPDEST PUSH1 0x0 PUSH2 0x121A DUP6 DUP3 DUP7 ADD PUSH2 0x1088 JUMP JUMPDEST SWAP3 POP POP PUSH1 0x20 PUSH2 0x122B DUP6 DUP3 DUP7 ADD PUSH2 0x118D JUMP JUMPDEST SWAP2 POP POP SWAP3 POP SWAP3 SWAP1 POP JUMP JUMPDEST PUSH2 0x123E DUP2 PUSH2 0x105F JUMP JUMPDEST DUP3 MSTORE POP POP JUMP JUMPDEST PUSH1 0x0 PUSH1 0x20 DUP3 ADD SWAP1 POP PUSH2 0x1259 PUSH1 0x0 DUP4 ADD DUP5 PUSH2 0x1235 JUMP JUMPDEST SWAP3 SWAP2 POP POP JUMP JUMPDEST PUSH2 0x1268 DUP2 PUSH2 0x10CA JUMP JUMPDEST DUP3 MSTORE POP POP JUMP JUMPDEST PUSH1 0x0 PUSH1 0x20 DUP3 ADD SWAP1 POP PUSH2 0x1283 PUSH1 0x0 DUP4 ADD DUP5 PUSH2 0x125F JUMP JUMPDEST SWAP3 SWAP2 POP POP JUMP JUMPDEST PUSH1 0x0 DUP3 DUP3 MSTORE PUSH1 0x20 DUP3 ADD SWAP1 POP SWAP3 SWAP2 POP POP JUMP JUMPDEST PUSH32 0x596F75206D75737420626520746865206F70657261746F720000000000000000 PUSH1 0x0 DUP3 ADD MSTORE POP JUMP JUMPDEST PUSH1 0x0 PUSH2 0x12D0 PUSH1 0x18 DUP4 PUSH2 0x1289 JUMP JUMPDEST SWAP2 POP PUSH2 0x12DB DUP3 PUSH2 0x129A JUMP JUMPDEST PUSH1 0x20 DUP3 ADD SWAP1 POP SWAP2 SWAP1 POP JUMP JUMPDEST PUSH1 0x0 PUSH1 0x20 DUP3 ADD SWAP1 POP DUP2 DUP2 SUB PUSH1 0x0 DUP4 ADD MSTORE PUSH2 0x12FF DUP2 PUSH2 0x12C3 JUMP JUMPDEST SWAP1 POP SWAP2 SWAP1 POP JUMP JUMPDEST PUSH32 0x43616E6E6F74206D696E7420746F20746865207A65726F20616464726573732E PUSH1 0x0 DUP3 ADD MSTORE POP JUMP JUMPDEST PUSH1 0x0 PUSH2 0x133C PUSH1 0x20 DUP4 PUSH2 0x1289 JUMP JUMPDEST SWAP2 POP PUSH2 0x1347 DUP3 PUSH2 0x1306 JUMP JUMPDEST PUSH1 0x20 DUP3 ADD SWAP1 POP SWAP2 SWAP1 POP JUMP JUMPDEST PUSH1 0x0 PUSH1 0x20 DUP3 ADD SWAP1 POP DUP2 DUP2 SUB PUSH1 0x0 DUP4 ADD MSTORE PUSH2 0x136B DUP2 PUSH2 0x132F JUMP JUMPDEST SWAP1 POP SWAP2 SWAP1 POP JUMP JUMPDEST PUSH32 0x43616E6E6F74206275726E20746F20746865207A65726F20616464726573732E PUSH1 0x0 DUP3 ADD MSTORE POP JUMP JUMPDEST PUSH1 0x0 PUSH2 0x13A8 PUSH1 0x20 DUP4 PUSH2 0x1289 JUMP JUMPDEST SWAP2 POP PUSH2 0x13B3 DUP3 PUSH2 0x1372 JUMP JUMPDEST PUSH1 0x20 DUP3 ADD SWAP1 POP SWAP2 SWAP1 POP JUMP JUMPDEST PUSH1 0x0 PUSH1 0x20 DUP3 ADD SWAP1 POP DUP2 DUP2 SUB PUSH1 0x0 DUP4 ADD MSTORE PUSH2 0x13D7 DUP2 PUSH2 0x139B JUMP JUMPDEST SWAP1 POP SWAP2 SWAP1 POP JUMP JUMPDEST PUSH32 0x4F70657261746F722063616E6E6F74206368616E676520706172746963697061 PUSH1 0x0 DUP3 ADD MSTORE PUSH32 0x74696F6E00000000000000000000000000000000000000000000000000000000 PUSH1 0x20 DUP3 ADD MSTORE POP JUMP JUMPDEST PUSH1 0x0 PUSH2 0x143A PUSH1 0x24 DUP4 PUSH2 0x1289 JUMP JUMPDEST SWAP2 POP PUSH2 0x1445 DUP3 PUSH2 0x13DE JUMP JUMPDEST PUSH1 0x40 DUP3 ADD SWAP1 POP SWAP2 SWAP1 POP JUMP JUMPDEST PUSH1 0x0 PUSH1 0x20 DUP3 ADD SWAP1 POP DUP2 DUP2 SUB PUSH1 0x0 DUP4 ADD MSTORE PUSH2 0x1469 DUP2 PUSH2 0x142D JUMP JUMPDEST SWAP1 POP SWAP2 SWAP1 POP JUMP JUMPDEST PUSH32 0x5A65726F20616464726573732063616E6E6F742062652072656D6F7665642E00 PUSH1 0x0 DUP3 ADD MSTORE POP JUMP JUMPDEST PUSH1 0x0 PUSH2 0x14A6 PUSH1 0x1F DUP4 PUSH2 0x1289 JUMP JUMPDEST SWAP2 POP PUSH2 0x14B1 DUP3 PUSH2 0x1470 JUMP JUMPDEST PUSH1 0x20 DUP3 ADD SWAP1 POP SWAP2 SWAP1 POP JUMP JUMPDEST PUSH1 0x0 PUSH1 0x20 DUP3 ADD SWAP1 POP DUP2 DUP2 SUB PUSH1 0x0 DUP4 ADD MSTORE PUSH2 0x14D5 DUP2 PUSH2 0x1499 JUMP JUMPDEST SWAP1 POP SWAP2 SWAP1 POP JUMP JUMPDEST PUSH32 0x5061727469636970616E7420616C726561647920686173207B70617274696369 PUSH1 0x0 DUP3 ADD MSTORE PUSH32 0x706174696F6E7D20737461747573000000000000000000000000000000000000 PUSH1 0x20 DUP3 ADD MSTORE POP JUMP JUMPDEST PUSH1 0x0 PUSH2 0x1538 PUSH1 0x2E DUP4 PUSH2 0x1289 JUMP JUMPDEST SWAP2 POP PUSH2 0x1543 DUP3 PUSH2 0x14DC JUMP JUMPDEST PUSH1 0x40 DUP3 ADD SWAP1 POP SWAP2 SWAP1 POP JUMP JUMPDEST PUSH1 0x0 PUSH1 0x20 DUP3 ADD SWAP1 POP DUP2 DUP2 SUB PUSH1 0x0 DUP4 ADD MSTORE PUSH2 0x1567 DUP2 PUSH2 0x152B JUMP JUMPDEST SWAP1 POP SWAP2 SWAP1 POP JUMP JUMPDEST PUSH32 0x53656E646572206973206E6F7420746865206F70657261746F722E0000000000 PUSH1 0x0 DUP3 ADD MSTORE POP JUMP JUMPDEST PUSH1 0x0 PUSH2 0x15A4 PUSH1 0x1B DUP4 PUSH2 0x1289 JUMP JUMPDEST SWAP2 POP PUSH2 0x15AF DUP3 PUSH2 0x156E JUMP JUMPDEST PUSH1 0x20 DUP3 ADD SWAP1 POP SWAP2 SWAP1 POP JUMP JUMPDEST PUSH1 0x0 PUSH1 0x20 DUP3 ADD SWAP1 POP DUP2 DUP2 SUB PUSH1 0x0 DUP4 ADD MSTORE PUSH2 0x15D3 DUP2 PUSH2 0x1597 JUMP JUMPDEST SWAP1 POP SWAP2 SWAP1 POP JUMP JUMPDEST PUSH32 0x7B746F7D2061646472657373206973206E6F7420616E20616374697665207061 PUSH1 0x0 DUP3 ADD MSTORE PUSH32 0x727469636970616E742E00000000000000000000000000000000000000000000 PUSH1 0x20 DUP3 ADD MSTORE POP JUMP JUMPDEST PUSH1 0x0 PUSH2 0x1636 PUSH1 0x2A DUP4 PUSH2 0x1289 JUMP JUMPDEST SWAP2 POP PUSH2 0x1641 DUP3 PUSH2 0x15DA JUMP JUMPDEST PUSH1 0x40 DUP3 ADD SWAP1 POP SWAP2 SWAP1 POP JUMP JUMPDEST PUSH1 0x0 PUSH1 0x20 DUP3 ADD SWAP1 POP DUP2 DUP2 SUB PUSH1 0x0 DUP4 ADD MSTORE PUSH2 0x1665 DUP2 PUSH2 0x1629 JUMP JUMPDEST SWAP1 POP SWAP2 SWAP1 POP JUMP JUMPDEST PUSH32 0x4E487B7100000000000000000000000000000000000000000000000000000000 PUSH1 0x0 MSTORE PUSH1 0x11 PUSH1 0x4 MSTORE PUSH1 0x24 PUSH1 0x0 REVERT JUMPDEST PUSH1 0x0 PUSH2 0x16A6 DUP3 PUSH2 0x1142 JUMP JUMPDEST SWAP2 POP PUSH2 0x16B1 DUP4 PUSH2 0x1142 JUMP JUMPDEST SWAP3 POP DUP3 PUSH32 0xFFFFFFFFFFFFFFFFFFFFFFFFFFFFFFFFFFFFFFFFFFFFFFFFFFFFFFFFFFFFFFFF SUB DUP3 GT ISZERO PUSH2 0x16E6 JUMPI PUSH2 0x16E5 PUSH2 0x166C JUMP JUMPDEST JUMPDEST DUP3 DUP3 ADD SWAP1 POP SWAP3 SWAP2 POP POP JUMP JUMPDEST PUSH1 0x0 PUSH2 0x16FC DUP3 PUSH2 0x1142 JUMP JUMPDEST SWAP2 POP PUSH2 0x1707 DUP4 PUSH2 0x1142 JUMP JUMPDEST SWAP3 POP DUP3 DUP3 LT ISZERO PUSH2 0x171A JUMPI PUSH2 0x1719 PUSH2 0x166C JUMP JUMPDEST JUMPDEST DUP3 DUP3 SUB SWAP1 POP SWAP3 SWAP2 POP POP JUMP JUMPDEST PUSH32 0x7B66726F6D7D206164647265737320686F6C6473206C65737320455850207468 PUSH1 0x0 DUP3 ADD MSTORE PUSH32 0x616E207B616D6F756E747D2E0000000000000000000000000000000000000000 PUSH1 0x20 DUP3 ADD MSTORE POP JUMP JUMPDEST PUSH1 0x0 PUSH2 0x1781 PUSH1 0x2C DUP4 PUSH2 0x1289 JUMP JUMPDEST SWAP2 POP PUSH2 0x178C DUP3 PUSH2 0x1725 JUMP JUMPDEST PUSH1 0x40 DUP3 ADD SWAP1 POP SWAP2 SWAP1 POP JUMP JUMPDEST PUSH1 0x0 PUSH1 0x20 DUP3 ADD SWAP1 POP DUP2 DUP2 SUB PUSH1 0x0 DUP4 ADD MSTORE PUSH2 0x17B0 DUP2 PUSH2 0x1774 JUMP JUMPDEST SWAP1 POP SWAP2 SWAP1 POP JUMP JUMPDEST PUSH32 0x4F70657261746F722063616E6E6F7420626520746865207A65726F2061646472 PUSH1 0x0 DUP3 ADD MSTORE PUSH32 0x6573732E00000000000000000000000000000000000000000000000000000000 PUSH1 0x20 DUP3 ADD MSTORE POP JUMP JUMPDEST PUSH1 0x0 PUSH2 0x1813 PUSH1 0x24 DUP4 PUSH2 0x1289 JUMP JUMPDEST SWAP2 POP PUSH2 0x181E DUP3 PUSH2 0x17B7 JUMP JUMPDEST PUSH1 0x40 DUP3 ADD SWAP1 POP SWAP2 SWAP1 POP JUMP JUMPDEST PUSH1 0x0 PUSH1 0x20 DUP3 ADD SWAP1 POP DUP2 DUP2 SUB PUSH1 0x0 DUP4 ADD MSTORE PUSH2 0x1842 DUP2 PUSH2 0x1806 JUMP JUMPDEST SWAP1 POP SWAP2 SWAP1 POP JUMP JUMPDEST PUSH32 0x7B616464726573737D20697320616C72656164792061737369676E6564206173 PUSH1 0x0 DUP3 ADD MSTORE PUSH32 0x206F70657261746F720000000000000000000000000000000000000000000000 PUSH1 0x20 DUP3 ADD MSTORE POP JUMP JUMPDEST PUSH1 0x0 PUSH2 0x18A5 PUSH1 0x29 DUP4 PUSH2 0x1289 JUMP JUMPDEST SWAP2 POP PUSH2 0x18B0 DUP3 PUSH2 0x1849 JUMP JUMPDEST PUSH1 0x40 DUP3 ADD SWAP1 POP SWAP2 SWAP1 POP JUMP JUMPDEST PUSH1 0x0 PUSH1 0x20 DUP3 ADD SWAP1 POP DUP2 DUP2 SUB PUSH1 0x0 DUP4 ADD MSTORE PUSH2 0x18D4 DUP2 PUSH2 0x1898 JUMP JUMPDEST SWAP1 POP SWAP2 SWAP1 POP JUMP INVALID LOG2 PUSH5 0x6970667358 0x22 SLT KECCAK256 0xDE LOG0 SWAP13 0xA7 0xE4 SWAP9 0xAE DUP2 PUSH25 0xBF784EF6B12F46D4FEF3BF683CF2099917255DC6058AEE6473 PUSH16 0x6C634300080A00330000000000000000 "
    },
    "gasEstimates": {
      "creation": {
        "codeDepositCost": "1488400",
        "executionCost": "infinite",
        "totalCost": "infinite"
      },
      "external": {
        "addCompanies(string[])": "infinite",
        "addCompany(string)": "infinite",
        "getBalance(string)": "infinite",
        "getBalances()": "infinite",
        "getCompaniesAddresses()": "infinite",
        "getCompaniesNames()": "infinite",
        "getCompanyComplaints(string)": "infinite",
        "getTotalComplaints()": "2459",
        "newComplaint(string,string)": "infinite"
      }
    },
    "methodIdentifiers": {
      "addCompanies(string[])": "356eede6",
      "addCompany(string)": "d6483d17",
      "getBalance(string)": "3a51d246",
      "getBalances()": "00113e08",
      "getCompaniesAddresses()": "05e5e5a3",
      "getCompaniesNames()": "09a7a006",
      "getCompanyComplaints(string)": "6b5f35c2",
      "getTotalComplaints()": "59f97801",
      "newComplaint(string,string)": "d09cdac1"
    }
  },
  "storageLayout": {
    "storage": [
      {
        "astId": 528,
        "contract": "ReputationControl.sol:ReputationControl",
        "label": "tokenContract",
        "offset": 0,
        "slot": "0",
        "type": "t_contract(ERC4974)519"
      },
      {
        "astId": 533,
        "contract": "ReputationControl.sol:ReputationControl",
        "label": "infoCompanies",
        "offset": 0,
        "slot": "1",
        "type": "t_mapping(t_string_memory_ptr,t_struct(CompanyData)525_storage)"
      },
      {
        "astId": 536,
        "contract": "ReputationControl.sol:ReputationControl",
        "label": "companies",
        "offset": 0,
        "slot": "2",
        "type": "t_array(t_string_storage)dyn_storage"
      },
      {
        "astId": 540,
        "contract": "ReputationControl.sol:ReputationControl",
        "label": "totalComplaints",
        "offset": 0,
        "slot": "3",
        "type": "t_uint256"
      }
    ],
    "types": {
      "t_address": {
        "encoding": "inplace",
        "label": "address",
        "numberOfBytes": "20"
      },
      "t_array(t_string_storage)dyn_storage": {
        "base": "t_string_storage",
        "encoding": "dynamic_array",
        "label": "string[]",
        "numberOfBytes": "32"
      },
      "t_contract(ERC4974)519": {
        "encoding": "inplace",
        "label": "contract ERC4974",
        "numberOfBytes": "20"
      },
      "t_mapping(t_string_memory_ptr,t_struct(CompanyData)525_storage)": {
        "encoding": "mapping",
        "key": "t_string_memory_ptr",
        "label": "mapping(string => struct ReputationControl.CompanyData)",
        "numberOfBytes": "32",
        "value": "t_struct(CompanyData)525_storage"
      },
      "t_string_memory_ptr": {
        "encoding": "bytes",
        "label": "string",
        "numberOfBytes": "32"
      },
      "t_string_storage": {
        "encoding": "bytes",
        "label": "string",
        "numberOfBytes": "32"
      },
      "t_struct(CompanyData)525_storage": {
        "encoding": "inplace",
        "label": "struct ReputationControl.CompanyData",
        "members": [
          {
            "astId": 521,
            "contract": "ReputationControl.sol:ReputationControl",
            "label": "_address",
            "offset": 0,
            "slot": "0",
            "type": "t_address"
          },
          {
            "astId": 524,
            "contract": "ReputationControl.sol:ReputationControl",
            "label": "hashComplaints",
            "offset": 0,
            "slot": "1",
            "type": "t_array(t_string_storage)dyn_storage"
          }
        ],
        "numberOfBytes": "64"
      },
      "t_uint256": {
        "encoding": "inplace",
        "label": "uint256",
        "numberOfBytes": "32"
      }
    }
  },
  "userdoc": {
    "kind": "user",
    "methods": {},
    "version": 1
  }
}