{
    "abi": [
        {
            "inputs": [],
            "stateMutability": "nonpayable",
            "type": "constructor"
        },
        {
            "inputs": [],
            "name": "getCompanies",
            "outputs": [
                {
                    "internalType": "string[]",
                    "name": "",
                    "type": "string[]"
                }
            ],
            "stateMutability": "view",
            "type": "function"
        },
        {
            "inputs": [
                {
                    "internalType": "string",
                    "name": "c_name",
                    "type": "string"
                }
            ],
            "name": "getComplaints",
            "outputs": [
                {
                    "components": [
                        {
                            "internalType": "string",
                            "name": "user",
                            "type": "string"
                        },
                        {
                            "internalType": "string",
                            "name": "text",
                            "type": "string"
                        }
                    ],
                    "internalType": "struct complaintContract.complaint[]",
                    "name": "",
                    "type": "tuple[]"
                }
            ],
            "stateMutability": "view",
            "type": "function"
        },
        {
            "inputs": [],
            "name": "getReputation",
            "outputs": [
                {
                    "internalType": "uint256[]",
                    "name": "",
                    "type": "uint256[]"
                }
            ],
            "stateMutability": "view",
            "type": "function"
        },
        {
            "inputs": [
                {
                    "internalType": "string",
                    "name": "c_name",
                    "type": "string"
                },
                {
                    "internalType": "string",
                    "name": "u_name",
                    "type": "string"
                },
                {
                    "internalType": "string",
                    "name": "text",
                    "type": "string"
                }
            ],
            "name": "newComplaint",
            "outputs": [],
            "stateMutability": "nonpayable",
            "type": "function"
        }
    ],
    "devdoc": {
        "kind": "dev",
        "methods": {},
        "version": 1
    },
    "evm": {
        "assembly": "    /* \"complaintContract.sol\":176:2243  contract complaintContract {... */\n  mstore(0x40, 0x80)\n    /* \"complaintContract.sol\":639:641  10 */\n  0x0a\n    /* \"complaintContract.sol\":626:642  new string[](10) */\n  0xffffffffffffffff\n  dup2\n  gt\n  iszero\n  tag_1\n  jumpi\n  tag_2\n  tag_3\n  jump\t// in\ntag_2:\ntag_1:\n  mload(0x40)\n  swap1\n  dup1\n  dup3\n  mstore\n  dup1\n  0x20\n  mul\n  0x20\n  add\n  dup3\n  add\n  0x40\n  mstore\n  dup1\n  iszero\n  tag_4\n  jumpi\n  dup2\n  0x20\n  add\ntag_5:\n  0x60\n  dup2\n  mstore\n  0x20\n  add\n  swap1\n  0x01\n  swap1\n  sub\n  swap1\n  dup2\n  tag_5\n  jumpi\n  swap1\n  pop\ntag_4:\n  pop\n    /* \"complaintContract.sol\":597:642  string[] private companies = new string[](10) */\n  0x00\n  swap1\n  dup1\n  mload\n  swap1\n  0x20\n  add\n  swap1\n  tag_6\n  swap3\n  swap2\n  swap1\n  tag_7\n  jump\t// in\ntag_6:\n  pop\n    /* \"complaintContract.sol\":818:1089  constructor() {... */\n  callvalue\n  dup1\n  iszero\n  tag_8\n  jumpi\n  0x00\n  dup1\n  revert\ntag_8:\n  pop\n    /* \"complaintContract.sol\":839:972  companies = [\"empresa1\", \"empresa2\", \"empresa3\", \"empresa4\", \"empresa5\", \"empresa6\", \"empresa7\", \"empresa8\", \"empresa9\", \"empresa10\"] */\n  mload(0x40)\n  dup1\n  0x0140\n  add\n  0x40\n  mstore\n  dup1\n  mload(0x40)\n  dup1\n  0x40\n  add\n  0x40\n  mstore\n  dup1\n  0x08\n  dup2\n  mstore\n  0x20\n  add\n  0x656d707265736131000000000000000000000000000000000000000000000000\n  dup2\n  mstore\n  pop\n  dup2\n  mstore\n  0x20\n  add\n  mload(0x40)\n  dup1\n  0x40\n  add\n  0x40\n  mstore\n  dup1\n  0x08\n  dup2\n  mstore\n  0x20\n  add\n  0x656d707265736132000000000000000000000000000000000000000000000000\n  dup2\n  mstore\n  pop\n  dup2\n  mstore\n  0x20\n  add\n  mload(0x40)\n  dup1\n  0x40\n  add\n  0x40\n  mstore\n  dup1\n  0x08\n  dup2\n  mstore\n  0x20\n  add\n  0x656d707265736133000000000000000000000000000000000000000000000000\n  dup2\n  mstore\n  pop\n  dup2\n  mstore\n  0x20\n  add\n  mload(0x40)\n  dup1\n  0x40\n  add\n  0x40\n  mstore\n  dup1\n  0x08\n  dup2\n  mstore\n  0x20\n  add\n  0x656d707265736134000000000000000000000000000000000000000000000000\n  dup2\n  mstore\n  pop\n  dup2\n  mstore\n  0x20\n  add\n  mload(0x40)\n  dup1\n  0x40\n  add\n  0x40\n  mstore\n  dup1\n  0x08\n  dup2\n  mstore\n  0x20\n  add\n  0x656d707265736135000000000000000000000000000000000000000000000000\n  dup2\n  mstore\n  pop\n  dup2\n  mstore\n  0x20\n  add\n  mload(0x40)\n  dup1\n  0x40\n  add\n  0x40\n  mstore\n  dup1\n  0x08\n  dup2\n  mstore\n  0x20\n  add\n  0x656d707265736136000000000000000000000000000000000000000000000000\n  dup2\n  mstore\n  pop\n  dup2\n  mstore\n  0x20\n  add\n  mload(0x40)\n  dup1\n  0x40\n  add\n  0x40\n  mstore\n  dup1\n  0x08\n  dup2\n  mstore\n  0x20\n  add\n  0x656d707265736137000000000000000000000000000000000000000000000000\n  dup2\n  mstore\n  pop\n  dup2\n  mstore\n  0x20\n  add\n  mload(0x40)\n  dup1\n  0x40\n  add\n  0x40\n  mstore\n  dup1\n  0x08\n  dup2\n  mstore\n  0x20\n  add\n  0x656d707265736138000000000000000000000000000000000000000000000000\n  dup2\n  mstore\n  pop\n  dup2\n  mstore\n  0x20\n  add\n  mload(0x40)\n  dup1\n  0x40\n  add\n  0x40\n  mstore\n  dup1\n  0x08\n  dup2\n  mstore\n  0x20\n  add\n  0x656d707265736139000000000000000000000000000000000000000000000000\n  dup2\n  mstore\n  pop\n  dup2\n  mstore\n  0x20\n  add\n  mload(0x40)\n  dup1\n  0x40\n  add\n  0x40\n  mstore\n  dup1\n  0x09\n  dup2\n  mstore\n  0x20\n  add\n  0x656d707265736131300000000000000000000000000000000000000000000000\n  dup2\n  mstore\n  pop\n  dup2\n  mstore\n  pop\n    /* \"complaintContract.sol\":839:848  companies */\n  0x00\n    /* \"complaintContract.sol\":839:972  companies = [\"empresa1\", \"empresa2\", \"empresa3\", \"empresa4\", \"empresa5\", \"empresa6\", \"empresa7\", \"empresa8\", \"empresa9\", \"empresa10\"] */\n  swap1\n  0x0a\n  tag_11\n  swap3\n  swap2\n  swap1\n  tag_12\n  jump\t// in\ntag_11:\n  pop\n    /* \"complaintContract.sol\":983:989  uint i */\n  0x00\n    /* \"complaintContract.sol\":979:1084  for(uint i = 0; i < companies.length ; i++){... */\ntag_13:\n    /* \"complaintContract.sol\":999:1008  companies */\n  0x00\n    /* \"complaintContract.sol\":999:1015  companies.length */\n  dup1\n  sload\n  swap1\n  pop\n    /* \"complaintContract.sol\":995:996  i */\n  dup2\n    /* \"complaintContract.sol\":995:1015  i < companies.length */\n  lt\n    /* \"complaintContract.sol\":979:1084  for(uint i = 0; i < companies.length ; i++){... */\n  iszero\n  tag_14\n  jumpi\n    /* \"complaintContract.sol\":1073:1076  100 */\n  0x64\n    /* \"complaintContract.sol\":1031:1045  companyMapping */\n  0x01\n    /* \"complaintContract.sol\":1046:1055  companies */\n  0x00\n    /* \"complaintContract.sol\":1056:1057  i */\n  dup4\n    /* \"complaintContract.sol\":1046:1058  companies[i] */\n  dup2\n  sload\n  dup2\n  lt\n  tag_16\n  jumpi\n  tag_17\n  tag_18\n  jump\t// in\ntag_17:\ntag_16:\n  swap1\n  0x00\n  mstore\n  keccak256(0x00, 0x20)\n  add\n    /* \"complaintContract.sol\":1031:1059  companyMapping[companies[i]] */\n  mload(0x40)\n  tag_20\n  swap2\n  swap1\n  tag_21\n  jump\t// in\ntag_20:\n  swap1\n  dup2\n  mstore\n  0x20\n  add\n  mload(0x40)\n  dup1\n  swap2\n  sub\n  swap1\n  keccak256\n    /* \"complaintContract.sol\":1031:1070  companyMapping[companies[i]].reputation */\n  0x00\n  add\n    /* \"complaintContract.sol\":1031:1076  companyMapping[companies[i]].reputation = 100 */\n  dup2\n  swap1\n  sstore\n  pop\n    /* \"complaintContract.sol\":1018:1021  i++ */\n  dup1\n  dup1\n  tag_22\n  swap1\n  tag_23\n  jump\t// in\ntag_22:\n  swap2\n  pop\n  pop\n    /* \"complaintContract.sol\":979:1084  for(uint i = 0; i < companies.length ; i++){... */\n  jump(tag_13)\ntag_14:\n  pop\n    /* \"complaintContract.sol\":176:2243  contract complaintContract {... */\n  jump(tag_24)\ntag_7:\n  dup3\n  dup1\n  sload\n  dup3\n  dup3\n  sstore\n  swap1\n  0x00\n  mstore\n  keccak256(0x00, 0x20)\n  swap1\n  dup2\n  add\n  swap3\n  dup3\n  iszero\n  tag_25\n  jumpi\n  swap2\n  0x20\n  mul\n  dup3\n  add\ntag_26:\n  dup3\n  dup2\n  gt\n  iszero\n  tag_27\n  jumpi\n  dup3\n  mload\n  dup3\n  swap1\n  dup1\n  mload\n  swap1\n  0x20\n  add\n  swap1\n  tag_28\n  swap3\n  swap2\n  swap1\n  tag_29\n  jump\t// in\ntag_28:\n  pop\n  swap2\n  0x20\n  add\n  swap2\n  swap1\n  0x01\n  add\n  swap1\n  jump(tag_26)\ntag_27:\ntag_25:\n  pop\n  swap1\n  pop\n  tag_30\n  swap2\n  swap1\n  tag_31\n  jump\t// in\ntag_30:\n  pop\n  swap1\n  jump\t// out\ntag_12:\n  dup3\n  dup1\n  sload\n  dup3\n  dup3\n  sstore\n  swap1\n  0x00\n  mstore\n  keccak256(0x00, 0x20)\n  swap1\n  dup2\n  add\n  swap3\n  dup3\n  iszero\n  tag_32\n  jumpi\n  swap2\n  0x20\n  mul\n  dup3\n  add\ntag_33:\n  dup3\n  dup2\n  gt\n  iszero\n  tag_34\n  jumpi\n  dup3\n  mload\n  dup3\n  swap1\n  dup1\n  mload\n  swap1\n  0x20\n  add\n  swap1\n  tag_35\n  swap3\n  swap2\n  swap1\n  tag_29\n  jump\t// in\ntag_35:\n  pop\n  swap2\n  0x20\n  add\n  swap2\n  swap1\n  0x01\n  add\n  swap1\n  jump(tag_33)\ntag_34:\ntag_32:\n  pop\n  swap1\n  pop\n  tag_36\n  swap2\n  swap1\n  tag_31\n  jump\t// in\ntag_36:\n  pop\n  swap1\n  jump\t// out\ntag_29:\n  dup3\n  dup1\n  sload\n  tag_37\n  swap1\n  tag_38\n  jump\t// in\ntag_37:\n  swap1\n  0x00\n  mstore\n  keccak256(0x00, 0x20)\n  swap1\n  0x1f\n  add\n  0x20\n  swap1\n  div\n  dup2\n  add\n  swap3\n  dup3\n  tag_40\n  jumpi\n  0x00\n  dup6\n  sstore\n  jump(tag_39)\ntag_40:\n  dup3\n  0x1f\n  lt\n  tag_41\n  jumpi\n  dup1\n  mload\n  not(0xff)\n  and\n  dup4\n  dup1\n  add\n  or\n  dup6\n  sstore\n  jump(tag_39)\ntag_41:\n  dup3\n  dup1\n  add\n  0x01\n  add\n  dup6\n  sstore\n  dup3\n  iszero\n  tag_39\n  jumpi\n  swap2\n  dup3\n  add\ntag_42:\n  dup3\n  dup2\n  gt\n  iszero\n  tag_43\n  jumpi\n  dup3\n  mload\n  dup3\n  sstore\n  swap2\n  0x20\n  add\n  swap2\n  swap1\n  0x01\n  add\n  swap1\n  jump(tag_42)\ntag_43:\ntag_39:\n  pop\n  swap1\n  pop\n  tag_44\n  swap2\n  swap1\n  tag_45\n  jump\t// in\ntag_44:\n  pop\n  swap1\n  jump\t// out\ntag_31:\ntag_46:\n  dup1\n  dup3\n  gt\n  iszero\n  tag_47\n  jumpi\n  0x00\n  dup2\n  dup2\n  tag_48\n  swap2\n  swap1\n  tag_49\n  jump\t// in\ntag_48:\n  pop\n  0x01\n  add\n  jump(tag_46)\ntag_47:\n  pop\n  swap1\n  jump\t// out\ntag_45:\ntag_50:\n  dup1\n  dup3\n  gt\n  iszero\n  tag_51\n  jumpi\n  0x00\n  dup2\n  0x00\n  swap1\n  sstore\n  pop\n  0x01\n  add\n  jump(tag_50)\ntag_51:\n  pop\n  swap1\n  jump\t// out\ntag_49:\n  pop\n  dup1\n  sload\n  tag_52\n  swap1\n  tag_38\n  jump\t// in\ntag_52:\n  0x00\n  dup3\n  sstore\n  dup1\n  0x1f\n  lt\n  tag_54\n  jumpi\n  pop\n  jump(tag_53)\ntag_54:\n  0x1f\n  add\n  0x20\n  swap1\n  div\n  swap1\n  0x00\n  mstore\n  keccak256(0x00, 0x20)\n  swap1\n  dup2\n  add\n  swap1\n  tag_55\n  swap2\n  swap1\n  tag_45\n  jump\t// in\ntag_55:\ntag_53:\n  pop\n  jump\t// out\n    /* \"#utility.yul\":7:187   */\ntag_3:\n    /* \"#utility.yul\":55:132   */\n  0x4e487b7100000000000000000000000000000000000000000000000000000000\n    /* \"#utility.yul\":52:53   */\n  0x00\n    /* \"#utility.yul\":45:133   */\n  mstore\n    /* \"#utility.yul\":152:156   */\n  0x41\n    /* \"#utility.yul\":149:150   */\n  0x04\n    /* \"#utility.yul\":142:157   */\n  mstore\n    /* \"#utility.yul\":176:180   */\n  0x24\n    /* \"#utility.yul\":173:174   */\n  0x00\n    /* \"#utility.yul\":166:181   */\n  revert\n    /* \"#utility.yul\":193:373   */\ntag_18:\n    /* \"#utility.yul\":241:318   */\n  0x4e487b7100000000000000000000000000000000000000000000000000000000\n    /* \"#utility.yul\":238:239   */\n  0x00\n    /* \"#utility.yul\":231:319   */\n  mstore\n    /* \"#utility.yul\":338:342   */\n  0x32\n    /* \"#utility.yul\":335:336   */\n  0x04\n    /* \"#utility.yul\":328:343   */\n  mstore\n    /* \"#utility.yul\":362:366   */\n  0x24\n    /* \"#utility.yul\":359:360   */\n  0x00\n    /* \"#utility.yul\":352:367   */\n  revert\n    /* \"#utility.yul\":379:559   */\ntag_56:\n    /* \"#utility.yul\":427:504   */\n  0x4e487b7100000000000000000000000000000000000000000000000000000000\n    /* \"#utility.yul\":424:425   */\n  0x00\n    /* \"#utility.yul\":417:505   */\n  mstore\n    /* \"#utility.yul\":524:528   */\n  0x22\n    /* \"#utility.yul\":521:522   */\n  0x04\n    /* \"#utility.yul\":514:529   */\n  mstore\n    /* \"#utility.yul\":548:552   */\n  0x24\n    /* \"#utility.yul\":545:546   */\n  0x00\n    /* \"#utility.yul\":538:553   */\n  revert\n    /* \"#utility.yul\":565:885   */\ntag_38:\n    /* \"#utility.yul\":609:615   */\n  0x00\n    /* \"#utility.yul\":646:647   */\n  0x02\n    /* \"#utility.yul\":640:644   */\n  dup3\n    /* \"#utility.yul\":636:648   */\n  div\n    /* \"#utility.yul\":626:648   */\n  swap1\n  pop\n    /* \"#utility.yul\":693:694   */\n  0x01\n    /* \"#utility.yul\":687:691   */\n  dup3\n    /* \"#utility.yul\":683:695   */\n  and\n    /* \"#utility.yul\":714:732   */\n  dup1\n    /* \"#utility.yul\":704:785   */\n  tag_67\n  jumpi\n    /* \"#utility.yul\":770:774   */\n  0x7f\n    /* \"#utility.yul\":762:768   */\n  dup3\n    /* \"#utility.yul\":758:775   */\n  and\n    /* \"#utility.yul\":748:775   */\n  swap2\n  pop\n    /* \"#utility.yul\":704:785   */\ntag_67:\n    /* \"#utility.yul\":832:834   */\n  0x20\n    /* \"#utility.yul\":824:830   */\n  dup3\n    /* \"#utility.yul\":821:835   */\n  lt\n    /* \"#utility.yul\":801:819   */\n  dup2\n    /* \"#utility.yul\":798:836   */\n  eq\n    /* \"#utility.yul\":795:879   */\n  iszero\n  tag_68\n  jumpi\n    /* \"#utility.yul\":851:869   */\n  tag_69\n  tag_56\n  jump\t// in\ntag_69:\n    /* \"#utility.yul\":795:879   */\ntag_68:\n    /* \"#utility.yul\":616:885   */\n  pop\n    /* \"#utility.yul\":565:885   */\n  swap2\n  swap1\n  pop\n  jump\t// out\n    /* \"#utility.yul\":891:1039   */\ntag_57:\n    /* \"#utility.yul\":993:1004   */\n  0x00\n    /* \"#utility.yul\":1030:1033   */\n  dup2\n    /* \"#utility.yul\":1015:1033   */\n  swap1\n  pop\n    /* \"#utility.yul\":891:1039   */\n  swap3\n  swap2\n  pop\n  pop\n  jump\t// out\n    /* \"#utility.yul\":1045:1186   */\ntag_58:\n    /* \"#utility.yul\":1094:1098   */\n  0x00\n    /* \"#utility.yul\":1117:1120   */\n  dup2\n    /* \"#utility.yul\":1109:1120   */\n  swap1\n  pop\n    /* \"#utility.yul\":1140:1143   */\n  dup2\n    /* \"#utility.yul\":1137:1138   */\n  0x00\n    /* \"#utility.yul\":1130:1144   */\n  mstore\n    /* \"#utility.yul\":1174:1178   */\n  0x20\n    /* \"#utility.yul\":1171:1172   */\n  0x00\n    /* \"#utility.yul\":1161:1179   */\n  keccak256\n    /* \"#utility.yul\":1153:1179   */\n  swap1\n  pop\n    /* \"#utility.yul\":1045:1186   */\n  swap2\n  swap1\n  pop\n  jump\t// out\n    /* \"#utility.yul\":1216:2061   */\ntag_59:\n    /* \"#utility.yul\":1319:1322   */\n  0x00\n    /* \"#utility.yul\":1356:1361   */\n  dup2\n    /* \"#utility.yul\":1350:1362   */\n  sload\n    /* \"#utility.yul\":1385:1421   */\n  tag_73\n    /* \"#utility.yul\":1411:1420   */\n  dup2\n    /* \"#utility.yul\":1385:1421   */\n  tag_38\n  jump\t// in\ntag_73:\n    /* \"#utility.yul\":1437:1526   */\n  tag_74\n    /* \"#utility.yul\":1519:1525   */\n  dup2\n    /* \"#utility.yul\":1514:1517   */\n  dup7\n    /* \"#utility.yul\":1437:1526   */\n  tag_57\n  jump\t// in\ntag_74:\n    /* \"#utility.yul\":1430:1526   */\n  swap5\n  pop\n    /* \"#utility.yul\":1557:1558   */\n  0x01\n    /* \"#utility.yul\":1546:1555   */\n  dup3\n    /* \"#utility.yul\":1542:1559   */\n  and\n    /* \"#utility.yul\":1573:1574   */\n  0x00\n    /* \"#utility.yul\":1568:1705   */\n  dup2\n  eq\n  tag_76\n  jumpi\n    /* \"#utility.yul\":1719:1720   */\n  0x01\n    /* \"#utility.yul\":1714:2055   */\n  dup2\n  eq\n  tag_77\n  jumpi\n    /* \"#utility.yul\":1535:2055   */\n  jump(tag_75)\n    /* \"#utility.yul\":1568:1705   */\ntag_76:\n    /* \"#utility.yul\":1652:1656   */\n  0xff\n    /* \"#utility.yul\":1648:1657   */\n  not\n    /* \"#utility.yul\":1637:1646   */\n  dup4\n    /* \"#utility.yul\":1633:1658   */\n  and\n    /* \"#utility.yul\":1628:1631   */\n  dup7\n    /* \"#utility.yul\":1621:1659   */\n  mstore\n    /* \"#utility.yul\":1688:1694   */\n  dup2\n    /* \"#utility.yul\":1683:1686   */\n  dup7\n    /* \"#utility.yul\":1679:1695   */\n  add\n    /* \"#utility.yul\":1672:1695   */\n  swap4\n  pop\n    /* \"#utility.yul\":1568:1705   */\n  jump(tag_75)\n    /* \"#utility.yul\":1714:2055   */\ntag_77:\n    /* \"#utility.yul\":1781:1819   */\n  tag_78\n    /* \"#utility.yul\":1813:1818   */\n  dup6\n    /* \"#utility.yul\":1781:1819   */\n  tag_58\n  jump\t// in\ntag_78:\n    /* \"#utility.yul\":1841:1842   */\n  0x00\n    /* \"#utility.yul\":1855:2009   */\ntag_79:\n    /* \"#utility.yul\":1869:1875   */\n  dup4\n    /* \"#utility.yul\":1866:1867   */\n  dup2\n    /* \"#utility.yul\":1863:1876   */\n  lt\n    /* \"#utility.yul\":1855:2009   */\n  iszero\n  tag_81\n  jumpi\n    /* \"#utility.yul\":1943:1950   */\n  dup2\n    /* \"#utility.yul\":1937:1951   */\n  sload\n    /* \"#utility.yul\":1933:1934   */\n  dup2\n    /* \"#utility.yul\":1928:1931   */\n  dup10\n    /* \"#utility.yul\":1924:1935   */\n  add\n    /* \"#utility.yul\":1917:1952   */\n  mstore\n    /* \"#utility.yul\":1993:1994   */\n  0x01\n    /* \"#utility.yul\":1984:1991   */\n  dup3\n    /* \"#utility.yul\":1980:1995   */\n  add\n    /* \"#utility.yul\":1969:1995   */\n  swap2\n  pop\n    /* \"#utility.yul\":1891:1895   */\n  0x20\n    /* \"#utility.yul\":1888:1889   */\n  dup2\n    /* \"#utility.yul\":1884:1896   */\n  add\n    /* \"#utility.yul\":1879:1896   */\n  swap1\n  pop\n    /* \"#utility.yul\":1855:2009   */\n  jump(tag_79)\ntag_81:\n    /* \"#utility.yul\":2038:2044   */\n  dup4\n    /* \"#utility.yul\":2033:2036   */\n  dup9\n    /* \"#utility.yul\":2029:2045   */\n  add\n    /* \"#utility.yul\":2022:2045   */\n  swap6\n  pop\n    /* \"#utility.yul\":1721:2055   */\n  pop\n  pop\n    /* \"#utility.yul\":1535:2055   */\ntag_75:\n  pop\n    /* \"#utility.yul\":1323:2061   */\n  pop\n  pop\n    /* \"#utility.yul\":1216:2061   */\n  swap3\n  swap2\n  pop\n  pop\n  jump\t// out\n    /* \"#utility.yul\":2067:2336   */\ntag_21:\n    /* \"#utility.yul\":2196:2199   */\n  0x00\n    /* \"#utility.yul\":2218:2310   */\n  tag_83\n    /* \"#utility.yul\":2306:2309   */\n  dup3\n    /* \"#utility.yul\":2297:2303   */\n  dup5\n    /* \"#utility.yul\":2218:2310   */\n  tag_59\n  jump\t// in\ntag_83:\n    /* \"#utility.yul\":2211:2310   */\n  swap2\n  pop\n    /* \"#utility.yul\":2327:2330   */\n  dup2\n    /* \"#utility.yul\":2320:2330   */\n  swap1\n  pop\n    /* \"#utility.yul\":2067:2336   */\n  swap3\n  swap2\n  pop\n  pop\n  jump\t// out\n    /* \"#utility.yul\":2342:2522   */\ntag_60:\n    /* \"#utility.yul\":2390:2467   */\n  0x4e487b7100000000000000000000000000000000000000000000000000000000\n    /* \"#utility.yul\":2387:2388   */\n  0x00\n    /* \"#utility.yul\":2380:2468   */\n  mstore\n    /* \"#utility.yul\":2487:2491   */\n  0x11\n    /* \"#utility.yul\":2484:2485   */\n  0x04\n    /* \"#utility.yul\":2477:2492   */\n  mstore\n    /* \"#utility.yul\":2511:2515   */\n  0x24\n    /* \"#utility.yul\":2508:2509   */\n  0x00\n    /* \"#utility.yul\":2501:2516   */\n  revert\n    /* \"#utility.yul\":2528:2605   */\ntag_61:\n    /* \"#utility.yul\":2565:2572   */\n  0x00\n    /* \"#utility.yul\":2594:2599   */\n  dup2\n    /* \"#utility.yul\":2583:2599   */\n  swap1\n  pop\n    /* \"#utility.yul\":2528:2605   */\n  swap2\n  swap1\n  pop\n  jump\t// out\n    /* \"#utility.yul\":2611:2844   */\ntag_23:\n    /* \"#utility.yul\":2650:2653   */\n  0x00\n    /* \"#utility.yul\":2673:2697   */\n  tag_87\n    /* \"#utility.yul\":2691:2696   */\n  dup3\n    /* \"#utility.yul\":2673:2697   */\n  tag_61\n  jump\t// in\ntag_87:\n    /* \"#utility.yul\":2664:2697   */\n  swap2\n  pop\n    /* \"#utility.yul\":2719:2785   */\n  0xffffffffffffffffffffffffffffffffffffffffffffffffffffffffffffffff\n    /* \"#utility.yul\":2712:2717   */\n  dup3\n    /* \"#utility.yul\":2709:2786   */\n  eq\n    /* \"#utility.yul\":2706:2809   */\n  iszero\n  tag_88\n  jumpi\n    /* \"#utility.yul\":2789:2807   */\n  tag_89\n  tag_60\n  jump\t// in\ntag_89:\n    /* \"#utility.yul\":2706:2809   */\ntag_88:\n    /* \"#utility.yul\":2836:2837   */\n  0x01\n    /* \"#utility.yul\":2829:2834   */\n  dup3\n    /* \"#utility.yul\":2825:2838   */\n  add\n    /* \"#utility.yul\":2818:2838   */\n  swap1\n  pop\n    /* \"#utility.yul\":2611:2844   */\n  swap2\n  swap1\n  pop\n  jump\t// out\n    /* \"complaintContract.sol\":176:2243  contract complaintContract {... */\ntag_24:\n  dataSize(sub_0)\n  dup1\n  dataOffset(sub_0)\n  0x00\n  codecopy\n  0x00\n  return\nstop\n\nsub_0: assembly {\n        /* \"complaintContract.sol\":176:2243  contract complaintContract {... */\n      mstore(0x40, 0x80)\n      callvalue\n      dup1\n      iszero\n      tag_1\n      jumpi\n      0x00\n      dup1\n      revert\n    tag_1:\n      pop\n      jumpi(tag_2, lt(calldatasize, 0x04))\n      shr(0xe0, calldataload(0x00))\n      dup1\n      0x0c0b6691\n      eq\n      tag_3\n      jumpi\n      dup1\n      0x4b85a5e3\n      eq\n      tag_4\n      jumpi\n      dup1\n      0x7635c34b\n      eq\n      tag_5\n      jumpi\n      dup1\n      0xffe6a18e\n      eq\n      tag_6\n      jumpi\n    tag_2:\n      0x00\n      dup1\n      revert\n        /* \"complaintContract.sol\":1134:1227  function  getCompanies() external view returns (string[] memory){... */\n    tag_3:\n      tag_7\n      tag_8\n      jump\t// in\n    tag_7:\n      mload(0x40)\n      tag_9\n      swap2\n      swap1\n      tag_10\n      jump\t// in\n    tag_9:\n      mload(0x40)\n      dup1\n      swap2\n      sub\n      swap1\n      return\n        /* \"complaintContract.sol\":1313:1455  function getComplaints(string memory c_name) external view returns (complaint[] memory) {... */\n    tag_4:\n      tag_11\n      0x04\n      dup1\n      calldatasize\n      sub\n      dup2\n      add\n      swap1\n      tag_12\n      swap2\n      swap1\n      tag_13\n      jump\t// in\n    tag_12:\n      tag_14\n      jump\t// in\n    tag_11:\n      mload(0x40)\n      tag_15\n      swap2\n      swap1\n      tag_16\n      jump\t// in\n    tag_15:\n      mload(0x40)\n      dup1\n      swap2\n      sub\n      swap1\n      return\n        /* \"complaintContract.sol\":1958:2240  function newComplaint(string memory c_name, string memory u_name, string memory text) external {... */\n    tag_5:\n      tag_17\n      0x04\n      dup1\n      calldatasize\n      sub\n      dup2\n      add\n      swap1\n      tag_18\n      swap2\n      swap1\n      tag_19\n      jump\t// in\n    tag_18:\n      tag_20\n      jump\t// in\n    tag_17:\n      stop\n        /* \"complaintContract.sol\":1653:1916  function getReputation() external view returns (uint[] memory) {... */\n    tag_6:\n      tag_21\n      tag_22\n      jump\t// in\n    tag_21:\n      mload(0x40)\n      tag_23\n      swap2\n      swap1\n      tag_24\n      jump\t// in\n    tag_23:\n      mload(0x40)\n      dup1\n      swap2\n      sub\n      swap1\n      return\n        /* \"complaintContract.sol\":1134:1227  function  getCompanies() external view returns (string[] memory){... */\n    tag_8:\n        /* \"complaintContract.sol\":1182:1197  string[] memory */\n      0x60\n        /* \"complaintContract.sol\":1212:1221  companies */\n      0x00\n        /* \"complaintContract.sol\":1205:1221  return companies */\n      dup1\n      sload\n      dup1\n      0x20\n      mul\n      0x20\n      add\n      mload(0x40)\n      swap1\n      dup2\n      add\n      0x40\n      mstore\n      dup1\n      swap3\n      swap2\n      swap1\n      dup2\n      dup2\n      mstore\n      0x20\n      add\n      0x00\n      swap1\n    tag_26:\n      dup3\n      dup3\n      lt\n      iszero\n      tag_27\n      jumpi\n      dup4\n      dup3\n      swap1\n      0x00\n      mstore\n      keccak256(0x00, 0x20)\n      add\n      dup1\n      sload\n      tag_29\n      swap1\n      tag_30\n      jump\t// in\n    tag_29:\n      dup1\n      0x1f\n      add\n      0x20\n      dup1\n      swap2\n      div\n      mul\n      0x20\n      add\n      mload(0x40)\n      swap1\n      dup2\n      add\n      0x40\n      mstore\n      dup1\n      swap3\n      swap2\n      swap1\n      dup2\n      dup2\n      mstore\n      0x20\n      add\n      dup3\n      dup1\n      sload\n      tag_31\n      swap1\n      tag_30\n      jump\t// in\n    tag_31:\n      dup1\n      iszero\n      tag_32\n      jumpi\n      dup1\n      0x1f\n      lt\n      tag_33\n      jumpi\n      0x0100\n      dup1\n      dup4\n      sload\n      div\n      mul\n      dup4\n      mstore\n      swap2\n      0x20\n      add\n      swap2\n      jump(tag_32)\n    tag_33:\n      dup3\n      add\n      swap2\n      swap1\n      0x00\n      mstore\n      keccak256(0x00, 0x20)\n      swap1\n    tag_34:\n      dup2\n      sload\n      dup2\n      mstore\n      swap1\n      0x01\n      add\n      swap1\n      0x20\n      add\n      dup1\n      dup4\n      gt\n      tag_34\n      jumpi\n      dup3\n      swap1\n      sub\n      0x1f\n      and\n      dup3\n      add\n      swap2\n    tag_32:\n      pop\n      pop\n      pop\n      pop\n      pop\n      dup2\n      mstore\n      0x20\n      add\n      swap1\n      0x01\n      add\n      swap1\n      jump(tag_26)\n    tag_27:\n      pop\n      pop\n      pop\n      pop\n      swap1\n      pop\n        /* \"complaintContract.sol\":1134:1227  function  getCompanies() external view returns (string[] memory){... */\n      swap1\n      jump\t// out\n        /* \"complaintContract.sol\":1313:1455  function getComplaints(string memory c_name) external view returns (complaint[] memory) {... */\n    tag_14:\n        /* \"complaintContract.sol\":1381:1399  complaint[] memory */\n      0x60\n        /* \"complaintContract.sol\":1416:1430  companyMapping */\n      0x01\n        /* \"complaintContract.sol\":1431:1437  c_name */\n      dup3\n        /* \"complaintContract.sol\":1416:1438  companyMapping[c_name] */\n      mload(0x40)\n      tag_36\n      swap2\n      swap1\n      tag_37\n      jump\t// in\n    tag_36:\n      swap1\n      dup2\n      mstore\n      0x20\n      add\n      mload(0x40)\n      dup1\n      swap2\n      sub\n      swap1\n      keccak256\n        /* \"complaintContract.sol\":1416:1449  companyMapping[c_name].complaints */\n      0x01\n      add\n        /* \"complaintContract.sol\":1409:1449  return companyMapping[c_name].complaints */\n      dup1\n      sload\n      dup1\n      0x20\n      mul\n      0x20\n      add\n      mload(0x40)\n      swap1\n      dup2\n      add\n      0x40\n      mstore\n      dup1\n      swap3\n      swap2\n      swap1\n      dup2\n      dup2\n      mstore\n      0x20\n      add\n      0x00\n      swap1\n    tag_38:\n      dup3\n      dup3\n      lt\n      iszero\n      tag_39\n      jumpi\n      dup4\n      dup3\n      swap1\n      0x00\n      mstore\n      keccak256(0x00, 0x20)\n      swap1\n      0x02\n      mul\n      add\n      mload(0x40)\n      dup1\n      0x40\n      add\n      0x40\n      mstore\n      swap1\n      dup2\n      0x00\n      dup3\n      add\n      dup1\n      sload\n      tag_41\n      swap1\n      tag_30\n      jump\t// in\n    tag_41:\n      dup1\n      0x1f\n      add\n      0x20\n      dup1\n      swap2\n      div\n      mul\n      0x20\n      add\n      mload(0x40)\n      swap1\n      dup2\n      add\n      0x40\n      mstore\n      dup1\n      swap3\n      swap2\n      swap1\n      dup2\n      dup2\n      mstore\n      0x20\n      add\n      dup3\n      dup1\n      sload\n      tag_42\n      swap1\n      tag_30\n      jump\t// in\n    tag_42:\n      dup1\n      iszero\n      tag_43\n      jumpi\n      dup1\n      0x1f\n      lt\n      tag_44\n      jumpi\n      0x0100\n      dup1\n      dup4\n      sload\n      div\n      mul\n      dup4\n      mstore\n      swap2\n      0x20\n      add\n      swap2\n      jump(tag_43)\n    tag_44:\n      dup3\n      add\n      swap2\n      swap1\n      0x00\n      mstore\n      keccak256(0x00, 0x20)\n      swap1\n    tag_45:\n      dup2\n      sload\n      dup2\n      mstore\n      swap1\n      0x01\n      add\n      swap1\n      0x20\n      add\n      dup1\n      dup4\n      gt\n      tag_45\n      jumpi\n      dup3\n      swap1\n      sub\n      0x1f\n      and\n      dup3\n      add\n      swap2\n    tag_43:\n      pop\n      pop\n      pop\n      pop\n      pop\n      dup2\n      mstore\n      0x20\n      add\n      0x01\n      dup3\n      add\n      dup1\n      sload\n      tag_46\n      swap1\n      tag_30\n      jump\t// in\n    tag_46:\n      dup1\n      0x1f\n      add\n      0x20\n      dup1\n      swap2\n      div\n      mul\n      0x20\n      add\n      mload(0x40)\n      swap1\n      dup2\n      add\n      0x40\n      mstore\n      dup1\n      swap3\n      swap2\n      swap1\n      dup2\n      dup2\n      mstore\n      0x20\n      add\n      dup3\n      dup1\n      sload\n      tag_47\n      swap1\n      tag_30\n      jump\t// in\n    tag_47:\n      dup1\n      iszero\n      tag_48\n      jumpi\n      dup1\n      0x1f\n      lt\n      tag_49\n      jumpi\n      0x0100\n      dup1\n      dup4\n      sload\n      div\n      mul\n      dup4\n      mstore\n      swap2\n      0x20\n      add\n      swap2\n      jump(tag_48)\n    tag_49:\n      dup3\n      add\n      swap2\n      swap1\n      0x00\n      mstore\n      keccak256(0x00, 0x20)\n      swap1\n    tag_50:\n      dup2\n      sload\n      dup2\n      mstore\n      swap1\n      0x01\n      add\n      swap1\n      0x20\n      add\n      dup1\n      dup4\n      gt\n      tag_50\n      jumpi\n      dup3\n      swap1\n      sub\n      0x1f\n      and\n      dup3\n      add\n      swap2\n    tag_48:\n      pop\n      pop\n      pop\n      pop\n      pop\n      dup2\n      mstore\n      pop\n      pop\n      dup2\n      mstore\n      0x20\n      add\n      swap1\n      0x01\n      add\n      swap1\n      jump(tag_38)\n    tag_39:\n      pop\n      pop\n      pop\n      pop\n      swap1\n      pop\n        /* \"complaintContract.sol\":1313:1455  function getComplaints(string memory c_name) external view returns (complaint[] memory) {... */\n      swap2\n      swap1\n      pop\n      jump\t// out\n        /* \"complaintContract.sol\":1958:2240  function newComplaint(string memory c_name, string memory u_name, string memory text) external {... */\n    tag_20:\n        /* \"complaintContract.sol\":2061:2075  companyMapping */\n      0x01\n        /* \"complaintContract.sol\":2076:2082  c_name */\n      dup4\n        /* \"complaintContract.sol\":2061:2083  companyMapping[c_name] */\n      mload(0x40)\n      tag_52\n      swap2\n      swap1\n      tag_37\n      jump\t// in\n    tag_52:\n      swap1\n      dup2\n      mstore\n      0x20\n      add\n      mload(0x40)\n      dup1\n      swap2\n      sub\n      swap1\n      keccak256\n        /* \"complaintContract.sol\":2061:2094  companyMapping[c_name].complaints */\n      0x01\n      add\n        /* \"complaintContract.sol\":2100:2123  complaint(u_name, text) */\n      mload(0x40)\n      dup1\n      0x40\n      add\n      0x40\n      mstore\n      dup1\n        /* \"complaintContract.sol\":2110:2116  u_name */\n      dup5\n        /* \"complaintContract.sol\":2100:2123  complaint(u_name, text) */\n      dup2\n      mstore\n      0x20\n      add\n        /* \"complaintContract.sol\":2118:2122  text */\n      dup4\n        /* \"complaintContract.sol\":2100:2123  complaint(u_name, text) */\n      dup2\n      mstore\n      pop\n        /* \"complaintContract.sol\":2061:2124  companyMapping[c_name].complaints.push(complaint(u_name, text)) */\n      swap1\n      dup1\n      0x01\n      dup2\n      sload\n      add\n      dup1\n      dup3\n      sstore\n      dup1\n      swap2\n      pop\n      pop\n      0x01\n      swap1\n      sub\n      swap1\n      0x00\n      mstore\n      keccak256(0x00, 0x20)\n      swap1\n      0x02\n      mul\n      add\n      0x00\n      swap1\n      swap2\n      swap1\n      swap2\n      swap1\n      swap2\n      pop\n      0x00\n      dup3\n      add\n      mload\n      dup2\n      0x00\n      add\n      swap1\n      dup1\n      mload\n      swap1\n      0x20\n      add\n      swap1\n      tag_54\n      swap3\n      swap2\n      swap1\n      tag_55\n      jump\t// in\n    tag_54:\n      pop\n      0x20\n      dup3\n      add\n      mload\n      dup2\n      0x01\n      add\n      swap1\n      dup1\n      mload\n      swap1\n      0x20\n      add\n      swap1\n      tag_56\n      swap3\n      swap2\n      swap1\n      tag_55\n      jump\t// in\n    tag_56:\n      pop\n      pop\n      pop\n        /* \"complaintContract.sol\":2132:2140  uint ret */\n      0x00\n        /* \"complaintContract.sol\":2143:2157  companyMapping */\n      0x01\n        /* \"complaintContract.sol\":2158:2164  c_name */\n      dup5\n        /* \"complaintContract.sol\":2143:2165  companyMapping[c_name] */\n      mload(0x40)\n      tag_57\n      swap2\n      swap1\n      tag_37\n      jump\t// in\n    tag_57:\n      swap1\n      dup2\n      mstore\n      0x20\n      add\n      mload(0x40)\n      dup1\n      swap2\n      sub\n      swap1\n      keccak256\n        /* \"complaintContract.sol\":2143:2176  companyMapping[c_name].reputation */\n      0x00\n      add\n      sload\n        /* \"complaintContract.sol\":2132:2176  uint ret = companyMapping[c_name].reputation */\n      swap1\n      pop\n        /* \"complaintContract.sol\":2193:2194  0 */\n      0x00\n        /* \"complaintContract.sol\":2187:2190  ret */\n      dup2\n        /* \"complaintContract.sol\":2187:2194  ret > 0 */\n      gt\n        /* \"complaintContract.sol\":2184:2234  if(ret > 0) companyMapping[c_name].reputation -= 1 */\n      iszero\n      tag_58\n      jumpi\n        /* \"complaintContract.sol\":2233:2234  1 */\n      0x01\n        /* \"complaintContract.sol\":2196:2210  companyMapping */\n      dup1\n        /* \"complaintContract.sol\":2211:2217  c_name */\n      dup6\n        /* \"complaintContract.sol\":2196:2218  companyMapping[c_name] */\n      mload(0x40)\n      tag_59\n      swap2\n      swap1\n      tag_37\n      jump\t// in\n    tag_59:\n      swap1\n      dup2\n      mstore\n      0x20\n      add\n      mload(0x40)\n      dup1\n      swap2\n      sub\n      swap1\n      keccak256\n        /* \"complaintContract.sol\":2196:2229  companyMapping[c_name].reputation */\n      0x00\n      add\n      0x00\n        /* \"complaintContract.sol\":2196:2234  companyMapping[c_name].reputation -= 1 */\n      dup3\n      dup3\n      sload\n      tag_60\n      swap2\n      swap1\n      tag_61\n      jump\t// in\n    tag_60:\n      swap3\n      pop\n      pop\n      dup2\n      swap1\n      sstore\n      pop\n        /* \"complaintContract.sol\":2184:2234  if(ret > 0) companyMapping[c_name].reputation -= 1 */\n    tag_58:\n        /* \"complaintContract.sol\":2053:2240  {... */\n      pop\n        /* \"complaintContract.sol\":1958:2240  function newComplaint(string memory c_name, string memory u_name, string memory text) external {... */\n      pop\n      pop\n      pop\n      jump\t// out\n        /* \"complaintContract.sol\":1653:1916  function getReputation() external view returns (uint[] memory) {... */\n    tag_22:\n        /* \"complaintContract.sol\":1701:1714  uint[] memory */\n      0x60\n        /* \"complaintContract.sol\":1723:1748  uint[] memory reputations */\n      0x00\n        /* \"complaintContract.sol\":1762:1764  10 */\n      0x0a\n        /* \"complaintContract.sol\":1751:1765  new uint[](10) */\n      0xffffffffffffffff\n      dup2\n      gt\n      iszero\n      tag_63\n      jumpi\n      tag_64\n      tag_65\n      jump\t// in\n    tag_64:\n    tag_63:\n      mload(0x40)\n      swap1\n      dup1\n      dup3\n      mstore\n      dup1\n      0x20\n      mul\n      0x20\n      add\n      dup3\n      add\n      0x40\n      mstore\n      dup1\n      iszero\n      tag_66\n      jumpi\n      dup2\n      0x20\n      add\n      0x20\n      dup3\n      mul\n      dup1\n      calldatasize\n      dup4\n      calldatacopy\n      dup1\n      dup3\n      add\n      swap2\n      pop\n      pop\n      swap1\n      pop\n    tag_66:\n      pop\n        /* \"complaintContract.sol\":1723:1765  uint[] memory reputations = new uint[](10) */\n      swap1\n      pop\n        /* \"complaintContract.sol\":1776:1782  uint i */\n      0x00\n        /* \"complaintContract.sol\":1772:1886  for(uint i=0; i< companies.length; i++){... */\n    tag_67:\n        /* \"complaintContract.sol\":1789:1798  companies */\n      0x00\n        /* \"complaintContract.sol\":1789:1805  companies.length */\n      dup1\n      sload\n      swap1\n      pop\n        /* \"complaintContract.sol\":1786:1787  i */\n      dup2\n        /* \"complaintContract.sol\":1786:1805  i< companies.length */\n      lt\n        /* \"complaintContract.sol\":1772:1886  for(uint i=0; i< companies.length; i++){... */\n      iszero\n      tag_68\n      jumpi\n        /* \"complaintContract.sol\":1838:1852  companyMapping */\n      0x01\n        /* \"complaintContract.sol\":1853:1862  companies */\n      0x00\n        /* \"complaintContract.sol\":1863:1864  i */\n      dup3\n        /* \"complaintContract.sol\":1853:1865  companies[i] */\n      dup2\n      sload\n      dup2\n      lt\n      tag_70\n      jumpi\n      tag_71\n      tag_72\n      jump\t// in\n    tag_71:\n    tag_70:\n      swap1\n      0x00\n      mstore\n      keccak256(0x00, 0x20)\n      add\n        /* \"complaintContract.sol\":1838:1866  companyMapping[companies[i]] */\n      mload(0x40)\n      tag_74\n      swap2\n      swap1\n      tag_75\n      jump\t// in\n    tag_74:\n      swap1\n      dup2\n      mstore\n      0x20\n      add\n      mload(0x40)\n      dup1\n      swap2\n      sub\n      swap1\n      keccak256\n        /* \"complaintContract.sol\":1838:1877  companyMapping[companies[i]].reputation */\n      0x00\n      add\n      sload\n        /* \"complaintContract.sol\":1820:1831  reputations */\n      dup3\n        /* \"complaintContract.sol\":1832:1833  i */\n      dup3\n        /* \"complaintContract.sol\":1820:1834  reputations[i] */\n      dup2\n      mload\n      dup2\n      lt\n      tag_76\n      jumpi\n      tag_77\n      tag_72\n      jump\t// in\n    tag_77:\n    tag_76:\n      0x20\n      mul\n      0x20\n      add\n      add\n        /* \"complaintContract.sol\":1820:1878  reputations[i] = (companyMapping[companies[i]].reputation) */\n      dup2\n      dup2\n      mstore\n      pop\n      pop\n        /* \"complaintContract.sol\":1807:1810  i++ */\n      dup1\n      dup1\n      tag_78\n      swap1\n      tag_79\n      jump\t// in\n    tag_78:\n      swap2\n      pop\n      pop\n        /* \"complaintContract.sol\":1772:1886  for(uint i=0; i< companies.length; i++){... */\n      jump(tag_67)\n    tag_68:\n      pop\n        /* \"complaintContract.sol\":1899:1910  reputations */\n      dup1\n        /* \"complaintContract.sol\":1892:1910  return reputations */\n      swap2\n      pop\n      pop\n        /* \"complaintContract.sol\":1653:1916  function getReputation() external view returns (uint[] memory) {... */\n      swap1\n      jump\t// out\n    tag_55:\n      dup3\n      dup1\n      sload\n      tag_80\n      swap1\n      tag_30\n      jump\t// in\n    tag_80:\n      swap1\n      0x00\n      mstore\n      keccak256(0x00, 0x20)\n      swap1\n      0x1f\n      add\n      0x20\n      swap1\n      div\n      dup2\n      add\n      swap3\n      dup3\n      tag_82\n      jumpi\n      0x00\n      dup6\n      sstore\n      jump(tag_81)\n    tag_82:\n      dup3\n      0x1f\n      lt\n      tag_83\n      jumpi\n      dup1\n      mload\n      not(0xff)\n      and\n      dup4\n      dup1\n      add\n      or\n      dup6\n      sstore\n      jump(tag_81)\n    tag_83:\n      dup3\n      dup1\n      add\n      0x01\n      add\n      dup6\n      sstore\n      dup3\n      iszero\n      tag_81\n      jumpi\n      swap2\n      dup3\n      add\n    tag_84:\n      dup3\n      dup2\n      gt\n      iszero\n      tag_85\n      jumpi\n      dup3\n      mload\n      dup3\n      sstore\n      swap2\n      0x20\n      add\n      swap2\n      swap1\n      0x01\n      add\n      swap1\n      jump(tag_84)\n    tag_85:\n    tag_81:\n      pop\n      swap1\n      pop\n      tag_86\n      swap2\n      swap1\n      tag_87\n      jump\t// in\n    tag_86:\n      pop\n      swap1\n      jump\t// out\n    tag_87:\n    tag_88:\n      dup1\n      dup3\n      gt\n      iszero\n      tag_89\n      jumpi\n      0x00\n      dup2\n      0x00\n      swap1\n      sstore\n      pop\n      0x01\n      add\n      jump(tag_88)\n    tag_89:\n      pop\n      swap1\n      jump\t// out\n        /* \"#utility.yul\":7:131   */\n    tag_90:\n        /* \"#utility.yul\":84:90   */\n      0x00\n        /* \"#utility.yul\":118:123   */\n      dup2\n        /* \"#utility.yul\":112:124   */\n      mload\n        /* \"#utility.yul\":102:124   */\n      swap1\n      pop\n        /* \"#utility.yul\":7:131   */\n      swap2\n      swap1\n      pop\n      jump\t// out\n        /* \"#utility.yul\":137:331   */\n    tag_91:\n        /* \"#utility.yul\":246:257   */\n      0x00\n        /* \"#utility.yul\":280:286   */\n      dup3\n        /* \"#utility.yul\":275:278   */\n      dup3\n        /* \"#utility.yul\":268:287   */\n      mstore\n        /* \"#utility.yul\":320:324   */\n      0x20\n        /* \"#utility.yul\":315:318   */\n      dup3\n        /* \"#utility.yul\":311:325   */\n      add\n        /* \"#utility.yul\":296:325   */\n      swap1\n      pop\n        /* \"#utility.yul\":137:331   */\n      swap3\n      swap2\n      pop\n      pop\n      jump\t// out\n        /* \"#utility.yul\":337:479   */\n    tag_92:\n        /* \"#utility.yul\":414:418   */\n      0x00\n        /* \"#utility.yul\":437:440   */\n      dup2\n        /* \"#utility.yul\":429:440   */\n      swap1\n      pop\n        /* \"#utility.yul\":467:471   */\n      0x20\n        /* \"#utility.yul\":462:465   */\n      dup3\n        /* \"#utility.yul\":458:472   */\n      add\n        /* \"#utility.yul\":450:472   */\n      swap1\n      pop\n        /* \"#utility.yul\":337:479   */\n      swap2\n      swap1\n      pop\n      jump\t// out\n        /* \"#utility.yul\":485:584   */\n    tag_93:\n        /* \"#utility.yul\":537:543   */\n      0x00\n        /* \"#utility.yul\":571:576   */\n      dup2\n        /* \"#utility.yul\":565:577   */\n      mload\n        /* \"#utility.yul\":555:577   */\n      swap1\n      pop\n        /* \"#utility.yul\":485:584   */\n      swap2\n      swap1\n      pop\n      jump\t// out\n        /* \"#utility.yul\":590:749   */\n    tag_94:\n        /* \"#utility.yul\":664:675   */\n      0x00\n        /* \"#utility.yul\":698:704   */\n      dup3\n        /* \"#utility.yul\":693:696   */\n      dup3\n        /* \"#utility.yul\":686:705   */\n      mstore\n        /* \"#utility.yul\":738:742   */\n      0x20\n        /* \"#utility.yul\":733:736   */\n      dup3\n        /* \"#utility.yul\":729:743   */\n      add\n        /* \"#utility.yul\":714:743   */\n      swap1\n      pop\n        /* \"#utility.yul\":590:749   */\n      swap3\n      swap2\n      pop\n      pop\n      jump\t// out\n        /* \"#utility.yul\":755:1062   */\n    tag_95:\n        /* \"#utility.yul\":823:824   */\n      0x00\n        /* \"#utility.yul\":833:946   */\n    tag_140:\n        /* \"#utility.yul\":847:853   */\n      dup4\n        /* \"#utility.yul\":844:845   */\n      dup2\n        /* \"#utility.yul\":841:854   */\n      lt\n        /* \"#utility.yul\":833:946   */\n      iszero\n      tag_142\n      jumpi\n        /* \"#utility.yul\":932:933   */\n      dup1\n        /* \"#utility.yul\":927:930   */\n      dup3\n        /* \"#utility.yul\":923:934   */\n      add\n        /* \"#utility.yul\":917:935   */\n      mload\n        /* \"#utility.yul\":913:914   */\n      dup2\n        /* \"#utility.yul\":908:911   */\n      dup5\n        /* \"#utility.yul\":904:915   */\n      add\n        /* \"#utility.yul\":897:936   */\n      mstore\n        /* \"#utility.yul\":869:871   */\n      0x20\n        /* \"#utility.yul\":866:867   */\n      dup2\n        /* \"#utility.yul\":862:872   */\n      add\n        /* \"#utility.yul\":857:872   */\n      swap1\n      pop\n        /* \"#utility.yul\":833:946   */\n      jump(tag_140)\n    tag_142:\n        /* \"#utility.yul\":964:970   */\n      dup4\n        /* \"#utility.yul\":961:962   */\n      dup2\n        /* \"#utility.yul\":958:971   */\n      gt\n        /* \"#utility.yul\":955:1056   */\n      iszero\n      tag_143\n      jumpi\n        /* \"#utility.yul\":1044:1045   */\n      0x00\n        /* \"#utility.yul\":1035:1041   */\n      dup5\n        /* \"#utility.yul\":1030:1033   */\n      dup5\n        /* \"#utility.yul\":1026:1042   */\n      add\n        /* \"#utility.yul\":1019:1046   */\n      mstore\n        /* \"#utility.yul\":955:1056   */\n    tag_143:\n        /* \"#utility.yul\":804:1062   */\n      pop\n        /* \"#utility.yul\":755:1062   */\n      pop\n      pop\n      pop\n      jump\t// out\n        /* \"#utility.yul\":1068:1170   */\n    tag_96:\n        /* \"#utility.yul\":1109:1115   */\n      0x00\n        /* \"#utility.yul\":1160:1162   */\n      0x1f\n        /* \"#utility.yul\":1156:1163   */\n      not\n        /* \"#utility.yul\":1151:1153   */\n      0x1f\n        /* \"#utility.yul\":1144:1149   */\n      dup4\n        /* \"#utility.yul\":1140:1154   */\n      add\n        /* \"#utility.yul\":1136:1164   */\n      and\n        /* \"#utility.yul\":1126:1164   */\n      swap1\n      pop\n        /* \"#utility.yul\":1068:1170   */\n      swap2\n      swap1\n      pop\n      jump\t// out\n        /* \"#utility.yul\":1176:1520   */\n    tag_97:\n        /* \"#utility.yul\":1254:1257   */\n      0x00\n        /* \"#utility.yul\":1282:1321   */\n      tag_146\n        /* \"#utility.yul\":1315:1320   */\n      dup3\n        /* \"#utility.yul\":1282:1321   */\n      tag_93\n      jump\t// in\n    tag_146:\n        /* \"#utility.yul\":1337:1398   */\n      tag_147\n        /* \"#utility.yul\":1391:1397   */\n      dup2\n        /* \"#utility.yul\":1386:1389   */\n      dup6\n        /* \"#utility.yul\":1337:1398   */\n      tag_94\n      jump\t// in\n    tag_147:\n        /* \"#utility.yul\":1330:1398   */\n      swap4\n      pop\n        /* \"#utility.yul\":1407:1459   */\n      tag_148\n        /* \"#utility.yul\":1452:1458   */\n      dup2\n        /* \"#utility.yul\":1447:1450   */\n      dup6\n        /* \"#utility.yul\":1440:1444   */\n      0x20\n        /* \"#utility.yul\":1433:1438   */\n      dup7\n        /* \"#utility.yul\":1429:1445   */\n      add\n        /* \"#utility.yul\":1407:1459   */\n      tag_95\n      jump\t// in\n    tag_148:\n        /* \"#utility.yul\":1484:1513   */\n      tag_149\n        /* \"#utility.yul\":1506:1512   */\n      dup2\n        /* \"#utility.yul\":1484:1513   */\n      tag_96\n      jump\t// in\n    tag_149:\n        /* \"#utility.yul\":1479:1482   */\n      dup5\n        /* \"#utility.yul\":1475:1514   */\n      add\n        /* \"#utility.yul\":1468:1514   */\n      swap2\n      pop\n        /* \"#utility.yul\":1258:1520   */\n      pop\n        /* \"#utility.yul\":1176:1520   */\n      swap3\n      swap2\n      pop\n      pop\n      jump\t// out\n        /* \"#utility.yul\":1526:1722   */\n    tag_98:\n        /* \"#utility.yul\":1615:1625   */\n      0x00\n        /* \"#utility.yul\":1650:1716   */\n      tag_151\n        /* \"#utility.yul\":1712:1715   */\n      dup4\n        /* \"#utility.yul\":1704:1710   */\n      dup4\n        /* \"#utility.yul\":1650:1716   */\n      tag_97\n      jump\t// in\n    tag_151:\n        /* \"#utility.yul\":1636:1716   */\n      swap1\n      pop\n        /* \"#utility.yul\":1526:1722   */\n      swap3\n      swap2\n      pop\n      pop\n      jump\t// out\n        /* \"#utility.yul\":1728:1851   */\n    tag_99:\n        /* \"#utility.yul\":1808:1812   */\n      0x00\n        /* \"#utility.yul\":1840:1844   */\n      0x20\n        /* \"#utility.yul\":1835:1838   */\n      dup3\n        /* \"#utility.yul\":1831:1845   */\n      add\n        /* \"#utility.yul\":1823:1845   */\n      swap1\n      pop\n        /* \"#utility.yul\":1728:1851   */\n      swap2\n      swap1\n      pop\n      jump\t// out\n        /* \"#utility.yul\":1885:2876   */\n    tag_100:\n        /* \"#utility.yul\":2024:2027   */\n      0x00\n        /* \"#utility.yul\":2053:2117   */\n      tag_154\n        /* \"#utility.yul\":2111:2116   */\n      dup3\n        /* \"#utility.yul\":2053:2117   */\n      tag_90\n      jump\t// in\n    tag_154:\n        /* \"#utility.yul\":2133:2229   */\n      tag_155\n        /* \"#utility.yul\":2222:2228   */\n      dup2\n        /* \"#utility.yul\":2217:2220   */\n      dup6\n        /* \"#utility.yul\":2133:2229   */\n      tag_91\n      jump\t// in\n    tag_155:\n        /* \"#utility.yul\":2126:2229   */\n      swap4\n      pop\n        /* \"#utility.yul\":2255:2258   */\n      dup4\n        /* \"#utility.yul\":2300:2304   */\n      0x20\n        /* \"#utility.yul\":2292:2298   */\n      dup3\n        /* \"#utility.yul\":2288:2305   */\n      mul\n        /* \"#utility.yul\":2283:2286   */\n      dup6\n        /* \"#utility.yul\":2279:2306   */\n      add\n        /* \"#utility.yul\":2330:2396   */\n      tag_156\n        /* \"#utility.yul\":2390:2395   */\n      dup6\n        /* \"#utility.yul\":2330:2396   */\n      tag_92\n      jump\t// in\n    tag_156:\n        /* \"#utility.yul\":2419:2426   */\n      dup1\n        /* \"#utility.yul\":2450:2451   */\n      0x00\n        /* \"#utility.yul\":2435:2831   */\n    tag_157:\n        /* \"#utility.yul\":2460:2466   */\n      dup6\n        /* \"#utility.yul\":2457:2458   */\n      dup2\n        /* \"#utility.yul\":2454:2467   */\n      lt\n        /* \"#utility.yul\":2435:2831   */\n      iszero\n      tag_159\n      jumpi\n        /* \"#utility.yul\":2531:2540   */\n      dup5\n        /* \"#utility.yul\":2525:2529   */\n      dup5\n        /* \"#utility.yul\":2521:2541   */\n      sub\n        /* \"#utility.yul\":2516:2519   */\n      dup10\n        /* \"#utility.yul\":2509:2542   */\n      mstore\n        /* \"#utility.yul\":2582:2588   */\n      dup2\n        /* \"#utility.yul\":2576:2589   */\n      mload\n        /* \"#utility.yul\":2610:2694   */\n      tag_160\n        /* \"#utility.yul\":2689:2693   */\n      dup6\n        /* \"#utility.yul\":2674:2687   */\n      dup3\n        /* \"#utility.yul\":2610:2694   */\n      tag_98\n      jump\t// in\n    tag_160:\n        /* \"#utility.yul\":2602:2694   */\n      swap5\n      pop\n        /* \"#utility.yul\":2717:2787   */\n      tag_161\n        /* \"#utility.yul\":2780:2786   */\n      dup4\n        /* \"#utility.yul\":2717:2787   */\n      tag_99\n      jump\t// in\n    tag_161:\n        /* \"#utility.yul\":2707:2787   */\n      swap3\n      pop\n        /* \"#utility.yul\":2816:2820   */\n      0x20\n        /* \"#utility.yul\":2811:2814   */\n      dup11\n        /* \"#utility.yul\":2807:2821   */\n      add\n        /* \"#utility.yul\":2800:2821   */\n      swap10\n      pop\n        /* \"#utility.yul\":2495:2831   */\n      pop\n        /* \"#utility.yul\":2482:2483   */\n      0x01\n        /* \"#utility.yul\":2479:2480   */\n      dup2\n        /* \"#utility.yul\":2475:2484   */\n      add\n        /* \"#utility.yul\":2470:2484   */\n      swap1\n      pop\n        /* \"#utility.yul\":2435:2831   */\n      jump(tag_157)\n    tag_159:\n        /* \"#utility.yul\":2439:2453   */\n      pop\n        /* \"#utility.yul\":2847:2851   */\n      dup3\n        /* \"#utility.yul\":2840:2851   */\n      swap8\n      pop\n        /* \"#utility.yul\":2867:2870   */\n      dup8\n        /* \"#utility.yul\":2860:2870   */\n      swap6\n      pop\n        /* \"#utility.yul\":2029:2876   */\n      pop\n      pop\n      pop\n      pop\n      pop\n        /* \"#utility.yul\":1885:2876   */\n      swap3\n      swap2\n      pop\n      pop\n      jump\t// out\n        /* \"#utility.yul\":2882:3295   */\n    tag_10:\n        /* \"#utility.yul\":3045:3049   */\n      0x00\n        /* \"#utility.yul\":3083:3085   */\n      0x20\n        /* \"#utility.yul\":3072:3081   */\n      dup3\n        /* \"#utility.yul\":3068:3086   */\n      add\n        /* \"#utility.yul\":3060:3086   */\n      swap1\n      pop\n        /* \"#utility.yul\":3132:3141   */\n      dup2\n        /* \"#utility.yul\":3126:3130   */\n      dup2\n        /* \"#utility.yul\":3122:3142   */\n      sub\n        /* \"#utility.yul\":3118:3119   */\n      0x00\n        /* \"#utility.yul\":3107:3116   */\n      dup4\n        /* \"#utility.yul\":3103:3120   */\n      add\n        /* \"#utility.yul\":3096:3143   */\n      mstore\n        /* \"#utility.yul\":3160:3288   */\n      tag_163\n        /* \"#utility.yul\":3283:3287   */\n      dup2\n        /* \"#utility.yul\":3274:3280   */\n      dup5\n        /* \"#utility.yul\":3160:3288   */\n      tag_100\n      jump\t// in\n    tag_163:\n        /* \"#utility.yul\":3152:3288   */\n      swap1\n      pop\n        /* \"#utility.yul\":2882:3295   */\n      swap3\n      swap2\n      pop\n      pop\n      jump\t// out\n        /* \"#utility.yul\":3301:3376   */\n    tag_101:\n        /* \"#utility.yul\":3334:3340   */\n      0x00\n        /* \"#utility.yul\":3367:3369   */\n      0x40\n        /* \"#utility.yul\":3361:3370   */\n      mload\n        /* \"#utility.yul\":3351:3370   */\n      swap1\n      pop\n        /* \"#utility.yul\":3301:3376   */\n      swap1\n      jump\t// out\n        /* \"#utility.yul\":3382:3499   */\n    tag_102:\n        /* \"#utility.yul\":3491:3492   */\n      0x00\n        /* \"#utility.yul\":3488:3489   */\n      dup1\n        /* \"#utility.yul\":3481:3493   */\n      revert\n        /* \"#utility.yul\":3505:3622   */\n    tag_103:\n        /* \"#utility.yul\":3614:3615   */\n      0x00\n        /* \"#utility.yul\":3611:3612   */\n      dup1\n        /* \"#utility.yul\":3604:3616   */\n      revert\n        /* \"#utility.yul\":3628:3745   */\n    tag_104:\n        /* \"#utility.yul\":3737:3738   */\n      0x00\n        /* \"#utility.yul\":3734:3735   */\n      dup1\n        /* \"#utility.yul\":3727:3739   */\n      revert\n        /* \"#utility.yul\":3751:3868   */\n    tag_105:\n        /* \"#utility.yul\":3860:3861   */\n      0x00\n        /* \"#utility.yul\":3857:3858   */\n      dup1\n        /* \"#utility.yul\":3850:3862   */\n      revert\n        /* \"#utility.yul\":3874:4054   */\n    tag_65:\n        /* \"#utility.yul\":3922:3999   */\n      0x4e487b7100000000000000000000000000000000000000000000000000000000\n        /* \"#utility.yul\":3919:3920   */\n      0x00\n        /* \"#utility.yul\":3912:4000   */\n      mstore\n        /* \"#utility.yul\":4019:4023   */\n      0x41\n        /* \"#utility.yul\":4016:4017   */\n      0x04\n        /* \"#utility.yul\":4009:4024   */\n      mstore\n        /* \"#utility.yul\":4043:4047   */\n      0x24\n        /* \"#utility.yul\":4040:4041   */\n      0x00\n        /* \"#utility.yul\":4033:4048   */\n      revert\n        /* \"#utility.yul\":4060:4341   */\n    tag_106:\n        /* \"#utility.yul\":4143:4170   */\n      tag_171\n        /* \"#utility.yul\":4165:4169   */\n      dup3\n        /* \"#utility.yul\":4143:4170   */\n      tag_96\n      jump\t// in\n    tag_171:\n        /* \"#utility.yul\":4135:4141   */\n      dup2\n        /* \"#utility.yul\":4131:4171   */\n      add\n        /* \"#utility.yul\":4273:4279   */\n      dup2\n        /* \"#utility.yul\":4261:4271   */\n      dup2\n        /* \"#utility.yul\":4258:4280   */\n      lt\n        /* \"#utility.yul\":4237:4255   */\n      0xffffffffffffffff\n        /* \"#utility.yul\":4225:4235   */\n      dup3\n        /* \"#utility.yul\":4222:4256   */\n      gt\n        /* \"#utility.yul\":4219:4281   */\n      or\n        /* \"#utility.yul\":4216:4304   */\n      iszero\n      tag_172\n      jumpi\n        /* \"#utility.yul\":4284:4302   */\n      tag_173\n      tag_65\n      jump\t// in\n    tag_173:\n        /* \"#utility.yul\":4216:4304   */\n    tag_172:\n        /* \"#utility.yul\":4324:4334   */\n      dup1\n        /* \"#utility.yul\":4320:4322   */\n      0x40\n        /* \"#utility.yul\":4313:4335   */\n      mstore\n        /* \"#utility.yul\":4103:4341   */\n      pop\n        /* \"#utility.yul\":4060:4341   */\n      pop\n      pop\n      jump\t// out\n        /* \"#utility.yul\":4347:4476   */\n    tag_107:\n        /* \"#utility.yul\":4381:4387   */\n      0x00\n        /* \"#utility.yul\":4408:4428   */\n      tag_175\n      tag_101\n      jump\t// in\n    tag_175:\n        /* \"#utility.yul\":4398:4428   */\n      swap1\n      pop\n        /* \"#utility.yul\":4437:4470   */\n      tag_176\n        /* \"#utility.yul\":4465:4469   */\n      dup3\n        /* \"#utility.yul\":4457:4463   */\n      dup3\n        /* \"#utility.yul\":4437:4470   */\n      tag_106\n      jump\t// in\n    tag_176:\n        /* \"#utility.yul\":4347:4476   */\n      swap2\n      swap1\n      pop\n      jump\t// out\n        /* \"#utility.yul\":4482:4790   */\n    tag_108:\n        /* \"#utility.yul\":4544:4548   */\n      0x00\n        /* \"#utility.yul\":4634:4652   */\n      0xffffffffffffffff\n        /* \"#utility.yul\":4626:4632   */\n      dup3\n        /* \"#utility.yul\":4623:4653   */\n      gt\n        /* \"#utility.yul\":4620:4676   */\n      iszero\n      tag_178\n      jumpi\n        /* \"#utility.yul\":4656:4674   */\n      tag_179\n      tag_65\n      jump\t// in\n    tag_179:\n        /* \"#utility.yul\":4620:4676   */\n    tag_178:\n        /* \"#utility.yul\":4694:4723   */\n      tag_180\n        /* \"#utility.yul\":4716:4722   */\n      dup3\n        /* \"#utility.yul\":4694:4723   */\n      tag_96\n      jump\t// in\n    tag_180:\n        /* \"#utility.yul\":4686:4723   */\n      swap1\n      pop\n        /* \"#utility.yul\":4778:4782   */\n      0x20\n        /* \"#utility.yul\":4772:4776   */\n      dup2\n        /* \"#utility.yul\":4768:4783   */\n      add\n        /* \"#utility.yul\":4760:4783   */\n      swap1\n      pop\n        /* \"#utility.yul\":4482:4790   */\n      swap2\n      swap1\n      pop\n      jump\t// out\n        /* \"#utility.yul\":4796:4950   */\n    tag_109:\n        /* \"#utility.yul\":4880:4886   */\n      dup3\n        /* \"#utility.yul\":4875:4878   */\n      dup2\n        /* \"#utility.yul\":4870:4873   */\n      dup4\n        /* \"#utility.yul\":4857:4887   */\n      calldatacopy\n        /* \"#utility.yul\":4942:4943   */\n      0x00\n        /* \"#utility.yul\":4933:4939   */\n      dup4\n        /* \"#utility.yul\":4928:4931   */\n      dup4\n        /* \"#utility.yul\":4924:4940   */\n      add\n        /* \"#utility.yul\":4917:4944   */\n      mstore\n        /* \"#utility.yul\":4796:4950   */\n      pop\n      pop\n      pop\n      jump\t// out\n        /* \"#utility.yul\":4956:5368   */\n    tag_110:\n        /* \"#utility.yul\":5034:5039   */\n      0x00\n        /* \"#utility.yul\":5059:5125   */\n      tag_183\n        /* \"#utility.yul\":5075:5124   */\n      tag_184\n        /* \"#utility.yul\":5117:5123   */\n      dup5\n        /* \"#utility.yul\":5075:5124   */\n      tag_108\n      jump\t// in\n    tag_184:\n        /* \"#utility.yul\":5059:5125   */\n      tag_107\n      jump\t// in\n    tag_183:\n        /* \"#utility.yul\":5050:5125   */\n      swap1\n      pop\n        /* \"#utility.yul\":5148:5154   */\n      dup3\n        /* \"#utility.yul\":5141:5146   */\n      dup2\n        /* \"#utility.yul\":5134:5155   */\n      mstore\n        /* \"#utility.yul\":5186:5190   */\n      0x20\n        /* \"#utility.yul\":5179:5184   */\n      dup2\n        /* \"#utility.yul\":5175:5191   */\n      add\n        /* \"#utility.yul\":5224:5227   */\n      dup5\n        /* \"#utility.yul\":5215:5221   */\n      dup5\n        /* \"#utility.yul\":5210:5213   */\n      dup5\n        /* \"#utility.yul\":5206:5222   */\n      add\n        /* \"#utility.yul\":5203:5228   */\n      gt\n        /* \"#utility.yul\":5200:5312   */\n      iszero\n      tag_185\n      jumpi\n        /* \"#utility.yul\":5231:5310   */\n      tag_186\n      tag_105\n      jump\t// in\n    tag_186:\n        /* \"#utility.yul\":5200:5312   */\n    tag_185:\n        /* \"#utility.yul\":5321:5362   */\n      tag_187\n        /* \"#utility.yul\":5355:5361   */\n      dup5\n        /* \"#utility.yul\":5350:5353   */\n      dup3\n        /* \"#utility.yul\":5345:5348   */\n      dup6\n        /* \"#utility.yul\":5321:5362   */\n      tag_109\n      jump\t// in\n    tag_187:\n        /* \"#utility.yul\":5040:5368   */\n      pop\n        /* \"#utility.yul\":4956:5368   */\n      swap4\n      swap3\n      pop\n      pop\n      pop\n      jump\t// out\n        /* \"#utility.yul\":5388:5728   */\n    tag_111:\n        /* \"#utility.yul\":5444:5449   */\n      0x00\n        /* \"#utility.yul\":5493:5496   */\n      dup3\n        /* \"#utility.yul\":5486:5490   */\n      0x1f\n        /* \"#utility.yul\":5478:5484   */\n      dup4\n        /* \"#utility.yul\":5474:5491   */\n      add\n        /* \"#utility.yul\":5470:5497   */\n      slt\n        /* \"#utility.yul\":5460:5582   */\n      tag_189\n      jumpi\n        /* \"#utility.yul\":5501:5580   */\n      tag_190\n      tag_104\n      jump\t// in\n    tag_190:\n        /* \"#utility.yul\":5460:5582   */\n    tag_189:\n        /* \"#utility.yul\":5618:5624   */\n      dup2\n        /* \"#utility.yul\":5605:5625   */\n      calldataload\n        /* \"#utility.yul\":5643:5722   */\n      tag_191\n        /* \"#utility.yul\":5718:5721   */\n      dup5\n        /* \"#utility.yul\":5710:5716   */\n      dup3\n        /* \"#utility.yul\":5703:5707   */\n      0x20\n        /* \"#utility.yul\":5695:5701   */\n      dup7\n        /* \"#utility.yul\":5691:5708   */\n      add\n        /* \"#utility.yul\":5643:5722   */\n      tag_110\n      jump\t// in\n    tag_191:\n        /* \"#utility.yul\":5634:5722   */\n      swap2\n      pop\n        /* \"#utility.yul\":5450:5728   */\n      pop\n        /* \"#utility.yul\":5388:5728   */\n      swap3\n      swap2\n      pop\n      pop\n      jump\t// out\n        /* \"#utility.yul\":5734:6243   */\n    tag_13:\n        /* \"#utility.yul\":5803:5809   */\n      0x00\n        /* \"#utility.yul\":5852:5854   */\n      0x20\n        /* \"#utility.yul\":5840:5849   */\n      dup3\n        /* \"#utility.yul\":5831:5838   */\n      dup5\n        /* \"#utility.yul\":5827:5850   */\n      sub\n        /* \"#utility.yul\":5823:5855   */\n      slt\n        /* \"#utility.yul\":5820:5939   */\n      iszero\n      tag_193\n      jumpi\n        /* \"#utility.yul\":5858:5937   */\n      tag_194\n      tag_102\n      jump\t// in\n    tag_194:\n        /* \"#utility.yul\":5820:5939   */\n    tag_193:\n        /* \"#utility.yul\":6006:6007   */\n      0x00\n        /* \"#utility.yul\":5995:6004   */\n      dup3\n        /* \"#utility.yul\":5991:6008   */\n      add\n        /* \"#utility.yul\":5978:6009   */\n      calldataload\n        /* \"#utility.yul\":6036:6054   */\n      0xffffffffffffffff\n        /* \"#utility.yul\":6028:6034   */\n      dup2\n        /* \"#utility.yul\":6025:6055   */\n      gt\n        /* \"#utility.yul\":6022:6139   */\n      iszero\n      tag_195\n      jumpi\n        /* \"#utility.yul\":6058:6137   */\n      tag_196\n      tag_103\n      jump\t// in\n    tag_196:\n        /* \"#utility.yul\":6022:6139   */\n    tag_195:\n        /* \"#utility.yul\":6163:6226   */\n      tag_197\n        /* \"#utility.yul\":6218:6225   */\n      dup5\n        /* \"#utility.yul\":6209:6215   */\n      dup3\n        /* \"#utility.yul\":6198:6207   */\n      dup6\n        /* \"#utility.yul\":6194:6216   */\n      add\n        /* \"#utility.yul\":6163:6226   */\n      tag_111\n      jump\t// in\n    tag_197:\n        /* \"#utility.yul\":6153:6226   */\n      swap2\n      pop\n        /* \"#utility.yul\":5949:6236   */\n      pop\n        /* \"#utility.yul\":5734:6243   */\n      swap3\n      swap2\n      pop\n      pop\n      jump\t// out\n        /* \"#utility.yul\":6249:6387   */\n    tag_112:\n        /* \"#utility.yul\":6340:6346   */\n      0x00\n        /* \"#utility.yul\":6374:6379   */\n      dup2\n        /* \"#utility.yul\":6368:6380   */\n      mload\n        /* \"#utility.yul\":6358:6380   */\n      swap1\n      pop\n        /* \"#utility.yul\":6249:6387   */\n      swap2\n      swap1\n      pop\n      jump\t// out\n        /* \"#utility.yul\":6393:6601   */\n    tag_113:\n        /* \"#utility.yul\":6516:6527   */\n      0x00\n        /* \"#utility.yul\":6550:6556   */\n      dup3\n        /* \"#utility.yul\":6545:6548   */\n      dup3\n        /* \"#utility.yul\":6538:6557   */\n      mstore\n        /* \"#utility.yul\":6590:6594   */\n      0x20\n        /* \"#utility.yul\":6585:6588   */\n      dup3\n        /* \"#utility.yul\":6581:6595   */\n      add\n        /* \"#utility.yul\":6566:6595   */\n      swap1\n      pop\n        /* \"#utility.yul\":6393:6601   */\n      swap3\n      swap2\n      pop\n      pop\n      jump\t// out\n        /* \"#utility.yul\":6607:6763   */\n    tag_114:\n        /* \"#utility.yul\":6698:6702   */\n      0x00\n        /* \"#utility.yul\":6721:6724   */\n      dup2\n        /* \"#utility.yul\":6713:6724   */\n      swap1\n      pop\n        /* \"#utility.yul\":6751:6755   */\n      0x20\n        /* \"#utility.yul\":6746:6749   */\n      dup3\n        /* \"#utility.yul\":6742:6756   */\n      add\n        /* \"#utility.yul\":6734:6756   */\n      swap1\n      pop\n        /* \"#utility.yul\":6607:6763   */\n      swap2\n      swap1\n      pop\n      jump\t// out\n        /* \"#utility.yul\":6849:7514   */\n    tag_115:\n        /* \"#utility.yul\":6956:6959   */\n      0x00\n        /* \"#utility.yul\":6992:6996   */\n      0x40\n        /* \"#utility.yul\":6987:6990   */\n      dup4\n        /* \"#utility.yul\":6983:6997   */\n      add\n        /* \"#utility.yul\":7079:7083   */\n      0x00\n        /* \"#utility.yul\":7072:7077   */\n      dup4\n        /* \"#utility.yul\":7068:7084   */\n      add\n        /* \"#utility.yul\":7062:7085   */\n      mload\n        /* \"#utility.yul\":7132:7135   */\n      dup5\n        /* \"#utility.yul\":7126:7130   */\n      dup3\n        /* \"#utility.yul\":7122:7136   */\n      sub\n        /* \"#utility.yul\":7115:7119   */\n      0x00\n        /* \"#utility.yul\":7110:7113   */\n      dup7\n        /* \"#utility.yul\":7106:7120   */\n      add\n        /* \"#utility.yul\":7099:7137   */\n      mstore\n        /* \"#utility.yul\":7158:7231   */\n      tag_202\n        /* \"#utility.yul\":7226:7230   */\n      dup3\n        /* \"#utility.yul\":7212:7224   */\n      dup3\n        /* \"#utility.yul\":7158:7231   */\n      tag_97\n      jump\t// in\n    tag_202:\n        /* \"#utility.yul\":7150:7231   */\n      swap2\n      pop\n        /* \"#utility.yul\":7007:7242   */\n      pop\n        /* \"#utility.yul\":7324:7328   */\n      0x20\n        /* \"#utility.yul\":7317:7322   */\n      dup4\n        /* \"#utility.yul\":7313:7329   */\n      add\n        /* \"#utility.yul\":7307:7330   */\n      mload\n        /* \"#utility.yul\":7377:7380   */\n      dup5\n        /* \"#utility.yul\":7371:7375   */\n      dup3\n        /* \"#utility.yul\":7367:7381   */\n      sub\n        /* \"#utility.yul\":7360:7364   */\n      0x20\n        /* \"#utility.yul\":7355:7358   */\n      dup7\n        /* \"#utility.yul\":7351:7365   */\n      add\n        /* \"#utility.yul\":7344:7382   */\n      mstore\n        /* \"#utility.yul\":7403:7476   */\n      tag_203\n        /* \"#utility.yul\":7471:7475   */\n      dup3\n        /* \"#utility.yul\":7457:7469   */\n      dup3\n        /* \"#utility.yul\":7403:7476   */\n      tag_97\n      jump\t// in\n    tag_203:\n        /* \"#utility.yul\":7395:7476   */\n      swap2\n      pop\n        /* \"#utility.yul\":7252:7487   */\n      pop\n        /* \"#utility.yul\":7504:7508   */\n      dup1\n        /* \"#utility.yul\":7497:7508   */\n      swap2\n      pop\n        /* \"#utility.yul\":6961:7514   */\n      pop\n        /* \"#utility.yul\":6849:7514   */\n      swap3\n      swap2\n      pop\n      pop\n      jump\t// out\n        /* \"#utility.yul\":7520:7772   */\n    tag_116:\n        /* \"#utility.yul\":7637:7647   */\n      0x00\n        /* \"#utility.yul\":7672:7766   */\n      tag_205\n        /* \"#utility.yul\":7762:7765   */\n      dup4\n        /* \"#utility.yul\":7754:7760   */\n      dup4\n        /* \"#utility.yul\":7672:7766   */\n      tag_115\n      jump\t// in\n    tag_205:\n        /* \"#utility.yul\":7658:7766   */\n      swap1\n      pop\n        /* \"#utility.yul\":7520:7772   */\n      swap3\n      swap2\n      pop\n      pop\n      jump\t// out\n        /* \"#utility.yul\":7778:7915   */\n    tag_117:\n        /* \"#utility.yul\":7872:7876   */\n      0x00\n        /* \"#utility.yul\":7904:7908   */\n      0x20\n        /* \"#utility.yul\":7899:7902   */\n      dup3\n        /* \"#utility.yul\":7895:7909   */\n      add\n        /* \"#utility.yul\":7887:7909   */\n      swap1\n      pop\n        /* \"#utility.yul\":7778:7915   */\n      swap2\n      swap1\n      pop\n      jump\t// out\n        /* \"#utility.yul\":8005:9108   */\n    tag_118:\n        /* \"#utility.yul\":8172:8175   */\n      0x00\n        /* \"#utility.yul\":8201:8279   */\n      tag_208\n        /* \"#utility.yul\":8273:8278   */\n      dup3\n        /* \"#utility.yul\":8201:8279   */\n      tag_112\n      jump\t// in\n    tag_208:\n        /* \"#utility.yul\":8295:8405   */\n      tag_209\n        /* \"#utility.yul\":8398:8404   */\n      dup2\n        /* \"#utility.yul\":8393:8396   */\n      dup6\n        /* \"#utility.yul\":8295:8405   */\n      tag_113\n      jump\t// in\n    tag_209:\n        /* \"#utility.yul\":8288:8405   */\n      swap4\n      pop\n        /* \"#utility.yul\":8431:8434   */\n      dup4\n        /* \"#utility.yul\":8476:8480   */\n      0x20\n        /* \"#utility.yul\":8468:8474   */\n      dup3\n        /* \"#utility.yul\":8464:8481   */\n      mul\n        /* \"#utility.yul\":8459:8462   */\n      dup6\n        /* \"#utility.yul\":8455:8482   */\n      add\n        /* \"#utility.yul\":8506:8586   */\n      tag_210\n        /* \"#utility.yul\":8580:8585   */\n      dup6\n        /* \"#utility.yul\":8506:8586   */\n      tag_114\n      jump\t// in\n    tag_210:\n        /* \"#utility.yul\":8609:8616   */\n      dup1\n        /* \"#utility.yul\":8640:8641   */\n      0x00\n        /* \"#utility.yul\":8625:9063   */\n    tag_211:\n        /* \"#utility.yul\":8650:8656   */\n      dup6\n        /* \"#utility.yul\":8647:8648   */\n      dup2\n        /* \"#utility.yul\":8644:8657   */\n      lt\n        /* \"#utility.yul\":8625:9063   */\n      iszero\n      tag_213\n      jumpi\n        /* \"#utility.yul\":8721:8730   */\n      dup5\n        /* \"#utility.yul\":8715:8719   */\n      dup5\n        /* \"#utility.yul\":8711:8731   */\n      sub\n        /* \"#utility.yul\":8706:8709   */\n      dup10\n        /* \"#utility.yul\":8699:8732   */\n      mstore\n        /* \"#utility.yul\":8772:8778   */\n      dup2\n        /* \"#utility.yul\":8766:8779   */\n      mload\n        /* \"#utility.yul\":8800:8912   */\n      tag_214\n        /* \"#utility.yul\":8907:8911   */\n      dup6\n        /* \"#utility.yul\":8892:8905   */\n      dup3\n        /* \"#utility.yul\":8800:8912   */\n      tag_116\n      jump\t// in\n    tag_214:\n        /* \"#utility.yul\":8792:8912   */\n      swap5\n      pop\n        /* \"#utility.yul\":8935:9019   */\n      tag_215\n        /* \"#utility.yul\":9012:9018   */\n      dup4\n        /* \"#utility.yul\":8935:9019   */\n      tag_117\n      jump\t// in\n    tag_215:\n        /* \"#utility.yul\":8925:9019   */\n      swap3\n      pop\n        /* \"#utility.yul\":9048:9052   */\n      0x20\n        /* \"#utility.yul\":9043:9046   */\n      dup11\n        /* \"#utility.yul\":9039:9053   */\n      add\n        /* \"#utility.yul\":9032:9053   */\n      swap10\n      pop\n        /* \"#utility.yul\":8685:9063   */\n      pop\n        /* \"#utility.yul\":8672:8673   */\n      0x01\n        /* \"#utility.yul\":8669:8670   */\n      dup2\n        /* \"#utility.yul\":8665:8674   */\n      add\n        /* \"#utility.yul\":8660:8674   */\n      swap1\n      pop\n        /* \"#utility.yul\":8625:9063   */\n      jump(tag_211)\n    tag_213:\n        /* \"#utility.yul\":8629:8643   */\n      pop\n        /* \"#utility.yul\":9079:9083   */\n      dup3\n        /* \"#utility.yul\":9072:9083   */\n      swap8\n      pop\n        /* \"#utility.yul\":9099:9102   */\n      dup8\n        /* \"#utility.yul\":9092:9102   */\n      swap6\n      pop\n        /* \"#utility.yul\":8177:9108   */\n      pop\n      pop\n      pop\n      pop\n      pop\n        /* \"#utility.yul\":8005:9108   */\n      swap3\n      swap2\n      pop\n      pop\n      jump\t// out\n        /* \"#utility.yul\":9114:9583   */\n    tag_16:\n        /* \"#utility.yul\":9305:9309   */\n      0x00\n        /* \"#utility.yul\":9343:9345   */\n      0x20\n        /* \"#utility.yul\":9332:9341   */\n      dup3\n        /* \"#utility.yul\":9328:9346   */\n      add\n        /* \"#utility.yul\":9320:9346   */\n      swap1\n      pop\n        /* \"#utility.yul\":9392:9401   */\n      dup2\n        /* \"#utility.yul\":9386:9390   */\n      dup2\n        /* \"#utility.yul\":9382:9402   */\n      sub\n        /* \"#utility.yul\":9378:9379   */\n      0x00\n        /* \"#utility.yul\":9367:9376   */\n      dup4\n        /* \"#utility.yul\":9363:9380   */\n      add\n        /* \"#utility.yul\":9356:9403   */\n      mstore\n        /* \"#utility.yul\":9420:9576   */\n      tag_217\n        /* \"#utility.yul\":9571:9575   */\n      dup2\n        /* \"#utility.yul\":9562:9568   */\n      dup5\n        /* \"#utility.yul\":9420:9576   */\n      tag_118\n      jump\t// in\n    tag_217:\n        /* \"#utility.yul\":9412:9576   */\n      swap1\n      pop\n        /* \"#utility.yul\":9114:9583   */\n      swap3\n      swap2\n      pop\n      pop\n      jump\t// out\n        /* \"#utility.yul\":9589:10748   */\n    tag_19:\n        /* \"#utility.yul\":9696:9702   */\n      0x00\n        /* \"#utility.yul\":9704:9710   */\n      dup1\n        /* \"#utility.yul\":9712:9718   */\n      0x00\n        /* \"#utility.yul\":9761:9763   */\n      0x60\n        /* \"#utility.yul\":9749:9758   */\n      dup5\n        /* \"#utility.yul\":9740:9747   */\n      dup7\n        /* \"#utility.yul\":9736:9759   */\n      sub\n        /* \"#utility.yul\":9732:9764   */\n      slt\n        /* \"#utility.yul\":9729:9848   */\n      iszero\n      tag_219\n      jumpi\n        /* \"#utility.yul\":9767:9846   */\n      tag_220\n      tag_102\n      jump\t// in\n    tag_220:\n        /* \"#utility.yul\":9729:9848   */\n    tag_219:\n        /* \"#utility.yul\":9915:9916   */\n      0x00\n        /* \"#utility.yul\":9904:9913   */\n      dup5\n        /* \"#utility.yul\":9900:9917   */\n      add\n        /* \"#utility.yul\":9887:9918   */\n      calldataload\n        /* \"#utility.yul\":9945:9963   */\n      0xffffffffffffffff\n        /* \"#utility.yul\":9937:9943   */\n      dup2\n        /* \"#utility.yul\":9934:9964   */\n      gt\n        /* \"#utility.yul\":9931:10048   */\n      iszero\n      tag_221\n      jumpi\n        /* \"#utility.yul\":9967:10046   */\n      tag_222\n      tag_103\n      jump\t// in\n    tag_222:\n        /* \"#utility.yul\":9931:10048   */\n    tag_221:\n        /* \"#utility.yul\":10072:10135   */\n      tag_223\n        /* \"#utility.yul\":10127:10134   */\n      dup7\n        /* \"#utility.yul\":10118:10124   */\n      dup3\n        /* \"#utility.yul\":10107:10116   */\n      dup8\n        /* \"#utility.yul\":10103:10125   */\n      add\n        /* \"#utility.yul\":10072:10135   */\n      tag_111\n      jump\t// in\n    tag_223:\n        /* \"#utility.yul\":10062:10135   */\n      swap4\n      pop\n        /* \"#utility.yul\":9858:10145   */\n      pop\n        /* \"#utility.yul\":10212:10214   */\n      0x20\n        /* \"#utility.yul\":10201:10210   */\n      dup5\n        /* \"#utility.yul\":10197:10215   */\n      add\n        /* \"#utility.yul\":10184:10216   */\n      calldataload\n        /* \"#utility.yul\":10243:10261   */\n      0xffffffffffffffff\n        /* \"#utility.yul\":10235:10241   */\n      dup2\n        /* \"#utility.yul\":10232:10262   */\n      gt\n        /* \"#utility.yul\":10229:10346   */\n      iszero\n      tag_224\n      jumpi\n        /* \"#utility.yul\":10265:10344   */\n      tag_225\n      tag_103\n      jump\t// in\n    tag_225:\n        /* \"#utility.yul\":10229:10346   */\n    tag_224:\n        /* \"#utility.yul\":10370:10433   */\n      tag_226\n        /* \"#utility.yul\":10425:10432   */\n      dup7\n        /* \"#utility.yul\":10416:10422   */\n      dup3\n        /* \"#utility.yul\":10405:10414   */\n      dup8\n        /* \"#utility.yul\":10401:10423   */\n      add\n        /* \"#utility.yul\":10370:10433   */\n      tag_111\n      jump\t// in\n    tag_226:\n        /* \"#utility.yul\":10360:10433   */\n      swap3\n      pop\n        /* \"#utility.yul\":10155:10443   */\n      pop\n        /* \"#utility.yul\":10510:10512   */\n      0x40\n        /* \"#utility.yul\":10499:10508   */\n      dup5\n        /* \"#utility.yul\":10495:10513   */\n      add\n        /* \"#utility.yul\":10482:10514   */\n      calldataload\n        /* \"#utility.yul\":10541:10559   */\n      0xffffffffffffffff\n        /* \"#utility.yul\":10533:10539   */\n      dup2\n        /* \"#utility.yul\":10530:10560   */\n      gt\n        /* \"#utility.yul\":10527:10644   */\n      iszero\n      tag_227\n      jumpi\n        /* \"#utility.yul\":10563:10642   */\n      tag_228\n      tag_103\n      jump\t// in\n    tag_228:\n        /* \"#utility.yul\":10527:10644   */\n    tag_227:\n        /* \"#utility.yul\":10668:10731   */\n      tag_229\n        /* \"#utility.yul\":10723:10730   */\n      dup7\n        /* \"#utility.yul\":10714:10720   */\n      dup3\n        /* \"#utility.yul\":10703:10712   */\n      dup8\n        /* \"#utility.yul\":10699:10721   */\n      add\n        /* \"#utility.yul\":10668:10731   */\n      tag_111\n      jump\t// in\n    tag_229:\n        /* \"#utility.yul\":10658:10731   */\n      swap2\n      pop\n        /* \"#utility.yul\":10453:10741   */\n      pop\n        /* \"#utility.yul\":9589:10748   */\n      swap3\n      pop\n      swap3\n      pop\n      swap3\n      jump\t// out\n        /* \"#utility.yul\":10754:10868   */\n    tag_119:\n        /* \"#utility.yul\":10821:10827   */\n      0x00\n        /* \"#utility.yul\":10855:10860   */\n      dup2\n        /* \"#utility.yul\":10849:10861   */\n      mload\n        /* \"#utility.yul\":10839:10861   */\n      swap1\n      pop\n        /* \"#utility.yul\":10754:10868   */\n      swap2\n      swap1\n      pop\n      jump\t// out\n        /* \"#utility.yul\":10874:11058   */\n    tag_120:\n        /* \"#utility.yul\":10973:10984   */\n      0x00\n        /* \"#utility.yul\":11007:11013   */\n      dup3\n        /* \"#utility.yul\":11002:11005   */\n      dup3\n        /* \"#utility.yul\":10995:11014   */\n      mstore\n        /* \"#utility.yul\":11047:11051   */\n      0x20\n        /* \"#utility.yul\":11042:11045   */\n      dup3\n        /* \"#utility.yul\":11038:11052   */\n      add\n        /* \"#utility.yul\":11023:11052   */\n      swap1\n      pop\n        /* \"#utility.yul\":10874:11058   */\n      swap3\n      swap2\n      pop\n      pop\n      jump\t// out\n        /* \"#utility.yul\":11064:11196   */\n    tag_121:\n        /* \"#utility.yul\":11131:11135   */\n      0x00\n        /* \"#utility.yul\":11154:11157   */\n      dup2\n        /* \"#utility.yul\":11146:11157   */\n      swap1\n      pop\n        /* \"#utility.yul\":11184:11188   */\n      0x20\n        /* \"#utility.yul\":11179:11182   */\n      dup3\n        /* \"#utility.yul\":11175:11189   */\n      add\n        /* \"#utility.yul\":11167:11189   */\n      swap1\n      pop\n        /* \"#utility.yul\":11064:11196   */\n      swap2\n      swap1\n      pop\n      jump\t// out\n        /* \"#utility.yul\":11202:11279   */\n    tag_122:\n        /* \"#utility.yul\":11239:11246   */\n      0x00\n        /* \"#utility.yul\":11268:11273   */\n      dup2\n        /* \"#utility.yul\":11257:11273   */\n      swap1\n      pop\n        /* \"#utility.yul\":11202:11279   */\n      swap2\n      swap1\n      pop\n      jump\t// out\n        /* \"#utility.yul\":11285:11393   */\n    tag_123:\n        /* \"#utility.yul\":11362:11386   */\n      tag_235\n        /* \"#utility.yul\":11380:11385   */\n      dup2\n        /* \"#utility.yul\":11362:11386   */\n      tag_122\n      jump\t// in\n    tag_235:\n        /* \"#utility.yul\":11357:11360   */\n      dup3\n        /* \"#utility.yul\":11350:11387   */\n      mstore\n        /* \"#utility.yul\":11285:11393   */\n      pop\n      pop\n      jump\t// out\n        /* \"#utility.yul\":11399:11578   */\n    tag_124:\n        /* \"#utility.yul\":11468:11478   */\n      0x00\n        /* \"#utility.yul\":11489:11535   */\n      tag_237\n        /* \"#utility.yul\":11531:11534   */\n      dup4\n        /* \"#utility.yul\":11523:11529   */\n      dup4\n        /* \"#utility.yul\":11489:11535   */\n      tag_123\n      jump\t// in\n    tag_237:\n        /* \"#utility.yul\":11567:11571   */\n      0x20\n        /* \"#utility.yul\":11562:11565   */\n      dup4\n        /* \"#utility.yul\":11558:11572   */\n      add\n        /* \"#utility.yul\":11544:11572   */\n      swap1\n      pop\n        /* \"#utility.yul\":11399:11578   */\n      swap3\n      swap2\n      pop\n      pop\n      jump\t// out\n        /* \"#utility.yul\":11584:11697   */\n    tag_125:\n        /* \"#utility.yul\":11654:11658   */\n      0x00\n        /* \"#utility.yul\":11686:11690   */\n      0x20\n        /* \"#utility.yul\":11681:11684   */\n      dup3\n        /* \"#utility.yul\":11677:11691   */\n      add\n        /* \"#utility.yul\":11669:11691   */\n      swap1\n      pop\n        /* \"#utility.yul\":11584:11697   */\n      swap2\n      swap1\n      pop\n      jump\t// out\n        /* \"#utility.yul\":11733:12465   */\n    tag_126:\n        /* \"#utility.yul\":11852:11855   */\n      0x00\n        /* \"#utility.yul\":11881:11935   */\n      tag_240\n        /* \"#utility.yul\":11929:11934   */\n      dup3\n        /* \"#utility.yul\":11881:11935   */\n      tag_119\n      jump\t// in\n    tag_240:\n        /* \"#utility.yul\":11951:12037   */\n      tag_241\n        /* \"#utility.yul\":12030:12036   */\n      dup2\n        /* \"#utility.yul\":12025:12028   */\n      dup6\n        /* \"#utility.yul\":11951:12037   */\n      tag_120\n      jump\t// in\n    tag_241:\n        /* \"#utility.yul\":11944:12037   */\n      swap4\n      pop\n        /* \"#utility.yul\":12061:12117   */\n      tag_242\n        /* \"#utility.yul\":12111:12116   */\n      dup4\n        /* \"#utility.yul\":12061:12117   */\n      tag_121\n      jump\t// in\n    tag_242:\n        /* \"#utility.yul\":12140:12147   */\n      dup1\n        /* \"#utility.yul\":12171:12172   */\n      0x00\n        /* \"#utility.yul\":12156:12440   */\n    tag_243:\n        /* \"#utility.yul\":12181:12187   */\n      dup4\n        /* \"#utility.yul\":12178:12179   */\n      dup2\n        /* \"#utility.yul\":12175:12188   */\n      lt\n        /* \"#utility.yul\":12156:12440   */\n      iszero\n      tag_245\n      jumpi\n        /* \"#utility.yul\":12257:12263   */\n      dup2\n        /* \"#utility.yul\":12251:12264   */\n      mload\n        /* \"#utility.yul\":12284:12347   */\n      tag_246\n        /* \"#utility.yul\":12343:12346   */\n      dup9\n        /* \"#utility.yul\":12328:12341   */\n      dup3\n        /* \"#utility.yul\":12284:12347   */\n      tag_124\n      jump\t// in\n    tag_246:\n        /* \"#utility.yul\":12277:12347   */\n      swap8\n      pop\n        /* \"#utility.yul\":12370:12430   */\n      tag_247\n        /* \"#utility.yul\":12423:12429   */\n      dup4\n        /* \"#utility.yul\":12370:12430   */\n      tag_125\n      jump\t// in\n    tag_247:\n        /* \"#utility.yul\":12360:12430   */\n      swap3\n      pop\n        /* \"#utility.yul\":12216:12440   */\n      pop\n        /* \"#utility.yul\":12203:12204   */\n      0x01\n        /* \"#utility.yul\":12200:12201   */\n      dup2\n        /* \"#utility.yul\":12196:12205   */\n      add\n        /* \"#utility.yul\":12191:12205   */\n      swap1\n      pop\n        /* \"#utility.yul\":12156:12440   */\n      jump(tag_243)\n    tag_245:\n        /* \"#utility.yul\":12160:12174   */\n      pop\n        /* \"#utility.yul\":12456:12459   */\n      dup6\n        /* \"#utility.yul\":12449:12459   */\n      swap4\n      pop\n        /* \"#utility.yul\":11857:12465   */\n      pop\n      pop\n      pop\n        /* \"#utility.yul\":11733:12465   */\n      swap3\n      swap2\n      pop\n      pop\n      jump\t// out\n        /* \"#utility.yul\":12471:12844   */\n    tag_24:\n        /* \"#utility.yul\":12614:12618   */\n      0x00\n        /* \"#utility.yul\":12652:12654   */\n      0x20\n        /* \"#utility.yul\":12641:12650   */\n      dup3\n        /* \"#utility.yul\":12637:12655   */\n      add\n        /* \"#utility.yul\":12629:12655   */\n      swap1\n      pop\n        /* \"#utility.yul\":12701:12710   */\n      dup2\n        /* \"#utility.yul\":12695:12699   */\n      dup2\n        /* \"#utility.yul\":12691:12711   */\n      sub\n        /* \"#utility.yul\":12687:12688   */\n      0x00\n        /* \"#utility.yul\":12676:12685   */\n      dup4\n        /* \"#utility.yul\":12672:12689   */\n      add\n        /* \"#utility.yul\":12665:12712   */\n      mstore\n        /* \"#utility.yul\":12729:12837   */\n      tag_249\n        /* \"#utility.yul\":12832:12836   */\n      dup2\n        /* \"#utility.yul\":12823:12829   */\n      dup5\n        /* \"#utility.yul\":12729:12837   */\n      tag_126\n      jump\t// in\n    tag_249:\n        /* \"#utility.yul\":12721:12837   */\n      swap1\n      pop\n        /* \"#utility.yul\":12471:12844   */\n      swap3\n      swap2\n      pop\n      pop\n      jump\t// out\n        /* \"#utility.yul\":12850:13030   */\n    tag_127:\n        /* \"#utility.yul\":12898:12975   */\n      0x4e487b7100000000000000000000000000000000000000000000000000000000\n        /* \"#utility.yul\":12895:12896   */\n      0x00\n        /* \"#utility.yul\":12888:12976   */\n      mstore\n        /* \"#utility.yul\":12995:12999   */\n      0x22\n        /* \"#utility.yul\":12992:12993   */\n      0x04\n        /* \"#utility.yul\":12985:13000   */\n      mstore\n        /* \"#utility.yul\":13019:13023   */\n      0x24\n        /* \"#utility.yul\":13016:13017   */\n      0x00\n        /* \"#utility.yul\":13009:13024   */\n      revert\n        /* \"#utility.yul\":13036:13356   */\n    tag_30:\n        /* \"#utility.yul\":13080:13086   */\n      0x00\n        /* \"#utility.yul\":13117:13118   */\n      0x02\n        /* \"#utility.yul\":13111:13115   */\n      dup3\n        /* \"#utility.yul\":13107:13119   */\n      div\n        /* \"#utility.yul\":13097:13119   */\n      swap1\n      pop\n        /* \"#utility.yul\":13164:13165   */\n      0x01\n        /* \"#utility.yul\":13158:13162   */\n      dup3\n        /* \"#utility.yul\":13154:13166   */\n      and\n        /* \"#utility.yul\":13185:13203   */\n      dup1\n        /* \"#utility.yul\":13175:13256   */\n      tag_252\n      jumpi\n        /* \"#utility.yul\":13241:13245   */\n      0x7f\n        /* \"#utility.yul\":13233:13239   */\n      dup3\n        /* \"#utility.yul\":13229:13246   */\n      and\n        /* \"#utility.yul\":13219:13246   */\n      swap2\n      pop\n        /* \"#utility.yul\":13175:13256   */\n    tag_252:\n        /* \"#utility.yul\":13303:13305   */\n      0x20\n        /* \"#utility.yul\":13295:13301   */\n      dup3\n        /* \"#utility.yul\":13292:13306   */\n      lt\n        /* \"#utility.yul\":13272:13290   */\n      dup2\n        /* \"#utility.yul\":13269:13307   */\n      eq\n        /* \"#utility.yul\":13266:13350   */\n      iszero\n      tag_253\n      jumpi\n        /* \"#utility.yul\":13322:13340   */\n      tag_254\n      tag_127\n      jump\t// in\n    tag_254:\n        /* \"#utility.yul\":13266:13350   */\n    tag_253:\n        /* \"#utility.yul\":13087:13356   */\n      pop\n        /* \"#utility.yul\":13036:13356   */\n      swap2\n      swap1\n      pop\n      jump\t// out\n        /* \"#utility.yul\":13362:13510   */\n    tag_128:\n        /* \"#utility.yul\":13464:13475   */\n      0x00\n        /* \"#utility.yul\":13501:13504   */\n      dup2\n        /* \"#utility.yul\":13486:13504   */\n      swap1\n      pop\n        /* \"#utility.yul\":13362:13510   */\n      swap3\n      swap2\n      pop\n      pop\n      jump\t// out\n        /* \"#utility.yul\":13516:13893   */\n    tag_129:\n        /* \"#utility.yul\":13622:13625   */\n      0x00\n        /* \"#utility.yul\":13650:13689   */\n      tag_257\n        /* \"#utility.yul\":13683:13688   */\n      dup3\n        /* \"#utility.yul\":13650:13689   */\n      tag_93\n      jump\t// in\n    tag_257:\n        /* \"#utility.yul\":13705:13794   */\n      tag_258\n        /* \"#utility.yul\":13787:13793   */\n      dup2\n        /* \"#utility.yul\":13782:13785   */\n      dup6\n        /* \"#utility.yul\":13705:13794   */\n      tag_128\n      jump\t// in\n    tag_258:\n        /* \"#utility.yul\":13698:13794   */\n      swap4\n      pop\n        /* \"#utility.yul\":13803:13855   */\n      tag_259\n        /* \"#utility.yul\":13848:13854   */\n      dup2\n        /* \"#utility.yul\":13843:13846   */\n      dup6\n        /* \"#utility.yul\":13836:13840   */\n      0x20\n        /* \"#utility.yul\":13829:13834   */\n      dup7\n        /* \"#utility.yul\":13825:13841   */\n      add\n        /* \"#utility.yul\":13803:13855   */\n      tag_95\n      jump\t// in\n    tag_259:\n        /* \"#utility.yul\":13880:13886   */\n      dup1\n        /* \"#utility.yul\":13875:13878   */\n      dup5\n        /* \"#utility.yul\":13871:13887   */\n      add\n        /* \"#utility.yul\":13864:13887   */\n      swap2\n      pop\n        /* \"#utility.yul\":13626:13893   */\n      pop\n        /* \"#utility.yul\":13516:13893   */\n      swap3\n      swap2\n      pop\n      pop\n      jump\t// out\n        /* \"#utility.yul\":13899:14174   */\n    tag_37:\n        /* \"#utility.yul\":14031:14034   */\n      0x00\n        /* \"#utility.yul\":14053:14148   */\n      tag_261\n        /* \"#utility.yul\":14144:14147   */\n      dup3\n        /* \"#utility.yul\":14135:14141   */\n      dup5\n        /* \"#utility.yul\":14053:14148   */\n      tag_129\n      jump\t// in\n    tag_261:\n        /* \"#utility.yul\":14046:14148   */\n      swap2\n      pop\n        /* \"#utility.yul\":14165:14168   */\n      dup2\n        /* \"#utility.yul\":14158:14168   */\n      swap1\n      pop\n        /* \"#utility.yul\":13899:14174   */\n      swap3\n      swap2\n      pop\n      pop\n      jump\t// out\n        /* \"#utility.yul\":14180:14360   */\n    tag_130:\n        /* \"#utility.yul\":14228:14305   */\n      0x4e487b7100000000000000000000000000000000000000000000000000000000\n        /* \"#utility.yul\":14225:14226   */\n      0x00\n        /* \"#utility.yul\":14218:14306   */\n      mstore\n        /* \"#utility.yul\":14325:14329   */\n      0x11\n        /* \"#utility.yul\":14322:14323   */\n      0x04\n        /* \"#utility.yul\":14315:14330   */\n      mstore\n        /* \"#utility.yul\":14349:14353   */\n      0x24\n        /* \"#utility.yul\":14346:14347   */\n      0x00\n        /* \"#utility.yul\":14339:14354   */\n      revert\n        /* \"#utility.yul\":14366:14557   */\n    tag_61:\n        /* \"#utility.yul\":14406:14410   */\n      0x00\n        /* \"#utility.yul\":14426:14446   */\n      tag_264\n        /* \"#utility.yul\":14444:14445   */\n      dup3\n        /* \"#utility.yul\":14426:14446   */\n      tag_122\n      jump\t// in\n    tag_264:\n        /* \"#utility.yul\":14421:14446   */\n      swap2\n      pop\n        /* \"#utility.yul\":14460:14480   */\n      tag_265\n        /* \"#utility.yul\":14478:14479   */\n      dup4\n        /* \"#utility.yul\":14460:14480   */\n      tag_122\n      jump\t// in\n    tag_265:\n        /* \"#utility.yul\":14455:14480   */\n      swap3\n      pop\n        /* \"#utility.yul\":14499:14500   */\n      dup3\n        /* \"#utility.yul\":14496:14497   */\n      dup3\n        /* \"#utility.yul\":14493:14501   */\n      lt\n        /* \"#utility.yul\":14490:14524   */\n      iszero\n      tag_266\n      jumpi\n        /* \"#utility.yul\":14504:14522   */\n      tag_267\n      tag_130\n      jump\t// in\n    tag_267:\n        /* \"#utility.yul\":14490:14524   */\n    tag_266:\n        /* \"#utility.yul\":14549:14550   */\n      dup3\n        /* \"#utility.yul\":14546:14547   */\n      dup3\n        /* \"#utility.yul\":14542:14551   */\n      sub\n        /* \"#utility.yul\":14534:14551   */\n      swap1\n      pop\n        /* \"#utility.yul\":14366:14557   */\n      swap3\n      swap2\n      pop\n      pop\n      jump\t// out\n        /* \"#utility.yul\":14563:14743   */\n    tag_72:\n        /* \"#utility.yul\":14611:14688   */\n      0x4e487b7100000000000000000000000000000000000000000000000000000000\n        /* \"#utility.yul\":14608:14609   */\n      0x00\n        /* \"#utility.yul\":14601:14689   */\n      mstore\n        /* \"#utility.yul\":14708:14712   */\n      0x32\n        /* \"#utility.yul\":14705:14706   */\n      0x04\n        /* \"#utility.yul\":14698:14713   */\n      mstore\n        /* \"#utility.yul\":14732:14736   */\n      0x24\n        /* \"#utility.yul\":14729:14730   */\n      0x00\n        /* \"#utility.yul\":14722:14737   */\n      revert\n        /* \"#utility.yul\":14749:14890   */\n    tag_131:\n        /* \"#utility.yul\":14798:14802   */\n      0x00\n        /* \"#utility.yul\":14821:14824   */\n      dup2\n        /* \"#utility.yul\":14813:14824   */\n      swap1\n      pop\n        /* \"#utility.yul\":14844:14847   */\n      dup2\n        /* \"#utility.yul\":14841:14842   */\n      0x00\n        /* \"#utility.yul\":14834:14848   */\n      mstore\n        /* \"#utility.yul\":14878:14882   */\n      0x20\n        /* \"#utility.yul\":14875:14876   */\n      0x00\n        /* \"#utility.yul\":14865:14883   */\n      keccak256\n        /* \"#utility.yul\":14857:14883   */\n      swap1\n      pop\n        /* \"#utility.yul\":14749:14890   */\n      swap2\n      swap1\n      pop\n      jump\t// out\n        /* \"#utility.yul\":14920:15765   */\n    tag_132:\n        /* \"#utility.yul\":15023:15026   */\n      0x00\n        /* \"#utility.yul\":15060:15065   */\n      dup2\n        /* \"#utility.yul\":15054:15066   */\n      sload\n        /* \"#utility.yul\":15089:15125   */\n      tag_271\n        /* \"#utility.yul\":15115:15124   */\n      dup2\n        /* \"#utility.yul\":15089:15125   */\n      tag_30\n      jump\t// in\n    tag_271:\n        /* \"#utility.yul\":15141:15230   */\n      tag_272\n        /* \"#utility.yul\":15223:15229   */\n      dup2\n        /* \"#utility.yul\":15218:15221   */\n      dup7\n        /* \"#utility.yul\":15141:15230   */\n      tag_128\n      jump\t// in\n    tag_272:\n        /* \"#utility.yul\":15134:15230   */\n      swap5\n      pop\n        /* \"#utility.yul\":15261:15262   */\n      0x01\n        /* \"#utility.yul\":15250:15259   */\n      dup3\n        /* \"#utility.yul\":15246:15263   */\n      and\n        /* \"#utility.yul\":15277:15278   */\n      0x00\n        /* \"#utility.yul\":15272:15409   */\n      dup2\n      eq\n      tag_274\n      jumpi\n        /* \"#utility.yul\":15423:15424   */\n      0x01\n        /* \"#utility.yul\":15418:15759   */\n      dup2\n      eq\n      tag_275\n      jumpi\n        /* \"#utility.yul\":15239:15759   */\n      jump(tag_273)\n        /* \"#utility.yul\":15272:15409   */\n    tag_274:\n        /* \"#utility.yul\":15356:15360   */\n      0xff\n        /* \"#utility.yul\":15352:15361   */\n      not\n        /* \"#utility.yul\":15341:15350   */\n      dup4\n        /* \"#utility.yul\":15337:15362   */\n      and\n        /* \"#utility.yul\":15332:15335   */\n      dup7\n        /* \"#utility.yul\":15325:15363   */\n      mstore\n        /* \"#utility.yul\":15392:15398   */\n      dup2\n        /* \"#utility.yul\":15387:15390   */\n      dup7\n        /* \"#utility.yul\":15383:15399   */\n      add\n        /* \"#utility.yul\":15376:15399   */\n      swap4\n      pop\n        /* \"#utility.yul\":15272:15409   */\n      jump(tag_273)\n        /* \"#utility.yul\":15418:15759   */\n    tag_275:\n        /* \"#utility.yul\":15485:15523   */\n      tag_276\n        /* \"#utility.yul\":15517:15522   */\n      dup6\n        /* \"#utility.yul\":15485:15523   */\n      tag_131\n      jump\t// in\n    tag_276:\n        /* \"#utility.yul\":15545:15546   */\n      0x00\n        /* \"#utility.yul\":15559:15713   */\n    tag_277:\n        /* \"#utility.yul\":15573:15579   */\n      dup4\n        /* \"#utility.yul\":15570:15571   */\n      dup2\n        /* \"#utility.yul\":15567:15580   */\n      lt\n        /* \"#utility.yul\":15559:15713   */\n      iszero\n      tag_279\n      jumpi\n        /* \"#utility.yul\":15647:15654   */\n      dup2\n        /* \"#utility.yul\":15641:15655   */\n      sload\n        /* \"#utility.yul\":15637:15638   */\n      dup2\n        /* \"#utility.yul\":15632:15635   */\n      dup10\n        /* \"#utility.yul\":15628:15639   */\n      add\n        /* \"#utility.yul\":15621:15656   */\n      mstore\n        /* \"#utility.yul\":15697:15698   */\n      0x01\n        /* \"#utility.yul\":15688:15695   */\n      dup3\n        /* \"#utility.yul\":15684:15699   */\n      add\n        /* \"#utility.yul\":15673:15699   */\n      swap2\n      pop\n        /* \"#utility.yul\":15595:15599   */\n      0x20\n        /* \"#utility.yul\":15592:15593   */\n      dup2\n        /* \"#utility.yul\":15588:15600   */\n      add\n        /* \"#utility.yul\":15583:15600   */\n      swap1\n      pop\n        /* \"#utility.yul\":15559:15713   */\n      jump(tag_277)\n    tag_279:\n        /* \"#utility.yul\":15742:15748   */\n      dup4\n        /* \"#utility.yul\":15737:15740   */\n      dup9\n        /* \"#utility.yul\":15733:15749   */\n      add\n        /* \"#utility.yul\":15726:15749   */\n      swap6\n      pop\n        /* \"#utility.yul\":15425:15759   */\n      pop\n      pop\n        /* \"#utility.yul\":15239:15759   */\n    tag_273:\n      pop\n        /* \"#utility.yul\":15027:15765   */\n      pop\n      pop\n        /* \"#utility.yul\":14920:15765   */\n      swap3\n      swap2\n      pop\n      pop\n      jump\t// out\n        /* \"#utility.yul\":15771:16040   */\n    tag_75:\n        /* \"#utility.yul\":15900:15903   */\n      0x00\n        /* \"#utility.yul\":15922:16014   */\n      tag_281\n        /* \"#utility.yul\":16010:16013   */\n      dup3\n        /* \"#utility.yul\":16001:16007   */\n      dup5\n        /* \"#utility.yul\":15922:16014   */\n      tag_132\n      jump\t// in\n    tag_281:\n        /* \"#utility.yul\":15915:16014   */\n      swap2\n      pop\n        /* \"#utility.yul\":16031:16034   */\n      dup2\n        /* \"#utility.yul\":16024:16034   */\n      swap1\n      pop\n        /* \"#utility.yul\":15771:16040   */\n      swap3\n      swap2\n      pop\n      pop\n      jump\t// out\n        /* \"#utility.yul\":16046:16279   */\n    tag_79:\n        /* \"#utility.yul\":16085:16088   */\n      0x00\n        /* \"#utility.yul\":16108:16132   */\n      tag_283\n        /* \"#utility.yul\":16126:16131   */\n      dup3\n        /* \"#utility.yul\":16108:16132   */\n      tag_122\n      jump\t// in\n    tag_283:\n        /* \"#utility.yul\":16099:16132   */\n      swap2\n      pop\n        /* \"#utility.yul\":16154:16220   */\n      0xffffffffffffffffffffffffffffffffffffffffffffffffffffffffffffffff\n        /* \"#utility.yul\":16147:16152   */\n      dup3\n        /* \"#utility.yul\":16144:16221   */\n      eq\n        /* \"#utility.yul\":16141:16244   */\n      iszero\n      tag_284\n      jumpi\n        /* \"#utility.yul\":16224:16242   */\n      tag_285\n      tag_130\n      jump\t// in\n    tag_285:\n        /* \"#utility.yul\":16141:16244   */\n    tag_284:\n        /* \"#utility.yul\":16271:16272   */\n      0x01\n        /* \"#utility.yul\":16264:16269   */\n      dup3\n        /* \"#utility.yul\":16260:16273   */\n      add\n        /* \"#utility.yul\":16253:16273   */\n      swap1\n      pop\n        /* \"#utility.yul\":16046:16279   */\n      swap2\n      swap1\n      pop\n      jump\t// out\n\n    auxdata: 0xa264697066735822122095940b8ba9d0fe45fd67540e35d0db9d14df92d6ccef246e330fa636397f858464736f6c634300080a0033\n}\n",
        "bytecode": {
            "linkReferences": {},
            "object": "6080604052600a67ffffffffffffffff8111156200002257620000216200054c565b5b6040519080825280602002602001820160405280156200005757816020015b6060815260200190600190039081620000415790505b50600090805190602001906200006f92919062000360565b503480156200007d57600080fd5b506040518061014001604052806040518060400160405280600881526020017f656d70726573613100000000000000000000000000000000000000000000000081525081526020016040518060400160405280600881526020017f656d70726573613200000000000000000000000000000000000000000000000081525081526020016040518060400160405280600881526020017f656d70726573613300000000000000000000000000000000000000000000000081525081526020016040518060400160405280600881526020017f656d70726573613400000000000000000000000000000000000000000000000081525081526020016040518060400160405280600881526020017f656d70726573613500000000000000000000000000000000000000000000000081525081526020016040518060400160405280600881526020017f656d70726573613600000000000000000000000000000000000000000000000081525081526020016040518060400160405280600881526020017f656d70726573613700000000000000000000000000000000000000000000000081525081526020016040518060400160405280600881526020017f656d70726573613800000000000000000000000000000000000000000000000081525081526020016040518060400160405280600881526020017f656d70726573613900000000000000000000000000000000000000000000000081525081526020016040518060400160405280600981526020017f656d707265736131300000000000000000000000000000000000000000000000815250815250600090600a620002e8929190620003c7565b5060005b600080549050811015620003595760646001600083815481106200031557620003146200057b565b5b906000526020600020016040516200032e9190620006ba565b908152602001604051809103902060000181905550808062000350906200070c565b915050620002ec565b506200075a565b828054828255906000526020600020908101928215620003b4579160200282015b82811115620003b3578251829080519060200190620003a29291906200042e565b509160200191906001019062000381565b5b509050620003c39190620004bf565b5090565b8280548282559060005260206000209081019282156200041b579160200282015b828111156200041a578251829080519060200190620004099291906200042e565b5091602001919060010190620003e8565b5b5090506200042a9190620004bf565b5090565b8280546200043c90620005d9565b90600052602060002090601f016020900481019282620004605760008555620004ac565b82601f106200047b57805160ff1916838001178555620004ac565b82800160010185558215620004ac579182015b82811115620004ab5782518255916020019190600101906200048e565b5b509050620004bb9190620004e7565b5090565b5b80821115620004e35760008181620004d9919062000506565b50600101620004c0565b5090565b5b8082111562000502576000816000905550600101620004e8565b5090565b5080546200051490620005d9565b6000825580601f1062000528575062000549565b601f016020900490600052602060002090810190620005489190620004e7565b5b50565b7f4e487b7100000000000000000000000000000000000000000000000000000000600052604160045260246000fd5b7f4e487b7100000000000000000000000000000000000000000000000000000000600052603260045260246000fd5b7f4e487b7100000000000000000000000000000000000000000000000000000000600052602260045260246000fd5b60006002820490506001821680620005f257607f821691505b60208210811415620006095762000608620005aa565b5b50919050565b600081905092915050565b60008190508160005260206000209050919050565b600081546200063e81620005d9565b6200064a81866200060f565b945060018216600081146200066857600181146200067a57620006b1565b60ff19831686528186019350620006b1565b62000685856200061a565b60005b83811015620006a95781548189015260018201915060208101905062000688565b838801955050505b50505092915050565b6000620006c882846200062f565b915081905092915050565b7f4e487b7100000000000000000000000000000000000000000000000000000000600052601160045260246000fd5b6000819050919050565b6000620007198262000702565b91507fffffffffffffffffffffffffffffffffffffffffffffffffffffffffffffffff8214156200074f576200074e620006d3565b5b600182019050919050565b610e13806200076a6000396000f3fe608060405234801561001057600080fd5b506004361061004c5760003560e01c80630c0b6691146100515780634b85a5e31461006f5780637635c34b1461009f578063ffe6a18e146100bb575b600080fd5b6100596100d9565b6040516100669190610736565b60405180910390f35b610089600480360381019061008491906108a1565b6101b2565b60405161009691906109f0565b60405180910390f35b6100b960048036038101906100b49190610a12565b610356565b005b6100c361045f565b6040516100d09190610b81565b60405180910390f35b60606000805480602002602001604051908101604052809291908181526020016000905b828210156101a957838290600052602060002001805461011c90610bd2565b80601f016020809104026020016040519081016040528092919081815260200182805461014890610bd2565b80156101955780601f1061016a57610100808354040283529160200191610195565b820191906000526020600020905b81548152906001019060200180831161017857829003601f168201915b5050505050815260200190600101906100fd565b50505050905090565b60606001826040516101c49190610c40565b9081526020016040518091039020600101805480602002602001604051908101604052809291908181526020016000905b8282101561034b578382906000526020600020906002020160405180604001604052908160008201805461022890610bd2565b80601f016020809104026020016040519081016040528092919081815260200182805461025490610bd2565b80156102a15780601f10610276576101008083540402835291602001916102a1565b820191906000526020600020905b81548152906001019060200180831161028457829003601f168201915b505050505081526020016001820180546102ba90610bd2565b80601f01602080910402602001604051908101604052809291908181526020018280546102e690610bd2565b80156103335780601f1061030857610100808354040283529160200191610333565b820191906000526020600020905b81548152906001019060200180831161031657829003601f168201915b505050505081525050815260200190600101906101f5565b505050509050919050565b6001836040516103669190610c40565b9081526020016040518091039020600101604051806040016040528084815260200183815250908060018154018082558091505060019003906000526020600020906002020160009091909190915060008201518160000190805190602001906103d1929190610538565b5060208201518160010190805190602001906103ee929190610538565b50505060006001846040516104039190610c40565b9081526020016040518091039020600001549050600081111561045957600180856040516104319190610c40565b908152602001604051809103902060000160008282546104519190610c86565b925050819055505b50505050565b60606000600a67ffffffffffffffff81111561047e5761047d610776565b5b6040519080825280602002602001820160405280156104ac5781602001602082028036833780820191505090505b50905060005b600080549050811015610530576001600082815481106104d5576104d4610cba565b5b906000526020600020016040516104ec9190610d7d565b90815260200160405180910390206000015482828151811061051157610510610cba565b5b602002602001018181525050808061052890610d94565b9150506104b2565b508091505090565b82805461054490610bd2565b90600052602060002090601f01602090048101928261056657600085556105ad565b82601f1061057f57805160ff19168380011785556105ad565b828001600101855582156105ad579182015b828111156105ac578251825591602001919060010190610591565b5b5090506105ba91906105be565b5090565b5b808211156105d75760008160009055506001016105bf565b5090565b600081519050919050565b600082825260208201905092915050565b6000819050602082019050919050565b600081519050919050565b600082825260208201905092915050565b60005b83811015610641578082015181840152602081019050610626565b83811115610650576000848401525b50505050565b6000601f19601f8301169050919050565b600061067282610607565b61067c8185610612565b935061068c818560208601610623565b61069581610656565b840191505092915050565b60006106ac8383610667565b905092915050565b6000602082019050919050565b60006106cc826105db565b6106d681856105e6565b9350836020820285016106e8856105f7565b8060005b85811015610724578484038952815161070585826106a0565b9450610710836106b4565b925060208a019950506001810190506106ec565b50829750879550505050505092915050565b6000602082019050818103600083015261075081846106c1565b905092915050565b6000604051905090565b600080fd5b600080fd5b600080fd5b600080fd5b7f4e487b7100000000000000000000000000000000000000000000000000000000600052604160045260246000fd5b6107ae82610656565b810181811067ffffffffffffffff821117156107cd576107cc610776565b5b80604052505050565b60006107e0610758565b90506107ec82826107a5565b919050565b600067ffffffffffffffff82111561080c5761080b610776565b5b61081582610656565b9050602081019050919050565b82818337600083830152505050565b600061084461083f846107f1565b6107d6565b9050828152602081018484840111156108605761085f610771565b5b61086b848285610822565b509392505050565b600082601f8301126108885761088761076c565b5b8135610898848260208601610831565b91505092915050565b6000602082840312156108b7576108b6610762565b5b600082013567ffffffffffffffff8111156108d5576108d4610767565b5b6108e184828501610873565b91505092915050565b600081519050919050565b600082825260208201905092915050565b6000819050602082019050919050565b600060408301600083015184820360008601526109338282610667565b9150506020830151848203602086015261094d8282610667565b9150508091505092915050565b60006109668383610916565b905092915050565b6000602082019050919050565b6000610986826108ea565b61099081856108f5565b9350836020820285016109a285610906565b8060005b858110156109de57848403895281516109bf858261095a565b94506109ca8361096e565b925060208a019950506001810190506109a6565b50829750879550505050505092915050565b60006020820190508181036000830152610a0a818461097b565b905092915050565b600080600060608486031215610a2b57610a2a610762565b5b600084013567ffffffffffffffff811115610a4957610a48610767565b5b610a5586828701610873565b935050602084013567ffffffffffffffff811115610a7657610a75610767565b5b610a8286828701610873565b925050604084013567ffffffffffffffff811115610aa357610aa2610767565b5b610aaf86828701610873565b9150509250925092565b600081519050919050565b600082825260208201905092915050565b6000819050602082019050919050565b6000819050919050565b610af881610ae5565b82525050565b6000610b0a8383610aef565b60208301905092915050565b6000602082019050919050565b6000610b2e82610ab9565b610b388185610ac4565b9350610b4383610ad5565b8060005b83811015610b74578151610b5b8882610afe565b9750610b6683610b16565b925050600181019050610b47565b5085935050505092915050565b60006020820190508181036000830152610b9b8184610b23565b905092915050565b7f4e487b7100000000000000000000000000000000000000000000000000000000600052602260045260246000fd5b60006002820490506001821680610bea57607f821691505b60208210811415610bfe57610bfd610ba3565b5b50919050565b600081905092915050565b6000610c1a82610607565b610c248185610c04565b9350610c34818560208601610623565b80840191505092915050565b6000610c4c8284610c0f565b915081905092915050565b7f4e487b7100000000000000000000000000000000000000000000000000000000600052601160045260246000fd5b6000610c9182610ae5565b9150610c9c83610ae5565b925082821015610caf57610cae610c57565b5b828203905092915050565b7f4e487b7100000000000000000000000000000000000000000000000000000000600052603260045260246000fd5b60008190508160005260206000209050919050565b60008154610d0b81610bd2565b610d158186610c04565b94506001821660008114610d305760018114610d4157610d74565b60ff19831686528186019350610d74565b610d4a85610ce9565b60005b83811015610d6c57815481890152600182019150602081019050610d4d565b838801955050505b50505092915050565b6000610d898284610cfe565b915081905092915050565b6000610d9f82610ae5565b91507fffffffffffffffffffffffffffffffffffffffffffffffffffffffffffffffff821415610dd257610dd1610c57565b5b60018201905091905056fea264697066735822122095940b8ba9d0fe45fd67540e35d0db9d14df92d6ccef246e330fa636397f858464736f6c634300080a0033",
            "opcodes": "PUSH1 0x80 PUSH1 0x40 MSTORE PUSH1 0xA PUSH8 0xFFFFFFFFFFFFFFFF DUP2 GT ISZERO PUSH3 0x22 JUMPI PUSH3 0x21 PUSH3 0x54C JUMP JUMPDEST JUMPDEST PUSH1 0x40 MLOAD SWAP1 DUP1 DUP3 MSTORE DUP1 PUSH1 0x20 MUL PUSH1 0x20 ADD DUP3 ADD PUSH1 0x40 MSTORE DUP1 ISZERO PUSH3 0x57 JUMPI DUP2 PUSH1 0x20 ADD JUMPDEST PUSH1 0x60 DUP2 MSTORE PUSH1 0x20 ADD SWAP1 PUSH1 0x1 SWAP1 SUB SWAP1 DUP2 PUSH3 0x41 JUMPI SWAP1 POP JUMPDEST POP PUSH1 0x0 SWAP1 DUP1 MLOAD SWAP1 PUSH1 0x20 ADD SWAP1 PUSH3 0x6F SWAP3 SWAP2 SWAP1 PUSH3 0x360 JUMP JUMPDEST POP CALLVALUE DUP1 ISZERO PUSH3 0x7D JUMPI PUSH1 0x0 DUP1 REVERT JUMPDEST POP PUSH1 0x40 MLOAD DUP1 PUSH2 0x140 ADD PUSH1 0x40 MSTORE DUP1 PUSH1 0x40 MLOAD DUP1 PUSH1 0x40 ADD PUSH1 0x40 MSTORE DUP1 PUSH1 0x8 DUP2 MSTORE PUSH1 0x20 ADD PUSH32 0x656D707265736131000000000000000000000000000000000000000000000000 DUP2 MSTORE POP DUP2 MSTORE PUSH1 0x20 ADD PUSH1 0x40 MLOAD DUP1 PUSH1 0x40 ADD PUSH1 0x40 MSTORE DUP1 PUSH1 0x8 DUP2 MSTORE PUSH1 0x20 ADD PUSH32 0x656D707265736132000000000000000000000000000000000000000000000000 DUP2 MSTORE POP DUP2 MSTORE PUSH1 0x20 ADD PUSH1 0x40 MLOAD DUP1 PUSH1 0x40 ADD PUSH1 0x40 MSTORE DUP1 PUSH1 0x8 DUP2 MSTORE PUSH1 0x20 ADD PUSH32 0x656D707265736133000000000000000000000000000000000000000000000000 DUP2 MSTORE POP DUP2 MSTORE PUSH1 0x20 ADD PUSH1 0x40 MLOAD DUP1 PUSH1 0x40 ADD PUSH1 0x40 MSTORE DUP1 PUSH1 0x8 DUP2 MSTORE PUSH1 0x20 ADD PUSH32 0x656D707265736134000000000000000000000000000000000000000000000000 DUP2 MSTORE POP DUP2 MSTORE PUSH1 0x20 ADD PUSH1 0x40 MLOAD DUP1 PUSH1 0x40 ADD PUSH1 0x40 MSTORE DUP1 PUSH1 0x8 DUP2 MSTORE PUSH1 0x20 ADD PUSH32 0x656D707265736135000000000000000000000000000000000000000000000000 DUP2 MSTORE POP DUP2 MSTORE PUSH1 0x20 ADD PUSH1 0x40 MLOAD DUP1 PUSH1 0x40 ADD PUSH1 0x40 MSTORE DUP1 PUSH1 0x8 DUP2 MSTORE PUSH1 0x20 ADD PUSH32 0x656D707265736136000000000000000000000000000000000000000000000000 DUP2 MSTORE POP DUP2 MSTORE PUSH1 0x20 ADD PUSH1 0x40 MLOAD DUP1 PUSH1 0x40 ADD PUSH1 0x40 MSTORE DUP1 PUSH1 0x8 DUP2 MSTORE PUSH1 0x20 ADD PUSH32 0x656D707265736137000000000000000000000000000000000000000000000000 DUP2 MSTORE POP DUP2 MSTORE PUSH1 0x20 ADD PUSH1 0x40 MLOAD DUP1 PUSH1 0x40 ADD PUSH1 0x40 MSTORE DUP1 PUSH1 0x8 DUP2 MSTORE PUSH1 0x20 ADD PUSH32 0x656D707265736138000000000000000000000000000000000000000000000000 DUP2 MSTORE POP DUP2 MSTORE PUSH1 0x20 ADD PUSH1 0x40 MLOAD DUP1 PUSH1 0x40 ADD PUSH1 0x40 MSTORE DUP1 PUSH1 0x8 DUP2 MSTORE PUSH1 0x20 ADD PUSH32 0x656D707265736139000000000000000000000000000000000000000000000000 DUP2 MSTORE POP DUP2 MSTORE PUSH1 0x20 ADD PUSH1 0x40 MLOAD DUP1 PUSH1 0x40 ADD PUSH1 0x40 MSTORE DUP1 PUSH1 0x9 DUP2 MSTORE PUSH1 0x20 ADD PUSH32 0x656D707265736131300000000000000000000000000000000000000000000000 DUP2 MSTORE POP DUP2 MSTORE POP PUSH1 0x0 SWAP1 PUSH1 0xA PUSH3 0x2E8 SWAP3 SWAP2 SWAP1 PUSH3 0x3C7 JUMP JUMPDEST POP PUSH1 0x0 JUMPDEST PUSH1 0x0 DUP1 SLOAD SWAP1 POP DUP2 LT ISZERO PUSH3 0x359 JUMPI PUSH1 0x64 PUSH1 0x1 PUSH1 0x0 DUP4 DUP2 SLOAD DUP2 LT PUSH3 0x315 JUMPI PUSH3 0x314 PUSH3 0x57B JUMP JUMPDEST JUMPDEST SWAP1 PUSH1 0x0 MSTORE PUSH1 0x20 PUSH1 0x0 KECCAK256 ADD PUSH1 0x40 MLOAD PUSH3 0x32E SWAP2 SWAP1 PUSH3 0x6BA JUMP JUMPDEST SWAP1 DUP2 MSTORE PUSH1 0x20 ADD PUSH1 0x40 MLOAD DUP1 SWAP2 SUB SWAP1 KECCAK256 PUSH1 0x0 ADD DUP2 SWAP1 SSTORE POP DUP1 DUP1 PUSH3 0x350 SWAP1 PUSH3 0x70C JUMP JUMPDEST SWAP2 POP POP PUSH3 0x2EC JUMP JUMPDEST POP PUSH3 0x75A JUMP JUMPDEST DUP3 DUP1 SLOAD DUP3 DUP3 SSTORE SWAP1 PUSH1 0x0 MSTORE PUSH1 0x20 PUSH1 0x0 KECCAK256 SWAP1 DUP2 ADD SWAP3 DUP3 ISZERO PUSH3 0x3B4 JUMPI SWAP2 PUSH1 0x20 MUL DUP3 ADD JUMPDEST DUP3 DUP2 GT ISZERO PUSH3 0x3B3 JUMPI DUP3 MLOAD DUP3 SWAP1 DUP1 MLOAD SWAP1 PUSH1 0x20 ADD SWAP1 PUSH3 0x3A2 SWAP3 SWAP2 SWAP1 PUSH3 0x42E JUMP JUMPDEST POP SWAP2 PUSH1 0x20 ADD SWAP2 SWAP1 PUSH1 0x1 ADD SWAP1 PUSH3 0x381 JUMP JUMPDEST JUMPDEST POP SWAP1 POP PUSH3 0x3C3 SWAP2 SWAP1 PUSH3 0x4BF JUMP JUMPDEST POP SWAP1 JUMP JUMPDEST DUP3 DUP1 SLOAD DUP3 DUP3 SSTORE SWAP1 PUSH1 0x0 MSTORE PUSH1 0x20 PUSH1 0x0 KECCAK256 SWAP1 DUP2 ADD SWAP3 DUP3 ISZERO PUSH3 0x41B JUMPI SWAP2 PUSH1 0x20 MUL DUP3 ADD JUMPDEST DUP3 DUP2 GT ISZERO PUSH3 0x41A JUMPI DUP3 MLOAD DUP3 SWAP1 DUP1 MLOAD SWAP1 PUSH1 0x20 ADD SWAP1 PUSH3 0x409 SWAP3 SWAP2 SWAP1 PUSH3 0x42E JUMP JUMPDEST POP SWAP2 PUSH1 0x20 ADD SWAP2 SWAP1 PUSH1 0x1 ADD SWAP1 PUSH3 0x3E8 JUMP JUMPDEST JUMPDEST POP SWAP1 POP PUSH3 0x42A SWAP2 SWAP1 PUSH3 0x4BF JUMP JUMPDEST POP SWAP1 JUMP JUMPDEST DUP3 DUP1 SLOAD PUSH3 0x43C SWAP1 PUSH3 0x5D9 JUMP JUMPDEST SWAP1 PUSH1 0x0 MSTORE PUSH1 0x20 PUSH1 0x0 KECCAK256 SWAP1 PUSH1 0x1F ADD PUSH1 0x20 SWAP1 DIV DUP2 ADD SWAP3 DUP3 PUSH3 0x460 JUMPI PUSH1 0x0 DUP6 SSTORE PUSH3 0x4AC JUMP JUMPDEST DUP3 PUSH1 0x1F LT PUSH3 0x47B JUMPI DUP1 MLOAD PUSH1 0xFF NOT AND DUP4 DUP1 ADD OR DUP6 SSTORE PUSH3 0x4AC JUMP JUMPDEST DUP3 DUP1 ADD PUSH1 0x1 ADD DUP6 SSTORE DUP3 ISZERO PUSH3 0x4AC JUMPI SWAP2 DUP3 ADD JUMPDEST DUP3 DUP2 GT ISZERO PUSH3 0x4AB JUMPI DUP3 MLOAD DUP3 SSTORE SWAP2 PUSH1 0x20 ADD SWAP2 SWAP1 PUSH1 0x1 ADD SWAP1 PUSH3 0x48E JUMP JUMPDEST JUMPDEST POP SWAP1 POP PUSH3 0x4BB SWAP2 SWAP1 PUSH3 0x4E7 JUMP JUMPDEST POP SWAP1 JUMP JUMPDEST JUMPDEST DUP1 DUP3 GT ISZERO PUSH3 0x4E3 JUMPI PUSH1 0x0 DUP2 DUP2 PUSH3 0x4D9 SWAP2 SWAP1 PUSH3 0x506 JUMP JUMPDEST POP PUSH1 0x1 ADD PUSH3 0x4C0 JUMP JUMPDEST POP SWAP1 JUMP JUMPDEST JUMPDEST DUP1 DUP3 GT ISZERO PUSH3 0x502 JUMPI PUSH1 0x0 DUP2 PUSH1 0x0 SWAP1 SSTORE POP PUSH1 0x1 ADD PUSH3 0x4E8 JUMP JUMPDEST POP SWAP1 JUMP JUMPDEST POP DUP1 SLOAD PUSH3 0x514 SWAP1 PUSH3 0x5D9 JUMP JUMPDEST PUSH1 0x0 DUP3 SSTORE DUP1 PUSH1 0x1F LT PUSH3 0x528 JUMPI POP PUSH3 0x549 JUMP JUMPDEST PUSH1 0x1F ADD PUSH1 0x20 SWAP1 DIV SWAP1 PUSH1 0x0 MSTORE PUSH1 0x20 PUSH1 0x0 KECCAK256 SWAP1 DUP2 ADD SWAP1 PUSH3 0x548 SWAP2 SWAP1 PUSH3 0x4E7 JUMP JUMPDEST JUMPDEST POP JUMP JUMPDEST PUSH32 0x4E487B7100000000000000000000000000000000000000000000000000000000 PUSH1 0x0 MSTORE PUSH1 0x41 PUSH1 0x4 MSTORE PUSH1 0x24 PUSH1 0x0 REVERT JUMPDEST PUSH32 0x4E487B7100000000000000000000000000000000000000000000000000000000 PUSH1 0x0 MSTORE PUSH1 0x32 PUSH1 0x4 MSTORE PUSH1 0x24 PUSH1 0x0 REVERT JUMPDEST PUSH32 0x4E487B7100000000000000000000000000000000000000000000000000000000 PUSH1 0x0 MSTORE PUSH1 0x22 PUSH1 0x4 MSTORE PUSH1 0x24 PUSH1 0x0 REVERT JUMPDEST PUSH1 0x0 PUSH1 0x2 DUP3 DIV SWAP1 POP PUSH1 0x1 DUP3 AND DUP1 PUSH3 0x5F2 JUMPI PUSH1 0x7F DUP3 AND SWAP2 POP JUMPDEST PUSH1 0x20 DUP3 LT DUP2 EQ ISZERO PUSH3 0x609 JUMPI PUSH3 0x608 PUSH3 0x5AA JUMP JUMPDEST JUMPDEST POP SWAP2 SWAP1 POP JUMP JUMPDEST PUSH1 0x0 DUP2 SWAP1 POP SWAP3 SWAP2 POP POP JUMP JUMPDEST PUSH1 0x0 DUP2 SWAP1 POP DUP2 PUSH1 0x0 MSTORE PUSH1 0x20 PUSH1 0x0 KECCAK256 SWAP1 POP SWAP2 SWAP1 POP JUMP JUMPDEST PUSH1 0x0 DUP2 SLOAD PUSH3 0x63E DUP2 PUSH3 0x5D9 JUMP JUMPDEST PUSH3 0x64A DUP2 DUP7 PUSH3 0x60F JUMP JUMPDEST SWAP5 POP PUSH1 0x1 DUP3 AND PUSH1 0x0 DUP2 EQ PUSH3 0x668 JUMPI PUSH1 0x1 DUP2 EQ PUSH3 0x67A JUMPI PUSH3 0x6B1 JUMP JUMPDEST PUSH1 0xFF NOT DUP4 AND DUP7 MSTORE DUP2 DUP7 ADD SWAP4 POP PUSH3 0x6B1 JUMP JUMPDEST PUSH3 0x685 DUP6 PUSH3 0x61A JUMP JUMPDEST PUSH1 0x0 JUMPDEST DUP4 DUP2 LT ISZERO PUSH3 0x6A9 JUMPI DUP2 SLOAD DUP2 DUP10 ADD MSTORE PUSH1 0x1 DUP3 ADD SWAP2 POP PUSH1 0x20 DUP2 ADD SWAP1 POP PUSH3 0x688 JUMP JUMPDEST DUP4 DUP9 ADD SWAP6 POP POP POP JUMPDEST POP POP POP SWAP3 SWAP2 POP POP JUMP JUMPDEST PUSH1 0x0 PUSH3 0x6C8 DUP3 DUP5 PUSH3 0x62F JUMP JUMPDEST SWAP2 POP DUP2 SWAP1 POP SWAP3 SWAP2 POP POP JUMP JUMPDEST PUSH32 0x4E487B7100000000000000000000000000000000000000000000000000000000 PUSH1 0x0 MSTORE PUSH1 0x11 PUSH1 0x4 MSTORE PUSH1 0x24 PUSH1 0x0 REVERT JUMPDEST PUSH1 0x0 DUP2 SWAP1 POP SWAP2 SWAP1 POP JUMP JUMPDEST PUSH1 0x0 PUSH3 0x719 DUP3 PUSH3 0x702 JUMP JUMPDEST SWAP2 POP PUSH32 0xFFFFFFFFFFFFFFFFFFFFFFFFFFFFFFFFFFFFFFFFFFFFFFFFFFFFFFFFFFFFFFFF DUP3 EQ ISZERO PUSH3 0x74F JUMPI PUSH3 0x74E PUSH3 0x6D3 JUMP JUMPDEST JUMPDEST PUSH1 0x1 DUP3 ADD SWAP1 POP SWAP2 SWAP1 POP JUMP JUMPDEST PUSH2 0xE13 DUP1 PUSH3 0x76A PUSH1 0x0 CODECOPY PUSH1 0x0 RETURN INVALID PUSH1 0x80 PUSH1 0x40 MSTORE CALLVALUE DUP1 ISZERO PUSH2 0x10 JUMPI PUSH1 0x0 DUP1 REVERT JUMPDEST POP PUSH1 0x4 CALLDATASIZE LT PUSH2 0x4C JUMPI PUSH1 0x0 CALLDATALOAD PUSH1 0xE0 SHR DUP1 PUSH4 0xC0B6691 EQ PUSH2 0x51 JUMPI DUP1 PUSH4 0x4B85A5E3 EQ PUSH2 0x6F JUMPI DUP1 PUSH4 0x7635C34B EQ PUSH2 0x9F JUMPI DUP1 PUSH4 0xFFE6A18E EQ PUSH2 0xBB JUMPI JUMPDEST PUSH1 0x0 DUP1 REVERT JUMPDEST PUSH2 0x59 PUSH2 0xD9 JUMP JUMPDEST PUSH1 0x40 MLOAD PUSH2 0x66 SWAP2 SWAP1 PUSH2 0x736 JUMP JUMPDEST PUSH1 0x40 MLOAD DUP1 SWAP2 SUB SWAP1 RETURN JUMPDEST PUSH2 0x89 PUSH1 0x4 DUP1 CALLDATASIZE SUB DUP2 ADD SWAP1 PUSH2 0x84 SWAP2 SWAP1 PUSH2 0x8A1 JUMP JUMPDEST PUSH2 0x1B2 JUMP JUMPDEST PUSH1 0x40 MLOAD PUSH2 0x96 SWAP2 SWAP1 PUSH2 0x9F0 JUMP JUMPDEST PUSH1 0x40 MLOAD DUP1 SWAP2 SUB SWAP1 RETURN JUMPDEST PUSH2 0xB9 PUSH1 0x4 DUP1 CALLDATASIZE SUB DUP2 ADD SWAP1 PUSH2 0xB4 SWAP2 SWAP1 PUSH2 0xA12 JUMP JUMPDEST PUSH2 0x356 JUMP JUMPDEST STOP JUMPDEST PUSH2 0xC3 PUSH2 0x45F JUMP JUMPDEST PUSH1 0x40 MLOAD PUSH2 0xD0 SWAP2 SWAP1 PUSH2 0xB81 JUMP JUMPDEST PUSH1 0x40 MLOAD DUP1 SWAP2 SUB SWAP1 RETURN JUMPDEST PUSH1 0x60 PUSH1 0x0 DUP1 SLOAD DUP1 PUSH1 0x20 MUL PUSH1 0x20 ADD PUSH1 0x40 MLOAD SWAP1 DUP2 ADD PUSH1 0x40 MSTORE DUP1 SWAP3 SWAP2 SWAP1 DUP2 DUP2 MSTORE PUSH1 0x20 ADD PUSH1 0x0 SWAP1 JUMPDEST DUP3 DUP3 LT ISZERO PUSH2 0x1A9 JUMPI DUP4 DUP3 SWAP1 PUSH1 0x0 MSTORE PUSH1 0x20 PUSH1 0x0 KECCAK256 ADD DUP1 SLOAD PUSH2 0x11C SWAP1 PUSH2 0xBD2 JUMP JUMPDEST DUP1 PUSH1 0x1F ADD PUSH1 0x20 DUP1 SWAP2 DIV MUL PUSH1 0x20 ADD PUSH1 0x40 MLOAD SWAP1 DUP2 ADD PUSH1 0x40 MSTORE DUP1 SWAP3 SWAP2 SWAP1 DUP2 DUP2 MSTORE PUSH1 0x20 ADD DUP3 DUP1 SLOAD PUSH2 0x148 SWAP1 PUSH2 0xBD2 JUMP JUMPDEST DUP1 ISZERO PUSH2 0x195 JUMPI DUP1 PUSH1 0x1F LT PUSH2 0x16A JUMPI PUSH2 0x100 DUP1 DUP4 SLOAD DIV MUL DUP4 MSTORE SWAP2 PUSH1 0x20 ADD SWAP2 PUSH2 0x195 JUMP JUMPDEST DUP3 ADD SWAP2 SWAP1 PUSH1 0x0 MSTORE PUSH1 0x20 PUSH1 0x0 KECCAK256 SWAP1 JUMPDEST DUP2 SLOAD DUP2 MSTORE SWAP1 PUSH1 0x1 ADD SWAP1 PUSH1 0x20 ADD DUP1 DUP4 GT PUSH2 0x178 JUMPI DUP3 SWAP1 SUB PUSH1 0x1F AND DUP3 ADD SWAP2 JUMPDEST POP POP POP POP POP DUP2 MSTORE PUSH1 0x20 ADD SWAP1 PUSH1 0x1 ADD SWAP1 PUSH2 0xFD JUMP JUMPDEST POP POP POP POP SWAP1 POP SWAP1 JUMP JUMPDEST PUSH1 0x60 PUSH1 0x1 DUP3 PUSH1 0x40 MLOAD PUSH2 0x1C4 SWAP2 SWAP1 PUSH2 0xC40 JUMP JUMPDEST SWAP1 DUP2 MSTORE PUSH1 0x20 ADD PUSH1 0x40 MLOAD DUP1 SWAP2 SUB SWAP1 KECCAK256 PUSH1 0x1 ADD DUP1 SLOAD DUP1 PUSH1 0x20 MUL PUSH1 0x20 ADD PUSH1 0x40 MLOAD SWAP1 DUP2 ADD PUSH1 0x40 MSTORE DUP1 SWAP3 SWAP2 SWAP1 DUP2 DUP2 MSTORE PUSH1 0x20 ADD PUSH1 0x0 SWAP1 JUMPDEST DUP3 DUP3 LT ISZERO PUSH2 0x34B JUMPI DUP4 DUP3 SWAP1 PUSH1 0x0 MSTORE PUSH1 0x20 PUSH1 0x0 KECCAK256 SWAP1 PUSH1 0x2 MUL ADD PUSH1 0x40 MLOAD DUP1 PUSH1 0x40 ADD PUSH1 0x40 MSTORE SWAP1 DUP2 PUSH1 0x0 DUP3 ADD DUP1 SLOAD PUSH2 0x228 SWAP1 PUSH2 0xBD2 JUMP JUMPDEST DUP1 PUSH1 0x1F ADD PUSH1 0x20 DUP1 SWAP2 DIV MUL PUSH1 0x20 ADD PUSH1 0x40 MLOAD SWAP1 DUP2 ADD PUSH1 0x40 MSTORE DUP1 SWAP3 SWAP2 SWAP1 DUP2 DUP2 MSTORE PUSH1 0x20 ADD DUP3 DUP1 SLOAD PUSH2 0x254 SWAP1 PUSH2 0xBD2 JUMP JUMPDEST DUP1 ISZERO PUSH2 0x2A1 JUMPI DUP1 PUSH1 0x1F LT PUSH2 0x276 JUMPI PUSH2 0x100 DUP1 DUP4 SLOAD DIV MUL DUP4 MSTORE SWAP2 PUSH1 0x20 ADD SWAP2 PUSH2 0x2A1 JUMP JUMPDEST DUP3 ADD SWAP2 SWAP1 PUSH1 0x0 MSTORE PUSH1 0x20 PUSH1 0x0 KECCAK256 SWAP1 JUMPDEST DUP2 SLOAD DUP2 MSTORE SWAP1 PUSH1 0x1 ADD SWAP1 PUSH1 0x20 ADD DUP1 DUP4 GT PUSH2 0x284 JUMPI DUP3 SWAP1 SUB PUSH1 0x1F AND DUP3 ADD SWAP2 JUMPDEST POP POP POP POP POP DUP2 MSTORE PUSH1 0x20 ADD PUSH1 0x1 DUP3 ADD DUP1 SLOAD PUSH2 0x2BA SWAP1 PUSH2 0xBD2 JUMP JUMPDEST DUP1 PUSH1 0x1F ADD PUSH1 0x20 DUP1 SWAP2 DIV MUL PUSH1 0x20 ADD PUSH1 0x40 MLOAD SWAP1 DUP2 ADD PUSH1 0x40 MSTORE DUP1 SWAP3 SWAP2 SWAP1 DUP2 DUP2 MSTORE PUSH1 0x20 ADD DUP3 DUP1 SLOAD PUSH2 0x2E6 SWAP1 PUSH2 0xBD2 JUMP JUMPDEST DUP1 ISZERO PUSH2 0x333 JUMPI DUP1 PUSH1 0x1F LT PUSH2 0x308 JUMPI PUSH2 0x100 DUP1 DUP4 SLOAD DIV MUL DUP4 MSTORE SWAP2 PUSH1 0x20 ADD SWAP2 PUSH2 0x333 JUMP JUMPDEST DUP3 ADD SWAP2 SWAP1 PUSH1 0x0 MSTORE PUSH1 0x20 PUSH1 0x0 KECCAK256 SWAP1 JUMPDEST DUP2 SLOAD DUP2 MSTORE SWAP1 PUSH1 0x1 ADD SWAP1 PUSH1 0x20 ADD DUP1 DUP4 GT PUSH2 0x316 JUMPI DUP3 SWAP1 SUB PUSH1 0x1F AND DUP3 ADD SWAP2 JUMPDEST POP POP POP POP POP DUP2 MSTORE POP POP DUP2 MSTORE PUSH1 0x20 ADD SWAP1 PUSH1 0x1 ADD SWAP1 PUSH2 0x1F5 JUMP JUMPDEST POP POP POP POP SWAP1 POP SWAP2 SWAP1 POP JUMP JUMPDEST PUSH1 0x1 DUP4 PUSH1 0x40 MLOAD PUSH2 0x366 SWAP2 SWAP1 PUSH2 0xC40 JUMP JUMPDEST SWAP1 DUP2 MSTORE PUSH1 0x20 ADD PUSH1 0x40 MLOAD DUP1 SWAP2 SUB SWAP1 KECCAK256 PUSH1 0x1 ADD PUSH1 0x40 MLOAD DUP1 PUSH1 0x40 ADD PUSH1 0x40 MSTORE DUP1 DUP5 DUP2 MSTORE PUSH1 0x20 ADD DUP4 DUP2 MSTORE POP SWAP1 DUP1 PUSH1 0x1 DUP2 SLOAD ADD DUP1 DUP3 SSTORE DUP1 SWAP2 POP POP PUSH1 0x1 SWAP1 SUB SWAP1 PUSH1 0x0 MSTORE PUSH1 0x20 PUSH1 0x0 KECCAK256 SWAP1 PUSH1 0x2 MUL ADD PUSH1 0x0 SWAP1 SWAP2 SWAP1 SWAP2 SWAP1 SWAP2 POP PUSH1 0x0 DUP3 ADD MLOAD DUP2 PUSH1 0x0 ADD SWAP1 DUP1 MLOAD SWAP1 PUSH1 0x20 ADD SWAP1 PUSH2 0x3D1 SWAP3 SWAP2 SWAP1 PUSH2 0x538 JUMP JUMPDEST POP PUSH1 0x20 DUP3 ADD MLOAD DUP2 PUSH1 0x1 ADD SWAP1 DUP1 MLOAD SWAP1 PUSH1 0x20 ADD SWAP1 PUSH2 0x3EE SWAP3 SWAP2 SWAP1 PUSH2 0x538 JUMP JUMPDEST POP POP POP PUSH1 0x0 PUSH1 0x1 DUP5 PUSH1 0x40 MLOAD PUSH2 0x403 SWAP2 SWAP1 PUSH2 0xC40 JUMP JUMPDEST SWAP1 DUP2 MSTORE PUSH1 0x20 ADD PUSH1 0x40 MLOAD DUP1 SWAP2 SUB SWAP1 KECCAK256 PUSH1 0x0 ADD SLOAD SWAP1 POP PUSH1 0x0 DUP2 GT ISZERO PUSH2 0x459 JUMPI PUSH1 0x1 DUP1 DUP6 PUSH1 0x40 MLOAD PUSH2 0x431 SWAP2 SWAP1 PUSH2 0xC40 JUMP JUMPDEST SWAP1 DUP2 MSTORE PUSH1 0x20 ADD PUSH1 0x40 MLOAD DUP1 SWAP2 SUB SWAP1 KECCAK256 PUSH1 0x0 ADD PUSH1 0x0 DUP3 DUP3 SLOAD PUSH2 0x451 SWAP2 SWAP1 PUSH2 0xC86 JUMP JUMPDEST SWAP3 POP POP DUP2 SWAP1 SSTORE POP JUMPDEST POP POP POP POP JUMP JUMPDEST PUSH1 0x60 PUSH1 0x0 PUSH1 0xA PUSH8 0xFFFFFFFFFFFFFFFF DUP2 GT ISZERO PUSH2 0x47E JUMPI PUSH2 0x47D PUSH2 0x776 JUMP JUMPDEST JUMPDEST PUSH1 0x40 MLOAD SWAP1 DUP1 DUP3 MSTORE DUP1 PUSH1 0x20 MUL PUSH1 0x20 ADD DUP3 ADD PUSH1 0x40 MSTORE DUP1 ISZERO PUSH2 0x4AC JUMPI DUP2 PUSH1 0x20 ADD PUSH1 0x20 DUP3 MUL DUP1 CALLDATASIZE DUP4 CALLDATACOPY DUP1 DUP3 ADD SWAP2 POP POP SWAP1 POP JUMPDEST POP SWAP1 POP PUSH1 0x0 JUMPDEST PUSH1 0x0 DUP1 SLOAD SWAP1 POP DUP2 LT ISZERO PUSH2 0x530 JUMPI PUSH1 0x1 PUSH1 0x0 DUP3 DUP2 SLOAD DUP2 LT PUSH2 0x4D5 JUMPI PUSH2 0x4D4 PUSH2 0xCBA JUMP JUMPDEST JUMPDEST SWAP1 PUSH1 0x0 MSTORE PUSH1 0x20 PUSH1 0x0 KECCAK256 ADD PUSH1 0x40 MLOAD PUSH2 0x4EC SWAP2 SWAP1 PUSH2 0xD7D JUMP JUMPDEST SWAP1 DUP2 MSTORE PUSH1 0x20 ADD PUSH1 0x40 MLOAD DUP1 SWAP2 SUB SWAP1 KECCAK256 PUSH1 0x0 ADD SLOAD DUP3 DUP3 DUP2 MLOAD DUP2 LT PUSH2 0x511 JUMPI PUSH2 0x510 PUSH2 0xCBA JUMP JUMPDEST JUMPDEST PUSH1 0x20 MUL PUSH1 0x20 ADD ADD DUP2 DUP2 MSTORE POP POP DUP1 DUP1 PUSH2 0x528 SWAP1 PUSH2 0xD94 JUMP JUMPDEST SWAP2 POP POP PUSH2 0x4B2 JUMP JUMPDEST POP DUP1 SWAP2 POP POP SWAP1 JUMP JUMPDEST DUP3 DUP1 SLOAD PUSH2 0x544 SWAP1 PUSH2 0xBD2 JUMP JUMPDEST SWAP1 PUSH1 0x0 MSTORE PUSH1 0x20 PUSH1 0x0 KECCAK256 SWAP1 PUSH1 0x1F ADD PUSH1 0x20 SWAP1 DIV DUP2 ADD SWAP3 DUP3 PUSH2 0x566 JUMPI PUSH1 0x0 DUP6 SSTORE PUSH2 0x5AD JUMP JUMPDEST DUP3 PUSH1 0x1F LT PUSH2 0x57F JUMPI DUP1 MLOAD PUSH1 0xFF NOT AND DUP4 DUP1 ADD OR DUP6 SSTORE PUSH2 0x5AD JUMP JUMPDEST DUP3 DUP1 ADD PUSH1 0x1 ADD DUP6 SSTORE DUP3 ISZERO PUSH2 0x5AD JUMPI SWAP2 DUP3 ADD JUMPDEST DUP3 DUP2 GT ISZERO PUSH2 0x5AC JUMPI DUP3 MLOAD DUP3 SSTORE SWAP2 PUSH1 0x20 ADD SWAP2 SWAP1 PUSH1 0x1 ADD SWAP1 PUSH2 0x591 JUMP JUMPDEST JUMPDEST POP SWAP1 POP PUSH2 0x5BA SWAP2 SWAP1 PUSH2 0x5BE JUMP JUMPDEST POP SWAP1 JUMP JUMPDEST JUMPDEST DUP1 DUP3 GT ISZERO PUSH2 0x5D7 JUMPI PUSH1 0x0 DUP2 PUSH1 0x0 SWAP1 SSTORE POP PUSH1 0x1 ADD PUSH2 0x5BF JUMP JUMPDEST POP SWAP1 JUMP JUMPDEST PUSH1 0x0 DUP2 MLOAD SWAP1 POP SWAP2 SWAP1 POP JUMP JUMPDEST PUSH1 0x0 DUP3 DUP3 MSTORE PUSH1 0x20 DUP3 ADD SWAP1 POP SWAP3 SWAP2 POP POP JUMP JUMPDEST PUSH1 0x0 DUP2 SWAP1 POP PUSH1 0x20 DUP3 ADD SWAP1 POP SWAP2 SWAP1 POP JUMP JUMPDEST PUSH1 0x0 DUP2 MLOAD SWAP1 POP SWAP2 SWAP1 POP JUMP JUMPDEST PUSH1 0x0 DUP3 DUP3 MSTORE PUSH1 0x20 DUP3 ADD SWAP1 POP SWAP3 SWAP2 POP POP JUMP JUMPDEST PUSH1 0x0 JUMPDEST DUP4 DUP2 LT ISZERO PUSH2 0x641 JUMPI DUP1 DUP3 ADD MLOAD DUP2 DUP5 ADD MSTORE PUSH1 0x20 DUP2 ADD SWAP1 POP PUSH2 0x626 JUMP JUMPDEST DUP4 DUP2 GT ISZERO PUSH2 0x650 JUMPI PUSH1 0x0 DUP5 DUP5 ADD MSTORE JUMPDEST POP POP POP POP JUMP JUMPDEST PUSH1 0x0 PUSH1 0x1F NOT PUSH1 0x1F DUP4 ADD AND SWAP1 POP SWAP2 SWAP1 POP JUMP JUMPDEST PUSH1 0x0 PUSH2 0x672 DUP3 PUSH2 0x607 JUMP JUMPDEST PUSH2 0x67C DUP2 DUP6 PUSH2 0x612 JUMP JUMPDEST SWAP4 POP PUSH2 0x68C DUP2 DUP6 PUSH1 0x20 DUP7 ADD PUSH2 0x623 JUMP JUMPDEST PUSH2 0x695 DUP2 PUSH2 0x656 JUMP JUMPDEST DUP5 ADD SWAP2 POP POP SWAP3 SWAP2 POP POP JUMP JUMPDEST PUSH1 0x0 PUSH2 0x6AC DUP4 DUP4 PUSH2 0x667 JUMP JUMPDEST SWAP1 POP SWAP3 SWAP2 POP POP JUMP JUMPDEST PUSH1 0x0 PUSH1 0x20 DUP3 ADD SWAP1 POP SWAP2 SWAP1 POP JUMP JUMPDEST PUSH1 0x0 PUSH2 0x6CC DUP3 PUSH2 0x5DB JUMP JUMPDEST PUSH2 0x6D6 DUP2 DUP6 PUSH2 0x5E6 JUMP JUMPDEST SWAP4 POP DUP4 PUSH1 0x20 DUP3 MUL DUP6 ADD PUSH2 0x6E8 DUP6 PUSH2 0x5F7 JUMP JUMPDEST DUP1 PUSH1 0x0 JUMPDEST DUP6 DUP2 LT ISZERO PUSH2 0x724 JUMPI DUP5 DUP5 SUB DUP10 MSTORE DUP2 MLOAD PUSH2 0x705 DUP6 DUP3 PUSH2 0x6A0 JUMP JUMPDEST SWAP5 POP PUSH2 0x710 DUP4 PUSH2 0x6B4 JUMP JUMPDEST SWAP3 POP PUSH1 0x20 DUP11 ADD SWAP10 POP POP PUSH1 0x1 DUP2 ADD SWAP1 POP PUSH2 0x6EC JUMP JUMPDEST POP DUP3 SWAP8 POP DUP8 SWAP6 POP POP POP POP POP POP SWAP3 SWAP2 POP POP JUMP JUMPDEST PUSH1 0x0 PUSH1 0x20 DUP3 ADD SWAP1 POP DUP2 DUP2 SUB PUSH1 0x0 DUP4 ADD MSTORE PUSH2 0x750 DUP2 DUP5 PUSH2 0x6C1 JUMP JUMPDEST SWAP1 POP SWAP3 SWAP2 POP POP JUMP JUMPDEST PUSH1 0x0 PUSH1 0x40 MLOAD SWAP1 POP SWAP1 JUMP JUMPDEST PUSH1 0x0 DUP1 REVERT JUMPDEST PUSH1 0x0 DUP1 REVERT JUMPDEST PUSH1 0x0 DUP1 REVERT JUMPDEST PUSH1 0x0 DUP1 REVERT JUMPDEST PUSH32 0x4E487B7100000000000000000000000000000000000000000000000000000000 PUSH1 0x0 MSTORE PUSH1 0x41 PUSH1 0x4 MSTORE PUSH1 0x24 PUSH1 0x0 REVERT JUMPDEST PUSH2 0x7AE DUP3 PUSH2 0x656 JUMP JUMPDEST DUP2 ADD DUP2 DUP2 LT PUSH8 0xFFFFFFFFFFFFFFFF DUP3 GT OR ISZERO PUSH2 0x7CD JUMPI PUSH2 0x7CC PUSH2 0x776 JUMP JUMPDEST JUMPDEST DUP1 PUSH1 0x40 MSTORE POP POP POP JUMP JUMPDEST PUSH1 0x0 PUSH2 0x7E0 PUSH2 0x758 JUMP JUMPDEST SWAP1 POP PUSH2 0x7EC DUP3 DUP3 PUSH2 0x7A5 JUMP JUMPDEST SWAP2 SWAP1 POP JUMP JUMPDEST PUSH1 0x0 PUSH8 0xFFFFFFFFFFFFFFFF DUP3 GT ISZERO PUSH2 0x80C JUMPI PUSH2 0x80B PUSH2 0x776 JUMP JUMPDEST JUMPDEST PUSH2 0x815 DUP3 PUSH2 0x656 JUMP JUMPDEST SWAP1 POP PUSH1 0x20 DUP2 ADD SWAP1 POP SWAP2 SWAP1 POP JUMP JUMPDEST DUP3 DUP2 DUP4 CALLDATACOPY PUSH1 0x0 DUP4 DUP4 ADD MSTORE POP POP POP JUMP JUMPDEST PUSH1 0x0 PUSH2 0x844 PUSH2 0x83F DUP5 PUSH2 0x7F1 JUMP JUMPDEST PUSH2 0x7D6 JUMP JUMPDEST SWAP1 POP DUP3 DUP2 MSTORE PUSH1 0x20 DUP2 ADD DUP5 DUP5 DUP5 ADD GT ISZERO PUSH2 0x860 JUMPI PUSH2 0x85F PUSH2 0x771 JUMP JUMPDEST JUMPDEST PUSH2 0x86B DUP5 DUP3 DUP6 PUSH2 0x822 JUMP JUMPDEST POP SWAP4 SWAP3 POP POP POP JUMP JUMPDEST PUSH1 0x0 DUP3 PUSH1 0x1F DUP4 ADD SLT PUSH2 0x888 JUMPI PUSH2 0x887 PUSH2 0x76C JUMP JUMPDEST JUMPDEST DUP2 CALLDATALOAD PUSH2 0x898 DUP5 DUP3 PUSH1 0x20 DUP7 ADD PUSH2 0x831 JUMP JUMPDEST SWAP2 POP POP SWAP3 SWAP2 POP POP JUMP JUMPDEST PUSH1 0x0 PUSH1 0x20 DUP3 DUP5 SUB SLT ISZERO PUSH2 0x8B7 JUMPI PUSH2 0x8B6 PUSH2 0x762 JUMP JUMPDEST JUMPDEST PUSH1 0x0 DUP3 ADD CALLDATALOAD PUSH8 0xFFFFFFFFFFFFFFFF DUP2 GT ISZERO PUSH2 0x8D5 JUMPI PUSH2 0x8D4 PUSH2 0x767 JUMP JUMPDEST JUMPDEST PUSH2 0x8E1 DUP5 DUP3 DUP6 ADD PUSH2 0x873 JUMP JUMPDEST SWAP2 POP POP SWAP3 SWAP2 POP POP JUMP JUMPDEST PUSH1 0x0 DUP2 MLOAD SWAP1 POP SWAP2 SWAP1 POP JUMP JUMPDEST PUSH1 0x0 DUP3 DUP3 MSTORE PUSH1 0x20 DUP3 ADD SWAP1 POP SWAP3 SWAP2 POP POP JUMP JUMPDEST PUSH1 0x0 DUP2 SWAP1 POP PUSH1 0x20 DUP3 ADD SWAP1 POP SWAP2 SWAP1 POP JUMP JUMPDEST PUSH1 0x0 PUSH1 0x40 DUP4 ADD PUSH1 0x0 DUP4 ADD MLOAD DUP5 DUP3 SUB PUSH1 0x0 DUP7 ADD MSTORE PUSH2 0x933 DUP3 DUP3 PUSH2 0x667 JUMP JUMPDEST SWAP2 POP POP PUSH1 0x20 DUP4 ADD MLOAD DUP5 DUP3 SUB PUSH1 0x20 DUP7 ADD MSTORE PUSH2 0x94D DUP3 DUP3 PUSH2 0x667 JUMP JUMPDEST SWAP2 POP POP DUP1 SWAP2 POP POP SWAP3 SWAP2 POP POP JUMP JUMPDEST PUSH1 0x0 PUSH2 0x966 DUP4 DUP4 PUSH2 0x916 JUMP JUMPDEST SWAP1 POP SWAP3 SWAP2 POP POP JUMP JUMPDEST PUSH1 0x0 PUSH1 0x20 DUP3 ADD SWAP1 POP SWAP2 SWAP1 POP JUMP JUMPDEST PUSH1 0x0 PUSH2 0x986 DUP3 PUSH2 0x8EA JUMP JUMPDEST PUSH2 0x990 DUP2 DUP6 PUSH2 0x8F5 JUMP JUMPDEST SWAP4 POP DUP4 PUSH1 0x20 DUP3 MUL DUP6 ADD PUSH2 0x9A2 DUP6 PUSH2 0x906 JUMP JUMPDEST DUP1 PUSH1 0x0 JUMPDEST DUP6 DUP2 LT ISZERO PUSH2 0x9DE JUMPI DUP5 DUP5 SUB DUP10 MSTORE DUP2 MLOAD PUSH2 0x9BF DUP6 DUP3 PUSH2 0x95A JUMP JUMPDEST SWAP5 POP PUSH2 0x9CA DUP4 PUSH2 0x96E JUMP JUMPDEST SWAP3 POP PUSH1 0x20 DUP11 ADD SWAP10 POP POP PUSH1 0x1 DUP2 ADD SWAP1 POP PUSH2 0x9A6 JUMP JUMPDEST POP DUP3 SWAP8 POP DUP8 SWAP6 POP POP POP POP POP POP SWAP3 SWAP2 POP POP JUMP JUMPDEST PUSH1 0x0 PUSH1 0x20 DUP3 ADD SWAP1 POP DUP2 DUP2 SUB PUSH1 0x0 DUP4 ADD MSTORE PUSH2 0xA0A DUP2 DUP5 PUSH2 0x97B JUMP JUMPDEST SWAP1 POP SWAP3 SWAP2 POP POP JUMP JUMPDEST PUSH1 0x0 DUP1 PUSH1 0x0 PUSH1 0x60 DUP5 DUP7 SUB SLT ISZERO PUSH2 0xA2B JUMPI PUSH2 0xA2A PUSH2 0x762 JUMP JUMPDEST JUMPDEST PUSH1 0x0 DUP5 ADD CALLDATALOAD PUSH8 0xFFFFFFFFFFFFFFFF DUP2 GT ISZERO PUSH2 0xA49 JUMPI PUSH2 0xA48 PUSH2 0x767 JUMP JUMPDEST JUMPDEST PUSH2 0xA55 DUP7 DUP3 DUP8 ADD PUSH2 0x873 JUMP JUMPDEST SWAP4 POP POP PUSH1 0x20 DUP5 ADD CALLDATALOAD PUSH8 0xFFFFFFFFFFFFFFFF DUP2 GT ISZERO PUSH2 0xA76 JUMPI PUSH2 0xA75 PUSH2 0x767 JUMP JUMPDEST JUMPDEST PUSH2 0xA82 DUP7 DUP3 DUP8 ADD PUSH2 0x873 JUMP JUMPDEST SWAP3 POP POP PUSH1 0x40 DUP5 ADD CALLDATALOAD PUSH8 0xFFFFFFFFFFFFFFFF DUP2 GT ISZERO PUSH2 0xAA3 JUMPI PUSH2 0xAA2 PUSH2 0x767 JUMP JUMPDEST JUMPDEST PUSH2 0xAAF DUP7 DUP3 DUP8 ADD PUSH2 0x873 JUMP JUMPDEST SWAP2 POP POP SWAP3 POP SWAP3 POP SWAP3 JUMP JUMPDEST PUSH1 0x0 DUP2 MLOAD SWAP1 POP SWAP2 SWAP1 POP JUMP JUMPDEST PUSH1 0x0 DUP3 DUP3 MSTORE PUSH1 0x20 DUP3 ADD SWAP1 POP SWAP3 SWAP2 POP POP JUMP JUMPDEST PUSH1 0x0 DUP2 SWAP1 POP PUSH1 0x20 DUP3 ADD SWAP1 POP SWAP2 SWAP1 POP JUMP JUMPDEST PUSH1 0x0 DUP2 SWAP1 POP SWAP2 SWAP1 POP JUMP JUMPDEST PUSH2 0xAF8 DUP2 PUSH2 0xAE5 JUMP JUMPDEST DUP3 MSTORE POP POP JUMP JUMPDEST PUSH1 0x0 PUSH2 0xB0A DUP4 DUP4 PUSH2 0xAEF JUMP JUMPDEST PUSH1 0x20 DUP4 ADD SWAP1 POP SWAP3 SWAP2 POP POP JUMP JUMPDEST PUSH1 0x0 PUSH1 0x20 DUP3 ADD SWAP1 POP SWAP2 SWAP1 POP JUMP JUMPDEST PUSH1 0x0 PUSH2 0xB2E DUP3 PUSH2 0xAB9 JUMP JUMPDEST PUSH2 0xB38 DUP2 DUP6 PUSH2 0xAC4 JUMP JUMPDEST SWAP4 POP PUSH2 0xB43 DUP4 PUSH2 0xAD5 JUMP JUMPDEST DUP1 PUSH1 0x0 JUMPDEST DUP4 DUP2 LT ISZERO PUSH2 0xB74 JUMPI DUP2 MLOAD PUSH2 0xB5B DUP9 DUP3 PUSH2 0xAFE JUMP JUMPDEST SWAP8 POP PUSH2 0xB66 DUP4 PUSH2 0xB16 JUMP JUMPDEST SWAP3 POP POP PUSH1 0x1 DUP2 ADD SWAP1 POP PUSH2 0xB47 JUMP JUMPDEST POP DUP6 SWAP4 POP POP POP POP SWAP3 SWAP2 POP POP JUMP JUMPDEST PUSH1 0x0 PUSH1 0x20 DUP3 ADD SWAP1 POP DUP2 DUP2 SUB PUSH1 0x0 DUP4 ADD MSTORE PUSH2 0xB9B DUP2 DUP5 PUSH2 0xB23 JUMP JUMPDEST SWAP1 POP SWAP3 SWAP2 POP POP JUMP JUMPDEST PUSH32 0x4E487B7100000000000000000000000000000000000000000000000000000000 PUSH1 0x0 MSTORE PUSH1 0x22 PUSH1 0x4 MSTORE PUSH1 0x24 PUSH1 0x0 REVERT JUMPDEST PUSH1 0x0 PUSH1 0x2 DUP3 DIV SWAP1 POP PUSH1 0x1 DUP3 AND DUP1 PUSH2 0xBEA JUMPI PUSH1 0x7F DUP3 AND SWAP2 POP JUMPDEST PUSH1 0x20 DUP3 LT DUP2 EQ ISZERO PUSH2 0xBFE JUMPI PUSH2 0xBFD PUSH2 0xBA3 JUMP JUMPDEST JUMPDEST POP SWAP2 SWAP1 POP JUMP JUMPDEST PUSH1 0x0 DUP2 SWAP1 POP SWAP3 SWAP2 POP POP JUMP JUMPDEST PUSH1 0x0 PUSH2 0xC1A DUP3 PUSH2 0x607 JUMP JUMPDEST PUSH2 0xC24 DUP2 DUP6 PUSH2 0xC04 JUMP JUMPDEST SWAP4 POP PUSH2 0xC34 DUP2 DUP6 PUSH1 0x20 DUP7 ADD PUSH2 0x623 JUMP JUMPDEST DUP1 DUP5 ADD SWAP2 POP POP SWAP3 SWAP2 POP POP JUMP JUMPDEST PUSH1 0x0 PUSH2 0xC4C DUP3 DUP5 PUSH2 0xC0F JUMP JUMPDEST SWAP2 POP DUP2 SWAP1 POP SWAP3 SWAP2 POP POP JUMP JUMPDEST PUSH32 0x4E487B7100000000000000000000000000000000000000000000000000000000 PUSH1 0x0 MSTORE PUSH1 0x11 PUSH1 0x4 MSTORE PUSH1 0x24 PUSH1 0x0 REVERT JUMPDEST PUSH1 0x0 PUSH2 0xC91 DUP3 PUSH2 0xAE5 JUMP JUMPDEST SWAP2 POP PUSH2 0xC9C DUP4 PUSH2 0xAE5 JUMP JUMPDEST SWAP3 POP DUP3 DUP3 LT ISZERO PUSH2 0xCAF JUMPI PUSH2 0xCAE PUSH2 0xC57 JUMP JUMPDEST JUMPDEST DUP3 DUP3 SUB SWAP1 POP SWAP3 SWAP2 POP POP JUMP JUMPDEST PUSH32 0x4E487B7100000000000000000000000000000000000000000000000000000000 PUSH1 0x0 MSTORE PUSH1 0x32 PUSH1 0x4 MSTORE PUSH1 0x24 PUSH1 0x0 REVERT JUMPDEST PUSH1 0x0 DUP2 SWAP1 POP DUP2 PUSH1 0x0 MSTORE PUSH1 0x20 PUSH1 0x0 KECCAK256 SWAP1 POP SWAP2 SWAP1 POP JUMP JUMPDEST PUSH1 0x0 DUP2 SLOAD PUSH2 0xD0B DUP2 PUSH2 0xBD2 JUMP JUMPDEST PUSH2 0xD15 DUP2 DUP7 PUSH2 0xC04 JUMP JUMPDEST SWAP5 POP PUSH1 0x1 DUP3 AND PUSH1 0x0 DUP2 EQ PUSH2 0xD30 JUMPI PUSH1 0x1 DUP2 EQ PUSH2 0xD41 JUMPI PUSH2 0xD74 JUMP JUMPDEST PUSH1 0xFF NOT DUP4 AND DUP7 MSTORE DUP2 DUP7 ADD SWAP4 POP PUSH2 0xD74 JUMP JUMPDEST PUSH2 0xD4A DUP6 PUSH2 0xCE9 JUMP JUMPDEST PUSH1 0x0 JUMPDEST DUP4 DUP2 LT ISZERO PUSH2 0xD6C JUMPI DUP2 SLOAD DUP2 DUP10 ADD MSTORE PUSH1 0x1 DUP3 ADD SWAP2 POP PUSH1 0x20 DUP2 ADD SWAP1 POP PUSH2 0xD4D JUMP JUMPDEST DUP4 DUP9 ADD SWAP6 POP POP POP JUMPDEST POP POP POP SWAP3 SWAP2 POP POP JUMP JUMPDEST PUSH1 0x0 PUSH2 0xD89 DUP3 DUP5 PUSH2 0xCFE JUMP JUMPDEST SWAP2 POP DUP2 SWAP1 POP SWAP3 SWAP2 POP POP JUMP JUMPDEST PUSH1 0x0 PUSH2 0xD9F DUP3 PUSH2 0xAE5 JUMP JUMPDEST SWAP2 POP PUSH32 0xFFFFFFFFFFFFFFFFFFFFFFFFFFFFFFFFFFFFFFFFFFFFFFFFFFFFFFFFFFFFFFFF DUP3 EQ ISZERO PUSH2 0xDD2 JUMPI PUSH2 0xDD1 PUSH2 0xC57 JUMP JUMPDEST JUMPDEST PUSH1 0x1 DUP3 ADD SWAP1 POP SWAP2 SWAP1 POP JUMP INVALID LOG2 PUSH5 0x6970667358 0x22 SLT KECCAK256 SWAP6 SWAP5 SIGNEXTEND DUP12 0xA9 0xD0 INVALID GASLIMIT REVERT PUSH8 0x540E35D0DB9D14DF SWAP3 0xD6 0xCC 0xEF 0x24 PUSH15 0x330FA636397F858464736F6C634300 ADDMOD EXP STOP CALLER "
        },
        "gasEstimates": {
            "creation": {
                "codeDepositCost": "720600",
                "executionCost": "infinite",
                "totalCost": "infinite"
            },
            "external": {
                "getCompanies()": "infinite",
                "getComplaints(string)": "infinite",
                "getReputation()": "infinite",
                "newComplaint(string,string,string)": "infinite"
            }
        },
        "methodIdentifiers": {
            "getCompanies()": "0c0b6691",
            "getComplaints(string)": "4b85a5e3",
            "getReputation()": "ffe6a18e",
            "newComplaint(string,string,string)": "7635c34b"
        }
    },
    "storageLayout": {
        "storage": [
            {
                "astId": 22,
                "contract": "complaintContract.sol:complaintContract",
                "label": "companies",
                "offset": 0,
                "slot": "0",
                "type": "t_array(t_string_storage)dyn_storage"
            },
            {
                "astId": 27,
                "contract": "complaintContract.sol:complaintContract",
                "label": "companyMapping",
                "offset": 0,
                "slot": "1",
                "type": "t_mapping(t_string_memory_ptr,t_struct(companyData)14_storage)"
            }
        ],
        "types": {
            "t_array(t_string_storage)dyn_storage": {
                "base": "t_string_storage",
                "encoding": "dynamic_array",
                "label": "string[]",
                "numberOfBytes": "32"
            },
            "t_array(t_struct(complaint)7_storage)dyn_storage": {
                "base": "t_struct(complaint)7_storage",
                "encoding": "dynamic_array",
                "label": "struct complaintContract.complaint[]",
                "numberOfBytes": "32"
            },
            "t_mapping(t_string_memory_ptr,t_struct(companyData)14_storage)": {
                "encoding": "mapping",
                "key": "t_string_memory_ptr",
                "label": "mapping(string => struct complaintContract.companyData)",
                "numberOfBytes": "32",
                "value": "t_struct(companyData)14_storage"
            },
            "t_string_memory_ptr": {
                "encoding": "bytes",
                "label": "string",
                "numberOfBytes": "32"
            },
            "t_string_storage": {
                "encoding": "bytes",
                "label": "string",
                "numberOfBytes": "32"
            },
            "t_struct(companyData)14_storage": {
                "encoding": "inplace",
                "label": "struct complaintContract.companyData",
                "members": [
                    {
                        "astId": 9,
                        "contract": "complaintContract.sol:complaintContract",
                        "label": "reputation",
                        "offset": 0,
                        "slot": "0",
                        "type": "t_uint256"
                    },
                    {
                        "astId": 13,
                        "contract": "complaintContract.sol:complaintContract",
                        "label": "complaints",
                        "offset": 0,
                        "slot": "1",
                        "type": "t_array(t_struct(complaint)7_storage)dyn_storage"
                    }
                ],
                "numberOfBytes": "64"
            },
            "t_struct(complaint)7_storage": {
                "encoding": "inplace",
                "label": "struct complaintContract.complaint",
                "members": [
                    {
                        "astId": 4,
                        "contract": "complaintContract.sol:complaintContract",
                        "label": "user",
                        "offset": 0,
                        "slot": "0",
                        "type": "t_string_storage"
                    },
                    {
                        "astId": 6,
                        "contract": "complaintContract.sol:complaintContract",
                        "label": "text",
                        "offset": 0,
                        "slot": "1",
                        "type": "t_string_storage"
                    }
                ],
                "numberOfBytes": "64"
            },
            "t_uint256": {
                "encoding": "inplace",
                "label": "uint256",
                "numberOfBytes": "32"
            }
        }
    },
    "userdoc": {
        "kind": "user",
        "methods": {},
        "version": 1
    }
}