{
  "abi": [
    {
      "inputs": [],
      "stateMutability": "nonpayable",
      "type": "constructor"
    },
    {
      "inputs": [
        {
          "internalType": "uint256",
          "name": "amount",
          "type": "uint256"
        }
      ],
      "name": "addAmountDonated",
      "outputs": [],
      "stateMutability": "nonpayable",
      "type": "function"
    },
    {
      "inputs": [],
      "name": "getAllReputations",
      "outputs": [
        {
          "internalType": "uint256[]",
          "name": "",
          "type": "uint256[]"
        }
      ],
      "stateMutability": "view",
      "type": "function"
    },
    {
      "inputs": [],
      "name": "getAmountDonated",
      "outputs": [
        {
          "internalType": "uint256",
          "name": "",
          "type": "uint256"
        }
      ],
      "stateMutability": "view",
      "type": "function"
    },
    {
      "inputs": [],
      "name": "getCompaniesAddresses",
      "outputs": [
        {
          "internalType": "address[]",
          "name": "",
          "type": "address[]"
        }
      ],
      "stateMutability": "view",
      "type": "function"
    },
    {
      "inputs": [],
      "name": "getCompaniesNames",
      "outputs": [
        {
          "internalType": "string[]",
          "name": "",
          "type": "string[]"
        }
      ],
      "stateMutability": "view",
      "type": "function"
    },
    {
      "inputs": [
        {
          "internalType": "string",
          "name": "_company",
          "type": "string"
        }
      ],
      "name": "getCompanyAddress",
      "outputs": [
        {
          "internalType": "address",
          "name": "",
          "type": "address"
        }
      ],
      "stateMutability": "view",
      "type": "function"
    },
    {
      "inputs": [
        {
          "internalType": "string",
          "name": "_company",
          "type": "string"
        }
      ],
      "name": "getCompanyComplaints",
      "outputs": [
        {
          "internalType": "string[]",
          "name": "",
          "type": "string[]"
        }
      ],
      "stateMutability": "view",
      "type": "function"
    },
    {
      "inputs": [
        {
          "internalType": "string",
          "name": "_company",
          "type": "string"
        }
      ],
      "name": "getReputation",
      "outputs": [
        {
          "internalType": "uint256",
          "name": "",
          "type": "uint256"
        }
      ],
      "stateMutability": "view",
      "type": "function"
    },
    {
      "inputs": [],
      "name": "getTotalComplaints",
      "outputs": [
        {
          "internalType": "uint256",
          "name": "",
          "type": "uint256"
        }
      ],
      "stateMutability": "view",
      "type": "function"
    },
    {
      "inputs": [
        {
          "internalType": "string[]",
          "name": "_companies",
          "type": "string[]"
        }
      ],
      "name": "newCompanies",
      "outputs": [],
      "stateMutability": "nonpayable",
      "type": "function"
    },
    {
      "inputs": [
        {
          "internalType": "string",
          "name": "_company",
          "type": "string"
        }
      ],
      "name": "newCompany",
      "outputs": [],
      "stateMutability": "nonpayable",
      "type": "function"
    },
    {
      "inputs": [
        {
          "internalType": "string",
          "name": "_company",
          "type": "string"
        },
        {
          "internalType": "string",
          "name": "_hash",
          "type": "string"
        }
      ],
      "name": "newComplaint",
      "outputs": [],
      "stateMutability": "nonpayable",
      "type": "function"
    },
    {
      "inputs": [
        {
          "internalType": "string",
          "name": "_company",
          "type": "string"
        }
      ],
      "name": "retireCompany",
      "outputs": [],
      "stateMutability": "nonpayable",
      "type": "function"
    },
    {
      "inputs": [
        {
          "internalType": "string",
          "name": "_company",
          "type": "string"
        },
        {
          "internalType": "string",
          "name": "_hash",
          "type": "string"
        }
      ],
      "name": "retireComplaint",
      "outputs": [],
      "stateMutability": "nonpayable",
      "type": "function"
    }
  ],
  "devdoc": {
    "kind": "dev",
    "methods": {},
    "version": 1
  },
  "evm": {
    "assembly": "    /* \"ReputationControlV2.sol\":1121:6207  contract ReputationControl {... */\n  mstore(0x40, 0xa0)\n    /* \"ReputationControlV2.sol\":1854:1986  constructor(){... */\n  callvalue\n  dup1\n  iszero\n  tag_1\n  jumpi\n  0x00\n  dup1\n  revert\ntag_1:\n  pop\n    /* \"ReputationControlV2.sol\":1886:1896  msg.sender */\n  caller\n    /* \"ReputationControlV2.sol\":1878:1896  owner = msg.sender */\n  0xffffffffffffffffffffffffffffffffffffffff\n  and\n  0x80\n  dup2\n  0xffffffffffffffffffffffffffffffffffffffff\n  and\n  dup2\n  mstore\n  pop\n  pop\n    /* \"ReputationControlV2.sol\":1923:1950  new ReksTokens(\"Reks\", \"R\") */\n  mload(0x40)\n  tag_4\n  swap1\n  tag_5\n  jump\t// in\ntag_4:\n  tag_6\n  swap1\n  tag_7\n  jump\t// in\ntag_6:\n  mload(0x40)\n  dup1\n  swap2\n  sub\n  swap1\n  0x00\n  create\n  dup1\n  iszero\n  dup1\n  iszero\n  tag_8\n  jumpi\n  returndatasize\n  0x00\n  dup1\n  returndatacopy\n  revert(0x00, returndatasize)\ntag_8:\n  pop\n    /* \"ReputationControlV2.sol\":1907:1920  tokenContract */\n  0x00\n  dup1\n    /* \"ReputationControlV2.sol\":1907:1950  tokenContract = new ReksTokens(\"Reks\", \"R\") */\n  0x0100\n  exp\n  dup2\n  sload\n  dup2\n  0xffffffffffffffffffffffffffffffffffffffff\n  mul\n  not\n  and\n  swap1\n  dup4\n  0xffffffffffffffffffffffffffffffffffffffff\n  and\n  mul\n  or\n  swap1\n  sstore\n  pop\n    /* \"ReputationControlV2.sol\":1977:1978  0 */\n  0x00\n    /* \"ReputationControlV2.sol\":1961:1974  amountDonated */\n  0x03\n    /* \"ReputationControlV2.sol\":1961:1978  amountDonated = 0 */\n  dup2\n  swap1\n  sstore\n  pop\n    /* \"ReputationControlV2.sol\":1121:6207  contract ReputationControl {... */\n  jump(tag_9)\ntag_5:\n  dataSize(sub_1)\n  dup1\n  dataOffset(sub_1)\n  dup4\n  codecopy\n  add\n  swap1\n  jump\t// out\n    /* \"#utility.yul\":7:176   */\ntag_10:\n    /* \"#utility.yul\":91:102   */\n  0x00\n    /* \"#utility.yul\":125:131   */\n  dup3\n    /* \"#utility.yul\":120:123   */\n  dup3\n    /* \"#utility.yul\":113:132   */\n  mstore\n    /* \"#utility.yul\":165:169   */\n  0x20\n    /* \"#utility.yul\":160:163   */\n  dup3\n    /* \"#utility.yul\":156:170   */\n  add\n    /* \"#utility.yul\":141:170   */\n  swap1\n  pop\n    /* \"#utility.yul\":7:176   */\n  swap3\n  swap2\n  pop\n  pop\n  jump\t// out\n    /* \"#utility.yul\":182:336   */\ntag_11:\n    /* \"#utility.yul\":322:328   */\n  0x52656b7300000000000000000000000000000000000000000000000000000000\n    /* \"#utility.yul\":318:319   */\n  0x00\n    /* \"#utility.yul\":310:316   */\n  dup3\n    /* \"#utility.yul\":306:320   */\n  add\n    /* \"#utility.yul\":299:329   */\n  mstore\n    /* \"#utility.yul\":182:336   */\n  pop\n  jump\t// out\n    /* \"#utility.yul\":342:707   */\ntag_12:\n    /* \"#utility.yul\":484:487   */\n  0x00\n    /* \"#utility.yul\":505:571   */\n  tag_19\n    /* \"#utility.yul\":569:570   */\n  0x04\n    /* \"#utility.yul\":564:567   */\n  dup4\n    /* \"#utility.yul\":505:571   */\n  tag_10\n  jump\t// in\ntag_19:\n    /* \"#utility.yul\":498:571   */\n  swap2\n  pop\n    /* \"#utility.yul\":580:673   */\n  tag_20\n    /* \"#utility.yul\":669:672   */\n  dup3\n    /* \"#utility.yul\":580:673   */\n  tag_11\n  jump\t// in\ntag_20:\n    /* \"#utility.yul\":698:700   */\n  0x20\n    /* \"#utility.yul\":693:696   */\n  dup3\n    /* \"#utility.yul\":689:701   */\n  add\n    /* \"#utility.yul\":682:701   */\n  swap1\n  pop\n    /* \"#utility.yul\":342:707   */\n  swap2\n  swap1\n  pop\n  jump\t// out\n    /* \"#utility.yul\":713:864   */\ntag_13:\n    /* \"#utility.yul\":853:856   */\n  0x5200000000000000000000000000000000000000000000000000000000000000\n    /* \"#utility.yul\":849:850   */\n  0x00\n    /* \"#utility.yul\":841:847   */\n  dup3\n    /* \"#utility.yul\":837:851   */\n  add\n    /* \"#utility.yul\":830:857   */\n  mstore\n    /* \"#utility.yul\":713:864   */\n  pop\n  jump\t// out\n    /* \"#utility.yul\":870:1235   */\ntag_14:\n    /* \"#utility.yul\":1012:1015   */\n  0x00\n    /* \"#utility.yul\":1033:1099   */\n  tag_23\n    /* \"#utility.yul\":1097:1098   */\n  0x01\n    /* \"#utility.yul\":1092:1095   */\n  dup4\n    /* \"#utility.yul\":1033:1099   */\n  tag_10\n  jump\t// in\ntag_23:\n    /* \"#utility.yul\":1026:1099   */\n  swap2\n  pop\n    /* \"#utility.yul\":1108:1201   */\n  tag_24\n    /* \"#utility.yul\":1197:1200   */\n  dup3\n    /* \"#utility.yul\":1108:1201   */\n  tag_13\n  jump\t// in\ntag_24:\n    /* \"#utility.yul\":1226:1228   */\n  0x20\n    /* \"#utility.yul\":1221:1224   */\n  dup3\n    /* \"#utility.yul\":1217:1229   */\n  add\n    /* \"#utility.yul\":1210:1229   */\n  swap1\n  pop\n    /* \"#utility.yul\":870:1235   */\n  swap2\n  swap1\n  pop\n  jump\t// out\n    /* \"#utility.yul\":1241:1967   */\ntag_7:\n    /* \"#utility.yul\":1508:1512   */\n  0x00\n    /* \"#utility.yul\":1546:1548   */\n  0x40\n    /* \"#utility.yul\":1535:1544   */\n  dup3\n    /* \"#utility.yul\":1531:1549   */\n  add\n    /* \"#utility.yul\":1523:1549   */\n  swap1\n  pop\n    /* \"#utility.yul\":1595:1604   */\n  dup2\n    /* \"#utility.yul\":1589:1593   */\n  dup2\n    /* \"#utility.yul\":1585:1605   */\n  sub\n    /* \"#utility.yul\":1581:1582   */\n  0x00\n    /* \"#utility.yul\":1570:1579   */\n  dup4\n    /* \"#utility.yul\":1566:1583   */\n  add\n    /* \"#utility.yul\":1559:1606   */\n  mstore\n    /* \"#utility.yul\":1623:1754   */\n  tag_26\n    /* \"#utility.yul\":1749:1753   */\n  dup2\n    /* \"#utility.yul\":1623:1754   */\n  tag_12\n  jump\t// in\ntag_26:\n    /* \"#utility.yul\":1615:1754   */\n  swap1\n  pop\n    /* \"#utility.yul\":1801:1810   */\n  dup2\n    /* \"#utility.yul\":1795:1799   */\n  dup2\n    /* \"#utility.yul\":1791:1811   */\n  sub\n    /* \"#utility.yul\":1786:1788   */\n  0x20\n    /* \"#utility.yul\":1775:1784   */\n  dup4\n    /* \"#utility.yul\":1771:1789   */\n  add\n    /* \"#utility.yul\":1764:1812   */\n  mstore\n    /* \"#utility.yul\":1829:1960   */\n  tag_27\n    /* \"#utility.yul\":1955:1959   */\n  dup2\n    /* \"#utility.yul\":1829:1960   */\n  tag_14\n  jump\t// in\ntag_27:\n    /* \"#utility.yul\":1821:1960   */\n  swap1\n  pop\n    /* \"#utility.yul\":1241:1967   */\n  swap2\n  swap1\n  pop\n  jump\t// out\n    /* \"ReputationControlV2.sol\":1121:6207  contract ReputationControl {... */\ntag_9:\n  mload(0x80)\n  codecopy(0x00, dataOffset(sub_0), dataSize(sub_0))\n  0x00\n  assignImmutable(\"0xb6477a31e41e27dc2f2cbe4c2bbb37b5a6a34683d5cbca4a1a706df5525a2d30\")\n  return(0x00, dataSize(sub_0))\nstop\n\nsub_0: assembly {\n        /* \"ReputationControlV2.sol\":1121:6207  contract ReputationControl {... */\n      mstore(0x40, 0x80)\n      callvalue\n      dup1\n      iszero\n      tag_1\n      jumpi\n      0x00\n      dup1\n      revert\n    tag_1:\n      pop\n      jumpi(tag_2, lt(calldatasize, 0x04))\n      shr(0xe0, calldataload(0x00))\n      dup1\n      0x448e88d0\n      gt\n      tag_17\n      jumpi\n      dup1\n      0xbfef1851\n      gt\n      tag_18\n      jumpi\n      dup1\n      0xbfef1851\n      eq\n      tag_13\n      jumpi\n      dup1\n      0xd09cdac1\n      eq\n      tag_14\n      jumpi\n      dup1\n      0xd6a16afa\n      eq\n      tag_15\n      jumpi\n      dup1\n      0xf1e6fe87\n      eq\n      tag_16\n      jumpi\n      jump(tag_2)\n    tag_18:\n      dup1\n      0x448e88d0\n      eq\n      tag_10\n      jumpi\n      dup1\n      0x59f97801\n      eq\n      tag_11\n      jumpi\n      dup1\n      0x6b5f35c2\n      eq\n      tag_12\n      jumpi\n      jump(tag_2)\n    tag_17:\n      dup1\n      0x112e4143\n      gt\n      tag_19\n      jumpi\n      dup1\n      0x112e4143\n      eq\n      tag_6\n      jumpi\n      dup1\n      0x1c17dee8\n      eq\n      tag_7\n      jumpi\n      dup1\n      0x2f435b3f\n      eq\n      tag_8\n      jumpi\n      dup1\n      0x3d1103f4\n      eq\n      tag_9\n      jumpi\n      jump(tag_2)\n    tag_19:\n      dup1\n      0x05e5e5a3\n      eq\n      tag_3\n      jumpi\n      dup1\n      0x08459850\n      eq\n      tag_4\n      jumpi\n      dup1\n      0x09a7a006\n      eq\n      tag_5\n      jumpi\n    tag_2:\n      0x00\n      dup1\n      revert\n        /* \"ReputationControlV2.sol\":4328:4642  function getCompaniesAddresses() external view returns (address[] memory){... */\n    tag_3:\n      tag_20\n      tag_21\n      jump\t// in\n    tag_20:\n      mload(0x40)\n      tag_22\n      swap2\n      swap1\n      tag_23\n      jump\t// in\n    tag_22:\n      mload(0x40)\n      dup1\n      swap2\n      sub\n      swap1\n      return\n        /* \"ReputationControlV2.sol\":2000:2499  function newCompanies(string[] memory _companies) external onlyOwner{... */\n    tag_4:\n      tag_24\n      0x04\n      dup1\n      calldatasize\n      sub\n      dup2\n      add\n      swap1\n      tag_25\n      swap2\n      swap1\n      tag_26\n      jump\t// in\n    tag_25:\n      tag_27\n      jump\t// in\n    tag_24:\n      stop\n        /* \"ReputationControlV2.sol\":3537:3640  function getCompaniesNames() external view returns (string[] memory){... */\n    tag_5:\n      tag_28\n      tag_29\n      jump\t// in\n    tag_28:\n      mload(0x40)\n      tag_30\n      swap2\n      swap1\n      tag_31\n      jump\t// in\n    tag_30:\n      mload(0x40)\n      dup1\n      swap2\n      sub\n      swap1\n      return\n        /* \"ReputationControlV2.sol\":2907:3411  function retireCompany(string memory _company) external onlyOwner isCompany(_company){... */\n    tag_6:\n      tag_32\n      0x04\n      dup1\n      calldatasize\n      sub\n      dup2\n      add\n      swap1\n      tag_33\n      swap2\n      swap1\n      tag_34\n      jump\t// in\n    tag_33:\n      tag_35\n      jump\t// in\n    tag_32:\n      stop\n        /* \"ReputationControlV2.sol\":6109:6204  function getAmountDonated() external view returns (uint){... */\n    tag_7:\n      tag_36\n      tag_37\n      jump\t// in\n    tag_36:\n      mload(0x40)\n      tag_38\n      swap2\n      swap1\n      tag_39\n      jump\t// in\n    tag_38:\n      mload(0x40)\n      dup1\n      swap2\n      sub\n      swap1\n      return\n        /* \"ReputationControlV2.sol\":3834:4153  function getAllReputations() external view returns (uint[] memory){... */\n    tag_8:\n      tag_40\n      tag_41\n      jump\t// in\n    tag_40:\n      mload(0x40)\n      tag_42\n      swap2\n      swap1\n      tag_43\n      jump\t// in\n    tag_42:\n      mload(0x40)\n      dup1\n      swap2\n      sub\n      swap1\n      return\n        /* \"ReputationControlV2.sol\":3648:3826  function getReputation(string memory _company) external view isCompany(_company) returns (uint){... */\n    tag_9:\n      tag_44\n      0x04\n      dup1\n      calldatasize\n      sub\n      dup2\n      add\n      swap1\n      tag_45\n      swap2\n      swap1\n      tag_34\n      jump\t// in\n    tag_45:\n      tag_46\n      jump\t// in\n    tag_44:\n      mload(0x40)\n      tag_47\n      swap2\n      swap1\n      tag_39\n      jump\t// in\n    tag_47:\n      mload(0x40)\n      dup1\n      swap2\n      sub\n      swap1\n      return\n        /* \"ReputationControlV2.sol\":5998:6097  function addAmountDonated(uint amount) external onlyOwner{... */\n    tag_10:\n      tag_48\n      0x04\n      dup1\n      calldatasize\n      sub\n      dup2\n      add\n      swap1\n      tag_49\n      swap2\n      swap1\n      tag_50\n      jump\t// in\n    tag_49:\n      tag_51\n      jump\t// in\n    tag_48:\n      stop\n        /* \"ReputationControlV2.sol\":3419:3529  function getTotalComplaints() external view returns(uint){... */\n    tag_11:\n      tag_52\n      tag_53\n      jump\t// in\n    tag_52:\n      mload(0x40)\n      tag_54\n      swap2\n      swap1\n      tag_39\n      jump\t// in\n    tag_54:\n      mload(0x40)\n      dup1\n      swap2\n      sub\n      swap1\n      return\n        /* \"ReputationControlV2.sol\":4650:4827  function getCompanyComplaints(string memory _company) external view isCompany(_company) returns (string[] memory){... */\n    tag_12:\n      tag_55\n      0x04\n      dup1\n      calldatasize\n      sub\n      dup2\n      add\n      swap1\n      tag_56\n      swap2\n      swap1\n      tag_34\n      jump\t// in\n    tag_56:\n      tag_57\n      jump\t// in\n    tag_55:\n      mload(0x40)\n      tag_58\n      swap2\n      swap1\n      tag_31\n      jump\t// in\n    tag_58:\n      mload(0x40)\n      dup1\n      swap2\n      sub\n      swap1\n      return\n        /* \"ReputationControlV2.sol\":5180:5990  function retireComplaint(string memory _company, string memory _hash) external isCompany(_company) onlyOwner{... */\n    tag_13:\n      tag_59\n      0x04\n      dup1\n      calldatasize\n      sub\n      dup2\n      add\n      swap1\n      tag_60\n      swap2\n      swap1\n      tag_61\n      jump\t// in\n    tag_60:\n      tag_62\n      jump\t// in\n    tag_59:\n      stop\n        /* \"ReputationControlV2.sol\":4835:5172  function newComplaint(string memory _company, string memory _hash) external isCompany(_company) onlyOwner{... */\n    tag_14:\n      tag_63\n      0x04\n      dup1\n      calldatasize\n      sub\n      dup2\n      add\n      swap1\n      tag_64\n      swap2\n      swap1\n      tag_61\n      jump\t// in\n    tag_64:\n      tag_65\n      jump\t// in\n    tag_63:\n      stop\n        /* \"ReputationControlV2.sol\":4161:4320  function getCompanyAddress(string memory _company) external view isCompany(_company) returns(address){... */\n    tag_15:\n      tag_66\n      0x04\n      dup1\n      calldatasize\n      sub\n      dup2\n      add\n      swap1\n      tag_67\n      swap2\n      swap1\n      tag_34\n      jump\t// in\n    tag_67:\n      tag_68\n      jump\t// in\n    tag_66:\n      mload(0x40)\n      tag_69\n      swap2\n      swap1\n      tag_70\n      jump\t// in\n    tag_69:\n      mload(0x40)\n      dup1\n      swap2\n      sub\n      swap1\n      return\n        /* \"ReputationControlV2.sol\":2507:2899  function newCompany(string memory _company) external onlyOwner{... */\n    tag_16:\n      tag_71\n      0x04\n      dup1\n      calldatasize\n      sub\n      dup2\n      add\n      swap1\n      tag_72\n      swap2\n      swap1\n      tag_34\n      jump\t// in\n    tag_72:\n      tag_73\n      jump\t// in\n    tag_71:\n      stop\n        /* \"ReputationControlV2.sol\":4328:4642  function getCompaniesAddresses() external view returns (address[] memory){... */\n    tag_21:\n        /* \"ReputationControlV2.sol\":4384:4400  address[] memory */\n      0x60\n        /* \"ReputationControlV2.sol\":4412:4418  uint l */\n      0x00\n        /* \"ReputationControlV2.sol\":4421:4430  companies */\n      0x02\n        /* \"ReputationControlV2.sol\":4421:4437  companies.length */\n      dup1\n      sload\n      swap1\n      pop\n        /* \"ReputationControlV2.sol\":4412:4437  uint l = companies.length */\n      swap1\n      pop\n        /* \"ReputationControlV2.sol\":4448:4474  address [] memory accounts */\n      0x00\n        /* \"ReputationControlV2.sol\":4492:4493  l */\n      dup2\n        /* \"ReputationControlV2.sol\":4478:4494  new address[](l) */\n      0xffffffffffffffff\n      dup2\n      gt\n      iszero\n      tag_75\n      jumpi\n      tag_76\n      tag_77\n      jump\t// in\n    tag_76:\n    tag_75:\n      mload(0x40)\n      swap1\n      dup1\n      dup3\n      mstore\n      dup1\n      0x20\n      mul\n      0x20\n      add\n      dup3\n      add\n      0x40\n      mstore\n      dup1\n      iszero\n      tag_78\n      jumpi\n      dup2\n      0x20\n      add\n      0x20\n      dup3\n      mul\n      dup1\n      calldatasize\n      dup4\n      calldatacopy\n      dup1\n      dup3\n      add\n      swap2\n      pop\n      pop\n      swap1\n      pop\n    tag_78:\n      pop\n        /* \"ReputationControlV2.sol\":4448:4494  address [] memory accounts  = new address[](l) */\n      swap1\n      pop\n        /* \"ReputationControlV2.sol\":4509:4515  uint i */\n      0x00\n        /* \"ReputationControlV2.sol\":4505:4609  for(uint i = 0; i < l; ++i){... */\n    tag_79:\n        /* \"ReputationControlV2.sol\":4525:4526  l */\n      dup3\n        /* \"ReputationControlV2.sol\":4521:4522  i */\n      dup2\n        /* \"ReputationControlV2.sol\":4521:4526  i < l */\n      lt\n        /* \"ReputationControlV2.sol\":4505:4609  for(uint i = 0; i < l; ++i){... */\n      iszero\n      tag_80\n      jumpi\n        /* \"ReputationControlV2.sol\":4561:4574  infoCompanies */\n      0x01\n        /* \"ReputationControlV2.sol\":4575:4584  companies */\n      0x02\n        /* \"ReputationControlV2.sol\":4585:4586  i */\n      dup3\n        /* \"ReputationControlV2.sol\":4575:4587  companies[i] */\n      dup2\n      sload\n      dup2\n      lt\n      tag_82\n      jumpi\n      tag_83\n      tag_84\n      jump\t// in\n    tag_83:\n    tag_82:\n      swap1\n      0x00\n      mstore\n      keccak256(0x00, 0x20)\n      add\n        /* \"ReputationControlV2.sol\":4561:4588  infoCompanies[companies[i]] */\n      mload(0x40)\n      tag_86\n      swap2\n      swap1\n      tag_87\n      jump\t// in\n    tag_86:\n      swap1\n      dup2\n      mstore\n      0x20\n      add\n      mload(0x40)\n      dup1\n      swap2\n      sub\n      swap1\n      keccak256\n        /* \"ReputationControlV2.sol\":4561:4597  infoCompanies[companies[i]]._address */\n      0x00\n      add\n      0x00\n      swap1\n      sload\n      swap1\n      0x0100\n      exp\n      swap1\n      div\n      0xffffffffffffffffffffffffffffffffffffffff\n      and\n        /* \"ReputationControlV2.sol\":4547:4555  accounts */\n      dup3\n        /* \"ReputationControlV2.sol\":4556:4557  i */\n      dup3\n        /* \"ReputationControlV2.sol\":4547:4558  accounts[i] */\n      dup2\n      mload\n      dup2\n      lt\n      tag_88\n      jumpi\n      tag_89\n      tag_84\n      jump\t// in\n    tag_89:\n    tag_88:\n      0x20\n      mul\n      0x20\n      add\n      add\n        /* \"ReputationControlV2.sol\":4547:4597  accounts[i] = infoCompanies[companies[i]]._address */\n      swap1\n      0xffffffffffffffffffffffffffffffffffffffff\n      and\n      swap1\n      dup2\n      0xffffffffffffffffffffffffffffffffffffffff\n      and\n      dup2\n      mstore\n      pop\n      pop\n        /* \"ReputationControlV2.sol\":4528:4531  ++i */\n      dup1\n      tag_90\n      swap1\n      tag_91\n      jump\t// in\n    tag_90:\n      swap1\n      pop\n        /* \"ReputationControlV2.sol\":4505:4609  for(uint i = 0; i < l; ++i){... */\n      jump(tag_79)\n    tag_80:\n      pop\n        /* \"ReputationControlV2.sol\":4626:4634  accounts */\n      dup1\n        /* \"ReputationControlV2.sol\":4619:4634  return accounts */\n      swap3\n      pop\n      pop\n      pop\n        /* \"ReputationControlV2.sol\":4328:4642  function getCompaniesAddresses() external view returns (address[] memory){... */\n      swap1\n      jump\t// out\n        /* \"ReputationControlV2.sol\":2000:2499  function newCompanies(string[] memory _companies) external onlyOwner{... */\n    tag_27:\n        /* \"ReputationControlV2.sol\":1621:1626  owner */\n      immutable(\"0xb6477a31e41e27dc2f2cbe4c2bbb37b5a6a34683d5cbca4a1a706df5525a2d30\")\n        /* \"ReputationControlV2.sol\":1607:1626  msg.sender == owner */\n      0xffffffffffffffffffffffffffffffffffffffff\n      and\n        /* \"ReputationControlV2.sol\":1607:1617  msg.sender */\n      caller\n        /* \"ReputationControlV2.sol\":1607:1626  msg.sender == owner */\n      0xffffffffffffffffffffffffffffffffffffffff\n      and\n      eq\n        /* \"ReputationControlV2.sol\":1599:1643  require(msg.sender == owner,\"No allowances\") */\n      tag_93\n      jumpi\n      mload(0x40)\n      0x08c379a000000000000000000000000000000000000000000000000000000000\n      dup2\n      mstore\n      0x04\n      add\n      tag_94\n      swap1\n      tag_95\n      jump\t// in\n    tag_94:\n      mload(0x40)\n      dup1\n      swap2\n      sub\n      swap1\n      revert\n    tag_93:\n        /* \"ReputationControlV2.sol\":2083:2089  uint i */\n      0x00\n        /* \"ReputationControlV2.sol\":2079:2492  for(uint i = 0; i < _companies.length; ++i){... */\n    tag_97:\n        /* \"ReputationControlV2.sol\":2099:2109  _companies */\n      dup2\n        /* \"ReputationControlV2.sol\":2099:2116  _companies.length */\n      mload\n        /* \"ReputationControlV2.sol\":2095:2096  i */\n      dup2\n        /* \"ReputationControlV2.sol\":2095:2116  i < _companies.length */\n      lt\n        /* \"ReputationControlV2.sol\":2079:2492  for(uint i = 0; i < _companies.length; ++i){... */\n      iszero\n      tag_98\n      jumpi\n        /* \"ReputationControlV2.sol\":2189:2190  0 */\n      0x00\n        /* \"ReputationControlV2.sol\":2140:2191  infoCompanies[_companies[i]]._address == address(0) */\n      0xffffffffffffffffffffffffffffffffffffffff\n      and\n        /* \"ReputationControlV2.sol\":2140:2153  infoCompanies */\n      0x01\n        /* \"ReputationControlV2.sol\":2154:2164  _companies */\n      dup4\n        /* \"ReputationControlV2.sol\":2165:2166  i */\n      dup4\n        /* \"ReputationControlV2.sol\":2154:2167  _companies[i] */\n      dup2\n      mload\n      dup2\n      lt\n      tag_100\n      jumpi\n      tag_101\n      tag_84\n      jump\t// in\n    tag_101:\n    tag_100:\n      0x20\n      mul\n      0x20\n      add\n      add\n      mload\n        /* \"ReputationControlV2.sol\":2140:2168  infoCompanies[_companies[i]] */\n      mload(0x40)\n      tag_102\n      swap2\n      swap1\n      tag_103\n      jump\t// in\n    tag_102:\n      swap1\n      dup2\n      mstore\n      0x20\n      add\n      mload(0x40)\n      dup1\n      swap2\n      sub\n      swap1\n      keccak256\n        /* \"ReputationControlV2.sol\":2140:2177  infoCompanies[_companies[i]]._address */\n      0x00\n      add\n      0x00\n      swap1\n      sload\n      swap1\n      0x0100\n      exp\n      swap1\n      div\n      0xffffffffffffffffffffffffffffffffffffffff\n      and\n        /* \"ReputationControlV2.sol\":2140:2191  infoCompanies[_companies[i]]._address == address(0) */\n      0xffffffffffffffffffffffffffffffffffffffff\n      and\n      eq\n        /* \"ReputationControlV2.sol\":2137:2481  if(infoCompanies[_companies[i]]._address == address(0)){... */\n      iszero\n      tag_104\n      jumpi\n        /* \"ReputationControlV2.sol\":2211:2222  address add */\n      0x00\n        /* \"ReputationControlV2.sol\":2268:2278  _companies */\n      dup3\n        /* \"ReputationControlV2.sol\":2279:2280  i */\n      dup3\n        /* \"ReputationControlV2.sol\":2268:2281  _companies[i] */\n      dup2\n      mload\n      dup2\n      lt\n      tag_105\n      jumpi\n      tag_106\n      tag_84\n      jump\t// in\n    tag_106:\n    tag_105:\n      0x20\n      mul\n      0x20\n      add\n      add\n      mload\n        /* \"ReputationControlV2.sol\":2251:2282  abi.encodePacked(_companies[i]) */\n      add(0x20, mload(0x40))\n      tag_107\n      swap2\n      swap1\n      tag_103\n      jump\t// in\n    tag_107:\n      mload(0x40)\n      0x20\n      dup2\n      dup4\n      sub\n      sub\n      dup2\n      mstore\n      swap1\n      0x40\n      mstore\n        /* \"ReputationControlV2.sol\":2241:2283  keccak256(abi.encodePacked(_companies[i])) */\n      dup1\n      mload\n      swap1\n      0x20\n      add\n      keccak256\n        /* \"ReputationControlV2.sol\":2225:2285  address(bytes20(keccak256(abi.encodePacked(_companies[i])))) */\n      0x60\n      shr\n        /* \"ReputationControlV2.sol\":2211:2285  address add = address(bytes20(keccak256(abi.encodePacked(_companies[i])))) */\n      swap1\n      pop\n        /* \"ReputationControlV2.sol\":2344:2347  add */\n      dup1\n        /* \"ReputationControlV2.sol\":2304:2317  infoCompanies */\n      0x01\n        /* \"ReputationControlV2.sol\":2318:2328  _companies */\n      dup5\n        /* \"ReputationControlV2.sol\":2329:2330  i */\n      dup5\n        /* \"ReputationControlV2.sol\":2318:2331  _companies[i] */\n      dup2\n      mload\n      dup2\n      lt\n      tag_108\n      jumpi\n      tag_109\n      tag_84\n      jump\t// in\n    tag_109:\n    tag_108:\n      0x20\n      mul\n      0x20\n      add\n      add\n      mload\n        /* \"ReputationControlV2.sol\":2304:2332  infoCompanies[_companies[i]] */\n      mload(0x40)\n      tag_110\n      swap2\n      swap1\n      tag_103\n      jump\t// in\n    tag_110:\n      swap1\n      dup2\n      mstore\n      0x20\n      add\n      mload(0x40)\n      dup1\n      swap2\n      sub\n      swap1\n      keccak256\n        /* \"ReputationControlV2.sol\":2304:2341  infoCompanies[_companies[i]]._address */\n      0x00\n      add\n      0x00\n        /* \"ReputationControlV2.sol\":2304:2347  infoCompanies[_companies[i]]._address = add */\n      0x0100\n      exp\n      dup2\n      sload\n      dup2\n      0xffffffffffffffffffffffffffffffffffffffff\n      mul\n      not\n      and\n      swap1\n      dup4\n      0xffffffffffffffffffffffffffffffffffffffff\n      and\n      mul\n      or\n      swap1\n      sstore\n      pop\n        /* \"ReputationControlV2.sol\":2401:2410  companies */\n      0x02\n        /* \"ReputationControlV2.sol\":2401:2417  companies.length */\n      dup1\n      sload\n      swap1\n      pop\n        /* \"ReputationControlV2.sol\":2366:2379  infoCompanies */\n      0x01\n        /* \"ReputationControlV2.sol\":2380:2390  _companies */\n      dup5\n        /* \"ReputationControlV2.sol\":2391:2392  i */\n      dup5\n        /* \"ReputationControlV2.sol\":2380:2393  _companies[i] */\n      dup2\n      mload\n      dup2\n      lt\n      tag_111\n      jumpi\n      tag_112\n      tag_84\n      jump\t// in\n    tag_112:\n    tag_111:\n      0x20\n      mul\n      0x20\n      add\n      add\n      mload\n        /* \"ReputationControlV2.sol\":2366:2394  infoCompanies[_companies[i]] */\n      mload(0x40)\n      tag_113\n      swap2\n      swap1\n      tag_103\n      jump\t// in\n    tag_113:\n      swap1\n      dup2\n      mstore\n      0x20\n      add\n      mload(0x40)\n      dup1\n      swap2\n      sub\n      swap1\n      keccak256\n        /* \"ReputationControlV2.sol\":2366:2398  infoCompanies[_companies[i]].pos */\n      0x01\n      add\n        /* \"ReputationControlV2.sol\":2366:2417  infoCompanies[_companies[i]].pos = companies.length */\n      dup2\n      swap1\n      sstore\n      pop\n        /* \"ReputationControlV2.sol\":2436:2445  companies */\n      0x02\n        /* \"ReputationControlV2.sol\":2451:2461  _companies */\n      dup4\n        /* \"ReputationControlV2.sol\":2462:2463  i */\n      dup4\n        /* \"ReputationControlV2.sol\":2451:2464  _companies[i] */\n      dup2\n      mload\n      dup2\n      lt\n      tag_114\n      jumpi\n      tag_115\n      tag_84\n      jump\t// in\n    tag_115:\n    tag_114:\n      0x20\n      mul\n      0x20\n      add\n      add\n      mload\n        /* \"ReputationControlV2.sol\":2436:2465  companies.push(_companies[i]) */\n      swap1\n      dup1\n      0x01\n      dup2\n      sload\n      add\n      dup1\n      dup3\n      sstore\n      dup1\n      swap2\n      pop\n      pop\n      0x01\n      swap1\n      sub\n      swap1\n      0x00\n      mstore\n      keccak256(0x00, 0x20)\n      add\n      0x00\n      swap1\n      swap2\n      swap1\n      swap2\n      swap1\n      swap2\n      pop\n      swap1\n      dup1\n      mload\n      swap1\n      0x20\n      add\n      swap1\n      tag_117\n      swap3\n      swap2\n      swap1\n      tag_118\n      jump\t// in\n    tag_117:\n      pop\n        /* \"ReputationControlV2.sol\":2192:2481  {... */\n      pop\n        /* \"ReputationControlV2.sol\":2137:2481  if(infoCompanies[_companies[i]]._address == address(0)){... */\n    tag_104:\n        /* \"ReputationControlV2.sol\":2118:2121  ++i */\n      dup1\n      tag_119\n      swap1\n      tag_91\n      jump\t// in\n    tag_119:\n      swap1\n      pop\n        /* \"ReputationControlV2.sol\":2079:2492  for(uint i = 0; i < _companies.length; ++i){... */\n      jump(tag_97)\n    tag_98:\n      pop\n        /* \"ReputationControlV2.sol\":2000:2499  function newCompanies(string[] memory _companies) external onlyOwner{... */\n      pop\n      jump\t// out\n        /* \"ReputationControlV2.sol\":3537:3640  function getCompaniesNames() external view returns (string[] memory){... */\n    tag_29:\n        /* \"ReputationControlV2.sol\":3589:3604  string[] memory */\n      0x60\n        /* \"ReputationControlV2.sol\":3623:3632  companies */\n      0x02\n        /* \"ReputationControlV2.sol\":3616:3632  return companies */\n      dup1\n      sload\n      dup1\n      0x20\n      mul\n      0x20\n      add\n      mload(0x40)\n      swap1\n      dup2\n      add\n      0x40\n      mstore\n      dup1\n      swap3\n      swap2\n      swap1\n      dup2\n      dup2\n      mstore\n      0x20\n      add\n      0x00\n      swap1\n    tag_121:\n      dup3\n      dup3\n      lt\n      iszero\n      tag_122\n      jumpi\n      dup4\n      dup3\n      swap1\n      0x00\n      mstore\n      keccak256(0x00, 0x20)\n      add\n      dup1\n      sload\n      tag_124\n      swap1\n      tag_125\n      jump\t// in\n    tag_124:\n      dup1\n      0x1f\n      add\n      0x20\n      dup1\n      swap2\n      div\n      mul\n      0x20\n      add\n      mload(0x40)\n      swap1\n      dup2\n      add\n      0x40\n      mstore\n      dup1\n      swap3\n      swap2\n      swap1\n      dup2\n      dup2\n      mstore\n      0x20\n      add\n      dup3\n      dup1\n      sload\n      tag_126\n      swap1\n      tag_125\n      jump\t// in\n    tag_126:\n      dup1\n      iszero\n      tag_127\n      jumpi\n      dup1\n      0x1f\n      lt\n      tag_128\n      jumpi\n      0x0100\n      dup1\n      dup4\n      sload\n      div\n      mul\n      dup4\n      mstore\n      swap2\n      0x20\n      add\n      swap2\n      jump(tag_127)\n    tag_128:\n      dup3\n      add\n      swap2\n      swap1\n      0x00\n      mstore\n      keccak256(0x00, 0x20)\n      swap1\n    tag_129:\n      dup2\n      sload\n      dup2\n      mstore\n      swap1\n      0x01\n      add\n      swap1\n      0x20\n      add\n      dup1\n      dup4\n      gt\n      tag_129\n      jumpi\n      dup3\n      swap1\n      sub\n      0x1f\n      and\n      dup3\n      add\n      swap2\n    tag_127:\n      pop\n      pop\n      pop\n      pop\n      pop\n      dup2\n      mstore\n      0x20\n      add\n      swap1\n      0x01\n      add\n      swap1\n      jump(tag_121)\n    tag_122:\n      pop\n      pop\n      pop\n      pop\n      swap1\n      pop\n        /* \"ReputationControlV2.sol\":3537:3640  function getCompaniesNames() external view returns (string[] memory){... */\n      swap1\n      jump\t// out\n        /* \"ReputationControlV2.sol\":2907:3411  function retireCompany(string memory _company) external onlyOwner isCompany(_company){... */\n    tag_35:\n        /* \"ReputationControlV2.sol\":1621:1626  owner */\n      immutable(\"0xb6477a31e41e27dc2f2cbe4c2bbb37b5a6a34683d5cbca4a1a706df5525a2d30\")\n        /* \"ReputationControlV2.sol\":1607:1626  msg.sender == owner */\n      0xffffffffffffffffffffffffffffffffffffffff\n      and\n        /* \"ReputationControlV2.sol\":1607:1617  msg.sender */\n      caller\n        /* \"ReputationControlV2.sol\":1607:1626  msg.sender == owner */\n      0xffffffffffffffffffffffffffffffffffffffff\n      and\n      eq\n        /* \"ReputationControlV2.sol\":1599:1643  require(msg.sender == owner,\"No allowances\") */\n      tag_131\n      jumpi\n      mload(0x40)\n      0x08c379a000000000000000000000000000000000000000000000000000000000\n      dup2\n      mstore\n      0x04\n      add\n      tag_132\n      swap1\n      tag_95\n      jump\t// in\n    tag_132:\n      mload(0x40)\n      dup1\n      swap2\n      sub\n      swap1\n      revert\n    tag_131:\n        /* \"ReputationControlV2.sol\":2983:2991  _company */\n      dup1\n        /* \"ReputationControlV2.sol\":1776:1777  0 */\n      0x00\n        /* \"ReputationControlV2.sol\":1732:1778  infoCompanies[_company]._address != address(0) */\n      0xffffffffffffffffffffffffffffffffffffffff\n      and\n        /* \"ReputationControlV2.sol\":1732:1745  infoCompanies */\n      0x01\n        /* \"ReputationControlV2.sol\":1746:1754  _company */\n      dup3\n        /* \"ReputationControlV2.sol\":1732:1755  infoCompanies[_company] */\n      mload(0x40)\n      tag_134\n      swap2\n      swap1\n      tag_103\n      jump\t// in\n    tag_134:\n      swap1\n      dup2\n      mstore\n      0x20\n      add\n      mload(0x40)\n      dup1\n      swap2\n      sub\n      swap1\n      keccak256\n        /* \"ReputationControlV2.sol\":1732:1764  infoCompanies[_company]._address */\n      0x00\n      add\n      0x00\n      swap1\n      sload\n      swap1\n      0x0100\n      exp\n      swap1\n      div\n      0xffffffffffffffffffffffffffffffffffffffff\n      and\n        /* \"ReputationControlV2.sol\":1732:1778  infoCompanies[_company]._address != address(0) */\n      0xffffffffffffffffffffffffffffffffffffffff\n      and\n      eq\n      iszero\n        /* \"ReputationControlV2.sol\":1724:1826  require(infoCompanies[_company]._address != address(0), \"Not detected as a participant in our system\") */\n      tag_135\n      jumpi\n      mload(0x40)\n      0x08c379a000000000000000000000000000000000000000000000000000000000\n      dup2\n      mstore\n      0x04\n      add\n      tag_136\n      swap1\n      tag_137\n      jump\t// in\n    tag_136:\n      mload(0x40)\n      dup1\n      swap2\n      sub\n      swap1\n      revert\n    tag_135:\n        /* \"ReputationControlV2.sol\":3003:3018  address account */\n      0x00\n        /* \"ReputationControlV2.sol\":3021:3034  infoCompanies */\n      0x01\n        /* \"ReputationControlV2.sol\":3035:3043  _company */\n      dup4\n        /* \"ReputationControlV2.sol\":3021:3044  infoCompanies[_company] */\n      mload(0x40)\n      tag_139\n      swap2\n      swap1\n      tag_103\n      jump\t// in\n    tag_139:\n      swap1\n      dup2\n      mstore\n      0x20\n      add\n      mload(0x40)\n      dup1\n      swap2\n      sub\n      swap1\n      keccak256\n        /* \"ReputationControlV2.sol\":3021:3053  infoCompanies[_company]._address */\n      0x00\n      add\n      0x00\n      swap1\n      sload\n      swap1\n      0x0100\n      exp\n      swap1\n      div\n      0xffffffffffffffffffffffffffffffffffffffff\n      and\n        /* \"ReputationControlV2.sol\":3003:3053  address account = infoCompanies[_company]._address */\n      swap1\n      pop\n        /* \"ReputationControlV2.sol\":3064:3077  tokenContract */\n      0x00\n      dup1\n      sload\n      swap1\n      0x0100\n      exp\n      swap1\n      div\n      0xffffffffffffffffffffffffffffffffffffffff\n      and\n        /* \"ReputationControlV2.sol\":3064:3082  tokenContract.burn */\n      0xffffffffffffffffffffffffffffffffffffffff\n      and\n      0x9dc29fac\n        /* \"ReputationControlV2.sol\":3083:3090  account */\n      dup3\n        /* \"ReputationControlV2.sol\":3092:3105  tokenContract */\n      0x00\n      dup1\n      sload\n      swap1\n      0x0100\n      exp\n      swap1\n      div\n      0xffffffffffffffffffffffffffffffffffffffff\n      and\n        /* \"ReputationControlV2.sol\":3092:3115  tokenContract.balanceOf */\n      0xffffffffffffffffffffffffffffffffffffffff\n      and\n      0x70a08231\n        /* \"ReputationControlV2.sol\":3116:3123  account */\n      dup6\n        /* \"ReputationControlV2.sol\":3092:3124  tokenContract.balanceOf(account) */\n      mload(0x40)\n      dup3\n      0xffffffff\n      and\n      0xe0\n      shl\n      dup2\n      mstore\n      0x04\n      add\n      tag_140\n      swap2\n      swap1\n      tag_70\n      jump\t// in\n    tag_140:\n      0x20\n      mload(0x40)\n      dup1\n      dup4\n      sub\n      dup2\n      dup7\n      gas\n      staticcall\n      iszero\n      dup1\n      iszero\n      tag_142\n      jumpi\n      returndatasize\n      0x00\n      dup1\n      returndatacopy\n      revert(0x00, returndatasize)\n    tag_142:\n      pop\n      pop\n      pop\n      pop\n      mload(0x40)\n      returndatasize\n      not(0x1f)\n      0x1f\n      dup3\n      add\n      and\n      dup3\n      add\n      dup1\n      0x40\n      mstore\n      pop\n      dup2\n      add\n      swap1\n      tag_143\n      swap2\n      swap1\n      tag_144\n      jump\t// in\n    tag_143:\n        /* \"ReputationControlV2.sol\":3064:3125  tokenContract.burn(account, tokenContract.balanceOf(account)) */\n      mload(0x40)\n      dup4\n      0xffffffff\n      and\n      0xe0\n      shl\n      dup2\n      mstore\n      0x04\n      add\n      tag_145\n      swap3\n      swap2\n      swap1\n      tag_146\n      jump\t// in\n    tag_145:\n      0x00\n      mload(0x40)\n      dup1\n      dup4\n      sub\n      dup2\n      0x00\n      dup8\n      dup1\n      extcodesize\n      iszero\n      dup1\n      iszero\n      tag_147\n      jumpi\n      0x00\n      dup1\n      revert\n    tag_147:\n      pop\n      gas\n      call\n      iszero\n      dup1\n      iszero\n      tag_149\n      jumpi\n      returndatasize\n      0x00\n      dup1\n      returndatacopy\n      revert(0x00, returndatasize)\n    tag_149:\n      pop\n      pop\n      pop\n      pop\n        /* \"ReputationControlV2.sol\":3136:3146  uint index */\n      0x00\n        /* \"ReputationControlV2.sol\":3149:3162  infoCompanies */\n      0x01\n        /* \"ReputationControlV2.sol\":3163:3171  _company */\n      dup5\n        /* \"ReputationControlV2.sol\":3149:3172  infoCompanies[_company] */\n      mload(0x40)\n      tag_150\n      swap2\n      swap1\n      tag_103\n      jump\t// in\n    tag_150:\n      swap1\n      dup2\n      mstore\n      0x20\n      add\n      mload(0x40)\n      dup1\n      swap2\n      sub\n      swap1\n      keccak256\n        /* \"ReputationControlV2.sol\":3149:3176  infoCompanies[_company].pos */\n      0x01\n      add\n      sload\n        /* \"ReputationControlV2.sol\":3136:3176  uint index = infoCompanies[_company].pos */\n      swap1\n      pop\n        /* \"ReputationControlV2.sol\":3187:3212  string memory lastCompany */\n      0x00\n        /* \"ReputationControlV2.sol\":3215:3224  companies */\n      0x02\n        /* \"ReputationControlV2.sol\":3244:3245  1 */\n      0x01\n        /* \"ReputationControlV2.sol\":3225:3234  companies */\n      0x02\n        /* \"ReputationControlV2.sol\":3225:3241  companies.length */\n      dup1\n      sload\n      swap1\n      pop\n        /* \"ReputationControlV2.sol\":3225:3245  companies.length - 1 */\n      tag_151\n      swap2\n      swap1\n      tag_152\n      jump\t// in\n    tag_151:\n        /* \"ReputationControlV2.sol\":3215:3246  companies[companies.length - 1] */\n      dup2\n      sload\n      dup2\n      lt\n      tag_153\n      jumpi\n      tag_154\n      tag_84\n      jump\t// in\n    tag_154:\n    tag_153:\n      swap1\n      0x00\n      mstore\n      keccak256(0x00, 0x20)\n      add\n        /* \"ReputationControlV2.sol\":3187:3246  string memory lastCompany = companies[companies.length - 1] */\n      dup1\n      sload\n      tag_156\n      swap1\n      tag_125\n      jump\t// in\n    tag_156:\n      dup1\n      0x1f\n      add\n      0x20\n      dup1\n      swap2\n      div\n      mul\n      0x20\n      add\n      mload(0x40)\n      swap1\n      dup2\n      add\n      0x40\n      mstore\n      dup1\n      swap3\n      swap2\n      swap1\n      dup2\n      dup2\n      mstore\n      0x20\n      add\n      dup3\n      dup1\n      sload\n      tag_157\n      swap1\n      tag_125\n      jump\t// in\n    tag_157:\n      dup1\n      iszero\n      tag_158\n      jumpi\n      dup1\n      0x1f\n      lt\n      tag_159\n      jumpi\n      0x0100\n      dup1\n      dup4\n      sload\n      div\n      mul\n      dup4\n      mstore\n      swap2\n      0x20\n      add\n      swap2\n      jump(tag_158)\n    tag_159:\n      dup3\n      add\n      swap2\n      swap1\n      0x00\n      mstore\n      keccak256(0x00, 0x20)\n      swap1\n    tag_160:\n      dup2\n      sload\n      dup2\n      mstore\n      swap1\n      0x01\n      add\n      swap1\n      0x20\n      add\n      dup1\n      dup4\n      gt\n      tag_160\n      jumpi\n      dup3\n      swap1\n      sub\n      0x1f\n      and\n      dup3\n      add\n      swap2\n    tag_158:\n      pop\n      pop\n      pop\n      pop\n      pop\n      swap1\n      pop\n        /* \"ReputationControlV2.sol\":3276:3287  lastCompany */\n      dup1\n        /* \"ReputationControlV2.sol\":3257:3266  companies */\n      0x02\n        /* \"ReputationControlV2.sol\":3267:3272  index */\n      dup4\n        /* \"ReputationControlV2.sol\":3257:3273  companies[index] */\n      dup2\n      sload\n      dup2\n      lt\n      tag_161\n      jumpi\n      tag_162\n      tag_84\n      jump\t// in\n    tag_162:\n    tag_161:\n      swap1\n      0x00\n      mstore\n      keccak256(0x00, 0x20)\n      add\n        /* \"ReputationControlV2.sol\":3257:3287  companies[index] = lastCompany */\n      swap1\n      dup1\n      mload\n      swap1\n      0x20\n      add\n      swap1\n      tag_164\n      swap3\n      swap2\n      swap1\n      tag_118\n      jump\t// in\n    tag_164:\n      pop\n        /* \"ReputationControlV2.sol\":3331:3336  index */\n      dup2\n        /* \"ReputationControlV2.sol\":3298:3311  infoCompanies */\n      0x01\n        /* \"ReputationControlV2.sol\":3312:3323  lastCompany */\n      dup3\n        /* \"ReputationControlV2.sol\":3298:3324  infoCompanies[lastCompany] */\n      mload(0x40)\n      tag_165\n      swap2\n      swap1\n      tag_103\n      jump\t// in\n    tag_165:\n      swap1\n      dup2\n      mstore\n      0x20\n      add\n      mload(0x40)\n      dup1\n      swap2\n      sub\n      swap1\n      keccak256\n        /* \"ReputationControlV2.sol\":3298:3328  infoCompanies[lastCompany].pos */\n      0x01\n      add\n        /* \"ReputationControlV2.sol\":3298:3336  infoCompanies[lastCompany].pos = index */\n      dup2\n      swap1\n      sstore\n      pop\n        /* \"ReputationControlV2.sol\":3347:3356  companies */\n      0x02\n        /* \"ReputationControlV2.sol\":3347:3362  companies.pop() */\n      dup1\n      sload\n      dup1\n      tag_166\n      jumpi\n      tag_167\n      tag_168\n      jump\t// in\n    tag_167:\n    tag_166:\n      0x01\n      swap1\n      sub\n      dup2\n      dup2\n      swap1\n      0x00\n      mstore\n      keccak256(0x00, 0x20)\n      add\n      0x00\n      tag_170\n      swap2\n      swap1\n      tag_171\n      jump\t// in\n    tag_170:\n      swap1\n      sstore\n        /* \"ReputationControlV2.sol\":3380:3393  infoCompanies */\n      0x01\n        /* \"ReputationControlV2.sol\":3394:3402  _company */\n      dup6\n        /* \"ReputationControlV2.sol\":3380:3403  infoCompanies[_company] */\n      mload(0x40)\n      tag_172\n      swap2\n      swap1\n      tag_103\n      jump\t// in\n    tag_172:\n      swap1\n      dup2\n      mstore\n      0x20\n      add\n      mload(0x40)\n      dup1\n      swap2\n      sub\n      swap1\n      keccak256\n      0x00\n        /* \"ReputationControlV2.sol\":3373:3403  delete infoCompanies[_company] */\n      dup1\n      dup3\n      add\n      exp(0x0100, 0x00)\n      dup2\n      sload\n      swap1\n      0xffffffffffffffffffffffffffffffffffffffff\n      mul\n      not\n      and\n      swap1\n      sstore\n      0x01\n      dup3\n      add\n      0x00\n      swap1\n      sstore\n      0x03\n      dup3\n      add\n      0x00\n      tag_173\n      swap2\n      swap1\n      tag_174\n      jump\t// in\n    tag_173:\n      pop\n      pop\n        /* \"ReputationControlV2.sol\":2992:3411  {... */\n      pop\n      pop\n      pop\n        /* \"ReputationControlV2.sol\":1654:1655  _ */\n      pop\n        /* \"ReputationControlV2.sol\":2907:3411  function retireCompany(string memory _company) external onlyOwner isCompany(_company){... */\n      pop\n      jump\t// out\n        /* \"ReputationControlV2.sol\":6109:6204  function getAmountDonated() external view returns (uint){... */\n    tag_37:\n        /* \"ReputationControlV2.sol\":6160:6164  uint */\n      0x00\n        /* \"ReputationControlV2.sol\":6183:6196  amountDonated */\n      sload(0x03)\n        /* \"ReputationControlV2.sol\":6176:6196  return amountDonated */\n      swap1\n      pop\n        /* \"ReputationControlV2.sol\":6109:6204  function getAmountDonated() external view returns (uint){... */\n      swap1\n      jump\t// out\n        /* \"ReputationControlV2.sol\":3834:4153  function getAllReputations() external view returns (uint[] memory){... */\n    tag_41:\n        /* \"ReputationControlV2.sol\":3886:3899  uint[] memory */\n      0x60\n        /* \"ReputationControlV2.sol\":3911:3935  uint [] memory _balances */\n      0x00\n        /* \"ReputationControlV2.sol\":3949:3958  companies */\n      0x02\n        /* \"ReputationControlV2.sol\":3949:3965  companies.length */\n      dup1\n      sload\n      swap1\n      pop\n        /* \"ReputationControlV2.sol\":3938:3966  new uint[](companies.length) */\n      0xffffffffffffffff\n      dup2\n      gt\n      iszero\n      tag_177\n      jumpi\n      tag_178\n      tag_77\n      jump\t// in\n    tag_178:\n    tag_177:\n      mload(0x40)\n      swap1\n      dup1\n      dup3\n      mstore\n      dup1\n      0x20\n      mul\n      0x20\n      add\n      dup3\n      add\n      0x40\n      mstore\n      dup1\n      iszero\n      tag_179\n      jumpi\n      dup2\n      0x20\n      add\n      0x20\n      dup3\n      mul\n      dup1\n      calldatasize\n      dup4\n      calldatacopy\n      dup1\n      dup3\n      add\n      swap2\n      pop\n      pop\n      swap1\n      pop\n    tag_179:\n      pop\n        /* \"ReputationControlV2.sol\":3911:3966  uint [] memory _balances = new uint[](companies.length) */\n      swap1\n      pop\n        /* \"ReputationControlV2.sol\":3981:3987  uint i */\n      0x00\n        /* \"ReputationControlV2.sol\":3977:4119  for(uint i = 0; i<companies.length;++i){... */\n    tag_180:\n        /* \"ReputationControlV2.sol\":3995:4004  companies */\n      0x02\n        /* \"ReputationControlV2.sol\":3995:4011  companies.length */\n      dup1\n      sload\n      swap1\n      pop\n        /* \"ReputationControlV2.sol\":3993:3994  i */\n      dup2\n        /* \"ReputationControlV2.sol\":3993:4011  i<companies.length */\n      lt\n        /* \"ReputationControlV2.sol\":3977:4119  for(uint i = 0; i<companies.length;++i){... */\n      iszero\n      tag_181\n      jumpi\n        /* \"ReputationControlV2.sol\":4046:4059  tokenContract */\n      0x00\n      dup1\n      sload\n      swap1\n      0x0100\n      exp\n      swap1\n      div\n      0xffffffffffffffffffffffffffffffffffffffff\n      and\n        /* \"ReputationControlV2.sol\":4046:4069  tokenContract.balanceOf */\n      0xffffffffffffffffffffffffffffffffffffffff\n      and\n      0x70a08231\n        /* \"ReputationControlV2.sol\":4070:4083  infoCompanies */\n      0x01\n        /* \"ReputationControlV2.sol\":4084:4093  companies */\n      0x02\n        /* \"ReputationControlV2.sol\":4094:4095  i */\n      dup5\n        /* \"ReputationControlV2.sol\":4084:4096  companies[i] */\n      dup2\n      sload\n      dup2\n      lt\n      tag_183\n      jumpi\n      tag_184\n      tag_84\n      jump\t// in\n    tag_184:\n    tag_183:\n      swap1\n      0x00\n      mstore\n      keccak256(0x00, 0x20)\n      add\n        /* \"ReputationControlV2.sol\":4070:4097  infoCompanies[companies[i]] */\n      mload(0x40)\n      tag_186\n      swap2\n      swap1\n      tag_87\n      jump\t// in\n    tag_186:\n      swap1\n      dup2\n      mstore\n      0x20\n      add\n      mload(0x40)\n      dup1\n      swap2\n      sub\n      swap1\n      keccak256\n        /* \"ReputationControlV2.sol\":4070:4106  infoCompanies[companies[i]]._address */\n      0x00\n      add\n      0x00\n      swap1\n      sload\n      swap1\n      0x0100\n      exp\n      swap1\n      div\n      0xffffffffffffffffffffffffffffffffffffffff\n      and\n        /* \"ReputationControlV2.sol\":4046:4107  tokenContract.balanceOf(infoCompanies[companies[i]]._address) */\n      mload(0x40)\n      dup3\n      0xffffffff\n      and\n      0xe0\n      shl\n      dup2\n      mstore\n      0x04\n      add\n      tag_187\n      swap2\n      swap1\n      tag_70\n      jump\t// in\n    tag_187:\n      0x20\n      mload(0x40)\n      dup1\n      dup4\n      sub\n      dup2\n      dup7\n      gas\n      staticcall\n      iszero\n      dup1\n      iszero\n      tag_189\n      jumpi\n      returndatasize\n      0x00\n      dup1\n      returndatacopy\n      revert(0x00, returndatasize)\n    tag_189:\n      pop\n      pop\n      pop\n      pop\n      mload(0x40)\n      returndatasize\n      not(0x1f)\n      0x1f\n      dup3\n      add\n      and\n      dup3\n      add\n      dup1\n      0x40\n      mstore\n      pop\n      dup2\n      add\n      swap1\n      tag_190\n      swap2\n      swap1\n      tag_144\n      jump\t// in\n    tag_190:\n        /* \"ReputationControlV2.sol\":4031:4040  _balances */\n      dup3\n        /* \"ReputationControlV2.sol\":4041:4042  i */\n      dup3\n        /* \"ReputationControlV2.sol\":4031:4043  _balances[i] */\n      dup2\n      mload\n      dup2\n      lt\n      tag_191\n      jumpi\n      tag_192\n      tag_84\n      jump\t// in\n    tag_192:\n    tag_191:\n      0x20\n      mul\n      0x20\n      add\n      add\n        /* \"ReputationControlV2.sol\":4031:4107  _balances[i] = tokenContract.balanceOf(infoCompanies[companies[i]]._address) */\n      dup2\n      dup2\n      mstore\n      pop\n      pop\n        /* \"ReputationControlV2.sol\":4012:4015  ++i */\n      dup1\n      tag_193\n      swap1\n      tag_91\n      jump\t// in\n    tag_193:\n      swap1\n      pop\n        /* \"ReputationControlV2.sol\":3977:4119  for(uint i = 0; i<companies.length;++i){... */\n      jump(tag_180)\n    tag_181:\n      pop\n        /* \"ReputationControlV2.sol\":4136:4145  _balances */\n      dup1\n        /* \"ReputationControlV2.sol\":4129:4145  return _balances */\n      swap2\n      pop\n      pop\n        /* \"ReputationControlV2.sol\":3834:4153  function getAllReputations() external view returns (uint[] memory){... */\n      swap1\n      jump\t// out\n        /* \"ReputationControlV2.sol\":3648:3826  function getReputation(string memory _company) external view isCompany(_company) returns (uint){... */\n    tag_46:\n        /* \"ReputationControlV2.sol\":3738:3742  uint */\n      0x00\n        /* \"ReputationControlV2.sol\":3719:3727  _company */\n      dup2\n        /* \"ReputationControlV2.sol\":1776:1777  0 */\n      0x00\n        /* \"ReputationControlV2.sol\":1732:1778  infoCompanies[_company]._address != address(0) */\n      0xffffffffffffffffffffffffffffffffffffffff\n      and\n        /* \"ReputationControlV2.sol\":1732:1745  infoCompanies */\n      0x01\n        /* \"ReputationControlV2.sol\":1746:1754  _company */\n      dup3\n        /* \"ReputationControlV2.sol\":1732:1755  infoCompanies[_company] */\n      mload(0x40)\n      tag_195\n      swap2\n      swap1\n      tag_103\n      jump\t// in\n    tag_195:\n      swap1\n      dup2\n      mstore\n      0x20\n      add\n      mload(0x40)\n      dup1\n      swap2\n      sub\n      swap1\n      keccak256\n        /* \"ReputationControlV2.sol\":1732:1764  infoCompanies[_company]._address */\n      0x00\n      add\n      0x00\n      swap1\n      sload\n      swap1\n      0x0100\n      exp\n      swap1\n      div\n      0xffffffffffffffffffffffffffffffffffffffff\n      and\n        /* \"ReputationControlV2.sol\":1732:1778  infoCompanies[_company]._address != address(0) */\n      0xffffffffffffffffffffffffffffffffffffffff\n      and\n      eq\n      iszero\n        /* \"ReputationControlV2.sol\":1724:1826  require(infoCompanies[_company]._address != address(0), \"Not detected as a participant in our system\") */\n      tag_196\n      jumpi\n      mload(0x40)\n      0x08c379a000000000000000000000000000000000000000000000000000000000\n      dup2\n      mstore\n      0x04\n      add\n      tag_197\n      swap1\n      tag_137\n      jump\t// in\n    tag_197:\n      mload(0x40)\n      dup1\n      swap2\n      sub\n      swap1\n      revert\n    tag_196:\n        /* \"ReputationControlV2.sol\":3761:3774  tokenContract */\n      0x00\n      dup1\n      sload\n      swap1\n      0x0100\n      exp\n      swap1\n      div\n      0xffffffffffffffffffffffffffffffffffffffff\n      and\n        /* \"ReputationControlV2.sol\":3761:3784  tokenContract.balanceOf */\n      0xffffffffffffffffffffffffffffffffffffffff\n      and\n      0x70a08231\n        /* \"ReputationControlV2.sol\":3785:3798  infoCompanies */\n      0x01\n        /* \"ReputationControlV2.sol\":3799:3807  _company */\n      dup6\n        /* \"ReputationControlV2.sol\":3785:3808  infoCompanies[_company] */\n      mload(0x40)\n      tag_199\n      swap2\n      swap1\n      tag_103\n      jump\t// in\n    tag_199:\n      swap1\n      dup2\n      mstore\n      0x20\n      add\n      mload(0x40)\n      dup1\n      swap2\n      sub\n      swap1\n      keccak256\n        /* \"ReputationControlV2.sol\":3785:3817  infoCompanies[_company]._address */\n      0x00\n      add\n      0x00\n      swap1\n      sload\n      swap1\n      0x0100\n      exp\n      swap1\n      div\n      0xffffffffffffffffffffffffffffffffffffffff\n      and\n        /* \"ReputationControlV2.sol\":3761:3818  tokenContract.balanceOf(infoCompanies[_company]._address) */\n      mload(0x40)\n      dup3\n      0xffffffff\n      and\n      0xe0\n      shl\n      dup2\n      mstore\n      0x04\n      add\n      tag_200\n      swap2\n      swap1\n      tag_70\n      jump\t// in\n    tag_200:\n      0x20\n      mload(0x40)\n      dup1\n      dup4\n      sub\n      dup2\n      dup7\n      gas\n      staticcall\n      iszero\n      dup1\n      iszero\n      tag_202\n      jumpi\n      returndatasize\n      0x00\n      dup1\n      returndatacopy\n      revert(0x00, returndatasize)\n    tag_202:\n      pop\n      pop\n      pop\n      pop\n      mload(0x40)\n      returndatasize\n      not(0x1f)\n      0x1f\n      dup3\n      add\n      and\n      dup3\n      add\n      dup1\n      0x40\n      mstore\n      pop\n      dup2\n      add\n      swap1\n      tag_203\n      swap2\n      swap1\n      tag_144\n      jump\t// in\n    tag_203:\n        /* \"ReputationControlV2.sol\":3754:3818  return tokenContract.balanceOf(infoCompanies[_company]._address) */\n      swap2\n      pop\n        /* \"ReputationControlV2.sol\":3648:3826  function getReputation(string memory _company) external view isCompany(_company) returns (uint){... */\n      pop\n      swap2\n      swap1\n      pop\n      jump\t// out\n        /* \"ReputationControlV2.sol\":5998:6097  function addAmountDonated(uint amount) external onlyOwner{... */\n    tag_51:\n        /* \"ReputationControlV2.sol\":1621:1626  owner */\n      immutable(\"0xb6477a31e41e27dc2f2cbe4c2bbb37b5a6a34683d5cbca4a1a706df5525a2d30\")\n        /* \"ReputationControlV2.sol\":1607:1626  msg.sender == owner */\n      0xffffffffffffffffffffffffffffffffffffffff\n      and\n        /* \"ReputationControlV2.sol\":1607:1617  msg.sender */\n      caller\n        /* \"ReputationControlV2.sol\":1607:1626  msg.sender == owner */\n      0xffffffffffffffffffffffffffffffffffffffff\n      and\n      eq\n        /* \"ReputationControlV2.sol\":1599:1643  require(msg.sender == owner,\"No allowances\") */\n      tag_205\n      jumpi\n      mload(0x40)\n      0x08c379a000000000000000000000000000000000000000000000000000000000\n      dup2\n      mstore\n      0x04\n      add\n      tag_206\n      swap1\n      tag_95\n      jump\t// in\n    tag_206:\n      mload(0x40)\n      dup1\n      swap2\n      sub\n      swap1\n      revert\n    tag_205:\n        /* \"ReputationControlV2.sol\":6083:6089  amount */\n      dup1\n        /* \"ReputationControlV2.sol\":6066:6079  amountDonated */\n      0x03\n      0x00\n        /* \"ReputationControlV2.sol\":6066:6089  amountDonated += amount */\n      dup3\n      dup3\n      sload\n      tag_208\n      swap2\n      swap1\n      tag_209\n      jump\t// in\n    tag_208:\n      swap3\n      pop\n      pop\n      dup2\n      swap1\n      sstore\n      pop\n        /* \"ReputationControlV2.sol\":5998:6097  function addAmountDonated(uint amount) external onlyOwner{... */\n      pop\n      jump\t// out\n        /* \"ReputationControlV2.sol\":3419:3529  function getTotalComplaints() external view returns(uint){... */\n    tag_53:\n        /* \"ReputationControlV2.sol\":3471:3475  uint */\n      0x00\n        /* \"ReputationControlV2.sol\":3494:3507  tokenContract */\n      dup1\n      0x00\n      swap1\n      sload\n      swap1\n      0x0100\n      exp\n      swap1\n      div\n      0xffffffffffffffffffffffffffffffffffffffff\n      and\n        /* \"ReputationControlV2.sol\":3494:3519  tokenContract.totalSupply */\n      0xffffffffffffffffffffffffffffffffffffffff\n      and\n      0x18160ddd\n        /* \"ReputationControlV2.sol\":3494:3521  tokenContract.totalSupply() */\n      mload(0x40)\n      dup2\n      0xffffffff\n      and\n      0xe0\n      shl\n      dup2\n      mstore\n      0x04\n      add\n      0x20\n      mload(0x40)\n      dup1\n      dup4\n      sub\n      dup2\n      dup7\n      gas\n      staticcall\n      iszero\n      dup1\n      iszero\n      tag_212\n      jumpi\n      returndatasize\n      0x00\n      dup1\n      returndatacopy\n      revert(0x00, returndatasize)\n    tag_212:\n      pop\n      pop\n      pop\n      pop\n      mload(0x40)\n      returndatasize\n      not(0x1f)\n      0x1f\n      dup3\n      add\n      and\n      dup3\n      add\n      dup1\n      0x40\n      mstore\n      pop\n      dup2\n      add\n      swap1\n      tag_213\n      swap2\n      swap1\n      tag_144\n      jump\t// in\n    tag_213:\n        /* \"ReputationControlV2.sol\":3487:3521  return tokenContract.totalSupply() */\n      swap1\n      pop\n        /* \"ReputationControlV2.sol\":3419:3529  function getTotalComplaints() external view returns(uint){... */\n      swap1\n      jump\t// out\n        /* \"ReputationControlV2.sol\":4650:4827  function getCompanyComplaints(string memory _company) external view isCompany(_company) returns (string[] memory){... */\n    tag_57:\n        /* \"ReputationControlV2.sol\":4747:4762  string[] memory */\n      0x60\n        /* \"ReputationControlV2.sol\":4728:4736  _company */\n      dup2\n        /* \"ReputationControlV2.sol\":1776:1777  0 */\n      0x00\n        /* \"ReputationControlV2.sol\":1732:1778  infoCompanies[_company]._address != address(0) */\n      0xffffffffffffffffffffffffffffffffffffffff\n      and\n        /* \"ReputationControlV2.sol\":1732:1745  infoCompanies */\n      0x01\n        /* \"ReputationControlV2.sol\":1746:1754  _company */\n      dup3\n        /* \"ReputationControlV2.sol\":1732:1755  infoCompanies[_company] */\n      mload(0x40)\n      tag_215\n      swap2\n      swap1\n      tag_103\n      jump\t// in\n    tag_215:\n      swap1\n      dup2\n      mstore\n      0x20\n      add\n      mload(0x40)\n      dup1\n      swap2\n      sub\n      swap1\n      keccak256\n        /* \"ReputationControlV2.sol\":1732:1764  infoCompanies[_company]._address */\n      0x00\n      add\n      0x00\n      swap1\n      sload\n      swap1\n      0x0100\n      exp\n      swap1\n      div\n      0xffffffffffffffffffffffffffffffffffffffff\n      and\n        /* \"ReputationControlV2.sol\":1732:1778  infoCompanies[_company]._address != address(0) */\n      0xffffffffffffffffffffffffffffffffffffffff\n      and\n      eq\n      iszero\n        /* \"ReputationControlV2.sol\":1724:1826  require(infoCompanies[_company]._address != address(0), \"Not detected as a participant in our system\") */\n      tag_216\n      jumpi\n      mload(0x40)\n      0x08c379a000000000000000000000000000000000000000000000000000000000\n      dup2\n      mstore\n      0x04\n      add\n      tag_217\n      swap1\n      tag_137\n      jump\t// in\n    tag_217:\n      mload(0x40)\n      dup1\n      swap2\n      sub\n      swap1\n      revert\n    tag_216:\n        /* \"ReputationControlV2.sol\":4781:4794  infoCompanies */\n      0x01\n        /* \"ReputationControlV2.sol\":4795:4803  _company */\n      dup4\n        /* \"ReputationControlV2.sol\":4781:4804  infoCompanies[_company] */\n      mload(0x40)\n      tag_219\n      swap2\n      swap1\n      tag_103\n      jump\t// in\n    tag_219:\n      swap1\n      dup2\n      mstore\n      0x20\n      add\n      mload(0x40)\n      dup1\n      swap2\n      sub\n      swap1\n      keccak256\n        /* \"ReputationControlV2.sol\":4781:4819  infoCompanies[_company].hashComplaints */\n      0x03\n      add\n        /* \"ReputationControlV2.sol\":4774:4819  return infoCompanies[_company].hashComplaints */\n      dup1\n      sload\n      dup1\n      0x20\n      mul\n      0x20\n      add\n      mload(0x40)\n      swap1\n      dup2\n      add\n      0x40\n      mstore\n      dup1\n      swap3\n      swap2\n      swap1\n      dup2\n      dup2\n      mstore\n      0x20\n      add\n      0x00\n      swap1\n    tag_220:\n      dup3\n      dup3\n      lt\n      iszero\n      tag_221\n      jumpi\n      dup4\n      dup3\n      swap1\n      0x00\n      mstore\n      keccak256(0x00, 0x20)\n      add\n      dup1\n      sload\n      tag_223\n      swap1\n      tag_125\n      jump\t// in\n    tag_223:\n      dup1\n      0x1f\n      add\n      0x20\n      dup1\n      swap2\n      div\n      mul\n      0x20\n      add\n      mload(0x40)\n      swap1\n      dup2\n      add\n      0x40\n      mstore\n      dup1\n      swap3\n      swap2\n      swap1\n      dup2\n      dup2\n      mstore\n      0x20\n      add\n      dup3\n      dup1\n      sload\n      tag_224\n      swap1\n      tag_125\n      jump\t// in\n    tag_224:\n      dup1\n      iszero\n      tag_225\n      jumpi\n      dup1\n      0x1f\n      lt\n      tag_226\n      jumpi\n      0x0100\n      dup1\n      dup4\n      sload\n      div\n      mul\n      dup4\n      mstore\n      swap2\n      0x20\n      add\n      swap2\n      jump(tag_225)\n    tag_226:\n      dup3\n      add\n      swap2\n      swap1\n      0x00\n      mstore\n      keccak256(0x00, 0x20)\n      swap1\n    tag_227:\n      dup2\n      sload\n      dup2\n      mstore\n      swap1\n      0x01\n      add\n      swap1\n      0x20\n      add\n      dup1\n      dup4\n      gt\n      tag_227\n      jumpi\n      dup3\n      swap1\n      sub\n      0x1f\n      and\n      dup3\n      add\n      swap2\n    tag_225:\n      pop\n      pop\n      pop\n      pop\n      pop\n      dup2\n      mstore\n      0x20\n      add\n      swap1\n      0x01\n      add\n      swap1\n      jump(tag_220)\n    tag_221:\n      pop\n      pop\n      pop\n      pop\n      swap2\n      pop\n        /* \"ReputationControlV2.sol\":4650:4827  function getCompanyComplaints(string memory _company) external view isCompany(_company) returns (string[] memory){... */\n      pop\n      swap2\n      swap1\n      pop\n      jump\t// out\n        /* \"ReputationControlV2.sol\":5180:5990  function retireComplaint(string memory _company, string memory _hash) external isCompany(_company) onlyOwner{... */\n    tag_62:\n        /* \"ReputationControlV2.sol\":5269:5277  _company */\n      dup2\n        /* \"ReputationControlV2.sol\":1776:1777  0 */\n      0x00\n        /* \"ReputationControlV2.sol\":1732:1778  infoCompanies[_company]._address != address(0) */\n      0xffffffffffffffffffffffffffffffffffffffff\n      and\n        /* \"ReputationControlV2.sol\":1732:1745  infoCompanies */\n      0x01\n        /* \"ReputationControlV2.sol\":1746:1754  _company */\n      dup3\n        /* \"ReputationControlV2.sol\":1732:1755  infoCompanies[_company] */\n      mload(0x40)\n      tag_229\n      swap2\n      swap1\n      tag_103\n      jump\t// in\n    tag_229:\n      swap1\n      dup2\n      mstore\n      0x20\n      add\n      mload(0x40)\n      dup1\n      swap2\n      sub\n      swap1\n      keccak256\n        /* \"ReputationControlV2.sol\":1732:1764  infoCompanies[_company]._address */\n      0x00\n      add\n      0x00\n      swap1\n      sload\n      swap1\n      0x0100\n      exp\n      swap1\n      div\n      0xffffffffffffffffffffffffffffffffffffffff\n      and\n        /* \"ReputationControlV2.sol\":1732:1778  infoCompanies[_company]._address != address(0) */\n      0xffffffffffffffffffffffffffffffffffffffff\n      and\n      eq\n      iszero\n        /* \"ReputationControlV2.sol\":1724:1826  require(infoCompanies[_company]._address != address(0), \"Not detected as a participant in our system\") */\n      tag_230\n      jumpi\n      mload(0x40)\n      0x08c379a000000000000000000000000000000000000000000000000000000000\n      dup2\n      mstore\n      0x04\n      add\n      tag_231\n      swap1\n      tag_137\n      jump\t// in\n    tag_231:\n      mload(0x40)\n      dup1\n      swap2\n      sub\n      swap1\n      revert\n    tag_230:\n        /* \"ReputationControlV2.sol\":1621:1626  owner */\n      immutable(\"0xb6477a31e41e27dc2f2cbe4c2bbb37b5a6a34683d5cbca4a1a706df5525a2d30\")\n        /* \"ReputationControlV2.sol\":1607:1626  msg.sender == owner */\n      0xffffffffffffffffffffffffffffffffffffffff\n      and\n        /* \"ReputationControlV2.sol\":1607:1617  msg.sender */\n      caller\n        /* \"ReputationControlV2.sol\":1607:1626  msg.sender == owner */\n      0xffffffffffffffffffffffffffffffffffffffff\n      and\n      eq\n        /* \"ReputationControlV2.sol\":1599:1643  require(msg.sender == owner,\"No allowances\") */\n      tag_233\n      jumpi\n      mload(0x40)\n      0x08c379a000000000000000000000000000000000000000000000000000000000\n      dup2\n      mstore\n      0x04\n      add\n      tag_234\n      swap1\n      tag_95\n      jump\t// in\n    tag_234:\n      mload(0x40)\n      dup1\n      swap2\n      sub\n      swap1\n      revert\n    tag_233:\n        /* \"ReputationControlV2.sol\":5299:5309  uint index */\n      0x00\n        /* \"ReputationControlV2.sol\":5312:5325  infoCompanies */\n      0x01\n        /* \"ReputationControlV2.sol\":5326:5334  _company */\n      dup5\n        /* \"ReputationControlV2.sol\":5312:5335  infoCompanies[_company] */\n      mload(0x40)\n      tag_236\n      swap2\n      swap1\n      tag_103\n      jump\t// in\n    tag_236:\n      swap1\n      dup2\n      mstore\n      0x20\n      add\n      mload(0x40)\n      dup1\n      swap2\n      sub\n      swap1\n      keccak256\n        /* \"ReputationControlV2.sol\":5312:5344  infoCompanies[_company].posArray */\n      0x02\n      add\n        /* \"ReputationControlV2.sol\":5345:5350  _hash */\n      dup4\n        /* \"ReputationControlV2.sol\":5312:5351  infoCompanies[_company].posArray[_hash] */\n      mload(0x40)\n      tag_237\n      swap2\n      swap1\n      tag_103\n      jump\t// in\n    tag_237:\n      swap1\n      dup2\n      mstore\n      0x20\n      add\n      mload(0x40)\n      dup1\n      swap2\n      sub\n      swap1\n      keccak256\n      sload\n        /* \"ReputationControlV2.sol\":5299:5351  uint index = infoCompanies[_company].posArray[_hash] */\n      swap1\n      pop\n        /* \"ReputationControlV2.sol\":5376:5377  0 */\n      0x00\n        /* \"ReputationControlV2.sol\":5370:5375  index */\n      dup2\n        /* \"ReputationControlV2.sol\":5370:5377  index>0 */\n      gt\n        /* \"ReputationControlV2.sol\":5362:5413  require(index>0, \"This complaint isn't registered\") */\n      tag_238\n      jumpi\n      mload(0x40)\n      0x08c379a000000000000000000000000000000000000000000000000000000000\n      dup2\n      mstore\n      0x04\n      add\n      tag_239\n      swap1\n      tag_240\n      jump\t// in\n    tag_239:\n      mload(0x40)\n      dup1\n      swap2\n      sub\n      swap1\n      revert\n    tag_238:\n        /* \"ReputationControlV2.sol\":5492:5501  uint last */\n      0x00\n        /* \"ReputationControlV2.sol\":5552:5553  1 */\n      0x01\n        /* \"ReputationControlV2.sol\":5504:5517  infoCompanies */\n      dup1\n        /* \"ReputationControlV2.sol\":5518:5526  _company */\n      dup7\n        /* \"ReputationControlV2.sol\":5504:5527  infoCompanies[_company] */\n      mload(0x40)\n      tag_241\n      swap2\n      swap1\n      tag_103\n      jump\t// in\n    tag_241:\n      swap1\n      dup2\n      mstore\n      0x20\n      add\n      mload(0x40)\n      dup1\n      swap2\n      sub\n      swap1\n      keccak256\n        /* \"ReputationControlV2.sol\":5504:5542  infoCompanies[_company].hashComplaints */\n      0x03\n      add\n        /* \"ReputationControlV2.sol\":5504:5549  infoCompanies[_company].hashComplaints.length */\n      dup1\n      sload\n      swap1\n      pop\n        /* \"ReputationControlV2.sol\":5504:5553  infoCompanies[_company].hashComplaints.length - 1 */\n      tag_242\n      swap2\n      swap1\n      tag_152\n      jump\t// in\n    tag_242:\n        /* \"ReputationControlV2.sol\":5492:5553  uint last = infoCompanies[_company].hashComplaints.length - 1 */\n      swap1\n      pop\n        /* \"ReputationControlV2.sol\":5564:5586  string memory lastHash */\n      0x00\n        /* \"ReputationControlV2.sol\":5589:5602  infoCompanies */\n      0x01\n        /* \"ReputationControlV2.sol\":5603:5611  _company */\n      dup7\n        /* \"ReputationControlV2.sol\":5589:5612  infoCompanies[_company] */\n      mload(0x40)\n      tag_243\n      swap2\n      swap1\n      tag_103\n      jump\t// in\n    tag_243:\n      swap1\n      dup2\n      mstore\n      0x20\n      add\n      mload(0x40)\n      dup1\n      swap2\n      sub\n      swap1\n      keccak256\n        /* \"ReputationControlV2.sol\":5589:5627  infoCompanies[_company].hashComplaints */\n      0x03\n      add\n        /* \"ReputationControlV2.sol\":5628:5632  last */\n      dup3\n        /* \"ReputationControlV2.sol\":5589:5633  infoCompanies[_company].hashComplaints[last] */\n      dup2\n      sload\n      dup2\n      lt\n      tag_244\n      jumpi\n      tag_245\n      tag_84\n      jump\t// in\n    tag_245:\n    tag_244:\n      swap1\n      0x00\n      mstore\n      keccak256(0x00, 0x20)\n      add\n        /* \"ReputationControlV2.sol\":5564:5633  string memory lastHash = infoCompanies[_company].hashComplaints[last] */\n      dup1\n      sload\n      tag_247\n      swap1\n      tag_125\n      jump\t// in\n    tag_247:\n      dup1\n      0x1f\n      add\n      0x20\n      dup1\n      swap2\n      div\n      mul\n      0x20\n      add\n      mload(0x40)\n      swap1\n      dup2\n      add\n      0x40\n      mstore\n      dup1\n      swap3\n      swap2\n      swap1\n      dup2\n      dup2\n      mstore\n      0x20\n      add\n      dup3\n      dup1\n      sload\n      tag_248\n      swap1\n      tag_125\n      jump\t// in\n    tag_248:\n      dup1\n      iszero\n      tag_249\n      jumpi\n      dup1\n      0x1f\n      lt\n      tag_250\n      jumpi\n      0x0100\n      dup1\n      dup4\n      sload\n      div\n      mul\n      dup4\n      mstore\n      swap2\n      0x20\n      add\n      swap2\n      jump(tag_249)\n    tag_250:\n      dup3\n      add\n      swap2\n      swap1\n      0x00\n      mstore\n      keccak256(0x00, 0x20)\n      swap1\n    tag_251:\n      dup2\n      sload\n      dup2\n      mstore\n      swap1\n      0x01\n      add\n      swap1\n      0x20\n      add\n      dup1\n      dup4\n      gt\n      tag_251\n      jumpi\n      dup3\n      swap1\n      sub\n      0x1f\n      and\n      dup3\n      add\n      swap2\n    tag_249:\n      pop\n      pop\n      pop\n      pop\n      pop\n      swap1\n      pop\n        /* \"ReputationControlV2.sol\":5689:5694  index */\n      dup3\n        /* \"ReputationControlV2.sol\":5644:5657  infoCompanies */\n      0x01\n        /* \"ReputationControlV2.sol\":5658:5666  _company */\n      dup8\n        /* \"ReputationControlV2.sol\":5644:5667  infoCompanies[_company] */\n      mload(0x40)\n      tag_252\n      swap2\n      swap1\n      tag_103\n      jump\t// in\n    tag_252:\n      swap1\n      dup2\n      mstore\n      0x20\n      add\n      mload(0x40)\n      dup1\n      swap2\n      sub\n      swap1\n      keccak256\n        /* \"ReputationControlV2.sol\":5644:5676  infoCompanies[_company].posArray */\n      0x02\n      add\n        /* \"ReputationControlV2.sol\":5677:5685  lastHash */\n      dup3\n        /* \"ReputationControlV2.sol\":5644:5686  infoCompanies[_company].posArray[lastHash] */\n      mload(0x40)\n      tag_253\n      swap2\n      swap1\n      tag_103\n      jump\t// in\n    tag_253:\n      swap1\n      dup2\n      mstore\n      0x20\n      add\n      mload(0x40)\n      dup1\n      swap2\n      sub\n      swap1\n      keccak256\n        /* \"ReputationControlV2.sol\":5644:5694  infoCompanies[_company].posArray[lastHash] = index */\n      dup2\n      swap1\n      sstore\n      pop\n        /* \"ReputationControlV2.sol\":5747:5748  0 */\n      0x00\n        /* \"ReputationControlV2.sol\":5705:5718  infoCompanies */\n      0x01\n        /* \"ReputationControlV2.sol\":5719:5727  _company */\n      dup8\n        /* \"ReputationControlV2.sol\":5705:5728  infoCompanies[_company] */\n      mload(0x40)\n      tag_254\n      swap2\n      swap1\n      tag_103\n      jump\t// in\n    tag_254:\n      swap1\n      dup2\n      mstore\n      0x20\n      add\n      mload(0x40)\n      dup1\n      swap2\n      sub\n      swap1\n      keccak256\n        /* \"ReputationControlV2.sol\":5705:5737  infoCompanies[_company].posArray */\n      0x02\n      add\n        /* \"ReputationControlV2.sol\":5738:5743  _hash */\n      dup7\n        /* \"ReputationControlV2.sol\":5705:5744  infoCompanies[_company].posArray[_hash] */\n      mload(0x40)\n      tag_255\n      swap2\n      swap1\n      tag_103\n      jump\t// in\n    tag_255:\n      swap1\n      dup2\n      mstore\n      0x20\n      add\n      mload(0x40)\n      dup1\n      swap2\n      sub\n      swap1\n      keccak256\n        /* \"ReputationControlV2.sol\":5705:5748  infoCompanies[_company].posArray[_hash] = 0 */\n      dup2\n      swap1\n      sstore\n      pop\n        /* \"ReputationControlV2.sol\":5811:5819  lastHash */\n      dup1\n        /* \"ReputationControlV2.sol\":5759:5772  infoCompanies */\n      0x01\n        /* \"ReputationControlV2.sol\":5773:5781  _company */\n      dup8\n        /* \"ReputationControlV2.sol\":5759:5782  infoCompanies[_company] */\n      mload(0x40)\n      tag_256\n      swap2\n      swap1\n      tag_103\n      jump\t// in\n    tag_256:\n      swap1\n      dup2\n      mstore\n      0x20\n      add\n      mload(0x40)\n      dup1\n      swap2\n      sub\n      swap1\n      keccak256\n        /* \"ReputationControlV2.sol\":5759:5797  infoCompanies[_company].hashComplaints */\n      0x03\n      add\n        /* \"ReputationControlV2.sol\":5806:5807  1 */\n      0x01\n        /* \"ReputationControlV2.sol\":5798:5803  index */\n      dup6\n        /* \"ReputationControlV2.sol\":5798:5807  index - 1 */\n      tag_257\n      swap2\n      swap1\n      tag_152\n      jump\t// in\n    tag_257:\n        /* \"ReputationControlV2.sol\":5759:5808  infoCompanies[_company].hashComplaints[index - 1] */\n      dup2\n      sload\n      dup2\n      lt\n      tag_258\n      jumpi\n      tag_259\n      tag_84\n      jump\t// in\n    tag_259:\n    tag_258:\n      swap1\n      0x00\n      mstore\n      keccak256(0x00, 0x20)\n      add\n        /* \"ReputationControlV2.sol\":5759:5819  infoCompanies[_company].hashComplaints[index - 1] = lastHash */\n      swap1\n      dup1\n      mload\n      swap1\n      0x20\n      add\n      swap1\n      tag_261\n      swap3\n      swap2\n      swap1\n      tag_118\n      jump\t// in\n    tag_261:\n      pop\n        /* \"ReputationControlV2.sol\":5830:5843  infoCompanies */\n      0x01\n        /* \"ReputationControlV2.sol\":5844:5852  _company */\n      dup7\n        /* \"ReputationControlV2.sol\":5830:5853  infoCompanies[_company] */\n      mload(0x40)\n      tag_262\n      swap2\n      swap1\n      tag_103\n      jump\t// in\n    tag_262:\n      swap1\n      dup2\n      mstore\n      0x20\n      add\n      mload(0x40)\n      dup1\n      swap2\n      sub\n      swap1\n      keccak256\n        /* \"ReputationControlV2.sol\":5830:5868  infoCompanies[_company].hashComplaints */\n      0x03\n      add\n        /* \"ReputationControlV2.sol\":5830:5874  infoCompanies[_company].hashComplaints.pop() */\n      dup1\n      sload\n      dup1\n      tag_263\n      jumpi\n      tag_264\n      tag_168\n      jump\t// in\n    tag_264:\n    tag_263:\n      0x01\n      swap1\n      sub\n      dup2\n      dup2\n      swap1\n      0x00\n      mstore\n      keccak256(0x00, 0x20)\n      add\n      0x00\n      tag_266\n      swap2\n      swap1\n      tag_171\n      jump\t// in\n    tag_266:\n      swap1\n      sstore\n        /* \"ReputationControlV2.sol\":5928:5941  tokenContract */\n      0x00\n      dup1\n      sload\n      swap1\n      0x0100\n      exp\n      swap1\n      div\n      0xffffffffffffffffffffffffffffffffffffffff\n      and\n        /* \"ReputationControlV2.sol\":5928:5946  tokenContract.burn */\n      0xffffffffffffffffffffffffffffffffffffffff\n      and\n      0x9dc29fac\n        /* \"ReputationControlV2.sol\":5947:5960  infoCompanies */\n      0x01\n        /* \"ReputationControlV2.sol\":5961:5969  _company */\n      dup9\n        /* \"ReputationControlV2.sol\":5947:5970  infoCompanies[_company] */\n      mload(0x40)\n      tag_267\n      swap2\n      swap1\n      tag_103\n      jump\t// in\n    tag_267:\n      swap1\n      dup2\n      mstore\n      0x20\n      add\n      mload(0x40)\n      dup1\n      swap2\n      sub\n      swap1\n      keccak256\n        /* \"ReputationControlV2.sol\":5947:5979  infoCompanies[_company]._address */\n      0x00\n      add\n      0x00\n      swap1\n      sload\n      swap1\n      0x0100\n      exp\n      swap1\n      div\n      0xffffffffffffffffffffffffffffffffffffffff\n      and\n        /* \"ReputationControlV2.sol\":5980:5981  1 */\n      0x01\n        /* \"ReputationControlV2.sol\":5928:5982  tokenContract.burn(infoCompanies[_company]._address,1) */\n      mload(0x40)\n      dup4\n      0xffffffff\n      and\n      0xe0\n      shl\n      dup2\n      mstore\n      0x04\n      add\n      tag_268\n      swap3\n      swap2\n      swap1\n      tag_269\n      jump\t// in\n    tag_268:\n      0x00\n      mload(0x40)\n      dup1\n      dup4\n      sub\n      dup2\n      0x00\n      dup8\n      dup1\n      extcodesize\n      iszero\n      dup1\n      iszero\n      tag_270\n      jumpi\n      0x00\n      dup1\n      revert\n    tag_270:\n      pop\n      gas\n      call\n      iszero\n      dup1\n      iszero\n      tag_272\n      jumpi\n      returndatasize\n      0x00\n      dup1\n      returndatacopy\n      revert(0x00, returndatasize)\n    tag_272:\n      pop\n      pop\n      pop\n      pop\n        /* \"ReputationControlV2.sol\":5288:5990  {... */\n      pop\n      pop\n      pop\n        /* \"ReputationControlV2.sol\":5180:5990  function retireComplaint(string memory _company, string memory _hash) external isCompany(_company) onlyOwner{... */\n      pop\n      pop\n      pop\n      jump\t// out\n        /* \"ReputationControlV2.sol\":4835:5172  function newComplaint(string memory _company, string memory _hash) external isCompany(_company) onlyOwner{... */\n    tag_65:\n        /* \"ReputationControlV2.sol\":4921:4929  _company */\n      dup2\n        /* \"ReputationControlV2.sol\":1776:1777  0 */\n      0x00\n        /* \"ReputationControlV2.sol\":1732:1778  infoCompanies[_company]._address != address(0) */\n      0xffffffffffffffffffffffffffffffffffffffff\n      and\n        /* \"ReputationControlV2.sol\":1732:1745  infoCompanies */\n      0x01\n        /* \"ReputationControlV2.sol\":1746:1754  _company */\n      dup3\n        /* \"ReputationControlV2.sol\":1732:1755  infoCompanies[_company] */\n      mload(0x40)\n      tag_274\n      swap2\n      swap1\n      tag_103\n      jump\t// in\n    tag_274:\n      swap1\n      dup2\n      mstore\n      0x20\n      add\n      mload(0x40)\n      dup1\n      swap2\n      sub\n      swap1\n      keccak256\n        /* \"ReputationControlV2.sol\":1732:1764  infoCompanies[_company]._address */\n      0x00\n      add\n      0x00\n      swap1\n      sload\n      swap1\n      0x0100\n      exp\n      swap1\n      div\n      0xffffffffffffffffffffffffffffffffffffffff\n      and\n        /* \"ReputationControlV2.sol\":1732:1778  infoCompanies[_company]._address != address(0) */\n      0xffffffffffffffffffffffffffffffffffffffff\n      and\n      eq\n      iszero\n        /* \"ReputationControlV2.sol\":1724:1826  require(infoCompanies[_company]._address != address(0), \"Not detected as a participant in our system\") */\n      tag_275\n      jumpi\n      mload(0x40)\n      0x08c379a000000000000000000000000000000000000000000000000000000000\n      dup2\n      mstore\n      0x04\n      add\n      tag_276\n      swap1\n      tag_137\n      jump\t// in\n    tag_276:\n      mload(0x40)\n      dup1\n      swap2\n      sub\n      swap1\n      revert\n    tag_275:\n        /* \"ReputationControlV2.sol\":1621:1626  owner */\n      immutable(\"0xb6477a31e41e27dc2f2cbe4c2bbb37b5a6a34683d5cbca4a1a706df5525a2d30\")\n        /* \"ReputationControlV2.sol\":1607:1626  msg.sender == owner */\n      0xffffffffffffffffffffffffffffffffffffffff\n      and\n        /* \"ReputationControlV2.sol\":1607:1617  msg.sender */\n      caller\n        /* \"ReputationControlV2.sol\":1607:1626  msg.sender == owner */\n      0xffffffffffffffffffffffffffffffffffffffff\n      and\n      eq\n        /* \"ReputationControlV2.sol\":1599:1643  require(msg.sender == owner,\"No allowances\") */\n      tag_278\n      jumpi\n      mload(0x40)\n      0x08c379a000000000000000000000000000000000000000000000000000000000\n      dup2\n      mstore\n      0x04\n      add\n      tag_279\n      swap1\n      tag_95\n      jump\t// in\n    tag_279:\n      mload(0x40)\n      dup1\n      swap2\n      sub\n      swap1\n      revert\n    tag_278:\n        /* \"ReputationControlV2.sol\":4951:4964  infoCompanies */\n      0x01\n        /* \"ReputationControlV2.sol\":4965:4973  _company */\n      dup4\n        /* \"ReputationControlV2.sol\":4951:4974  infoCompanies[_company] */\n      mload(0x40)\n      tag_281\n      swap2\n      swap1\n      tag_103\n      jump\t// in\n    tag_281:\n      swap1\n      dup2\n      mstore\n      0x20\n      add\n      mload(0x40)\n      dup1\n      swap2\n      sub\n      swap1\n      keccak256\n        /* \"ReputationControlV2.sol\":4951:4989  infoCompanies[_company].hashComplaints */\n      0x03\n      add\n        /* \"ReputationControlV2.sol\":4995:5000  _hash */\n      dup3\n        /* \"ReputationControlV2.sol\":4951:5001  infoCompanies[_company].hashComplaints.push(_hash) */\n      swap1\n      dup1\n      0x01\n      dup2\n      sload\n      add\n      dup1\n      dup3\n      sstore\n      dup1\n      swap2\n      pop\n      pop\n      0x01\n      swap1\n      sub\n      swap1\n      0x00\n      mstore\n      keccak256(0x00, 0x20)\n      add\n      0x00\n      swap1\n      swap2\n      swap1\n      swap2\n      swap1\n      swap2\n      pop\n      swap1\n      dup1\n      mload\n      swap1\n      0x20\n      add\n      swap1\n      tag_283\n      swap3\n      swap2\n      swap1\n      tag_118\n      jump\t// in\n    tag_283:\n      pop\n        /* \"ReputationControlV2.sol\":5054:5067  infoCompanies */\n      0x01\n        /* \"ReputationControlV2.sol\":5068:5076  _company */\n      dup4\n        /* \"ReputationControlV2.sol\":5054:5077  infoCompanies[_company] */\n      mload(0x40)\n      tag_284\n      swap2\n      swap1\n      tag_103\n      jump\t// in\n    tag_284:\n      swap1\n      dup2\n      mstore\n      0x20\n      add\n      mload(0x40)\n      dup1\n      swap2\n      sub\n      swap1\n      keccak256\n        /* \"ReputationControlV2.sol\":5054:5092  infoCompanies[_company].hashComplaints */\n      0x03\n      add\n        /* \"ReputationControlV2.sol\":5054:5099  infoCompanies[_company].hashComplaints.length */\n      dup1\n      sload\n      swap1\n      pop\n        /* \"ReputationControlV2.sol\":5012:5025  infoCompanies */\n      0x01\n        /* \"ReputationControlV2.sol\":5026:5034  _company */\n      dup5\n        /* \"ReputationControlV2.sol\":5012:5035  infoCompanies[_company] */\n      mload(0x40)\n      tag_285\n      swap2\n      swap1\n      tag_103\n      jump\t// in\n    tag_285:\n      swap1\n      dup2\n      mstore\n      0x20\n      add\n      mload(0x40)\n      dup1\n      swap2\n      sub\n      swap1\n      keccak256\n        /* \"ReputationControlV2.sol\":5012:5044  infoCompanies[_company].posArray */\n      0x02\n      add\n        /* \"ReputationControlV2.sol\":5045:5050  _hash */\n      dup4\n        /* \"ReputationControlV2.sol\":5012:5051  infoCompanies[_company].posArray[_hash] */\n      mload(0x40)\n      tag_286\n      swap2\n      swap1\n      tag_103\n      jump\t// in\n    tag_286:\n      swap1\n      dup2\n      mstore\n      0x20\n      add\n      mload(0x40)\n      dup1\n      swap2\n      sub\n      swap1\n      keccak256\n        /* \"ReputationControlV2.sol\":5012:5099  infoCompanies[_company].posArray[_hash] = infoCompanies[_company].hashComplaints.length */\n      dup2\n      swap1\n      sstore\n      pop\n        /* \"ReputationControlV2.sol\":5110:5123  tokenContract */\n      0x00\n      dup1\n      sload\n      swap1\n      0x0100\n      exp\n      swap1\n      div\n      0xffffffffffffffffffffffffffffffffffffffff\n      and\n        /* \"ReputationControlV2.sol\":5110:5128  tokenContract.mint */\n      0xffffffffffffffffffffffffffffffffffffffff\n      and\n      0x40c10f19\n        /* \"ReputationControlV2.sol\":5129:5142  infoCompanies */\n      0x01\n        /* \"ReputationControlV2.sol\":5143:5151  _company */\n      dup6\n        /* \"ReputationControlV2.sol\":5129:5152  infoCompanies[_company] */\n      mload(0x40)\n      tag_287\n      swap2\n      swap1\n      tag_103\n      jump\t// in\n    tag_287:\n      swap1\n      dup2\n      mstore\n      0x20\n      add\n      mload(0x40)\n      dup1\n      swap2\n      sub\n      swap1\n      keccak256\n        /* \"ReputationControlV2.sol\":5129:5161  infoCompanies[_company]._address */\n      0x00\n      add\n      0x00\n      swap1\n      sload\n      swap1\n      0x0100\n      exp\n      swap1\n      div\n      0xffffffffffffffffffffffffffffffffffffffff\n      and\n        /* \"ReputationControlV2.sol\":5162:5163  1 */\n      0x01\n        /* \"ReputationControlV2.sol\":5110:5164  tokenContract.mint(infoCompanies[_company]._address,1) */\n      mload(0x40)\n      dup4\n      0xffffffff\n      and\n      0xe0\n      shl\n      dup2\n      mstore\n      0x04\n      add\n      tag_288\n      swap3\n      swap2\n      swap1\n      tag_269\n      jump\t// in\n    tag_288:\n      0x00\n      mload(0x40)\n      dup1\n      dup4\n      sub\n      dup2\n      0x00\n      dup8\n      dup1\n      extcodesize\n      iszero\n      dup1\n      iszero\n      tag_289\n      jumpi\n      0x00\n      dup1\n      revert\n    tag_289:\n      pop\n      gas\n      call\n      iszero\n      dup1\n      iszero\n      tag_291\n      jumpi\n      returndatasize\n      0x00\n      dup1\n      returndatacopy\n      revert(0x00, returndatasize)\n    tag_291:\n      pop\n      pop\n      pop\n      pop\n        /* \"ReputationControlV2.sol\":4835:5172  function newComplaint(string memory _company, string memory _hash) external isCompany(_company) onlyOwner{... */\n      pop\n      pop\n      pop\n      jump\t// out\n        /* \"ReputationControlV2.sol\":4161:4320  function getCompanyAddress(string memory _company) external view isCompany(_company) returns(address){... */\n    tag_68:\n        /* \"ReputationControlV2.sol\":4254:4261  address */\n      0x00\n        /* \"ReputationControlV2.sol\":4236:4244  _company */\n      dup2\n        /* \"ReputationControlV2.sol\":1776:1777  0 */\n      0x00\n        /* \"ReputationControlV2.sol\":1732:1778  infoCompanies[_company]._address != address(0) */\n      0xffffffffffffffffffffffffffffffffffffffff\n      and\n        /* \"ReputationControlV2.sol\":1732:1745  infoCompanies */\n      0x01\n        /* \"ReputationControlV2.sol\":1746:1754  _company */\n      dup3\n        /* \"ReputationControlV2.sol\":1732:1755  infoCompanies[_company] */\n      mload(0x40)\n      tag_293\n      swap2\n      swap1\n      tag_103\n      jump\t// in\n    tag_293:\n      swap1\n      dup2\n      mstore\n      0x20\n      add\n      mload(0x40)\n      dup1\n      swap2\n      sub\n      swap1\n      keccak256\n        /* \"ReputationControlV2.sol\":1732:1764  infoCompanies[_company]._address */\n      0x00\n      add\n      0x00\n      swap1\n      sload\n      swap1\n      0x0100\n      exp\n      swap1\n      div\n      0xffffffffffffffffffffffffffffffffffffffff\n      and\n        /* \"ReputationControlV2.sol\":1732:1778  infoCompanies[_company]._address != address(0) */\n      0xffffffffffffffffffffffffffffffffffffffff\n      and\n      eq\n      iszero\n        /* \"ReputationControlV2.sol\":1724:1826  require(infoCompanies[_company]._address != address(0), \"Not detected as a participant in our system\") */\n      tag_294\n      jumpi\n      mload(0x40)\n      0x08c379a000000000000000000000000000000000000000000000000000000000\n      dup2\n      mstore\n      0x04\n      add\n      tag_295\n      swap1\n      tag_137\n      jump\t// in\n    tag_295:\n      mload(0x40)\n      dup1\n      swap2\n      sub\n      swap1\n      revert\n    tag_294:\n        /* \"ReputationControlV2.sol\":4280:4293  infoCompanies */\n      0x01\n        /* \"ReputationControlV2.sol\":4294:4302  _company */\n      dup4\n        /* \"ReputationControlV2.sol\":4280:4303  infoCompanies[_company] */\n      mload(0x40)\n      tag_297\n      swap2\n      swap1\n      tag_103\n      jump\t// in\n    tag_297:\n      swap1\n      dup2\n      mstore\n      0x20\n      add\n      mload(0x40)\n      dup1\n      swap2\n      sub\n      swap1\n      keccak256\n        /* \"ReputationControlV2.sol\":4280:4312  infoCompanies[_company]._address */\n      0x00\n      add\n      0x00\n      swap1\n      sload\n      swap1\n      0x0100\n      exp\n      swap1\n      div\n      0xffffffffffffffffffffffffffffffffffffffff\n      and\n        /* \"ReputationControlV2.sol\":4273:4312  return infoCompanies[_company]._address */\n      swap2\n      pop\n        /* \"ReputationControlV2.sol\":4161:4320  function getCompanyAddress(string memory _company) external view isCompany(_company) returns(address){... */\n      pop\n      swap2\n      swap1\n      pop\n      jump\t// out\n        /* \"ReputationControlV2.sol\":2507:2899  function newCompany(string memory _company) external onlyOwner{... */\n    tag_73:\n        /* \"ReputationControlV2.sol\":1621:1626  owner */\n      immutable(\"0xb6477a31e41e27dc2f2cbe4c2bbb37b5a6a34683d5cbca4a1a706df5525a2d30\")\n        /* \"ReputationControlV2.sol\":1607:1626  msg.sender == owner */\n      0xffffffffffffffffffffffffffffffffffffffff\n      and\n        /* \"ReputationControlV2.sol\":1607:1617  msg.sender */\n      caller\n        /* \"ReputationControlV2.sol\":1607:1626  msg.sender == owner */\n      0xffffffffffffffffffffffffffffffffffffffff\n      and\n      eq\n        /* \"ReputationControlV2.sol\":1599:1643  require(msg.sender == owner,\"No allowances\") */\n      tag_299\n      jumpi\n      mload(0x40)\n      0x08c379a000000000000000000000000000000000000000000000000000000000\n      dup2\n      mstore\n      0x04\n      add\n      tag_300\n      swap1\n      tag_95\n      jump\t// in\n    tag_300:\n      mload(0x40)\n      dup1\n      swap2\n      sub\n      swap1\n      revert\n    tag_299:\n        /* \"ReputationControlV2.sol\":2632:2633  0 */\n      0x00\n        /* \"ReputationControlV2.sol\":2588:2634  infoCompanies[_company]._address == address(0) */\n      0xffffffffffffffffffffffffffffffffffffffff\n      and\n        /* \"ReputationControlV2.sol\":2588:2601  infoCompanies */\n      0x01\n        /* \"ReputationControlV2.sol\":2602:2610  _company */\n      dup3\n        /* \"ReputationControlV2.sol\":2588:2611  infoCompanies[_company] */\n      mload(0x40)\n      tag_302\n      swap2\n      swap1\n      tag_103\n      jump\t// in\n    tag_302:\n      swap1\n      dup2\n      mstore\n      0x20\n      add\n      mload(0x40)\n      dup1\n      swap2\n      sub\n      swap1\n      keccak256\n        /* \"ReputationControlV2.sol\":2588:2620  infoCompanies[_company]._address */\n      0x00\n      add\n      0x00\n      swap1\n      sload\n      swap1\n      0x0100\n      exp\n      swap1\n      div\n      0xffffffffffffffffffffffffffffffffffffffff\n      and\n        /* \"ReputationControlV2.sol\":2588:2634  infoCompanies[_company]._address == address(0) */\n      0xffffffffffffffffffffffffffffffffffffffff\n      and\n      eq\n        /* \"ReputationControlV2.sol\":2580:2670  require(infoCompanies[_company]._address == address(0),\"Company is already in the system\") */\n      tag_303\n      jumpi\n      mload(0x40)\n      0x08c379a000000000000000000000000000000000000000000000000000000000\n      dup2\n      mstore\n      0x04\n      add\n      tag_304\n      swap1\n      tag_305\n      jump\t// in\n    tag_304:\n      mload(0x40)\n      dup1\n      swap2\n      sub\n      swap1\n      revert\n    tag_303:\n        /* \"ReputationControlV2.sol\":2681:2692  address add */\n      0x00\n        /* \"ReputationControlV2.sol\":2738:2746  _company */\n      dup2\n        /* \"ReputationControlV2.sol\":2721:2747  abi.encodePacked(_company) */\n      add(0x20, mload(0x40))\n      tag_306\n      swap2\n      swap1\n      tag_103\n      jump\t// in\n    tag_306:\n      mload(0x40)\n      0x20\n      dup2\n      dup4\n      sub\n      sub\n      dup2\n      mstore\n      swap1\n      0x40\n      mstore\n        /* \"ReputationControlV2.sol\":2711:2748  keccak256(abi.encodePacked(_company)) */\n      dup1\n      mload\n      swap1\n      0x20\n      add\n      keccak256\n        /* \"ReputationControlV2.sol\":2695:2750  address(bytes20(keccak256(abi.encodePacked(_company)))) */\n      0x60\n      shr\n        /* \"ReputationControlV2.sol\":2681:2750  address add = address(bytes20(keccak256(abi.encodePacked(_company)))) */\n      swap1\n      pop\n        /* \"ReputationControlV2.sol\":2796:2799  add */\n      dup1\n        /* \"ReputationControlV2.sol\":2761:2774  infoCompanies */\n      0x01\n        /* \"ReputationControlV2.sol\":2775:2783  _company */\n      dup4\n        /* \"ReputationControlV2.sol\":2761:2784  infoCompanies[_company] */\n      mload(0x40)\n      tag_307\n      swap2\n      swap1\n      tag_103\n      jump\t// in\n    tag_307:\n      swap1\n      dup2\n      mstore\n      0x20\n      add\n      mload(0x40)\n      dup1\n      swap2\n      sub\n      swap1\n      keccak256\n        /* \"ReputationControlV2.sol\":2761:2793  infoCompanies[_company]._address */\n      0x00\n      add\n      0x00\n        /* \"ReputationControlV2.sol\":2761:2799  infoCompanies[_company]._address = add */\n      0x0100\n      exp\n      dup2\n      sload\n      dup2\n      0xffffffffffffffffffffffffffffffffffffffff\n      mul\n      not\n      and\n      swap1\n      dup4\n      0xffffffffffffffffffffffffffffffffffffffff\n      and\n      mul\n      or\n      swap1\n      sstore\n      pop\n        /* \"ReputationControlV2.sol\":2840:2849  companies */\n      0x02\n        /* \"ReputationControlV2.sol\":2840:2856  companies.length */\n      dup1\n      sload\n      swap1\n      pop\n        /* \"ReputationControlV2.sol\":2810:2823  infoCompanies */\n      0x01\n        /* \"ReputationControlV2.sol\":2824:2832  _company */\n      dup4\n        /* \"ReputationControlV2.sol\":2810:2833  infoCompanies[_company] */\n      mload(0x40)\n      tag_308\n      swap2\n      swap1\n      tag_103\n      jump\t// in\n    tag_308:\n      swap1\n      dup2\n      mstore\n      0x20\n      add\n      mload(0x40)\n      dup1\n      swap2\n      sub\n      swap1\n      keccak256\n        /* \"ReputationControlV2.sol\":2810:2837  infoCompanies[_company].pos */\n      0x01\n      add\n        /* \"ReputationControlV2.sol\":2810:2856  infoCompanies[_company].pos = companies.length */\n      dup2\n      swap1\n      sstore\n      pop\n        /* \"ReputationControlV2.sol\":2867:2876  companies */\n      0x02\n        /* \"ReputationControlV2.sol\":2882:2890  _company */\n      dup3\n        /* \"ReputationControlV2.sol\":2867:2891  companies.push(_company) */\n      swap1\n      dup1\n      0x01\n      dup2\n      sload\n      add\n      dup1\n      dup3\n      sstore\n      dup1\n      swap2\n      pop\n      pop\n      0x01\n      swap1\n      sub\n      swap1\n      0x00\n      mstore\n      keccak256(0x00, 0x20)\n      add\n      0x00\n      swap1\n      swap2\n      swap1\n      swap2\n      swap1\n      swap2\n      pop\n      swap1\n      dup1\n      mload\n      swap1\n      0x20\n      add\n      swap1\n      tag_310\n      swap3\n      swap2\n      swap1\n      tag_118\n      jump\t// in\n    tag_310:\n      pop\n        /* \"ReputationControlV2.sol\":2569:2899  {... */\n      pop\n        /* \"ReputationControlV2.sol\":2507:2899  function newCompany(string memory _company) external onlyOwner{... */\n      pop\n      jump\t// out\n    tag_118:\n      dup3\n      dup1\n      sload\n      tag_311\n      swap1\n      tag_125\n      jump\t// in\n    tag_311:\n      swap1\n      0x00\n      mstore\n      keccak256(0x00, 0x20)\n      swap1\n      0x1f\n      add\n      0x20\n      swap1\n      div\n      dup2\n      add\n      swap3\n      dup3\n      tag_313\n      jumpi\n      0x00\n      dup6\n      sstore\n      jump(tag_312)\n    tag_313:\n      dup3\n      0x1f\n      lt\n      tag_314\n      jumpi\n      dup1\n      mload\n      not(0xff)\n      and\n      dup4\n      dup1\n      add\n      or\n      dup6\n      sstore\n      jump(tag_312)\n    tag_314:\n      dup3\n      dup1\n      add\n      0x01\n      add\n      dup6\n      sstore\n      dup3\n      iszero\n      tag_312\n      jumpi\n      swap2\n      dup3\n      add\n    tag_315:\n      dup3\n      dup2\n      gt\n      iszero\n      tag_316\n      jumpi\n      dup3\n      mload\n      dup3\n      sstore\n      swap2\n      0x20\n      add\n      swap2\n      swap1\n      0x01\n      add\n      swap1\n      jump(tag_315)\n    tag_316:\n    tag_312:\n      pop\n      swap1\n      pop\n      tag_317\n      swap2\n      swap1\n      tag_318\n      jump\t// in\n    tag_317:\n      pop\n      swap1\n      jump\t// out\n    tag_171:\n      pop\n      dup1\n      sload\n      tag_319\n      swap1\n      tag_125\n      jump\t// in\n    tag_319:\n      0x00\n      dup3\n      sstore\n      dup1\n      0x1f\n      lt\n      tag_321\n      jumpi\n      pop\n      jump(tag_320)\n    tag_321:\n      0x1f\n      add\n      0x20\n      swap1\n      div\n      swap1\n      0x00\n      mstore\n      keccak256(0x00, 0x20)\n      swap1\n      dup2\n      add\n      swap1\n      tag_322\n      swap2\n      swap1\n      tag_318\n      jump\t// in\n    tag_322:\n    tag_320:\n      pop\n      jump\t// out\n    tag_174:\n      pop\n      dup1\n      sload\n      0x00\n      dup3\n      sstore\n      swap1\n      0x00\n      mstore\n      keccak256(0x00, 0x20)\n      swap1\n      dup2\n      add\n      swap1\n      tag_324\n      swap2\n      swap1\n      tag_325\n      jump\t// in\n    tag_324:\n      pop\n      jump\t// out\n    tag_318:\n    tag_326:\n      dup1\n      dup3\n      gt\n      iszero\n      tag_327\n      jumpi\n      0x00\n      dup2\n      0x00\n      swap1\n      sstore\n      pop\n      0x01\n      add\n      jump(tag_326)\n    tag_327:\n      pop\n      swap1\n      jump\t// out\n    tag_325:\n    tag_328:\n      dup1\n      dup3\n      gt\n      iszero\n      tag_329\n      jumpi\n      0x00\n      dup2\n      dup2\n      tag_330\n      swap2\n      swap1\n      tag_171\n      jump\t// in\n    tag_330:\n      pop\n      0x01\n      add\n      jump(tag_328)\n    tag_329:\n      pop\n      swap1\n      jump\t// out\n        /* \"#utility.yul\":7:121   */\n    tag_331:\n        /* \"#utility.yul\":74:80   */\n      0x00\n        /* \"#utility.yul\":108:113   */\n      dup2\n        /* \"#utility.yul\":102:114   */\n      mload\n        /* \"#utility.yul\":92:114   */\n      swap1\n      pop\n        /* \"#utility.yul\":7:121   */\n      swap2\n      swap1\n      pop\n      jump\t// out\n        /* \"#utility.yul\":127:311   */\n    tag_332:\n        /* \"#utility.yul\":226:237   */\n      0x00\n        /* \"#utility.yul\":260:266   */\n      dup3\n        /* \"#utility.yul\":255:258   */\n      dup3\n        /* \"#utility.yul\":248:267   */\n      mstore\n        /* \"#utility.yul\":300:304   */\n      0x20\n        /* \"#utility.yul\":295:298   */\n      dup3\n        /* \"#utility.yul\":291:305   */\n      add\n        /* \"#utility.yul\":276:305   */\n      swap1\n      pop\n        /* \"#utility.yul\":127:311   */\n      swap3\n      swap2\n      pop\n      pop\n      jump\t// out\n        /* \"#utility.yul\":317:449   */\n    tag_333:\n        /* \"#utility.yul\":384:388   */\n      0x00\n        /* \"#utility.yul\":407:410   */\n      dup2\n        /* \"#utility.yul\":399:410   */\n      swap1\n      pop\n        /* \"#utility.yul\":437:441   */\n      0x20\n        /* \"#utility.yul\":432:435   */\n      dup3\n        /* \"#utility.yul\":428:442   */\n      add\n        /* \"#utility.yul\":420:442   */\n      swap1\n      pop\n        /* \"#utility.yul\":317:449   */\n      swap2\n      swap1\n      pop\n      jump\t// out\n        /* \"#utility.yul\":455:581   */\n    tag_334:\n        /* \"#utility.yul\":492:499   */\n      0x00\n        /* \"#utility.yul\":532:574   */\n      0xffffffffffffffffffffffffffffffffffffffff\n        /* \"#utility.yul\":525:530   */\n      dup3\n        /* \"#utility.yul\":521:575   */\n      and\n        /* \"#utility.yul\":510:575   */\n      swap1\n      pop\n        /* \"#utility.yul\":455:581   */\n      swap2\n      swap1\n      pop\n      jump\t// out\n        /* \"#utility.yul\":587:683   */\n    tag_335:\n        /* \"#utility.yul\":624:631   */\n      0x00\n        /* \"#utility.yul\":653:677   */\n      tag_404\n        /* \"#utility.yul\":671:676   */\n      dup3\n        /* \"#utility.yul\":653:677   */\n      tag_334\n      jump\t// in\n    tag_404:\n        /* \"#utility.yul\":642:677   */\n      swap1\n      pop\n        /* \"#utility.yul\":587:683   */\n      swap2\n      swap1\n      pop\n      jump\t// out\n        /* \"#utility.yul\":689:797   */\n    tag_336:\n        /* \"#utility.yul\":766:790   */\n      tag_406\n        /* \"#utility.yul\":784:789   */\n      dup2\n        /* \"#utility.yul\":766:790   */\n      tag_335\n      jump\t// in\n    tag_406:\n        /* \"#utility.yul\":761:764   */\n      dup3\n        /* \"#utility.yul\":754:791   */\n      mstore\n        /* \"#utility.yul\":689:797   */\n      pop\n      pop\n      jump\t// out\n        /* \"#utility.yul\":803:982   */\n    tag_337:\n        /* \"#utility.yul\":872:882   */\n      0x00\n        /* \"#utility.yul\":893:939   */\n      tag_408\n        /* \"#utility.yul\":935:938   */\n      dup4\n        /* \"#utility.yul\":927:933   */\n      dup4\n        /* \"#utility.yul\":893:939   */\n      tag_336\n      jump\t// in\n    tag_408:\n        /* \"#utility.yul\":971:975   */\n      0x20\n        /* \"#utility.yul\":966:969   */\n      dup4\n        /* \"#utility.yul\":962:976   */\n      add\n        /* \"#utility.yul\":948:976   */\n      swap1\n      pop\n        /* \"#utility.yul\":803:982   */\n      swap3\n      swap2\n      pop\n      pop\n      jump\t// out\n        /* \"#utility.yul\":988:1101   */\n    tag_338:\n        /* \"#utility.yul\":1058:1062   */\n      0x00\n        /* \"#utility.yul\":1090:1094   */\n      0x20\n        /* \"#utility.yul\":1085:1088   */\n      dup3\n        /* \"#utility.yul\":1081:1095   */\n      add\n        /* \"#utility.yul\":1073:1095   */\n      swap1\n      pop\n        /* \"#utility.yul\":988:1101   */\n      swap2\n      swap1\n      pop\n      jump\t// out\n        /* \"#utility.yul\":1137:1869   */\n    tag_339:\n        /* \"#utility.yul\":1256:1259   */\n      0x00\n        /* \"#utility.yul\":1285:1339   */\n      tag_411\n        /* \"#utility.yul\":1333:1338   */\n      dup3\n        /* \"#utility.yul\":1285:1339   */\n      tag_331\n      jump\t// in\n    tag_411:\n        /* \"#utility.yul\":1355:1441   */\n      tag_412\n        /* \"#utility.yul\":1434:1440   */\n      dup2\n        /* \"#utility.yul\":1429:1432   */\n      dup6\n        /* \"#utility.yul\":1355:1441   */\n      tag_332\n      jump\t// in\n    tag_412:\n        /* \"#utility.yul\":1348:1441   */\n      swap4\n      pop\n        /* \"#utility.yul\":1465:1521   */\n      tag_413\n        /* \"#utility.yul\":1515:1520   */\n      dup4\n        /* \"#utility.yul\":1465:1521   */\n      tag_333\n      jump\t// in\n    tag_413:\n        /* \"#utility.yul\":1544:1551   */\n      dup1\n        /* \"#utility.yul\":1575:1576   */\n      0x00\n        /* \"#utility.yul\":1560:1844   */\n    tag_414:\n        /* \"#utility.yul\":1585:1591   */\n      dup4\n        /* \"#utility.yul\":1582:1583   */\n      dup2\n        /* \"#utility.yul\":1579:1592   */\n      lt\n        /* \"#utility.yul\":1560:1844   */\n      iszero\n      tag_416\n      jumpi\n        /* \"#utility.yul\":1661:1667   */\n      dup2\n        /* \"#utility.yul\":1655:1668   */\n      mload\n        /* \"#utility.yul\":1688:1751   */\n      tag_417\n        /* \"#utility.yul\":1747:1750   */\n      dup9\n        /* \"#utility.yul\":1732:1745   */\n      dup3\n        /* \"#utility.yul\":1688:1751   */\n      tag_337\n      jump\t// in\n    tag_417:\n        /* \"#utility.yul\":1681:1751   */\n      swap8\n      pop\n        /* \"#utility.yul\":1774:1834   */\n      tag_418\n        /* \"#utility.yul\":1827:1833   */\n      dup4\n        /* \"#utility.yul\":1774:1834   */\n      tag_338\n      jump\t// in\n    tag_418:\n        /* \"#utility.yul\":1764:1834   */\n      swap3\n      pop\n        /* \"#utility.yul\":1620:1844   */\n      pop\n        /* \"#utility.yul\":1607:1608   */\n      0x01\n        /* \"#utility.yul\":1604:1605   */\n      dup2\n        /* \"#utility.yul\":1600:1609   */\n      add\n        /* \"#utility.yul\":1595:1609   */\n      swap1\n      pop\n        /* \"#utility.yul\":1560:1844   */\n      jump(tag_414)\n    tag_416:\n        /* \"#utility.yul\":1564:1578   */\n      pop\n        /* \"#utility.yul\":1860:1863   */\n      dup6\n        /* \"#utility.yul\":1853:1863   */\n      swap4\n      pop\n        /* \"#utility.yul\":1261:1869   */\n      pop\n      pop\n      pop\n        /* \"#utility.yul\":1137:1869   */\n      swap3\n      swap2\n      pop\n      pop\n      jump\t// out\n        /* \"#utility.yul\":1875:2248   */\n    tag_23:\n        /* \"#utility.yul\":2018:2022   */\n      0x00\n        /* \"#utility.yul\":2056:2058   */\n      0x20\n        /* \"#utility.yul\":2045:2054   */\n      dup3\n        /* \"#utility.yul\":2041:2059   */\n      add\n        /* \"#utility.yul\":2033:2059   */\n      swap1\n      pop\n        /* \"#utility.yul\":2105:2114   */\n      dup2\n        /* \"#utility.yul\":2099:2103   */\n      dup2\n        /* \"#utility.yul\":2095:2115   */\n      sub\n        /* \"#utility.yul\":2091:2092   */\n      0x00\n        /* \"#utility.yul\":2080:2089   */\n      dup4\n        /* \"#utility.yul\":2076:2093   */\n      add\n        /* \"#utility.yul\":2069:2116   */\n      mstore\n        /* \"#utility.yul\":2133:2241   */\n      tag_420\n        /* \"#utility.yul\":2236:2240   */\n      dup2\n        /* \"#utility.yul\":2227:2233   */\n      dup5\n        /* \"#utility.yul\":2133:2241   */\n      tag_339\n      jump\t// in\n    tag_420:\n        /* \"#utility.yul\":2125:2241   */\n      swap1\n      pop\n        /* \"#utility.yul\":1875:2248   */\n      swap3\n      swap2\n      pop\n      pop\n      jump\t// out\n        /* \"#utility.yul\":2254:2329   */\n    tag_340:\n        /* \"#utility.yul\":2287:2293   */\n      0x00\n        /* \"#utility.yul\":2320:2322   */\n      0x40\n        /* \"#utility.yul\":2314:2323   */\n      mload\n        /* \"#utility.yul\":2304:2323   */\n      swap1\n      pop\n        /* \"#utility.yul\":2254:2329   */\n      swap1\n      jump\t// out\n        /* \"#utility.yul\":2335:2452   */\n    tag_341:\n        /* \"#utility.yul\":2444:2445   */\n      0x00\n        /* \"#utility.yul\":2441:2442   */\n      dup1\n        /* \"#utility.yul\":2434:2446   */\n      revert\n        /* \"#utility.yul\":2458:2575   */\n    tag_342:\n        /* \"#utility.yul\":2567:2568   */\n      0x00\n        /* \"#utility.yul\":2564:2565   */\n      dup1\n        /* \"#utility.yul\":2557:2569   */\n      revert\n        /* \"#utility.yul\":2581:2698   */\n    tag_343:\n        /* \"#utility.yul\":2690:2691   */\n      0x00\n        /* \"#utility.yul\":2687:2688   */\n      dup1\n        /* \"#utility.yul\":2680:2692   */\n      revert\n        /* \"#utility.yul\":2704:2806   */\n    tag_344:\n        /* \"#utility.yul\":2745:2751   */\n      0x00\n        /* \"#utility.yul\":2796:2798   */\n      0x1f\n        /* \"#utility.yul\":2792:2799   */\n      not\n        /* \"#utility.yul\":2787:2789   */\n      0x1f\n        /* \"#utility.yul\":2780:2785   */\n      dup4\n        /* \"#utility.yul\":2776:2790   */\n      add\n        /* \"#utility.yul\":2772:2800   */\n      and\n        /* \"#utility.yul\":2762:2800   */\n      swap1\n      pop\n        /* \"#utility.yul\":2704:2806   */\n      swap2\n      swap1\n      pop\n      jump\t// out\n        /* \"#utility.yul\":2812:2992   */\n    tag_77:\n        /* \"#utility.yul\":2860:2937   */\n      0x4e487b7100000000000000000000000000000000000000000000000000000000\n        /* \"#utility.yul\":2857:2858   */\n      0x00\n        /* \"#utility.yul\":2850:2938   */\n      mstore\n        /* \"#utility.yul\":2957:2961   */\n      0x41\n        /* \"#utility.yul\":2954:2955   */\n      0x04\n        /* \"#utility.yul\":2947:2962   */\n      mstore\n        /* \"#utility.yul\":2981:2985   */\n      0x24\n        /* \"#utility.yul\":2978:2979   */\n      0x00\n        /* \"#utility.yul\":2971:2986   */\n      revert\n        /* \"#utility.yul\":2998:3279   */\n    tag_345:\n        /* \"#utility.yul\":3081:3108   */\n      tag_428\n        /* \"#utility.yul\":3103:3107   */\n      dup3\n        /* \"#utility.yul\":3081:3108   */\n      tag_344\n      jump\t// in\n    tag_428:\n        /* \"#utility.yul\":3073:3079   */\n      dup2\n        /* \"#utility.yul\":3069:3109   */\n      add\n        /* \"#utility.yul\":3211:3217   */\n      dup2\n        /* \"#utility.yul\":3199:3209   */\n      dup2\n        /* \"#utility.yul\":3196:3218   */\n      lt\n        /* \"#utility.yul\":3175:3193   */\n      0xffffffffffffffff\n        /* \"#utility.yul\":3163:3173   */\n      dup3\n        /* \"#utility.yul\":3160:3194   */\n      gt\n        /* \"#utility.yul\":3157:3219   */\n      or\n        /* \"#utility.yul\":3154:3242   */\n      iszero\n      tag_429\n      jumpi\n        /* \"#utility.yul\":3222:3240   */\n      tag_430\n      tag_77\n      jump\t// in\n    tag_430:\n        /* \"#utility.yul\":3154:3242   */\n    tag_429:\n        /* \"#utility.yul\":3262:3272   */\n      dup1\n        /* \"#utility.yul\":3258:3260   */\n      0x40\n        /* \"#utility.yul\":3251:3273   */\n      mstore\n        /* \"#utility.yul\":3041:3279   */\n      pop\n        /* \"#utility.yul\":2998:3279   */\n      pop\n      pop\n      jump\t// out\n        /* \"#utility.yul\":3285:3414   */\n    tag_346:\n        /* \"#utility.yul\":3319:3325   */\n      0x00\n        /* \"#utility.yul\":3346:3366   */\n      tag_432\n      tag_340\n      jump\t// in\n    tag_432:\n        /* \"#utility.yul\":3336:3366   */\n      swap1\n      pop\n        /* \"#utility.yul\":3375:3408   */\n      tag_433\n        /* \"#utility.yul\":3403:3407   */\n      dup3\n        /* \"#utility.yul\":3395:3401   */\n      dup3\n        /* \"#utility.yul\":3375:3408   */\n      tag_345\n      jump\t// in\n    tag_433:\n        /* \"#utility.yul\":3285:3414   */\n      swap2\n      swap1\n      pop\n      jump\t// out\n        /* \"#utility.yul\":3420:3741   */\n    tag_347:\n        /* \"#utility.yul\":3507:3511   */\n      0x00\n        /* \"#utility.yul\":3597:3615   */\n      0xffffffffffffffff\n        /* \"#utility.yul\":3589:3595   */\n      dup3\n        /* \"#utility.yul\":3586:3616   */\n      gt\n        /* \"#utility.yul\":3583:3639   */\n      iszero\n      tag_435\n      jumpi\n        /* \"#utility.yul\":3619:3637   */\n      tag_436\n      tag_77\n      jump\t// in\n    tag_436:\n        /* \"#utility.yul\":3583:3639   */\n    tag_435:\n        /* \"#utility.yul\":3669:3673   */\n      0x20\n        /* \"#utility.yul\":3661:3667   */\n      dup3\n        /* \"#utility.yul\":3657:3674   */\n      mul\n        /* \"#utility.yul\":3649:3674   */\n      swap1\n      pop\n        /* \"#utility.yul\":3729:3733   */\n      0x20\n        /* \"#utility.yul\":3723:3727   */\n      dup2\n        /* \"#utility.yul\":3719:3734   */\n      add\n        /* \"#utility.yul\":3711:3734   */\n      swap1\n      pop\n        /* \"#utility.yul\":3420:3741   */\n      swap2\n      swap1\n      pop\n      jump\t// out\n        /* \"#utility.yul\":3747:3864   */\n    tag_348:\n        /* \"#utility.yul\":3856:3857   */\n      0x00\n        /* \"#utility.yul\":3853:3854   */\n      dup1\n        /* \"#utility.yul\":3846:3858   */\n      revert\n        /* \"#utility.yul\":3870:3987   */\n    tag_349:\n        /* \"#utility.yul\":3979:3980   */\n      0x00\n        /* \"#utility.yul\":3976:3977   */\n      dup1\n        /* \"#utility.yul\":3969:3981   */\n      revert\n        /* \"#utility.yul\":3993:4301   */\n    tag_350:\n        /* \"#utility.yul\":4055:4059   */\n      0x00\n        /* \"#utility.yul\":4145:4163   */\n      0xffffffffffffffff\n        /* \"#utility.yul\":4137:4143   */\n      dup3\n        /* \"#utility.yul\":4134:4164   */\n      gt\n        /* \"#utility.yul\":4131:4187   */\n      iszero\n      tag_440\n      jumpi\n        /* \"#utility.yul\":4167:4185   */\n      tag_441\n      tag_77\n      jump\t// in\n    tag_441:\n        /* \"#utility.yul\":4131:4187   */\n    tag_440:\n        /* \"#utility.yul\":4205:4234   */\n      tag_442\n        /* \"#utility.yul\":4227:4233   */\n      dup3\n        /* \"#utility.yul\":4205:4234   */\n      tag_344\n      jump\t// in\n    tag_442:\n        /* \"#utility.yul\":4197:4234   */\n      swap1\n      pop\n        /* \"#utility.yul\":4289:4293   */\n      0x20\n        /* \"#utility.yul\":4283:4287   */\n      dup2\n        /* \"#utility.yul\":4279:4294   */\n      add\n        /* \"#utility.yul\":4271:4294   */\n      swap1\n      pop\n        /* \"#utility.yul\":3993:4301   */\n      swap2\n      swap1\n      pop\n      jump\t// out\n        /* \"#utility.yul\":4307:4461   */\n    tag_351:\n        /* \"#utility.yul\":4391:4397   */\n      dup3\n        /* \"#utility.yul\":4386:4389   */\n      dup2\n        /* \"#utility.yul\":4381:4384   */\n      dup4\n        /* \"#utility.yul\":4368:4398   */\n      calldatacopy\n        /* \"#utility.yul\":4453:4454   */\n      0x00\n        /* \"#utility.yul\":4444:4450   */\n      dup4\n        /* \"#utility.yul\":4439:4442   */\n      dup4\n        /* \"#utility.yul\":4435:4451   */\n      add\n        /* \"#utility.yul\":4428:4455   */\n      mstore\n        /* \"#utility.yul\":4307:4461   */\n      pop\n      pop\n      pop\n      jump\t// out\n        /* \"#utility.yul\":4467:4879   */\n    tag_352:\n        /* \"#utility.yul\":4545:4550   */\n      0x00\n        /* \"#utility.yul\":4570:4636   */\n      tag_445\n        /* \"#utility.yul\":4586:4635   */\n      tag_446\n        /* \"#utility.yul\":4628:4634   */\n      dup5\n        /* \"#utility.yul\":4586:4635   */\n      tag_350\n      jump\t// in\n    tag_446:\n        /* \"#utility.yul\":4570:4636   */\n      tag_346\n      jump\t// in\n    tag_445:\n        /* \"#utility.yul\":4561:4636   */\n      swap1\n      pop\n        /* \"#utility.yul\":4659:4665   */\n      dup3\n        /* \"#utility.yul\":4652:4657   */\n      dup2\n        /* \"#utility.yul\":4645:4666   */\n      mstore\n        /* \"#utility.yul\":4697:4701   */\n      0x20\n        /* \"#utility.yul\":4690:4695   */\n      dup2\n        /* \"#utility.yul\":4686:4702   */\n      add\n        /* \"#utility.yul\":4735:4738   */\n      dup5\n        /* \"#utility.yul\":4726:4732   */\n      dup5\n        /* \"#utility.yul\":4721:4724   */\n      dup5\n        /* \"#utility.yul\":4717:4733   */\n      add\n        /* \"#utility.yul\":4714:4739   */\n      gt\n        /* \"#utility.yul\":4711:4823   */\n      iszero\n      tag_447\n      jumpi\n        /* \"#utility.yul\":4742:4821   */\n      tag_448\n      tag_349\n      jump\t// in\n    tag_448:\n        /* \"#utility.yul\":4711:4823   */\n    tag_447:\n        /* \"#utility.yul\":4832:4873   */\n      tag_449\n        /* \"#utility.yul\":4866:4872   */\n      dup5\n        /* \"#utility.yul\":4861:4864   */\n      dup3\n        /* \"#utility.yul\":4856:4859   */\n      dup6\n        /* \"#utility.yul\":4832:4873   */\n      tag_351\n      jump\t// in\n    tag_449:\n        /* \"#utility.yul\":4551:4879   */\n      pop\n        /* \"#utility.yul\":4467:4879   */\n      swap4\n      swap3\n      pop\n      pop\n      pop\n      jump\t// out\n        /* \"#utility.yul\":4899:5239   */\n    tag_353:\n        /* \"#utility.yul\":4955:4960   */\n      0x00\n        /* \"#utility.yul\":5004:5007   */\n      dup3\n        /* \"#utility.yul\":4997:5001   */\n      0x1f\n        /* \"#utility.yul\":4989:4995   */\n      dup4\n        /* \"#utility.yul\":4985:5002   */\n      add\n        /* \"#utility.yul\":4981:5008   */\n      slt\n        /* \"#utility.yul\":4971:5093   */\n      tag_451\n      jumpi\n        /* \"#utility.yul\":5012:5091   */\n      tag_452\n      tag_343\n      jump\t// in\n    tag_452:\n        /* \"#utility.yul\":4971:5093   */\n    tag_451:\n        /* \"#utility.yul\":5129:5135   */\n      dup2\n        /* \"#utility.yul\":5116:5136   */\n      calldataload\n        /* \"#utility.yul\":5154:5233   */\n      tag_453\n        /* \"#utility.yul\":5229:5232   */\n      dup5\n        /* \"#utility.yul\":5221:5227   */\n      dup3\n        /* \"#utility.yul\":5214:5218   */\n      0x20\n        /* \"#utility.yul\":5206:5212   */\n      dup7\n        /* \"#utility.yul\":5202:5219   */\n      add\n        /* \"#utility.yul\":5154:5233   */\n      tag_352\n      jump\t// in\n    tag_453:\n        /* \"#utility.yul\":5145:5233   */\n      swap2\n      pop\n        /* \"#utility.yul\":4961:5239   */\n      pop\n        /* \"#utility.yul\":4899:5239   */\n      swap3\n      swap2\n      pop\n      pop\n      jump\t// out\n        /* \"#utility.yul\":5261:6206   */\n    tag_354:\n        /* \"#utility.yul\":5367:5372   */\n      0x00\n        /* \"#utility.yul\":5392:5483   */\n      tag_455\n        /* \"#utility.yul\":5408:5482   */\n      tag_456\n        /* \"#utility.yul\":5475:5481   */\n      dup5\n        /* \"#utility.yul\":5408:5482   */\n      tag_347\n      jump\t// in\n    tag_456:\n        /* \"#utility.yul\":5392:5483   */\n      tag_346\n      jump\t// in\n    tag_455:\n        /* \"#utility.yul\":5383:5483   */\n      swap1\n      pop\n        /* \"#utility.yul\":5503:5508   */\n      dup1\n        /* \"#utility.yul\":5532:5538   */\n      dup4\n        /* \"#utility.yul\":5525:5530   */\n      dup3\n        /* \"#utility.yul\":5518:5539   */\n      mstore\n        /* \"#utility.yul\":5566:5570   */\n      0x20\n        /* \"#utility.yul\":5559:5564   */\n      dup3\n        /* \"#utility.yul\":5555:5571   */\n      add\n        /* \"#utility.yul\":5548:5571   */\n      swap1\n      pop\n        /* \"#utility.yul\":5619:5623   */\n      0x20\n        /* \"#utility.yul\":5611:5617   */\n      dup5\n        /* \"#utility.yul\":5607:5624   */\n      mul\n        /* \"#utility.yul\":5599:5605   */\n      dup4\n        /* \"#utility.yul\":5595:5625   */\n      add\n        /* \"#utility.yul\":5648:5651   */\n      dup6\n        /* \"#utility.yul\":5640:5646   */\n      dup2\n        /* \"#utility.yul\":5637:5652   */\n      gt\n        /* \"#utility.yul\":5634:5756   */\n      iszero\n      tag_457\n      jumpi\n        /* \"#utility.yul\":5667:5746   */\n      tag_458\n      tag_348\n      jump\t// in\n    tag_458:\n        /* \"#utility.yul\":5634:5756   */\n    tag_457:\n        /* \"#utility.yul\":5782:5788   */\n      dup4\n        /* \"#utility.yul\":5765:6200   */\n    tag_459:\n        /* \"#utility.yul\":5799:5805   */\n      dup2\n        /* \"#utility.yul\":5794:5797   */\n      dup2\n        /* \"#utility.yul\":5791:5806   */\n      lt\n        /* \"#utility.yul\":5765:6200   */\n      iszero\n      tag_461\n      jumpi\n        /* \"#utility.yul\":5888:5891   */\n      dup1\n        /* \"#utility.yul\":5875:5892   */\n      calldataload\n        /* \"#utility.yul\":5924:5942   */\n      0xffffffffffffffff\n        /* \"#utility.yul\":5911:5922   */\n      dup2\n        /* \"#utility.yul\":5908:5943   */\n      gt\n        /* \"#utility.yul\":5905:6027   */\n      iszero\n      tag_462\n      jumpi\n        /* \"#utility.yul\":5946:6025   */\n      tag_463\n      tag_343\n      jump\t// in\n    tag_463:\n        /* \"#utility.yul\":5905:6027   */\n    tag_462:\n        /* \"#utility.yul\":6070:6081   */\n      dup1\n        /* \"#utility.yul\":6062:6068   */\n      dup7\n        /* \"#utility.yul\":6058:6082   */\n      add\n        /* \"#utility.yul\":6108:6155   */\n      tag_464\n        /* \"#utility.yul\":6151:6154   */\n      dup10\n        /* \"#utility.yul\":6139:6149   */\n      dup3\n        /* \"#utility.yul\":6108:6155   */\n      tag_353\n      jump\t// in\n    tag_464:\n        /* \"#utility.yul\":6103:6106   */\n      dup6\n        /* \"#utility.yul\":6096:6156   */\n      mstore\n        /* \"#utility.yul\":6185:6189   */\n      0x20\n        /* \"#utility.yul\":6180:6183   */\n      dup6\n        /* \"#utility.yul\":6176:6190   */\n      add\n        /* \"#utility.yul\":6169:6190   */\n      swap5\n      pop\n        /* \"#utility.yul\":5841:6200   */\n      pop\n      pop\n        /* \"#utility.yul\":5825:5829   */\n      0x20\n        /* \"#utility.yul\":5820:5823   */\n      dup2\n        /* \"#utility.yul\":5816:5830   */\n      add\n        /* \"#utility.yul\":5809:5830   */\n      swap1\n      pop\n        /* \"#utility.yul\":5765:6200   */\n      jump(tag_459)\n    tag_461:\n        /* \"#utility.yul\":5769:5790   */\n      pop\n        /* \"#utility.yul\":5373:6206   */\n      pop\n      pop\n        /* \"#utility.yul\":5261:6206   */\n      swap4\n      swap3\n      pop\n      pop\n      pop\n      jump\t// out\n        /* \"#utility.yul\":6228:6618   */\n    tag_355:\n        /* \"#utility.yul\":6309:6314   */\n      0x00\n        /* \"#utility.yul\":6358:6361   */\n      dup3\n        /* \"#utility.yul\":6351:6355   */\n      0x1f\n        /* \"#utility.yul\":6343:6349   */\n      dup4\n        /* \"#utility.yul\":6339:6356   */\n      add\n        /* \"#utility.yul\":6335:6362   */\n      slt\n        /* \"#utility.yul\":6325:6447   */\n      tag_466\n      jumpi\n        /* \"#utility.yul\":6366:6445   */\n      tag_467\n      tag_343\n      jump\t// in\n    tag_467:\n        /* \"#utility.yul\":6325:6447   */\n    tag_466:\n        /* \"#utility.yul\":6483:6489   */\n      dup2\n        /* \"#utility.yul\":6470:6490   */\n      calldataload\n        /* \"#utility.yul\":6508:6612   */\n      tag_468\n        /* \"#utility.yul\":6608:6611   */\n      dup5\n        /* \"#utility.yul\":6600:6606   */\n      dup3\n        /* \"#utility.yul\":6593:6597   */\n      0x20\n        /* \"#utility.yul\":6585:6591   */\n      dup7\n        /* \"#utility.yul\":6581:6598   */\n      add\n        /* \"#utility.yul\":6508:6612   */\n      tag_354\n      jump\t// in\n    tag_468:\n        /* \"#utility.yul\":6499:6612   */\n      swap2\n      pop\n        /* \"#utility.yul\":6315:6618   */\n      pop\n        /* \"#utility.yul\":6228:6618   */\n      swap3\n      swap2\n      pop\n      pop\n      jump\t// out\n        /* \"#utility.yul\":6624:7183   */\n    tag_26:\n        /* \"#utility.yul\":6718:6724   */\n      0x00\n        /* \"#utility.yul\":6767:6769   */\n      0x20\n        /* \"#utility.yul\":6755:6764   */\n      dup3\n        /* \"#utility.yul\":6746:6753   */\n      dup5\n        /* \"#utility.yul\":6742:6765   */\n      sub\n        /* \"#utility.yul\":6738:6770   */\n      slt\n        /* \"#utility.yul\":6735:6854   */\n      iszero\n      tag_470\n      jumpi\n        /* \"#utility.yul\":6773:6852   */\n      tag_471\n      tag_341\n      jump\t// in\n    tag_471:\n        /* \"#utility.yul\":6735:6854   */\n    tag_470:\n        /* \"#utility.yul\":6921:6922   */\n      0x00\n        /* \"#utility.yul\":6910:6919   */\n      dup3\n        /* \"#utility.yul\":6906:6923   */\n      add\n        /* \"#utility.yul\":6893:6924   */\n      calldataload\n        /* \"#utility.yul\":6951:6969   */\n      0xffffffffffffffff\n        /* \"#utility.yul\":6943:6949   */\n      dup2\n        /* \"#utility.yul\":6940:6970   */\n      gt\n        /* \"#utility.yul\":6937:7054   */\n      iszero\n      tag_472\n      jumpi\n        /* \"#utility.yul\":6973:7052   */\n      tag_473\n      tag_342\n      jump\t// in\n    tag_473:\n        /* \"#utility.yul\":6937:7054   */\n    tag_472:\n        /* \"#utility.yul\":7078:7166   */\n      tag_474\n        /* \"#utility.yul\":7158:7165   */\n      dup5\n        /* \"#utility.yul\":7149:7155   */\n      dup3\n        /* \"#utility.yul\":7138:7147   */\n      dup6\n        /* \"#utility.yul\":7134:7156   */\n      add\n        /* \"#utility.yul\":7078:7166   */\n      tag_355\n      jump\t// in\n    tag_474:\n        /* \"#utility.yul\":7068:7166   */\n      swap2\n      pop\n        /* \"#utility.yul\":6864:7176   */\n      pop\n        /* \"#utility.yul\":6624:7183   */\n      swap3\n      swap2\n      pop\n      pop\n      jump\t// out\n        /* \"#utility.yul\":7189:7313   */\n    tag_356:\n        /* \"#utility.yul\":7266:7272   */\n      0x00\n        /* \"#utility.yul\":7300:7305   */\n      dup2\n        /* \"#utility.yul\":7294:7306   */\n      mload\n        /* \"#utility.yul\":7284:7306   */\n      swap1\n      pop\n        /* \"#utility.yul\":7189:7313   */\n      swap2\n      swap1\n      pop\n      jump\t// out\n        /* \"#utility.yul\":7319:7513   */\n    tag_357:\n        /* \"#utility.yul\":7428:7439   */\n      0x00\n        /* \"#utility.yul\":7462:7468   */\n      dup3\n        /* \"#utility.yul\":7457:7460   */\n      dup3\n        /* \"#utility.yul\":7450:7469   */\n      mstore\n        /* \"#utility.yul\":7502:7506   */\n      0x20\n        /* \"#utility.yul\":7497:7500   */\n      dup3\n        /* \"#utility.yul\":7493:7507   */\n      add\n        /* \"#utility.yul\":7478:7507   */\n      swap1\n      pop\n        /* \"#utility.yul\":7319:7513   */\n      swap3\n      swap2\n      pop\n      pop\n      jump\t// out\n        /* \"#utility.yul\":7519:7661   */\n    tag_358:\n        /* \"#utility.yul\":7596:7600   */\n      0x00\n        /* \"#utility.yul\":7619:7622   */\n      dup2\n        /* \"#utility.yul\":7611:7622   */\n      swap1\n      pop\n        /* \"#utility.yul\":7649:7653   */\n      0x20\n        /* \"#utility.yul\":7644:7647   */\n      dup3\n        /* \"#utility.yul\":7640:7654   */\n      add\n        /* \"#utility.yul\":7632:7654   */\n      swap1\n      pop\n        /* \"#utility.yul\":7519:7661   */\n      swap2\n      swap1\n      pop\n      jump\t// out\n        /* \"#utility.yul\":7667:7766   */\n    tag_359:\n        /* \"#utility.yul\":7719:7725   */\n      0x00\n        /* \"#utility.yul\":7753:7758   */\n      dup2\n        /* \"#utility.yul\":7747:7759   */\n      mload\n        /* \"#utility.yul\":7737:7759   */\n      swap1\n      pop\n        /* \"#utility.yul\":7667:7766   */\n      swap2\n      swap1\n      pop\n      jump\t// out\n        /* \"#utility.yul\":7772:7931   */\n    tag_360:\n        /* \"#utility.yul\":7846:7857   */\n      0x00\n        /* \"#utility.yul\":7880:7886   */\n      dup3\n        /* \"#utility.yul\":7875:7878   */\n      dup3\n        /* \"#utility.yul\":7868:7887   */\n      mstore\n        /* \"#utility.yul\":7920:7924   */\n      0x20\n        /* \"#utility.yul\":7915:7918   */\n      dup3\n        /* \"#utility.yul\":7911:7925   */\n      add\n        /* \"#utility.yul\":7896:7925   */\n      swap1\n      pop\n        /* \"#utility.yul\":7772:7931   */\n      swap3\n      swap2\n      pop\n      pop\n      jump\t// out\n        /* \"#utility.yul\":7937:8244   */\n    tag_361:\n        /* \"#utility.yul\":8005:8006   */\n      0x00\n        /* \"#utility.yul\":8015:8128   */\n    tag_481:\n        /* \"#utility.yul\":8029:8035   */\n      dup4\n        /* \"#utility.yul\":8026:8027   */\n      dup2\n        /* \"#utility.yul\":8023:8036   */\n      lt\n        /* \"#utility.yul\":8015:8128   */\n      iszero\n      tag_483\n      jumpi\n        /* \"#utility.yul\":8114:8115   */\n      dup1\n        /* \"#utility.yul\":8109:8112   */\n      dup3\n        /* \"#utility.yul\":8105:8116   */\n      add\n        /* \"#utility.yul\":8099:8117   */\n      mload\n        /* \"#utility.yul\":8095:8096   */\n      dup2\n        /* \"#utility.yul\":8090:8093   */\n      dup5\n        /* \"#utility.yul\":8086:8097   */\n      add\n        /* \"#utility.yul\":8079:8118   */\n      mstore\n        /* \"#utility.yul\":8051:8053   */\n      0x20\n        /* \"#utility.yul\":8048:8049   */\n      dup2\n        /* \"#utility.yul\":8044:8054   */\n      add\n        /* \"#utility.yul\":8039:8054   */\n      swap1\n      pop\n        /* \"#utility.yul\":8015:8128   */\n      jump(tag_481)\n    tag_483:\n        /* \"#utility.yul\":8146:8152   */\n      dup4\n        /* \"#utility.yul\":8143:8144   */\n      dup2\n        /* \"#utility.yul\":8140:8153   */\n      gt\n        /* \"#utility.yul\":8137:8238   */\n      iszero\n      tag_484\n      jumpi\n        /* \"#utility.yul\":8226:8227   */\n      0x00\n        /* \"#utility.yul\":8217:8223   */\n      dup5\n        /* \"#utility.yul\":8212:8215   */\n      dup5\n        /* \"#utility.yul\":8208:8224   */\n      add\n        /* \"#utility.yul\":8201:8228   */\n      mstore\n        /* \"#utility.yul\":8137:8238   */\n    tag_484:\n        /* \"#utility.yul\":7986:8244   */\n      pop\n        /* \"#utility.yul\":7937:8244   */\n      pop\n      pop\n      pop\n      jump\t// out\n        /* \"#utility.yul\":8250:8594   */\n    tag_362:\n        /* \"#utility.yul\":8328:8331   */\n      0x00\n        /* \"#utility.yul\":8356:8395   */\n      tag_486\n        /* \"#utility.yul\":8389:8394   */\n      dup3\n        /* \"#utility.yul\":8356:8395   */\n      tag_359\n      jump\t// in\n    tag_486:\n        /* \"#utility.yul\":8411:8472   */\n      tag_487\n        /* \"#utility.yul\":8465:8471   */\n      dup2\n        /* \"#utility.yul\":8460:8463   */\n      dup6\n        /* \"#utility.yul\":8411:8472   */\n      tag_360\n      jump\t// in\n    tag_487:\n        /* \"#utility.yul\":8404:8472   */\n      swap4\n      pop\n        /* \"#utility.yul\":8481:8533   */\n      tag_488\n        /* \"#utility.yul\":8526:8532   */\n      dup2\n        /* \"#utility.yul\":8521:8524   */\n      dup6\n        /* \"#utility.yul\":8514:8518   */\n      0x20\n        /* \"#utility.yul\":8507:8512   */\n      dup7\n        /* \"#utility.yul\":8503:8519   */\n      add\n        /* \"#utility.yul\":8481:8533   */\n      tag_361\n      jump\t// in\n    tag_488:\n        /* \"#utility.yul\":8558:8587   */\n      tag_489\n        /* \"#utility.yul\":8580:8586   */\n      dup2\n        /* \"#utility.yul\":8558:8587   */\n      tag_344\n      jump\t// in\n    tag_489:\n        /* \"#utility.yul\":8553:8556   */\n      dup5\n        /* \"#utility.yul\":8549:8588   */\n      add\n        /* \"#utility.yul\":8542:8588   */\n      swap2\n      pop\n        /* \"#utility.yul\":8332:8594   */\n      pop\n        /* \"#utility.yul\":8250:8594   */\n      swap3\n      swap2\n      pop\n      pop\n      jump\t// out\n        /* \"#utility.yul\":8600:8796   */\n    tag_363:\n        /* \"#utility.yul\":8689:8699   */\n      0x00\n        /* \"#utility.yul\":8724:8790   */\n      tag_491\n        /* \"#utility.yul\":8786:8789   */\n      dup4\n        /* \"#utility.yul\":8778:8784   */\n      dup4\n        /* \"#utility.yul\":8724:8790   */\n      tag_362\n      jump\t// in\n    tag_491:\n        /* \"#utility.yul\":8710:8790   */\n      swap1\n      pop\n        /* \"#utility.yul\":8600:8796   */\n      swap3\n      swap2\n      pop\n      pop\n      jump\t// out\n        /* \"#utility.yul\":8802:8925   */\n    tag_364:\n        /* \"#utility.yul\":8882:8886   */\n      0x00\n        /* \"#utility.yul\":8914:8918   */\n      0x20\n        /* \"#utility.yul\":8909:8912   */\n      dup3\n        /* \"#utility.yul\":8905:8919   */\n      add\n        /* \"#utility.yul\":8897:8919   */\n      swap1\n      pop\n        /* \"#utility.yul\":8802:8925   */\n      swap2\n      swap1\n      pop\n      jump\t// out\n        /* \"#utility.yul\":8959:9950   */\n    tag_365:\n        /* \"#utility.yul\":9098:9101   */\n      0x00\n        /* \"#utility.yul\":9127:9191   */\n      tag_494\n        /* \"#utility.yul\":9185:9190   */\n      dup3\n        /* \"#utility.yul\":9127:9191   */\n      tag_356\n      jump\t// in\n    tag_494:\n        /* \"#utility.yul\":9207:9303   */\n      tag_495\n        /* \"#utility.yul\":9296:9302   */\n      dup2\n        /* \"#utility.yul\":9291:9294   */\n      dup6\n        /* \"#utility.yul\":9207:9303   */\n      tag_357\n      jump\t// in\n    tag_495:\n        /* \"#utility.yul\":9200:9303   */\n      swap4\n      pop\n        /* \"#utility.yul\":9329:9332   */\n      dup4\n        /* \"#utility.yul\":9374:9378   */\n      0x20\n        /* \"#utility.yul\":9366:9372   */\n      dup3\n        /* \"#utility.yul\":9362:9379   */\n      mul\n        /* \"#utility.yul\":9357:9360   */\n      dup6\n        /* \"#utility.yul\":9353:9380   */\n      add\n        /* \"#utility.yul\":9404:9470   */\n      tag_496\n        /* \"#utility.yul\":9464:9469   */\n      dup6\n        /* \"#utility.yul\":9404:9470   */\n      tag_358\n      jump\t// in\n    tag_496:\n        /* \"#utility.yul\":9493:9500   */\n      dup1\n        /* \"#utility.yul\":9524:9525   */\n      0x00\n        /* \"#utility.yul\":9509:9905   */\n    tag_497:\n        /* \"#utility.yul\":9534:9540   */\n      dup6\n        /* \"#utility.yul\":9531:9532   */\n      dup2\n        /* \"#utility.yul\":9528:9541   */\n      lt\n        /* \"#utility.yul\":9509:9905   */\n      iszero\n      tag_499\n      jumpi\n        /* \"#utility.yul\":9605:9614   */\n      dup5\n        /* \"#utility.yul\":9599:9603   */\n      dup5\n        /* \"#utility.yul\":9595:9615   */\n      sub\n        /* \"#utility.yul\":9590:9593   */\n      dup10\n        /* \"#utility.yul\":9583:9616   */\n      mstore\n        /* \"#utility.yul\":9656:9662   */\n      dup2\n        /* \"#utility.yul\":9650:9663   */\n      mload\n        /* \"#utility.yul\":9684:9768   */\n      tag_500\n        /* \"#utility.yul\":9763:9767   */\n      dup6\n        /* \"#utility.yul\":9748:9761   */\n      dup3\n        /* \"#utility.yul\":9684:9768   */\n      tag_363\n      jump\t// in\n    tag_500:\n        /* \"#utility.yul\":9676:9768   */\n      swap5\n      pop\n        /* \"#utility.yul\":9791:9861   */\n      tag_501\n        /* \"#utility.yul\":9854:9860   */\n      dup4\n        /* \"#utility.yul\":9791:9861   */\n      tag_364\n      jump\t// in\n    tag_501:\n        /* \"#utility.yul\":9781:9861   */\n      swap3\n      pop\n        /* \"#utility.yul\":9890:9894   */\n      0x20\n        /* \"#utility.yul\":9885:9888   */\n      dup11\n        /* \"#utility.yul\":9881:9895   */\n      add\n        /* \"#utility.yul\":9874:9895   */\n      swap10\n      pop\n        /* \"#utility.yul\":9569:9905   */\n      pop\n        /* \"#utility.yul\":9556:9557   */\n      0x01\n        /* \"#utility.yul\":9553:9554   */\n      dup2\n        /* \"#utility.yul\":9549:9558   */\n      add\n        /* \"#utility.yul\":9544:9558   */\n      swap1\n      pop\n        /* \"#utility.yul\":9509:9905   */\n      jump(tag_497)\n    tag_499:\n        /* \"#utility.yul\":9513:9527   */\n      pop\n        /* \"#utility.yul\":9921:9925   */\n      dup3\n        /* \"#utility.yul\":9914:9925   */\n      swap8\n      pop\n        /* \"#utility.yul\":9941:9944   */\n      dup8\n        /* \"#utility.yul\":9934:9944   */\n      swap6\n      pop\n        /* \"#utility.yul\":9103:9950   */\n      pop\n      pop\n      pop\n      pop\n      pop\n        /* \"#utility.yul\":8959:9950   */\n      swap3\n      swap2\n      pop\n      pop\n      jump\t// out\n        /* \"#utility.yul\":9956:10369   */\n    tag_31:\n        /* \"#utility.yul\":10119:10123   */\n      0x00\n        /* \"#utility.yul\":10157:10159   */\n      0x20\n        /* \"#utility.yul\":10146:10155   */\n      dup3\n        /* \"#utility.yul\":10142:10160   */\n      add\n        /* \"#utility.yul\":10134:10160   */\n      swap1\n      pop\n        /* \"#utility.yul\":10206:10215   */\n      dup2\n        /* \"#utility.yul\":10200:10204   */\n      dup2\n        /* \"#utility.yul\":10196:10216   */\n      sub\n        /* \"#utility.yul\":10192:10193   */\n      0x00\n        /* \"#utility.yul\":10181:10190   */\n      dup4\n        /* \"#utility.yul\":10177:10194   */\n      add\n        /* \"#utility.yul\":10170:10217   */\n      mstore\n        /* \"#utility.yul\":10234:10362   */\n      tag_503\n        /* \"#utility.yul\":10357:10361   */\n      dup2\n        /* \"#utility.yul\":10348:10354   */\n      dup5\n        /* \"#utility.yul\":10234:10362   */\n      tag_365\n      jump\t// in\n    tag_503:\n        /* \"#utility.yul\":10226:10362   */\n      swap1\n      pop\n        /* \"#utility.yul\":9956:10369   */\n      swap3\n      swap2\n      pop\n      pop\n      jump\t// out\n        /* \"#utility.yul\":10375:10884   */\n    tag_34:\n        /* \"#utility.yul\":10444:10450   */\n      0x00\n        /* \"#utility.yul\":10493:10495   */\n      0x20\n        /* \"#utility.yul\":10481:10490   */\n      dup3\n        /* \"#utility.yul\":10472:10479   */\n      dup5\n        /* \"#utility.yul\":10468:10491   */\n      sub\n        /* \"#utility.yul\":10464:10496   */\n      slt\n        /* \"#utility.yul\":10461:10580   */\n      iszero\n      tag_505\n      jumpi\n        /* \"#utility.yul\":10499:10578   */\n      tag_506\n      tag_341\n      jump\t// in\n    tag_506:\n        /* \"#utility.yul\":10461:10580   */\n    tag_505:\n        /* \"#utility.yul\":10647:10648   */\n      0x00\n        /* \"#utility.yul\":10636:10645   */\n      dup3\n        /* \"#utility.yul\":10632:10649   */\n      add\n        /* \"#utility.yul\":10619:10650   */\n      calldataload\n        /* \"#utility.yul\":10677:10695   */\n      0xffffffffffffffff\n        /* \"#utility.yul\":10669:10675   */\n      dup2\n        /* \"#utility.yul\":10666:10696   */\n      gt\n        /* \"#utility.yul\":10663:10780   */\n      iszero\n      tag_507\n      jumpi\n        /* \"#utility.yul\":10699:10778   */\n      tag_508\n      tag_342\n      jump\t// in\n    tag_508:\n        /* \"#utility.yul\":10663:10780   */\n    tag_507:\n        /* \"#utility.yul\":10804:10867   */\n      tag_509\n        /* \"#utility.yul\":10859:10866   */\n      dup5\n        /* \"#utility.yul\":10850:10856   */\n      dup3\n        /* \"#utility.yul\":10839:10848   */\n      dup6\n        /* \"#utility.yul\":10835:10857   */\n      add\n        /* \"#utility.yul\":10804:10867   */\n      tag_353\n      jump\t// in\n    tag_509:\n        /* \"#utility.yul\":10794:10867   */\n      swap2\n      pop\n        /* \"#utility.yul\":10590:10877   */\n      pop\n        /* \"#utility.yul\":10375:10884   */\n      swap3\n      swap2\n      pop\n      pop\n      jump\t// out\n        /* \"#utility.yul\":10890:10967   */\n    tag_366:\n        /* \"#utility.yul\":10927:10934   */\n      0x00\n        /* \"#utility.yul\":10956:10961   */\n      dup2\n        /* \"#utility.yul\":10945:10961   */\n      swap1\n      pop\n        /* \"#utility.yul\":10890:10967   */\n      swap2\n      swap1\n      pop\n      jump\t// out\n        /* \"#utility.yul\":10973:11091   */\n    tag_367:\n        /* \"#utility.yul\":11060:11084   */\n      tag_512\n        /* \"#utility.yul\":11078:11083   */\n      dup2\n        /* \"#utility.yul\":11060:11084   */\n      tag_366\n      jump\t// in\n    tag_512:\n        /* \"#utility.yul\":11055:11058   */\n      dup3\n        /* \"#utility.yul\":11048:11085   */\n      mstore\n        /* \"#utility.yul\":10973:11091   */\n      pop\n      pop\n      jump\t// out\n        /* \"#utility.yul\":11097:11319   */\n    tag_39:\n        /* \"#utility.yul\":11190:11194   */\n      0x00\n        /* \"#utility.yul\":11228:11230   */\n      0x20\n        /* \"#utility.yul\":11217:11226   */\n      dup3\n        /* \"#utility.yul\":11213:11231   */\n      add\n        /* \"#utility.yul\":11205:11231   */\n      swap1\n      pop\n        /* \"#utility.yul\":11241:11312   */\n      tag_514\n        /* \"#utility.yul\":11309:11310   */\n      0x00\n        /* \"#utility.yul\":11298:11307   */\n      dup4\n        /* \"#utility.yul\":11294:11311   */\n      add\n        /* \"#utility.yul\":11285:11291   */\n      dup5\n        /* \"#utility.yul\":11241:11312   */\n      tag_367\n      jump\t// in\n    tag_514:\n        /* \"#utility.yul\":11097:11319   */\n      swap3\n      swap2\n      pop\n      pop\n      jump\t// out\n        /* \"#utility.yul\":11325:11439   */\n    tag_368:\n        /* \"#utility.yul\":11392:11398   */\n      0x00\n        /* \"#utility.yul\":11426:11431   */\n      dup2\n        /* \"#utility.yul\":11420:11432   */\n      mload\n        /* \"#utility.yul\":11410:11432   */\n      swap1\n      pop\n        /* \"#utility.yul\":11325:11439   */\n      swap2\n      swap1\n      pop\n      jump\t// out\n        /* \"#utility.yul\":11445:11629   */\n    tag_369:\n        /* \"#utility.yul\":11544:11555   */\n      0x00\n        /* \"#utility.yul\":11578:11584   */\n      dup3\n        /* \"#utility.yul\":11573:11576   */\n      dup3\n        /* \"#utility.yul\":11566:11585   */\n      mstore\n        /* \"#utility.yul\":11618:11622   */\n      0x20\n        /* \"#utility.yul\":11613:11616   */\n      dup3\n        /* \"#utility.yul\":11609:11623   */\n      add\n        /* \"#utility.yul\":11594:11623   */\n      swap1\n      pop\n        /* \"#utility.yul\":11445:11629   */\n      swap3\n      swap2\n      pop\n      pop\n      jump\t// out\n        /* \"#utility.yul\":11635:11767   */\n    tag_370:\n        /* \"#utility.yul\":11702:11706   */\n      0x00\n        /* \"#utility.yul\":11725:11728   */\n      dup2\n        /* \"#utility.yul\":11717:11728   */\n      swap1\n      pop\n        /* \"#utility.yul\":11755:11759   */\n      0x20\n        /* \"#utility.yul\":11750:11753   */\n      dup3\n        /* \"#utility.yul\":11746:11760   */\n      add\n        /* \"#utility.yul\":11738:11760   */\n      swap1\n      pop\n        /* \"#utility.yul\":11635:11767   */\n      swap2\n      swap1\n      pop\n      jump\t// out\n        /* \"#utility.yul\":11773:11881   */\n    tag_371:\n        /* \"#utility.yul\":11850:11874   */\n      tag_519\n        /* \"#utility.yul\":11868:11873   */\n      dup2\n        /* \"#utility.yul\":11850:11874   */\n      tag_366\n      jump\t// in\n    tag_519:\n        /* \"#utility.yul\":11845:11848   */\n      dup3\n        /* \"#utility.yul\":11838:11875   */\n      mstore\n        /* \"#utility.yul\":11773:11881   */\n      pop\n      pop\n      jump\t// out\n        /* \"#utility.yul\":11887:12066   */\n    tag_372:\n        /* \"#utility.yul\":11956:11966   */\n      0x00\n        /* \"#utility.yul\":11977:12023   */\n      tag_521\n        /* \"#utility.yul\":12019:12022   */\n      dup4\n        /* \"#utility.yul\":12011:12017   */\n      dup4\n        /* \"#utility.yul\":11977:12023   */\n      tag_371\n      jump\t// in\n    tag_521:\n        /* \"#utility.yul\":12055:12059   */\n      0x20\n        /* \"#utility.yul\":12050:12053   */\n      dup4\n        /* \"#utility.yul\":12046:12060   */\n      add\n        /* \"#utility.yul\":12032:12060   */\n      swap1\n      pop\n        /* \"#utility.yul\":11887:12066   */\n      swap3\n      swap2\n      pop\n      pop\n      jump\t// out\n        /* \"#utility.yul\":12072:12185   */\n    tag_373:\n        /* \"#utility.yul\":12142:12146   */\n      0x00\n        /* \"#utility.yul\":12174:12178   */\n      0x20\n        /* \"#utility.yul\":12169:12172   */\n      dup3\n        /* \"#utility.yul\":12165:12179   */\n      add\n        /* \"#utility.yul\":12157:12179   */\n      swap1\n      pop\n        /* \"#utility.yul\":12072:12185   */\n      swap2\n      swap1\n      pop\n      jump\t// out\n        /* \"#utility.yul\":12221:12953   */\n    tag_374:\n        /* \"#utility.yul\":12340:12343   */\n      0x00\n        /* \"#utility.yul\":12369:12423   */\n      tag_524\n        /* \"#utility.yul\":12417:12422   */\n      dup3\n        /* \"#utility.yul\":12369:12423   */\n      tag_368\n      jump\t// in\n    tag_524:\n        /* \"#utility.yul\":12439:12525   */\n      tag_525\n        /* \"#utility.yul\":12518:12524   */\n      dup2\n        /* \"#utility.yul\":12513:12516   */\n      dup6\n        /* \"#utility.yul\":12439:12525   */\n      tag_369\n      jump\t// in\n    tag_525:\n        /* \"#utility.yul\":12432:12525   */\n      swap4\n      pop\n        /* \"#utility.yul\":12549:12605   */\n      tag_526\n        /* \"#utility.yul\":12599:12604   */\n      dup4\n        /* \"#utility.yul\":12549:12605   */\n      tag_370\n      jump\t// in\n    tag_526:\n        /* \"#utility.yul\":12628:12635   */\n      dup1\n        /* \"#utility.yul\":12659:12660   */\n      0x00\n        /* \"#utility.yul\":12644:12928   */\n    tag_527:\n        /* \"#utility.yul\":12669:12675   */\n      dup4\n        /* \"#utility.yul\":12666:12667   */\n      dup2\n        /* \"#utility.yul\":12663:12676   */\n      lt\n        /* \"#utility.yul\":12644:12928   */\n      iszero\n      tag_529\n      jumpi\n        /* \"#utility.yul\":12745:12751   */\n      dup2\n        /* \"#utility.yul\":12739:12752   */\n      mload\n        /* \"#utility.yul\":12772:12835   */\n      tag_530\n        /* \"#utility.yul\":12831:12834   */\n      dup9\n        /* \"#utility.yul\":12816:12829   */\n      dup3\n        /* \"#utility.yul\":12772:12835   */\n      tag_372\n      jump\t// in\n    tag_530:\n        /* \"#utility.yul\":12765:12835   */\n      swap8\n      pop\n        /* \"#utility.yul\":12858:12918   */\n      tag_531\n        /* \"#utility.yul\":12911:12917   */\n      dup4\n        /* \"#utility.yul\":12858:12918   */\n      tag_373\n      jump\t// in\n    tag_531:\n        /* \"#utility.yul\":12848:12918   */\n      swap3\n      pop\n        /* \"#utility.yul\":12704:12928   */\n      pop\n        /* \"#utility.yul\":12691:12692   */\n      0x01\n        /* \"#utility.yul\":12688:12689   */\n      dup2\n        /* \"#utility.yul\":12684:12693   */\n      add\n        /* \"#utility.yul\":12679:12693   */\n      swap1\n      pop\n        /* \"#utility.yul\":12644:12928   */\n      jump(tag_527)\n    tag_529:\n        /* \"#utility.yul\":12648:12662   */\n      pop\n        /* \"#utility.yul\":12944:12947   */\n      dup6\n        /* \"#utility.yul\":12937:12947   */\n      swap4\n      pop\n        /* \"#utility.yul\":12345:12953   */\n      pop\n      pop\n      pop\n        /* \"#utility.yul\":12221:12953   */\n      swap3\n      swap2\n      pop\n      pop\n      jump\t// out\n        /* \"#utility.yul\":12959:13332   */\n    tag_43:\n        /* \"#utility.yul\":13102:13106   */\n      0x00\n        /* \"#utility.yul\":13140:13142   */\n      0x20\n        /* \"#utility.yul\":13129:13138   */\n      dup3\n        /* \"#utility.yul\":13125:13143   */\n      add\n        /* \"#utility.yul\":13117:13143   */\n      swap1\n      pop\n        /* \"#utility.yul\":13189:13198   */\n      dup2\n        /* \"#utility.yul\":13183:13187   */\n      dup2\n        /* \"#utility.yul\":13179:13199   */\n      sub\n        /* \"#utility.yul\":13175:13176   */\n      0x00\n        /* \"#utility.yul\":13164:13173   */\n      dup4\n        /* \"#utility.yul\":13160:13177   */\n      add\n        /* \"#utility.yul\":13153:13200   */\n      mstore\n        /* \"#utility.yul\":13217:13325   */\n      tag_533\n        /* \"#utility.yul\":13320:13324   */\n      dup2\n        /* \"#utility.yul\":13311:13317   */\n      dup5\n        /* \"#utility.yul\":13217:13325   */\n      tag_374\n      jump\t// in\n    tag_533:\n        /* \"#utility.yul\":13209:13325   */\n      swap1\n      pop\n        /* \"#utility.yul\":12959:13332   */\n      swap3\n      swap2\n      pop\n      pop\n      jump\t// out\n        /* \"#utility.yul\":13338:13460   */\n    tag_375:\n        /* \"#utility.yul\":13411:13435   */\n      tag_535\n        /* \"#utility.yul\":13429:13434   */\n      dup2\n        /* \"#utility.yul\":13411:13435   */\n      tag_366\n      jump\t// in\n    tag_535:\n        /* \"#utility.yul\":13404:13409   */\n      dup2\n        /* \"#utility.yul\":13401:13436   */\n      eq\n        /* \"#utility.yul\":13391:13454   */\n      tag_536\n      jumpi\n        /* \"#utility.yul\":13450:13451   */\n      0x00\n        /* \"#utility.yul\":13447:13448   */\n      dup1\n        /* \"#utility.yul\":13440:13452   */\n      revert\n        /* \"#utility.yul\":13391:13454   */\n    tag_536:\n        /* \"#utility.yul\":13338:13460   */\n      pop\n      jump\t// out\n        /* \"#utility.yul\":13466:13605   */\n    tag_376:\n        /* \"#utility.yul\":13512:13517   */\n      0x00\n        /* \"#utility.yul\":13550:13556   */\n      dup2\n        /* \"#utility.yul\":13537:13557   */\n      calldataload\n        /* \"#utility.yul\":13528:13557   */\n      swap1\n      pop\n        /* \"#utility.yul\":13566:13599   */\n      tag_538\n        /* \"#utility.yul\":13593:13598   */\n      dup2\n        /* \"#utility.yul\":13566:13599   */\n      tag_375\n      jump\t// in\n    tag_538:\n        /* \"#utility.yul\":13466:13605   */\n      swap3\n      swap2\n      pop\n      pop\n      jump\t// out\n        /* \"#utility.yul\":13611:13940   */\n    tag_50:\n        /* \"#utility.yul\":13670:13676   */\n      0x00\n        /* \"#utility.yul\":13719:13721   */\n      0x20\n        /* \"#utility.yul\":13707:13716   */\n      dup3\n        /* \"#utility.yul\":13698:13705   */\n      dup5\n        /* \"#utility.yul\":13694:13717   */\n      sub\n        /* \"#utility.yul\":13690:13722   */\n      slt\n        /* \"#utility.yul\":13687:13806   */\n      iszero\n      tag_540\n      jumpi\n        /* \"#utility.yul\":13725:13804   */\n      tag_541\n      tag_341\n      jump\t// in\n    tag_541:\n        /* \"#utility.yul\":13687:13806   */\n    tag_540:\n        /* \"#utility.yul\":13845:13846   */\n      0x00\n        /* \"#utility.yul\":13870:13923   */\n      tag_542\n        /* \"#utility.yul\":13915:13922   */\n      dup5\n        /* \"#utility.yul\":13906:13912   */\n      dup3\n        /* \"#utility.yul\":13895:13904   */\n      dup6\n        /* \"#utility.yul\":13891:13913   */\n      add\n        /* \"#utility.yul\":13870:13923   */\n      tag_376\n      jump\t// in\n    tag_542:\n        /* \"#utility.yul\":13860:13923   */\n      swap2\n      pop\n        /* \"#utility.yul\":13816:13933   */\n      pop\n        /* \"#utility.yul\":13611:13940   */\n      swap3\n      swap2\n      pop\n      pop\n      jump\t// out\n        /* \"#utility.yul\":13946:14780   */\n    tag_61:\n        /* \"#utility.yul\":14034:14040   */\n      0x00\n        /* \"#utility.yul\":14042:14048   */\n      dup1\n        /* \"#utility.yul\":14091:14093   */\n      0x40\n        /* \"#utility.yul\":14079:14088   */\n      dup4\n        /* \"#utility.yul\":14070:14077   */\n      dup6\n        /* \"#utility.yul\":14066:14089   */\n      sub\n        /* \"#utility.yul\":14062:14094   */\n      slt\n        /* \"#utility.yul\":14059:14178   */\n      iszero\n      tag_544\n      jumpi\n        /* \"#utility.yul\":14097:14176   */\n      tag_545\n      tag_341\n      jump\t// in\n    tag_545:\n        /* \"#utility.yul\":14059:14178   */\n    tag_544:\n        /* \"#utility.yul\":14245:14246   */\n      0x00\n        /* \"#utility.yul\":14234:14243   */\n      dup4\n        /* \"#utility.yul\":14230:14247   */\n      add\n        /* \"#utility.yul\":14217:14248   */\n      calldataload\n        /* \"#utility.yul\":14275:14293   */\n      0xffffffffffffffff\n        /* \"#utility.yul\":14267:14273   */\n      dup2\n        /* \"#utility.yul\":14264:14294   */\n      gt\n        /* \"#utility.yul\":14261:14378   */\n      iszero\n      tag_546\n      jumpi\n        /* \"#utility.yul\":14297:14376   */\n      tag_547\n      tag_342\n      jump\t// in\n    tag_547:\n        /* \"#utility.yul\":14261:14378   */\n    tag_546:\n        /* \"#utility.yul\":14402:14465   */\n      tag_548\n        /* \"#utility.yul\":14457:14464   */\n      dup6\n        /* \"#utility.yul\":14448:14454   */\n      dup3\n        /* \"#utility.yul\":14437:14446   */\n      dup7\n        /* \"#utility.yul\":14433:14455   */\n      add\n        /* \"#utility.yul\":14402:14465   */\n      tag_353\n      jump\t// in\n    tag_548:\n        /* \"#utility.yul\":14392:14465   */\n      swap3\n      pop\n        /* \"#utility.yul\":14188:14475   */\n      pop\n        /* \"#utility.yul\":14542:14544   */\n      0x20\n        /* \"#utility.yul\":14531:14540   */\n      dup4\n        /* \"#utility.yul\":14527:14545   */\n      add\n        /* \"#utility.yul\":14514:14546   */\n      calldataload\n        /* \"#utility.yul\":14573:14591   */\n      0xffffffffffffffff\n        /* \"#utility.yul\":14565:14571   */\n      dup2\n        /* \"#utility.yul\":14562:14592   */\n      gt\n        /* \"#utility.yul\":14559:14676   */\n      iszero\n      tag_549\n      jumpi\n        /* \"#utility.yul\":14595:14674   */\n      tag_550\n      tag_342\n      jump\t// in\n    tag_550:\n        /* \"#utility.yul\":14559:14676   */\n    tag_549:\n        /* \"#utility.yul\":14700:14763   */\n      tag_551\n        /* \"#utility.yul\":14755:14762   */\n      dup6\n        /* \"#utility.yul\":14746:14752   */\n      dup3\n        /* \"#utility.yul\":14735:14744   */\n      dup7\n        /* \"#utility.yul\":14731:14753   */\n      add\n        /* \"#utility.yul\":14700:14763   */\n      tag_353\n      jump\t// in\n    tag_551:\n        /* \"#utility.yul\":14690:14763   */\n      swap2\n      pop\n        /* \"#utility.yul\":14485:14773   */\n      pop\n        /* \"#utility.yul\":13946:14780   */\n      swap3\n      pop\n      swap3\n      swap1\n      pop\n      jump\t// out\n        /* \"#utility.yul\":14786:14904   */\n    tag_377:\n        /* \"#utility.yul\":14873:14897   */\n      tag_553\n        /* \"#utility.yul\":14891:14896   */\n      dup2\n        /* \"#utility.yul\":14873:14897   */\n      tag_335\n      jump\t// in\n    tag_553:\n        /* \"#utility.yul\":14868:14871   */\n      dup3\n        /* \"#utility.yul\":14861:14898   */\n      mstore\n        /* \"#utility.yul\":14786:14904   */\n      pop\n      pop\n      jump\t// out\n        /* \"#utility.yul\":14910:15132   */\n    tag_70:\n        /* \"#utility.yul\":15003:15007   */\n      0x00\n        /* \"#utility.yul\":15041:15043   */\n      0x20\n        /* \"#utility.yul\":15030:15039   */\n      dup3\n        /* \"#utility.yul\":15026:15044   */\n      add\n        /* \"#utility.yul\":15018:15044   */\n      swap1\n      pop\n        /* \"#utility.yul\":15054:15125   */\n      tag_555\n        /* \"#utility.yul\":15122:15123   */\n      0x00\n        /* \"#utility.yul\":15111:15120   */\n      dup4\n        /* \"#utility.yul\":15107:15124   */\n      add\n        /* \"#utility.yul\":15098:15104   */\n      dup5\n        /* \"#utility.yul\":15054:15125   */\n      tag_377\n      jump\t// in\n    tag_555:\n        /* \"#utility.yul\":14910:15132   */\n      swap3\n      swap2\n      pop\n      pop\n      jump\t// out\n        /* \"#utility.yul\":15138:15318   */\n    tag_84:\n        /* \"#utility.yul\":15186:15263   */\n      0x4e487b7100000000000000000000000000000000000000000000000000000000\n        /* \"#utility.yul\":15183:15184   */\n      0x00\n        /* \"#utility.yul\":15176:15264   */\n      mstore\n        /* \"#utility.yul\":15283:15287   */\n      0x32\n        /* \"#utility.yul\":15280:15281   */\n      0x04\n        /* \"#utility.yul\":15273:15288   */\n      mstore\n        /* \"#utility.yul\":15307:15311   */\n      0x24\n        /* \"#utility.yul\":15304:15305   */\n      0x00\n        /* \"#utility.yul\":15297:15312   */\n      revert\n        /* \"#utility.yul\":15324:15504   */\n    tag_378:\n        /* \"#utility.yul\":15372:15449   */\n      0x4e487b7100000000000000000000000000000000000000000000000000000000\n        /* \"#utility.yul\":15369:15370   */\n      0x00\n        /* \"#utility.yul\":15362:15450   */\n      mstore\n        /* \"#utility.yul\":15469:15473   */\n      0x22\n        /* \"#utility.yul\":15466:15467   */\n      0x04\n        /* \"#utility.yul\":15459:15474   */\n      mstore\n        /* \"#utility.yul\":15493:15497   */\n      0x24\n        /* \"#utility.yul\":15490:15491   */\n      0x00\n        /* \"#utility.yul\":15483:15498   */\n      revert\n        /* \"#utility.yul\":15510:15830   */\n    tag_125:\n        /* \"#utility.yul\":15554:15560   */\n      0x00\n        /* \"#utility.yul\":15591:15592   */\n      0x02\n        /* \"#utility.yul\":15585:15589   */\n      dup3\n        /* \"#utility.yul\":15581:15593   */\n      div\n        /* \"#utility.yul\":15571:15593   */\n      swap1\n      pop\n        /* \"#utility.yul\":15638:15639   */\n      0x01\n        /* \"#utility.yul\":15632:15636   */\n      dup3\n        /* \"#utility.yul\":15628:15640   */\n      and\n        /* \"#utility.yul\":15659:15677   */\n      dup1\n        /* \"#utility.yul\":15649:15730   */\n      tag_559\n      jumpi\n        /* \"#utility.yul\":15715:15719   */\n      0x7f\n        /* \"#utility.yul\":15707:15713   */\n      dup3\n        /* \"#utility.yul\":15703:15720   */\n      and\n        /* \"#utility.yul\":15693:15720   */\n      swap2\n      pop\n        /* \"#utility.yul\":15649:15730   */\n    tag_559:\n        /* \"#utility.yul\":15777:15779   */\n      0x20\n        /* \"#utility.yul\":15769:15775   */\n      dup3\n        /* \"#utility.yul\":15766:15780   */\n      lt\n        /* \"#utility.yul\":15746:15764   */\n      dup2\n        /* \"#utility.yul\":15743:15781   */\n      eq\n        /* \"#utility.yul\":15740:15824   */\n      iszero\n      tag_560\n      jumpi\n        /* \"#utility.yul\":15796:15814   */\n      tag_561\n      tag_378\n      jump\t// in\n    tag_561:\n        /* \"#utility.yul\":15740:15824   */\n    tag_560:\n        /* \"#utility.yul\":15561:15830   */\n      pop\n        /* \"#utility.yul\":15510:15830   */\n      swap2\n      swap1\n      pop\n      jump\t// out\n        /* \"#utility.yul\":15836:15984   */\n    tag_379:\n        /* \"#utility.yul\":15938:15949   */\n      0x00\n        /* \"#utility.yul\":15975:15978   */\n      dup2\n        /* \"#utility.yul\":15960:15978   */\n      swap1\n      pop\n        /* \"#utility.yul\":15836:15984   */\n      swap3\n      swap2\n      pop\n      pop\n      jump\t// out\n        /* \"#utility.yul\":15990:16131   */\n    tag_380:\n        /* \"#utility.yul\":16039:16043   */\n      0x00\n        /* \"#utility.yul\":16062:16065   */\n      dup2\n        /* \"#utility.yul\":16054:16065   */\n      swap1\n      pop\n        /* \"#utility.yul\":16085:16088   */\n      dup2\n        /* \"#utility.yul\":16082:16083   */\n      0x00\n        /* \"#utility.yul\":16075:16089   */\n      mstore\n        /* \"#utility.yul\":16119:16123   */\n      0x20\n        /* \"#utility.yul\":16116:16117   */\n      0x00\n        /* \"#utility.yul\":16106:16124   */\n      keccak256\n        /* \"#utility.yul\":16098:16124   */\n      swap1\n      pop\n        /* \"#utility.yul\":15990:16131   */\n      swap2\n      swap1\n      pop\n      jump\t// out\n        /* \"#utility.yul\":16161:17006   */\n    tag_381:\n        /* \"#utility.yul\":16264:16267   */\n      0x00\n        /* \"#utility.yul\":16301:16306   */\n      dup2\n        /* \"#utility.yul\":16295:16307   */\n      sload\n        /* \"#utility.yul\":16330:16366   */\n      tag_565\n        /* \"#utility.yul\":16356:16365   */\n      dup2\n        /* \"#utility.yul\":16330:16366   */\n      tag_125\n      jump\t// in\n    tag_565:\n        /* \"#utility.yul\":16382:16471   */\n      tag_566\n        /* \"#utility.yul\":16464:16470   */\n      dup2\n        /* \"#utility.yul\":16459:16462   */\n      dup7\n        /* \"#utility.yul\":16382:16471   */\n      tag_379\n      jump\t// in\n    tag_566:\n        /* \"#utility.yul\":16375:16471   */\n      swap5\n      pop\n        /* \"#utility.yul\":16502:16503   */\n      0x01\n        /* \"#utility.yul\":16491:16500   */\n      dup3\n        /* \"#utility.yul\":16487:16504   */\n      and\n        /* \"#utility.yul\":16518:16519   */\n      0x00\n        /* \"#utility.yul\":16513:16650   */\n      dup2\n      eq\n      tag_568\n      jumpi\n        /* \"#utility.yul\":16664:16665   */\n      0x01\n        /* \"#utility.yul\":16659:17000   */\n      dup2\n      eq\n      tag_569\n      jumpi\n        /* \"#utility.yul\":16480:17000   */\n      jump(tag_567)\n        /* \"#utility.yul\":16513:16650   */\n    tag_568:\n        /* \"#utility.yul\":16597:16601   */\n      0xff\n        /* \"#utility.yul\":16593:16602   */\n      not\n        /* \"#utility.yul\":16582:16591   */\n      dup4\n        /* \"#utility.yul\":16578:16603   */\n      and\n        /* \"#utility.yul\":16573:16576   */\n      dup7\n        /* \"#utility.yul\":16566:16604   */\n      mstore\n        /* \"#utility.yul\":16633:16639   */\n      dup2\n        /* \"#utility.yul\":16628:16631   */\n      dup7\n        /* \"#utility.yul\":16624:16640   */\n      add\n        /* \"#utility.yul\":16617:16640   */\n      swap4\n      pop\n        /* \"#utility.yul\":16513:16650   */\n      jump(tag_567)\n        /* \"#utility.yul\":16659:17000   */\n    tag_569:\n        /* \"#utility.yul\":16726:16764   */\n      tag_570\n        /* \"#utility.yul\":16758:16763   */\n      dup6\n        /* \"#utility.yul\":16726:16764   */\n      tag_380\n      jump\t// in\n    tag_570:\n        /* \"#utility.yul\":16786:16787   */\n      0x00\n        /* \"#utility.yul\":16800:16954   */\n    tag_571:\n        /* \"#utility.yul\":16814:16820   */\n      dup4\n        /* \"#utility.yul\":16811:16812   */\n      dup2\n        /* \"#utility.yul\":16808:16821   */\n      lt\n        /* \"#utility.yul\":16800:16954   */\n      iszero\n      tag_573\n      jumpi\n        /* \"#utility.yul\":16888:16895   */\n      dup2\n        /* \"#utility.yul\":16882:16896   */\n      sload\n        /* \"#utility.yul\":16878:16879   */\n      dup2\n        /* \"#utility.yul\":16873:16876   */\n      dup10\n        /* \"#utility.yul\":16869:16880   */\n      add\n        /* \"#utility.yul\":16862:16897   */\n      mstore\n        /* \"#utility.yul\":16938:16939   */\n      0x01\n        /* \"#utility.yul\":16929:16936   */\n      dup3\n        /* \"#utility.yul\":16925:16940   */\n      add\n        /* \"#utility.yul\":16914:16940   */\n      swap2\n      pop\n        /* \"#utility.yul\":16836:16840   */\n      0x20\n        /* \"#utility.yul\":16833:16834   */\n      dup2\n        /* \"#utility.yul\":16829:16841   */\n      add\n        /* \"#utility.yul\":16824:16841   */\n      swap1\n      pop\n        /* \"#utility.yul\":16800:16954   */\n      jump(tag_571)\n    tag_573:\n        /* \"#utility.yul\":16983:16989   */\n      dup4\n        /* \"#utility.yul\":16978:16981   */\n      dup9\n        /* \"#utility.yul\":16974:16990   */\n      add\n        /* \"#utility.yul\":16967:16990   */\n      swap6\n      pop\n        /* \"#utility.yul\":16666:17000   */\n      pop\n      pop\n        /* \"#utility.yul\":16480:17000   */\n    tag_567:\n      pop\n        /* \"#utility.yul\":16268:17006   */\n      pop\n      pop\n        /* \"#utility.yul\":16161:17006   */\n      swap3\n      swap2\n      pop\n      pop\n      jump\t// out\n        /* \"#utility.yul\":17012:17281   */\n    tag_87:\n        /* \"#utility.yul\":17141:17144   */\n      0x00\n        /* \"#utility.yul\":17163:17255   */\n      tag_575\n        /* \"#utility.yul\":17251:17254   */\n      dup3\n        /* \"#utility.yul\":17242:17248   */\n      dup5\n        /* \"#utility.yul\":17163:17255   */\n      tag_381\n      jump\t// in\n    tag_575:\n        /* \"#utility.yul\":17156:17255   */\n      swap2\n      pop\n        /* \"#utility.yul\":17272:17275   */\n      dup2\n        /* \"#utility.yul\":17265:17275   */\n      swap1\n      pop\n        /* \"#utility.yul\":17012:17281   */\n      swap3\n      swap2\n      pop\n      pop\n      jump\t// out\n        /* \"#utility.yul\":17287:17467   */\n    tag_382:\n        /* \"#utility.yul\":17335:17412   */\n      0x4e487b7100000000000000000000000000000000000000000000000000000000\n        /* \"#utility.yul\":17332:17333   */\n      0x00\n        /* \"#utility.yul\":17325:17413   */\n      mstore\n        /* \"#utility.yul\":17432:17436   */\n      0x11\n        /* \"#utility.yul\":17429:17430   */\n      0x04\n        /* \"#utility.yul\":17422:17437   */\n      mstore\n        /* \"#utility.yul\":17456:17460   */\n      0x24\n        /* \"#utility.yul\":17453:17454   */\n      0x00\n        /* \"#utility.yul\":17446:17461   */\n      revert\n        /* \"#utility.yul\":17473:17706   */\n    tag_91:\n        /* \"#utility.yul\":17512:17515   */\n      0x00\n        /* \"#utility.yul\":17535:17559   */\n      tag_578\n        /* \"#utility.yul\":17553:17558   */\n      dup3\n        /* \"#utility.yul\":17535:17559   */\n      tag_366\n      jump\t// in\n    tag_578:\n        /* \"#utility.yul\":17526:17559   */\n      swap2\n      pop\n        /* \"#utility.yul\":17581:17647   */\n      0xffffffffffffffffffffffffffffffffffffffffffffffffffffffffffffffff\n        /* \"#utility.yul\":17574:17579   */\n      dup3\n        /* \"#utility.yul\":17571:17648   */\n      eq\n        /* \"#utility.yul\":17568:17671   */\n      iszero\n      tag_579\n      jumpi\n        /* \"#utility.yul\":17651:17669   */\n      tag_580\n      tag_382\n      jump\t// in\n    tag_580:\n        /* \"#utility.yul\":17568:17671   */\n    tag_579:\n        /* \"#utility.yul\":17698:17699   */\n      0x01\n        /* \"#utility.yul\":17691:17696   */\n      dup3\n        /* \"#utility.yul\":17687:17700   */\n      add\n        /* \"#utility.yul\":17680:17700   */\n      swap1\n      pop\n        /* \"#utility.yul\":17473:17706   */\n      swap2\n      swap1\n      pop\n      jump\t// out\n        /* \"#utility.yul\":17712:17881   */\n    tag_383:\n        /* \"#utility.yul\":17796:17807   */\n      0x00\n        /* \"#utility.yul\":17830:17836   */\n      dup3\n        /* \"#utility.yul\":17825:17828   */\n      dup3\n        /* \"#utility.yul\":17818:17837   */\n      mstore\n        /* \"#utility.yul\":17870:17874   */\n      0x20\n        /* \"#utility.yul\":17865:17868   */\n      dup3\n        /* \"#utility.yul\":17861:17875   */\n      add\n        /* \"#utility.yul\":17846:17875   */\n      swap1\n      pop\n        /* \"#utility.yul\":17712:17881   */\n      swap3\n      swap2\n      pop\n      pop\n      jump\t// out\n        /* \"#utility.yul\":17887:18050   */\n    tag_384:\n        /* \"#utility.yul\":18027:18042   */\n      0x4e6f20616c6c6f77616e63657300000000000000000000000000000000000000\n        /* \"#utility.yul\":18023:18024   */\n      0x00\n        /* \"#utility.yul\":18015:18021   */\n      dup3\n        /* \"#utility.yul\":18011:18025   */\n      add\n        /* \"#utility.yul\":18004:18043   */\n      mstore\n        /* \"#utility.yul\":17887:18050   */\n      pop\n      jump\t// out\n        /* \"#utility.yul\":18056:18422   */\n    tag_385:\n        /* \"#utility.yul\":18198:18201   */\n      0x00\n        /* \"#utility.yul\":18219:18286   */\n      tag_584\n        /* \"#utility.yul\":18283:18285   */\n      0x0d\n        /* \"#utility.yul\":18278:18281   */\n      dup4\n        /* \"#utility.yul\":18219:18286   */\n      tag_383\n      jump\t// in\n    tag_584:\n        /* \"#utility.yul\":18212:18286   */\n      swap2\n      pop\n        /* \"#utility.yul\":18295:18388   */\n      tag_585\n        /* \"#utility.yul\":18384:18387   */\n      dup3\n        /* \"#utility.yul\":18295:18388   */\n      tag_384\n      jump\t// in\n    tag_585:\n        /* \"#utility.yul\":18413:18415   */\n      0x20\n        /* \"#utility.yul\":18408:18411   */\n      dup3\n        /* \"#utility.yul\":18404:18416   */\n      add\n        /* \"#utility.yul\":18397:18416   */\n      swap1\n      pop\n        /* \"#utility.yul\":18056:18422   */\n      swap2\n      swap1\n      pop\n      jump\t// out\n        /* \"#utility.yul\":18428:18847   */\n    tag_95:\n        /* \"#utility.yul\":18594:18598   */\n      0x00\n        /* \"#utility.yul\":18632:18634   */\n      0x20\n        /* \"#utility.yul\":18621:18630   */\n      dup3\n        /* \"#utility.yul\":18617:18635   */\n      add\n        /* \"#utility.yul\":18609:18635   */\n      swap1\n      pop\n        /* \"#utility.yul\":18681:18690   */\n      dup2\n        /* \"#utility.yul\":18675:18679   */\n      dup2\n        /* \"#utility.yul\":18671:18691   */\n      sub\n        /* \"#utility.yul\":18667:18668   */\n      0x00\n        /* \"#utility.yul\":18656:18665   */\n      dup4\n        /* \"#utility.yul\":18652:18669   */\n      add\n        /* \"#utility.yul\":18645:18692   */\n      mstore\n        /* \"#utility.yul\":18709:18840   */\n      tag_587\n        /* \"#utility.yul\":18835:18839   */\n      dup2\n        /* \"#utility.yul\":18709:18840   */\n      tag_385\n      jump\t// in\n    tag_587:\n        /* \"#utility.yul\":18701:18840   */\n      swap1\n      pop\n        /* \"#utility.yul\":18428:18847   */\n      swap2\n      swap1\n      pop\n      jump\t// out\n        /* \"#utility.yul\":18853:19230   */\n    tag_386:\n        /* \"#utility.yul\":18959:18962   */\n      0x00\n        /* \"#utility.yul\":18987:19026   */\n      tag_589\n        /* \"#utility.yul\":19020:19025   */\n      dup3\n        /* \"#utility.yul\":18987:19026   */\n      tag_359\n      jump\t// in\n    tag_589:\n        /* \"#utility.yul\":19042:19131   */\n      tag_590\n        /* \"#utility.yul\":19124:19130   */\n      dup2\n        /* \"#utility.yul\":19119:19122   */\n      dup6\n        /* \"#utility.yul\":19042:19131   */\n      tag_379\n      jump\t// in\n    tag_590:\n        /* \"#utility.yul\":19035:19131   */\n      swap4\n      pop\n        /* \"#utility.yul\":19140:19192   */\n      tag_591\n        /* \"#utility.yul\":19185:19191   */\n      dup2\n        /* \"#utility.yul\":19180:19183   */\n      dup6\n        /* \"#utility.yul\":19173:19177   */\n      0x20\n        /* \"#utility.yul\":19166:19171   */\n      dup7\n        /* \"#utility.yul\":19162:19178   */\n      add\n        /* \"#utility.yul\":19140:19192   */\n      tag_361\n      jump\t// in\n    tag_591:\n        /* \"#utility.yul\":19217:19223   */\n      dup1\n        /* \"#utility.yul\":19212:19215   */\n      dup5\n        /* \"#utility.yul\":19208:19224   */\n      add\n        /* \"#utility.yul\":19201:19224   */\n      swap2\n      pop\n        /* \"#utility.yul\":18963:19230   */\n      pop\n        /* \"#utility.yul\":18853:19230   */\n      swap3\n      swap2\n      pop\n      pop\n      jump\t// out\n        /* \"#utility.yul\":19236:19511   */\n    tag_103:\n        /* \"#utility.yul\":19368:19371   */\n      0x00\n        /* \"#utility.yul\":19390:19485   */\n      tag_593\n        /* \"#utility.yul\":19481:19484   */\n      dup3\n        /* \"#utility.yul\":19472:19478   */\n      dup5\n        /* \"#utility.yul\":19390:19485   */\n      tag_386\n      jump\t// in\n    tag_593:\n        /* \"#utility.yul\":19383:19485   */\n      swap2\n      pop\n        /* \"#utility.yul\":19502:19505   */\n      dup2\n        /* \"#utility.yul\":19495:19505   */\n      swap1\n      pop\n        /* \"#utility.yul\":19236:19511   */\n      swap3\n      swap2\n      pop\n      pop\n      jump\t// out\n        /* \"#utility.yul\":19517:19747   */\n    tag_387:\n        /* \"#utility.yul\":19657:19691   */\n      0x4e6f742064657465637465642061732061207061727469636970616e7420696e\n        /* \"#utility.yul\":19653:19654   */\n      0x00\n        /* \"#utility.yul\":19645:19651   */\n      dup3\n        /* \"#utility.yul\":19641:19655   */\n      add\n        /* \"#utility.yul\":19634:19692   */\n      mstore\n        /* \"#utility.yul\":19726:19739   */\n      0x206f75722073797374656d000000000000000000000000000000000000000000\n        /* \"#utility.yul\":19721:19723   */\n      0x20\n        /* \"#utility.yul\":19713:19719   */\n      dup3\n        /* \"#utility.yul\":19709:19724   */\n      add\n        /* \"#utility.yul\":19702:19740   */\n      mstore\n        /* \"#utility.yul\":19517:19747   */\n      pop\n      jump\t// out\n        /* \"#utility.yul\":19753:20119   */\n    tag_388:\n        /* \"#utility.yul\":19895:19898   */\n      0x00\n        /* \"#utility.yul\":19916:19983   */\n      tag_596\n        /* \"#utility.yul\":19980:19982   */\n      0x2b\n        /* \"#utility.yul\":19975:19978   */\n      dup4\n        /* \"#utility.yul\":19916:19983   */\n      tag_383\n      jump\t// in\n    tag_596:\n        /* \"#utility.yul\":19909:19983   */\n      swap2\n      pop\n        /* \"#utility.yul\":19992:20085   */\n      tag_597\n        /* \"#utility.yul\":20081:20084   */\n      dup3\n        /* \"#utility.yul\":19992:20085   */\n      tag_387\n      jump\t// in\n    tag_597:\n        /* \"#utility.yul\":20110:20112   */\n      0x40\n        /* \"#utility.yul\":20105:20108   */\n      dup3\n        /* \"#utility.yul\":20101:20113   */\n      add\n        /* \"#utility.yul\":20094:20113   */\n      swap1\n      pop\n        /* \"#utility.yul\":19753:20119   */\n      swap2\n      swap1\n      pop\n      jump\t// out\n        /* \"#utility.yul\":20125:20544   */\n    tag_137:\n        /* \"#utility.yul\":20291:20295   */\n      0x00\n        /* \"#utility.yul\":20329:20331   */\n      0x20\n        /* \"#utility.yul\":20318:20327   */\n      dup3\n        /* \"#utility.yul\":20314:20332   */\n      add\n        /* \"#utility.yul\":20306:20332   */\n      swap1\n      pop\n        /* \"#utility.yul\":20378:20387   */\n      dup2\n        /* \"#utility.yul\":20372:20376   */\n      dup2\n        /* \"#utility.yul\":20368:20388   */\n      sub\n        /* \"#utility.yul\":20364:20365   */\n      0x00\n        /* \"#utility.yul\":20353:20362   */\n      dup4\n        /* \"#utility.yul\":20349:20366   */\n      add\n        /* \"#utility.yul\":20342:20389   */\n      mstore\n        /* \"#utility.yul\":20406:20537   */\n      tag_599\n        /* \"#utility.yul\":20532:20536   */\n      dup2\n        /* \"#utility.yul\":20406:20537   */\n      tag_388\n      jump\t// in\n    tag_599:\n        /* \"#utility.yul\":20398:20537   */\n      swap1\n      pop\n        /* \"#utility.yul\":20125:20544   */\n      swap2\n      swap1\n      pop\n      jump\t// out\n        /* \"#utility.yul\":20550:20693   */\n    tag_389:\n        /* \"#utility.yul\":20607:20612   */\n      0x00\n        /* \"#utility.yul\":20638:20644   */\n      dup2\n        /* \"#utility.yul\":20632:20645   */\n      mload\n        /* \"#utility.yul\":20623:20645   */\n      swap1\n      pop\n        /* \"#utility.yul\":20654:20687   */\n      tag_601\n        /* \"#utility.yul\":20681:20686   */\n      dup2\n        /* \"#utility.yul\":20654:20687   */\n      tag_375\n      jump\t// in\n    tag_601:\n        /* \"#utility.yul\":20550:20693   */\n      swap3\n      swap2\n      pop\n      pop\n      jump\t// out\n        /* \"#utility.yul\":20699:21050   */\n    tag_144:\n        /* \"#utility.yul\":20769:20775   */\n      0x00\n        /* \"#utility.yul\":20818:20820   */\n      0x20\n        /* \"#utility.yul\":20806:20815   */\n      dup3\n        /* \"#utility.yul\":20797:20804   */\n      dup5\n        /* \"#utility.yul\":20793:20816   */\n      sub\n        /* \"#utility.yul\":20789:20821   */\n      slt\n        /* \"#utility.yul\":20786:20905   */\n      iszero\n      tag_603\n      jumpi\n        /* \"#utility.yul\":20824:20903   */\n      tag_604\n      tag_341\n      jump\t// in\n    tag_604:\n        /* \"#utility.yul\":20786:20905   */\n    tag_603:\n        /* \"#utility.yul\":20944:20945   */\n      0x00\n        /* \"#utility.yul\":20969:21033   */\n      tag_605\n        /* \"#utility.yul\":21025:21032   */\n      dup5\n        /* \"#utility.yul\":21016:21022   */\n      dup3\n        /* \"#utility.yul\":21005:21014   */\n      dup6\n        /* \"#utility.yul\":21001:21023   */\n      add\n        /* \"#utility.yul\":20969:21033   */\n      tag_389\n      jump\t// in\n    tag_605:\n        /* \"#utility.yul\":20959:21033   */\n      swap2\n      pop\n        /* \"#utility.yul\":20915:21043   */\n      pop\n        /* \"#utility.yul\":20699:21050   */\n      swap3\n      swap2\n      pop\n      pop\n      jump\t// out\n        /* \"#utility.yul\":21056:21388   */\n    tag_146:\n        /* \"#utility.yul\":21177:21181   */\n      0x00\n        /* \"#utility.yul\":21215:21217   */\n      0x40\n        /* \"#utility.yul\":21204:21213   */\n      dup3\n        /* \"#utility.yul\":21200:21218   */\n      add\n        /* \"#utility.yul\":21192:21218   */\n      swap1\n      pop\n        /* \"#utility.yul\":21228:21299   */\n      tag_607\n        /* \"#utility.yul\":21296:21297   */\n      0x00\n        /* \"#utility.yul\":21285:21294   */\n      dup4\n        /* \"#utility.yul\":21281:21298   */\n      add\n        /* \"#utility.yul\":21272:21278   */\n      dup6\n        /* \"#utility.yul\":21228:21299   */\n      tag_377\n      jump\t// in\n    tag_607:\n        /* \"#utility.yul\":21309:21381   */\n      tag_608\n        /* \"#utility.yul\":21377:21379   */\n      0x20\n        /* \"#utility.yul\":21366:21375   */\n      dup4\n        /* \"#utility.yul\":21362:21380   */\n      add\n        /* \"#utility.yul\":21353:21359   */\n      dup5\n        /* \"#utility.yul\":21309:21381   */\n      tag_367\n      jump\t// in\n    tag_608:\n        /* \"#utility.yul\":21056:21388   */\n      swap4\n      swap3\n      pop\n      pop\n      pop\n      jump\t// out\n        /* \"#utility.yul\":21394:21585   */\n    tag_152:\n        /* \"#utility.yul\":21434:21438   */\n      0x00\n        /* \"#utility.yul\":21454:21474   */\n      tag_610\n        /* \"#utility.yul\":21472:21473   */\n      dup3\n        /* \"#utility.yul\":21454:21474   */\n      tag_366\n      jump\t// in\n    tag_610:\n        /* \"#utility.yul\":21449:21474   */\n      swap2\n      pop\n        /* \"#utility.yul\":21488:21508   */\n      tag_611\n        /* \"#utility.yul\":21506:21507   */\n      dup4\n        /* \"#utility.yul\":21488:21508   */\n      tag_366\n      jump\t// in\n    tag_611:\n        /* \"#utility.yul\":21483:21508   */\n      swap3\n      pop\n        /* \"#utility.yul\":21527:21528   */\n      dup3\n        /* \"#utility.yul\":21524:21525   */\n      dup3\n        /* \"#utility.yul\":21521:21529   */\n      lt\n        /* \"#utility.yul\":21518:21552   */\n      iszero\n      tag_612\n      jumpi\n        /* \"#utility.yul\":21532:21550   */\n      tag_613\n      tag_382\n      jump\t// in\n    tag_613:\n        /* \"#utility.yul\":21518:21552   */\n    tag_612:\n        /* \"#utility.yul\":21577:21578   */\n      dup3\n        /* \"#utility.yul\":21574:21575   */\n      dup3\n        /* \"#utility.yul\":21570:21579   */\n      sub\n        /* \"#utility.yul\":21562:21579   */\n      swap1\n      pop\n        /* \"#utility.yul\":21394:21585   */\n      swap3\n      swap2\n      pop\n      pop\n      jump\t// out\n        /* \"#utility.yul\":21591:21771   */\n    tag_168:\n        /* \"#utility.yul\":21639:21716   */\n      0x4e487b7100000000000000000000000000000000000000000000000000000000\n        /* \"#utility.yul\":21636:21637   */\n      0x00\n        /* \"#utility.yul\":21629:21717   */\n      mstore\n        /* \"#utility.yul\":21736:21740   */\n      0x31\n        /* \"#utility.yul\":21733:21734   */\n      0x04\n        /* \"#utility.yul\":21726:21741   */\n      mstore\n        /* \"#utility.yul\":21760:21764   */\n      0x24\n        /* \"#utility.yul\":21757:21758   */\n      0x00\n        /* \"#utility.yul\":21750:21765   */\n      revert\n        /* \"#utility.yul\":21777:22082   */\n    tag_209:\n        /* \"#utility.yul\":21817:21820   */\n      0x00\n        /* \"#utility.yul\":21836:21856   */\n      tag_616\n        /* \"#utility.yul\":21854:21855   */\n      dup3\n        /* \"#utility.yul\":21836:21856   */\n      tag_366\n      jump\t// in\n    tag_616:\n        /* \"#utility.yul\":21831:21856   */\n      swap2\n      pop\n        /* \"#utility.yul\":21870:21890   */\n      tag_617\n        /* \"#utility.yul\":21888:21889   */\n      dup4\n        /* \"#utility.yul\":21870:21890   */\n      tag_366\n      jump\t// in\n    tag_617:\n        /* \"#utility.yul\":21865:21890   */\n      swap3\n      pop\n        /* \"#utility.yul\":22024:22025   */\n      dup3\n        /* \"#utility.yul\":21956:22022   */\n      0xffffffffffffffffffffffffffffffffffffffffffffffffffffffffffffffff\n        /* \"#utility.yul\":21952:22026   */\n      sub\n        /* \"#utility.yul\":21949:21950   */\n      dup3\n        /* \"#utility.yul\":21946:22027   */\n      gt\n        /* \"#utility.yul\":21943:22050   */\n      iszero\n      tag_618\n      jumpi\n        /* \"#utility.yul\":22030:22048   */\n      tag_619\n      tag_382\n      jump\t// in\n    tag_619:\n        /* \"#utility.yul\":21943:22050   */\n    tag_618:\n        /* \"#utility.yul\":22074:22075   */\n      dup3\n        /* \"#utility.yul\":22071:22072   */\n      dup3\n        /* \"#utility.yul\":22067:22076   */\n      add\n        /* \"#utility.yul\":22060:22076   */\n      swap1\n      pop\n        /* \"#utility.yul\":21777:22082   */\n      swap3\n      swap2\n      pop\n      pop\n      jump\t// out\n        /* \"#utility.yul\":22088:22269   */\n    tag_390:\n        /* \"#utility.yul\":22228:22261   */\n      0x5468697320636f6d706c61696e742069736e2774207265676973746572656400\n        /* \"#utility.yul\":22224:22225   */\n      0x00\n        /* \"#utility.yul\":22216:22222   */\n      dup3\n        /* \"#utility.yul\":22212:22226   */\n      add\n        /* \"#utility.yul\":22205:22262   */\n      mstore\n        /* \"#utility.yul\":22088:22269   */\n      pop\n      jump\t// out\n        /* \"#utility.yul\":22275:22641   */\n    tag_391:\n        /* \"#utility.yul\":22417:22420   */\n      0x00\n        /* \"#utility.yul\":22438:22505   */\n      tag_622\n        /* \"#utility.yul\":22502:22504   */\n      0x1f\n        /* \"#utility.yul\":22497:22500   */\n      dup4\n        /* \"#utility.yul\":22438:22505   */\n      tag_383\n      jump\t// in\n    tag_622:\n        /* \"#utility.yul\":22431:22505   */\n      swap2\n      pop\n        /* \"#utility.yul\":22514:22607   */\n      tag_623\n        /* \"#utility.yul\":22603:22606   */\n      dup3\n        /* \"#utility.yul\":22514:22607   */\n      tag_390\n      jump\t// in\n    tag_623:\n        /* \"#utility.yul\":22632:22634   */\n      0x20\n        /* \"#utility.yul\":22627:22630   */\n      dup3\n        /* \"#utility.yul\":22623:22635   */\n      add\n        /* \"#utility.yul\":22616:22635   */\n      swap1\n      pop\n        /* \"#utility.yul\":22275:22641   */\n      swap2\n      swap1\n      pop\n      jump\t// out\n        /* \"#utility.yul\":22647:23066   */\n    tag_240:\n        /* \"#utility.yul\":22813:22817   */\n      0x00\n        /* \"#utility.yul\":22851:22853   */\n      0x20\n        /* \"#utility.yul\":22840:22849   */\n      dup3\n        /* \"#utility.yul\":22836:22854   */\n      add\n        /* \"#utility.yul\":22828:22854   */\n      swap1\n      pop\n        /* \"#utility.yul\":22900:22909   */\n      dup2\n        /* \"#utility.yul\":22894:22898   */\n      dup2\n        /* \"#utility.yul\":22890:22910   */\n      sub\n        /* \"#utility.yul\":22886:22887   */\n      0x00\n        /* \"#utility.yul\":22875:22884   */\n      dup4\n        /* \"#utility.yul\":22871:22888   */\n      add\n        /* \"#utility.yul\":22864:22911   */\n      mstore\n        /* \"#utility.yul\":22928:23059   */\n      tag_625\n        /* \"#utility.yul\":23054:23058   */\n      dup2\n        /* \"#utility.yul\":22928:23059   */\n      tag_391\n      jump\t// in\n    tag_625:\n        /* \"#utility.yul\":22920:23059   */\n      swap1\n      pop\n        /* \"#utility.yul\":22647:23066   */\n      swap2\n      swap1\n      pop\n      jump\t// out\n        /* \"#utility.yul\":23072:23157   */\n    tag_392:\n        /* \"#utility.yul\":23117:23124   */\n      0x00\n        /* \"#utility.yul\":23146:23151   */\n      dup2\n        /* \"#utility.yul\":23135:23151   */\n      swap1\n      pop\n        /* \"#utility.yul\":23072:23157   */\n      swap2\n      swap1\n      pop\n      jump\t// out\n        /* \"#utility.yul\":23163:23223   */\n    tag_393:\n        /* \"#utility.yul\":23191:23194   */\n      0x00\n        /* \"#utility.yul\":23212:23217   */\n      dup2\n        /* \"#utility.yul\":23205:23217   */\n      swap1\n      pop\n        /* \"#utility.yul\":23163:23223   */\n      swap2\n      swap1\n      pop\n      jump\t// out\n        /* \"#utility.yul\":23229:23387   */\n    tag_394:\n        /* \"#utility.yul\":23287:23296   */\n      0x00\n        /* \"#utility.yul\":23320:23381   */\n      tag_629\n        /* \"#utility.yul\":23338:23380   */\n      tag_630\n        /* \"#utility.yul\":23347:23379   */\n      tag_631\n        /* \"#utility.yul\":23373:23378   */\n      dup5\n        /* \"#utility.yul\":23347:23379   */\n      tag_392\n      jump\t// in\n    tag_631:\n        /* \"#utility.yul\":23338:23380   */\n      tag_393\n      jump\t// in\n    tag_630:\n        /* \"#utility.yul\":23320:23381   */\n      tag_366\n      jump\t// in\n    tag_629:\n        /* \"#utility.yul\":23307:23381   */\n      swap1\n      pop\n        /* \"#utility.yul\":23229:23387   */\n      swap2\n      swap1\n      pop\n      jump\t// out\n        /* \"#utility.yul\":23393:23540   */\n    tag_395:\n        /* \"#utility.yul\":23488:23533   */\n      tag_633\n        /* \"#utility.yul\":23527:23532   */\n      dup2\n        /* \"#utility.yul\":23488:23533   */\n      tag_394\n      jump\t// in\n    tag_633:\n        /* \"#utility.yul\":23483:23486   */\n      dup3\n        /* \"#utility.yul\":23476:23534   */\n      mstore\n        /* \"#utility.yul\":23393:23540   */\n      pop\n      pop\n      jump\t// out\n        /* \"#utility.yul\":23546:23894   */\n    tag_269:\n        /* \"#utility.yul\":23675:23679   */\n      0x00\n        /* \"#utility.yul\":23713:23715   */\n      0x40\n        /* \"#utility.yul\":23702:23711   */\n      dup3\n        /* \"#utility.yul\":23698:23716   */\n      add\n        /* \"#utility.yul\":23690:23716   */\n      swap1\n      pop\n        /* \"#utility.yul\":23726:23797   */\n      tag_635\n        /* \"#utility.yul\":23794:23795   */\n      0x00\n        /* \"#utility.yul\":23783:23792   */\n      dup4\n        /* \"#utility.yul\":23779:23796   */\n      add\n        /* \"#utility.yul\":23770:23776   */\n      dup6\n        /* \"#utility.yul\":23726:23797   */\n      tag_377\n      jump\t// in\n    tag_635:\n        /* \"#utility.yul\":23807:23887   */\n      tag_636\n        /* \"#utility.yul\":23883:23885   */\n      0x20\n        /* \"#utility.yul\":23872:23881   */\n      dup4\n        /* \"#utility.yul\":23868:23886   */\n      add\n        /* \"#utility.yul\":23859:23865   */\n      dup5\n        /* \"#utility.yul\":23807:23887   */\n      tag_395\n      jump\t// in\n    tag_636:\n        /* \"#utility.yul\":23546:23894   */\n      swap4\n      swap3\n      pop\n      pop\n      pop\n      jump\t// out\n        /* \"#utility.yul\":23900:24082   */\n    tag_396:\n        /* \"#utility.yul\":24040:24074   */\n      0x436f6d70616e7920697320616c726561647920696e207468652073797374656d\n        /* \"#utility.yul\":24036:24037   */\n      0x00\n        /* \"#utility.yul\":24028:24034   */\n      dup3\n        /* \"#utility.yul\":24024:24038   */\n      add\n        /* \"#utility.yul\":24017:24075   */\n      mstore\n        /* \"#utility.yul\":23900:24082   */\n      pop\n      jump\t// out\n        /* \"#utility.yul\":24088:24454   */\n    tag_397:\n        /* \"#utility.yul\":24230:24233   */\n      0x00\n        /* \"#utility.yul\":24251:24318   */\n      tag_639\n        /* \"#utility.yul\":24315:24317   */\n      0x20\n        /* \"#utility.yul\":24310:24313   */\n      dup4\n        /* \"#utility.yul\":24251:24318   */\n      tag_383\n      jump\t// in\n    tag_639:\n        /* \"#utility.yul\":24244:24318   */\n      swap2\n      pop\n        /* \"#utility.yul\":24327:24420   */\n      tag_640\n        /* \"#utility.yul\":24416:24419   */\n      dup3\n        /* \"#utility.yul\":24327:24420   */\n      tag_396\n      jump\t// in\n    tag_640:\n        /* \"#utility.yul\":24445:24447   */\n      0x20\n        /* \"#utility.yul\":24440:24443   */\n      dup3\n        /* \"#utility.yul\":24436:24448   */\n      add\n        /* \"#utility.yul\":24429:24448   */\n      swap1\n      pop\n        /* \"#utility.yul\":24088:24454   */\n      swap2\n      swap1\n      pop\n      jump\t// out\n        /* \"#utility.yul\":24460:24879   */\n    tag_305:\n        /* \"#utility.yul\":24626:24630   */\n      0x00\n        /* \"#utility.yul\":24664:24666   */\n      0x20\n        /* \"#utility.yul\":24653:24662   */\n      dup3\n        /* \"#utility.yul\":24649:24667   */\n      add\n        /* \"#utility.yul\":24641:24667   */\n      swap1\n      pop\n        /* \"#utility.yul\":24713:24722   */\n      dup2\n        /* \"#utility.yul\":24707:24711   */\n      dup2\n        /* \"#utility.yul\":24703:24723   */\n      sub\n        /* \"#utility.yul\":24699:24700   */\n      0x00\n        /* \"#utility.yul\":24688:24697   */\n      dup4\n        /* \"#utility.yul\":24684:24701   */\n      add\n        /* \"#utility.yul\":24677:24724   */\n      mstore\n        /* \"#utility.yul\":24741:24872   */\n      tag_642\n        /* \"#utility.yul\":24867:24871   */\n      dup2\n        /* \"#utility.yul\":24741:24872   */\n      tag_397\n      jump\t// in\n    tag_642:\n        /* \"#utility.yul\":24733:24872   */\n      swap1\n      pop\n        /* \"#utility.yul\":24460:24879   */\n      swap2\n      swap1\n      pop\n      jump\t// out\n\n    auxdata: 0xa264697066735822122094d5d5327f6611fb123e3c7f5e20e1b3ef8e10930f0d6899d13e04adbd7a190864736f6c634300080a0033\n}\n\nsub_1: assembly {\n        /* \"ReputationControlV2.sol\":119:1117  contract ReksTokens is ERC20{... */\n      mstore(0x40, 0xa0)\n        /* \"ReputationControlV2.sol\":288:402  constructor(string memory _name, string memory _symbol) ERC20(_name, _symbol){... */\n      callvalue\n      dup1\n      iszero\n      tag_1\n      jumpi\n      0x00\n      dup1\n      revert\n    tag_1:\n      pop\n      mload(0x40)\n      sub(codesize, bytecodeSize)\n      dup1\n      bytecodeSize\n      dup4\n      codecopy\n      dup2\n      dup2\n      add\n      0x40\n      mstore\n      dup2\n      add\n      swap1\n      tag_2\n      swap2\n      swap1\n      tag_3\n      jump\t// in\n    tag_2:\n        /* \"ReputationControlV2.sol\":350:355  _name */\n      dup2\n        /* \"ReputationControlV2.sol\":357:364  _symbol */\n      dup2\n        /* \"@openzeppelin/contracts/token/ERC20/ERC20.sol\":2052:2057   */\n      dup2\n        /* \"@openzeppelin/contracts/token/ERC20/ERC20.sol\":2044:2049   */\n      0x03\n        /* \"@openzeppelin/contracts/token/ERC20/ERC20.sol\":2044:2057   */\n      swap1\n      dup1\n      mload\n      swap1\n      0x20\n      add\n      swap1\n      tag_7\n      swap3\n      swap2\n      swap1\n      tag_8\n      jump\t// in\n    tag_7:\n      pop\n        /* \"@openzeppelin/contracts/token/ERC20/ERC20.sol\":2077:2084   */\n      dup1\n        /* \"@openzeppelin/contracts/token/ERC20/ERC20.sol\":2067:2074   */\n      0x04\n        /* \"@openzeppelin/contracts/token/ERC20/ERC20.sol\":2067:2084   */\n      swap1\n      dup1\n      mload\n      swap1\n      0x20\n      add\n      swap1\n      tag_9\n      swap3\n      swap2\n      swap1\n      tag_8\n      jump\t// in\n    tag_9:\n      pop\n        /* \"@openzeppelin/contracts/token/ERC20/ERC20.sol\":1978:2091   */\n      pop\n      pop\n        /* \"ReputationControlV2.sol\":384:394  msg.sender */\n      caller\n        /* \"ReputationControlV2.sol\":376:394  owner = msg.sender */\n      0xffffffffffffffffffffffffffffffffffffffff\n      and\n      0x80\n      dup2\n      0xffffffffffffffffffffffffffffffffffffffff\n      and\n      dup2\n      mstore\n      pop\n      pop\n        /* \"ReputationControlV2.sol\":288:402  constructor(string memory _name, string memory _symbol) ERC20(_name, _symbol){... */\n      pop\n      pop\n        /* \"ReputationControlV2.sol\":119:1117  contract ReksTokens is ERC20{... */\n      jump(tag_11)\n    tag_8:\n      dup3\n      dup1\n      sload\n      tag_12\n      swap1\n      tag_13\n      jump\t// in\n    tag_12:\n      swap1\n      0x00\n      mstore\n      keccak256(0x00, 0x20)\n      swap1\n      0x1f\n      add\n      0x20\n      swap1\n      div\n      dup2\n      add\n      swap3\n      dup3\n      tag_15\n      jumpi\n      0x00\n      dup6\n      sstore\n      jump(tag_14)\n    tag_15:\n      dup3\n      0x1f\n      lt\n      tag_16\n      jumpi\n      dup1\n      mload\n      not(0xff)\n      and\n      dup4\n      dup1\n      add\n      or\n      dup6\n      sstore\n      jump(tag_14)\n    tag_16:\n      dup3\n      dup1\n      add\n      0x01\n      add\n      dup6\n      sstore\n      dup3\n      iszero\n      tag_14\n      jumpi\n      swap2\n      dup3\n      add\n    tag_17:\n      dup3\n      dup2\n      gt\n      iszero\n      tag_18\n      jumpi\n      dup3\n      mload\n      dup3\n      sstore\n      swap2\n      0x20\n      add\n      swap2\n      swap1\n      0x01\n      add\n      swap1\n      jump(tag_17)\n    tag_18:\n    tag_14:\n      pop\n      swap1\n      pop\n      tag_19\n      swap2\n      swap1\n      tag_20\n      jump\t// in\n    tag_19:\n      pop\n      swap1\n      jump\t// out\n    tag_20:\n    tag_21:\n      dup1\n      dup3\n      gt\n      iszero\n      tag_22\n      jumpi\n      0x00\n      dup2\n      0x00\n      swap1\n      sstore\n      pop\n      0x01\n      add\n      jump(tag_21)\n    tag_22:\n      pop\n      swap1\n      jump\t// out\n        /* \"#utility.yul\":7:82   */\n    tag_23:\n        /* \"#utility.yul\":40:46   */\n      0x00\n        /* \"#utility.yul\":73:75   */\n      0x40\n        /* \"#utility.yul\":67:76   */\n      mload\n        /* \"#utility.yul\":57:76   */\n      swap1\n      pop\n        /* \"#utility.yul\":7:82   */\n      swap1\n      jump\t// out\n        /* \"#utility.yul\":88:205   */\n    tag_24:\n        /* \"#utility.yul\":197:198   */\n      0x00\n        /* \"#utility.yul\":194:195   */\n      dup1\n        /* \"#utility.yul\":187:199   */\n      revert\n        /* \"#utility.yul\":211:328   */\n    tag_25:\n        /* \"#utility.yul\":320:321   */\n      0x00\n        /* \"#utility.yul\":317:318   */\n      dup1\n        /* \"#utility.yul\":310:322   */\n      revert\n        /* \"#utility.yul\":334:451   */\n    tag_26:\n        /* \"#utility.yul\":443:444   */\n      0x00\n        /* \"#utility.yul\":440:441   */\n      dup1\n        /* \"#utility.yul\":433:445   */\n      revert\n        /* \"#utility.yul\":457:574   */\n    tag_27:\n        /* \"#utility.yul\":566:567   */\n      0x00\n        /* \"#utility.yul\":563:564   */\n      dup1\n        /* \"#utility.yul\":556:568   */\n      revert\n        /* \"#utility.yul\":580:682   */\n    tag_28:\n        /* \"#utility.yul\":621:627   */\n      0x00\n        /* \"#utility.yul\":672:674   */\n      0x1f\n        /* \"#utility.yul\":668:675   */\n      not\n        /* \"#utility.yul\":663:665   */\n      0x1f\n        /* \"#utility.yul\":656:661   */\n      dup4\n        /* \"#utility.yul\":652:666   */\n      add\n        /* \"#utility.yul\":648:676   */\n      and\n        /* \"#utility.yul\":638:676   */\n      swap1\n      pop\n        /* \"#utility.yul\":580:682   */\n      swap2\n      swap1\n      pop\n      jump\t// out\n        /* \"#utility.yul\":688:868   */\n    tag_29:\n        /* \"#utility.yul\":736:813   */\n      0x4e487b7100000000000000000000000000000000000000000000000000000000\n        /* \"#utility.yul\":733:734   */\n      0x00\n        /* \"#utility.yul\":726:814   */\n      mstore\n        /* \"#utility.yul\":833:837   */\n      0x41\n        /* \"#utility.yul\":830:831   */\n      0x04\n        /* \"#utility.yul\":823:838   */\n      mstore\n        /* \"#utility.yul\":857:861   */\n      0x24\n        /* \"#utility.yul\":854:855   */\n      0x00\n        /* \"#utility.yul\":847:862   */\n      revert\n        /* \"#utility.yul\":874:1155   */\n    tag_30:\n        /* \"#utility.yul\":957:984   */\n      tag_46\n        /* \"#utility.yul\":979:983   */\n      dup3\n        /* \"#utility.yul\":957:984   */\n      tag_28\n      jump\t// in\n    tag_46:\n        /* \"#utility.yul\":949:955   */\n      dup2\n        /* \"#utility.yul\":945:985   */\n      add\n        /* \"#utility.yul\":1087:1093   */\n      dup2\n        /* \"#utility.yul\":1075:1085   */\n      dup2\n        /* \"#utility.yul\":1072:1094   */\n      lt\n        /* \"#utility.yul\":1051:1069   */\n      0xffffffffffffffff\n        /* \"#utility.yul\":1039:1049   */\n      dup3\n        /* \"#utility.yul\":1036:1070   */\n      gt\n        /* \"#utility.yul\":1033:1095   */\n      or\n        /* \"#utility.yul\":1030:1118   */\n      iszero\n      tag_47\n      jumpi\n        /* \"#utility.yul\":1098:1116   */\n      tag_48\n      tag_29\n      jump\t// in\n    tag_48:\n        /* \"#utility.yul\":1030:1118   */\n    tag_47:\n        /* \"#utility.yul\":1138:1148   */\n      dup1\n        /* \"#utility.yul\":1134:1136   */\n      0x40\n        /* \"#utility.yul\":1127:1149   */\n      mstore\n        /* \"#utility.yul\":917:1155   */\n      pop\n        /* \"#utility.yul\":874:1155   */\n      pop\n      pop\n      jump\t// out\n        /* \"#utility.yul\":1161:1290   */\n    tag_31:\n        /* \"#utility.yul\":1195:1201   */\n      0x00\n        /* \"#utility.yul\":1222:1242   */\n      tag_50\n      tag_23\n      jump\t// in\n    tag_50:\n        /* \"#utility.yul\":1212:1242   */\n      swap1\n      pop\n        /* \"#utility.yul\":1251:1284   */\n      tag_51\n        /* \"#utility.yul\":1279:1283   */\n      dup3\n        /* \"#utility.yul\":1271:1277   */\n      dup3\n        /* \"#utility.yul\":1251:1284   */\n      tag_30\n      jump\t// in\n    tag_51:\n        /* \"#utility.yul\":1161:1290   */\n      swap2\n      swap1\n      pop\n      jump\t// out\n        /* \"#utility.yul\":1296:1604   */\n    tag_32:\n        /* \"#utility.yul\":1358:1362   */\n      0x00\n        /* \"#utility.yul\":1448:1466   */\n      0xffffffffffffffff\n        /* \"#utility.yul\":1440:1446   */\n      dup3\n        /* \"#utility.yul\":1437:1467   */\n      gt\n        /* \"#utility.yul\":1434:1490   */\n      iszero\n      tag_53\n      jumpi\n        /* \"#utility.yul\":1470:1488   */\n      tag_54\n      tag_29\n      jump\t// in\n    tag_54:\n        /* \"#utility.yul\":1434:1490   */\n    tag_53:\n        /* \"#utility.yul\":1508:1537   */\n      tag_55\n        /* \"#utility.yul\":1530:1536   */\n      dup3\n        /* \"#utility.yul\":1508:1537   */\n      tag_28\n      jump\t// in\n    tag_55:\n        /* \"#utility.yul\":1500:1537   */\n      swap1\n      pop\n        /* \"#utility.yul\":1592:1596   */\n      0x20\n        /* \"#utility.yul\":1586:1590   */\n      dup2\n        /* \"#utility.yul\":1582:1597   */\n      add\n        /* \"#utility.yul\":1574:1597   */\n      swap1\n      pop\n        /* \"#utility.yul\":1296:1604   */\n      swap2\n      swap1\n      pop\n      jump\t// out\n        /* \"#utility.yul\":1610:1917   */\n    tag_33:\n        /* \"#utility.yul\":1678:1679   */\n      0x00\n        /* \"#utility.yul\":1688:1801   */\n    tag_57:\n        /* \"#utility.yul\":1702:1708   */\n      dup4\n        /* \"#utility.yul\":1699:1700   */\n      dup2\n        /* \"#utility.yul\":1696:1709   */\n      lt\n        /* \"#utility.yul\":1688:1801   */\n      iszero\n      tag_59\n      jumpi\n        /* \"#utility.yul\":1787:1788   */\n      dup1\n        /* \"#utility.yul\":1782:1785   */\n      dup3\n        /* \"#utility.yul\":1778:1789   */\n      add\n        /* \"#utility.yul\":1772:1790   */\n      mload\n        /* \"#utility.yul\":1768:1769   */\n      dup2\n        /* \"#utility.yul\":1763:1766   */\n      dup5\n        /* \"#utility.yul\":1759:1770   */\n      add\n        /* \"#utility.yul\":1752:1791   */\n      mstore\n        /* \"#utility.yul\":1724:1726   */\n      0x20\n        /* \"#utility.yul\":1721:1722   */\n      dup2\n        /* \"#utility.yul\":1717:1727   */\n      add\n        /* \"#utility.yul\":1712:1727   */\n      swap1\n      pop\n        /* \"#utility.yul\":1688:1801   */\n      jump(tag_57)\n    tag_59:\n        /* \"#utility.yul\":1819:1825   */\n      dup4\n        /* \"#utility.yul\":1816:1817   */\n      dup2\n        /* \"#utility.yul\":1813:1826   */\n      gt\n        /* \"#utility.yul\":1810:1911   */\n      iszero\n      tag_60\n      jumpi\n        /* \"#utility.yul\":1899:1900   */\n      0x00\n        /* \"#utility.yul\":1890:1896   */\n      dup5\n        /* \"#utility.yul\":1885:1888   */\n      dup5\n        /* \"#utility.yul\":1881:1897   */\n      add\n        /* \"#utility.yul\":1874:1901   */\n      mstore\n        /* \"#utility.yul\":1810:1911   */\n    tag_60:\n        /* \"#utility.yul\":1659:1917   */\n      pop\n        /* \"#utility.yul\":1610:1917   */\n      pop\n      pop\n      pop\n      jump\t// out\n        /* \"#utility.yul\":1923:2344   */\n    tag_34:\n        /* \"#utility.yul\":2012:2017   */\n      0x00\n        /* \"#utility.yul\":2037:2103   */\n      tag_62\n        /* \"#utility.yul\":2053:2102   */\n      tag_63\n        /* \"#utility.yul\":2095:2101   */\n      dup5\n        /* \"#utility.yul\":2053:2102   */\n      tag_32\n      jump\t// in\n    tag_63:\n        /* \"#utility.yul\":2037:2103   */\n      tag_31\n      jump\t// in\n    tag_62:\n        /* \"#utility.yul\":2028:2103   */\n      swap1\n      pop\n        /* \"#utility.yul\":2126:2132   */\n      dup3\n        /* \"#utility.yul\":2119:2124   */\n      dup2\n        /* \"#utility.yul\":2112:2133   */\n      mstore\n        /* \"#utility.yul\":2164:2168   */\n      0x20\n        /* \"#utility.yul\":2157:2162   */\n      dup2\n        /* \"#utility.yul\":2153:2169   */\n      add\n        /* \"#utility.yul\":2202:2205   */\n      dup5\n        /* \"#utility.yul\":2193:2199   */\n      dup5\n        /* \"#utility.yul\":2188:2191   */\n      dup5\n        /* \"#utility.yul\":2184:2200   */\n      add\n        /* \"#utility.yul\":2181:2206   */\n      gt\n        /* \"#utility.yul\":2178:2290   */\n      iszero\n      tag_64\n      jumpi\n        /* \"#utility.yul\":2209:2288   */\n      tag_65\n      tag_27\n      jump\t// in\n    tag_65:\n        /* \"#utility.yul\":2178:2290   */\n    tag_64:\n        /* \"#utility.yul\":2299:2338   */\n      tag_66\n        /* \"#utility.yul\":2331:2337   */\n      dup5\n        /* \"#utility.yul\":2326:2329   */\n      dup3\n        /* \"#utility.yul\":2321:2324   */\n      dup6\n        /* \"#utility.yul\":2299:2338   */\n      tag_33\n      jump\t// in\n    tag_66:\n        /* \"#utility.yul\":2018:2344   */\n      pop\n        /* \"#utility.yul\":1923:2344   */\n      swap4\n      swap3\n      pop\n      pop\n      pop\n      jump\t// out\n        /* \"#utility.yul\":2364:2719   */\n    tag_35:\n        /* \"#utility.yul\":2431:2436   */\n      0x00\n        /* \"#utility.yul\":2480:2483   */\n      dup3\n        /* \"#utility.yul\":2473:2477   */\n      0x1f\n        /* \"#utility.yul\":2465:2471   */\n      dup4\n        /* \"#utility.yul\":2461:2478   */\n      add\n        /* \"#utility.yul\":2457:2484   */\n      slt\n        /* \"#utility.yul\":2447:2569   */\n      tag_68\n      jumpi\n        /* \"#utility.yul\":2488:2567   */\n      tag_69\n      tag_26\n      jump\t// in\n    tag_69:\n        /* \"#utility.yul\":2447:2569   */\n    tag_68:\n        /* \"#utility.yul\":2598:2604   */\n      dup2\n        /* \"#utility.yul\":2592:2605   */\n      mload\n        /* \"#utility.yul\":2623:2713   */\n      tag_70\n        /* \"#utility.yul\":2709:2712   */\n      dup5\n        /* \"#utility.yul\":2701:2707   */\n      dup3\n        /* \"#utility.yul\":2694:2698   */\n      0x20\n        /* \"#utility.yul\":2686:2692   */\n      dup7\n        /* \"#utility.yul\":2682:2699   */\n      add\n        /* \"#utility.yul\":2623:2713   */\n      tag_34\n      jump\t// in\n    tag_70:\n        /* \"#utility.yul\":2614:2713   */\n      swap2\n      pop\n        /* \"#utility.yul\":2437:2719   */\n      pop\n        /* \"#utility.yul\":2364:2719   */\n      swap3\n      swap2\n      pop\n      pop\n      jump\t// out\n        /* \"#utility.yul\":2725:3578   */\n    tag_3:\n        /* \"#utility.yul\":2824:2830   */\n      0x00\n        /* \"#utility.yul\":2832:2838   */\n      dup1\n        /* \"#utility.yul\":2881:2883   */\n      0x40\n        /* \"#utility.yul\":2869:2878   */\n      dup4\n        /* \"#utility.yul\":2860:2867   */\n      dup6\n        /* \"#utility.yul\":2856:2879   */\n      sub\n        /* \"#utility.yul\":2852:2884   */\n      slt\n        /* \"#utility.yul\":2849:2968   */\n      iszero\n      tag_72\n      jumpi\n        /* \"#utility.yul\":2887:2966   */\n      tag_73\n      tag_24\n      jump\t// in\n    tag_73:\n        /* \"#utility.yul\":2849:2968   */\n    tag_72:\n        /* \"#utility.yul\":3028:3029   */\n      0x00\n        /* \"#utility.yul\":3017:3026   */\n      dup4\n        /* \"#utility.yul\":3013:3030   */\n      add\n        /* \"#utility.yul\":3007:3031   */\n      mload\n        /* \"#utility.yul\":3058:3076   */\n      0xffffffffffffffff\n        /* \"#utility.yul\":3050:3056   */\n      dup2\n        /* \"#utility.yul\":3047:3077   */\n      gt\n        /* \"#utility.yul\":3044:3161   */\n      iszero\n      tag_74\n      jumpi\n        /* \"#utility.yul\":3080:3159   */\n      tag_75\n      tag_25\n      jump\t// in\n    tag_75:\n        /* \"#utility.yul\":3044:3161   */\n    tag_74:\n        /* \"#utility.yul\":3185:3259   */\n      tag_76\n        /* \"#utility.yul\":3251:3258   */\n      dup6\n        /* \"#utility.yul\":3242:3248   */\n      dup3\n        /* \"#utility.yul\":3231:3240   */\n      dup7\n        /* \"#utility.yul\":3227:3249   */\n      add\n        /* \"#utility.yul\":3185:3259   */\n      tag_35\n      jump\t// in\n    tag_76:\n        /* \"#utility.yul\":3175:3259   */\n      swap3\n      pop\n        /* \"#utility.yul\":2978:3269   */\n      pop\n        /* \"#utility.yul\":3329:3331   */\n      0x20\n        /* \"#utility.yul\":3318:3327   */\n      dup4\n        /* \"#utility.yul\":3314:3332   */\n      add\n        /* \"#utility.yul\":3308:3333   */\n      mload\n        /* \"#utility.yul\":3360:3378   */\n      0xffffffffffffffff\n        /* \"#utility.yul\":3352:3358   */\n      dup2\n        /* \"#utility.yul\":3349:3379   */\n      gt\n        /* \"#utility.yul\":3346:3463   */\n      iszero\n      tag_77\n      jumpi\n        /* \"#utility.yul\":3382:3461   */\n      tag_78\n      tag_25\n      jump\t// in\n    tag_78:\n        /* \"#utility.yul\":3346:3463   */\n    tag_77:\n        /* \"#utility.yul\":3487:3561   */\n      tag_79\n        /* \"#utility.yul\":3553:3560   */\n      dup6\n        /* \"#utility.yul\":3544:3550   */\n      dup3\n        /* \"#utility.yul\":3533:3542   */\n      dup7\n        /* \"#utility.yul\":3529:3551   */\n      add\n        /* \"#utility.yul\":3487:3561   */\n      tag_35\n      jump\t// in\n    tag_79:\n        /* \"#utility.yul\":3477:3561   */\n      swap2\n      pop\n        /* \"#utility.yul\":3279:3571   */\n      pop\n        /* \"#utility.yul\":2725:3578   */\n      swap3\n      pop\n      swap3\n      swap1\n      pop\n      jump\t// out\n        /* \"#utility.yul\":3584:3764   */\n    tag_36:\n        /* \"#utility.yul\":3632:3709   */\n      0x4e487b7100000000000000000000000000000000000000000000000000000000\n        /* \"#utility.yul\":3629:3630   */\n      0x00\n        /* \"#utility.yul\":3622:3710   */\n      mstore\n        /* \"#utility.yul\":3729:3733   */\n      0x22\n        /* \"#utility.yul\":3726:3727   */\n      0x04\n        /* \"#utility.yul\":3719:3734   */\n      mstore\n        /* \"#utility.yul\":3753:3757   */\n      0x24\n        /* \"#utility.yul\":3750:3751   */\n      0x00\n        /* \"#utility.yul\":3743:3758   */\n      revert\n        /* \"#utility.yul\":3770:4090   */\n    tag_13:\n        /* \"#utility.yul\":3814:3820   */\n      0x00\n        /* \"#utility.yul\":3851:3852   */\n      0x02\n        /* \"#utility.yul\":3845:3849   */\n      dup3\n        /* \"#utility.yul\":3841:3853   */\n      div\n        /* \"#utility.yul\":3831:3853   */\n      swap1\n      pop\n        /* \"#utility.yul\":3898:3899   */\n      0x01\n        /* \"#utility.yul\":3892:3896   */\n      dup3\n        /* \"#utility.yul\":3888:3900   */\n      and\n        /* \"#utility.yul\":3919:3937   */\n      dup1\n        /* \"#utility.yul\":3909:3990   */\n      tag_82\n      jumpi\n        /* \"#utility.yul\":3975:3979   */\n      0x7f\n        /* \"#utility.yul\":3967:3973   */\n      dup3\n        /* \"#utility.yul\":3963:3980   */\n      and\n        /* \"#utility.yul\":3953:3980   */\n      swap2\n      pop\n        /* \"#utility.yul\":3909:3990   */\n    tag_82:\n        /* \"#utility.yul\":4037:4039   */\n      0x20\n        /* \"#utility.yul\":4029:4035   */\n      dup3\n        /* \"#utility.yul\":4026:4040   */\n      lt\n        /* \"#utility.yul\":4006:4024   */\n      dup2\n        /* \"#utility.yul\":4003:4041   */\n      eq\n        /* \"#utility.yul\":4000:4084   */\n      iszero\n      tag_83\n      jumpi\n        /* \"#utility.yul\":4056:4074   */\n      tag_84\n      tag_36\n      jump\t// in\n    tag_84:\n        /* \"#utility.yul\":4000:4084   */\n    tag_83:\n        /* \"#utility.yul\":3821:4090   */\n      pop\n        /* \"#utility.yul\":3770:4090   */\n      swap2\n      swap1\n      pop\n      jump\t// out\n        /* \"ReputationControlV2.sol\":119:1117  contract ReksTokens is ERC20{... */\n    tag_11:\n      mload(0x80)\n      codecopy(0x00, dataOffset(sub_0), dataSize(sub_0))\n      0x00\n      assignImmutable(\"0xe455bf8ea6e7463a1046a0b52804526e119b4bf5136279614e0b1e8e296a4e2d\")\n      return(0x00, dataSize(sub_0))\n    stop\n\n    sub_0: assembly {\n            /* \"ReputationControlV2.sol\":119:1117  contract ReksTokens is ERC20{... */\n          mstore(0x40, 0x80)\n          callvalue\n          dup1\n          iszero\n          tag_1\n          jumpi\n          0x00\n          dup1\n          revert\n        tag_1:\n          pop\n          jumpi(tag_2, lt(calldatasize, 0x04))\n          shr(0xe0, calldataload(0x00))\n          dup1\n          0x40c10f19\n          gt\n          tag_16\n          jumpi\n          dup1\n          0x9dc29fac\n          gt\n          tag_17\n          jumpi\n          dup1\n          0x9dc29fac\n          eq\n          tag_12\n          jumpi\n          dup1\n          0xa457c2d7\n          eq\n          tag_13\n          jumpi\n          dup1\n          0xa9059cbb\n          eq\n          tag_14\n          jumpi\n          dup1\n          0xdd62ed3e\n          eq\n          tag_15\n          jumpi\n          jump(tag_2)\n        tag_17:\n          dup1\n          0x40c10f19\n          eq\n          tag_9\n          jumpi\n          dup1\n          0x70a08231\n          eq\n          tag_10\n          jumpi\n          dup1\n          0x95d89b41\n          eq\n          tag_11\n          jumpi\n          jump(tag_2)\n        tag_16:\n          dup1\n          0x06fdde03\n          eq\n          tag_3\n          jumpi\n          dup1\n          0x095ea7b3\n          eq\n          tag_4\n          jumpi\n          dup1\n          0x18160ddd\n          eq\n          tag_5\n          jumpi\n          dup1\n          0x23b872dd\n          eq\n          tag_6\n          jumpi\n          dup1\n          0x313ce567\n          eq\n          tag_7\n          jumpi\n          dup1\n          0x39509351\n          eq\n          tag_8\n          jumpi\n        tag_2:\n          0x00\n          dup1\n          revert\n            /* \"@openzeppelin/contracts/token/ERC20/ERC20.sol\":2156:2254   */\n        tag_3:\n          tag_18\n          tag_19\n          jump\t// in\n        tag_18:\n          mload(0x40)\n          tag_20\n          swap2\n          swap1\n          tag_21\n          jump\t// in\n        tag_20:\n          mload(0x40)\n          dup1\n          swap2\n          sub\n          swap1\n          return\n            /* \"@openzeppelin/contracts/token/ERC20/ERC20.sol\":4433:4630   */\n        tag_4:\n          tag_22\n          0x04\n          dup1\n          calldatasize\n          sub\n          dup2\n          add\n          swap1\n          tag_23\n          swap2\n          swap1\n          tag_24\n          jump\t// in\n        tag_23:\n          tag_25\n          jump\t// in\n        tag_22:\n          mload(0x40)\n          tag_26\n          swap2\n          swap1\n          tag_27\n          jump\t// in\n        tag_26:\n          mload(0x40)\n          dup1\n          swap2\n          sub\n          swap1\n          return\n            /* \"@openzeppelin/contracts/token/ERC20/ERC20.sol\":3244:3350   */\n        tag_5:\n          tag_28\n          tag_29\n          jump\t// in\n        tag_28:\n          mload(0x40)\n          tag_30\n          swap2\n          swap1\n          tag_31\n          jump\t// in\n        tag_30:\n          mload(0x40)\n          dup1\n          swap2\n          sub\n          swap1\n          return\n            /* \"ReputationControlV2.sol\":817:1114  function transferFrom(... */\n        tag_6:\n          tag_32\n          0x04\n          dup1\n          calldatasize\n          sub\n          dup2\n          add\n          swap1\n          tag_33\n          swap2\n          swap1\n          tag_34\n          jump\t// in\n        tag_33:\n          tag_35\n          jump\t// in\n        tag_32:\n          mload(0x40)\n          tag_36\n          swap2\n          swap1\n          tag_27\n          jump\t// in\n        tag_36:\n          mload(0x40)\n          dup1\n          swap2\n          sub\n          swap1\n          return\n            /* \"@openzeppelin/contracts/token/ERC20/ERC20.sol\":3093:3184   */\n        tag_7:\n          tag_37\n          tag_38\n          jump\t// in\n        tag_37:\n          mload(0x40)\n          tag_39\n          swap2\n          swap1\n          tag_40\n          jump\t// in\n        tag_39:\n          mload(0x40)\n          dup1\n          swap2\n          sub\n          swap1\n          return\n            /* \"@openzeppelin/contracts/token/ERC20/ERC20.sol\":5873:6107   */\n        tag_8:\n          tag_41\n          0x04\n          dup1\n          calldatasize\n          sub\n          dup2\n          add\n          swap1\n          tag_42\n          swap2\n          swap1\n          tag_24\n          jump\t// in\n        tag_42:\n          tag_43\n          jump\t// in\n        tag_41:\n          mload(0x40)\n          tag_44\n          swap2\n          swap1\n          tag_27\n          jump\t// in\n        tag_44:\n          mload(0x40)\n          dup1\n          swap2\n          sub\n          swap1\n          return\n            /* \"ReputationControlV2.sol\":410:503  function mint(address to, uint256 amount) public onlyOwner{... */\n        tag_9:\n          tag_45\n          0x04\n          dup1\n          calldatasize\n          sub\n          dup2\n          add\n          swap1\n          tag_46\n          swap2\n          swap1\n          tag_24\n          jump\t// in\n        tag_46:\n          tag_47\n          jump\t// in\n        tag_45:\n          stop\n            /* \"@openzeppelin/contracts/token/ERC20/ERC20.sol\":3408:3533   */\n        tag_10:\n          tag_48\n          0x04\n          dup1\n          calldatasize\n          sub\n          dup2\n          add\n          swap1\n          tag_49\n          swap2\n          swap1\n          tag_50\n          jump\t// in\n        tag_49:\n          tag_51\n          jump\t// in\n        tag_48:\n          mload(0x40)\n          tag_52\n          swap2\n          swap1\n          tag_31\n          jump\t// in\n        tag_52:\n          mload(0x40)\n          dup1\n          swap2\n          sub\n          swap1\n          return\n            /* \"@openzeppelin/contracts/token/ERC20/ERC20.sol\":2367:2469   */\n        tag_11:\n          tag_53\n          tag_54\n          jump\t// in\n        tag_53:\n          mload(0x40)\n          tag_55\n          swap2\n          swap1\n          tag_21\n          jump\t// in\n        tag_55:\n          mload(0x40)\n          dup1\n          swap2\n          sub\n          swap1\n          return\n            /* \"ReputationControlV2.sol\":511:604  function burn(address to, uint256 amount) public onlyOwner{... */\n        tag_12:\n          tag_56\n          0x04\n          dup1\n          calldatasize\n          sub\n          dup2\n          add\n          swap1\n          tag_57\n          swap2\n          swap1\n          tag_24\n          jump\t// in\n        tag_57:\n          tag_58\n          jump\t// in\n        tag_56:\n          stop\n            /* \"@openzeppelin/contracts/token/ERC20/ERC20.sol\":6594:7021   */\n        tag_13:\n          tag_59\n          0x04\n          dup1\n          calldatasize\n          sub\n          dup2\n          add\n          swap1\n          tag_60\n          swap2\n          swap1\n          tag_24\n          jump\t// in\n        tag_60:\n          tag_61\n          jump\t// in\n        tag_59:\n          mload(0x40)\n          tag_62\n          swap2\n          swap1\n          tag_27\n          jump\t// in\n        tag_62:\n          mload(0x40)\n          dup1\n          swap2\n          sub\n          swap1\n          return\n            /* \"ReputationControlV2.sol\":612:809  function transfer(address to, uint256 amount) public override onlyOwner returns (bool) {... */\n        tag_14:\n          tag_63\n          0x04\n          dup1\n          calldatasize\n          sub\n          dup2\n          add\n          swap1\n          tag_64\n          swap2\n          swap1\n          tag_24\n          jump\t// in\n        tag_64:\n          tag_65\n          jump\t// in\n        tag_63:\n          mload(0x40)\n          tag_66\n          swap2\n          swap1\n          tag_27\n          jump\t// in\n        tag_66:\n          mload(0x40)\n          dup1\n          swap2\n          sub\n          swap1\n          return\n            /* \"@openzeppelin/contracts/token/ERC20/ERC20.sol\":3976:4125   */\n        tag_15:\n          tag_67\n          0x04\n          dup1\n          calldatasize\n          sub\n          dup2\n          add\n          swap1\n          tag_68\n          swap2\n          swap1\n          tag_69\n          jump\t// in\n        tag_68:\n          tag_70\n          jump\t// in\n        tag_67:\n          mload(0x40)\n          tag_71\n          swap2\n          swap1\n          tag_31\n          jump\t// in\n        tag_71:\n          mload(0x40)\n          dup1\n          swap2\n          sub\n          swap1\n          return\n            /* \"@openzeppelin/contracts/token/ERC20/ERC20.sol\":2156:2254   */\n        tag_19:\n            /* \"@openzeppelin/contracts/token/ERC20/ERC20.sol\":2210:2223   */\n          0x60\n            /* \"@openzeppelin/contracts/token/ERC20/ERC20.sol\":2242:2247   */\n          0x03\n            /* \"@openzeppelin/contracts/token/ERC20/ERC20.sol\":2235:2247   */\n          dup1\n          sload\n          tag_73\n          swap1\n          tag_74\n          jump\t// in\n        tag_73:\n          dup1\n          0x1f\n          add\n          0x20\n          dup1\n          swap2\n          div\n          mul\n          0x20\n          add\n          mload(0x40)\n          swap1\n          dup2\n          add\n          0x40\n          mstore\n          dup1\n          swap3\n          swap2\n          swap1\n          dup2\n          dup2\n          mstore\n          0x20\n          add\n          dup3\n          dup1\n          sload\n          tag_75\n          swap1\n          tag_74\n          jump\t// in\n        tag_75:\n          dup1\n          iszero\n          tag_76\n          jumpi\n          dup1\n          0x1f\n          lt\n          tag_77\n          jumpi\n          0x0100\n          dup1\n          dup4\n          sload\n          div\n          mul\n          dup4\n          mstore\n          swap2\n          0x20\n          add\n          swap2\n          jump(tag_76)\n        tag_77:\n          dup3\n          add\n          swap2\n          swap1\n          0x00\n          mstore\n          keccak256(0x00, 0x20)\n          swap1\n        tag_78:\n          dup2\n          sload\n          dup2\n          mstore\n          swap1\n          0x01\n          add\n          swap1\n          0x20\n          add\n          dup1\n          dup4\n          gt\n          tag_78\n          jumpi\n          dup3\n          swap1\n          sub\n          0x1f\n          and\n          dup3\n          add\n          swap2\n        tag_76:\n          pop\n          pop\n          pop\n          pop\n          pop\n          swap1\n          pop\n            /* \"@openzeppelin/contracts/token/ERC20/ERC20.sol\":2156:2254   */\n          swap1\n          jump\t// out\n            /* \"@openzeppelin/contracts/token/ERC20/ERC20.sol\":4433:4630   */\n        tag_25:\n            /* \"@openzeppelin/contracts/token/ERC20/ERC20.sol\":4516:4520   */\n          0x00\n            /* \"@openzeppelin/contracts/token/ERC20/ERC20.sol\":4532:4545   */\n          dup1\n            /* \"@openzeppelin/contracts/token/ERC20/ERC20.sol\":4548:4560   */\n          tag_80\n            /* \"@openzeppelin/contracts/token/ERC20/ERC20.sol\":4548:4558   */\n          tag_81\n            /* \"@openzeppelin/contracts/token/ERC20/ERC20.sol\":4548:4560   */\n          jump\t// in\n        tag_80:\n            /* \"@openzeppelin/contracts/token/ERC20/ERC20.sol\":4532:4560   */\n          swap1\n          pop\n            /* \"@openzeppelin/contracts/token/ERC20/ERC20.sol\":4570:4602   */\n          tag_82\n            /* \"@openzeppelin/contracts/token/ERC20/ERC20.sol\":4579:4584   */\n          dup2\n            /* \"@openzeppelin/contracts/token/ERC20/ERC20.sol\":4586:4593   */\n          dup6\n            /* \"@openzeppelin/contracts/token/ERC20/ERC20.sol\":4595:4601   */\n          dup6\n            /* \"@openzeppelin/contracts/token/ERC20/ERC20.sol\":4570:4578   */\n          tag_83\n            /* \"@openzeppelin/contracts/token/ERC20/ERC20.sol\":4570:4602   */\n          jump\t// in\n        tag_82:\n            /* \"@openzeppelin/contracts/token/ERC20/ERC20.sol\":4619:4623   */\n          0x01\n            /* \"@openzeppelin/contracts/token/ERC20/ERC20.sol\":4612:4623   */\n          swap2\n          pop\n          pop\n            /* \"@openzeppelin/contracts/token/ERC20/ERC20.sol\":4433:4630   */\n          swap3\n          swap2\n          pop\n          pop\n          jump\t// out\n            /* \"@openzeppelin/contracts/token/ERC20/ERC20.sol\":3244:3350   */\n        tag_29:\n            /* \"@openzeppelin/contracts/token/ERC20/ERC20.sol\":3305:3312   */\n          0x00\n            /* \"@openzeppelin/contracts/token/ERC20/ERC20.sol\":3331:3343   */\n          sload(0x02)\n            /* \"@openzeppelin/contracts/token/ERC20/ERC20.sol\":3324:3343   */\n          swap1\n          pop\n            /* \"@openzeppelin/contracts/token/ERC20/ERC20.sol\":3244:3350   */\n          swap1\n          jump\t// out\n            /* \"ReputationControlV2.sol\":817:1114  function transferFrom(... */\n        tag_35:\n            /* \"ReputationControlV2.sol\":950:954  bool */\n          0x00\n            /* \"ReputationControlV2.sol\":237:242  owner */\n          immutable(\"0xe455bf8ea6e7463a1046a0b52804526e119b4bf5136279614e0b1e8e296a4e2d\")\n            /* \"ReputationControlV2.sol\":223:242  msg.sender == owner */\n          0xffffffffffffffffffffffffffffffffffffffff\n          and\n            /* \"ReputationControlV2.sol\":223:233  msg.sender */\n          caller\n            /* \"ReputationControlV2.sol\":223:242  msg.sender == owner */\n          0xffffffffffffffffffffffffffffffffffffffff\n          and\n          eq\n            /* \"ReputationControlV2.sol\":215:260  require(msg.sender == owner, \"No permission\") */\n          tag_86\n          jumpi\n          mload(0x40)\n          0x08c379a000000000000000000000000000000000000000000000000000000000\n          dup2\n          mstore\n          0x04\n          add\n          tag_87\n          swap1\n          tag_88\n          jump\t// in\n        tag_87:\n          mload(0x40)\n          dup1\n          swap2\n          sub\n          swap1\n          revert\n        tag_86:\n            /* \"ReputationControlV2.sol\":967:982  address spender */\n          0x00\n            /* \"ReputationControlV2.sol\":985:997  _msgSender() */\n          tag_90\n            /* \"ReputationControlV2.sol\":985:995  _msgSender */\n          tag_81\n            /* \"ReputationControlV2.sol\":985:997  _msgSender() */\n          jump\t// in\n        tag_90:\n            /* \"ReputationControlV2.sol\":967:997  address spender = _msgSender() */\n          swap1\n          pop\n            /* \"ReputationControlV2.sol\":1008:1046  _spendAllowance(from, spender, amount) */\n          tag_91\n            /* \"ReputationControlV2.sol\":1024:1028  from */\n          dup6\n            /* \"ReputationControlV2.sol\":1030:1037  spender */\n          dup3\n            /* \"ReputationControlV2.sol\":1039:1045  amount */\n          dup6\n            /* \"ReputationControlV2.sol\":1008:1023  _spendAllowance */\n          tag_92\n            /* \"ReputationControlV2.sol\":1008:1046  _spendAllowance(from, spender, amount) */\n          jump\t// in\n        tag_91:\n            /* \"ReputationControlV2.sol\":1057:1084  _transfer(from, to, amount) */\n          tag_93\n            /* \"ReputationControlV2.sol\":1067:1071  from */\n          dup6\n            /* \"ReputationControlV2.sol\":1073:1075  to */\n          dup6\n            /* \"ReputationControlV2.sol\":1077:1083  amount */\n          dup6\n            /* \"ReputationControlV2.sol\":1057:1066  _transfer */\n          tag_94\n            /* \"ReputationControlV2.sol\":1057:1084  _transfer(from, to, amount) */\n          jump\t// in\n        tag_93:\n            /* \"ReputationControlV2.sol\":1102:1106  true */\n          0x01\n            /* \"ReputationControlV2.sol\":1095:1106  return true */\n          swap2\n          pop\n          pop\n            /* \"ReputationControlV2.sol\":817:1114  function transferFrom(... */\n          swap4\n          swap3\n          pop\n          pop\n          pop\n          jump\t// out\n            /* \"@openzeppelin/contracts/token/ERC20/ERC20.sol\":3093:3184   */\n        tag_38:\n            /* \"@openzeppelin/contracts/token/ERC20/ERC20.sol\":3151:3156   */\n          0x00\n            /* \"@openzeppelin/contracts/token/ERC20/ERC20.sol\":3175:3177   */\n          0x12\n            /* \"@openzeppelin/contracts/token/ERC20/ERC20.sol\":3168:3177   */\n          swap1\n          pop\n            /* \"@openzeppelin/contracts/token/ERC20/ERC20.sol\":3093:3184   */\n          swap1\n          jump\t// out\n            /* \"@openzeppelin/contracts/token/ERC20/ERC20.sol\":5873:6107   */\n        tag_43:\n            /* \"@openzeppelin/contracts/token/ERC20/ERC20.sol\":5961:5965   */\n          0x00\n            /* \"@openzeppelin/contracts/token/ERC20/ERC20.sol\":5977:5990   */\n          dup1\n            /* \"@openzeppelin/contracts/token/ERC20/ERC20.sol\":5993:6005   */\n          tag_97\n            /* \"@openzeppelin/contracts/token/ERC20/ERC20.sol\":5993:6003   */\n          tag_81\n            /* \"@openzeppelin/contracts/token/ERC20/ERC20.sol\":5993:6005   */\n          jump\t// in\n        tag_97:\n            /* \"@openzeppelin/contracts/token/ERC20/ERC20.sol\":5977:6005   */\n          swap1\n          pop\n            /* \"@openzeppelin/contracts/token/ERC20/ERC20.sol\":6015:6079   */\n          tag_98\n            /* \"@openzeppelin/contracts/token/ERC20/ERC20.sol\":6024:6029   */\n          dup2\n            /* \"@openzeppelin/contracts/token/ERC20/ERC20.sol\":6031:6038   */\n          dup6\n            /* \"@openzeppelin/contracts/token/ERC20/ERC20.sol\":6068:6078   */\n          dup6\n            /* \"@openzeppelin/contracts/token/ERC20/ERC20.sol\":6040:6065   */\n          tag_99\n            /* \"@openzeppelin/contracts/token/ERC20/ERC20.sol\":6050:6055   */\n          dup6\n            /* \"@openzeppelin/contracts/token/ERC20/ERC20.sol\":6057:6064   */\n          dup10\n            /* \"@openzeppelin/contracts/token/ERC20/ERC20.sol\":6040:6049   */\n          tag_70\n            /* \"@openzeppelin/contracts/token/ERC20/ERC20.sol\":6040:6065   */\n          jump\t// in\n        tag_99:\n            /* \"@openzeppelin/contracts/token/ERC20/ERC20.sol\":6040:6078   */\n          tag_100\n          swap2\n          swap1\n          tag_101\n          jump\t// in\n        tag_100:\n            /* \"@openzeppelin/contracts/token/ERC20/ERC20.sol\":6015:6023   */\n          tag_83\n            /* \"@openzeppelin/contracts/token/ERC20/ERC20.sol\":6015:6079   */\n          jump\t// in\n        tag_98:\n            /* \"@openzeppelin/contracts/token/ERC20/ERC20.sol\":6096:6100   */\n          0x01\n            /* \"@openzeppelin/contracts/token/ERC20/ERC20.sol\":6089:6100   */\n          swap2\n          pop\n          pop\n            /* \"@openzeppelin/contracts/token/ERC20/ERC20.sol\":5873:6107   */\n          swap3\n          swap2\n          pop\n          pop\n          jump\t// out\n            /* \"ReputationControlV2.sol\":410:503  function mint(address to, uint256 amount) public onlyOwner{... */\n        tag_47:\n            /* \"ReputationControlV2.sol\":237:242  owner */\n          immutable(\"0xe455bf8ea6e7463a1046a0b52804526e119b4bf5136279614e0b1e8e296a4e2d\")\n            /* \"ReputationControlV2.sol\":223:242  msg.sender == owner */\n          0xffffffffffffffffffffffffffffffffffffffff\n          and\n            /* \"ReputationControlV2.sol\":223:233  msg.sender */\n          caller\n            /* \"ReputationControlV2.sol\":223:242  msg.sender == owner */\n          0xffffffffffffffffffffffffffffffffffffffff\n          and\n          eq\n            /* \"ReputationControlV2.sol\":215:260  require(msg.sender == owner, \"No permission\") */\n          tag_103\n          jumpi\n          mload(0x40)\n          0x08c379a000000000000000000000000000000000000000000000000000000000\n          dup2\n          mstore\n          0x04\n          add\n          tag_104\n          swap1\n          tag_88\n          jump\t// in\n        tag_104:\n          mload(0x40)\n          dup1\n          swap2\n          sub\n          swap1\n          revert\n        tag_103:\n            /* \"ReputationControlV2.sol\":479:495  _mint(to,amount) */\n          tag_106\n            /* \"ReputationControlV2.sol\":485:487  to */\n          dup3\n            /* \"ReputationControlV2.sol\":488:494  amount */\n          dup3\n            /* \"ReputationControlV2.sol\":479:484  _mint */\n          tag_107\n            /* \"ReputationControlV2.sol\":479:495  _mint(to,amount) */\n          jump\t// in\n        tag_106:\n            /* \"ReputationControlV2.sol\":410:503  function mint(address to, uint256 amount) public onlyOwner{... */\n          pop\n          pop\n          jump\t// out\n            /* \"@openzeppelin/contracts/token/ERC20/ERC20.sol\":3408:3533   */\n        tag_51:\n            /* \"@openzeppelin/contracts/token/ERC20/ERC20.sol\":3482:3489   */\n          0x00\n            /* \"@openzeppelin/contracts/token/ERC20/ERC20.sol\":3508:3517   */\n          dup1\n            /* \"@openzeppelin/contracts/token/ERC20/ERC20.sol\":3508:3526   */\n          0x00\n            /* \"@openzeppelin/contracts/token/ERC20/ERC20.sol\":3518:3525   */\n          dup4\n            /* \"@openzeppelin/contracts/token/ERC20/ERC20.sol\":3508:3526   */\n          0xffffffffffffffffffffffffffffffffffffffff\n          and\n          0xffffffffffffffffffffffffffffffffffffffff\n          and\n          dup2\n          mstore\n          0x20\n          add\n          swap1\n          dup2\n          mstore\n          0x20\n          add\n          0x00\n          keccak256\n          sload\n            /* \"@openzeppelin/contracts/token/ERC20/ERC20.sol\":3501:3526   */\n          swap1\n          pop\n            /* \"@openzeppelin/contracts/token/ERC20/ERC20.sol\":3408:3533   */\n          swap2\n          swap1\n          pop\n          jump\t// out\n            /* \"@openzeppelin/contracts/token/ERC20/ERC20.sol\":2367:2469   */\n        tag_54:\n            /* \"@openzeppelin/contracts/token/ERC20/ERC20.sol\":2423:2436   */\n          0x60\n            /* \"@openzeppelin/contracts/token/ERC20/ERC20.sol\":2455:2462   */\n          0x04\n            /* \"@openzeppelin/contracts/token/ERC20/ERC20.sol\":2448:2462   */\n          dup1\n          sload\n          tag_110\n          swap1\n          tag_74\n          jump\t// in\n        tag_110:\n          dup1\n          0x1f\n          add\n          0x20\n          dup1\n          swap2\n          div\n          mul\n          0x20\n          add\n          mload(0x40)\n          swap1\n          dup2\n          add\n          0x40\n          mstore\n          dup1\n          swap3\n          swap2\n          swap1\n          dup2\n          dup2\n          mstore\n          0x20\n          add\n          dup3\n          dup1\n          sload\n          tag_111\n          swap1\n          tag_74\n          jump\t// in\n        tag_111:\n          dup1\n          iszero\n          tag_112\n          jumpi\n          dup1\n          0x1f\n          lt\n          tag_113\n          jumpi\n          0x0100\n          dup1\n          dup4\n          sload\n          div\n          mul\n          dup4\n          mstore\n          swap2\n          0x20\n          add\n          swap2\n          jump(tag_112)\n        tag_113:\n          dup3\n          add\n          swap2\n          swap1\n          0x00\n          mstore\n          keccak256(0x00, 0x20)\n          swap1\n        tag_114:\n          dup2\n          sload\n          dup2\n          mstore\n          swap1\n          0x01\n          add\n          swap1\n          0x20\n          add\n          dup1\n          dup4\n          gt\n          tag_114\n          jumpi\n          dup3\n          swap1\n          sub\n          0x1f\n          and\n          dup3\n          add\n          swap2\n        tag_112:\n          pop\n          pop\n          pop\n          pop\n          pop\n          swap1\n          pop\n            /* \"@openzeppelin/contracts/token/ERC20/ERC20.sol\":2367:2469   */\n          swap1\n          jump\t// out\n            /* \"ReputationControlV2.sol\":511:604  function burn(address to, uint256 amount) public onlyOwner{... */\n        tag_58:\n            /* \"ReputationControlV2.sol\":237:242  owner */\n          immutable(\"0xe455bf8ea6e7463a1046a0b52804526e119b4bf5136279614e0b1e8e296a4e2d\")\n            /* \"ReputationControlV2.sol\":223:242  msg.sender == owner */\n          0xffffffffffffffffffffffffffffffffffffffff\n          and\n            /* \"ReputationControlV2.sol\":223:233  msg.sender */\n          caller\n            /* \"ReputationControlV2.sol\":223:242  msg.sender == owner */\n          0xffffffffffffffffffffffffffffffffffffffff\n          and\n          eq\n            /* \"ReputationControlV2.sol\":215:260  require(msg.sender == owner, \"No permission\") */\n          tag_116\n          jumpi\n          mload(0x40)\n          0x08c379a000000000000000000000000000000000000000000000000000000000\n          dup2\n          mstore\n          0x04\n          add\n          tag_117\n          swap1\n          tag_88\n          jump\t// in\n        tag_117:\n          mload(0x40)\n          dup1\n          swap2\n          sub\n          swap1\n          revert\n        tag_116:\n            /* \"ReputationControlV2.sol\":580:596  _burn(to,amount) */\n          tag_119\n            /* \"ReputationControlV2.sol\":586:588  to */\n          dup3\n            /* \"ReputationControlV2.sol\":589:595  amount */\n          dup3\n            /* \"ReputationControlV2.sol\":580:585  _burn */\n          tag_120\n            /* \"ReputationControlV2.sol\":580:596  _burn(to,amount) */\n          jump\t// in\n        tag_119:\n            /* \"ReputationControlV2.sol\":511:604  function burn(address to, uint256 amount) public onlyOwner{... */\n          pop\n          pop\n          jump\t// out\n            /* \"@openzeppelin/contracts/token/ERC20/ERC20.sol\":6594:7021   */\n        tag_61:\n            /* \"@openzeppelin/contracts/token/ERC20/ERC20.sol\":6687:6691   */\n          0x00\n            /* \"@openzeppelin/contracts/token/ERC20/ERC20.sol\":6703:6716   */\n          dup1\n            /* \"@openzeppelin/contracts/token/ERC20/ERC20.sol\":6719:6731   */\n          tag_122\n            /* \"@openzeppelin/contracts/token/ERC20/ERC20.sol\":6719:6729   */\n          tag_81\n            /* \"@openzeppelin/contracts/token/ERC20/ERC20.sol\":6719:6731   */\n          jump\t// in\n        tag_122:\n            /* \"@openzeppelin/contracts/token/ERC20/ERC20.sol\":6703:6731   */\n          swap1\n          pop\n            /* \"@openzeppelin/contracts/token/ERC20/ERC20.sol\":6741:6765   */\n          0x00\n            /* \"@openzeppelin/contracts/token/ERC20/ERC20.sol\":6768:6793   */\n          tag_123\n            /* \"@openzeppelin/contracts/token/ERC20/ERC20.sol\":6778:6783   */\n          dup3\n            /* \"@openzeppelin/contracts/token/ERC20/ERC20.sol\":6785:6792   */\n          dup7\n            /* \"@openzeppelin/contracts/token/ERC20/ERC20.sol\":6768:6777   */\n          tag_70\n            /* \"@openzeppelin/contracts/token/ERC20/ERC20.sol\":6768:6793   */\n          jump\t// in\n        tag_123:\n            /* \"@openzeppelin/contracts/token/ERC20/ERC20.sol\":6741:6793   */\n          swap1\n          pop\n            /* \"@openzeppelin/contracts/token/ERC20/ERC20.sol\":6831:6846   */\n          dup4\n            /* \"@openzeppelin/contracts/token/ERC20/ERC20.sol\":6811:6827   */\n          dup2\n            /* \"@openzeppelin/contracts/token/ERC20/ERC20.sol\":6811:6846   */\n          lt\n          iszero\n            /* \"@openzeppelin/contracts/token/ERC20/ERC20.sol\":6803:6888   */\n          tag_124\n          jumpi\n          mload(0x40)\n          0x08c379a000000000000000000000000000000000000000000000000000000000\n          dup2\n          mstore\n          0x04\n          add\n          tag_125\n          swap1\n          tag_126\n          jump\t// in\n        tag_125:\n          mload(0x40)\n          dup1\n          swap2\n          sub\n          swap1\n          revert\n        tag_124:\n            /* \"@openzeppelin/contracts/token/ERC20/ERC20.sol\":6922:6982   */\n          tag_127\n            /* \"@openzeppelin/contracts/token/ERC20/ERC20.sol\":6931:6936   */\n          dup3\n            /* \"@openzeppelin/contracts/token/ERC20/ERC20.sol\":6938:6945   */\n          dup7\n            /* \"@openzeppelin/contracts/token/ERC20/ERC20.sol\":6966:6981   */\n          dup7\n            /* \"@openzeppelin/contracts/token/ERC20/ERC20.sol\":6947:6963   */\n          dup5\n            /* \"@openzeppelin/contracts/token/ERC20/ERC20.sol\":6947:6981   */\n          sub\n            /* \"@openzeppelin/contracts/token/ERC20/ERC20.sol\":6922:6930   */\n          tag_83\n            /* \"@openzeppelin/contracts/token/ERC20/ERC20.sol\":6922:6982   */\n          jump\t// in\n        tag_127:\n            /* \"@openzeppelin/contracts/token/ERC20/ERC20.sol\":7010:7014   */\n          0x01\n            /* \"@openzeppelin/contracts/token/ERC20/ERC20.sol\":7003:7014   */\n          swap3\n          pop\n          pop\n          pop\n            /* \"@openzeppelin/contracts/token/ERC20/ERC20.sol\":6594:7021   */\n          swap3\n          swap2\n          pop\n          pop\n          jump\t// out\n            /* \"ReputationControlV2.sol\":612:809  function transfer(address to, uint256 amount) public override onlyOwner returns (bool) {... */\n        tag_65:\n            /* \"ReputationControlV2.sol\":693:697  bool */\n          0x00\n            /* \"ReputationControlV2.sol\":237:242  owner */\n          immutable(\"0xe455bf8ea6e7463a1046a0b52804526e119b4bf5136279614e0b1e8e296a4e2d\")\n            /* \"ReputationControlV2.sol\":223:242  msg.sender == owner */\n          0xffffffffffffffffffffffffffffffffffffffff\n          and\n            /* \"ReputationControlV2.sol\":223:233  msg.sender */\n          caller\n            /* \"ReputationControlV2.sol\":223:242  msg.sender == owner */\n          0xffffffffffffffffffffffffffffffffffffffff\n          and\n          eq\n            /* \"ReputationControlV2.sol\":215:260  require(msg.sender == owner, \"No permission\") */\n          tag_129\n          jumpi\n          mload(0x40)\n          0x08c379a000000000000000000000000000000000000000000000000000000000\n          dup2\n          mstore\n          0x04\n          add\n          tag_130\n          swap1\n          tag_88\n          jump\t// in\n        tag_130:\n          mload(0x40)\n          dup1\n          swap2\n          sub\n          swap1\n          revert\n        tag_129:\n            /* \"ReputationControlV2.sol\":710:724  address _owner */\n          0x00\n            /* \"ReputationControlV2.sol\":727:739  _msgSender() */\n          tag_132\n            /* \"ReputationControlV2.sol\":727:737  _msgSender */\n          tag_81\n            /* \"ReputationControlV2.sol\":727:739  _msgSender() */\n          jump\t// in\n        tag_132:\n            /* \"ReputationControlV2.sol\":710:739  address _owner = _msgSender() */\n          swap1\n          pop\n            /* \"ReputationControlV2.sol\":750:779  _transfer(_owner, to, amount) */\n          tag_133\n            /* \"ReputationControlV2.sol\":760:766  _owner */\n          dup2\n            /* \"ReputationControlV2.sol\":768:770  to */\n          dup6\n            /* \"ReputationControlV2.sol\":772:778  amount */\n          dup6\n            /* \"ReputationControlV2.sol\":750:759  _transfer */\n          tag_94\n            /* \"ReputationControlV2.sol\":750:779  _transfer(_owner, to, amount) */\n          jump\t// in\n        tag_133:\n            /* \"ReputationControlV2.sol\":797:801  true */\n          0x01\n            /* \"ReputationControlV2.sol\":790:801  return true */\n          swap2\n          pop\n          pop\n            /* \"ReputationControlV2.sol\":612:809  function transfer(address to, uint256 amount) public override onlyOwner returns (bool) {... */\n          swap3\n          swap2\n          pop\n          pop\n          jump\t// out\n            /* \"@openzeppelin/contracts/token/ERC20/ERC20.sol\":3976:4125   */\n        tag_70:\n            /* \"@openzeppelin/contracts/token/ERC20/ERC20.sol\":4065:4072   */\n          0x00\n            /* \"@openzeppelin/contracts/token/ERC20/ERC20.sol\":4091:4102   */\n          0x01\n            /* \"@openzeppelin/contracts/token/ERC20/ERC20.sol\":4091:4109   */\n          0x00\n            /* \"@openzeppelin/contracts/token/ERC20/ERC20.sol\":4103:4108   */\n          dup5\n            /* \"@openzeppelin/contracts/token/ERC20/ERC20.sol\":4091:4109   */\n          0xffffffffffffffffffffffffffffffffffffffff\n          and\n          0xffffffffffffffffffffffffffffffffffffffff\n          and\n          dup2\n          mstore\n          0x20\n          add\n          swap1\n          dup2\n          mstore\n          0x20\n          add\n          0x00\n          keccak256\n            /* \"@openzeppelin/contracts/token/ERC20/ERC20.sol\":4091:4118   */\n          0x00\n            /* \"@openzeppelin/contracts/token/ERC20/ERC20.sol\":4110:4117   */\n          dup4\n            /* \"@openzeppelin/contracts/token/ERC20/ERC20.sol\":4091:4118   */\n          0xffffffffffffffffffffffffffffffffffffffff\n          and\n          0xffffffffffffffffffffffffffffffffffffffff\n          and\n          dup2\n          mstore\n          0x20\n          add\n          swap1\n          dup2\n          mstore\n          0x20\n          add\n          0x00\n          keccak256\n          sload\n            /* \"@openzeppelin/contracts/token/ERC20/ERC20.sol\":4084:4118   */\n          swap1\n          pop\n            /* \"@openzeppelin/contracts/token/ERC20/ERC20.sol\":3976:4125   */\n          swap3\n          swap2\n          pop\n          pop\n          jump\t// out\n            /* \"@openzeppelin/contracts/utils/Context.sol\":640:736   */\n        tag_81:\n            /* \"@openzeppelin/contracts/utils/Context.sol\":693:700   */\n          0x00\n            /* \"@openzeppelin/contracts/utils/Context.sol\":719:729   */\n          caller\n            /* \"@openzeppelin/contracts/utils/Context.sol\":712:729   */\n          swap1\n          pop\n            /* \"@openzeppelin/contracts/utils/Context.sol\":640:736   */\n          swap1\n          jump\t// out\n            /* \"@openzeppelin/contracts/token/ERC20/ERC20.sol\":10119:10489   */\n        tag_83:\n            /* \"@openzeppelin/contracts/token/ERC20/ERC20.sol\":10267:10268   */\n          0x00\n            /* \"@openzeppelin/contracts/token/ERC20/ERC20.sol\":10250:10269   */\n          0xffffffffffffffffffffffffffffffffffffffff\n          and\n            /* \"@openzeppelin/contracts/token/ERC20/ERC20.sol\":10250:10255   */\n          dup4\n            /* \"@openzeppelin/contracts/token/ERC20/ERC20.sol\":10250:10269   */\n          0xffffffffffffffffffffffffffffffffffffffff\n          and\n          eq\n          iszero\n            /* \"@openzeppelin/contracts/token/ERC20/ERC20.sol\":10242:10310   */\n          tag_137\n          jumpi\n          mload(0x40)\n          0x08c379a000000000000000000000000000000000000000000000000000000000\n          dup2\n          mstore\n          0x04\n          add\n          tag_138\n          swap1\n          tag_139\n          jump\t// in\n        tag_138:\n          mload(0x40)\n          dup1\n          swap2\n          sub\n          swap1\n          revert\n        tag_137:\n            /* \"@openzeppelin/contracts/token/ERC20/ERC20.sol\":10347:10348   */\n          0x00\n            /* \"@openzeppelin/contracts/token/ERC20/ERC20.sol\":10328:10349   */\n          0xffffffffffffffffffffffffffffffffffffffff\n          and\n            /* \"@openzeppelin/contracts/token/ERC20/ERC20.sol\":10328:10335   */\n          dup3\n            /* \"@openzeppelin/contracts/token/ERC20/ERC20.sol\":10328:10349   */\n          0xffffffffffffffffffffffffffffffffffffffff\n          and\n          eq\n          iszero\n            /* \"@openzeppelin/contracts/token/ERC20/ERC20.sol\":10320:10388   */\n          tag_140\n          jumpi\n          mload(0x40)\n          0x08c379a000000000000000000000000000000000000000000000000000000000\n          dup2\n          mstore\n          0x04\n          add\n          tag_141\n          swap1\n          tag_142\n          jump\t// in\n        tag_141:\n          mload(0x40)\n          dup1\n          swap2\n          sub\n          swap1\n          revert\n        tag_140:\n            /* \"@openzeppelin/contracts/token/ERC20/ERC20.sol\":10429:10435   */\n          dup1\n            /* \"@openzeppelin/contracts/token/ERC20/ERC20.sol\":10399:10410   */\n          0x01\n            /* \"@openzeppelin/contracts/token/ERC20/ERC20.sol\":10399:10417   */\n          0x00\n            /* \"@openzeppelin/contracts/token/ERC20/ERC20.sol\":10411:10416   */\n          dup6\n            /* \"@openzeppelin/contracts/token/ERC20/ERC20.sol\":10399:10417   */\n          0xffffffffffffffffffffffffffffffffffffffff\n          and\n          0xffffffffffffffffffffffffffffffffffffffff\n          and\n          dup2\n          mstore\n          0x20\n          add\n          swap1\n          dup2\n          mstore\n          0x20\n          add\n          0x00\n          keccak256\n            /* \"@openzeppelin/contracts/token/ERC20/ERC20.sol\":10399:10426   */\n          0x00\n            /* \"@openzeppelin/contracts/token/ERC20/ERC20.sol\":10418:10425   */\n          dup5\n            /* \"@openzeppelin/contracts/token/ERC20/ERC20.sol\":10399:10426   */\n          0xffffffffffffffffffffffffffffffffffffffff\n          and\n          0xffffffffffffffffffffffffffffffffffffffff\n          and\n          dup2\n          mstore\n          0x20\n          add\n          swap1\n          dup2\n          mstore\n          0x20\n          add\n          0x00\n          keccak256\n            /* \"@openzeppelin/contracts/token/ERC20/ERC20.sol\":10399:10435   */\n          dup2\n          swap1\n          sstore\n          pop\n            /* \"@openzeppelin/contracts/token/ERC20/ERC20.sol\":10466:10473   */\n          dup2\n            /* \"@openzeppelin/contracts/token/ERC20/ERC20.sol\":10450:10482   */\n          0xffffffffffffffffffffffffffffffffffffffff\n          and\n            /* \"@openzeppelin/contracts/token/ERC20/ERC20.sol\":10459:10464   */\n          dup4\n            /* \"@openzeppelin/contracts/token/ERC20/ERC20.sol\":10450:10482   */\n          0xffffffffffffffffffffffffffffffffffffffff\n          and\n          0x8c5be1e5ebec7d5bd14f71427d1e84f3dd0314c0f7b2291e5b200ac8c7c3b925\n            /* \"@openzeppelin/contracts/token/ERC20/ERC20.sol\":10475:10481   */\n          dup4\n            /* \"@openzeppelin/contracts/token/ERC20/ERC20.sol\":10450:10482   */\n          mload(0x40)\n          tag_143\n          swap2\n          swap1\n          tag_31\n          jump\t// in\n        tag_143:\n          mload(0x40)\n          dup1\n          swap2\n          sub\n          swap1\n          log3\n            /* \"@openzeppelin/contracts/token/ERC20/ERC20.sol\":10119:10489   */\n          pop\n          pop\n          pop\n          jump\t// out\n            /* \"@openzeppelin/contracts/token/ERC20/ERC20.sol\":10770:11211   */\n        tag_92:\n            /* \"@openzeppelin/contracts/token/ERC20/ERC20.sol\":10900:10924   */\n          0x00\n            /* \"@openzeppelin/contracts/token/ERC20/ERC20.sol\":10927:10952   */\n          tag_145\n            /* \"@openzeppelin/contracts/token/ERC20/ERC20.sol\":10937:10942   */\n          dup5\n            /* \"@openzeppelin/contracts/token/ERC20/ERC20.sol\":10944:10951   */\n          dup5\n            /* \"@openzeppelin/contracts/token/ERC20/ERC20.sol\":10927:10936   */\n          tag_70\n            /* \"@openzeppelin/contracts/token/ERC20/ERC20.sol\":10927:10952   */\n          jump\t// in\n        tag_145:\n            /* \"@openzeppelin/contracts/token/ERC20/ERC20.sol\":10900:10952   */\n          swap1\n          pop\n            /* \"@openzeppelin/contracts/token/ERC20/ERC20.sol\":10986:11003   */\n          0xffffffffffffffffffffffffffffffffffffffffffffffffffffffffffffffff\n            /* \"@openzeppelin/contracts/token/ERC20/ERC20.sol\":10966:10982   */\n          dup2\n            /* \"@openzeppelin/contracts/token/ERC20/ERC20.sol\":10966:11003   */\n          eq\n            /* \"@openzeppelin/contracts/token/ERC20/ERC20.sol\":10962:11205   */\n          tag_146\n          jumpi\n            /* \"@openzeppelin/contracts/token/ERC20/ERC20.sol\":11047:11053   */\n          dup2\n            /* \"@openzeppelin/contracts/token/ERC20/ERC20.sol\":11027:11043   */\n          dup2\n            /* \"@openzeppelin/contracts/token/ERC20/ERC20.sol\":11027:11053   */\n          lt\n          iszero\n            /* \"@openzeppelin/contracts/token/ERC20/ERC20.sol\":11019:11087   */\n          tag_147\n          jumpi\n          mload(0x40)\n          0x08c379a000000000000000000000000000000000000000000000000000000000\n          dup2\n          mstore\n          0x04\n          add\n          tag_148\n          swap1\n          tag_149\n          jump\t// in\n        tag_148:\n          mload(0x40)\n          dup1\n          swap2\n          sub\n          swap1\n          revert\n        tag_147:\n            /* \"@openzeppelin/contracts/token/ERC20/ERC20.sol\":11129:11180   */\n          tag_150\n            /* \"@openzeppelin/contracts/token/ERC20/ERC20.sol\":11138:11143   */\n          dup5\n            /* \"@openzeppelin/contracts/token/ERC20/ERC20.sol\":11145:11152   */\n          dup5\n            /* \"@openzeppelin/contracts/token/ERC20/ERC20.sol\":11173:11179   */\n          dup5\n            /* \"@openzeppelin/contracts/token/ERC20/ERC20.sol\":11154:11170   */\n          dup5\n            /* \"@openzeppelin/contracts/token/ERC20/ERC20.sol\":11154:11179   */\n          sub\n            /* \"@openzeppelin/contracts/token/ERC20/ERC20.sol\":11129:11137   */\n          tag_83\n            /* \"@openzeppelin/contracts/token/ERC20/ERC20.sol\":11129:11180   */\n          jump\t// in\n        tag_150:\n            /* \"@openzeppelin/contracts/token/ERC20/ERC20.sol\":10962:11205   */\n        tag_146:\n            /* \"@openzeppelin/contracts/token/ERC20/ERC20.sol\":10890:11211   */\n          pop\n            /* \"@openzeppelin/contracts/token/ERC20/ERC20.sol\":10770:11211   */\n          pop\n          pop\n          pop\n          jump\t// out\n            /* \"@openzeppelin/contracts/token/ERC20/ERC20.sol\":7484:8135   */\n        tag_94:\n            /* \"@openzeppelin/contracts/token/ERC20/ERC20.sol\":7626:7627   */\n          0x00\n            /* \"@openzeppelin/contracts/token/ERC20/ERC20.sol\":7610:7628   */\n          0xffffffffffffffffffffffffffffffffffffffff\n          and\n            /* \"@openzeppelin/contracts/token/ERC20/ERC20.sol\":7610:7614   */\n          dup4\n            /* \"@openzeppelin/contracts/token/ERC20/ERC20.sol\":7610:7628   */\n          0xffffffffffffffffffffffffffffffffffffffff\n          and\n          eq\n          iszero\n            /* \"@openzeppelin/contracts/token/ERC20/ERC20.sol\":7602:7670   */\n          tag_152\n          jumpi\n          mload(0x40)\n          0x08c379a000000000000000000000000000000000000000000000000000000000\n          dup2\n          mstore\n          0x04\n          add\n          tag_153\n          swap1\n          tag_154\n          jump\t// in\n        tag_153:\n          mload(0x40)\n          dup1\n          swap2\n          sub\n          swap1\n          revert\n        tag_152:\n            /* \"@openzeppelin/contracts/token/ERC20/ERC20.sol\":7702:7703   */\n          0x00\n            /* \"@openzeppelin/contracts/token/ERC20/ERC20.sol\":7688:7704   */\n          0xffffffffffffffffffffffffffffffffffffffff\n          and\n            /* \"@openzeppelin/contracts/token/ERC20/ERC20.sol\":7688:7690   */\n          dup3\n            /* \"@openzeppelin/contracts/token/ERC20/ERC20.sol\":7688:7704   */\n          0xffffffffffffffffffffffffffffffffffffffff\n          and\n          eq\n          iszero\n            /* \"@openzeppelin/contracts/token/ERC20/ERC20.sol\":7680:7744   */\n          tag_155\n          jumpi\n          mload(0x40)\n          0x08c379a000000000000000000000000000000000000000000000000000000000\n          dup2\n          mstore\n          0x04\n          add\n          tag_156\n          swap1\n          tag_157\n          jump\t// in\n        tag_156:\n          mload(0x40)\n          dup1\n          swap2\n          sub\n          swap1\n          revert\n        tag_155:\n            /* \"@openzeppelin/contracts/token/ERC20/ERC20.sol\":7755:7793   */\n          tag_158\n            /* \"@openzeppelin/contracts/token/ERC20/ERC20.sol\":7776:7780   */\n          dup4\n            /* \"@openzeppelin/contracts/token/ERC20/ERC20.sol\":7782:7784   */\n          dup4\n            /* \"@openzeppelin/contracts/token/ERC20/ERC20.sol\":7786:7792   */\n          dup4\n            /* \"@openzeppelin/contracts/token/ERC20/ERC20.sol\":7755:7775   */\n          tag_159\n            /* \"@openzeppelin/contracts/token/ERC20/ERC20.sol\":7755:7793   */\n          jump\t// in\n        tag_158:\n            /* \"@openzeppelin/contracts/token/ERC20/ERC20.sol\":7804:7823   */\n          0x00\n            /* \"@openzeppelin/contracts/token/ERC20/ERC20.sol\":7826:7835   */\n          dup1\n            /* \"@openzeppelin/contracts/token/ERC20/ERC20.sol\":7826:7841   */\n          0x00\n            /* \"@openzeppelin/contracts/token/ERC20/ERC20.sol\":7836:7840   */\n          dup6\n            /* \"@openzeppelin/contracts/token/ERC20/ERC20.sol\":7826:7841   */\n          0xffffffffffffffffffffffffffffffffffffffff\n          and\n          0xffffffffffffffffffffffffffffffffffffffff\n          and\n          dup2\n          mstore\n          0x20\n          add\n          swap1\n          dup2\n          mstore\n          0x20\n          add\n          0x00\n          keccak256\n          sload\n            /* \"@openzeppelin/contracts/token/ERC20/ERC20.sol\":7804:7841   */\n          swap1\n          pop\n            /* \"@openzeppelin/contracts/token/ERC20/ERC20.sol\":7874:7880   */\n          dup2\n            /* \"@openzeppelin/contracts/token/ERC20/ERC20.sol\":7859:7870   */\n          dup2\n            /* \"@openzeppelin/contracts/token/ERC20/ERC20.sol\":7859:7880   */\n          lt\n          iszero\n            /* \"@openzeppelin/contracts/token/ERC20/ERC20.sol\":7851:7923   */\n          tag_160\n          jumpi\n          mload(0x40)\n          0x08c379a000000000000000000000000000000000000000000000000000000000\n          dup2\n          mstore\n          0x04\n          add\n          tag_161\n          swap1\n          tag_162\n          jump\t// in\n        tag_161:\n          mload(0x40)\n          dup1\n          swap2\n          sub\n          swap1\n          revert\n        tag_160:\n            /* \"@openzeppelin/contracts/token/ERC20/ERC20.sol\":7989:7995   */\n          dup2\n            /* \"@openzeppelin/contracts/token/ERC20/ERC20.sol\":7975:7986   */\n          dup2\n            /* \"@openzeppelin/contracts/token/ERC20/ERC20.sol\":7975:7995   */\n          sub\n            /* \"@openzeppelin/contracts/token/ERC20/ERC20.sol\":7957:7966   */\n          0x00\n            /* \"@openzeppelin/contracts/token/ERC20/ERC20.sol\":7957:7972   */\n          dup1\n            /* \"@openzeppelin/contracts/token/ERC20/ERC20.sol\":7967:7971   */\n          dup7\n            /* \"@openzeppelin/contracts/token/ERC20/ERC20.sol\":7957:7972   */\n          0xffffffffffffffffffffffffffffffffffffffff\n          and\n          0xffffffffffffffffffffffffffffffffffffffff\n          and\n          dup2\n          mstore\n          0x20\n          add\n          swap1\n          dup2\n          mstore\n          0x20\n          add\n          0x00\n          keccak256\n            /* \"@openzeppelin/contracts/token/ERC20/ERC20.sol\":7957:7995   */\n          dup2\n          swap1\n          sstore\n          pop\n            /* \"@openzeppelin/contracts/token/ERC20/ERC20.sol\":8032:8038   */\n          dup2\n            /* \"@openzeppelin/contracts/token/ERC20/ERC20.sol\":8015:8024   */\n          0x00\n            /* \"@openzeppelin/contracts/token/ERC20/ERC20.sol\":8015:8028   */\n          dup1\n            /* \"@openzeppelin/contracts/token/ERC20/ERC20.sol\":8025:8027   */\n          dup6\n            /* \"@openzeppelin/contracts/token/ERC20/ERC20.sol\":8015:8028   */\n          0xffffffffffffffffffffffffffffffffffffffff\n          and\n          0xffffffffffffffffffffffffffffffffffffffff\n          and\n          dup2\n          mstore\n          0x20\n          add\n          swap1\n          dup2\n          mstore\n          0x20\n          add\n          0x00\n          keccak256\n          0x00\n            /* \"@openzeppelin/contracts/token/ERC20/ERC20.sol\":8015:8038   */\n          dup3\n          dup3\n          sload\n          tag_163\n          swap2\n          swap1\n          tag_101\n          jump\t// in\n        tag_163:\n          swap3\n          pop\n          pop\n          dup2\n          swap1\n          sstore\n          pop\n            /* \"@openzeppelin/contracts/token/ERC20/ERC20.sol\":8069:8071   */\n          dup3\n            /* \"@openzeppelin/contracts/token/ERC20/ERC20.sol\":8054:8080   */\n          0xffffffffffffffffffffffffffffffffffffffff\n          and\n            /* \"@openzeppelin/contracts/token/ERC20/ERC20.sol\":8063:8067   */\n          dup5\n            /* \"@openzeppelin/contracts/token/ERC20/ERC20.sol\":8054:8080   */\n          0xffffffffffffffffffffffffffffffffffffffff\n          and\n          0xddf252ad1be2c89b69c2b068fc378daa952ba7f163c4a11628f55a4df523b3ef\n            /* \"@openzeppelin/contracts/token/ERC20/ERC20.sol\":8073:8079   */\n          dup5\n            /* \"@openzeppelin/contracts/token/ERC20/ERC20.sol\":8054:8080   */\n          mload(0x40)\n          tag_164\n          swap2\n          swap1\n          tag_31\n          jump\t// in\n        tag_164:\n          mload(0x40)\n          dup1\n          swap2\n          sub\n          swap1\n          log3\n            /* \"@openzeppelin/contracts/token/ERC20/ERC20.sol\":8091:8128   */\n          tag_165\n            /* \"@openzeppelin/contracts/token/ERC20/ERC20.sol\":8111:8115   */\n          dup5\n            /* \"@openzeppelin/contracts/token/ERC20/ERC20.sol\":8117:8119   */\n          dup5\n            /* \"@openzeppelin/contracts/token/ERC20/ERC20.sol\":8121:8127   */\n          dup5\n            /* \"@openzeppelin/contracts/token/ERC20/ERC20.sol\":8091:8110   */\n          tag_166\n            /* \"@openzeppelin/contracts/token/ERC20/ERC20.sol\":8091:8128   */\n          jump\t// in\n        tag_165:\n            /* \"@openzeppelin/contracts/token/ERC20/ERC20.sol\":7592:8135   */\n          pop\n            /* \"@openzeppelin/contracts/token/ERC20/ERC20.sol\":7484:8135   */\n          pop\n          pop\n          pop\n          jump\t// out\n            /* \"@openzeppelin/contracts/token/ERC20/ERC20.sol\":8411:8800   */\n        tag_107:\n            /* \"@openzeppelin/contracts/token/ERC20/ERC20.sol\":8513:8514   */\n          0x00\n            /* \"@openzeppelin/contracts/token/ERC20/ERC20.sol\":8494:8515   */\n          0xffffffffffffffffffffffffffffffffffffffff\n          and\n            /* \"@openzeppelin/contracts/token/ERC20/ERC20.sol\":8494:8501   */\n          dup3\n            /* \"@openzeppelin/contracts/token/ERC20/ERC20.sol\":8494:8515   */\n          0xffffffffffffffffffffffffffffffffffffffff\n          and\n          eq\n          iszero\n            /* \"@openzeppelin/contracts/token/ERC20/ERC20.sol\":8486:8551   */\n          tag_168\n          jumpi\n          mload(0x40)\n          0x08c379a000000000000000000000000000000000000000000000000000000000\n          dup2\n          mstore\n          0x04\n          add\n          tag_169\n          swap1\n          tag_170\n          jump\t// in\n        tag_169:\n          mload(0x40)\n          dup1\n          swap2\n          sub\n          swap1\n          revert\n        tag_168:\n            /* \"@openzeppelin/contracts/token/ERC20/ERC20.sol\":8562:8611   */\n          tag_171\n            /* \"@openzeppelin/contracts/token/ERC20/ERC20.sol\":8591:8592   */\n          0x00\n            /* \"@openzeppelin/contracts/token/ERC20/ERC20.sol\":8595:8602   */\n          dup4\n            /* \"@openzeppelin/contracts/token/ERC20/ERC20.sol\":8604:8610   */\n          dup4\n            /* \"@openzeppelin/contracts/token/ERC20/ERC20.sol\":8562:8582   */\n          tag_159\n            /* \"@openzeppelin/contracts/token/ERC20/ERC20.sol\":8562:8611   */\n          jump\t// in\n        tag_171:\n            /* \"@openzeppelin/contracts/token/ERC20/ERC20.sol\":8638:8644   */\n          dup1\n            /* \"@openzeppelin/contracts/token/ERC20/ERC20.sol\":8622:8634   */\n          0x02\n          0x00\n            /* \"@openzeppelin/contracts/token/ERC20/ERC20.sol\":8622:8644   */\n          dup3\n          dup3\n          sload\n          tag_172\n          swap2\n          swap1\n          tag_101\n          jump\t// in\n        tag_172:\n          swap3\n          pop\n          pop\n          dup2\n          swap1\n          sstore\n          pop\n            /* \"@openzeppelin/contracts/token/ERC20/ERC20.sol\":8676:8682   */\n          dup1\n            /* \"@openzeppelin/contracts/token/ERC20/ERC20.sol\":8654:8663   */\n          0x00\n            /* \"@openzeppelin/contracts/token/ERC20/ERC20.sol\":8654:8672   */\n          dup1\n            /* \"@openzeppelin/contracts/token/ERC20/ERC20.sol\":8664:8671   */\n          dup5\n            /* \"@openzeppelin/contracts/token/ERC20/ERC20.sol\":8654:8672   */\n          0xffffffffffffffffffffffffffffffffffffffff\n          and\n          0xffffffffffffffffffffffffffffffffffffffff\n          and\n          dup2\n          mstore\n          0x20\n          add\n          swap1\n          dup2\n          mstore\n          0x20\n          add\n          0x00\n          keccak256\n          0x00\n            /* \"@openzeppelin/contracts/token/ERC20/ERC20.sol\":8654:8682   */\n          dup3\n          dup3\n          sload\n          tag_173\n          swap2\n          swap1\n          tag_101\n          jump\t// in\n        tag_173:\n          swap3\n          pop\n          pop\n          dup2\n          swap1\n          sstore\n          pop\n            /* \"@openzeppelin/contracts/token/ERC20/ERC20.sol\":8718:8725   */\n          dup2\n            /* \"@openzeppelin/contracts/token/ERC20/ERC20.sol\":8697:8734   */\n          0xffffffffffffffffffffffffffffffffffffffff\n          and\n            /* \"@openzeppelin/contracts/token/ERC20/ERC20.sol\":8714:8715   */\n          0x00\n            /* \"@openzeppelin/contracts/token/ERC20/ERC20.sol\":8697:8734   */\n          0xffffffffffffffffffffffffffffffffffffffff\n          and\n          0xddf252ad1be2c89b69c2b068fc378daa952ba7f163c4a11628f55a4df523b3ef\n            /* \"@openzeppelin/contracts/token/ERC20/ERC20.sol\":8727:8733   */\n          dup4\n            /* \"@openzeppelin/contracts/token/ERC20/ERC20.sol\":8697:8734   */\n          mload(0x40)\n          tag_174\n          swap2\n          swap1\n          tag_31\n          jump\t// in\n        tag_174:\n          mload(0x40)\n          dup1\n          swap2\n          sub\n          swap1\n          log3\n            /* \"@openzeppelin/contracts/token/ERC20/ERC20.sol\":8745:8793   */\n          tag_175\n            /* \"@openzeppelin/contracts/token/ERC20/ERC20.sol\":8773:8774   */\n          0x00\n            /* \"@openzeppelin/contracts/token/ERC20/ERC20.sol\":8777:8784   */\n          dup4\n            /* \"@openzeppelin/contracts/token/ERC20/ERC20.sol\":8786:8792   */\n          dup4\n            /* \"@openzeppelin/contracts/token/ERC20/ERC20.sol\":8745:8764   */\n          tag_166\n            /* \"@openzeppelin/contracts/token/ERC20/ERC20.sol\":8745:8793   */\n          jump\t// in\n        tag_175:\n            /* \"@openzeppelin/contracts/token/ERC20/ERC20.sol\":8411:8800   */\n          pop\n          pop\n          jump\t// out\n            /* \"@openzeppelin/contracts/token/ERC20/ERC20.sol\":9120:9696   */\n        tag_120:\n            /* \"@openzeppelin/contracts/token/ERC20/ERC20.sol\":9222:9223   */\n          0x00\n            /* \"@openzeppelin/contracts/token/ERC20/ERC20.sol\":9203:9224   */\n          0xffffffffffffffffffffffffffffffffffffffff\n          and\n            /* \"@openzeppelin/contracts/token/ERC20/ERC20.sol\":9203:9210   */\n          dup3\n            /* \"@openzeppelin/contracts/token/ERC20/ERC20.sol\":9203:9224   */\n          0xffffffffffffffffffffffffffffffffffffffff\n          and\n          eq\n          iszero\n            /* \"@openzeppelin/contracts/token/ERC20/ERC20.sol\":9195:9262   */\n          tag_177\n          jumpi\n          mload(0x40)\n          0x08c379a000000000000000000000000000000000000000000000000000000000\n          dup2\n          mstore\n          0x04\n          add\n          tag_178\n          swap1\n          tag_179\n          jump\t// in\n        tag_178:\n          mload(0x40)\n          dup1\n          swap2\n          sub\n          swap1\n          revert\n        tag_177:\n            /* \"@openzeppelin/contracts/token/ERC20/ERC20.sol\":9273:9322   */\n          tag_180\n            /* \"@openzeppelin/contracts/token/ERC20/ERC20.sol\":9294:9301   */\n          dup3\n            /* \"@openzeppelin/contracts/token/ERC20/ERC20.sol\":9311:9312   */\n          0x00\n            /* \"@openzeppelin/contracts/token/ERC20/ERC20.sol\":9315:9321   */\n          dup4\n            /* \"@openzeppelin/contracts/token/ERC20/ERC20.sol\":9273:9293   */\n          tag_159\n            /* \"@openzeppelin/contracts/token/ERC20/ERC20.sol\":9273:9322   */\n          jump\t// in\n        tag_180:\n            /* \"@openzeppelin/contracts/token/ERC20/ERC20.sol\":9333:9355   */\n          0x00\n            /* \"@openzeppelin/contracts/token/ERC20/ERC20.sol\":9358:9367   */\n          dup1\n            /* \"@openzeppelin/contracts/token/ERC20/ERC20.sol\":9358:9376   */\n          0x00\n            /* \"@openzeppelin/contracts/token/ERC20/ERC20.sol\":9368:9375   */\n          dup5\n            /* \"@openzeppelin/contracts/token/ERC20/ERC20.sol\":9358:9376   */\n          0xffffffffffffffffffffffffffffffffffffffff\n          and\n          0xffffffffffffffffffffffffffffffffffffffff\n          and\n          dup2\n          mstore\n          0x20\n          add\n          swap1\n          dup2\n          mstore\n          0x20\n          add\n          0x00\n          keccak256\n          sload\n            /* \"@openzeppelin/contracts/token/ERC20/ERC20.sol\":9333:9376   */\n          swap1\n          pop\n            /* \"@openzeppelin/contracts/token/ERC20/ERC20.sol\":9412:9418   */\n          dup2\n            /* \"@openzeppelin/contracts/token/ERC20/ERC20.sol\":9394:9408   */\n          dup2\n            /* \"@openzeppelin/contracts/token/ERC20/ERC20.sol\":9394:9418   */\n          lt\n          iszero\n            /* \"@openzeppelin/contracts/token/ERC20/ERC20.sol\":9386:9457   */\n          tag_181\n          jumpi\n          mload(0x40)\n          0x08c379a000000000000000000000000000000000000000000000000000000000\n          dup2\n          mstore\n          0x04\n          add\n          tag_182\n          swap1\n          tag_183\n          jump\t// in\n        tag_182:\n          mload(0x40)\n          dup1\n          swap2\n          sub\n          swap1\n          revert\n        tag_181:\n            /* \"@openzeppelin/contracts/token/ERC20/ERC20.sol\":9529:9535   */\n          dup2\n            /* \"@openzeppelin/contracts/token/ERC20/ERC20.sol\":9512:9526   */\n          dup2\n            /* \"@openzeppelin/contracts/token/ERC20/ERC20.sol\":9512:9535   */\n          sub\n            /* \"@openzeppelin/contracts/token/ERC20/ERC20.sol\":9491:9500   */\n          0x00\n            /* \"@openzeppelin/contracts/token/ERC20/ERC20.sol\":9491:9509   */\n          dup1\n            /* \"@openzeppelin/contracts/token/ERC20/ERC20.sol\":9501:9508   */\n          dup6\n            /* \"@openzeppelin/contracts/token/ERC20/ERC20.sol\":9491:9509   */\n          0xffffffffffffffffffffffffffffffffffffffff\n          and\n          0xffffffffffffffffffffffffffffffffffffffff\n          and\n          dup2\n          mstore\n          0x20\n          add\n          swap1\n          dup2\n          mstore\n          0x20\n          add\n          0x00\n          keccak256\n            /* \"@openzeppelin/contracts/token/ERC20/ERC20.sol\":9491:9535   */\n          dup2\n          swap1\n          sstore\n          pop\n            /* \"@openzeppelin/contracts/token/ERC20/ERC20.sol\":9571:9577   */\n          dup2\n            /* \"@openzeppelin/contracts/token/ERC20/ERC20.sol\":9555:9567   */\n          0x02\n          0x00\n            /* \"@openzeppelin/contracts/token/ERC20/ERC20.sol\":9555:9577   */\n          dup3\n          dup3\n          sload\n          tag_184\n          swap2\n          swap1\n          tag_185\n          jump\t// in\n        tag_184:\n          swap3\n          pop\n          pop\n          dup2\n          swap1\n          sstore\n          pop\n            /* \"@openzeppelin/contracts/token/ERC20/ERC20.sol\":9619:9620   */\n          0x00\n            /* \"@openzeppelin/contracts/token/ERC20/ERC20.sol\":9593:9630   */\n          0xffffffffffffffffffffffffffffffffffffffff\n          and\n            /* \"@openzeppelin/contracts/token/ERC20/ERC20.sol\":9602:9609   */\n          dup4\n            /* \"@openzeppelin/contracts/token/ERC20/ERC20.sol\":9593:9630   */\n          0xffffffffffffffffffffffffffffffffffffffff\n          and\n          0xddf252ad1be2c89b69c2b068fc378daa952ba7f163c4a11628f55a4df523b3ef\n            /* \"@openzeppelin/contracts/token/ERC20/ERC20.sol\":9623:9629   */\n          dup5\n            /* \"@openzeppelin/contracts/token/ERC20/ERC20.sol\":9593:9630   */\n          mload(0x40)\n          tag_186\n          swap2\n          swap1\n          tag_31\n          jump\t// in\n        tag_186:\n          mload(0x40)\n          dup1\n          swap2\n          sub\n          swap1\n          log3\n            /* \"@openzeppelin/contracts/token/ERC20/ERC20.sol\":9641:9689   */\n          tag_187\n            /* \"@openzeppelin/contracts/token/ERC20/ERC20.sol\":9661:9668   */\n          dup4\n            /* \"@openzeppelin/contracts/token/ERC20/ERC20.sol\":9678:9679   */\n          0x00\n            /* \"@openzeppelin/contracts/token/ERC20/ERC20.sol\":9682:9688   */\n          dup5\n            /* \"@openzeppelin/contracts/token/ERC20/ERC20.sol\":9641:9660   */\n          tag_166\n            /* \"@openzeppelin/contracts/token/ERC20/ERC20.sol\":9641:9689   */\n          jump\t// in\n        tag_187:\n            /* \"@openzeppelin/contracts/token/ERC20/ERC20.sol\":9185:9696   */\n          pop\n            /* \"@openzeppelin/contracts/token/ERC20/ERC20.sol\":9120:9696   */\n          pop\n          pop\n          jump\t// out\n            /* \"@openzeppelin/contracts/token/ERC20/ERC20.sol\":11795:11916   */\n        tag_159:\n          pop\n          pop\n          pop\n          jump\t// out\n            /* \"@openzeppelin/contracts/token/ERC20/ERC20.sol\":12504:12624   */\n        tag_166:\n          pop\n          pop\n          pop\n          jump\t// out\n            /* \"#utility.yul\":7:106   */\n        tag_190:\n            /* \"#utility.yul\":59:65   */\n          0x00\n            /* \"#utility.yul\":93:98   */\n          dup2\n            /* \"#utility.yul\":87:99   */\n          mload\n            /* \"#utility.yul\":77:99   */\n          swap1\n          pop\n            /* \"#utility.yul\":7:106   */\n          swap2\n          swap1\n          pop\n          jump\t// out\n            /* \"#utility.yul\":112:281   */\n        tag_191:\n            /* \"#utility.yul\":196:207   */\n          0x00\n            /* \"#utility.yul\":230:236   */\n          dup3\n            /* \"#utility.yul\":225:228   */\n          dup3\n            /* \"#utility.yul\":218:237   */\n          mstore\n            /* \"#utility.yul\":270:274   */\n          0x20\n            /* \"#utility.yul\":265:268   */\n          dup3\n            /* \"#utility.yul\":261:275   */\n          add\n            /* \"#utility.yul\":246:275   */\n          swap1\n          pop\n            /* \"#utility.yul\":112:281   */\n          swap3\n          swap2\n          pop\n          pop\n          jump\t// out\n            /* \"#utility.yul\":287:594   */\n        tag_192:\n            /* \"#utility.yul\":355:356   */\n          0x00\n            /* \"#utility.yul\":365:478   */\n        tag_238:\n            /* \"#utility.yul\":379:385   */\n          dup4\n            /* \"#utility.yul\":376:377   */\n          dup2\n            /* \"#utility.yul\":373:386   */\n          lt\n            /* \"#utility.yul\":365:478   */\n          iszero\n          tag_240\n          jumpi\n            /* \"#utility.yul\":464:465   */\n          dup1\n            /* \"#utility.yul\":459:462   */\n          dup3\n            /* \"#utility.yul\":455:466   */\n          add\n            /* \"#utility.yul\":449:467   */\n          mload\n            /* \"#utility.yul\":445:446   */\n          dup2\n            /* \"#utility.yul\":440:443   */\n          dup5\n            /* \"#utility.yul\":436:447   */\n          add\n            /* \"#utility.yul\":429:468   */\n          mstore\n            /* \"#utility.yul\":401:403   */\n          0x20\n            /* \"#utility.yul\":398:399   */\n          dup2\n            /* \"#utility.yul\":394:404   */\n          add\n            /* \"#utility.yul\":389:404   */\n          swap1\n          pop\n            /* \"#utility.yul\":365:478   */\n          jump(tag_238)\n        tag_240:\n            /* \"#utility.yul\":496:502   */\n          dup4\n            /* \"#utility.yul\":493:494   */\n          dup2\n            /* \"#utility.yul\":490:503   */\n          gt\n            /* \"#utility.yul\":487:588   */\n          iszero\n          tag_241\n          jumpi\n            /* \"#utility.yul\":576:577   */\n          0x00\n            /* \"#utility.yul\":567:573   */\n          dup5\n            /* \"#utility.yul\":562:565   */\n          dup5\n            /* \"#utility.yul\":558:574   */\n          add\n            /* \"#utility.yul\":551:578   */\n          mstore\n            /* \"#utility.yul\":487:588   */\n        tag_241:\n            /* \"#utility.yul\":336:594   */\n          pop\n            /* \"#utility.yul\":287:594   */\n          pop\n          pop\n          pop\n          jump\t// out\n            /* \"#utility.yul\":600:702   */\n        tag_193:\n            /* \"#utility.yul\":641:647   */\n          0x00\n            /* \"#utility.yul\":692:694   */\n          0x1f\n            /* \"#utility.yul\":688:695   */\n          not\n            /* \"#utility.yul\":683:685   */\n          0x1f\n            /* \"#utility.yul\":676:681   */\n          dup4\n            /* \"#utility.yul\":672:686   */\n          add\n            /* \"#utility.yul\":668:696   */\n          and\n            /* \"#utility.yul\":658:696   */\n          swap1\n          pop\n            /* \"#utility.yul\":600:702   */\n          swap2\n          swap1\n          pop\n          jump\t// out\n            /* \"#utility.yul\":708:1072   */\n        tag_194:\n            /* \"#utility.yul\":796:799   */\n          0x00\n            /* \"#utility.yul\":824:863   */\n          tag_244\n            /* \"#utility.yul\":857:862   */\n          dup3\n            /* \"#utility.yul\":824:863   */\n          tag_190\n          jump\t// in\n        tag_244:\n            /* \"#utility.yul\":879:950   */\n          tag_245\n            /* \"#utility.yul\":943:949   */\n          dup2\n            /* \"#utility.yul\":938:941   */\n          dup6\n            /* \"#utility.yul\":879:950   */\n          tag_191\n          jump\t// in\n        tag_245:\n            /* \"#utility.yul\":872:950   */\n          swap4\n          pop\n            /* \"#utility.yul\":959:1011   */\n          tag_246\n            /* \"#utility.yul\":1004:1010   */\n          dup2\n            /* \"#utility.yul\":999:1002   */\n          dup6\n            /* \"#utility.yul\":992:996   */\n          0x20\n            /* \"#utility.yul\":985:990   */\n          dup7\n            /* \"#utility.yul\":981:997   */\n          add\n            /* \"#utility.yul\":959:1011   */\n          tag_192\n          jump\t// in\n        tag_246:\n            /* \"#utility.yul\":1036:1065   */\n          tag_247\n            /* \"#utility.yul\":1058:1064   */\n          dup2\n            /* \"#utility.yul\":1036:1065   */\n          tag_193\n          jump\t// in\n        tag_247:\n            /* \"#utility.yul\":1031:1034   */\n          dup5\n            /* \"#utility.yul\":1027:1066   */\n          add\n            /* \"#utility.yul\":1020:1066   */\n          swap2\n          pop\n            /* \"#utility.yul\":800:1072   */\n          pop\n            /* \"#utility.yul\":708:1072   */\n          swap3\n          swap2\n          pop\n          pop\n          jump\t// out\n            /* \"#utility.yul\":1078:1391   */\n        tag_21:\n            /* \"#utility.yul\":1191:1195   */\n          0x00\n            /* \"#utility.yul\":1229:1231   */\n          0x20\n            /* \"#utility.yul\":1218:1227   */\n          dup3\n            /* \"#utility.yul\":1214:1232   */\n          add\n            /* \"#utility.yul\":1206:1232   */\n          swap1\n          pop\n            /* \"#utility.yul\":1278:1287   */\n          dup2\n            /* \"#utility.yul\":1272:1276   */\n          dup2\n            /* \"#utility.yul\":1268:1288   */\n          sub\n            /* \"#utility.yul\":1264:1265   */\n          0x00\n            /* \"#utility.yul\":1253:1262   */\n          dup4\n            /* \"#utility.yul\":1249:1266   */\n          add\n            /* \"#utility.yul\":1242:1289   */\n          mstore\n            /* \"#utility.yul\":1306:1384   */\n          tag_249\n            /* \"#utility.yul\":1379:1383   */\n          dup2\n            /* \"#utility.yul\":1370:1376   */\n          dup5\n            /* \"#utility.yul\":1306:1384   */\n          tag_194\n          jump\t// in\n        tag_249:\n            /* \"#utility.yul\":1298:1384   */\n          swap1\n          pop\n            /* \"#utility.yul\":1078:1391   */\n          swap3\n          swap2\n          pop\n          pop\n          jump\t// out\n            /* \"#utility.yul\":1478:1595   */\n        tag_196:\n            /* \"#utility.yul\":1587:1588   */\n          0x00\n            /* \"#utility.yul\":1584:1585   */\n          dup1\n            /* \"#utility.yul\":1577:1589   */\n          revert\n            /* \"#utility.yul\":1724:1850   */\n        tag_198:\n            /* \"#utility.yul\":1761:1768   */\n          0x00\n            /* \"#utility.yul\":1801:1843   */\n          0xffffffffffffffffffffffffffffffffffffffff\n            /* \"#utility.yul\":1794:1799   */\n          dup3\n            /* \"#utility.yul\":1790:1844   */\n          and\n            /* \"#utility.yul\":1779:1844   */\n          swap1\n          pop\n            /* \"#utility.yul\":1724:1850   */\n          swap2\n          swap1\n          pop\n          jump\t// out\n            /* \"#utility.yul\":1856:1952   */\n        tag_199:\n            /* \"#utility.yul\":1893:1900   */\n          0x00\n            /* \"#utility.yul\":1922:1946   */\n          tag_255\n            /* \"#utility.yul\":1940:1945   */\n          dup3\n            /* \"#utility.yul\":1922:1946   */\n          tag_198\n          jump\t// in\n        tag_255:\n            /* \"#utility.yul\":1911:1946   */\n          swap1\n          pop\n            /* \"#utility.yul\":1856:1952   */\n          swap2\n          swap1\n          pop\n          jump\t// out\n            /* \"#utility.yul\":1958:2080   */\n        tag_200:\n            /* \"#utility.yul\":2031:2055   */\n          tag_257\n            /* \"#utility.yul\":2049:2054   */\n          dup2\n            /* \"#utility.yul\":2031:2055   */\n          tag_199\n          jump\t// in\n        tag_257:\n            /* \"#utility.yul\":2024:2029   */\n          dup2\n            /* \"#utility.yul\":2021:2056   */\n          eq\n            /* \"#utility.yul\":2011:2074   */\n          tag_258\n          jumpi\n            /* \"#utility.yul\":2070:2071   */\n          0x00\n            /* \"#utility.yul\":2067:2068   */\n          dup1\n            /* \"#utility.yul\":2060:2072   */\n          revert\n            /* \"#utility.yul\":2011:2074   */\n        tag_258:\n            /* \"#utility.yul\":1958:2080   */\n          pop\n          jump\t// out\n            /* \"#utility.yul\":2086:2225   */\n        tag_201:\n            /* \"#utility.yul\":2132:2137   */\n          0x00\n            /* \"#utility.yul\":2170:2176   */\n          dup2\n            /* \"#utility.yul\":2157:2177   */\n          calldataload\n            /* \"#utility.yul\":2148:2177   */\n          swap1\n          pop\n            /* \"#utility.yul\":2186:2219   */\n          tag_260\n            /* \"#utility.yul\":2213:2218   */\n          dup2\n            /* \"#utility.yul\":2186:2219   */\n          tag_200\n          jump\t// in\n        tag_260:\n            /* \"#utility.yul\":2086:2225   */\n          swap3\n          swap2\n          pop\n          pop\n          jump\t// out\n            /* \"#utility.yul\":2231:2308   */\n        tag_202:\n            /* \"#utility.yul\":2268:2275   */\n          0x00\n            /* \"#utility.yul\":2297:2302   */\n          dup2\n            /* \"#utility.yul\":2286:2302   */\n          swap1\n          pop\n            /* \"#utility.yul\":2231:2308   */\n          swap2\n          swap1\n          pop\n          jump\t// out\n            /* \"#utility.yul\":2314:2436   */\n        tag_203:\n            /* \"#utility.yul\":2387:2411   */\n          tag_263\n            /* \"#utility.yul\":2405:2410   */\n          dup2\n            /* \"#utility.yul\":2387:2411   */\n          tag_202\n          jump\t// in\n        tag_263:\n            /* \"#utility.yul\":2380:2385   */\n          dup2\n            /* \"#utility.yul\":2377:2412   */\n          eq\n            /* \"#utility.yul\":2367:2430   */\n          tag_264\n          jumpi\n            /* \"#utility.yul\":2426:2427   */\n          0x00\n            /* \"#utility.yul\":2423:2424   */\n          dup1\n            /* \"#utility.yul\":2416:2428   */\n          revert\n            /* \"#utility.yul\":2367:2430   */\n        tag_264:\n            /* \"#utility.yul\":2314:2436   */\n          pop\n          jump\t// out\n            /* \"#utility.yul\":2442:2581   */\n        tag_204:\n            /* \"#utility.yul\":2488:2493   */\n          0x00\n            /* \"#utility.yul\":2526:2532   */\n          dup2\n            /* \"#utility.yul\":2513:2533   */\n          calldataload\n            /* \"#utility.yul\":2504:2533   */\n          swap1\n          pop\n            /* \"#utility.yul\":2542:2575   */\n          tag_266\n            /* \"#utility.yul\":2569:2574   */\n          dup2\n            /* \"#utility.yul\":2542:2575   */\n          tag_203\n          jump\t// in\n        tag_266:\n            /* \"#utility.yul\":2442:2581   */\n          swap3\n          swap2\n          pop\n          pop\n          jump\t// out\n            /* \"#utility.yul\":2587:3061   */\n        tag_24:\n            /* \"#utility.yul\":2655:2661   */\n          0x00\n            /* \"#utility.yul\":2663:2669   */\n          dup1\n            /* \"#utility.yul\":2712:2714   */\n          0x40\n            /* \"#utility.yul\":2700:2709   */\n          dup4\n            /* \"#utility.yul\":2691:2698   */\n          dup6\n            /* \"#utility.yul\":2687:2710   */\n          sub\n            /* \"#utility.yul\":2683:2715   */\n          slt\n            /* \"#utility.yul\":2680:2799   */\n          iszero\n          tag_268\n          jumpi\n            /* \"#utility.yul\":2718:2797   */\n          tag_269\n          tag_196\n          jump\t// in\n        tag_269:\n            /* \"#utility.yul\":2680:2799   */\n        tag_268:\n            /* \"#utility.yul\":2838:2839   */\n          0x00\n            /* \"#utility.yul\":2863:2916   */\n          tag_270\n            /* \"#utility.yul\":2908:2915   */\n          dup6\n            /* \"#utility.yul\":2899:2905   */\n          dup3\n            /* \"#utility.yul\":2888:2897   */\n          dup7\n            /* \"#utility.yul\":2884:2906   */\n          add\n            /* \"#utility.yul\":2863:2916   */\n          tag_201\n          jump\t// in\n        tag_270:\n            /* \"#utility.yul\":2853:2916   */\n          swap3\n          pop\n            /* \"#utility.yul\":2809:2926   */\n          pop\n            /* \"#utility.yul\":2965:2967   */\n          0x20\n            /* \"#utility.yul\":2991:3044   */\n          tag_271\n            /* \"#utility.yul\":3036:3043   */\n          dup6\n            /* \"#utility.yul\":3027:3033   */\n          dup3\n            /* \"#utility.yul\":3016:3025   */\n          dup7\n            /* \"#utility.yul\":3012:3034   */\n          add\n            /* \"#utility.yul\":2991:3044   */\n          tag_204\n          jump\t// in\n        tag_271:\n            /* \"#utility.yul\":2981:3044   */\n          swap2\n          pop\n            /* \"#utility.yul\":2936:3054   */\n          pop\n            /* \"#utility.yul\":2587:3061   */\n          swap3\n          pop\n          swap3\n          swap1\n          pop\n          jump\t// out\n            /* \"#utility.yul\":3067:3157   */\n        tag_205:\n            /* \"#utility.yul\":3101:3108   */\n          0x00\n            /* \"#utility.yul\":3144:3149   */\n          dup2\n            /* \"#utility.yul\":3137:3150   */\n          iszero\n            /* \"#utility.yul\":3130:3151   */\n          iszero\n            /* \"#utility.yul\":3119:3151   */\n          swap1\n          pop\n            /* \"#utility.yul\":3067:3157   */\n          swap2\n          swap1\n          pop\n          jump\t// out\n            /* \"#utility.yul\":3163:3272   */\n        tag_206:\n            /* \"#utility.yul\":3244:3265   */\n          tag_274\n            /* \"#utility.yul\":3259:3264   */\n          dup2\n            /* \"#utility.yul\":3244:3265   */\n          tag_205\n          jump\t// in\n        tag_274:\n            /* \"#utility.yul\":3239:3242   */\n          dup3\n            /* \"#utility.yul\":3232:3266   */\n          mstore\n            /* \"#utility.yul\":3163:3272   */\n          pop\n          pop\n          jump\t// out\n            /* \"#utility.yul\":3278:3488   */\n        tag_27:\n            /* \"#utility.yul\":3365:3369   */\n          0x00\n            /* \"#utility.yul\":3403:3405   */\n          0x20\n            /* \"#utility.yul\":3392:3401   */\n          dup3\n            /* \"#utility.yul\":3388:3406   */\n          add\n            /* \"#utility.yul\":3380:3406   */\n          swap1\n          pop\n            /* \"#utility.yul\":3416:3481   */\n          tag_276\n            /* \"#utility.yul\":3478:3479   */\n          0x00\n            /* \"#utility.yul\":3467:3476   */\n          dup4\n            /* \"#utility.yul\":3463:3480   */\n          add\n            /* \"#utility.yul\":3454:3460   */\n          dup5\n            /* \"#utility.yul\":3416:3481   */\n          tag_206\n          jump\t// in\n        tag_276:\n            /* \"#utility.yul\":3278:3488   */\n          swap3\n          swap2\n          pop\n          pop\n          jump\t// out\n            /* \"#utility.yul\":3494:3612   */\n        tag_207:\n            /* \"#utility.yul\":3581:3605   */\n          tag_278\n            /* \"#utility.yul\":3599:3604   */\n          dup2\n            /* \"#utility.yul\":3581:3605   */\n          tag_202\n          jump\t// in\n        tag_278:\n            /* \"#utility.yul\":3576:3579   */\n          dup3\n            /* \"#utility.yul\":3569:3606   */\n          mstore\n            /* \"#utility.yul\":3494:3612   */\n          pop\n          pop\n          jump\t// out\n            /* \"#utility.yul\":3618:3840   */\n        tag_31:\n            /* \"#utility.yul\":3711:3715   */\n          0x00\n            /* \"#utility.yul\":3749:3751   */\n          0x20\n            /* \"#utility.yul\":3738:3747   */\n          dup3\n            /* \"#utility.yul\":3734:3752   */\n          add\n            /* \"#utility.yul\":3726:3752   */\n          swap1\n          pop\n            /* \"#utility.yul\":3762:3833   */\n          tag_280\n            /* \"#utility.yul\":3830:3831   */\n          0x00\n            /* \"#utility.yul\":3819:3828   */\n          dup4\n            /* \"#utility.yul\":3815:3832   */\n          add\n            /* \"#utility.yul\":3806:3812   */\n          dup5\n            /* \"#utility.yul\":3762:3833   */\n          tag_207\n          jump\t// in\n        tag_280:\n            /* \"#utility.yul\":3618:3840   */\n          swap3\n          swap2\n          pop\n          pop\n          jump\t// out\n            /* \"#utility.yul\":3846:4465   */\n        tag_34:\n            /* \"#utility.yul\":3923:3929   */\n          0x00\n            /* \"#utility.yul\":3931:3937   */\n          dup1\n            /* \"#utility.yul\":3939:3945   */\n          0x00\n            /* \"#utility.yul\":3988:3990   */\n          0x60\n            /* \"#utility.yul\":3976:3985   */\n          dup5\n            /* \"#utility.yul\":3967:3974   */\n          dup7\n            /* \"#utility.yul\":3963:3986   */\n          sub\n            /* \"#utility.yul\":3959:3991   */\n          slt\n            /* \"#utility.yul\":3956:4075   */\n          iszero\n          tag_282\n          jumpi\n            /* \"#utility.yul\":3994:4073   */\n          tag_283\n          tag_196\n          jump\t// in\n        tag_283:\n            /* \"#utility.yul\":3956:4075   */\n        tag_282:\n            /* \"#utility.yul\":4114:4115   */\n          0x00\n            /* \"#utility.yul\":4139:4192   */\n          tag_284\n            /* \"#utility.yul\":4184:4191   */\n          dup7\n            /* \"#utility.yul\":4175:4181   */\n          dup3\n            /* \"#utility.yul\":4164:4173   */\n          dup8\n            /* \"#utility.yul\":4160:4182   */\n          add\n            /* \"#utility.yul\":4139:4192   */\n          tag_201\n          jump\t// in\n        tag_284:\n            /* \"#utility.yul\":4129:4192   */\n          swap4\n          pop\n            /* \"#utility.yul\":4085:4202   */\n          pop\n            /* \"#utility.yul\":4241:4243   */\n          0x20\n            /* \"#utility.yul\":4267:4320   */\n          tag_285\n            /* \"#utility.yul\":4312:4319   */\n          dup7\n            /* \"#utility.yul\":4303:4309   */\n          dup3\n            /* \"#utility.yul\":4292:4301   */\n          dup8\n            /* \"#utility.yul\":4288:4310   */\n          add\n            /* \"#utility.yul\":4267:4320   */\n          tag_201\n          jump\t// in\n        tag_285:\n            /* \"#utility.yul\":4257:4320   */\n          swap3\n          pop\n            /* \"#utility.yul\":4212:4330   */\n          pop\n            /* \"#utility.yul\":4369:4371   */\n          0x40\n            /* \"#utility.yul\":4395:4448   */\n          tag_286\n            /* \"#utility.yul\":4440:4447   */\n          dup7\n            /* \"#utility.yul\":4431:4437   */\n          dup3\n            /* \"#utility.yul\":4420:4429   */\n          dup8\n            /* \"#utility.yul\":4416:4438   */\n          add\n            /* \"#utility.yul\":4395:4448   */\n          tag_204\n          jump\t// in\n        tag_286:\n            /* \"#utility.yul\":4385:4448   */\n          swap2\n          pop\n            /* \"#utility.yul\":4340:4458   */\n          pop\n            /* \"#utility.yul\":3846:4465   */\n          swap3\n          pop\n          swap3\n          pop\n          swap3\n          jump\t// out\n            /* \"#utility.yul\":4471:4557   */\n        tag_208:\n            /* \"#utility.yul\":4506:4513   */\n          0x00\n            /* \"#utility.yul\":4546:4550   */\n          0xff\n            /* \"#utility.yul\":4539:4544   */\n          dup3\n            /* \"#utility.yul\":4535:4551   */\n          and\n            /* \"#utility.yul\":4524:4551   */\n          swap1\n          pop\n            /* \"#utility.yul\":4471:4557   */\n          swap2\n          swap1\n          pop\n          jump\t// out\n            /* \"#utility.yul\":4563:4675   */\n        tag_209:\n            /* \"#utility.yul\":4646:4668   */\n          tag_289\n            /* \"#utility.yul\":4662:4667   */\n          dup2\n            /* \"#utility.yul\":4646:4668   */\n          tag_208\n          jump\t// in\n        tag_289:\n            /* \"#utility.yul\":4641:4644   */\n          dup3\n            /* \"#utility.yul\":4634:4669   */\n          mstore\n            /* \"#utility.yul\":4563:4675   */\n          pop\n          pop\n          jump\t// out\n            /* \"#utility.yul\":4681:4895   */\n        tag_40:\n            /* \"#utility.yul\":4770:4774   */\n          0x00\n            /* \"#utility.yul\":4808:4810   */\n          0x20\n            /* \"#utility.yul\":4797:4806   */\n          dup3\n            /* \"#utility.yul\":4793:4811   */\n          add\n            /* \"#utility.yul\":4785:4811   */\n          swap1\n          pop\n            /* \"#utility.yul\":4821:4888   */\n          tag_291\n            /* \"#utility.yul\":4885:4886   */\n          0x00\n            /* \"#utility.yul\":4874:4883   */\n          dup4\n            /* \"#utility.yul\":4870:4887   */\n          add\n            /* \"#utility.yul\":4861:4867   */\n          dup5\n            /* \"#utility.yul\":4821:4888   */\n          tag_209\n          jump\t// in\n        tag_291:\n            /* \"#utility.yul\":4681:4895   */\n          swap3\n          swap2\n          pop\n          pop\n          jump\t// out\n            /* \"#utility.yul\":4901:5230   */\n        tag_50:\n            /* \"#utility.yul\":4960:4966   */\n          0x00\n            /* \"#utility.yul\":5009:5011   */\n          0x20\n            /* \"#utility.yul\":4997:5006   */\n          dup3\n            /* \"#utility.yul\":4988:4995   */\n          dup5\n            /* \"#utility.yul\":4984:5007   */\n          sub\n            /* \"#utility.yul\":4980:5012   */\n          slt\n            /* \"#utility.yul\":4977:5096   */\n          iszero\n          tag_293\n          jumpi\n            /* \"#utility.yul\":5015:5094   */\n          tag_294\n          tag_196\n          jump\t// in\n        tag_294:\n            /* \"#utility.yul\":4977:5096   */\n        tag_293:\n            /* \"#utility.yul\":5135:5136   */\n          0x00\n            /* \"#utility.yul\":5160:5213   */\n          tag_295\n            /* \"#utility.yul\":5205:5212   */\n          dup5\n            /* \"#utility.yul\":5196:5202   */\n          dup3\n            /* \"#utility.yul\":5185:5194   */\n          dup6\n            /* \"#utility.yul\":5181:5203   */\n          add\n            /* \"#utility.yul\":5160:5213   */\n          tag_201\n          jump\t// in\n        tag_295:\n            /* \"#utility.yul\":5150:5213   */\n          swap2\n          pop\n            /* \"#utility.yul\":5106:5223   */\n          pop\n            /* \"#utility.yul\":4901:5230   */\n          swap3\n          swap2\n          pop\n          pop\n          jump\t// out\n            /* \"#utility.yul\":5236:5710   */\n        tag_69:\n            /* \"#utility.yul\":5304:5310   */\n          0x00\n            /* \"#utility.yul\":5312:5318   */\n          dup1\n            /* \"#utility.yul\":5361:5363   */\n          0x40\n            /* \"#utility.yul\":5349:5358   */\n          dup4\n            /* \"#utility.yul\":5340:5347   */\n          dup6\n            /* \"#utility.yul\":5336:5359   */\n          sub\n            /* \"#utility.yul\":5332:5364   */\n          slt\n            /* \"#utility.yul\":5329:5448   */\n          iszero\n          tag_297\n          jumpi\n            /* \"#utility.yul\":5367:5446   */\n          tag_298\n          tag_196\n          jump\t// in\n        tag_298:\n            /* \"#utility.yul\":5329:5448   */\n        tag_297:\n            /* \"#utility.yul\":5487:5488   */\n          0x00\n            /* \"#utility.yul\":5512:5565   */\n          tag_299\n            /* \"#utility.yul\":5557:5564   */\n          dup6\n            /* \"#utility.yul\":5548:5554   */\n          dup3\n            /* \"#utility.yul\":5537:5546   */\n          dup7\n            /* \"#utility.yul\":5533:5555   */\n          add\n            /* \"#utility.yul\":5512:5565   */\n          tag_201\n          jump\t// in\n        tag_299:\n            /* \"#utility.yul\":5502:5565   */\n          swap3\n          pop\n            /* \"#utility.yul\":5458:5575   */\n          pop\n            /* \"#utility.yul\":5614:5616   */\n          0x20\n            /* \"#utility.yul\":5640:5693   */\n          tag_300\n            /* \"#utility.yul\":5685:5692   */\n          dup6\n            /* \"#utility.yul\":5676:5682   */\n          dup3\n            /* \"#utility.yul\":5665:5674   */\n          dup7\n            /* \"#utility.yul\":5661:5683   */\n          add\n            /* \"#utility.yul\":5640:5693   */\n          tag_201\n          jump\t// in\n        tag_300:\n            /* \"#utility.yul\":5630:5693   */\n          swap2\n          pop\n            /* \"#utility.yul\":5585:5703   */\n          pop\n            /* \"#utility.yul\":5236:5710   */\n          swap3\n          pop\n          swap3\n          swap1\n          pop\n          jump\t// out\n            /* \"#utility.yul\":5716:5896   */\n        tag_210:\n            /* \"#utility.yul\":5764:5841   */\n          0x4e487b7100000000000000000000000000000000000000000000000000000000\n            /* \"#utility.yul\":5761:5762   */\n          0x00\n            /* \"#utility.yul\":5754:5842   */\n          mstore\n            /* \"#utility.yul\":5861:5865   */\n          0x22\n            /* \"#utility.yul\":5858:5859   */\n          0x04\n            /* \"#utility.yul\":5851:5866   */\n          mstore\n            /* \"#utility.yul\":5885:5889   */\n          0x24\n            /* \"#utility.yul\":5882:5883   */\n          0x00\n            /* \"#utility.yul\":5875:5890   */\n          revert\n            /* \"#utility.yul\":5902:6222   */\n        tag_74:\n            /* \"#utility.yul\":5946:5952   */\n          0x00\n            /* \"#utility.yul\":5983:5984   */\n          0x02\n            /* \"#utility.yul\":5977:5981   */\n          dup3\n            /* \"#utility.yul\":5973:5985   */\n          div\n            /* \"#utility.yul\":5963:5985   */\n          swap1\n          pop\n            /* \"#utility.yul\":6030:6031   */\n          0x01\n            /* \"#utility.yul\":6024:6028   */\n          dup3\n            /* \"#utility.yul\":6020:6032   */\n          and\n            /* \"#utility.yul\":6051:6069   */\n          dup1\n            /* \"#utility.yul\":6041:6122   */\n          tag_303\n          jumpi\n            /* \"#utility.yul\":6107:6111   */\n          0x7f\n            /* \"#utility.yul\":6099:6105   */\n          dup3\n            /* \"#utility.yul\":6095:6112   */\n          and\n            /* \"#utility.yul\":6085:6112   */\n          swap2\n          pop\n            /* \"#utility.yul\":6041:6122   */\n        tag_303:\n            /* \"#utility.yul\":6169:6171   */\n          0x20\n            /* \"#utility.yul\":6161:6167   */\n          dup3\n            /* \"#utility.yul\":6158:6172   */\n          lt\n            /* \"#utility.yul\":6138:6156   */\n          dup2\n            /* \"#utility.yul\":6135:6173   */\n          eq\n            /* \"#utility.yul\":6132:6216   */\n          iszero\n          tag_304\n          jumpi\n            /* \"#utility.yul\":6188:6206   */\n          tag_305\n          tag_210\n          jump\t// in\n        tag_305:\n            /* \"#utility.yul\":6132:6216   */\n        tag_304:\n            /* \"#utility.yul\":5953:6222   */\n          pop\n            /* \"#utility.yul\":5902:6222   */\n          swap2\n          swap1\n          pop\n          jump\t// out\n            /* \"#utility.yul\":6228:6391   */\n        tag_211:\n            /* \"#utility.yul\":6368:6383   */\n          0x4e6f207065726d697373696f6e00000000000000000000000000000000000000\n            /* \"#utility.yul\":6364:6365   */\n          0x00\n            /* \"#utility.yul\":6356:6362   */\n          dup3\n            /* \"#utility.yul\":6352:6366   */\n          add\n            /* \"#utility.yul\":6345:6384   */\n          mstore\n            /* \"#utility.yul\":6228:6391   */\n          pop\n          jump\t// out\n            /* \"#utility.yul\":6397:6763   */\n        tag_212:\n            /* \"#utility.yul\":6539:6542   */\n          0x00\n            /* \"#utility.yul\":6560:6627   */\n          tag_308\n            /* \"#utility.yul\":6624:6626   */\n          0x0d\n            /* \"#utility.yul\":6619:6622   */\n          dup4\n            /* \"#utility.yul\":6560:6627   */\n          tag_191\n          jump\t// in\n        tag_308:\n            /* \"#utility.yul\":6553:6627   */\n          swap2\n          pop\n            /* \"#utility.yul\":6636:6729   */\n          tag_309\n            /* \"#utility.yul\":6725:6728   */\n          dup3\n            /* \"#utility.yul\":6636:6729   */\n          tag_211\n          jump\t// in\n        tag_309:\n            /* \"#utility.yul\":6754:6756   */\n          0x20\n            /* \"#utility.yul\":6749:6752   */\n          dup3\n            /* \"#utility.yul\":6745:6757   */\n          add\n            /* \"#utility.yul\":6738:6757   */\n          swap1\n          pop\n            /* \"#utility.yul\":6397:6763   */\n          swap2\n          swap1\n          pop\n          jump\t// out\n            /* \"#utility.yul\":6769:7188   */\n        tag_88:\n            /* \"#utility.yul\":6935:6939   */\n          0x00\n            /* \"#utility.yul\":6973:6975   */\n          0x20\n            /* \"#utility.yul\":6962:6971   */\n          dup3\n            /* \"#utility.yul\":6958:6976   */\n          add\n            /* \"#utility.yul\":6950:6976   */\n          swap1\n          pop\n            /* \"#utility.yul\":7022:7031   */\n          dup2\n            /* \"#utility.yul\":7016:7020   */\n          dup2\n            /* \"#utility.yul\":7012:7032   */\n          sub\n            /* \"#utility.yul\":7008:7009   */\n          0x00\n            /* \"#utility.yul\":6997:7006   */\n          dup4\n            /* \"#utility.yul\":6993:7010   */\n          add\n            /* \"#utility.yul\":6986:7033   */\n          mstore\n            /* \"#utility.yul\":7050:7181   */\n          tag_311\n            /* \"#utility.yul\":7176:7180   */\n          dup2\n            /* \"#utility.yul\":7050:7181   */\n          tag_212\n          jump\t// in\n        tag_311:\n            /* \"#utility.yul\":7042:7181   */\n          swap1\n          pop\n            /* \"#utility.yul\":6769:7188   */\n          swap2\n          swap1\n          pop\n          jump\t// out\n            /* \"#utility.yul\":7194:7374   */\n        tag_213:\n            /* \"#utility.yul\":7242:7319   */\n          0x4e487b7100000000000000000000000000000000000000000000000000000000\n            /* \"#utility.yul\":7239:7240   */\n          0x00\n            /* \"#utility.yul\":7232:7320   */\n          mstore\n            /* \"#utility.yul\":7339:7343   */\n          0x11\n            /* \"#utility.yul\":7336:7337   */\n          0x04\n            /* \"#utility.yul\":7329:7344   */\n          mstore\n            /* \"#utility.yul\":7363:7367   */\n          0x24\n            /* \"#utility.yul\":7360:7361   */\n          0x00\n            /* \"#utility.yul\":7353:7368   */\n          revert\n            /* \"#utility.yul\":7380:7685   */\n        tag_101:\n            /* \"#utility.yul\":7420:7423   */\n          0x00\n            /* \"#utility.yul\":7439:7459   */\n          tag_314\n            /* \"#utility.yul\":7457:7458   */\n          dup3\n            /* \"#utility.yul\":7439:7459   */\n          tag_202\n          jump\t// in\n        tag_314:\n            /* \"#utility.yul\":7434:7459   */\n          swap2\n          pop\n            /* \"#utility.yul\":7473:7493   */\n          tag_315\n            /* \"#utility.yul\":7491:7492   */\n          dup4\n            /* \"#utility.yul\":7473:7493   */\n          tag_202\n          jump\t// in\n        tag_315:\n            /* \"#utility.yul\":7468:7493   */\n          swap3\n          pop\n            /* \"#utility.yul\":7627:7628   */\n          dup3\n            /* \"#utility.yul\":7559:7625   */\n          0xffffffffffffffffffffffffffffffffffffffffffffffffffffffffffffffff\n            /* \"#utility.yul\":7555:7629   */\n          sub\n            /* \"#utility.yul\":7552:7553   */\n          dup3\n            /* \"#utility.yul\":7549:7630   */\n          gt\n            /* \"#utility.yul\":7546:7653   */\n          iszero\n          tag_316\n          jumpi\n            /* \"#utility.yul\":7633:7651   */\n          tag_317\n          tag_213\n          jump\t// in\n        tag_317:\n            /* \"#utility.yul\":7546:7653   */\n        tag_316:\n            /* \"#utility.yul\":7677:7678   */\n          dup3\n            /* \"#utility.yul\":7674:7675   */\n          dup3\n            /* \"#utility.yul\":7670:7679   */\n          add\n            /* \"#utility.yul\":7663:7679   */\n          swap1\n          pop\n            /* \"#utility.yul\":7380:7685   */\n          swap3\n          swap2\n          pop\n          pop\n          jump\t// out\n            /* \"#utility.yul\":7691:7915   */\n        tag_214:\n            /* \"#utility.yul\":7831:7865   */\n          0x45524332303a2064656372656173656420616c6c6f77616e63652062656c6f77\n            /* \"#utility.yul\":7827:7828   */\n          0x00\n            /* \"#utility.yul\":7819:7825   */\n          dup3\n            /* \"#utility.yul\":7815:7829   */\n          add\n            /* \"#utility.yul\":7808:7866   */\n          mstore\n            /* \"#utility.yul\":7900:7907   */\n          0x207a65726f000000000000000000000000000000000000000000000000000000\n            /* \"#utility.yul\":7895:7897   */\n          0x20\n            /* \"#utility.yul\":7887:7893   */\n          dup3\n            /* \"#utility.yul\":7883:7898   */\n          add\n            /* \"#utility.yul\":7876:7908   */\n          mstore\n            /* \"#utility.yul\":7691:7915   */\n          pop\n          jump\t// out\n            /* \"#utility.yul\":7921:8287   */\n        tag_215:\n            /* \"#utility.yul\":8063:8066   */\n          0x00\n            /* \"#utility.yul\":8084:8151   */\n          tag_320\n            /* \"#utility.yul\":8148:8150   */\n          0x25\n            /* \"#utility.yul\":8143:8146   */\n          dup4\n            /* \"#utility.yul\":8084:8151   */\n          tag_191\n          jump\t// in\n        tag_320:\n            /* \"#utility.yul\":8077:8151   */\n          swap2\n          pop\n            /* \"#utility.yul\":8160:8253   */\n          tag_321\n            /* \"#utility.yul\":8249:8252   */\n          dup3\n            /* \"#utility.yul\":8160:8253   */\n          tag_214\n          jump\t// in\n        tag_321:\n            /* \"#utility.yul\":8278:8280   */\n          0x40\n            /* \"#utility.yul\":8273:8276   */\n          dup3\n            /* \"#utility.yul\":8269:8281   */\n          add\n            /* \"#utility.yul\":8262:8281   */\n          swap1\n          pop\n            /* \"#utility.yul\":7921:8287   */\n          swap2\n          swap1\n          pop\n          jump\t// out\n            /* \"#utility.yul\":8293:8712   */\n        tag_126:\n            /* \"#utility.yul\":8459:8463   */\n          0x00\n            /* \"#utility.yul\":8497:8499   */\n          0x20\n            /* \"#utility.yul\":8486:8495   */\n          dup3\n            /* \"#utility.yul\":8482:8500   */\n          add\n            /* \"#utility.yul\":8474:8500   */\n          swap1\n          pop\n            /* \"#utility.yul\":8546:8555   */\n          dup2\n            /* \"#utility.yul\":8540:8544   */\n          dup2\n            /* \"#utility.yul\":8536:8556   */\n          sub\n            /* \"#utility.yul\":8532:8533   */\n          0x00\n            /* \"#utility.yul\":8521:8530   */\n          dup4\n            /* \"#utility.yul\":8517:8534   */\n          add\n            /* \"#utility.yul\":8510:8557   */\n          mstore\n            /* \"#utility.yul\":8574:8705   */\n          tag_323\n            /* \"#utility.yul\":8700:8704   */\n          dup2\n            /* \"#utility.yul\":8574:8705   */\n          tag_215\n          jump\t// in\n        tag_323:\n            /* \"#utility.yul\":8566:8705   */\n          swap1\n          pop\n            /* \"#utility.yul\":8293:8712   */\n          swap2\n          swap1\n          pop\n          jump\t// out\n            /* \"#utility.yul\":8718:8941   */\n        tag_216:\n            /* \"#utility.yul\":8858:8892   */\n          0x45524332303a20617070726f76652066726f6d20746865207a65726f20616464\n            /* \"#utility.yul\":8854:8855   */\n          0x00\n            /* \"#utility.yul\":8846:8852   */\n          dup3\n            /* \"#utility.yul\":8842:8856   */\n          add\n            /* \"#utility.yul\":8835:8893   */\n          mstore\n            /* \"#utility.yul\":8927:8933   */\n          0x7265737300000000000000000000000000000000000000000000000000000000\n            /* \"#utility.yul\":8922:8924   */\n          0x20\n            /* \"#utility.yul\":8914:8920   */\n          dup3\n            /* \"#utility.yul\":8910:8925   */\n          add\n            /* \"#utility.yul\":8903:8934   */\n          mstore\n            /* \"#utility.yul\":8718:8941   */\n          pop\n          jump\t// out\n            /* \"#utility.yul\":8947:9313   */\n        tag_217:\n            /* \"#utility.yul\":9089:9092   */\n          0x00\n            /* \"#utility.yul\":9110:9177   */\n          tag_326\n            /* \"#utility.yul\":9174:9176   */\n          0x24\n            /* \"#utility.yul\":9169:9172   */\n          dup4\n            /* \"#utility.yul\":9110:9177   */\n          tag_191\n          jump\t// in\n        tag_326:\n            /* \"#utility.yul\":9103:9177   */\n          swap2\n          pop\n            /* \"#utility.yul\":9186:9279   */\n          tag_327\n            /* \"#utility.yul\":9275:9278   */\n          dup3\n            /* \"#utility.yul\":9186:9279   */\n          tag_216\n          jump\t// in\n        tag_327:\n            /* \"#utility.yul\":9304:9306   */\n          0x40\n            /* \"#utility.yul\":9299:9302   */\n          dup3\n            /* \"#utility.yul\":9295:9307   */\n          add\n            /* \"#utility.yul\":9288:9307   */\n          swap1\n          pop\n            /* \"#utility.yul\":8947:9313   */\n          swap2\n          swap1\n          pop\n          jump\t// out\n            /* \"#utility.yul\":9319:9738   */\n        tag_139:\n            /* \"#utility.yul\":9485:9489   */\n          0x00\n            /* \"#utility.yul\":9523:9525   */\n          0x20\n            /* \"#utility.yul\":9512:9521   */\n          dup3\n            /* \"#utility.yul\":9508:9526   */\n          add\n            /* \"#utility.yul\":9500:9526   */\n          swap1\n          pop\n            /* \"#utility.yul\":9572:9581   */\n          dup2\n            /* \"#utility.yul\":9566:9570   */\n          dup2\n            /* \"#utility.yul\":9562:9582   */\n          sub\n            /* \"#utility.yul\":9558:9559   */\n          0x00\n            /* \"#utility.yul\":9547:9556   */\n          dup4\n            /* \"#utility.yul\":9543:9560   */\n          add\n            /* \"#utility.yul\":9536:9583   */\n          mstore\n            /* \"#utility.yul\":9600:9731   */\n          tag_329\n            /* \"#utility.yul\":9726:9730   */\n          dup2\n            /* \"#utility.yul\":9600:9731   */\n          tag_217\n          jump\t// in\n        tag_329:\n            /* \"#utility.yul\":9592:9731   */\n          swap1\n          pop\n            /* \"#utility.yul\":9319:9738   */\n          swap2\n          swap1\n          pop\n          jump\t// out\n            /* \"#utility.yul\":9744:9965   */\n        tag_218:\n            /* \"#utility.yul\":9884:9918   */\n          0x45524332303a20617070726f766520746f20746865207a65726f206164647265\n            /* \"#utility.yul\":9880:9881   */\n          0x00\n            /* \"#utility.yul\":9872:9878   */\n          dup3\n            /* \"#utility.yul\":9868:9882   */\n          add\n            /* \"#utility.yul\":9861:9919   */\n          mstore\n            /* \"#utility.yul\":9953:9957   */\n          0x7373000000000000000000000000000000000000000000000000000000000000\n            /* \"#utility.yul\":9948:9950   */\n          0x20\n            /* \"#utility.yul\":9940:9946   */\n          dup3\n            /* \"#utility.yul\":9936:9951   */\n          add\n            /* \"#utility.yul\":9929:9958   */\n          mstore\n            /* \"#utility.yul\":9744:9965   */\n          pop\n          jump\t// out\n            /* \"#utility.yul\":9971:10337   */\n        tag_219:\n            /* \"#utility.yul\":10113:10116   */\n          0x00\n            /* \"#utility.yul\":10134:10201   */\n          tag_332\n            /* \"#utility.yul\":10198:10200   */\n          0x22\n            /* \"#utility.yul\":10193:10196   */\n          dup4\n            /* \"#utility.yul\":10134:10201   */\n          tag_191\n          jump\t// in\n        tag_332:\n            /* \"#utility.yul\":10127:10201   */\n          swap2\n          pop\n            /* \"#utility.yul\":10210:10303   */\n          tag_333\n            /* \"#utility.yul\":10299:10302   */\n          dup3\n            /* \"#utility.yul\":10210:10303   */\n          tag_218\n          jump\t// in\n        tag_333:\n            /* \"#utility.yul\":10328:10330   */\n          0x40\n            /* \"#utility.yul\":10323:10326   */\n          dup3\n            /* \"#utility.yul\":10319:10331   */\n          add\n            /* \"#utility.yul\":10312:10331   */\n          swap1\n          pop\n            /* \"#utility.yul\":9971:10337   */\n          swap2\n          swap1\n          pop\n          jump\t// out\n            /* \"#utility.yul\":10343:10762   */\n        tag_142:\n            /* \"#utility.yul\":10509:10513   */\n          0x00\n            /* \"#utility.yul\":10547:10549   */\n          0x20\n            /* \"#utility.yul\":10536:10545   */\n          dup3\n            /* \"#utility.yul\":10532:10550   */\n          add\n            /* \"#utility.yul\":10524:10550   */\n          swap1\n          pop\n            /* \"#utility.yul\":10596:10605   */\n          dup2\n            /* \"#utility.yul\":10590:10594   */\n          dup2\n            /* \"#utility.yul\":10586:10606   */\n          sub\n            /* \"#utility.yul\":10582:10583   */\n          0x00\n            /* \"#utility.yul\":10571:10580   */\n          dup4\n            /* \"#utility.yul\":10567:10584   */\n          add\n            /* \"#utility.yul\":10560:10607   */\n          mstore\n            /* \"#utility.yul\":10624:10755   */\n          tag_335\n            /* \"#utility.yul\":10750:10754   */\n          dup2\n            /* \"#utility.yul\":10624:10755   */\n          tag_219\n          jump\t// in\n        tag_335:\n            /* \"#utility.yul\":10616:10755   */\n          swap1\n          pop\n            /* \"#utility.yul\":10343:10762   */\n          swap2\n          swap1\n          pop\n          jump\t// out\n            /* \"#utility.yul\":10768:10947   */\n        tag_220:\n            /* \"#utility.yul\":10908:10939   */\n          0x45524332303a20696e73756666696369656e7420616c6c6f77616e6365000000\n            /* \"#utility.yul\":10904:10905   */\n          0x00\n            /* \"#utility.yul\":10896:10902   */\n          dup3\n            /* \"#utility.yul\":10892:10906   */\n          add\n            /* \"#utility.yul\":10885:10940   */\n          mstore\n            /* \"#utility.yul\":10768:10947   */\n          pop\n          jump\t// out\n            /* \"#utility.yul\":10953:11319   */\n        tag_221:\n            /* \"#utility.yul\":11095:11098   */\n          0x00\n            /* \"#utility.yul\":11116:11183   */\n          tag_338\n            /* \"#utility.yul\":11180:11182   */\n          0x1d\n            /* \"#utility.yul\":11175:11178   */\n          dup4\n            /* \"#utility.yul\":11116:11183   */\n          tag_191\n          jump\t// in\n        tag_338:\n            /* \"#utility.yul\":11109:11183   */\n          swap2\n          pop\n            /* \"#utility.yul\":11192:11285   */\n          tag_339\n            /* \"#utility.yul\":11281:11284   */\n          dup3\n            /* \"#utility.yul\":11192:11285   */\n          tag_220\n          jump\t// in\n        tag_339:\n            /* \"#utility.yul\":11310:11312   */\n          0x20\n            /* \"#utility.yul\":11305:11308   */\n          dup3\n            /* \"#utility.yul\":11301:11313   */\n          add\n            /* \"#utility.yul\":11294:11313   */\n          swap1\n          pop\n            /* \"#utility.yul\":10953:11319   */\n          swap2\n          swap1\n          pop\n          jump\t// out\n            /* \"#utility.yul\":11325:11744   */\n        tag_149:\n            /* \"#utility.yul\":11491:11495   */\n          0x00\n            /* \"#utility.yul\":11529:11531   */\n          0x20\n            /* \"#utility.yul\":11518:11527   */\n          dup3\n            /* \"#utility.yul\":11514:11532   */\n          add\n            /* \"#utility.yul\":11506:11532   */\n          swap1\n          pop\n            /* \"#utility.yul\":11578:11587   */\n          dup2\n            /* \"#utility.yul\":11572:11576   */\n          dup2\n            /* \"#utility.yul\":11568:11588   */\n          sub\n            /* \"#utility.yul\":11564:11565   */\n          0x00\n            /* \"#utility.yul\":11553:11562   */\n          dup4\n            /* \"#utility.yul\":11549:11566   */\n          add\n            /* \"#utility.yul\":11542:11589   */\n          mstore\n            /* \"#utility.yul\":11606:11737   */\n          tag_341\n            /* \"#utility.yul\":11732:11736   */\n          dup2\n            /* \"#utility.yul\":11606:11737   */\n          tag_221\n          jump\t// in\n        tag_341:\n            /* \"#utility.yul\":11598:11737   */\n          swap1\n          pop\n            /* \"#utility.yul\":11325:11744   */\n          swap2\n          swap1\n          pop\n          jump\t// out\n            /* \"#utility.yul\":11750:11974   */\n        tag_222:\n            /* \"#utility.yul\":11890:11924   */\n          0x45524332303a207472616e736665722066726f6d20746865207a65726f206164\n            /* \"#utility.yul\":11886:11887   */\n          0x00\n            /* \"#utility.yul\":11878:11884   */\n          dup3\n            /* \"#utility.yul\":11874:11888   */\n          add\n            /* \"#utility.yul\":11867:11925   */\n          mstore\n            /* \"#utility.yul\":11959:11966   */\n          0x6472657373000000000000000000000000000000000000000000000000000000\n            /* \"#utility.yul\":11954:11956   */\n          0x20\n            /* \"#utility.yul\":11946:11952   */\n          dup3\n            /* \"#utility.yul\":11942:11957   */\n          add\n            /* \"#utility.yul\":11935:11967   */\n          mstore\n            /* \"#utility.yul\":11750:11974   */\n          pop\n          jump\t// out\n            /* \"#utility.yul\":11980:12346   */\n        tag_223:\n            /* \"#utility.yul\":12122:12125   */\n          0x00\n            /* \"#utility.yul\":12143:12210   */\n          tag_344\n            /* \"#utility.yul\":12207:12209   */\n          0x25\n            /* \"#utility.yul\":12202:12205   */\n          dup4\n            /* \"#utility.yul\":12143:12210   */\n          tag_191\n          jump\t// in\n        tag_344:\n            /* \"#utility.yul\":12136:12210   */\n          swap2\n          pop\n            /* \"#utility.yul\":12219:12312   */\n          tag_345\n            /* \"#utility.yul\":12308:12311   */\n          dup3\n            /* \"#utility.yul\":12219:12312   */\n          tag_222\n          jump\t// in\n        tag_345:\n            /* \"#utility.yul\":12337:12339   */\n          0x40\n            /* \"#utility.yul\":12332:12335   */\n          dup3\n            /* \"#utility.yul\":12328:12340   */\n          add\n            /* \"#utility.yul\":12321:12340   */\n          swap1\n          pop\n            /* \"#utility.yul\":11980:12346   */\n          swap2\n          swap1\n          pop\n          jump\t// out\n            /* \"#utility.yul\":12352:12771   */\n        tag_154:\n            /* \"#utility.yul\":12518:12522   */\n          0x00\n            /* \"#utility.yul\":12556:12558   */\n          0x20\n            /* \"#utility.yul\":12545:12554   */\n          dup3\n            /* \"#utility.yul\":12541:12559   */\n          add\n            /* \"#utility.yul\":12533:12559   */\n          swap1\n          pop\n            /* \"#utility.yul\":12605:12614   */\n          dup2\n            /* \"#utility.yul\":12599:12603   */\n          dup2\n            /* \"#utility.yul\":12595:12615   */\n          sub\n            /* \"#utility.yul\":12591:12592   */\n          0x00\n            /* \"#utility.yul\":12580:12589   */\n          dup4\n            /* \"#utility.yul\":12576:12593   */\n          add\n            /* \"#utility.yul\":12569:12616   */\n          mstore\n            /* \"#utility.yul\":12633:12764   */\n          tag_347\n            /* \"#utility.yul\":12759:12763   */\n          dup2\n            /* \"#utility.yul\":12633:12764   */\n          tag_223\n          jump\t// in\n        tag_347:\n            /* \"#utility.yul\":12625:12764   */\n          swap1\n          pop\n            /* \"#utility.yul\":12352:12771   */\n          swap2\n          swap1\n          pop\n          jump\t// out\n            /* \"#utility.yul\":12777:12999   */\n        tag_224:\n            /* \"#utility.yul\":12917:12951   */\n          0x45524332303a207472616e7366657220746f20746865207a65726f2061646472\n            /* \"#utility.yul\":12913:12914   */\n          0x00\n            /* \"#utility.yul\":12905:12911   */\n          dup3\n            /* \"#utility.yul\":12901:12915   */\n          add\n            /* \"#utility.yul\":12894:12952   */\n          mstore\n            /* \"#utility.yul\":12986:12991   */\n          0x6573730000000000000000000000000000000000000000000000000000000000\n            /* \"#utility.yul\":12981:12983   */\n          0x20\n            /* \"#utility.yul\":12973:12979   */\n          dup3\n            /* \"#utility.yul\":12969:12984   */\n          add\n            /* \"#utility.yul\":12962:12992   */\n          mstore\n            /* \"#utility.yul\":12777:12999   */\n          pop\n          jump\t// out\n            /* \"#utility.yul\":13005:13371   */\n        tag_225:\n            /* \"#utility.yul\":13147:13150   */\n          0x00\n            /* \"#utility.yul\":13168:13235   */\n          tag_350\n            /* \"#utility.yul\":13232:13234   */\n          0x23\n            /* \"#utility.yul\":13227:13230   */\n          dup4\n            /* \"#utility.yul\":13168:13235   */\n          tag_191\n          jump\t// in\n        tag_350:\n            /* \"#utility.yul\":13161:13235   */\n          swap2\n          pop\n            /* \"#utility.yul\":13244:13337   */\n          tag_351\n            /* \"#utility.yul\":13333:13336   */\n          dup3\n            /* \"#utility.yul\":13244:13337   */\n          tag_224\n          jump\t// in\n        tag_351:\n            /* \"#utility.yul\":13362:13364   */\n          0x40\n            /* \"#utility.yul\":13357:13360   */\n          dup3\n            /* \"#utility.yul\":13353:13365   */\n          add\n            /* \"#utility.yul\":13346:13365   */\n          swap1\n          pop\n            /* \"#utility.yul\":13005:13371   */\n          swap2\n          swap1\n          pop\n          jump\t// out\n            /* \"#utility.yul\":13377:13796   */\n        tag_157:\n            /* \"#utility.yul\":13543:13547   */\n          0x00\n            /* \"#utility.yul\":13581:13583   */\n          0x20\n            /* \"#utility.yul\":13570:13579   */\n          dup3\n            /* \"#utility.yul\":13566:13584   */\n          add\n            /* \"#utility.yul\":13558:13584   */\n          swap1\n          pop\n            /* \"#utility.yul\":13630:13639   */\n          dup2\n            /* \"#utility.yul\":13624:13628   */\n          dup2\n            /* \"#utility.yul\":13620:13640   */\n          sub\n            /* \"#utility.yul\":13616:13617   */\n          0x00\n            /* \"#utility.yul\":13605:13614   */\n          dup4\n            /* \"#utility.yul\":13601:13618   */\n          add\n            /* \"#utility.yul\":13594:13641   */\n          mstore\n            /* \"#utility.yul\":13658:13789   */\n          tag_353\n            /* \"#utility.yul\":13784:13788   */\n          dup2\n            /* \"#utility.yul\":13658:13789   */\n          tag_225\n          jump\t// in\n        tag_353:\n            /* \"#utility.yul\":13650:13789   */\n          swap1\n          pop\n            /* \"#utility.yul\":13377:13796   */\n          swap2\n          swap1\n          pop\n          jump\t// out\n            /* \"#utility.yul\":13802:14027   */\n        tag_226:\n            /* \"#utility.yul\":13942:13976   */\n          0x45524332303a207472616e7366657220616d6f756e7420657863656564732062\n            /* \"#utility.yul\":13938:13939   */\n          0x00\n            /* \"#utility.yul\":13930:13936   */\n          dup3\n            /* \"#utility.yul\":13926:13940   */\n          add\n            /* \"#utility.yul\":13919:13977   */\n          mstore\n            /* \"#utility.yul\":14011:14019   */\n          0x616c616e63650000000000000000000000000000000000000000000000000000\n            /* \"#utility.yul\":14006:14008   */\n          0x20\n            /* \"#utility.yul\":13998:14004   */\n          dup3\n            /* \"#utility.yul\":13994:14009   */\n          add\n            /* \"#utility.yul\":13987:14020   */\n          mstore\n            /* \"#utility.yul\":13802:14027   */\n          pop\n          jump\t// out\n            /* \"#utility.yul\":14033:14399   */\n        tag_227:\n            /* \"#utility.yul\":14175:14178   */\n          0x00\n            /* \"#utility.yul\":14196:14263   */\n          tag_356\n            /* \"#utility.yul\":14260:14262   */\n          0x26\n            /* \"#utility.yul\":14255:14258   */\n          dup4\n            /* \"#utility.yul\":14196:14263   */\n          tag_191\n          jump\t// in\n        tag_356:\n            /* \"#utility.yul\":14189:14263   */\n          swap2\n          pop\n            /* \"#utility.yul\":14272:14365   */\n          tag_357\n            /* \"#utility.yul\":14361:14364   */\n          dup3\n            /* \"#utility.yul\":14272:14365   */\n          tag_226\n          jump\t// in\n        tag_357:\n            /* \"#utility.yul\":14390:14392   */\n          0x40\n            /* \"#utility.yul\":14385:14388   */\n          dup3\n            /* \"#utility.yul\":14381:14393   */\n          add\n            /* \"#utility.yul\":14374:14393   */\n          swap1\n          pop\n            /* \"#utility.yul\":14033:14399   */\n          swap2\n          swap1\n          pop\n          jump\t// out\n            /* \"#utility.yul\":14405:14824   */\n        tag_162:\n            /* \"#utility.yul\":14571:14575   */\n          0x00\n            /* \"#utility.yul\":14609:14611   */\n          0x20\n            /* \"#utility.yul\":14598:14607   */\n          dup3\n            /* \"#utility.yul\":14594:14612   */\n          add\n            /* \"#utility.yul\":14586:14612   */\n          swap1\n          pop\n            /* \"#utility.yul\":14658:14667   */\n          dup2\n            /* \"#utility.yul\":14652:14656   */\n          dup2\n            /* \"#utility.yul\":14648:14668   */\n          sub\n            /* \"#utility.yul\":14644:14645   */\n          0x00\n            /* \"#utility.yul\":14633:14642   */\n          dup4\n            /* \"#utility.yul\":14629:14646   */\n          add\n            /* \"#utility.yul\":14622:14669   */\n          mstore\n            /* \"#utility.yul\":14686:14817   */\n          tag_359\n            /* \"#utility.yul\":14812:14816   */\n          dup2\n            /* \"#utility.yul\":14686:14817   */\n          tag_227\n          jump\t// in\n        tag_359:\n            /* \"#utility.yul\":14678:14817   */\n          swap1\n          pop\n            /* \"#utility.yul\":14405:14824   */\n          swap2\n          swap1\n          pop\n          jump\t// out\n            /* \"#utility.yul\":14830:15011   */\n        tag_228:\n            /* \"#utility.yul\":14970:15003   */\n          0x45524332303a206d696e7420746f20746865207a65726f206164647265737300\n            /* \"#utility.yul\":14966:14967   */\n          0x00\n            /* \"#utility.yul\":14958:14964   */\n          dup3\n            /* \"#utility.yul\":14954:14968   */\n          add\n            /* \"#utility.yul\":14947:15004   */\n          mstore\n            /* \"#utility.yul\":14830:15011   */\n          pop\n          jump\t// out\n            /* \"#utility.yul\":15017:15383   */\n        tag_229:\n            /* \"#utility.yul\":15159:15162   */\n          0x00\n            /* \"#utility.yul\":15180:15247   */\n          tag_362\n            /* \"#utility.yul\":15244:15246   */\n          0x1f\n            /* \"#utility.yul\":15239:15242   */\n          dup4\n            /* \"#utility.yul\":15180:15247   */\n          tag_191\n          jump\t// in\n        tag_362:\n            /* \"#utility.yul\":15173:15247   */\n          swap2\n          pop\n            /* \"#utility.yul\":15256:15349   */\n          tag_363\n            /* \"#utility.yul\":15345:15348   */\n          dup3\n            /* \"#utility.yul\":15256:15349   */\n          tag_228\n          jump\t// in\n        tag_363:\n            /* \"#utility.yul\":15374:15376   */\n          0x20\n            /* \"#utility.yul\":15369:15372   */\n          dup3\n            /* \"#utility.yul\":15365:15377   */\n          add\n            /* \"#utility.yul\":15358:15377   */\n          swap1\n          pop\n            /* \"#utility.yul\":15017:15383   */\n          swap2\n          swap1\n          pop\n          jump\t// out\n            /* \"#utility.yul\":15389:15808   */\n        tag_170:\n            /* \"#utility.yul\":15555:15559   */\n          0x00\n            /* \"#utility.yul\":15593:15595   */\n          0x20\n            /* \"#utility.yul\":15582:15591   */\n          dup3\n            /* \"#utility.yul\":15578:15596   */\n          add\n            /* \"#utility.yul\":15570:15596   */\n          swap1\n          pop\n            /* \"#utility.yul\":15642:15651   */\n          dup2\n            /* \"#utility.yul\":15636:15640   */\n          dup2\n            /* \"#utility.yul\":15632:15652   */\n          sub\n            /* \"#utility.yul\":15628:15629   */\n          0x00\n            /* \"#utility.yul\":15617:15626   */\n          dup4\n            /* \"#utility.yul\":15613:15630   */\n          add\n            /* \"#utility.yul\":15606:15653   */\n          mstore\n            /* \"#utility.yul\":15670:15801   */\n          tag_365\n            /* \"#utility.yul\":15796:15800   */\n          dup2\n            /* \"#utility.yul\":15670:15801   */\n          tag_229\n          jump\t// in\n        tag_365:\n            /* \"#utility.yul\":15662:15801   */\n          swap1\n          pop\n            /* \"#utility.yul\":15389:15808   */\n          swap2\n          swap1\n          pop\n          jump\t// out\n            /* \"#utility.yul\":15814:16034   */\n        tag_230:\n            /* \"#utility.yul\":15954:15988   */\n          0x45524332303a206275726e2066726f6d20746865207a65726f20616464726573\n            /* \"#utility.yul\":15950:15951   */\n          0x00\n            /* \"#utility.yul\":15942:15948   */\n          dup3\n            /* \"#utility.yul\":15938:15952   */\n          add\n            /* \"#utility.yul\":15931:15989   */\n          mstore\n            /* \"#utility.yul\":16023:16026   */\n          0x7300000000000000000000000000000000000000000000000000000000000000\n            /* \"#utility.yul\":16018:16020   */\n          0x20\n            /* \"#utility.yul\":16010:16016   */\n          dup3\n            /* \"#utility.yul\":16006:16021   */\n          add\n            /* \"#utility.yul\":15999:16027   */\n          mstore\n            /* \"#utility.yul\":15814:16034   */\n          pop\n          jump\t// out\n            /* \"#utility.yul\":16040:16406   */\n        tag_231:\n            /* \"#utility.yul\":16182:16185   */\n          0x00\n            /* \"#utility.yul\":16203:16270   */\n          tag_368\n            /* \"#utility.yul\":16267:16269   */\n          0x21\n            /* \"#utility.yul\":16262:16265   */\n          dup4\n            /* \"#utility.yul\":16203:16270   */\n          tag_191\n          jump\t// in\n        tag_368:\n            /* \"#utility.yul\":16196:16270   */\n          swap2\n          pop\n            /* \"#utility.yul\":16279:16372   */\n          tag_369\n            /* \"#utility.yul\":16368:16371   */\n          dup3\n            /* \"#utility.yul\":16279:16372   */\n          tag_230\n          jump\t// in\n        tag_369:\n            /* \"#utility.yul\":16397:16399   */\n          0x40\n            /* \"#utility.yul\":16392:16395   */\n          dup3\n            /* \"#utility.yul\":16388:16400   */\n          add\n            /* \"#utility.yul\":16381:16400   */\n          swap1\n          pop\n            /* \"#utility.yul\":16040:16406   */\n          swap2\n          swap1\n          pop\n          jump\t// out\n            /* \"#utility.yul\":16412:16831   */\n        tag_179:\n            /* \"#utility.yul\":16578:16582   */\n          0x00\n            /* \"#utility.yul\":16616:16618   */\n          0x20\n            /* \"#utility.yul\":16605:16614   */\n          dup3\n            /* \"#utility.yul\":16601:16619   */\n          add\n            /* \"#utility.yul\":16593:16619   */\n          swap1\n          pop\n            /* \"#utility.yul\":16665:16674   */\n          dup2\n            /* \"#utility.yul\":16659:16663   */\n          dup2\n            /* \"#utility.yul\":16655:16675   */\n          sub\n            /* \"#utility.yul\":16651:16652   */\n          0x00\n            /* \"#utility.yul\":16640:16649   */\n          dup4\n            /* \"#utility.yul\":16636:16653   */\n          add\n            /* \"#utility.yul\":16629:16676   */\n          mstore\n            /* \"#utility.yul\":16693:16824   */\n          tag_371\n            /* \"#utility.yul\":16819:16823   */\n          dup2\n            /* \"#utility.yul\":16693:16824   */\n          tag_231\n          jump\t// in\n        tag_371:\n            /* \"#utility.yul\":16685:16824   */\n          swap1\n          pop\n            /* \"#utility.yul\":16412:16831   */\n          swap2\n          swap1\n          pop\n          jump\t// out\n            /* \"#utility.yul\":16837:17058   */\n        tag_232:\n            /* \"#utility.yul\":16977:17011   */\n          0x45524332303a206275726e20616d6f756e7420657863656564732062616c616e\n            /* \"#utility.yul\":16973:16974   */\n          0x00\n            /* \"#utility.yul\":16965:16971   */\n          dup3\n            /* \"#utility.yul\":16961:16975   */\n          add\n            /* \"#utility.yul\":16954:17012   */\n          mstore\n            /* \"#utility.yul\":17046:17050   */\n          0x6365000000000000000000000000000000000000000000000000000000000000\n            /* \"#utility.yul\":17041:17043   */\n          0x20\n            /* \"#utility.yul\":17033:17039   */\n          dup3\n            /* \"#utility.yul\":17029:17044   */\n          add\n            /* \"#utility.yul\":17022:17051   */\n          mstore\n            /* \"#utility.yul\":16837:17058   */\n          pop\n          jump\t// out\n            /* \"#utility.yul\":17064:17430   */\n        tag_233:\n            /* \"#utility.yul\":17206:17209   */\n          0x00\n            /* \"#utility.yul\":17227:17294   */\n          tag_374\n            /* \"#utility.yul\":17291:17293   */\n          0x22\n            /* \"#utility.yul\":17286:17289   */\n          dup4\n            /* \"#utility.yul\":17227:17294   */\n          tag_191\n          jump\t// in\n        tag_374:\n            /* \"#utility.yul\":17220:17294   */\n          swap2\n          pop\n            /* \"#utility.yul\":17303:17396   */\n          tag_375\n            /* \"#utility.yul\":17392:17395   */\n          dup3\n            /* \"#utility.yul\":17303:17396   */\n          tag_232\n          jump\t// in\n        tag_375:\n            /* \"#utility.yul\":17421:17423   */\n          0x40\n            /* \"#utility.yul\":17416:17419   */\n          dup3\n            /* \"#utility.yul\":17412:17424   */\n          add\n            /* \"#utility.yul\":17405:17424   */\n          swap1\n          pop\n            /* \"#utility.yul\":17064:17430   */\n          swap2\n          swap1\n          pop\n          jump\t// out\n            /* \"#utility.yul\":17436:17855   */\n        tag_183:\n            /* \"#utility.yul\":17602:17606   */\n          0x00\n            /* \"#utility.yul\":17640:17642   */\n          0x20\n            /* \"#utility.yul\":17629:17638   */\n          dup3\n            /* \"#utility.yul\":17625:17643   */\n          add\n            /* \"#utility.yul\":17617:17643   */\n          swap1\n          pop\n            /* \"#utility.yul\":17689:17698   */\n          dup2\n            /* \"#utility.yul\":17683:17687   */\n          dup2\n            /* \"#utility.yul\":17679:17699   */\n          sub\n            /* \"#utility.yul\":17675:17676   */\n          0x00\n            /* \"#utility.yul\":17664:17673   */\n          dup4\n            /* \"#utility.yul\":17660:17677   */\n          add\n            /* \"#utility.yul\":17653:17700   */\n          mstore\n            /* \"#utility.yul\":17717:17848   */\n          tag_377\n            /* \"#utility.yul\":17843:17847   */\n          dup2\n            /* \"#utility.yul\":17717:17848   */\n          tag_233\n          jump\t// in\n        tag_377:\n            /* \"#utility.yul\":17709:17848   */\n          swap1\n          pop\n            /* \"#utility.yul\":17436:17855   */\n          swap2\n          swap1\n          pop\n          jump\t// out\n            /* \"#utility.yul\":17861:18052   */\n        tag_185:\n            /* \"#utility.yul\":17901:17905   */\n          0x00\n            /* \"#utility.yul\":17921:17941   */\n          tag_379\n            /* \"#utility.yul\":17939:17940   */\n          dup3\n            /* \"#utility.yul\":17921:17941   */\n          tag_202\n          jump\t// in\n        tag_379:\n            /* \"#utility.yul\":17916:17941   */\n          swap2\n          pop\n            /* \"#utility.yul\":17955:17975   */\n          tag_380\n            /* \"#utility.yul\":17973:17974   */\n          dup4\n            /* \"#utility.yul\":17955:17975   */\n          tag_202\n          jump\t// in\n        tag_380:\n            /* \"#utility.yul\":17950:17975   */\n          swap3\n          pop\n            /* \"#utility.yul\":17994:17995   */\n          dup3\n            /* \"#utility.yul\":17991:17992   */\n          dup3\n            /* \"#utility.yul\":17988:17996   */\n          lt\n            /* \"#utility.yul\":17985:18019   */\n          iszero\n          tag_381\n          jumpi\n            /* \"#utility.yul\":17999:18017   */\n          tag_382\n          tag_213\n          jump\t// in\n        tag_382:\n            /* \"#utility.yul\":17985:18019   */\n        tag_381:\n            /* \"#utility.yul\":18044:18045   */\n          dup3\n            /* \"#utility.yul\":18041:18042   */\n          dup3\n            /* \"#utility.yul\":18037:18046   */\n          sub\n            /* \"#utility.yul\":18029:18046   */\n          swap1\n          pop\n            /* \"#utility.yul\":17861:18052   */\n          swap3\n          swap2\n          pop\n          pop\n          jump\t// out\n\n        auxdata: 0xa2646970667358221220d9bc99ecfa09ad793b06f3fceb2dcbdbd92f69115c789122da8a9eec3db688da64736f6c634300080a0033\n    }\n}\n",
    "bytecode": {
      "linkReferences": {},
      "object": "60a06040523480156200001157600080fd5b503373ffffffffffffffffffffffffffffffffffffffff1660808173ffffffffffffffffffffffffffffffffffffffff16815250506040516200005490620000ca565b6200005f9062000189565b604051809103906000f0801580156200007c573d6000803e3d6000fd5b506000806101000a81548173ffffffffffffffffffffffffffffffffffffffff021916908373ffffffffffffffffffffffffffffffffffffffff1602179055506000600381905550620001c0565b611e948062002d1083390190565b600082825260208201905092915050565b7f52656b7300000000000000000000000000000000000000000000000000000000600082015250565b600062000121600483620000d8565b91506200012e82620000e9565b602082019050919050565b7f5200000000000000000000000000000000000000000000000000000000000000600082015250565b600062000171600183620000d8565b91506200017e8262000139565b602082019050919050565b60006040820190508181036000830152620001a48162000112565b90508181036020830152620001b98162000162565b9050919050565b608051612b11620001ff600039600081816103e90152818161076001528181610f13015281816112b30152818161177f0152611aa00152612b116000f3fe608060405234801561001057600080fd5b50600436106100ea5760003560e01c8063448e88d01161008c578063bfef185111610066578063bfef185114610239578063d09cdac114610255578063d6a16afa14610271578063f1e6fe87146102a1576100ea565b8063448e88d0146101cf57806359f97801146101eb5780636b5f35c214610209576100ea565b8063112e4143116100c8578063112e4143146101475780631c17dee8146101635780632f435b3f146101815780633d1103f41461019f576100ea565b806305e5e5a3146100ef578063084598501461010d57806309a7a00614610129575b600080fd5b6100f76102bd565b6040516101049190611eed565b60405180910390f35b6101276004803603810190610122919061214f565b6103e7565b005b610131610685565b60405161013e91906122e2565b60405180910390f35b610161600480360381019061015c9190612304565b61075e565b005b61016b610bdc565b6040516101789190612366565b60405180910390f35b610189610be6565b604051610196919061243f565b60405180910390f35b6101b960048036038101906101b49190612304565b610d7a565b6040516101c69190612366565b60405180910390f35b6101e960048036038101906101e4919061248d565b610f11565b005b6101f3610fbb565b6040516102009190612366565b60405180910390f35b610223600480360381019061021e9190612304565b611052565b60405161023091906122e2565b60405180910390f35b610253600480360381019061024e91906124ba565b6111ff565b005b61026f600480360381019061026a91906124ba565b6116cb565b005b61028b60048036038101906102869190612304565b6119a0565b6040516102989190612541565b60405180910390f35b6102bb60048036038101906102b69190612304565b611a9e565b005b60606000600280549050905060008167ffffffffffffffff8111156102e5576102e4611f39565b5b6040519080825280602002602001820160405280156103135781602001602082028036833780820191505090505b50905060005b828110156103de576001600282815481106103375761033661255c565b5b9060005260206000200160405161034e919061268b565b908152602001604051809103902060000160009054906101000a900473ffffffffffffffffffffffffffffffffffffffff168282815181106103935761039261255c565b5b602002602001019073ffffffffffffffffffffffffffffffffffffffff16908173ffffffffffffffffffffffffffffffffffffffff1681525050806103d7906126d1565b9050610319565b50809250505090565b7f000000000000000000000000000000000000000000000000000000000000000073ffffffffffffffffffffffffffffffffffffffff163373ffffffffffffffffffffffffffffffffffffffff1614610475576040517f08c379a000000000000000000000000000000000000000000000000000000000815260040161046c90612777565b60405180910390fd5b60005b815181101561068157600073ffffffffffffffffffffffffffffffffffffffff1660018383815181106104ae576104ad61255c565b5b60200260200101516040516104c391906127c8565b908152602001604051809103902060000160009054906101000a900473ffffffffffffffffffffffffffffffffffffffff1673ffffffffffffffffffffffffffffffffffffffff1614156106705760008282815181106105265761052561255c565b5b602002602001015160405160200161053e91906127c8565b6040516020818303038152906040528051906020012060601c905080600184848151811061056f5761056e61255c565b5b602002602001015160405161058491906127c8565b908152602001604051809103902060000160006101000a81548173ffffffffffffffffffffffffffffffffffffffff021916908373ffffffffffffffffffffffffffffffffffffffff16021790555060028054905060018484815181106105ee576105ed61255c565b5b602002602001015160405161060391906127c8565b908152602001604051809103902060010181905550600283838151811061062d5761062c61255c565b5b602002602001015190806001815401808255809150506001900390600052602060002001600090919091909150908051906020019061066d929190611cd5565b50505b8061067a906126d1565b9050610478565b5050565b60606002805480602002602001604051908101604052809291908181526020016000905b828210156107555783829060005260206000200180546106c8906125ba565b80601f01602080910402602001604051908101604052809291908181526020018280546106f4906125ba565b80156107415780601f1061071657610100808354040283529160200191610741565b820191906000526020600020905b81548152906001019060200180831161072457829003601f168201915b5050505050815260200190600101906106a9565b50505050905090565b7f000000000000000000000000000000000000000000000000000000000000000073ffffffffffffffffffffffffffffffffffffffff163373ffffffffffffffffffffffffffffffffffffffff16146107ec576040517f08c379a00000000000000000000000000000000000000000000000000000000081526004016107e390612777565b60405180910390fd5b80600073ffffffffffffffffffffffffffffffffffffffff1660018260405161081591906127c8565b908152602001604051809103902060000160009054906101000a900473ffffffffffffffffffffffffffffffffffffffff1673ffffffffffffffffffffffffffffffffffffffff16141561089e576040517f08c379a000000000000000000000000000000000000000000000000000000000815260040161089590612851565b60405180910390fd5b60006001836040516108b091906127c8565b908152602001604051809103902060000160009054906101000a900473ffffffffffffffffffffffffffffffffffffffff16905060008054906101000a900473ffffffffffffffffffffffffffffffffffffffff1673ffffffffffffffffffffffffffffffffffffffff16639dc29fac8260008054906101000a900473ffffffffffffffffffffffffffffffffffffffff1673ffffffffffffffffffffffffffffffffffffffff166370a08231856040518263ffffffff1660e01b815260040161097a9190612541565b602060405180830381865afa158015610997573d6000803e3d6000fd5b505050506040513d601f19601f820116820180604052508101906109bb9190612886565b6040518363ffffffff1660e01b81526004016109d89291906128b3565b600060405180830381600087803b1580156109f257600080fd5b505af1158015610a06573d6000803e3d6000fd5b505050506000600184604051610a1c91906127c8565b9081526020016040518091039020600101549050600060026001600280549050610a4691906128dc565b81548110610a5757610a5661255c565b5b906000526020600020018054610a6c906125ba565b80601f0160208091040260200160405190810160405280929190818152602001828054610a98906125ba565b8015610ae55780601f10610aba57610100808354040283529160200191610ae5565b820191906000526020600020905b815481529060010190602001808311610ac857829003601f168201915b505050505090508060028381548110610b0157610b0061255c565b5b906000526020600020019080519060200190610b1e929190611cd5565b5081600182604051610b3091906127c8565b9081526020016040518091039020600101819055506002805480610b5757610b56612910565b5b600190038181906000526020600020016000610b739190611d5b565b9055600185604051610b8591906127c8565b9081526020016040518091039020600080820160006101000a81549073ffffffffffffffffffffffffffffffffffffffff02191690556001820160009055600382016000610bd39190611d9b565b50505050505050565b6000600354905090565b6060600060028054905067ffffffffffffffff811115610c0957610c08611f39565b5b604051908082528060200260200182016040528015610c375781602001602082028036833780820191505090505b50905060005b600280549050811015610d725760008054906101000a900473ffffffffffffffffffffffffffffffffffffffff1673ffffffffffffffffffffffffffffffffffffffff166370a08231600160028481548110610c9c57610c9b61255c565b5b90600052602060002001604051610cb3919061268b565b908152602001604051809103902060000160009054906101000a900473ffffffffffffffffffffffffffffffffffffffff166040518263ffffffff1660e01b8152600401610d019190612541565b602060405180830381865afa158015610d1e573d6000803e3d6000fd5b505050506040513d601f19601f82011682018060405250810190610d429190612886565b828281518110610d5557610d5461255c565b5b60200260200101818152505080610d6b906126d1565b9050610c3d565b508091505090565b600081600073ffffffffffffffffffffffffffffffffffffffff16600182604051610da591906127c8565b908152602001604051809103902060000160009054906101000a900473ffffffffffffffffffffffffffffffffffffffff1673ffffffffffffffffffffffffffffffffffffffff161415610e2e576040517f08c379a0000000000000000000000000000000000000000000000000000000008152600401610e2590612851565b60405180910390fd5b60008054906101000a900473ffffffffffffffffffffffffffffffffffffffff1673ffffffffffffffffffffffffffffffffffffffff166370a08231600185604051610e7a91906127c8565b908152602001604051809103902060000160009054906101000a900473ffffffffffffffffffffffffffffffffffffffff166040518263ffffffff1660e01b8152600401610ec89190612541565b602060405180830381865afa158015610ee5573d6000803e3d6000fd5b505050506040513d601f19601f82011682018060405250810190610f099190612886565b915050919050565b7f000000000000000000000000000000000000000000000000000000000000000073ffffffffffffffffffffffffffffffffffffffff163373ffffffffffffffffffffffffffffffffffffffff1614610f9f576040517f08c379a0000000000000000000000000000000000000000000000000000000008152600401610f9690612777565b60405180910390fd5b8060036000828254610fb1919061293f565b9250508190555050565b60008060009054906101000a900473ffffffffffffffffffffffffffffffffffffffff1673ffffffffffffffffffffffffffffffffffffffff166318160ddd6040518163ffffffff1660e01b8152600401602060405180830381865afa158015611029573d6000803e3d6000fd5b505050506040513d601f19601f8201168201806040525081019061104d9190612886565b905090565b606081600073ffffffffffffffffffffffffffffffffffffffff1660018260405161107d91906127c8565b908152602001604051809103902060000160009054906101000a900473ffffffffffffffffffffffffffffffffffffffff1673ffffffffffffffffffffffffffffffffffffffff161415611106576040517f08c379a00000000000000000000000000000000000000000000000000000000081526004016110fd90612851565b60405180910390fd5b60018360405161111691906127c8565b9081526020016040518091039020600301805480602002602001604051908101604052809291908181526020016000905b828210156111f3578382906000526020600020018054611166906125ba565b80601f0160208091040260200160405190810160405280929190818152602001828054611192906125ba565b80156111df5780601f106111b4576101008083540402835291602001916111df565b820191906000526020600020905b8154815290600101906020018083116111c257829003601f168201915b505050505081526020019060010190611147565b50505050915050919050565b81600073ffffffffffffffffffffffffffffffffffffffff1660018260405161122891906127c8565b908152602001604051809103902060000160009054906101000a900473ffffffffffffffffffffffffffffffffffffffff1673ffffffffffffffffffffffffffffffffffffffff1614156112b1576040517f08c379a00000000000000000000000000000000000000000000000000000000081526004016112a890612851565b60405180910390fd5b7f000000000000000000000000000000000000000000000000000000000000000073ffffffffffffffffffffffffffffffffffffffff163373ffffffffffffffffffffffffffffffffffffffff161461133f576040517f08c379a000000000000000000000000000000000000000000000000000000000815260040161133690612777565b60405180910390fd5b600060018460405161135191906127c8565b90815260200160405180910390206002018360405161137091906127c8565b9081526020016040518091039020549050600081116113c4576040517f08c379a00000000000000000000000000000000000000000000000000000000081526004016113bb906129e1565b60405180910390fd5b6000600180866040516113d791906127c8565b9081526020016040518091039020600301805490506113f691906128dc565b9050600060018660405161140a91906127c8565b9081526020016040518091039020600301828154811061142d5761142c61255c565b5b906000526020600020018054611442906125ba565b80601f016020809104026020016040519081016040528092919081815260200182805461146e906125ba565b80156114bb5780601f10611490576101008083540402835291602001916114bb565b820191906000526020600020905b81548152906001019060200180831161149e57829003601f168201915b50505050509050826001876040516114d391906127c8565b9081526020016040518091039020600201826040516114f291906127c8565b908152602001604051809103902081905550600060018760405161151691906127c8565b90815260200160405180910390206002018660405161153591906127c8565b9081526020016040518091039020819055508060018760405161155891906127c8565b908152602001604051809103902060030160018561157691906128dc565b815481106115875761158661255c565b5b9060005260206000200190805190602001906115a4929190611cd5565b506001866040516115b591906127c8565b90815260200160405180910390206003018054806115d6576115d5612910565b5b6001900381819060005260206000200160006115f29190611d5b565b905560008054906101000a900473ffffffffffffffffffffffffffffffffffffffff1673ffffffffffffffffffffffffffffffffffffffff16639dc29fac60018860405161164091906127c8565b908152602001604051809103902060000160009054906101000a900473ffffffffffffffffffffffffffffffffffffffff1660016040518363ffffffff1660e01b8152600401611691929190612a46565b600060405180830381600087803b1580156116ab57600080fd5b505af11580156116bf573d6000803e3d6000fd5b50505050505050505050565b81600073ffffffffffffffffffffffffffffffffffffffff166001826040516116f491906127c8565b908152602001604051809103902060000160009054906101000a900473ffffffffffffffffffffffffffffffffffffffff1673ffffffffffffffffffffffffffffffffffffffff16141561177d576040517f08c379a000000000000000000000000000000000000000000000000000000000815260040161177490612851565b60405180910390fd5b7f000000000000000000000000000000000000000000000000000000000000000073ffffffffffffffffffffffffffffffffffffffff163373ffffffffffffffffffffffffffffffffffffffff161461180b576040517f08c379a000000000000000000000000000000000000000000000000000000000815260040161180290612777565b60405180910390fd5b60018360405161181b91906127c8565b908152602001604051809103902060030182908060018154018082558091505060019003906000526020600020016000909190919091509080519060200190611865929190611cd5565b5060018360405161187691906127c8565b90815260200160405180910390206003018054905060018460405161189b91906127c8565b9081526020016040518091039020600201836040516118ba91906127c8565b90815260200160405180910390208190555060008054906101000a900473ffffffffffffffffffffffffffffffffffffffff1673ffffffffffffffffffffffffffffffffffffffff166340c10f1960018560405161191891906127c8565b908152602001604051809103902060000160009054906101000a900473ffffffffffffffffffffffffffffffffffffffff1660016040518363ffffffff1660e01b8152600401611969929190612a46565b600060405180830381600087803b15801561198357600080fd5b505af1158015611997573d6000803e3d6000fd5b50505050505050565b600081600073ffffffffffffffffffffffffffffffffffffffff166001826040516119cb91906127c8565b908152602001604051809103902060000160009054906101000a900473ffffffffffffffffffffffffffffffffffffffff1673ffffffffffffffffffffffffffffffffffffffff161415611a54576040517f08c379a0000000000000000000000000000000000000000000000000000000008152600401611a4b90612851565b60405180910390fd5b600183604051611a6491906127c8565b908152602001604051809103902060000160009054906101000a900473ffffffffffffffffffffffffffffffffffffffff16915050919050565b7f000000000000000000000000000000000000000000000000000000000000000073ffffffffffffffffffffffffffffffffffffffff163373ffffffffffffffffffffffffffffffffffffffff1614611b2c576040517f08c379a0000000000000000000000000000000000000000000000000000000008152600401611b2390612777565b60405180910390fd5b600073ffffffffffffffffffffffffffffffffffffffff16600182604051611b5491906127c8565b908152602001604051809103902060000160009054906101000a900473ffffffffffffffffffffffffffffffffffffffff1673ffffffffffffffffffffffffffffffffffffffff1614611bdc576040517f08c379a0000000000000000000000000000000000000000000000000000000008152600401611bd390612abb565b60405180910390fd5b600081604051602001611bef91906127c8565b6040516020818303038152906040528051906020012060601c905080600183604051611c1b91906127c8565b908152602001604051809103902060000160006101000a81548173ffffffffffffffffffffffffffffffffffffffff021916908373ffffffffffffffffffffffffffffffffffffffff160217905550600280549050600183604051611c8091906127c8565b908152602001604051809103902060010181905550600282908060018154018082558091505060019003906000526020600020016000909190919091509080519060200190611cd0929190611cd5565b505050565b828054611ce1906125ba565b90600052602060002090601f016020900481019282611d035760008555611d4a565b82601f10611d1c57805160ff1916838001178555611d4a565b82800160010185558215611d4a579182015b82811115611d49578251825591602001919060010190611d2e565b5b509050611d579190611dbc565b5090565b508054611d67906125ba565b6000825580601f10611d795750611d98565b601f016020900490600052602060002090810190611d979190611dbc565b5b50565b5080546000825590600052602060002090810190611db99190611dd9565b50565b5b80821115611dd5576000816000905550600101611dbd565b5090565b5b80821115611df95760008181611df09190611d5b565b50600101611dda565b5090565b600081519050919050565b600082825260208201905092915050565b6000819050602082019050919050565b600073ffffffffffffffffffffffffffffffffffffffff82169050919050565b6000611e5482611e29565b9050919050565b611e6481611e49565b82525050565b6000611e768383611e5b565b60208301905092915050565b6000602082019050919050565b6000611e9a82611dfd565b611ea48185611e08565b9350611eaf83611e19565b8060005b83811015611ee0578151611ec78882611e6a565b9750611ed283611e82565b925050600181019050611eb3565b5085935050505092915050565b60006020820190508181036000830152611f078184611e8f565b905092915050565b6000604051905090565b600080fd5b600080fd5b600080fd5b6000601f19601f8301169050919050565b7f4e487b7100000000000000000000000000000000000000000000000000000000600052604160045260246000fd5b611f7182611f28565b810181811067ffffffffffffffff82111715611f9057611f8f611f39565b5b80604052505050565b6000611fa3611f0f565b9050611faf8282611f68565b919050565b600067ffffffffffffffff821115611fcf57611fce611f39565b5b602082029050602081019050919050565b600080fd5b600080fd5b600067ffffffffffffffff82111561200557612004611f39565b5b61200e82611f28565b9050602081019050919050565b82818337600083830152505050565b600061203d61203884611fea565b611f99565b90508281526020810184848401111561205957612058611fe5565b5b61206484828561201b565b509392505050565b600082601f83011261208157612080611f23565b5b813561209184826020860161202a565b91505092915050565b60006120ad6120a884611fb4565b611f99565b905080838252602082019050602084028301858111156120d0576120cf611fe0565b5b835b8181101561211757803567ffffffffffffffff8111156120f5576120f4611f23565b5b808601612102898261206c565b855260208501945050506020810190506120d2565b5050509392505050565b600082601f83011261213657612135611f23565b5b813561214684826020860161209a565b91505092915050565b60006020828403121561216557612164611f19565b5b600082013567ffffffffffffffff81111561218357612182611f1e565b5b61218f84828501612121565b91505092915050565b600081519050919050565b600082825260208201905092915050565b6000819050602082019050919050565b600081519050919050565b600082825260208201905092915050565b60005b838110156121fe5780820151818401526020810190506121e3565b8381111561220d576000848401525b50505050565b600061221e826121c4565b61222881856121cf565b93506122388185602086016121e0565b61224181611f28565b840191505092915050565b60006122588383612213565b905092915050565b6000602082019050919050565b600061227882612198565b61228281856121a3565b935083602082028501612294856121b4565b8060005b858110156122d057848403895281516122b1858261224c565b94506122bc83612260565b925060208a01995050600181019050612298565b50829750879550505050505092915050565b600060208201905081810360008301526122fc818461226d565b905092915050565b60006020828403121561231a57612319611f19565b5b600082013567ffffffffffffffff81111561233857612337611f1e565b5b6123448482850161206c565b91505092915050565b6000819050919050565b6123608161234d565b82525050565b600060208201905061237b6000830184612357565b92915050565b600081519050919050565b600082825260208201905092915050565b6000819050602082019050919050565b6123b68161234d565b82525050565b60006123c883836123ad565b60208301905092915050565b6000602082019050919050565b60006123ec82612381565b6123f6818561238c565b93506124018361239d565b8060005b8381101561243257815161241988826123bc565b9750612424836123d4565b925050600181019050612405565b5085935050505092915050565b6000602082019050818103600083015261245981846123e1565b905092915050565b61246a8161234d565b811461247557600080fd5b50565b60008135905061248781612461565b92915050565b6000602082840312156124a3576124a2611f19565b5b60006124b184828501612478565b91505092915050565b600080604083850312156124d1576124d0611f19565b5b600083013567ffffffffffffffff8111156124ef576124ee611f1e565b5b6124fb8582860161206c565b925050602083013567ffffffffffffffff81111561251c5761251b611f1e565b5b6125288582860161206c565b9150509250929050565b61253b81611e49565b82525050565b60006020820190506125566000830184612532565b92915050565b7f4e487b7100000000000000000000000000000000000000000000000000000000600052603260045260246000fd5b7f4e487b7100000000000000000000000000000000000000000000000000000000600052602260045260246000fd5b600060028204905060018216806125d257607f821691505b602082108114156125e6576125e561258b565b5b50919050565b600081905092915050565b60008190508160005260206000209050919050565b60008154612619816125ba565b61262381866125ec565b9450600182166000811461263e576001811461264f57612682565b60ff19831686528186019350612682565b612658856125f7565b60005b8381101561267a5781548189015260018201915060208101905061265b565b838801955050505b50505092915050565b6000612697828461260c565b915081905092915050565b7f4e487b7100000000000000000000000000000000000000000000000000000000600052601160045260246000fd5b60006126dc8261234d565b91507fffffffffffffffffffffffffffffffffffffffffffffffffffffffffffffffff82141561270f5761270e6126a2565b5b600182019050919050565b600082825260208201905092915050565b7f4e6f20616c6c6f77616e63657300000000000000000000000000000000000000600082015250565b6000612761600d8361271a565b915061276c8261272b565b602082019050919050565b6000602082019050818103600083015261279081612754565b9050919050565b60006127a2826121c4565b6127ac81856125ec565b93506127bc8185602086016121e0565b80840191505092915050565b60006127d48284612797565b915081905092915050565b7f4e6f742064657465637465642061732061207061727469636970616e7420696e60008201527f206f75722073797374656d000000000000000000000000000000000000000000602082015250565b600061283b602b8361271a565b9150612846826127df565b604082019050919050565b6000602082019050818103600083015261286a8161282e565b9050919050565b60008151905061288081612461565b92915050565b60006020828403121561289c5761289b611f19565b5b60006128aa84828501612871565b91505092915050565b60006040820190506128c86000830185612532565b6128d56020830184612357565b9392505050565b60006128e78261234d565b91506128f28361234d565b925082821015612905576129046126a2565b5b828203905092915050565b7f4e487b7100000000000000000000000000000000000000000000000000000000600052603160045260246000fd5b600061294a8261234d565b91506129558361234d565b9250827fffffffffffffffffffffffffffffffffffffffffffffffffffffffffffffffff0382111561298a576129896126a2565b5b828201905092915050565b7f5468697320636f6d706c61696e742069736e2774207265676973746572656400600082015250565b60006129cb601f8361271a565b91506129d682612995565b602082019050919050565b600060208201905081810360008301526129fa816129be565b9050919050565b6000819050919050565b6000819050919050565b6000612a30612a2b612a2684612a01565b612a0b565b61234d565b9050919050565b612a4081612a15565b82525050565b6000604082019050612a5b6000830185612532565b612a686020830184612a37565b9392505050565b7f436f6d70616e7920697320616c726561647920696e207468652073797374656d600082015250565b6000612aa560208361271a565b9150612ab082612a6f565b602082019050919050565b60006020820190508181036000830152612ad481612a98565b905091905056fea264697066735822122094d5d5327f6611fb123e3c7f5e20e1b3ef8e10930f0d6899d13e04adbd7a190864736f6c634300080a003360a06040523480156200001157600080fd5b5060405162001e9438038062001e948339818101604052810190620000379190620002f6565b8181816003908051906020019062000051929190620000a9565b5080600490805190602001906200006a929190620000a9565b5050503373ffffffffffffffffffffffffffffffffffffffff1660808173ffffffffffffffffffffffffffffffffffffffff16815250505050620003e0565b828054620000b790620003aa565b90600052602060002090601f016020900481019282620000db576000855562000127565b82601f10620000f657805160ff191683800117855562000127565b8280016001018555821562000127579182015b828111156200012657825182559160200191906001019062000109565b5b5090506200013691906200013a565b5090565b5b80821115620001555760008160009055506001016200013b565b5090565b6000604051905090565b600080fd5b600080fd5b600080fd5b600080fd5b6000601f19601f8301169050919050565b7f4e487b7100000000000000000000000000000000000000000000000000000000600052604160045260246000fd5b620001c28262000177565b810181811067ffffffffffffffff82111715620001e457620001e362000188565b5b80604052505050565b6000620001f962000159565b9050620002078282620001b7565b919050565b600067ffffffffffffffff8211156200022a576200022962000188565b5b620002358262000177565b9050602081019050919050565b60005b838110156200026257808201518184015260208101905062000245565b8381111562000272576000848401525b50505050565b60006200028f62000289846200020c565b620001ed565b905082815260208101848484011115620002ae57620002ad62000172565b5b620002bb84828562000242565b509392505050565b600082601f830112620002db57620002da6200016d565b5b8151620002ed84826020860162000278565b91505092915050565b6000806040838503121562000310576200030f62000163565b5b600083015167ffffffffffffffff81111562000331576200033062000168565b5b6200033f85828601620002c3565b925050602083015167ffffffffffffffff81111562000363576200036262000168565b5b6200037185828601620002c3565b9150509250929050565b7f4e487b7100000000000000000000000000000000000000000000000000000000600052602260045260246000fd5b60006002820490506001821680620003c357607f821691505b60208210811415620003da57620003d96200037b565b5b50919050565b608051611a8362000411600039600081816103970152818161049301528181610609015261071e0152611a836000f3fe608060405234801561001057600080fd5b50600436106100cf5760003560e01c806340c10f191161008c5780639dc29fac116100665780639dc29fac14610228578063a457c2d714610244578063a9059cbb14610274578063dd62ed3e146102a4576100cf565b806340c10f19146101be57806370a08231146101da57806395d89b411461020a576100cf565b806306fdde03146100d4578063095ea7b3146100f257806318160ddd1461012257806323b872dd14610140578063313ce56714610170578063395093511461018e575b600080fd5b6100dc6102d4565b6040516100e9919061110d565b60405180910390f35b61010c600480360381019061010791906111c8565b610366565b6040516101199190611223565b60405180910390f35b61012a610389565b604051610137919061124d565b60405180910390f35b61015a60048036038101906101559190611268565b610393565b6040516101679190611223565b60405180910390f35b610178610451565b60405161018591906112d7565b60405180910390f35b6101a860048036038101906101a391906111c8565b61045a565b6040516101b59190611223565b60405180910390f35b6101d860048036038101906101d391906111c8565b610491565b005b6101f460048036038101906101ef91906112f2565b61052d565b604051610201919061124d565b60405180910390f35b610212610575565b60405161021f919061110d565b60405180910390f35b610242600480360381019061023d91906111c8565b610607565b005b61025e600480360381019061025991906111c8565b6106a3565b60405161026b9190611223565b60405180910390f35b61028e600480360381019061028991906111c8565b61071a565b60405161029b9190611223565b60405180910390f35b6102be60048036038101906102b9919061131f565b6107cc565b6040516102cb919061124d565b60405180910390f35b6060600380546102e39061138e565b80601f016020809104026020016040519081016040528092919081815260200182805461030f9061138e565b801561035c5780601f106103315761010080835404028352916020019161035c565b820191906000526020600020905b81548152906001019060200180831161033f57829003601f168201915b5050505050905090565b600080610371610853565b905061037e81858561085b565b600191505092915050565b6000600254905090565b60007f000000000000000000000000000000000000000000000000000000000000000073ffffffffffffffffffffffffffffffffffffffff163373ffffffffffffffffffffffffffffffffffffffff1614610423576040517f08c379a000000000000000000000000000000000000000000000000000000000815260040161041a9061140c565b60405180910390fd5b600061042d610853565b905061043a858285610a26565b610445858585610ab2565b60019150509392505050565b60006012905090565b600080610465610853565b905061048681858561047785896107cc565b610481919061145b565b61085b565b600191505092915050565b7f000000000000000000000000000000000000000000000000000000000000000073ffffffffffffffffffffffffffffffffffffffff163373ffffffffffffffffffffffffffffffffffffffff161461051f576040517f08c379a00000000000000000000000000000000000000000000000000000000081526004016105169061140c565b60405180910390fd5b6105298282610d33565b5050565b60008060008373ffffffffffffffffffffffffffffffffffffffff1673ffffffffffffffffffffffffffffffffffffffff168152602001908152602001600020549050919050565b6060600480546105849061138e565b80601f01602080910402602001604051908101604052809291908181526020018280546105b09061138e565b80156105fd5780601f106105d2576101008083540402835291602001916105fd565b820191906000526020600020905b8154815290600101906020018083116105e057829003601f168201915b5050505050905090565b7f000000000000000000000000000000000000000000000000000000000000000073ffffffffffffffffffffffffffffffffffffffff163373ffffffffffffffffffffffffffffffffffffffff1614610695576040517f08c379a000000000000000000000000000000000000000000000000000000000815260040161068c9061140c565b60405180910390fd5b61069f8282610e93565b5050565b6000806106ae610853565b905060006106bc82866107cc565b905083811015610701576040517f08c379a00000000000000000000000000000000000000000000000000000000081526004016106f890611523565b60405180910390fd5b61070e828686840361085b565b60019250505092915050565b60007f000000000000000000000000000000000000000000000000000000000000000073ffffffffffffffffffffffffffffffffffffffff163373ffffffffffffffffffffffffffffffffffffffff16146107aa576040517f08c379a00000000000000000000000000000000000000000000000000000000081526004016107a19061140c565b60405180910390fd5b60006107b4610853565b90506107c1818585610ab2565b600191505092915050565b6000600160008473ffffffffffffffffffffffffffffffffffffffff1673ffffffffffffffffffffffffffffffffffffffff16815260200190815260200160002060008373ffffffffffffffffffffffffffffffffffffffff1673ffffffffffffffffffffffffffffffffffffffff16815260200190815260200160002054905092915050565b600033905090565b600073ffffffffffffffffffffffffffffffffffffffff168373ffffffffffffffffffffffffffffffffffffffff1614156108cb576040517f08c379a00000000000000000000000000000000000000000000000000000000081526004016108c2906115b5565b60405180910390fd5b600073ffffffffffffffffffffffffffffffffffffffff168273ffffffffffffffffffffffffffffffffffffffff16141561093b576040517f08c379a000000000000000000000000000000000000000000000000000000000815260040161093290611647565b60405180910390fd5b80600160008573ffffffffffffffffffffffffffffffffffffffff1673ffffffffffffffffffffffffffffffffffffffff16815260200190815260200160002060008473ffffffffffffffffffffffffffffffffffffffff1673ffffffffffffffffffffffffffffffffffffffff168152602001908152602001600020819055508173ffffffffffffffffffffffffffffffffffffffff168373ffffffffffffffffffffffffffffffffffffffff167f8c5be1e5ebec7d5bd14f71427d1e84f3dd0314c0f7b2291e5b200ac8c7c3b92583604051610a19919061124d565b60405180910390a3505050565b6000610a3284846107cc565b90507fffffffffffffffffffffffffffffffffffffffffffffffffffffffffffffffff8114610aac5781811015610a9e576040517f08c379a0000000000000000000000000000000000000000000000000000000008152600401610a95906116b3565b60405180910390fd5b610aab848484840361085b565b5b50505050565b600073ffffffffffffffffffffffffffffffffffffffff168373ffffffffffffffffffffffffffffffffffffffff161415610b22576040517f08c379a0000000000000000000000000000000000000000000000000000000008152600401610b1990611745565b60405180910390fd5b600073ffffffffffffffffffffffffffffffffffffffff168273ffffffffffffffffffffffffffffffffffffffff161415610b92576040517f08c379a0000000000000000000000000000000000000000000000000000000008152600401610b89906117d7565b60405180910390fd5b610b9d83838361106a565b60008060008573ffffffffffffffffffffffffffffffffffffffff1673ffffffffffffffffffffffffffffffffffffffff16815260200190815260200160002054905081811015610c23576040517f08c379a0000000000000000000000000000000000000000000000000000000008152600401610c1a90611869565b60405180910390fd5b8181036000808673ffffffffffffffffffffffffffffffffffffffff1673ffffffffffffffffffffffffffffffffffffffff16815260200190815260200160002081905550816000808573ffffffffffffffffffffffffffffffffffffffff1673ffffffffffffffffffffffffffffffffffffffff1681526020019081526020016000206000828254610cb6919061145b565b925050819055508273ffffffffffffffffffffffffffffffffffffffff168473ffffffffffffffffffffffffffffffffffffffff167fddf252ad1be2c89b69c2b068fc378daa952ba7f163c4a11628f55a4df523b3ef84604051610d1a919061124d565b60405180910390a3610d2d84848461106f565b50505050565b600073ffffffffffffffffffffffffffffffffffffffff168273ffffffffffffffffffffffffffffffffffffffff161415610da3576040517f08c379a0000000000000000000000000000000000000000000000000000000008152600401610d9a906118d5565b60405180910390fd5b610daf6000838361106a565b8060026000828254610dc1919061145b565b92505081905550806000808473ffffffffffffffffffffffffffffffffffffffff1673ffffffffffffffffffffffffffffffffffffffff1681526020019081526020016000206000828254610e16919061145b565b925050819055508173ffffffffffffffffffffffffffffffffffffffff16600073ffffffffffffffffffffffffffffffffffffffff167fddf252ad1be2c89b69c2b068fc378daa952ba7f163c4a11628f55a4df523b3ef83604051610e7b919061124d565b60405180910390a3610e8f6000838361106f565b5050565b600073ffffffffffffffffffffffffffffffffffffffff168273ffffffffffffffffffffffffffffffffffffffff161415610f03576040517f08c379a0000000000000000000000000000000000000000000000000000000008152600401610efa90611967565b60405180910390fd5b610f0f8260008361106a565b60008060008473ffffffffffffffffffffffffffffffffffffffff1673ffffffffffffffffffffffffffffffffffffffff16815260200190815260200160002054905081811015610f95576040517f08c379a0000000000000000000000000000000000000000000000000000000008152600401610f8c906119f9565b60405180910390fd5b8181036000808573ffffffffffffffffffffffffffffffffffffffff1673ffffffffffffffffffffffffffffffffffffffff168152602001908152602001600020819055508160026000828254610fec9190611a19565b92505081905550600073ffffffffffffffffffffffffffffffffffffffff168373ffffffffffffffffffffffffffffffffffffffff167fddf252ad1be2c89b69c2b068fc378daa952ba7f163c4a11628f55a4df523b3ef84604051611051919061124d565b60405180910390a36110658360008461106f565b505050565b505050565b505050565b600081519050919050565b600082825260208201905092915050565b60005b838110156110ae578082015181840152602081019050611093565b838111156110bd576000848401525b50505050565b6000601f19601f8301169050919050565b60006110df82611074565b6110e9818561107f565b93506110f9818560208601611090565b611102816110c3565b840191505092915050565b6000602082019050818103600083015261112781846110d4565b905092915050565b600080fd5b600073ffffffffffffffffffffffffffffffffffffffff82169050919050565b600061115f82611134565b9050919050565b61116f81611154565b811461117a57600080fd5b50565b60008135905061118c81611166565b92915050565b6000819050919050565b6111a581611192565b81146111b057600080fd5b50565b6000813590506111c28161119c565b92915050565b600080604083850312156111df576111de61112f565b5b60006111ed8582860161117d565b92505060206111fe858286016111b3565b9150509250929050565b60008115159050919050565b61121d81611208565b82525050565b60006020820190506112386000830184611214565b92915050565b61124781611192565b82525050565b6000602082019050611262600083018461123e565b92915050565b6000806000606084860312156112815761128061112f565b5b600061128f8682870161117d565b93505060206112a08682870161117d565b92505060406112b1868287016111b3565b9150509250925092565b600060ff82169050919050565b6112d1816112bb565b82525050565b60006020820190506112ec60008301846112c8565b92915050565b6000602082840312156113085761130761112f565b5b60006113168482850161117d565b91505092915050565b600080604083850312156113365761133561112f565b5b60006113448582860161117d565b92505060206113558582860161117d565b9150509250929050565b7f4e487b7100000000000000000000000000000000000000000000000000000000600052602260045260246000fd5b600060028204905060018216806113a657607f821691505b602082108114156113ba576113b961135f565b5b50919050565b7f4e6f207065726d697373696f6e00000000000000000000000000000000000000600082015250565b60006113f6600d8361107f565b9150611401826113c0565b602082019050919050565b60006020820190508181036000830152611425816113e9565b9050919050565b7f4e487b7100000000000000000000000000000000000000000000000000000000600052601160045260246000fd5b600061146682611192565b915061147183611192565b9250827fffffffffffffffffffffffffffffffffffffffffffffffffffffffffffffffff038211156114a6576114a561142c565b5b828201905092915050565b7f45524332303a2064656372656173656420616c6c6f77616e63652062656c6f7760008201527f207a65726f000000000000000000000000000000000000000000000000000000602082015250565b600061150d60258361107f565b9150611518826114b1565b604082019050919050565b6000602082019050818103600083015261153c81611500565b9050919050565b7f45524332303a20617070726f76652066726f6d20746865207a65726f2061646460008201527f7265737300000000000000000000000000000000000000000000000000000000602082015250565b600061159f60248361107f565b91506115aa82611543565b604082019050919050565b600060208201905081810360008301526115ce81611592565b9050919050565b7f45524332303a20617070726f766520746f20746865207a65726f20616464726560008201527f7373000000000000000000000000000000000000000000000000000000000000602082015250565b600061163160228361107f565b915061163c826115d5565b604082019050919050565b6000602082019050818103600083015261166081611624565b9050919050565b7f45524332303a20696e73756666696369656e7420616c6c6f77616e6365000000600082015250565b600061169d601d8361107f565b91506116a882611667565b602082019050919050565b600060208201905081810360008301526116cc81611690565b9050919050565b7f45524332303a207472616e736665722066726f6d20746865207a65726f20616460008201527f6472657373000000000000000000000000000000000000000000000000000000602082015250565b600061172f60258361107f565b915061173a826116d3565b604082019050919050565b6000602082019050818103600083015261175e81611722565b9050919050565b7f45524332303a207472616e7366657220746f20746865207a65726f206164647260008201527f6573730000000000000000000000000000000000000000000000000000000000602082015250565b60006117c160238361107f565b91506117cc82611765565b604082019050919050565b600060208201905081810360008301526117f0816117b4565b9050919050565b7f45524332303a207472616e7366657220616d6f756e742065786365656473206260008201527f616c616e63650000000000000000000000000000000000000000000000000000602082015250565b600061185360268361107f565b915061185e826117f7565b604082019050919050565b6000602082019050818103600083015261188281611846565b9050919050565b7f45524332303a206d696e7420746f20746865207a65726f206164647265737300600082015250565b60006118bf601f8361107f565b91506118ca82611889565b602082019050919050565b600060208201905081810360008301526118ee816118b2565b9050919050565b7f45524332303a206275726e2066726f6d20746865207a65726f2061646472657360008201527f7300000000000000000000000000000000000000000000000000000000000000602082015250565b600061195160218361107f565b915061195c826118f5565b604082019050919050565b6000602082019050818103600083015261198081611944565b9050919050565b7f45524332303a206275726e20616d6f756e7420657863656564732062616c616e60008201527f6365000000000000000000000000000000000000000000000000000000000000602082015250565b60006119e360228361107f565b91506119ee82611987565b604082019050919050565b60006020820190508181036000830152611a12816119d6565b9050919050565b6000611a2482611192565b9150611a2f83611192565b925082821015611a4257611a4161142c565b5b82820390509291505056fea2646970667358221220d9bc99ecfa09ad793b06f3fceb2dcbdbd92f69115c789122da8a9eec3db688da64736f6c634300080a0033",
      "opcodes": "PUSH1 0xA0 PUSH1 0x40 MSTORE CALLVALUE DUP1 ISZERO PUSH3 0x11 JUMPI PUSH1 0x0 DUP1 REVERT JUMPDEST POP CALLER PUSH20 0xFFFFFFFFFFFFFFFFFFFFFFFFFFFFFFFFFFFFFFFF AND PUSH1 0x80 DUP2 PUSH20 0xFFFFFFFFFFFFFFFFFFFFFFFFFFFFFFFFFFFFFFFF AND DUP2 MSTORE POP POP PUSH1 0x40 MLOAD PUSH3 0x54 SWAP1 PUSH3 0xCA JUMP JUMPDEST PUSH3 0x5F SWAP1 PUSH3 0x189 JUMP JUMPDEST PUSH1 0x40 MLOAD DUP1 SWAP2 SUB SWAP1 PUSH1 0x0 CREATE DUP1 ISZERO DUP1 ISZERO PUSH3 0x7C JUMPI RETURNDATASIZE PUSH1 0x0 DUP1 RETURNDATACOPY RETURNDATASIZE PUSH1 0x0 REVERT JUMPDEST POP PUSH1 0x0 DUP1 PUSH2 0x100 EXP DUP2 SLOAD DUP2 PUSH20 0xFFFFFFFFFFFFFFFFFFFFFFFFFFFFFFFFFFFFFFFF MUL NOT AND SWAP1 DUP4 PUSH20 0xFFFFFFFFFFFFFFFFFFFFFFFFFFFFFFFFFFFFFFFF AND MUL OR SWAP1 SSTORE POP PUSH1 0x0 PUSH1 0x3 DUP2 SWAP1 SSTORE POP PUSH3 0x1C0 JUMP JUMPDEST PUSH2 0x1E94 DUP1 PUSH3 0x2D10 DUP4 CODECOPY ADD SWAP1 JUMP JUMPDEST PUSH1 0x0 DUP3 DUP3 MSTORE PUSH1 0x20 DUP3 ADD SWAP1 POP SWAP3 SWAP2 POP POP JUMP JUMPDEST PUSH32 0x52656B7300000000000000000000000000000000000000000000000000000000 PUSH1 0x0 DUP3 ADD MSTORE POP JUMP JUMPDEST PUSH1 0x0 PUSH3 0x121 PUSH1 0x4 DUP4 PUSH3 0xD8 JUMP JUMPDEST SWAP2 POP PUSH3 0x12E DUP3 PUSH3 0xE9 JUMP JUMPDEST PUSH1 0x20 DUP3 ADD SWAP1 POP SWAP2 SWAP1 POP JUMP JUMPDEST PUSH32 0x5200000000000000000000000000000000000000000000000000000000000000 PUSH1 0x0 DUP3 ADD MSTORE POP JUMP JUMPDEST PUSH1 0x0 PUSH3 0x171 PUSH1 0x1 DUP4 PUSH3 0xD8 JUMP JUMPDEST SWAP2 POP PUSH3 0x17E DUP3 PUSH3 0x139 JUMP JUMPDEST PUSH1 0x20 DUP3 ADD SWAP1 POP SWAP2 SWAP1 POP JUMP JUMPDEST PUSH1 0x0 PUSH1 0x40 DUP3 ADD SWAP1 POP DUP2 DUP2 SUB PUSH1 0x0 DUP4 ADD MSTORE PUSH3 0x1A4 DUP2 PUSH3 0x112 JUMP JUMPDEST SWAP1 POP DUP2 DUP2 SUB PUSH1 0x20 DUP4 ADD MSTORE PUSH3 0x1B9 DUP2 PUSH3 0x162 JUMP JUMPDEST SWAP1 POP SWAP2 SWAP1 POP JUMP JUMPDEST PUSH1 0x80 MLOAD PUSH2 0x2B11 PUSH3 0x1FF PUSH1 0x0 CODECOPY PUSH1 0x0 DUP2 DUP2 PUSH2 0x3E9 ADD MSTORE DUP2 DUP2 PUSH2 0x760 ADD MSTORE DUP2 DUP2 PUSH2 0xF13 ADD MSTORE DUP2 DUP2 PUSH2 0x12B3 ADD MSTORE DUP2 DUP2 PUSH2 0x177F ADD MSTORE PUSH2 0x1AA0 ADD MSTORE PUSH2 0x2B11 PUSH1 0x0 RETURN INVALID PUSH1 0x80 PUSH1 0x40 MSTORE CALLVALUE DUP1 ISZERO PUSH2 0x10 JUMPI PUSH1 0x0 DUP1 REVERT JUMPDEST POP PUSH1 0x4 CALLDATASIZE LT PUSH2 0xEA JUMPI PUSH1 0x0 CALLDATALOAD PUSH1 0xE0 SHR DUP1 PUSH4 0x448E88D0 GT PUSH2 0x8C JUMPI DUP1 PUSH4 0xBFEF1851 GT PUSH2 0x66 JUMPI DUP1 PUSH4 0xBFEF1851 EQ PUSH2 0x239 JUMPI DUP1 PUSH4 0xD09CDAC1 EQ PUSH2 0x255 JUMPI DUP1 PUSH4 0xD6A16AFA EQ PUSH2 0x271 JUMPI DUP1 PUSH4 0xF1E6FE87 EQ PUSH2 0x2A1 JUMPI PUSH2 0xEA JUMP JUMPDEST DUP1 PUSH4 0x448E88D0 EQ PUSH2 0x1CF JUMPI DUP1 PUSH4 0x59F97801 EQ PUSH2 0x1EB JUMPI DUP1 PUSH4 0x6B5F35C2 EQ PUSH2 0x209 JUMPI PUSH2 0xEA JUMP JUMPDEST DUP1 PUSH4 0x112E4143 GT PUSH2 0xC8 JUMPI DUP1 PUSH4 0x112E4143 EQ PUSH2 0x147 JUMPI DUP1 PUSH4 0x1C17DEE8 EQ PUSH2 0x163 JUMPI DUP1 PUSH4 0x2F435B3F EQ PUSH2 0x181 JUMPI DUP1 PUSH4 0x3D1103F4 EQ PUSH2 0x19F JUMPI PUSH2 0xEA JUMP JUMPDEST DUP1 PUSH4 0x5E5E5A3 EQ PUSH2 0xEF JUMPI DUP1 PUSH4 0x8459850 EQ PUSH2 0x10D JUMPI DUP1 PUSH4 0x9A7A006 EQ PUSH2 0x129 JUMPI JUMPDEST PUSH1 0x0 DUP1 REVERT JUMPDEST PUSH2 0xF7 PUSH2 0x2BD JUMP JUMPDEST PUSH1 0x40 MLOAD PUSH2 0x104 SWAP2 SWAP1 PUSH2 0x1EED JUMP JUMPDEST PUSH1 0x40 MLOAD DUP1 SWAP2 SUB SWAP1 RETURN JUMPDEST PUSH2 0x127 PUSH1 0x4 DUP1 CALLDATASIZE SUB DUP2 ADD SWAP1 PUSH2 0x122 SWAP2 SWAP1 PUSH2 0x214F JUMP JUMPDEST PUSH2 0x3E7 JUMP JUMPDEST STOP JUMPDEST PUSH2 0x131 PUSH2 0x685 JUMP JUMPDEST PUSH1 0x40 MLOAD PUSH2 0x13E SWAP2 SWAP1 PUSH2 0x22E2 JUMP JUMPDEST PUSH1 0x40 MLOAD DUP1 SWAP2 SUB SWAP1 RETURN JUMPDEST PUSH2 0x161 PUSH1 0x4 DUP1 CALLDATASIZE SUB DUP2 ADD SWAP1 PUSH2 0x15C SWAP2 SWAP1 PUSH2 0x2304 JUMP JUMPDEST PUSH2 0x75E JUMP JUMPDEST STOP JUMPDEST PUSH2 0x16B PUSH2 0xBDC JUMP JUMPDEST PUSH1 0x40 MLOAD PUSH2 0x178 SWAP2 SWAP1 PUSH2 0x2366 JUMP JUMPDEST PUSH1 0x40 MLOAD DUP1 SWAP2 SUB SWAP1 RETURN JUMPDEST PUSH2 0x189 PUSH2 0xBE6 JUMP JUMPDEST PUSH1 0x40 MLOAD PUSH2 0x196 SWAP2 SWAP1 PUSH2 0x243F JUMP JUMPDEST PUSH1 0x40 MLOAD DUP1 SWAP2 SUB SWAP1 RETURN JUMPDEST PUSH2 0x1B9 PUSH1 0x4 DUP1 CALLDATASIZE SUB DUP2 ADD SWAP1 PUSH2 0x1B4 SWAP2 SWAP1 PUSH2 0x2304 JUMP JUMPDEST PUSH2 0xD7A JUMP JUMPDEST PUSH1 0x40 MLOAD PUSH2 0x1C6 SWAP2 SWAP1 PUSH2 0x2366 JUMP JUMPDEST PUSH1 0x40 MLOAD DUP1 SWAP2 SUB SWAP1 RETURN JUMPDEST PUSH2 0x1E9 PUSH1 0x4 DUP1 CALLDATASIZE SUB DUP2 ADD SWAP1 PUSH2 0x1E4 SWAP2 SWAP1 PUSH2 0x248D JUMP JUMPDEST PUSH2 0xF11 JUMP JUMPDEST STOP JUMPDEST PUSH2 0x1F3 PUSH2 0xFBB JUMP JUMPDEST PUSH1 0x40 MLOAD PUSH2 0x200 SWAP2 SWAP1 PUSH2 0x2366 JUMP JUMPDEST PUSH1 0x40 MLOAD DUP1 SWAP2 SUB SWAP1 RETURN JUMPDEST PUSH2 0x223 PUSH1 0x4 DUP1 CALLDATASIZE SUB DUP2 ADD SWAP1 PUSH2 0x21E SWAP2 SWAP1 PUSH2 0x2304 JUMP JUMPDEST PUSH2 0x1052 JUMP JUMPDEST PUSH1 0x40 MLOAD PUSH2 0x230 SWAP2 SWAP1 PUSH2 0x22E2 JUMP JUMPDEST PUSH1 0x40 MLOAD DUP1 SWAP2 SUB SWAP1 RETURN JUMPDEST PUSH2 0x253 PUSH1 0x4 DUP1 CALLDATASIZE SUB DUP2 ADD SWAP1 PUSH2 0x24E SWAP2 SWAP1 PUSH2 0x24BA JUMP JUMPDEST PUSH2 0x11FF JUMP JUMPDEST STOP JUMPDEST PUSH2 0x26F PUSH1 0x4 DUP1 CALLDATASIZE SUB DUP2 ADD SWAP1 PUSH2 0x26A SWAP2 SWAP1 PUSH2 0x24BA JUMP JUMPDEST PUSH2 0x16CB JUMP JUMPDEST STOP JUMPDEST PUSH2 0x28B PUSH1 0x4 DUP1 CALLDATASIZE SUB DUP2 ADD SWAP1 PUSH2 0x286 SWAP2 SWAP1 PUSH2 0x2304 JUMP JUMPDEST PUSH2 0x19A0 JUMP JUMPDEST PUSH1 0x40 MLOAD PUSH2 0x298 SWAP2 SWAP1 PUSH2 0x2541 JUMP JUMPDEST PUSH1 0x40 MLOAD DUP1 SWAP2 SUB SWAP1 RETURN JUMPDEST PUSH2 0x2BB PUSH1 0x4 DUP1 CALLDATASIZE SUB DUP2 ADD SWAP1 PUSH2 0x2B6 SWAP2 SWAP1 PUSH2 0x2304 JUMP JUMPDEST PUSH2 0x1A9E JUMP JUMPDEST STOP JUMPDEST PUSH1 0x60 PUSH1 0x0 PUSH1 0x2 DUP1 SLOAD SWAP1 POP SWAP1 POP PUSH1 0x0 DUP2 PUSH8 0xFFFFFFFFFFFFFFFF DUP2 GT ISZERO PUSH2 0x2E5 JUMPI PUSH2 0x2E4 PUSH2 0x1F39 JUMP JUMPDEST JUMPDEST PUSH1 0x40 MLOAD SWAP1 DUP1 DUP3 MSTORE DUP1 PUSH1 0x20 MUL PUSH1 0x20 ADD DUP3 ADD PUSH1 0x40 MSTORE DUP1 ISZERO PUSH2 0x313 JUMPI DUP2 PUSH1 0x20 ADD PUSH1 0x20 DUP3 MUL DUP1 CALLDATASIZE DUP4 CALLDATACOPY DUP1 DUP3 ADD SWAP2 POP POP SWAP1 POP JUMPDEST POP SWAP1 POP PUSH1 0x0 JUMPDEST DUP3 DUP2 LT ISZERO PUSH2 0x3DE JUMPI PUSH1 0x1 PUSH1 0x2 DUP3 DUP2 SLOAD DUP2 LT PUSH2 0x337 JUMPI PUSH2 0x336 PUSH2 0x255C JUMP JUMPDEST JUMPDEST SWAP1 PUSH1 0x0 MSTORE PUSH1 0x20 PUSH1 0x0 KECCAK256 ADD PUSH1 0x40 MLOAD PUSH2 0x34E SWAP2 SWAP1 PUSH2 0x268B JUMP JUMPDEST SWAP1 DUP2 MSTORE PUSH1 0x20 ADD PUSH1 0x40 MLOAD DUP1 SWAP2 SUB SWAP1 KECCAK256 PUSH1 0x0 ADD PUSH1 0x0 SWAP1 SLOAD SWAP1 PUSH2 0x100 EXP SWAP1 DIV PUSH20 0xFFFFFFFFFFFFFFFFFFFFFFFFFFFFFFFFFFFFFFFF AND DUP3 DUP3 DUP2 MLOAD DUP2 LT PUSH2 0x393 JUMPI PUSH2 0x392 PUSH2 0x255C JUMP JUMPDEST JUMPDEST PUSH1 0x20 MUL PUSH1 0x20 ADD ADD SWAP1 PUSH20 0xFFFFFFFFFFFFFFFFFFFFFFFFFFFFFFFFFFFFFFFF AND SWAP1 DUP2 PUSH20 0xFFFFFFFFFFFFFFFFFFFFFFFFFFFFFFFFFFFFFFFF AND DUP2 MSTORE POP POP DUP1 PUSH2 0x3D7 SWAP1 PUSH2 0x26D1 JUMP JUMPDEST SWAP1 POP PUSH2 0x319 JUMP JUMPDEST POP DUP1 SWAP3 POP POP POP SWAP1 JUMP JUMPDEST PUSH32 0x0 PUSH20 0xFFFFFFFFFFFFFFFFFFFFFFFFFFFFFFFFFFFFFFFF AND CALLER PUSH20 0xFFFFFFFFFFFFFFFFFFFFFFFFFFFFFFFFFFFFFFFF AND EQ PUSH2 0x475 JUMPI PUSH1 0x40 MLOAD PUSH32 0x8C379A000000000000000000000000000000000000000000000000000000000 DUP2 MSTORE PUSH1 0x4 ADD PUSH2 0x46C SWAP1 PUSH2 0x2777 JUMP JUMPDEST PUSH1 0x40 MLOAD DUP1 SWAP2 SUB SWAP1 REVERT JUMPDEST PUSH1 0x0 JUMPDEST DUP2 MLOAD DUP2 LT ISZERO PUSH2 0x681 JUMPI PUSH1 0x0 PUSH20 0xFFFFFFFFFFFFFFFFFFFFFFFFFFFFFFFFFFFFFFFF AND PUSH1 0x1 DUP4 DUP4 DUP2 MLOAD DUP2 LT PUSH2 0x4AE JUMPI PUSH2 0x4AD PUSH2 0x255C JUMP JUMPDEST JUMPDEST PUSH1 0x20 MUL PUSH1 0x20 ADD ADD MLOAD PUSH1 0x40 MLOAD PUSH2 0x4C3 SWAP2 SWAP1 PUSH2 0x27C8 JUMP JUMPDEST SWAP1 DUP2 MSTORE PUSH1 0x20 ADD PUSH1 0x40 MLOAD DUP1 SWAP2 SUB SWAP1 KECCAK256 PUSH1 0x0 ADD PUSH1 0x0 SWAP1 SLOAD SWAP1 PUSH2 0x100 EXP SWAP1 DIV PUSH20 0xFFFFFFFFFFFFFFFFFFFFFFFFFFFFFFFFFFFFFFFF AND PUSH20 0xFFFFFFFFFFFFFFFFFFFFFFFFFFFFFFFFFFFFFFFF AND EQ ISZERO PUSH2 0x670 JUMPI PUSH1 0x0 DUP3 DUP3 DUP2 MLOAD DUP2 LT PUSH2 0x526 JUMPI PUSH2 0x525 PUSH2 0x255C JUMP JUMPDEST JUMPDEST PUSH1 0x20 MUL PUSH1 0x20 ADD ADD MLOAD PUSH1 0x40 MLOAD PUSH1 0x20 ADD PUSH2 0x53E SWAP2 SWAP1 PUSH2 0x27C8 JUMP JUMPDEST PUSH1 0x40 MLOAD PUSH1 0x20 DUP2 DUP4 SUB SUB DUP2 MSTORE SWAP1 PUSH1 0x40 MSTORE DUP1 MLOAD SWAP1 PUSH1 0x20 ADD KECCAK256 PUSH1 0x60 SHR SWAP1 POP DUP1 PUSH1 0x1 DUP5 DUP5 DUP2 MLOAD DUP2 LT PUSH2 0x56F JUMPI PUSH2 0x56E PUSH2 0x255C JUMP JUMPDEST JUMPDEST PUSH1 0x20 MUL PUSH1 0x20 ADD ADD MLOAD PUSH1 0x40 MLOAD PUSH2 0x584 SWAP2 SWAP1 PUSH2 0x27C8 JUMP JUMPDEST SWAP1 DUP2 MSTORE PUSH1 0x20 ADD PUSH1 0x40 MLOAD DUP1 SWAP2 SUB SWAP1 KECCAK256 PUSH1 0x0 ADD PUSH1 0x0 PUSH2 0x100 EXP DUP2 SLOAD DUP2 PUSH20 0xFFFFFFFFFFFFFFFFFFFFFFFFFFFFFFFFFFFFFFFF MUL NOT AND SWAP1 DUP4 PUSH20 0xFFFFFFFFFFFFFFFFFFFFFFFFFFFFFFFFFFFFFFFF AND MUL OR SWAP1 SSTORE POP PUSH1 0x2 DUP1 SLOAD SWAP1 POP PUSH1 0x1 DUP5 DUP5 DUP2 MLOAD DUP2 LT PUSH2 0x5EE JUMPI PUSH2 0x5ED PUSH2 0x255C JUMP JUMPDEST JUMPDEST PUSH1 0x20 MUL PUSH1 0x20 ADD ADD MLOAD PUSH1 0x40 MLOAD PUSH2 0x603 SWAP2 SWAP1 PUSH2 0x27C8 JUMP JUMPDEST SWAP1 DUP2 MSTORE PUSH1 0x20 ADD PUSH1 0x40 MLOAD DUP1 SWAP2 SUB SWAP1 KECCAK256 PUSH1 0x1 ADD DUP2 SWAP1 SSTORE POP PUSH1 0x2 DUP4 DUP4 DUP2 MLOAD DUP2 LT PUSH2 0x62D JUMPI PUSH2 0x62C PUSH2 0x255C JUMP JUMPDEST JUMPDEST PUSH1 0x20 MUL PUSH1 0x20 ADD ADD MLOAD SWAP1 DUP1 PUSH1 0x1 DUP2 SLOAD ADD DUP1 DUP3 SSTORE DUP1 SWAP2 POP POP PUSH1 0x1 SWAP1 SUB SWAP1 PUSH1 0x0 MSTORE PUSH1 0x20 PUSH1 0x0 KECCAK256 ADD PUSH1 0x0 SWAP1 SWAP2 SWAP1 SWAP2 SWAP1 SWAP2 POP SWAP1 DUP1 MLOAD SWAP1 PUSH1 0x20 ADD SWAP1 PUSH2 0x66D SWAP3 SWAP2 SWAP1 PUSH2 0x1CD5 JUMP JUMPDEST POP POP JUMPDEST DUP1 PUSH2 0x67A SWAP1 PUSH2 0x26D1 JUMP JUMPDEST SWAP1 POP PUSH2 0x478 JUMP JUMPDEST POP POP JUMP JUMPDEST PUSH1 0x60 PUSH1 0x2 DUP1 SLOAD DUP1 PUSH1 0x20 MUL PUSH1 0x20 ADD PUSH1 0x40 MLOAD SWAP1 DUP2 ADD PUSH1 0x40 MSTORE DUP1 SWAP3 SWAP2 SWAP1 DUP2 DUP2 MSTORE PUSH1 0x20 ADD PUSH1 0x0 SWAP1 JUMPDEST DUP3 DUP3 LT ISZERO PUSH2 0x755 JUMPI DUP4 DUP3 SWAP1 PUSH1 0x0 MSTORE PUSH1 0x20 PUSH1 0x0 KECCAK256 ADD DUP1 SLOAD PUSH2 0x6C8 SWAP1 PUSH2 0x25BA JUMP JUMPDEST DUP1 PUSH1 0x1F ADD PUSH1 0x20 DUP1 SWAP2 DIV MUL PUSH1 0x20 ADD PUSH1 0x40 MLOAD SWAP1 DUP2 ADD PUSH1 0x40 MSTORE DUP1 SWAP3 SWAP2 SWAP1 DUP2 DUP2 MSTORE PUSH1 0x20 ADD DUP3 DUP1 SLOAD PUSH2 0x6F4 SWAP1 PUSH2 0x25BA JUMP JUMPDEST DUP1 ISZERO PUSH2 0x741 JUMPI DUP1 PUSH1 0x1F LT PUSH2 0x716 JUMPI PUSH2 0x100 DUP1 DUP4 SLOAD DIV MUL DUP4 MSTORE SWAP2 PUSH1 0x20 ADD SWAP2 PUSH2 0x741 JUMP JUMPDEST DUP3 ADD SWAP2 SWAP1 PUSH1 0x0 MSTORE PUSH1 0x20 PUSH1 0x0 KECCAK256 SWAP1 JUMPDEST DUP2 SLOAD DUP2 MSTORE SWAP1 PUSH1 0x1 ADD SWAP1 PUSH1 0x20 ADD DUP1 DUP4 GT PUSH2 0x724 JUMPI DUP3 SWAP1 SUB PUSH1 0x1F AND DUP3 ADD SWAP2 JUMPDEST POP POP POP POP POP DUP2 MSTORE PUSH1 0x20 ADD SWAP1 PUSH1 0x1 ADD SWAP1 PUSH2 0x6A9 JUMP JUMPDEST POP POP POP POP SWAP1 POP SWAP1 JUMP JUMPDEST PUSH32 0x0 PUSH20 0xFFFFFFFFFFFFFFFFFFFFFFFFFFFFFFFFFFFFFFFF AND CALLER PUSH20 0xFFFFFFFFFFFFFFFFFFFFFFFFFFFFFFFFFFFFFFFF AND EQ PUSH2 0x7EC JUMPI PUSH1 0x40 MLOAD PUSH32 0x8C379A000000000000000000000000000000000000000000000000000000000 DUP2 MSTORE PUSH1 0x4 ADD PUSH2 0x7E3 SWAP1 PUSH2 0x2777 JUMP JUMPDEST PUSH1 0x40 MLOAD DUP1 SWAP2 SUB SWAP1 REVERT JUMPDEST DUP1 PUSH1 0x0 PUSH20 0xFFFFFFFFFFFFFFFFFFFFFFFFFFFFFFFFFFFFFFFF AND PUSH1 0x1 DUP3 PUSH1 0x40 MLOAD PUSH2 0x815 SWAP2 SWAP1 PUSH2 0x27C8 JUMP JUMPDEST SWAP1 DUP2 MSTORE PUSH1 0x20 ADD PUSH1 0x40 MLOAD DUP1 SWAP2 SUB SWAP1 KECCAK256 PUSH1 0x0 ADD PUSH1 0x0 SWAP1 SLOAD SWAP1 PUSH2 0x100 EXP SWAP1 DIV PUSH20 0xFFFFFFFFFFFFFFFFFFFFFFFFFFFFFFFFFFFFFFFF AND PUSH20 0xFFFFFFFFFFFFFFFFFFFFFFFFFFFFFFFFFFFFFFFF AND EQ ISZERO PUSH2 0x89E JUMPI PUSH1 0x40 MLOAD PUSH32 0x8C379A000000000000000000000000000000000000000000000000000000000 DUP2 MSTORE PUSH1 0x4 ADD PUSH2 0x895 SWAP1 PUSH2 0x2851 JUMP JUMPDEST PUSH1 0x40 MLOAD DUP1 SWAP2 SUB SWAP1 REVERT JUMPDEST PUSH1 0x0 PUSH1 0x1 DUP4 PUSH1 0x40 MLOAD PUSH2 0x8B0 SWAP2 SWAP1 PUSH2 0x27C8 JUMP JUMPDEST SWAP1 DUP2 MSTORE PUSH1 0x20 ADD PUSH1 0x40 MLOAD DUP1 SWAP2 SUB SWAP1 KECCAK256 PUSH1 0x0 ADD PUSH1 0x0 SWAP1 SLOAD SWAP1 PUSH2 0x100 EXP SWAP1 DIV PUSH20 0xFFFFFFFFFFFFFFFFFFFFFFFFFFFFFFFFFFFFFFFF AND SWAP1 POP PUSH1 0x0 DUP1 SLOAD SWAP1 PUSH2 0x100 EXP SWAP1 DIV PUSH20 0xFFFFFFFFFFFFFFFFFFFFFFFFFFFFFFFFFFFFFFFF AND PUSH20 0xFFFFFFFFFFFFFFFFFFFFFFFFFFFFFFFFFFFFFFFF AND PUSH4 0x9DC29FAC DUP3 PUSH1 0x0 DUP1 SLOAD SWAP1 PUSH2 0x100 EXP SWAP1 DIV PUSH20 0xFFFFFFFFFFFFFFFFFFFFFFFFFFFFFFFFFFFFFFFF AND PUSH20 0xFFFFFFFFFFFFFFFFFFFFFFFFFFFFFFFFFFFFFFFF AND PUSH4 0x70A08231 DUP6 PUSH1 0x40 MLOAD DUP3 PUSH4 0xFFFFFFFF AND PUSH1 0xE0 SHL DUP2 MSTORE PUSH1 0x4 ADD PUSH2 0x97A SWAP2 SWAP1 PUSH2 0x2541 JUMP JUMPDEST PUSH1 0x20 PUSH1 0x40 MLOAD DUP1 DUP4 SUB DUP2 DUP7 GAS STATICCALL ISZERO DUP1 ISZERO PUSH2 0x997 JUMPI RETURNDATASIZE PUSH1 0x0 DUP1 RETURNDATACOPY RETURNDATASIZE PUSH1 0x0 REVERT JUMPDEST POP POP POP POP PUSH1 0x40 MLOAD RETURNDATASIZE PUSH1 0x1F NOT PUSH1 0x1F DUP3 ADD AND DUP3 ADD DUP1 PUSH1 0x40 MSTORE POP DUP2 ADD SWAP1 PUSH2 0x9BB SWAP2 SWAP1 PUSH2 0x2886 JUMP JUMPDEST PUSH1 0x40 MLOAD DUP4 PUSH4 0xFFFFFFFF AND PUSH1 0xE0 SHL DUP2 MSTORE PUSH1 0x4 ADD PUSH2 0x9D8 SWAP3 SWAP2 SWAP1 PUSH2 0x28B3 JUMP JUMPDEST PUSH1 0x0 PUSH1 0x40 MLOAD DUP1 DUP4 SUB DUP2 PUSH1 0x0 DUP8 DUP1 EXTCODESIZE ISZERO DUP1 ISZERO PUSH2 0x9F2 JUMPI PUSH1 0x0 DUP1 REVERT JUMPDEST POP GAS CALL ISZERO DUP1 ISZERO PUSH2 0xA06 JUMPI RETURNDATASIZE PUSH1 0x0 DUP1 RETURNDATACOPY RETURNDATASIZE PUSH1 0x0 REVERT JUMPDEST POP POP POP POP PUSH1 0x0 PUSH1 0x1 DUP5 PUSH1 0x40 MLOAD PUSH2 0xA1C SWAP2 SWAP1 PUSH2 0x27C8 JUMP JUMPDEST SWAP1 DUP2 MSTORE PUSH1 0x20 ADD PUSH1 0x40 MLOAD DUP1 SWAP2 SUB SWAP1 KECCAK256 PUSH1 0x1 ADD SLOAD SWAP1 POP PUSH1 0x0 PUSH1 0x2 PUSH1 0x1 PUSH1 0x2 DUP1 SLOAD SWAP1 POP PUSH2 0xA46 SWAP2 SWAP1 PUSH2 0x28DC JUMP JUMPDEST DUP2 SLOAD DUP2 LT PUSH2 0xA57 JUMPI PUSH2 0xA56 PUSH2 0x255C JUMP JUMPDEST JUMPDEST SWAP1 PUSH1 0x0 MSTORE PUSH1 0x20 PUSH1 0x0 KECCAK256 ADD DUP1 SLOAD PUSH2 0xA6C SWAP1 PUSH2 0x25BA JUMP JUMPDEST DUP1 PUSH1 0x1F ADD PUSH1 0x20 DUP1 SWAP2 DIV MUL PUSH1 0x20 ADD PUSH1 0x40 MLOAD SWAP1 DUP2 ADD PUSH1 0x40 MSTORE DUP1 SWAP3 SWAP2 SWAP1 DUP2 DUP2 MSTORE PUSH1 0x20 ADD DUP3 DUP1 SLOAD PUSH2 0xA98 SWAP1 PUSH2 0x25BA JUMP JUMPDEST DUP1 ISZERO PUSH2 0xAE5 JUMPI DUP1 PUSH1 0x1F LT PUSH2 0xABA JUMPI PUSH2 0x100 DUP1 DUP4 SLOAD DIV MUL DUP4 MSTORE SWAP2 PUSH1 0x20 ADD SWAP2 PUSH2 0xAE5 JUMP JUMPDEST DUP3 ADD SWAP2 SWAP1 PUSH1 0x0 MSTORE PUSH1 0x20 PUSH1 0x0 KECCAK256 SWAP1 JUMPDEST DUP2 SLOAD DUP2 MSTORE SWAP1 PUSH1 0x1 ADD SWAP1 PUSH1 0x20 ADD DUP1 DUP4 GT PUSH2 0xAC8 JUMPI DUP3 SWAP1 SUB PUSH1 0x1F AND DUP3 ADD SWAP2 JUMPDEST POP POP POP POP POP SWAP1 POP DUP1 PUSH1 0x2 DUP4 DUP2 SLOAD DUP2 LT PUSH2 0xB01 JUMPI PUSH2 0xB00 PUSH2 0x255C JUMP JUMPDEST JUMPDEST SWAP1 PUSH1 0x0 MSTORE PUSH1 0x20 PUSH1 0x0 KECCAK256 ADD SWAP1 DUP1 MLOAD SWAP1 PUSH1 0x20 ADD SWAP1 PUSH2 0xB1E SWAP3 SWAP2 SWAP1 PUSH2 0x1CD5 JUMP JUMPDEST POP DUP2 PUSH1 0x1 DUP3 PUSH1 0x40 MLOAD PUSH2 0xB30 SWAP2 SWAP1 PUSH2 0x27C8 JUMP JUMPDEST SWAP1 DUP2 MSTORE PUSH1 0x20 ADD PUSH1 0x40 MLOAD DUP1 SWAP2 SUB SWAP1 KECCAK256 PUSH1 0x1 ADD DUP2 SWAP1 SSTORE POP PUSH1 0x2 DUP1 SLOAD DUP1 PUSH2 0xB57 JUMPI PUSH2 0xB56 PUSH2 0x2910 JUMP JUMPDEST JUMPDEST PUSH1 0x1 SWAP1 SUB DUP2 DUP2 SWAP1 PUSH1 0x0 MSTORE PUSH1 0x20 PUSH1 0x0 KECCAK256 ADD PUSH1 0x0 PUSH2 0xB73 SWAP2 SWAP1 PUSH2 0x1D5B JUMP JUMPDEST SWAP1 SSTORE PUSH1 0x1 DUP6 PUSH1 0x40 MLOAD PUSH2 0xB85 SWAP2 SWAP1 PUSH2 0x27C8 JUMP JUMPDEST SWAP1 DUP2 MSTORE PUSH1 0x20 ADD PUSH1 0x40 MLOAD DUP1 SWAP2 SUB SWAP1 KECCAK256 PUSH1 0x0 DUP1 DUP3 ADD PUSH1 0x0 PUSH2 0x100 EXP DUP2 SLOAD SWAP1 PUSH20 0xFFFFFFFFFFFFFFFFFFFFFFFFFFFFFFFFFFFFFFFF MUL NOT AND SWAP1 SSTORE PUSH1 0x1 DUP3 ADD PUSH1 0x0 SWAP1 SSTORE PUSH1 0x3 DUP3 ADD PUSH1 0x0 PUSH2 0xBD3 SWAP2 SWAP1 PUSH2 0x1D9B JUMP JUMPDEST POP POP POP POP POP POP POP JUMP JUMPDEST PUSH1 0x0 PUSH1 0x3 SLOAD SWAP1 POP SWAP1 JUMP JUMPDEST PUSH1 0x60 PUSH1 0x0 PUSH1 0x2 DUP1 SLOAD SWAP1 POP PUSH8 0xFFFFFFFFFFFFFFFF DUP2 GT ISZERO PUSH2 0xC09 JUMPI PUSH2 0xC08 PUSH2 0x1F39 JUMP JUMPDEST JUMPDEST PUSH1 0x40 MLOAD SWAP1 DUP1 DUP3 MSTORE DUP1 PUSH1 0x20 MUL PUSH1 0x20 ADD DUP3 ADD PUSH1 0x40 MSTORE DUP1 ISZERO PUSH2 0xC37 JUMPI DUP2 PUSH1 0x20 ADD PUSH1 0x20 DUP3 MUL DUP1 CALLDATASIZE DUP4 CALLDATACOPY DUP1 DUP3 ADD SWAP2 POP POP SWAP1 POP JUMPDEST POP SWAP1 POP PUSH1 0x0 JUMPDEST PUSH1 0x2 DUP1 SLOAD SWAP1 POP DUP2 LT ISZERO PUSH2 0xD72 JUMPI PUSH1 0x0 DUP1 SLOAD SWAP1 PUSH2 0x100 EXP SWAP1 DIV PUSH20 0xFFFFFFFFFFFFFFFFFFFFFFFFFFFFFFFFFFFFFFFF AND PUSH20 0xFFFFFFFFFFFFFFFFFFFFFFFFFFFFFFFFFFFFFFFF AND PUSH4 0x70A08231 PUSH1 0x1 PUSH1 0x2 DUP5 DUP2 SLOAD DUP2 LT PUSH2 0xC9C JUMPI PUSH2 0xC9B PUSH2 0x255C JUMP JUMPDEST JUMPDEST SWAP1 PUSH1 0x0 MSTORE PUSH1 0x20 PUSH1 0x0 KECCAK256 ADD PUSH1 0x40 MLOAD PUSH2 0xCB3 SWAP2 SWAP1 PUSH2 0x268B JUMP JUMPDEST SWAP1 DUP2 MSTORE PUSH1 0x20 ADD PUSH1 0x40 MLOAD DUP1 SWAP2 SUB SWAP1 KECCAK256 PUSH1 0x0 ADD PUSH1 0x0 SWAP1 SLOAD SWAP1 PUSH2 0x100 EXP SWAP1 DIV PUSH20 0xFFFFFFFFFFFFFFFFFFFFFFFFFFFFFFFFFFFFFFFF AND PUSH1 0x40 MLOAD DUP3 PUSH4 0xFFFFFFFF AND PUSH1 0xE0 SHL DUP2 MSTORE PUSH1 0x4 ADD PUSH2 0xD01 SWAP2 SWAP1 PUSH2 0x2541 JUMP JUMPDEST PUSH1 0x20 PUSH1 0x40 MLOAD DUP1 DUP4 SUB DUP2 DUP7 GAS STATICCALL ISZERO DUP1 ISZERO PUSH2 0xD1E JUMPI RETURNDATASIZE PUSH1 0x0 DUP1 RETURNDATACOPY RETURNDATASIZE PUSH1 0x0 REVERT JUMPDEST POP POP POP POP PUSH1 0x40 MLOAD RETURNDATASIZE PUSH1 0x1F NOT PUSH1 0x1F DUP3 ADD AND DUP3 ADD DUP1 PUSH1 0x40 MSTORE POP DUP2 ADD SWAP1 PUSH2 0xD42 SWAP2 SWAP1 PUSH2 0x2886 JUMP JUMPDEST DUP3 DUP3 DUP2 MLOAD DUP2 LT PUSH2 0xD55 JUMPI PUSH2 0xD54 PUSH2 0x255C JUMP JUMPDEST JUMPDEST PUSH1 0x20 MUL PUSH1 0x20 ADD ADD DUP2 DUP2 MSTORE POP POP DUP1 PUSH2 0xD6B SWAP1 PUSH2 0x26D1 JUMP JUMPDEST SWAP1 POP PUSH2 0xC3D JUMP JUMPDEST POP DUP1 SWAP2 POP POP SWAP1 JUMP JUMPDEST PUSH1 0x0 DUP2 PUSH1 0x0 PUSH20 0xFFFFFFFFFFFFFFFFFFFFFFFFFFFFFFFFFFFFFFFF AND PUSH1 0x1 DUP3 PUSH1 0x40 MLOAD PUSH2 0xDA5 SWAP2 SWAP1 PUSH2 0x27C8 JUMP JUMPDEST SWAP1 DUP2 MSTORE PUSH1 0x20 ADD PUSH1 0x40 MLOAD DUP1 SWAP2 SUB SWAP1 KECCAK256 PUSH1 0x0 ADD PUSH1 0x0 SWAP1 SLOAD SWAP1 PUSH2 0x100 EXP SWAP1 DIV PUSH20 0xFFFFFFFFFFFFFFFFFFFFFFFFFFFFFFFFFFFFFFFF AND PUSH20 0xFFFFFFFFFFFFFFFFFFFFFFFFFFFFFFFFFFFFFFFF AND EQ ISZERO PUSH2 0xE2E JUMPI PUSH1 0x40 MLOAD PUSH32 0x8C379A000000000000000000000000000000000000000000000000000000000 DUP2 MSTORE PUSH1 0x4 ADD PUSH2 0xE25 SWAP1 PUSH2 0x2851 JUMP JUMPDEST PUSH1 0x40 MLOAD DUP1 SWAP2 SUB SWAP1 REVERT JUMPDEST PUSH1 0x0 DUP1 SLOAD SWAP1 PUSH2 0x100 EXP SWAP1 DIV PUSH20 0xFFFFFFFFFFFFFFFFFFFFFFFFFFFFFFFFFFFFFFFF AND PUSH20 0xFFFFFFFFFFFFFFFFFFFFFFFFFFFFFFFFFFFFFFFF AND PUSH4 0x70A08231 PUSH1 0x1 DUP6 PUSH1 0x40 MLOAD PUSH2 0xE7A SWAP2 SWAP1 PUSH2 0x27C8 JUMP JUMPDEST SWAP1 DUP2 MSTORE PUSH1 0x20 ADD PUSH1 0x40 MLOAD DUP1 SWAP2 SUB SWAP1 KECCAK256 PUSH1 0x0 ADD PUSH1 0x0 SWAP1 SLOAD SWAP1 PUSH2 0x100 EXP SWAP1 DIV PUSH20 0xFFFFFFFFFFFFFFFFFFFFFFFFFFFFFFFFFFFFFFFF AND PUSH1 0x40 MLOAD DUP3 PUSH4 0xFFFFFFFF AND PUSH1 0xE0 SHL DUP2 MSTORE PUSH1 0x4 ADD PUSH2 0xEC8 SWAP2 SWAP1 PUSH2 0x2541 JUMP JUMPDEST PUSH1 0x20 PUSH1 0x40 MLOAD DUP1 DUP4 SUB DUP2 DUP7 GAS STATICCALL ISZERO DUP1 ISZERO PUSH2 0xEE5 JUMPI RETURNDATASIZE PUSH1 0x0 DUP1 RETURNDATACOPY RETURNDATASIZE PUSH1 0x0 REVERT JUMPDEST POP POP POP POP PUSH1 0x40 MLOAD RETURNDATASIZE PUSH1 0x1F NOT PUSH1 0x1F DUP3 ADD AND DUP3 ADD DUP1 PUSH1 0x40 MSTORE POP DUP2 ADD SWAP1 PUSH2 0xF09 SWAP2 SWAP1 PUSH2 0x2886 JUMP JUMPDEST SWAP2 POP POP SWAP2 SWAP1 POP JUMP JUMPDEST PUSH32 0x0 PUSH20 0xFFFFFFFFFFFFFFFFFFFFFFFFFFFFFFFFFFFFFFFF AND CALLER PUSH20 0xFFFFFFFFFFFFFFFFFFFFFFFFFFFFFFFFFFFFFFFF AND EQ PUSH2 0xF9F JUMPI PUSH1 0x40 MLOAD PUSH32 0x8C379A000000000000000000000000000000000000000000000000000000000 DUP2 MSTORE PUSH1 0x4 ADD PUSH2 0xF96 SWAP1 PUSH2 0x2777 JUMP JUMPDEST PUSH1 0x40 MLOAD DUP1 SWAP2 SUB SWAP1 REVERT JUMPDEST DUP1 PUSH1 0x3 PUSH1 0x0 DUP3 DUP3 SLOAD PUSH2 0xFB1 SWAP2 SWAP1 PUSH2 0x293F JUMP JUMPDEST SWAP3 POP POP DUP2 SWAP1 SSTORE POP POP JUMP JUMPDEST PUSH1 0x0 DUP1 PUSH1 0x0 SWAP1 SLOAD SWAP1 PUSH2 0x100 EXP SWAP1 DIV PUSH20 0xFFFFFFFFFFFFFFFFFFFFFFFFFFFFFFFFFFFFFFFF AND PUSH20 0xFFFFFFFFFFFFFFFFFFFFFFFFFFFFFFFFFFFFFFFF AND PUSH4 0x18160DDD PUSH1 0x40 MLOAD DUP2 PUSH4 0xFFFFFFFF AND PUSH1 0xE0 SHL DUP2 MSTORE PUSH1 0x4 ADD PUSH1 0x20 PUSH1 0x40 MLOAD DUP1 DUP4 SUB DUP2 DUP7 GAS STATICCALL ISZERO DUP1 ISZERO PUSH2 0x1029 JUMPI RETURNDATASIZE PUSH1 0x0 DUP1 RETURNDATACOPY RETURNDATASIZE PUSH1 0x0 REVERT JUMPDEST POP POP POP POP PUSH1 0x40 MLOAD RETURNDATASIZE PUSH1 0x1F NOT PUSH1 0x1F DUP3 ADD AND DUP3 ADD DUP1 PUSH1 0x40 MSTORE POP DUP2 ADD SWAP1 PUSH2 0x104D SWAP2 SWAP1 PUSH2 0x2886 JUMP JUMPDEST SWAP1 POP SWAP1 JUMP JUMPDEST PUSH1 0x60 DUP2 PUSH1 0x0 PUSH20 0xFFFFFFFFFFFFFFFFFFFFFFFFFFFFFFFFFFFFFFFF AND PUSH1 0x1 DUP3 PUSH1 0x40 MLOAD PUSH2 0x107D SWAP2 SWAP1 PUSH2 0x27C8 JUMP JUMPDEST SWAP1 DUP2 MSTORE PUSH1 0x20 ADD PUSH1 0x40 MLOAD DUP1 SWAP2 SUB SWAP1 KECCAK256 PUSH1 0x0 ADD PUSH1 0x0 SWAP1 SLOAD SWAP1 PUSH2 0x100 EXP SWAP1 DIV PUSH20 0xFFFFFFFFFFFFFFFFFFFFFFFFFFFFFFFFFFFFFFFF AND PUSH20 0xFFFFFFFFFFFFFFFFFFFFFFFFFFFFFFFFFFFFFFFF AND EQ ISZERO PUSH2 0x1106 JUMPI PUSH1 0x40 MLOAD PUSH32 0x8C379A000000000000000000000000000000000000000000000000000000000 DUP2 MSTORE PUSH1 0x4 ADD PUSH2 0x10FD SWAP1 PUSH2 0x2851 JUMP JUMPDEST PUSH1 0x40 MLOAD DUP1 SWAP2 SUB SWAP1 REVERT JUMPDEST PUSH1 0x1 DUP4 PUSH1 0x40 MLOAD PUSH2 0x1116 SWAP2 SWAP1 PUSH2 0x27C8 JUMP JUMPDEST SWAP1 DUP2 MSTORE PUSH1 0x20 ADD PUSH1 0x40 MLOAD DUP1 SWAP2 SUB SWAP1 KECCAK256 PUSH1 0x3 ADD DUP1 SLOAD DUP1 PUSH1 0x20 MUL PUSH1 0x20 ADD PUSH1 0x40 MLOAD SWAP1 DUP2 ADD PUSH1 0x40 MSTORE DUP1 SWAP3 SWAP2 SWAP1 DUP2 DUP2 MSTORE PUSH1 0x20 ADD PUSH1 0x0 SWAP1 JUMPDEST DUP3 DUP3 LT ISZERO PUSH2 0x11F3 JUMPI DUP4 DUP3 SWAP1 PUSH1 0x0 MSTORE PUSH1 0x20 PUSH1 0x0 KECCAK256 ADD DUP1 SLOAD PUSH2 0x1166 SWAP1 PUSH2 0x25BA JUMP JUMPDEST DUP1 PUSH1 0x1F ADD PUSH1 0x20 DUP1 SWAP2 DIV MUL PUSH1 0x20 ADD PUSH1 0x40 MLOAD SWAP1 DUP2 ADD PUSH1 0x40 MSTORE DUP1 SWAP3 SWAP2 SWAP1 DUP2 DUP2 MSTORE PUSH1 0x20 ADD DUP3 DUP1 SLOAD PUSH2 0x1192 SWAP1 PUSH2 0x25BA JUMP JUMPDEST DUP1 ISZERO PUSH2 0x11DF JUMPI DUP1 PUSH1 0x1F LT PUSH2 0x11B4 JUMPI PUSH2 0x100 DUP1 DUP4 SLOAD DIV MUL DUP4 MSTORE SWAP2 PUSH1 0x20 ADD SWAP2 PUSH2 0x11DF JUMP JUMPDEST DUP3 ADD SWAP2 SWAP1 PUSH1 0x0 MSTORE PUSH1 0x20 PUSH1 0x0 KECCAK256 SWAP1 JUMPDEST DUP2 SLOAD DUP2 MSTORE SWAP1 PUSH1 0x1 ADD SWAP1 PUSH1 0x20 ADD DUP1 DUP4 GT PUSH2 0x11C2 JUMPI DUP3 SWAP1 SUB PUSH1 0x1F AND DUP3 ADD SWAP2 JUMPDEST POP POP POP POP POP DUP2 MSTORE PUSH1 0x20 ADD SWAP1 PUSH1 0x1 ADD SWAP1 PUSH2 0x1147 JUMP JUMPDEST POP POP POP POP SWAP2 POP POP SWAP2 SWAP1 POP JUMP JUMPDEST DUP2 PUSH1 0x0 PUSH20 0xFFFFFFFFFFFFFFFFFFFFFFFFFFFFFFFFFFFFFFFF AND PUSH1 0x1 DUP3 PUSH1 0x40 MLOAD PUSH2 0x1228 SWAP2 SWAP1 PUSH2 0x27C8 JUMP JUMPDEST SWAP1 DUP2 MSTORE PUSH1 0x20 ADD PUSH1 0x40 MLOAD DUP1 SWAP2 SUB SWAP1 KECCAK256 PUSH1 0x0 ADD PUSH1 0x0 SWAP1 SLOAD SWAP1 PUSH2 0x100 EXP SWAP1 DIV PUSH20 0xFFFFFFFFFFFFFFFFFFFFFFFFFFFFFFFFFFFFFFFF AND PUSH20 0xFFFFFFFFFFFFFFFFFFFFFFFFFFFFFFFFFFFFFFFF AND EQ ISZERO PUSH2 0x12B1 JUMPI PUSH1 0x40 MLOAD PUSH32 0x8C379A000000000000000000000000000000000000000000000000000000000 DUP2 MSTORE PUSH1 0x4 ADD PUSH2 0x12A8 SWAP1 PUSH2 0x2851 JUMP JUMPDEST PUSH1 0x40 MLOAD DUP1 SWAP2 SUB SWAP1 REVERT JUMPDEST PUSH32 0x0 PUSH20 0xFFFFFFFFFFFFFFFFFFFFFFFFFFFFFFFFFFFFFFFF AND CALLER PUSH20 0xFFFFFFFFFFFFFFFFFFFFFFFFFFFFFFFFFFFFFFFF AND EQ PUSH2 0x133F JUMPI PUSH1 0x40 MLOAD PUSH32 0x8C379A000000000000000000000000000000000000000000000000000000000 DUP2 MSTORE PUSH1 0x4 ADD PUSH2 0x1336 SWAP1 PUSH2 0x2777 JUMP JUMPDEST PUSH1 0x40 MLOAD DUP1 SWAP2 SUB SWAP1 REVERT JUMPDEST PUSH1 0x0 PUSH1 0x1 DUP5 PUSH1 0x40 MLOAD PUSH2 0x1351 SWAP2 SWAP1 PUSH2 0x27C8 JUMP JUMPDEST SWAP1 DUP2 MSTORE PUSH1 0x20 ADD PUSH1 0x40 MLOAD DUP1 SWAP2 SUB SWAP1 KECCAK256 PUSH1 0x2 ADD DUP4 PUSH1 0x40 MLOAD PUSH2 0x1370 SWAP2 SWAP1 PUSH2 0x27C8 JUMP JUMPDEST SWAP1 DUP2 MSTORE PUSH1 0x20 ADD PUSH1 0x40 MLOAD DUP1 SWAP2 SUB SWAP1 KECCAK256 SLOAD SWAP1 POP PUSH1 0x0 DUP2 GT PUSH2 0x13C4 JUMPI PUSH1 0x40 MLOAD PUSH32 0x8C379A000000000000000000000000000000000000000000000000000000000 DUP2 MSTORE PUSH1 0x4 ADD PUSH2 0x13BB SWAP1 PUSH2 0x29E1 JUMP JUMPDEST PUSH1 0x40 MLOAD DUP1 SWAP2 SUB SWAP1 REVERT JUMPDEST PUSH1 0x0 PUSH1 0x1 DUP1 DUP7 PUSH1 0x40 MLOAD PUSH2 0x13D7 SWAP2 SWAP1 PUSH2 0x27C8 JUMP JUMPDEST SWAP1 DUP2 MSTORE PUSH1 0x20 ADD PUSH1 0x40 MLOAD DUP1 SWAP2 SUB SWAP1 KECCAK256 PUSH1 0x3 ADD DUP1 SLOAD SWAP1 POP PUSH2 0x13F6 SWAP2 SWAP1 PUSH2 0x28DC JUMP JUMPDEST SWAP1 POP PUSH1 0x0 PUSH1 0x1 DUP7 PUSH1 0x40 MLOAD PUSH2 0x140A SWAP2 SWAP1 PUSH2 0x27C8 JUMP JUMPDEST SWAP1 DUP2 MSTORE PUSH1 0x20 ADD PUSH1 0x40 MLOAD DUP1 SWAP2 SUB SWAP1 KECCAK256 PUSH1 0x3 ADD DUP3 DUP2 SLOAD DUP2 LT PUSH2 0x142D JUMPI PUSH2 0x142C PUSH2 0x255C JUMP JUMPDEST JUMPDEST SWAP1 PUSH1 0x0 MSTORE PUSH1 0x20 PUSH1 0x0 KECCAK256 ADD DUP1 SLOAD PUSH2 0x1442 SWAP1 PUSH2 0x25BA JUMP JUMPDEST DUP1 PUSH1 0x1F ADD PUSH1 0x20 DUP1 SWAP2 DIV MUL PUSH1 0x20 ADD PUSH1 0x40 MLOAD SWAP1 DUP2 ADD PUSH1 0x40 MSTORE DUP1 SWAP3 SWAP2 SWAP1 DUP2 DUP2 MSTORE PUSH1 0x20 ADD DUP3 DUP1 SLOAD PUSH2 0x146E SWAP1 PUSH2 0x25BA JUMP JUMPDEST DUP1 ISZERO PUSH2 0x14BB JUMPI DUP1 PUSH1 0x1F LT PUSH2 0x1490 JUMPI PUSH2 0x100 DUP1 DUP4 SLOAD DIV MUL DUP4 MSTORE SWAP2 PUSH1 0x20 ADD SWAP2 PUSH2 0x14BB JUMP JUMPDEST DUP3 ADD SWAP2 SWAP1 PUSH1 0x0 MSTORE PUSH1 0x20 PUSH1 0x0 KECCAK256 SWAP1 JUMPDEST DUP2 SLOAD DUP2 MSTORE SWAP1 PUSH1 0x1 ADD SWAP1 PUSH1 0x20 ADD DUP1 DUP4 GT PUSH2 0x149E JUMPI DUP3 SWAP1 SUB PUSH1 0x1F AND DUP3 ADD SWAP2 JUMPDEST POP POP POP POP POP SWAP1 POP DUP3 PUSH1 0x1 DUP8 PUSH1 0x40 MLOAD PUSH2 0x14D3 SWAP2 SWAP1 PUSH2 0x27C8 JUMP JUMPDEST SWAP1 DUP2 MSTORE PUSH1 0x20 ADD PUSH1 0x40 MLOAD DUP1 SWAP2 SUB SWAP1 KECCAK256 PUSH1 0x2 ADD DUP3 PUSH1 0x40 MLOAD PUSH2 0x14F2 SWAP2 SWAP1 PUSH2 0x27C8 JUMP JUMPDEST SWAP1 DUP2 MSTORE PUSH1 0x20 ADD PUSH1 0x40 MLOAD DUP1 SWAP2 SUB SWAP1 KECCAK256 DUP2 SWAP1 SSTORE POP PUSH1 0x0 PUSH1 0x1 DUP8 PUSH1 0x40 MLOAD PUSH2 0x1516 SWAP2 SWAP1 PUSH2 0x27C8 JUMP JUMPDEST SWAP1 DUP2 MSTORE PUSH1 0x20 ADD PUSH1 0x40 MLOAD DUP1 SWAP2 SUB SWAP1 KECCAK256 PUSH1 0x2 ADD DUP7 PUSH1 0x40 MLOAD PUSH2 0x1535 SWAP2 SWAP1 PUSH2 0x27C8 JUMP JUMPDEST SWAP1 DUP2 MSTORE PUSH1 0x20 ADD PUSH1 0x40 MLOAD DUP1 SWAP2 SUB SWAP1 KECCAK256 DUP2 SWAP1 SSTORE POP DUP1 PUSH1 0x1 DUP8 PUSH1 0x40 MLOAD PUSH2 0x1558 SWAP2 SWAP1 PUSH2 0x27C8 JUMP JUMPDEST SWAP1 DUP2 MSTORE PUSH1 0x20 ADD PUSH1 0x40 MLOAD DUP1 SWAP2 SUB SWAP1 KECCAK256 PUSH1 0x3 ADD PUSH1 0x1 DUP6 PUSH2 0x1576 SWAP2 SWAP1 PUSH2 0x28DC JUMP JUMPDEST DUP2 SLOAD DUP2 LT PUSH2 0x1587 JUMPI PUSH2 0x1586 PUSH2 0x255C JUMP JUMPDEST JUMPDEST SWAP1 PUSH1 0x0 MSTORE PUSH1 0x20 PUSH1 0x0 KECCAK256 ADD SWAP1 DUP1 MLOAD SWAP1 PUSH1 0x20 ADD SWAP1 PUSH2 0x15A4 SWAP3 SWAP2 SWAP1 PUSH2 0x1CD5 JUMP JUMPDEST POP PUSH1 0x1 DUP7 PUSH1 0x40 MLOAD PUSH2 0x15B5 SWAP2 SWAP1 PUSH2 0x27C8 JUMP JUMPDEST SWAP1 DUP2 MSTORE PUSH1 0x20 ADD PUSH1 0x40 MLOAD DUP1 SWAP2 SUB SWAP1 KECCAK256 PUSH1 0x3 ADD DUP1 SLOAD DUP1 PUSH2 0x15D6 JUMPI PUSH2 0x15D5 PUSH2 0x2910 JUMP JUMPDEST JUMPDEST PUSH1 0x1 SWAP1 SUB DUP2 DUP2 SWAP1 PUSH1 0x0 MSTORE PUSH1 0x20 PUSH1 0x0 KECCAK256 ADD PUSH1 0x0 PUSH2 0x15F2 SWAP2 SWAP1 PUSH2 0x1D5B JUMP JUMPDEST SWAP1 SSTORE PUSH1 0x0 DUP1 SLOAD SWAP1 PUSH2 0x100 EXP SWAP1 DIV PUSH20 0xFFFFFFFFFFFFFFFFFFFFFFFFFFFFFFFFFFFFFFFF AND PUSH20 0xFFFFFFFFFFFFFFFFFFFFFFFFFFFFFFFFFFFFFFFF AND PUSH4 0x9DC29FAC PUSH1 0x1 DUP9 PUSH1 0x40 MLOAD PUSH2 0x1640 SWAP2 SWAP1 PUSH2 0x27C8 JUMP JUMPDEST SWAP1 DUP2 MSTORE PUSH1 0x20 ADD PUSH1 0x40 MLOAD DUP1 SWAP2 SUB SWAP1 KECCAK256 PUSH1 0x0 ADD PUSH1 0x0 SWAP1 SLOAD SWAP1 PUSH2 0x100 EXP SWAP1 DIV PUSH20 0xFFFFFFFFFFFFFFFFFFFFFFFFFFFFFFFFFFFFFFFF AND PUSH1 0x1 PUSH1 0x40 MLOAD DUP4 PUSH4 0xFFFFFFFF AND PUSH1 0xE0 SHL DUP2 MSTORE PUSH1 0x4 ADD PUSH2 0x1691 SWAP3 SWAP2 SWAP1 PUSH2 0x2A46 JUMP JUMPDEST PUSH1 0x0 PUSH1 0x40 MLOAD DUP1 DUP4 SUB DUP2 PUSH1 0x0 DUP8 DUP1 EXTCODESIZE ISZERO DUP1 ISZERO PUSH2 0x16AB JUMPI PUSH1 0x0 DUP1 REVERT JUMPDEST POP GAS CALL ISZERO DUP1 ISZERO PUSH2 0x16BF JUMPI RETURNDATASIZE PUSH1 0x0 DUP1 RETURNDATACOPY RETURNDATASIZE PUSH1 0x0 REVERT JUMPDEST POP POP POP POP POP POP POP POP POP POP JUMP JUMPDEST DUP2 PUSH1 0x0 PUSH20 0xFFFFFFFFFFFFFFFFFFFFFFFFFFFFFFFFFFFFFFFF AND PUSH1 0x1 DUP3 PUSH1 0x40 MLOAD PUSH2 0x16F4 SWAP2 SWAP1 PUSH2 0x27C8 JUMP JUMPDEST SWAP1 DUP2 MSTORE PUSH1 0x20 ADD PUSH1 0x40 MLOAD DUP1 SWAP2 SUB SWAP1 KECCAK256 PUSH1 0x0 ADD PUSH1 0x0 SWAP1 SLOAD SWAP1 PUSH2 0x100 EXP SWAP1 DIV PUSH20 0xFFFFFFFFFFFFFFFFFFFFFFFFFFFFFFFFFFFFFFFF AND PUSH20 0xFFFFFFFFFFFFFFFFFFFFFFFFFFFFFFFFFFFFFFFF AND EQ ISZERO PUSH2 0x177D JUMPI PUSH1 0x40 MLOAD PUSH32 0x8C379A000000000000000000000000000000000000000000000000000000000 DUP2 MSTORE PUSH1 0x4 ADD PUSH2 0x1774 SWAP1 PUSH2 0x2851 JUMP JUMPDEST PUSH1 0x40 MLOAD DUP1 SWAP2 SUB SWAP1 REVERT JUMPDEST PUSH32 0x0 PUSH20 0xFFFFFFFFFFFFFFFFFFFFFFFFFFFFFFFFFFFFFFFF AND CALLER PUSH20 0xFFFFFFFFFFFFFFFFFFFFFFFFFFFFFFFFFFFFFFFF AND EQ PUSH2 0x180B JUMPI PUSH1 0x40 MLOAD PUSH32 0x8C379A000000000000000000000000000000000000000000000000000000000 DUP2 MSTORE PUSH1 0x4 ADD PUSH2 0x1802 SWAP1 PUSH2 0x2777 JUMP JUMPDEST PUSH1 0x40 MLOAD DUP1 SWAP2 SUB SWAP1 REVERT JUMPDEST PUSH1 0x1 DUP4 PUSH1 0x40 MLOAD PUSH2 0x181B SWAP2 SWAP1 PUSH2 0x27C8 JUMP JUMPDEST SWAP1 DUP2 MSTORE PUSH1 0x20 ADD PUSH1 0x40 MLOAD DUP1 SWAP2 SUB SWAP1 KECCAK256 PUSH1 0x3 ADD DUP3 SWAP1 DUP1 PUSH1 0x1 DUP2 SLOAD ADD DUP1 DUP3 SSTORE DUP1 SWAP2 POP POP PUSH1 0x1 SWAP1 SUB SWAP1 PUSH1 0x0 MSTORE PUSH1 0x20 PUSH1 0x0 KECCAK256 ADD PUSH1 0x0 SWAP1 SWAP2 SWAP1 SWAP2 SWAP1 SWAP2 POP SWAP1 DUP1 MLOAD SWAP1 PUSH1 0x20 ADD SWAP1 PUSH2 0x1865 SWAP3 SWAP2 SWAP1 PUSH2 0x1CD5 JUMP JUMPDEST POP PUSH1 0x1 DUP4 PUSH1 0x40 MLOAD PUSH2 0x1876 SWAP2 SWAP1 PUSH2 0x27C8 JUMP JUMPDEST SWAP1 DUP2 MSTORE PUSH1 0x20 ADD PUSH1 0x40 MLOAD DUP1 SWAP2 SUB SWAP1 KECCAK256 PUSH1 0x3 ADD DUP1 SLOAD SWAP1 POP PUSH1 0x1 DUP5 PUSH1 0x40 MLOAD PUSH2 0x189B SWAP2 SWAP1 PUSH2 0x27C8 JUMP JUMPDEST SWAP1 DUP2 MSTORE PUSH1 0x20 ADD PUSH1 0x40 MLOAD DUP1 SWAP2 SUB SWAP1 KECCAK256 PUSH1 0x2 ADD DUP4 PUSH1 0x40 MLOAD PUSH2 0x18BA SWAP2 SWAP1 PUSH2 0x27C8 JUMP JUMPDEST SWAP1 DUP2 MSTORE PUSH1 0x20 ADD PUSH1 0x40 MLOAD DUP1 SWAP2 SUB SWAP1 KECCAK256 DUP2 SWAP1 SSTORE POP PUSH1 0x0 DUP1 SLOAD SWAP1 PUSH2 0x100 EXP SWAP1 DIV PUSH20 0xFFFFFFFFFFFFFFFFFFFFFFFFFFFFFFFFFFFFFFFF AND PUSH20 0xFFFFFFFFFFFFFFFFFFFFFFFFFFFFFFFFFFFFFFFF AND PUSH4 0x40C10F19 PUSH1 0x1 DUP6 PUSH1 0x40 MLOAD PUSH2 0x1918 SWAP2 SWAP1 PUSH2 0x27C8 JUMP JUMPDEST SWAP1 DUP2 MSTORE PUSH1 0x20 ADD PUSH1 0x40 MLOAD DUP1 SWAP2 SUB SWAP1 KECCAK256 PUSH1 0x0 ADD PUSH1 0x0 SWAP1 SLOAD SWAP1 PUSH2 0x100 EXP SWAP1 DIV PUSH20 0xFFFFFFFFFFFFFFFFFFFFFFFFFFFFFFFFFFFFFFFF AND PUSH1 0x1 PUSH1 0x40 MLOAD DUP4 PUSH4 0xFFFFFFFF AND PUSH1 0xE0 SHL DUP2 MSTORE PUSH1 0x4 ADD PUSH2 0x1969 SWAP3 SWAP2 SWAP1 PUSH2 0x2A46 JUMP JUMPDEST PUSH1 0x0 PUSH1 0x40 MLOAD DUP1 DUP4 SUB DUP2 PUSH1 0x0 DUP8 DUP1 EXTCODESIZE ISZERO DUP1 ISZERO PUSH2 0x1983 JUMPI PUSH1 0x0 DUP1 REVERT JUMPDEST POP GAS CALL ISZERO DUP1 ISZERO PUSH2 0x1997 JUMPI RETURNDATASIZE PUSH1 0x0 DUP1 RETURNDATACOPY RETURNDATASIZE PUSH1 0x0 REVERT JUMPDEST POP POP POP POP POP POP POP JUMP JUMPDEST PUSH1 0x0 DUP2 PUSH1 0x0 PUSH20 0xFFFFFFFFFFFFFFFFFFFFFFFFFFFFFFFFFFFFFFFF AND PUSH1 0x1 DUP3 PUSH1 0x40 MLOAD PUSH2 0x19CB SWAP2 SWAP1 PUSH2 0x27C8 JUMP JUMPDEST SWAP1 DUP2 MSTORE PUSH1 0x20 ADD PUSH1 0x40 MLOAD DUP1 SWAP2 SUB SWAP1 KECCAK256 PUSH1 0x0 ADD PUSH1 0x0 SWAP1 SLOAD SWAP1 PUSH2 0x100 EXP SWAP1 DIV PUSH20 0xFFFFFFFFFFFFFFFFFFFFFFFFFFFFFFFFFFFFFFFF AND PUSH20 0xFFFFFFFFFFFFFFFFFFFFFFFFFFFFFFFFFFFFFFFF AND EQ ISZERO PUSH2 0x1A54 JUMPI PUSH1 0x40 MLOAD PUSH32 0x8C379A000000000000000000000000000000000000000000000000000000000 DUP2 MSTORE PUSH1 0x4 ADD PUSH2 0x1A4B SWAP1 PUSH2 0x2851 JUMP JUMPDEST PUSH1 0x40 MLOAD DUP1 SWAP2 SUB SWAP1 REVERT JUMPDEST PUSH1 0x1 DUP4 PUSH1 0x40 MLOAD PUSH2 0x1A64 SWAP2 SWAP1 PUSH2 0x27C8 JUMP JUMPDEST SWAP1 DUP2 MSTORE PUSH1 0x20 ADD PUSH1 0x40 MLOAD DUP1 SWAP2 SUB SWAP1 KECCAK256 PUSH1 0x0 ADD PUSH1 0x0 SWAP1 SLOAD SWAP1 PUSH2 0x100 EXP SWAP1 DIV PUSH20 0xFFFFFFFFFFFFFFFFFFFFFFFFFFFFFFFFFFFFFFFF AND SWAP2 POP POP SWAP2 SWAP1 POP JUMP JUMPDEST PUSH32 0x0 PUSH20 0xFFFFFFFFFFFFFFFFFFFFFFFFFFFFFFFFFFFFFFFF AND CALLER PUSH20 0xFFFFFFFFFFFFFFFFFFFFFFFFFFFFFFFFFFFFFFFF AND EQ PUSH2 0x1B2C JUMPI PUSH1 0x40 MLOAD PUSH32 0x8C379A000000000000000000000000000000000000000000000000000000000 DUP2 MSTORE PUSH1 0x4 ADD PUSH2 0x1B23 SWAP1 PUSH2 0x2777 JUMP JUMPDEST PUSH1 0x40 MLOAD DUP1 SWAP2 SUB SWAP1 REVERT JUMPDEST PUSH1 0x0 PUSH20 0xFFFFFFFFFFFFFFFFFFFFFFFFFFFFFFFFFFFFFFFF AND PUSH1 0x1 DUP3 PUSH1 0x40 MLOAD PUSH2 0x1B54 SWAP2 SWAP1 PUSH2 0x27C8 JUMP JUMPDEST SWAP1 DUP2 MSTORE PUSH1 0x20 ADD PUSH1 0x40 MLOAD DUP1 SWAP2 SUB SWAP1 KECCAK256 PUSH1 0x0 ADD PUSH1 0x0 SWAP1 SLOAD SWAP1 PUSH2 0x100 EXP SWAP1 DIV PUSH20 0xFFFFFFFFFFFFFFFFFFFFFFFFFFFFFFFFFFFFFFFF AND PUSH20 0xFFFFFFFFFFFFFFFFFFFFFFFFFFFFFFFFFFFFFFFF AND EQ PUSH2 0x1BDC JUMPI PUSH1 0x40 MLOAD PUSH32 0x8C379A000000000000000000000000000000000000000000000000000000000 DUP2 MSTORE PUSH1 0x4 ADD PUSH2 0x1BD3 SWAP1 PUSH2 0x2ABB JUMP JUMPDEST PUSH1 0x40 MLOAD DUP1 SWAP2 SUB SWAP1 REVERT JUMPDEST PUSH1 0x0 DUP2 PUSH1 0x40 MLOAD PUSH1 0x20 ADD PUSH2 0x1BEF SWAP2 SWAP1 PUSH2 0x27C8 JUMP JUMPDEST PUSH1 0x40 MLOAD PUSH1 0x20 DUP2 DUP4 SUB SUB DUP2 MSTORE SWAP1 PUSH1 0x40 MSTORE DUP1 MLOAD SWAP1 PUSH1 0x20 ADD KECCAK256 PUSH1 0x60 SHR SWAP1 POP DUP1 PUSH1 0x1 DUP4 PUSH1 0x40 MLOAD PUSH2 0x1C1B SWAP2 SWAP1 PUSH2 0x27C8 JUMP JUMPDEST SWAP1 DUP2 MSTORE PUSH1 0x20 ADD PUSH1 0x40 MLOAD DUP1 SWAP2 SUB SWAP1 KECCAK256 PUSH1 0x0 ADD PUSH1 0x0 PUSH2 0x100 EXP DUP2 SLOAD DUP2 PUSH20 0xFFFFFFFFFFFFFFFFFFFFFFFFFFFFFFFFFFFFFFFF MUL NOT AND SWAP1 DUP4 PUSH20 0xFFFFFFFFFFFFFFFFFFFFFFFFFFFFFFFFFFFFFFFF AND MUL OR SWAP1 SSTORE POP PUSH1 0x2 DUP1 SLOAD SWAP1 POP PUSH1 0x1 DUP4 PUSH1 0x40 MLOAD PUSH2 0x1C80 SWAP2 SWAP1 PUSH2 0x27C8 JUMP JUMPDEST SWAP1 DUP2 MSTORE PUSH1 0x20 ADD PUSH1 0x40 MLOAD DUP1 SWAP2 SUB SWAP1 KECCAK256 PUSH1 0x1 ADD DUP2 SWAP1 SSTORE POP PUSH1 0x2 DUP3 SWAP1 DUP1 PUSH1 0x1 DUP2 SLOAD ADD DUP1 DUP3 SSTORE DUP1 SWAP2 POP POP PUSH1 0x1 SWAP1 SUB SWAP1 PUSH1 0x0 MSTORE PUSH1 0x20 PUSH1 0x0 KECCAK256 ADD PUSH1 0x0 SWAP1 SWAP2 SWAP1 SWAP2 SWAP1 SWAP2 POP SWAP1 DUP1 MLOAD SWAP1 PUSH1 0x20 ADD SWAP1 PUSH2 0x1CD0 SWAP3 SWAP2 SWAP1 PUSH2 0x1CD5 JUMP JUMPDEST POP POP POP JUMP JUMPDEST DUP3 DUP1 SLOAD PUSH2 0x1CE1 SWAP1 PUSH2 0x25BA JUMP JUMPDEST SWAP1 PUSH1 0x0 MSTORE PUSH1 0x20 PUSH1 0x0 KECCAK256 SWAP1 PUSH1 0x1F ADD PUSH1 0x20 SWAP1 DIV DUP2 ADD SWAP3 DUP3 PUSH2 0x1D03 JUMPI PUSH1 0x0 DUP6 SSTORE PUSH2 0x1D4A JUMP JUMPDEST DUP3 PUSH1 0x1F LT PUSH2 0x1D1C JUMPI DUP1 MLOAD PUSH1 0xFF NOT AND DUP4 DUP1 ADD OR DUP6 SSTORE PUSH2 0x1D4A JUMP JUMPDEST DUP3 DUP1 ADD PUSH1 0x1 ADD DUP6 SSTORE DUP3 ISZERO PUSH2 0x1D4A JUMPI SWAP2 DUP3 ADD JUMPDEST DUP3 DUP2 GT ISZERO PUSH2 0x1D49 JUMPI DUP3 MLOAD DUP3 SSTORE SWAP2 PUSH1 0x20 ADD SWAP2 SWAP1 PUSH1 0x1 ADD SWAP1 PUSH2 0x1D2E JUMP JUMPDEST JUMPDEST POP SWAP1 POP PUSH2 0x1D57 SWAP2 SWAP1 PUSH2 0x1DBC JUMP JUMPDEST POP SWAP1 JUMP JUMPDEST POP DUP1 SLOAD PUSH2 0x1D67 SWAP1 PUSH2 0x25BA JUMP JUMPDEST PUSH1 0x0 DUP3 SSTORE DUP1 PUSH1 0x1F LT PUSH2 0x1D79 JUMPI POP PUSH2 0x1D98 JUMP JUMPDEST PUSH1 0x1F ADD PUSH1 0x20 SWAP1 DIV SWAP1 PUSH1 0x0 MSTORE PUSH1 0x20 PUSH1 0x0 KECCAK256 SWAP1 DUP2 ADD SWAP1 PUSH2 0x1D97 SWAP2 SWAP1 PUSH2 0x1DBC JUMP JUMPDEST JUMPDEST POP JUMP JUMPDEST POP DUP1 SLOAD PUSH1 0x0 DUP3 SSTORE SWAP1 PUSH1 0x0 MSTORE PUSH1 0x20 PUSH1 0x0 KECCAK256 SWAP1 DUP2 ADD SWAP1 PUSH2 0x1DB9 SWAP2 SWAP1 PUSH2 0x1DD9 JUMP JUMPDEST POP JUMP JUMPDEST JUMPDEST DUP1 DUP3 GT ISZERO PUSH2 0x1DD5 JUMPI PUSH1 0x0 DUP2 PUSH1 0x0 SWAP1 SSTORE POP PUSH1 0x1 ADD PUSH2 0x1DBD JUMP JUMPDEST POP SWAP1 JUMP JUMPDEST JUMPDEST DUP1 DUP3 GT ISZERO PUSH2 0x1DF9 JUMPI PUSH1 0x0 DUP2 DUP2 PUSH2 0x1DF0 SWAP2 SWAP1 PUSH2 0x1D5B JUMP JUMPDEST POP PUSH1 0x1 ADD PUSH2 0x1DDA JUMP JUMPDEST POP SWAP1 JUMP JUMPDEST PUSH1 0x0 DUP2 MLOAD SWAP1 POP SWAP2 SWAP1 POP JUMP JUMPDEST PUSH1 0x0 DUP3 DUP3 MSTORE PUSH1 0x20 DUP3 ADD SWAP1 POP SWAP3 SWAP2 POP POP JUMP JUMPDEST PUSH1 0x0 DUP2 SWAP1 POP PUSH1 0x20 DUP3 ADD SWAP1 POP SWAP2 SWAP1 POP JUMP JUMPDEST PUSH1 0x0 PUSH20 0xFFFFFFFFFFFFFFFFFFFFFFFFFFFFFFFFFFFFFFFF DUP3 AND SWAP1 POP SWAP2 SWAP1 POP JUMP JUMPDEST PUSH1 0x0 PUSH2 0x1E54 DUP3 PUSH2 0x1E29 JUMP JUMPDEST SWAP1 POP SWAP2 SWAP1 POP JUMP JUMPDEST PUSH2 0x1E64 DUP2 PUSH2 0x1E49 JUMP JUMPDEST DUP3 MSTORE POP POP JUMP JUMPDEST PUSH1 0x0 PUSH2 0x1E76 DUP4 DUP4 PUSH2 0x1E5B JUMP JUMPDEST PUSH1 0x20 DUP4 ADD SWAP1 POP SWAP3 SWAP2 POP POP JUMP JUMPDEST PUSH1 0x0 PUSH1 0x20 DUP3 ADD SWAP1 POP SWAP2 SWAP1 POP JUMP JUMPDEST PUSH1 0x0 PUSH2 0x1E9A DUP3 PUSH2 0x1DFD JUMP JUMPDEST PUSH2 0x1EA4 DUP2 DUP6 PUSH2 0x1E08 JUMP JUMPDEST SWAP4 POP PUSH2 0x1EAF DUP4 PUSH2 0x1E19 JUMP JUMPDEST DUP1 PUSH1 0x0 JUMPDEST DUP4 DUP2 LT ISZERO PUSH2 0x1EE0 JUMPI DUP2 MLOAD PUSH2 0x1EC7 DUP9 DUP3 PUSH2 0x1E6A JUMP JUMPDEST SWAP8 POP PUSH2 0x1ED2 DUP4 PUSH2 0x1E82 JUMP JUMPDEST SWAP3 POP POP PUSH1 0x1 DUP2 ADD SWAP1 POP PUSH2 0x1EB3 JUMP JUMPDEST POP DUP6 SWAP4 POP POP POP POP SWAP3 SWAP2 POP POP JUMP JUMPDEST PUSH1 0x0 PUSH1 0x20 DUP3 ADD SWAP1 POP DUP2 DUP2 SUB PUSH1 0x0 DUP4 ADD MSTORE PUSH2 0x1F07 DUP2 DUP5 PUSH2 0x1E8F JUMP JUMPDEST SWAP1 POP SWAP3 SWAP2 POP POP JUMP JUMPDEST PUSH1 0x0 PUSH1 0x40 MLOAD SWAP1 POP SWAP1 JUMP JUMPDEST PUSH1 0x0 DUP1 REVERT JUMPDEST PUSH1 0x0 DUP1 REVERT JUMPDEST PUSH1 0x0 DUP1 REVERT JUMPDEST PUSH1 0x0 PUSH1 0x1F NOT PUSH1 0x1F DUP4 ADD AND SWAP1 POP SWAP2 SWAP1 POP JUMP JUMPDEST PUSH32 0x4E487B7100000000000000000000000000000000000000000000000000000000 PUSH1 0x0 MSTORE PUSH1 0x41 PUSH1 0x4 MSTORE PUSH1 0x24 PUSH1 0x0 REVERT JUMPDEST PUSH2 0x1F71 DUP3 PUSH2 0x1F28 JUMP JUMPDEST DUP2 ADD DUP2 DUP2 LT PUSH8 0xFFFFFFFFFFFFFFFF DUP3 GT OR ISZERO PUSH2 0x1F90 JUMPI PUSH2 0x1F8F PUSH2 0x1F39 JUMP JUMPDEST JUMPDEST DUP1 PUSH1 0x40 MSTORE POP POP POP JUMP JUMPDEST PUSH1 0x0 PUSH2 0x1FA3 PUSH2 0x1F0F JUMP JUMPDEST SWAP1 POP PUSH2 0x1FAF DUP3 DUP3 PUSH2 0x1F68 JUMP JUMPDEST SWAP2 SWAP1 POP JUMP JUMPDEST PUSH1 0x0 PUSH8 0xFFFFFFFFFFFFFFFF DUP3 GT ISZERO PUSH2 0x1FCF JUMPI PUSH2 0x1FCE PUSH2 0x1F39 JUMP JUMPDEST JUMPDEST PUSH1 0x20 DUP3 MUL SWAP1 POP PUSH1 0x20 DUP2 ADD SWAP1 POP SWAP2 SWAP1 POP JUMP JUMPDEST PUSH1 0x0 DUP1 REVERT JUMPDEST PUSH1 0x0 DUP1 REVERT JUMPDEST PUSH1 0x0 PUSH8 0xFFFFFFFFFFFFFFFF DUP3 GT ISZERO PUSH2 0x2005 JUMPI PUSH2 0x2004 PUSH2 0x1F39 JUMP JUMPDEST JUMPDEST PUSH2 0x200E DUP3 PUSH2 0x1F28 JUMP JUMPDEST SWAP1 POP PUSH1 0x20 DUP2 ADD SWAP1 POP SWAP2 SWAP1 POP JUMP JUMPDEST DUP3 DUP2 DUP4 CALLDATACOPY PUSH1 0x0 DUP4 DUP4 ADD MSTORE POP POP POP JUMP JUMPDEST PUSH1 0x0 PUSH2 0x203D PUSH2 0x2038 DUP5 PUSH2 0x1FEA JUMP JUMPDEST PUSH2 0x1F99 JUMP JUMPDEST SWAP1 POP DUP3 DUP2 MSTORE PUSH1 0x20 DUP2 ADD DUP5 DUP5 DUP5 ADD GT ISZERO PUSH2 0x2059 JUMPI PUSH2 0x2058 PUSH2 0x1FE5 JUMP JUMPDEST JUMPDEST PUSH2 0x2064 DUP5 DUP3 DUP6 PUSH2 0x201B JUMP JUMPDEST POP SWAP4 SWAP3 POP POP POP JUMP JUMPDEST PUSH1 0x0 DUP3 PUSH1 0x1F DUP4 ADD SLT PUSH2 0x2081 JUMPI PUSH2 0x2080 PUSH2 0x1F23 JUMP JUMPDEST JUMPDEST DUP2 CALLDATALOAD PUSH2 0x2091 DUP5 DUP3 PUSH1 0x20 DUP7 ADD PUSH2 0x202A JUMP JUMPDEST SWAP2 POP POP SWAP3 SWAP2 POP POP JUMP JUMPDEST PUSH1 0x0 PUSH2 0x20AD PUSH2 0x20A8 DUP5 PUSH2 0x1FB4 JUMP JUMPDEST PUSH2 0x1F99 JUMP JUMPDEST SWAP1 POP DUP1 DUP4 DUP3 MSTORE PUSH1 0x20 DUP3 ADD SWAP1 POP PUSH1 0x20 DUP5 MUL DUP4 ADD DUP6 DUP2 GT ISZERO PUSH2 0x20D0 JUMPI PUSH2 0x20CF PUSH2 0x1FE0 JUMP JUMPDEST JUMPDEST DUP4 JUMPDEST DUP2 DUP2 LT ISZERO PUSH2 0x2117 JUMPI DUP1 CALLDATALOAD PUSH8 0xFFFFFFFFFFFFFFFF DUP2 GT ISZERO PUSH2 0x20F5 JUMPI PUSH2 0x20F4 PUSH2 0x1F23 JUMP JUMPDEST JUMPDEST DUP1 DUP7 ADD PUSH2 0x2102 DUP10 DUP3 PUSH2 0x206C JUMP JUMPDEST DUP6 MSTORE PUSH1 0x20 DUP6 ADD SWAP5 POP POP POP PUSH1 0x20 DUP2 ADD SWAP1 POP PUSH2 0x20D2 JUMP JUMPDEST POP POP POP SWAP4 SWAP3 POP POP POP JUMP JUMPDEST PUSH1 0x0 DUP3 PUSH1 0x1F DUP4 ADD SLT PUSH2 0x2136 JUMPI PUSH2 0x2135 PUSH2 0x1F23 JUMP JUMPDEST JUMPDEST DUP2 CALLDATALOAD PUSH2 0x2146 DUP5 DUP3 PUSH1 0x20 DUP7 ADD PUSH2 0x209A JUMP JUMPDEST SWAP2 POP POP SWAP3 SWAP2 POP POP JUMP JUMPDEST PUSH1 0x0 PUSH1 0x20 DUP3 DUP5 SUB SLT ISZERO PUSH2 0x2165 JUMPI PUSH2 0x2164 PUSH2 0x1F19 JUMP JUMPDEST JUMPDEST PUSH1 0x0 DUP3 ADD CALLDATALOAD PUSH8 0xFFFFFFFFFFFFFFFF DUP2 GT ISZERO PUSH2 0x2183 JUMPI PUSH2 0x2182 PUSH2 0x1F1E JUMP JUMPDEST JUMPDEST PUSH2 0x218F DUP5 DUP3 DUP6 ADD PUSH2 0x2121 JUMP JUMPDEST SWAP2 POP POP SWAP3 SWAP2 POP POP JUMP JUMPDEST PUSH1 0x0 DUP2 MLOAD SWAP1 POP SWAP2 SWAP1 POP JUMP JUMPDEST PUSH1 0x0 DUP3 DUP3 MSTORE PUSH1 0x20 DUP3 ADD SWAP1 POP SWAP3 SWAP2 POP POP JUMP JUMPDEST PUSH1 0x0 DUP2 SWAP1 POP PUSH1 0x20 DUP3 ADD SWAP1 POP SWAP2 SWAP1 POP JUMP JUMPDEST PUSH1 0x0 DUP2 MLOAD SWAP1 POP SWAP2 SWAP1 POP JUMP JUMPDEST PUSH1 0x0 DUP3 DUP3 MSTORE PUSH1 0x20 DUP3 ADD SWAP1 POP SWAP3 SWAP2 POP POP JUMP JUMPDEST PUSH1 0x0 JUMPDEST DUP4 DUP2 LT ISZERO PUSH2 0x21FE JUMPI DUP1 DUP3 ADD MLOAD DUP2 DUP5 ADD MSTORE PUSH1 0x20 DUP2 ADD SWAP1 POP PUSH2 0x21E3 JUMP JUMPDEST DUP4 DUP2 GT ISZERO PUSH2 0x220D JUMPI PUSH1 0x0 DUP5 DUP5 ADD MSTORE JUMPDEST POP POP POP POP JUMP JUMPDEST PUSH1 0x0 PUSH2 0x221E DUP3 PUSH2 0x21C4 JUMP JUMPDEST PUSH2 0x2228 DUP2 DUP6 PUSH2 0x21CF JUMP JUMPDEST SWAP4 POP PUSH2 0x2238 DUP2 DUP6 PUSH1 0x20 DUP7 ADD PUSH2 0x21E0 JUMP JUMPDEST PUSH2 0x2241 DUP2 PUSH2 0x1F28 JUMP JUMPDEST DUP5 ADD SWAP2 POP POP SWAP3 SWAP2 POP POP JUMP JUMPDEST PUSH1 0x0 PUSH2 0x2258 DUP4 DUP4 PUSH2 0x2213 JUMP JUMPDEST SWAP1 POP SWAP3 SWAP2 POP POP JUMP JUMPDEST PUSH1 0x0 PUSH1 0x20 DUP3 ADD SWAP1 POP SWAP2 SWAP1 POP JUMP JUMPDEST PUSH1 0x0 PUSH2 0x2278 DUP3 PUSH2 0x2198 JUMP JUMPDEST PUSH2 0x2282 DUP2 DUP6 PUSH2 0x21A3 JUMP JUMPDEST SWAP4 POP DUP4 PUSH1 0x20 DUP3 MUL DUP6 ADD PUSH2 0x2294 DUP6 PUSH2 0x21B4 JUMP JUMPDEST DUP1 PUSH1 0x0 JUMPDEST DUP6 DUP2 LT ISZERO PUSH2 0x22D0 JUMPI DUP5 DUP5 SUB DUP10 MSTORE DUP2 MLOAD PUSH2 0x22B1 DUP6 DUP3 PUSH2 0x224C JUMP JUMPDEST SWAP5 POP PUSH2 0x22BC DUP4 PUSH2 0x2260 JUMP JUMPDEST SWAP3 POP PUSH1 0x20 DUP11 ADD SWAP10 POP POP PUSH1 0x1 DUP2 ADD SWAP1 POP PUSH2 0x2298 JUMP JUMPDEST POP DUP3 SWAP8 POP DUP8 SWAP6 POP POP POP POP POP POP SWAP3 SWAP2 POP POP JUMP JUMPDEST PUSH1 0x0 PUSH1 0x20 DUP3 ADD SWAP1 POP DUP2 DUP2 SUB PUSH1 0x0 DUP4 ADD MSTORE PUSH2 0x22FC DUP2 DUP5 PUSH2 0x226D JUMP JUMPDEST SWAP1 POP SWAP3 SWAP2 POP POP JUMP JUMPDEST PUSH1 0x0 PUSH1 0x20 DUP3 DUP5 SUB SLT ISZERO PUSH2 0x231A JUMPI PUSH2 0x2319 PUSH2 0x1F19 JUMP JUMPDEST JUMPDEST PUSH1 0x0 DUP3 ADD CALLDATALOAD PUSH8 0xFFFFFFFFFFFFFFFF DUP2 GT ISZERO PUSH2 0x2338 JUMPI PUSH2 0x2337 PUSH2 0x1F1E JUMP JUMPDEST JUMPDEST PUSH2 0x2344 DUP5 DUP3 DUP6 ADD PUSH2 0x206C JUMP JUMPDEST SWAP2 POP POP SWAP3 SWAP2 POP POP JUMP JUMPDEST PUSH1 0x0 DUP2 SWAP1 POP SWAP2 SWAP1 POP JUMP JUMPDEST PUSH2 0x2360 DUP2 PUSH2 0x234D JUMP JUMPDEST DUP3 MSTORE POP POP JUMP JUMPDEST PUSH1 0x0 PUSH1 0x20 DUP3 ADD SWAP1 POP PUSH2 0x237B PUSH1 0x0 DUP4 ADD DUP5 PUSH2 0x2357 JUMP JUMPDEST SWAP3 SWAP2 POP POP JUMP JUMPDEST PUSH1 0x0 DUP2 MLOAD SWAP1 POP SWAP2 SWAP1 POP JUMP JUMPDEST PUSH1 0x0 DUP3 DUP3 MSTORE PUSH1 0x20 DUP3 ADD SWAP1 POP SWAP3 SWAP2 POP POP JUMP JUMPDEST PUSH1 0x0 DUP2 SWAP1 POP PUSH1 0x20 DUP3 ADD SWAP1 POP SWAP2 SWAP1 POP JUMP JUMPDEST PUSH2 0x23B6 DUP2 PUSH2 0x234D JUMP JUMPDEST DUP3 MSTORE POP POP JUMP JUMPDEST PUSH1 0x0 PUSH2 0x23C8 DUP4 DUP4 PUSH2 0x23AD JUMP JUMPDEST PUSH1 0x20 DUP4 ADD SWAP1 POP SWAP3 SWAP2 POP POP JUMP JUMPDEST PUSH1 0x0 PUSH1 0x20 DUP3 ADD SWAP1 POP SWAP2 SWAP1 POP JUMP JUMPDEST PUSH1 0x0 PUSH2 0x23EC DUP3 PUSH2 0x2381 JUMP JUMPDEST PUSH2 0x23F6 DUP2 DUP6 PUSH2 0x238C JUMP JUMPDEST SWAP4 POP PUSH2 0x2401 DUP4 PUSH2 0x239D JUMP JUMPDEST DUP1 PUSH1 0x0 JUMPDEST DUP4 DUP2 LT ISZERO PUSH2 0x2432 JUMPI DUP2 MLOAD PUSH2 0x2419 DUP9 DUP3 PUSH2 0x23BC JUMP JUMPDEST SWAP8 POP PUSH2 0x2424 DUP4 PUSH2 0x23D4 JUMP JUMPDEST SWAP3 POP POP PUSH1 0x1 DUP2 ADD SWAP1 POP PUSH2 0x2405 JUMP JUMPDEST POP DUP6 SWAP4 POP POP POP POP SWAP3 SWAP2 POP POP JUMP JUMPDEST PUSH1 0x0 PUSH1 0x20 DUP3 ADD SWAP1 POP DUP2 DUP2 SUB PUSH1 0x0 DUP4 ADD MSTORE PUSH2 0x2459 DUP2 DUP5 PUSH2 0x23E1 JUMP JUMPDEST SWAP1 POP SWAP3 SWAP2 POP POP JUMP JUMPDEST PUSH2 0x246A DUP2 PUSH2 0x234D JUMP JUMPDEST DUP2 EQ PUSH2 0x2475 JUMPI PUSH1 0x0 DUP1 REVERT JUMPDEST POP JUMP JUMPDEST PUSH1 0x0 DUP2 CALLDATALOAD SWAP1 POP PUSH2 0x2487 DUP2 PUSH2 0x2461 JUMP JUMPDEST SWAP3 SWAP2 POP POP JUMP JUMPDEST PUSH1 0x0 PUSH1 0x20 DUP3 DUP5 SUB SLT ISZERO PUSH2 0x24A3 JUMPI PUSH2 0x24A2 PUSH2 0x1F19 JUMP JUMPDEST JUMPDEST PUSH1 0x0 PUSH2 0x24B1 DUP5 DUP3 DUP6 ADD PUSH2 0x2478 JUMP JUMPDEST SWAP2 POP POP SWAP3 SWAP2 POP POP JUMP JUMPDEST PUSH1 0x0 DUP1 PUSH1 0x40 DUP4 DUP6 SUB SLT ISZERO PUSH2 0x24D1 JUMPI PUSH2 0x24D0 PUSH2 0x1F19 JUMP JUMPDEST JUMPDEST PUSH1 0x0 DUP4 ADD CALLDATALOAD PUSH8 0xFFFFFFFFFFFFFFFF DUP2 GT ISZERO PUSH2 0x24EF JUMPI PUSH2 0x24EE PUSH2 0x1F1E JUMP JUMPDEST JUMPDEST PUSH2 0x24FB DUP6 DUP3 DUP7 ADD PUSH2 0x206C JUMP JUMPDEST SWAP3 POP POP PUSH1 0x20 DUP4 ADD CALLDATALOAD PUSH8 0xFFFFFFFFFFFFFFFF DUP2 GT ISZERO PUSH2 0x251C JUMPI PUSH2 0x251B PUSH2 0x1F1E JUMP JUMPDEST JUMPDEST PUSH2 0x2528 DUP6 DUP3 DUP7 ADD PUSH2 0x206C JUMP JUMPDEST SWAP2 POP POP SWAP3 POP SWAP3 SWAP1 POP JUMP JUMPDEST PUSH2 0x253B DUP2 PUSH2 0x1E49 JUMP JUMPDEST DUP3 MSTORE POP POP JUMP JUMPDEST PUSH1 0x0 PUSH1 0x20 DUP3 ADD SWAP1 POP PUSH2 0x2556 PUSH1 0x0 DUP4 ADD DUP5 PUSH2 0x2532 JUMP JUMPDEST SWAP3 SWAP2 POP POP JUMP JUMPDEST PUSH32 0x4E487B7100000000000000000000000000000000000000000000000000000000 PUSH1 0x0 MSTORE PUSH1 0x32 PUSH1 0x4 MSTORE PUSH1 0x24 PUSH1 0x0 REVERT JUMPDEST PUSH32 0x4E487B7100000000000000000000000000000000000000000000000000000000 PUSH1 0x0 MSTORE PUSH1 0x22 PUSH1 0x4 MSTORE PUSH1 0x24 PUSH1 0x0 REVERT JUMPDEST PUSH1 0x0 PUSH1 0x2 DUP3 DIV SWAP1 POP PUSH1 0x1 DUP3 AND DUP1 PUSH2 0x25D2 JUMPI PUSH1 0x7F DUP3 AND SWAP2 POP JUMPDEST PUSH1 0x20 DUP3 LT DUP2 EQ ISZERO PUSH2 0x25E6 JUMPI PUSH2 0x25E5 PUSH2 0x258B JUMP JUMPDEST JUMPDEST POP SWAP2 SWAP1 POP JUMP JUMPDEST PUSH1 0x0 DUP2 SWAP1 POP SWAP3 SWAP2 POP POP JUMP JUMPDEST PUSH1 0x0 DUP2 SWAP1 POP DUP2 PUSH1 0x0 MSTORE PUSH1 0x20 PUSH1 0x0 KECCAK256 SWAP1 POP SWAP2 SWAP1 POP JUMP JUMPDEST PUSH1 0x0 DUP2 SLOAD PUSH2 0x2619 DUP2 PUSH2 0x25BA JUMP JUMPDEST PUSH2 0x2623 DUP2 DUP7 PUSH2 0x25EC JUMP JUMPDEST SWAP5 POP PUSH1 0x1 DUP3 AND PUSH1 0x0 DUP2 EQ PUSH2 0x263E JUMPI PUSH1 0x1 DUP2 EQ PUSH2 0x264F JUMPI PUSH2 0x2682 JUMP JUMPDEST PUSH1 0xFF NOT DUP4 AND DUP7 MSTORE DUP2 DUP7 ADD SWAP4 POP PUSH2 0x2682 JUMP JUMPDEST PUSH2 0x2658 DUP6 PUSH2 0x25F7 JUMP JUMPDEST PUSH1 0x0 JUMPDEST DUP4 DUP2 LT ISZERO PUSH2 0x267A JUMPI DUP2 SLOAD DUP2 DUP10 ADD MSTORE PUSH1 0x1 DUP3 ADD SWAP2 POP PUSH1 0x20 DUP2 ADD SWAP1 POP PUSH2 0x265B JUMP JUMPDEST DUP4 DUP9 ADD SWAP6 POP POP POP JUMPDEST POP POP POP SWAP3 SWAP2 POP POP JUMP JUMPDEST PUSH1 0x0 PUSH2 0x2697 DUP3 DUP5 PUSH2 0x260C JUMP JUMPDEST SWAP2 POP DUP2 SWAP1 POP SWAP3 SWAP2 POP POP JUMP JUMPDEST PUSH32 0x4E487B7100000000000000000000000000000000000000000000000000000000 PUSH1 0x0 MSTORE PUSH1 0x11 PUSH1 0x4 MSTORE PUSH1 0x24 PUSH1 0x0 REVERT JUMPDEST PUSH1 0x0 PUSH2 0x26DC DUP3 PUSH2 0x234D JUMP JUMPDEST SWAP2 POP PUSH32 0xFFFFFFFFFFFFFFFFFFFFFFFFFFFFFFFFFFFFFFFFFFFFFFFFFFFFFFFFFFFFFFFF DUP3 EQ ISZERO PUSH2 0x270F JUMPI PUSH2 0x270E PUSH2 0x26A2 JUMP JUMPDEST JUMPDEST PUSH1 0x1 DUP3 ADD SWAP1 POP SWAP2 SWAP1 POP JUMP JUMPDEST PUSH1 0x0 DUP3 DUP3 MSTORE PUSH1 0x20 DUP3 ADD SWAP1 POP SWAP3 SWAP2 POP POP JUMP JUMPDEST PUSH32 0x4E6F20616C6C6F77616E63657300000000000000000000000000000000000000 PUSH1 0x0 DUP3 ADD MSTORE POP JUMP JUMPDEST PUSH1 0x0 PUSH2 0x2761 PUSH1 0xD DUP4 PUSH2 0x271A JUMP JUMPDEST SWAP2 POP PUSH2 0x276C DUP3 PUSH2 0x272B JUMP JUMPDEST PUSH1 0x20 DUP3 ADD SWAP1 POP SWAP2 SWAP1 POP JUMP JUMPDEST PUSH1 0x0 PUSH1 0x20 DUP3 ADD SWAP1 POP DUP2 DUP2 SUB PUSH1 0x0 DUP4 ADD MSTORE PUSH2 0x2790 DUP2 PUSH2 0x2754 JUMP JUMPDEST SWAP1 POP SWAP2 SWAP1 POP JUMP JUMPDEST PUSH1 0x0 PUSH2 0x27A2 DUP3 PUSH2 0x21C4 JUMP JUMPDEST PUSH2 0x27AC DUP2 DUP6 PUSH2 0x25EC JUMP JUMPDEST SWAP4 POP PUSH2 0x27BC DUP2 DUP6 PUSH1 0x20 DUP7 ADD PUSH2 0x21E0 JUMP JUMPDEST DUP1 DUP5 ADD SWAP2 POP POP SWAP3 SWAP2 POP POP JUMP JUMPDEST PUSH1 0x0 PUSH2 0x27D4 DUP3 DUP5 PUSH2 0x2797 JUMP JUMPDEST SWAP2 POP DUP2 SWAP1 POP SWAP3 SWAP2 POP POP JUMP JUMPDEST PUSH32 0x4E6F742064657465637465642061732061207061727469636970616E7420696E PUSH1 0x0 DUP3 ADD MSTORE PUSH32 0x206F75722073797374656D000000000000000000000000000000000000000000 PUSH1 0x20 DUP3 ADD MSTORE POP JUMP JUMPDEST PUSH1 0x0 PUSH2 0x283B PUSH1 0x2B DUP4 PUSH2 0x271A JUMP JUMPDEST SWAP2 POP PUSH2 0x2846 DUP3 PUSH2 0x27DF JUMP JUMPDEST PUSH1 0x40 DUP3 ADD SWAP1 POP SWAP2 SWAP1 POP JUMP JUMPDEST PUSH1 0x0 PUSH1 0x20 DUP3 ADD SWAP1 POP DUP2 DUP2 SUB PUSH1 0x0 DUP4 ADD MSTORE PUSH2 0x286A DUP2 PUSH2 0x282E JUMP JUMPDEST SWAP1 POP SWAP2 SWAP1 POP JUMP JUMPDEST PUSH1 0x0 DUP2 MLOAD SWAP1 POP PUSH2 0x2880 DUP2 PUSH2 0x2461 JUMP JUMPDEST SWAP3 SWAP2 POP POP JUMP JUMPDEST PUSH1 0x0 PUSH1 0x20 DUP3 DUP5 SUB SLT ISZERO PUSH2 0x289C JUMPI PUSH2 0x289B PUSH2 0x1F19 JUMP JUMPDEST JUMPDEST PUSH1 0x0 PUSH2 0x28AA DUP5 DUP3 DUP6 ADD PUSH2 0x2871 JUMP JUMPDEST SWAP2 POP POP SWAP3 SWAP2 POP POP JUMP JUMPDEST PUSH1 0x0 PUSH1 0x40 DUP3 ADD SWAP1 POP PUSH2 0x28C8 PUSH1 0x0 DUP4 ADD DUP6 PUSH2 0x2532 JUMP JUMPDEST PUSH2 0x28D5 PUSH1 0x20 DUP4 ADD DUP5 PUSH2 0x2357 JUMP JUMPDEST SWAP4 SWAP3 POP POP POP JUMP JUMPDEST PUSH1 0x0 PUSH2 0x28E7 DUP3 PUSH2 0x234D JUMP JUMPDEST SWAP2 POP PUSH2 0x28F2 DUP4 PUSH2 0x234D JUMP JUMPDEST SWAP3 POP DUP3 DUP3 LT ISZERO PUSH2 0x2905 JUMPI PUSH2 0x2904 PUSH2 0x26A2 JUMP JUMPDEST JUMPDEST DUP3 DUP3 SUB SWAP1 POP SWAP3 SWAP2 POP POP JUMP JUMPDEST PUSH32 0x4E487B7100000000000000000000000000000000000000000000000000000000 PUSH1 0x0 MSTORE PUSH1 0x31 PUSH1 0x4 MSTORE PUSH1 0x24 PUSH1 0x0 REVERT JUMPDEST PUSH1 0x0 PUSH2 0x294A DUP3 PUSH2 0x234D JUMP JUMPDEST SWAP2 POP PUSH2 0x2955 DUP4 PUSH2 0x234D JUMP JUMPDEST SWAP3 POP DUP3 PUSH32 0xFFFFFFFFFFFFFFFFFFFFFFFFFFFFFFFFFFFFFFFFFFFFFFFFFFFFFFFFFFFFFFFF SUB DUP3 GT ISZERO PUSH2 0x298A JUMPI PUSH2 0x2989 PUSH2 0x26A2 JUMP JUMPDEST JUMPDEST DUP3 DUP3 ADD SWAP1 POP SWAP3 SWAP2 POP POP JUMP JUMPDEST PUSH32 0x5468697320636F6D706C61696E742069736E2774207265676973746572656400 PUSH1 0x0 DUP3 ADD MSTORE POP JUMP JUMPDEST PUSH1 0x0 PUSH2 0x29CB PUSH1 0x1F DUP4 PUSH2 0x271A JUMP JUMPDEST SWAP2 POP PUSH2 0x29D6 DUP3 PUSH2 0x2995 JUMP JUMPDEST PUSH1 0x20 DUP3 ADD SWAP1 POP SWAP2 SWAP1 POP JUMP JUMPDEST PUSH1 0x0 PUSH1 0x20 DUP3 ADD SWAP1 POP DUP2 DUP2 SUB PUSH1 0x0 DUP4 ADD MSTORE PUSH2 0x29FA DUP2 PUSH2 0x29BE JUMP JUMPDEST SWAP1 POP SWAP2 SWAP1 POP JUMP JUMPDEST PUSH1 0x0 DUP2 SWAP1 POP SWAP2 SWAP1 POP JUMP JUMPDEST PUSH1 0x0 DUP2 SWAP1 POP SWAP2 SWAP1 POP JUMP JUMPDEST PUSH1 0x0 PUSH2 0x2A30 PUSH2 0x2A2B PUSH2 0x2A26 DUP5 PUSH2 0x2A01 JUMP JUMPDEST PUSH2 0x2A0B JUMP JUMPDEST PUSH2 0x234D JUMP JUMPDEST SWAP1 POP SWAP2 SWAP1 POP JUMP JUMPDEST PUSH2 0x2A40 DUP2 PUSH2 0x2A15 JUMP JUMPDEST DUP3 MSTORE POP POP JUMP JUMPDEST PUSH1 0x0 PUSH1 0x40 DUP3 ADD SWAP1 POP PUSH2 0x2A5B PUSH1 0x0 DUP4 ADD DUP6 PUSH2 0x2532 JUMP JUMPDEST PUSH2 0x2A68 PUSH1 0x20 DUP4 ADD DUP5 PUSH2 0x2A37 JUMP JUMPDEST SWAP4 SWAP3 POP POP POP JUMP JUMPDEST PUSH32 0x436F6D70616E7920697320616C726561647920696E207468652073797374656D PUSH1 0x0 DUP3 ADD MSTORE POP JUMP JUMPDEST PUSH1 0x0 PUSH2 0x2AA5 PUSH1 0x20 DUP4 PUSH2 0x271A JUMP JUMPDEST SWAP2 POP PUSH2 0x2AB0 DUP3 PUSH2 0x2A6F JUMP JUMPDEST PUSH1 0x20 DUP3 ADD SWAP1 POP SWAP2 SWAP1 POP JUMP JUMPDEST PUSH1 0x0 PUSH1 0x20 DUP3 ADD SWAP1 POP DUP2 DUP2 SUB PUSH1 0x0 DUP4 ADD MSTORE PUSH2 0x2AD4 DUP2 PUSH2 0x2A98 JUMP JUMPDEST SWAP1 POP SWAP2 SWAP1 POP JUMP INVALID LOG2 PUSH5 0x6970667358 0x22 SLT KECCAK256 SWAP5 0xD5 0xD5 ORIGIN PUSH32 0x6611FB123E3C7F5E20E1B3EF8E10930F0D6899D13E04ADBD7A190864736F6C63 NUMBER STOP ADDMOD EXP STOP CALLER PUSH1 0xA0 PUSH1 0x40 MSTORE CALLVALUE DUP1 ISZERO PUSH3 0x11 JUMPI PUSH1 0x0 DUP1 REVERT JUMPDEST POP PUSH1 0x40 MLOAD PUSH3 0x1E94 CODESIZE SUB DUP1 PUSH3 0x1E94 DUP4 CODECOPY DUP2 DUP2 ADD PUSH1 0x40 MSTORE DUP2 ADD SWAP1 PUSH3 0x37 SWAP2 SWAP1 PUSH3 0x2F6 JUMP JUMPDEST DUP2 DUP2 DUP2 PUSH1 0x3 SWAP1 DUP1 MLOAD SWAP1 PUSH1 0x20 ADD SWAP1 PUSH3 0x51 SWAP3 SWAP2 SWAP1 PUSH3 0xA9 JUMP JUMPDEST POP DUP1 PUSH1 0x4 SWAP1 DUP1 MLOAD SWAP1 PUSH1 0x20 ADD SWAP1 PUSH3 0x6A SWAP3 SWAP2 SWAP1 PUSH3 0xA9 JUMP JUMPDEST POP POP POP CALLER PUSH20 0xFFFFFFFFFFFFFFFFFFFFFFFFFFFFFFFFFFFFFFFF AND PUSH1 0x80 DUP2 PUSH20 0xFFFFFFFFFFFFFFFFFFFFFFFFFFFFFFFFFFFFFFFF AND DUP2 MSTORE POP POP POP POP PUSH3 0x3E0 JUMP JUMPDEST DUP3 DUP1 SLOAD PUSH3 0xB7 SWAP1 PUSH3 0x3AA JUMP JUMPDEST SWAP1 PUSH1 0x0 MSTORE PUSH1 0x20 PUSH1 0x0 KECCAK256 SWAP1 PUSH1 0x1F ADD PUSH1 0x20 SWAP1 DIV DUP2 ADD SWAP3 DUP3 PUSH3 0xDB JUMPI PUSH1 0x0 DUP6 SSTORE PUSH3 0x127 JUMP JUMPDEST DUP3 PUSH1 0x1F LT PUSH3 0xF6 JUMPI DUP1 MLOAD PUSH1 0xFF NOT AND DUP4 DUP1 ADD OR DUP6 SSTORE PUSH3 0x127 JUMP JUMPDEST DUP3 DUP1 ADD PUSH1 0x1 ADD DUP6 SSTORE DUP3 ISZERO PUSH3 0x127 JUMPI SWAP2 DUP3 ADD JUMPDEST DUP3 DUP2 GT ISZERO PUSH3 0x126 JUMPI DUP3 MLOAD DUP3 SSTORE SWAP2 PUSH1 0x20 ADD SWAP2 SWAP1 PUSH1 0x1 ADD SWAP1 PUSH3 0x109 JUMP JUMPDEST JUMPDEST POP SWAP1 POP PUSH3 0x136 SWAP2 SWAP1 PUSH3 0x13A JUMP JUMPDEST POP SWAP1 JUMP JUMPDEST JUMPDEST DUP1 DUP3 GT ISZERO PUSH3 0x155 JUMPI PUSH1 0x0 DUP2 PUSH1 0x0 SWAP1 SSTORE POP PUSH1 0x1 ADD PUSH3 0x13B JUMP JUMPDEST POP SWAP1 JUMP JUMPDEST PUSH1 0x0 PUSH1 0x40 MLOAD SWAP1 POP SWAP1 JUMP JUMPDEST PUSH1 0x0 DUP1 REVERT JUMPDEST PUSH1 0x0 DUP1 REVERT JUMPDEST PUSH1 0x0 DUP1 REVERT JUMPDEST PUSH1 0x0 DUP1 REVERT JUMPDEST PUSH1 0x0 PUSH1 0x1F NOT PUSH1 0x1F DUP4 ADD AND SWAP1 POP SWAP2 SWAP1 POP JUMP JUMPDEST PUSH32 0x4E487B7100000000000000000000000000000000000000000000000000000000 PUSH1 0x0 MSTORE PUSH1 0x41 PUSH1 0x4 MSTORE PUSH1 0x24 PUSH1 0x0 REVERT JUMPDEST PUSH3 0x1C2 DUP3 PUSH3 0x177 JUMP JUMPDEST DUP2 ADD DUP2 DUP2 LT PUSH8 0xFFFFFFFFFFFFFFFF DUP3 GT OR ISZERO PUSH3 0x1E4 JUMPI PUSH3 0x1E3 PUSH3 0x188 JUMP JUMPDEST JUMPDEST DUP1 PUSH1 0x40 MSTORE POP POP POP JUMP JUMPDEST PUSH1 0x0 PUSH3 0x1F9 PUSH3 0x159 JUMP JUMPDEST SWAP1 POP PUSH3 0x207 DUP3 DUP3 PUSH3 0x1B7 JUMP JUMPDEST SWAP2 SWAP1 POP JUMP JUMPDEST PUSH1 0x0 PUSH8 0xFFFFFFFFFFFFFFFF DUP3 GT ISZERO PUSH3 0x22A JUMPI PUSH3 0x229 PUSH3 0x188 JUMP JUMPDEST JUMPDEST PUSH3 0x235 DUP3 PUSH3 0x177 JUMP JUMPDEST SWAP1 POP PUSH1 0x20 DUP2 ADD SWAP1 POP SWAP2 SWAP1 POP JUMP JUMPDEST PUSH1 0x0 JUMPDEST DUP4 DUP2 LT ISZERO PUSH3 0x262 JUMPI DUP1 DUP3 ADD MLOAD DUP2 DUP5 ADD MSTORE PUSH1 0x20 DUP2 ADD SWAP1 POP PUSH3 0x245 JUMP JUMPDEST DUP4 DUP2 GT ISZERO PUSH3 0x272 JUMPI PUSH1 0x0 DUP5 DUP5 ADD MSTORE JUMPDEST POP POP POP POP JUMP JUMPDEST PUSH1 0x0 PUSH3 0x28F PUSH3 0x289 DUP5 PUSH3 0x20C JUMP JUMPDEST PUSH3 0x1ED JUMP JUMPDEST SWAP1 POP DUP3 DUP2 MSTORE PUSH1 0x20 DUP2 ADD DUP5 DUP5 DUP5 ADD GT ISZERO PUSH3 0x2AE JUMPI PUSH3 0x2AD PUSH3 0x172 JUMP JUMPDEST JUMPDEST PUSH3 0x2BB DUP5 DUP3 DUP6 PUSH3 0x242 JUMP JUMPDEST POP SWAP4 SWAP3 POP POP POP JUMP JUMPDEST PUSH1 0x0 DUP3 PUSH1 0x1F DUP4 ADD SLT PUSH3 0x2DB JUMPI PUSH3 0x2DA PUSH3 0x16D JUMP JUMPDEST JUMPDEST DUP2 MLOAD PUSH3 0x2ED DUP5 DUP3 PUSH1 0x20 DUP7 ADD PUSH3 0x278 JUMP JUMPDEST SWAP2 POP POP SWAP3 SWAP2 POP POP JUMP JUMPDEST PUSH1 0x0 DUP1 PUSH1 0x40 DUP4 DUP6 SUB SLT ISZERO PUSH3 0x310 JUMPI PUSH3 0x30F PUSH3 0x163 JUMP JUMPDEST JUMPDEST PUSH1 0x0 DUP4 ADD MLOAD PUSH8 0xFFFFFFFFFFFFFFFF DUP2 GT ISZERO PUSH3 0x331 JUMPI PUSH3 0x330 PUSH3 0x168 JUMP JUMPDEST JUMPDEST PUSH3 0x33F DUP6 DUP3 DUP7 ADD PUSH3 0x2C3 JUMP JUMPDEST SWAP3 POP POP PUSH1 0x20 DUP4 ADD MLOAD PUSH8 0xFFFFFFFFFFFFFFFF DUP2 GT ISZERO PUSH3 0x363 JUMPI PUSH3 0x362 PUSH3 0x168 JUMP JUMPDEST JUMPDEST PUSH3 0x371 DUP6 DUP3 DUP7 ADD PUSH3 0x2C3 JUMP JUMPDEST SWAP2 POP POP SWAP3 POP SWAP3 SWAP1 POP JUMP JUMPDEST PUSH32 0x4E487B7100000000000000000000000000000000000000000000000000000000 PUSH1 0x0 MSTORE PUSH1 0x22 PUSH1 0x4 MSTORE PUSH1 0x24 PUSH1 0x0 REVERT JUMPDEST PUSH1 0x0 PUSH1 0x2 DUP3 DIV SWAP1 POP PUSH1 0x1 DUP3 AND DUP1 PUSH3 0x3C3 JUMPI PUSH1 0x7F DUP3 AND SWAP2 POP JUMPDEST PUSH1 0x20 DUP3 LT DUP2 EQ ISZERO PUSH3 0x3DA JUMPI PUSH3 0x3D9 PUSH3 0x37B JUMP JUMPDEST JUMPDEST POP SWAP2 SWAP1 POP JUMP JUMPDEST PUSH1 0x80 MLOAD PUSH2 0x1A83 PUSH3 0x411 PUSH1 0x0 CODECOPY PUSH1 0x0 DUP2 DUP2 PUSH2 0x397 ADD MSTORE DUP2 DUP2 PUSH2 0x493 ADD MSTORE DUP2 DUP2 PUSH2 0x609 ADD MSTORE PUSH2 0x71E ADD MSTORE PUSH2 0x1A83 PUSH1 0x0 RETURN INVALID PUSH1 0x80 PUSH1 0x40 MSTORE CALLVALUE DUP1 ISZERO PUSH2 0x10 JUMPI PUSH1 0x0 DUP1 REVERT JUMPDEST POP PUSH1 0x4 CALLDATASIZE LT PUSH2 0xCF JUMPI PUSH1 0x0 CALLDATALOAD PUSH1 0xE0 SHR DUP1 PUSH4 0x40C10F19 GT PUSH2 0x8C JUMPI DUP1 PUSH4 0x9DC29FAC GT PUSH2 0x66 JUMPI DUP1 PUSH4 0x9DC29FAC EQ PUSH2 0x228 JUMPI DUP1 PUSH4 0xA457C2D7 EQ PUSH2 0x244 JUMPI DUP1 PUSH4 0xA9059CBB EQ PUSH2 0x274 JUMPI DUP1 PUSH4 0xDD62ED3E EQ PUSH2 0x2A4 JUMPI PUSH2 0xCF JUMP JUMPDEST DUP1 PUSH4 0x40C10F19 EQ PUSH2 0x1BE JUMPI DUP1 PUSH4 0x70A08231 EQ PUSH2 0x1DA JUMPI DUP1 PUSH4 0x95D89B41 EQ PUSH2 0x20A JUMPI PUSH2 0xCF JUMP JUMPDEST DUP1 PUSH4 0x6FDDE03 EQ PUSH2 0xD4 JUMPI DUP1 PUSH4 0x95EA7B3 EQ PUSH2 0xF2 JUMPI DUP1 PUSH4 0x18160DDD EQ PUSH2 0x122 JUMPI DUP1 PUSH4 0x23B872DD EQ PUSH2 0x140 JUMPI DUP1 PUSH4 0x313CE567 EQ PUSH2 0x170 JUMPI DUP1 PUSH4 0x39509351 EQ PUSH2 0x18E JUMPI JUMPDEST PUSH1 0x0 DUP1 REVERT JUMPDEST PUSH2 0xDC PUSH2 0x2D4 JUMP JUMPDEST PUSH1 0x40 MLOAD PUSH2 0xE9 SWAP2 SWAP1 PUSH2 0x110D JUMP JUMPDEST PUSH1 0x40 MLOAD DUP1 SWAP2 SUB SWAP1 RETURN JUMPDEST PUSH2 0x10C PUSH1 0x4 DUP1 CALLDATASIZE SUB DUP2 ADD SWAP1 PUSH2 0x107 SWAP2 SWAP1 PUSH2 0x11C8 JUMP JUMPDEST PUSH2 0x366 JUMP JUMPDEST PUSH1 0x40 MLOAD PUSH2 0x119 SWAP2 SWAP1 PUSH2 0x1223 JUMP JUMPDEST PUSH1 0x40 MLOAD DUP1 SWAP2 SUB SWAP1 RETURN JUMPDEST PUSH2 0x12A PUSH2 0x389 JUMP JUMPDEST PUSH1 0x40 MLOAD PUSH2 0x137 SWAP2 SWAP1 PUSH2 0x124D JUMP JUMPDEST PUSH1 0x40 MLOAD DUP1 SWAP2 SUB SWAP1 RETURN JUMPDEST PUSH2 0x15A PUSH1 0x4 DUP1 CALLDATASIZE SUB DUP2 ADD SWAP1 PUSH2 0x155 SWAP2 SWAP1 PUSH2 0x1268 JUMP JUMPDEST PUSH2 0x393 JUMP JUMPDEST PUSH1 0x40 MLOAD PUSH2 0x167 SWAP2 SWAP1 PUSH2 0x1223 JUMP JUMPDEST PUSH1 0x40 MLOAD DUP1 SWAP2 SUB SWAP1 RETURN JUMPDEST PUSH2 0x178 PUSH2 0x451 JUMP JUMPDEST PUSH1 0x40 MLOAD PUSH2 0x185 SWAP2 SWAP1 PUSH2 0x12D7 JUMP JUMPDEST PUSH1 0x40 MLOAD DUP1 SWAP2 SUB SWAP1 RETURN JUMPDEST PUSH2 0x1A8 PUSH1 0x4 DUP1 CALLDATASIZE SUB DUP2 ADD SWAP1 PUSH2 0x1A3 SWAP2 SWAP1 PUSH2 0x11C8 JUMP JUMPDEST PUSH2 0x45A JUMP JUMPDEST PUSH1 0x40 MLOAD PUSH2 0x1B5 SWAP2 SWAP1 PUSH2 0x1223 JUMP JUMPDEST PUSH1 0x40 MLOAD DUP1 SWAP2 SUB SWAP1 RETURN JUMPDEST PUSH2 0x1D8 PUSH1 0x4 DUP1 CALLDATASIZE SUB DUP2 ADD SWAP1 PUSH2 0x1D3 SWAP2 SWAP1 PUSH2 0x11C8 JUMP JUMPDEST PUSH2 0x491 JUMP JUMPDEST STOP JUMPDEST PUSH2 0x1F4 PUSH1 0x4 DUP1 CALLDATASIZE SUB DUP2 ADD SWAP1 PUSH2 0x1EF SWAP2 SWAP1 PUSH2 0x12F2 JUMP JUMPDEST PUSH2 0x52D JUMP JUMPDEST PUSH1 0x40 MLOAD PUSH2 0x201 SWAP2 SWAP1 PUSH2 0x124D JUMP JUMPDEST PUSH1 0x40 MLOAD DUP1 SWAP2 SUB SWAP1 RETURN JUMPDEST PUSH2 0x212 PUSH2 0x575 JUMP JUMPDEST PUSH1 0x40 MLOAD PUSH2 0x21F SWAP2 SWAP1 PUSH2 0x110D JUMP JUMPDEST PUSH1 0x40 MLOAD DUP1 SWAP2 SUB SWAP1 RETURN JUMPDEST PUSH2 0x242 PUSH1 0x4 DUP1 CALLDATASIZE SUB DUP2 ADD SWAP1 PUSH2 0x23D SWAP2 SWAP1 PUSH2 0x11C8 JUMP JUMPDEST PUSH2 0x607 JUMP JUMPDEST STOP JUMPDEST PUSH2 0x25E PUSH1 0x4 DUP1 CALLDATASIZE SUB DUP2 ADD SWAP1 PUSH2 0x259 SWAP2 SWAP1 PUSH2 0x11C8 JUMP JUMPDEST PUSH2 0x6A3 JUMP JUMPDEST PUSH1 0x40 MLOAD PUSH2 0x26B SWAP2 SWAP1 PUSH2 0x1223 JUMP JUMPDEST PUSH1 0x40 MLOAD DUP1 SWAP2 SUB SWAP1 RETURN JUMPDEST PUSH2 0x28E PUSH1 0x4 DUP1 CALLDATASIZE SUB DUP2 ADD SWAP1 PUSH2 0x289 SWAP2 SWAP1 PUSH2 0x11C8 JUMP JUMPDEST PUSH2 0x71A JUMP JUMPDEST PUSH1 0x40 MLOAD PUSH2 0x29B SWAP2 SWAP1 PUSH2 0x1223 JUMP JUMPDEST PUSH1 0x40 MLOAD DUP1 SWAP2 SUB SWAP1 RETURN JUMPDEST PUSH2 0x2BE PUSH1 0x4 DUP1 CALLDATASIZE SUB DUP2 ADD SWAP1 PUSH2 0x2B9 SWAP2 SWAP1 PUSH2 0x131F JUMP JUMPDEST PUSH2 0x7CC JUMP JUMPDEST PUSH1 0x40 MLOAD PUSH2 0x2CB SWAP2 SWAP1 PUSH2 0x124D JUMP JUMPDEST PUSH1 0x40 MLOAD DUP1 SWAP2 SUB SWAP1 RETURN JUMPDEST PUSH1 0x60 PUSH1 0x3 DUP1 SLOAD PUSH2 0x2E3 SWAP1 PUSH2 0x138E JUMP JUMPDEST DUP1 PUSH1 0x1F ADD PUSH1 0x20 DUP1 SWAP2 DIV MUL PUSH1 0x20 ADD PUSH1 0x40 MLOAD SWAP1 DUP2 ADD PUSH1 0x40 MSTORE DUP1 SWAP3 SWAP2 SWAP1 DUP2 DUP2 MSTORE PUSH1 0x20 ADD DUP3 DUP1 SLOAD PUSH2 0x30F SWAP1 PUSH2 0x138E JUMP JUMPDEST DUP1 ISZERO PUSH2 0x35C JUMPI DUP1 PUSH1 0x1F LT PUSH2 0x331 JUMPI PUSH2 0x100 DUP1 DUP4 SLOAD DIV MUL DUP4 MSTORE SWAP2 PUSH1 0x20 ADD SWAP2 PUSH2 0x35C JUMP JUMPDEST DUP3 ADD SWAP2 SWAP1 PUSH1 0x0 MSTORE PUSH1 0x20 PUSH1 0x0 KECCAK256 SWAP1 JUMPDEST DUP2 SLOAD DUP2 MSTORE SWAP1 PUSH1 0x1 ADD SWAP1 PUSH1 0x20 ADD DUP1 DUP4 GT PUSH2 0x33F JUMPI DUP3 SWAP1 SUB PUSH1 0x1F AND DUP3 ADD SWAP2 JUMPDEST POP POP POP POP POP SWAP1 POP SWAP1 JUMP JUMPDEST PUSH1 0x0 DUP1 PUSH2 0x371 PUSH2 0x853 JUMP JUMPDEST SWAP1 POP PUSH2 0x37E DUP2 DUP6 DUP6 PUSH2 0x85B JUMP JUMPDEST PUSH1 0x1 SWAP2 POP POP SWAP3 SWAP2 POP POP JUMP JUMPDEST PUSH1 0x0 PUSH1 0x2 SLOAD SWAP1 POP SWAP1 JUMP JUMPDEST PUSH1 0x0 PUSH32 0x0 PUSH20 0xFFFFFFFFFFFFFFFFFFFFFFFFFFFFFFFFFFFFFFFF AND CALLER PUSH20 0xFFFFFFFFFFFFFFFFFFFFFFFFFFFFFFFFFFFFFFFF AND EQ PUSH2 0x423 JUMPI PUSH1 0x40 MLOAD PUSH32 0x8C379A000000000000000000000000000000000000000000000000000000000 DUP2 MSTORE PUSH1 0x4 ADD PUSH2 0x41A SWAP1 PUSH2 0x140C JUMP JUMPDEST PUSH1 0x40 MLOAD DUP1 SWAP2 SUB SWAP1 REVERT JUMPDEST PUSH1 0x0 PUSH2 0x42D PUSH2 0x853 JUMP JUMPDEST SWAP1 POP PUSH2 0x43A DUP6 DUP3 DUP6 PUSH2 0xA26 JUMP JUMPDEST PUSH2 0x445 DUP6 DUP6 DUP6 PUSH2 0xAB2 JUMP JUMPDEST PUSH1 0x1 SWAP2 POP POP SWAP4 SWAP3 POP POP POP JUMP JUMPDEST PUSH1 0x0 PUSH1 0x12 SWAP1 POP SWAP1 JUMP JUMPDEST PUSH1 0x0 DUP1 PUSH2 0x465 PUSH2 0x853 JUMP JUMPDEST SWAP1 POP PUSH2 0x486 DUP2 DUP6 DUP6 PUSH2 0x477 DUP6 DUP10 PUSH2 0x7CC JUMP JUMPDEST PUSH2 0x481 SWAP2 SWAP1 PUSH2 0x145B JUMP JUMPDEST PUSH2 0x85B JUMP JUMPDEST PUSH1 0x1 SWAP2 POP POP SWAP3 SWAP2 POP POP JUMP JUMPDEST PUSH32 0x0 PUSH20 0xFFFFFFFFFFFFFFFFFFFFFFFFFFFFFFFFFFFFFFFF AND CALLER PUSH20 0xFFFFFFFFFFFFFFFFFFFFFFFFFFFFFFFFFFFFFFFF AND EQ PUSH2 0x51F JUMPI PUSH1 0x40 MLOAD PUSH32 0x8C379A000000000000000000000000000000000000000000000000000000000 DUP2 MSTORE PUSH1 0x4 ADD PUSH2 0x516 SWAP1 PUSH2 0x140C JUMP JUMPDEST PUSH1 0x40 MLOAD DUP1 SWAP2 SUB SWAP1 REVERT JUMPDEST PUSH2 0x529 DUP3 DUP3 PUSH2 0xD33 JUMP JUMPDEST POP POP JUMP JUMPDEST PUSH1 0x0 DUP1 PUSH1 0x0 DUP4 PUSH20 0xFFFFFFFFFFFFFFFFFFFFFFFFFFFFFFFFFFFFFFFF AND PUSH20 0xFFFFFFFFFFFFFFFFFFFFFFFFFFFFFFFFFFFFFFFF AND DUP2 MSTORE PUSH1 0x20 ADD SWAP1 DUP2 MSTORE PUSH1 0x20 ADD PUSH1 0x0 KECCAK256 SLOAD SWAP1 POP SWAP2 SWAP1 POP JUMP JUMPDEST PUSH1 0x60 PUSH1 0x4 DUP1 SLOAD PUSH2 0x584 SWAP1 PUSH2 0x138E JUMP JUMPDEST DUP1 PUSH1 0x1F ADD PUSH1 0x20 DUP1 SWAP2 DIV MUL PUSH1 0x20 ADD PUSH1 0x40 MLOAD SWAP1 DUP2 ADD PUSH1 0x40 MSTORE DUP1 SWAP3 SWAP2 SWAP1 DUP2 DUP2 MSTORE PUSH1 0x20 ADD DUP3 DUP1 SLOAD PUSH2 0x5B0 SWAP1 PUSH2 0x138E JUMP JUMPDEST DUP1 ISZERO PUSH2 0x5FD JUMPI DUP1 PUSH1 0x1F LT PUSH2 0x5D2 JUMPI PUSH2 0x100 DUP1 DUP4 SLOAD DIV MUL DUP4 MSTORE SWAP2 PUSH1 0x20 ADD SWAP2 PUSH2 0x5FD JUMP JUMPDEST DUP3 ADD SWAP2 SWAP1 PUSH1 0x0 MSTORE PUSH1 0x20 PUSH1 0x0 KECCAK256 SWAP1 JUMPDEST DUP2 SLOAD DUP2 MSTORE SWAP1 PUSH1 0x1 ADD SWAP1 PUSH1 0x20 ADD DUP1 DUP4 GT PUSH2 0x5E0 JUMPI DUP3 SWAP1 SUB PUSH1 0x1F AND DUP3 ADD SWAP2 JUMPDEST POP POP POP POP POP SWAP1 POP SWAP1 JUMP JUMPDEST PUSH32 0x0 PUSH20 0xFFFFFFFFFFFFFFFFFFFFFFFFFFFFFFFFFFFFFFFF AND CALLER PUSH20 0xFFFFFFFFFFFFFFFFFFFFFFFFFFFFFFFFFFFFFFFF AND EQ PUSH2 0x695 JUMPI PUSH1 0x40 MLOAD PUSH32 0x8C379A000000000000000000000000000000000000000000000000000000000 DUP2 MSTORE PUSH1 0x4 ADD PUSH2 0x68C SWAP1 PUSH2 0x140C JUMP JUMPDEST PUSH1 0x40 MLOAD DUP1 SWAP2 SUB SWAP1 REVERT JUMPDEST PUSH2 0x69F DUP3 DUP3 PUSH2 0xE93 JUMP JUMPDEST POP POP JUMP JUMPDEST PUSH1 0x0 DUP1 PUSH2 0x6AE PUSH2 0x853 JUMP JUMPDEST SWAP1 POP PUSH1 0x0 PUSH2 0x6BC DUP3 DUP7 PUSH2 0x7CC JUMP JUMPDEST SWAP1 POP DUP4 DUP2 LT ISZERO PUSH2 0x701 JUMPI PUSH1 0x40 MLOAD PUSH32 0x8C379A000000000000000000000000000000000000000000000000000000000 DUP2 MSTORE PUSH1 0x4 ADD PUSH2 0x6F8 SWAP1 PUSH2 0x1523 JUMP JUMPDEST PUSH1 0x40 MLOAD DUP1 SWAP2 SUB SWAP1 REVERT JUMPDEST PUSH2 0x70E DUP3 DUP7 DUP7 DUP5 SUB PUSH2 0x85B JUMP JUMPDEST PUSH1 0x1 SWAP3 POP POP POP SWAP3 SWAP2 POP POP JUMP JUMPDEST PUSH1 0x0 PUSH32 0x0 PUSH20 0xFFFFFFFFFFFFFFFFFFFFFFFFFFFFFFFFFFFFFFFF AND CALLER PUSH20 0xFFFFFFFFFFFFFFFFFFFFFFFFFFFFFFFFFFFFFFFF AND EQ PUSH2 0x7AA JUMPI PUSH1 0x40 MLOAD PUSH32 0x8C379A000000000000000000000000000000000000000000000000000000000 DUP2 MSTORE PUSH1 0x4 ADD PUSH2 0x7A1 SWAP1 PUSH2 0x140C JUMP JUMPDEST PUSH1 0x40 MLOAD DUP1 SWAP2 SUB SWAP1 REVERT JUMPDEST PUSH1 0x0 PUSH2 0x7B4 PUSH2 0x853 JUMP JUMPDEST SWAP1 POP PUSH2 0x7C1 DUP2 DUP6 DUP6 PUSH2 0xAB2 JUMP JUMPDEST PUSH1 0x1 SWAP2 POP POP SWAP3 SWAP2 POP POP JUMP JUMPDEST PUSH1 0x0 PUSH1 0x1 PUSH1 0x0 DUP5 PUSH20 0xFFFFFFFFFFFFFFFFFFFFFFFFFFFFFFFFFFFFFFFF AND PUSH20 0xFFFFFFFFFFFFFFFFFFFFFFFFFFFFFFFFFFFFFFFF AND DUP2 MSTORE PUSH1 0x20 ADD SWAP1 DUP2 MSTORE PUSH1 0x20 ADD PUSH1 0x0 KECCAK256 PUSH1 0x0 DUP4 PUSH20 0xFFFFFFFFFFFFFFFFFFFFFFFFFFFFFFFFFFFFFFFF AND PUSH20 0xFFFFFFFFFFFFFFFFFFFFFFFFFFFFFFFFFFFFFFFF AND DUP2 MSTORE PUSH1 0x20 ADD SWAP1 DUP2 MSTORE PUSH1 0x20 ADD PUSH1 0x0 KECCAK256 SLOAD SWAP1 POP SWAP3 SWAP2 POP POP JUMP JUMPDEST PUSH1 0x0 CALLER SWAP1 POP SWAP1 JUMP JUMPDEST PUSH1 0x0 PUSH20 0xFFFFFFFFFFFFFFFFFFFFFFFFFFFFFFFFFFFFFFFF AND DUP4 PUSH20 0xFFFFFFFFFFFFFFFFFFFFFFFFFFFFFFFFFFFFFFFF AND EQ ISZERO PUSH2 0x8CB JUMPI PUSH1 0x40 MLOAD PUSH32 0x8C379A000000000000000000000000000000000000000000000000000000000 DUP2 MSTORE PUSH1 0x4 ADD PUSH2 0x8C2 SWAP1 PUSH2 0x15B5 JUMP JUMPDEST PUSH1 0x40 MLOAD DUP1 SWAP2 SUB SWAP1 REVERT JUMPDEST PUSH1 0x0 PUSH20 0xFFFFFFFFFFFFFFFFFFFFFFFFFFFFFFFFFFFFFFFF AND DUP3 PUSH20 0xFFFFFFFFFFFFFFFFFFFFFFFFFFFFFFFFFFFFFFFF AND EQ ISZERO PUSH2 0x93B JUMPI PUSH1 0x40 MLOAD PUSH32 0x8C379A000000000000000000000000000000000000000000000000000000000 DUP2 MSTORE PUSH1 0x4 ADD PUSH2 0x932 SWAP1 PUSH2 0x1647 JUMP JUMPDEST PUSH1 0x40 MLOAD DUP1 SWAP2 SUB SWAP1 REVERT JUMPDEST DUP1 PUSH1 0x1 PUSH1 0x0 DUP6 PUSH20 0xFFFFFFFFFFFFFFFFFFFFFFFFFFFFFFFFFFFFFFFF AND PUSH20 0xFFFFFFFFFFFFFFFFFFFFFFFFFFFFFFFFFFFFFFFF AND DUP2 MSTORE PUSH1 0x20 ADD SWAP1 DUP2 MSTORE PUSH1 0x20 ADD PUSH1 0x0 KECCAK256 PUSH1 0x0 DUP5 PUSH20 0xFFFFFFFFFFFFFFFFFFFFFFFFFFFFFFFFFFFFFFFF AND PUSH20 0xFFFFFFFFFFFFFFFFFFFFFFFFFFFFFFFFFFFFFFFF AND DUP2 MSTORE PUSH1 0x20 ADD SWAP1 DUP2 MSTORE PUSH1 0x20 ADD PUSH1 0x0 KECCAK256 DUP2 SWAP1 SSTORE POP DUP2 PUSH20 0xFFFFFFFFFFFFFFFFFFFFFFFFFFFFFFFFFFFFFFFF AND DUP4 PUSH20 0xFFFFFFFFFFFFFFFFFFFFFFFFFFFFFFFFFFFFFFFF AND PUSH32 0x8C5BE1E5EBEC7D5BD14F71427D1E84F3DD0314C0F7B2291E5B200AC8C7C3B925 DUP4 PUSH1 0x40 MLOAD PUSH2 0xA19 SWAP2 SWAP1 PUSH2 0x124D JUMP JUMPDEST PUSH1 0x40 MLOAD DUP1 SWAP2 SUB SWAP1 LOG3 POP POP POP JUMP JUMPDEST PUSH1 0x0 PUSH2 0xA32 DUP5 DUP5 PUSH2 0x7CC JUMP JUMPDEST SWAP1 POP PUSH32 0xFFFFFFFFFFFFFFFFFFFFFFFFFFFFFFFFFFFFFFFFFFFFFFFFFFFFFFFFFFFFFFFF DUP2 EQ PUSH2 0xAAC JUMPI DUP2 DUP2 LT ISZERO PUSH2 0xA9E JUMPI PUSH1 0x40 MLOAD PUSH32 0x8C379A000000000000000000000000000000000000000000000000000000000 DUP2 MSTORE PUSH1 0x4 ADD PUSH2 0xA95 SWAP1 PUSH2 0x16B3 JUMP JUMPDEST PUSH1 0x40 MLOAD DUP1 SWAP2 SUB SWAP1 REVERT JUMPDEST PUSH2 0xAAB DUP5 DUP5 DUP5 DUP5 SUB PUSH2 0x85B JUMP JUMPDEST JUMPDEST POP POP POP POP JUMP JUMPDEST PUSH1 0x0 PUSH20 0xFFFFFFFFFFFFFFFFFFFFFFFFFFFFFFFFFFFFFFFF AND DUP4 PUSH20 0xFFFFFFFFFFFFFFFFFFFFFFFFFFFFFFFFFFFFFFFF AND EQ ISZERO PUSH2 0xB22 JUMPI PUSH1 0x40 MLOAD PUSH32 0x8C379A000000000000000000000000000000000000000000000000000000000 DUP2 MSTORE PUSH1 0x4 ADD PUSH2 0xB19 SWAP1 PUSH2 0x1745 JUMP JUMPDEST PUSH1 0x40 MLOAD DUP1 SWAP2 SUB SWAP1 REVERT JUMPDEST PUSH1 0x0 PUSH20 0xFFFFFFFFFFFFFFFFFFFFFFFFFFFFFFFFFFFFFFFF AND DUP3 PUSH20 0xFFFFFFFFFFFFFFFFFFFFFFFFFFFFFFFFFFFFFFFF AND EQ ISZERO PUSH2 0xB92 JUMPI PUSH1 0x40 MLOAD PUSH32 0x8C379A000000000000000000000000000000000000000000000000000000000 DUP2 MSTORE PUSH1 0x4 ADD PUSH2 0xB89 SWAP1 PUSH2 0x17D7 JUMP JUMPDEST PUSH1 0x40 MLOAD DUP1 SWAP2 SUB SWAP1 REVERT JUMPDEST PUSH2 0xB9D DUP4 DUP4 DUP4 PUSH2 0x106A JUMP JUMPDEST PUSH1 0x0 DUP1 PUSH1 0x0 DUP6 PUSH20 0xFFFFFFFFFFFFFFFFFFFFFFFFFFFFFFFFFFFFFFFF AND PUSH20 0xFFFFFFFFFFFFFFFFFFFFFFFFFFFFFFFFFFFFFFFF AND DUP2 MSTORE PUSH1 0x20 ADD SWAP1 DUP2 MSTORE PUSH1 0x20 ADD PUSH1 0x0 KECCAK256 SLOAD SWAP1 POP DUP2 DUP2 LT ISZERO PUSH2 0xC23 JUMPI PUSH1 0x40 MLOAD PUSH32 0x8C379A000000000000000000000000000000000000000000000000000000000 DUP2 MSTORE PUSH1 0x4 ADD PUSH2 0xC1A SWAP1 PUSH2 0x1869 JUMP JUMPDEST PUSH1 0x40 MLOAD DUP1 SWAP2 SUB SWAP1 REVERT JUMPDEST DUP2 DUP2 SUB PUSH1 0x0 DUP1 DUP7 PUSH20 0xFFFFFFFFFFFFFFFFFFFFFFFFFFFFFFFFFFFFFFFF AND PUSH20 0xFFFFFFFFFFFFFFFFFFFFFFFFFFFFFFFFFFFFFFFF AND DUP2 MSTORE PUSH1 0x20 ADD SWAP1 DUP2 MSTORE PUSH1 0x20 ADD PUSH1 0x0 KECCAK256 DUP2 SWAP1 SSTORE POP DUP2 PUSH1 0x0 DUP1 DUP6 PUSH20 0xFFFFFFFFFFFFFFFFFFFFFFFFFFFFFFFFFFFFFFFF AND PUSH20 0xFFFFFFFFFFFFFFFFFFFFFFFFFFFFFFFFFFFFFFFF AND DUP2 MSTORE PUSH1 0x20 ADD SWAP1 DUP2 MSTORE PUSH1 0x20 ADD PUSH1 0x0 KECCAK256 PUSH1 0x0 DUP3 DUP3 SLOAD PUSH2 0xCB6 SWAP2 SWAP1 PUSH2 0x145B JUMP JUMPDEST SWAP3 POP POP DUP2 SWAP1 SSTORE POP DUP3 PUSH20 0xFFFFFFFFFFFFFFFFFFFFFFFFFFFFFFFFFFFFFFFF AND DUP5 PUSH20 0xFFFFFFFFFFFFFFFFFFFFFFFFFFFFFFFFFFFFFFFF AND PUSH32 0xDDF252AD1BE2C89B69C2B068FC378DAA952BA7F163C4A11628F55A4DF523B3EF DUP5 PUSH1 0x40 MLOAD PUSH2 0xD1A SWAP2 SWAP1 PUSH2 0x124D JUMP JUMPDEST PUSH1 0x40 MLOAD DUP1 SWAP2 SUB SWAP1 LOG3 PUSH2 0xD2D DUP5 DUP5 DUP5 PUSH2 0x106F JUMP JUMPDEST POP POP POP POP JUMP JUMPDEST PUSH1 0x0 PUSH20 0xFFFFFFFFFFFFFFFFFFFFFFFFFFFFFFFFFFFFFFFF AND DUP3 PUSH20 0xFFFFFFFFFFFFFFFFFFFFFFFFFFFFFFFFFFFFFFFF AND EQ ISZERO PUSH2 0xDA3 JUMPI PUSH1 0x40 MLOAD PUSH32 0x8C379A000000000000000000000000000000000000000000000000000000000 DUP2 MSTORE PUSH1 0x4 ADD PUSH2 0xD9A SWAP1 PUSH2 0x18D5 JUMP JUMPDEST PUSH1 0x40 MLOAD DUP1 SWAP2 SUB SWAP1 REVERT JUMPDEST PUSH2 0xDAF PUSH1 0x0 DUP4 DUP4 PUSH2 0x106A JUMP JUMPDEST DUP1 PUSH1 0x2 PUSH1 0x0 DUP3 DUP3 SLOAD PUSH2 0xDC1 SWAP2 SWAP1 PUSH2 0x145B JUMP JUMPDEST SWAP3 POP POP DUP2 SWAP1 SSTORE POP DUP1 PUSH1 0x0 DUP1 DUP5 PUSH20 0xFFFFFFFFFFFFFFFFFFFFFFFFFFFFFFFFFFFFFFFF AND PUSH20 0xFFFFFFFFFFFFFFFFFFFFFFFFFFFFFFFFFFFFFFFF AND DUP2 MSTORE PUSH1 0x20 ADD SWAP1 DUP2 MSTORE PUSH1 0x20 ADD PUSH1 0x0 KECCAK256 PUSH1 0x0 DUP3 DUP3 SLOAD PUSH2 0xE16 SWAP2 SWAP1 PUSH2 0x145B JUMP JUMPDEST SWAP3 POP POP DUP2 SWAP1 SSTORE POP DUP2 PUSH20 0xFFFFFFFFFFFFFFFFFFFFFFFFFFFFFFFFFFFFFFFF AND PUSH1 0x0 PUSH20 0xFFFFFFFFFFFFFFFFFFFFFFFFFFFFFFFFFFFFFFFF AND PUSH32 0xDDF252AD1BE2C89B69C2B068FC378DAA952BA7F163C4A11628F55A4DF523B3EF DUP4 PUSH1 0x40 MLOAD PUSH2 0xE7B SWAP2 SWAP1 PUSH2 0x124D JUMP JUMPDEST PUSH1 0x40 MLOAD DUP1 SWAP2 SUB SWAP1 LOG3 PUSH2 0xE8F PUSH1 0x0 DUP4 DUP4 PUSH2 0x106F JUMP JUMPDEST POP POP JUMP JUMPDEST PUSH1 0x0 PUSH20 0xFFFFFFFFFFFFFFFFFFFFFFFFFFFFFFFFFFFFFFFF AND DUP3 PUSH20 0xFFFFFFFFFFFFFFFFFFFFFFFFFFFFFFFFFFFFFFFF AND EQ ISZERO PUSH2 0xF03 JUMPI PUSH1 0x40 MLOAD PUSH32 0x8C379A000000000000000000000000000000000000000000000000000000000 DUP2 MSTORE PUSH1 0x4 ADD PUSH2 0xEFA SWAP1 PUSH2 0x1967 JUMP JUMPDEST PUSH1 0x40 MLOAD DUP1 SWAP2 SUB SWAP1 REVERT JUMPDEST PUSH2 0xF0F DUP3 PUSH1 0x0 DUP4 PUSH2 0x106A JUMP JUMPDEST PUSH1 0x0 DUP1 PUSH1 0x0 DUP5 PUSH20 0xFFFFFFFFFFFFFFFFFFFFFFFFFFFFFFFFFFFFFFFF AND PUSH20 0xFFFFFFFFFFFFFFFFFFFFFFFFFFFFFFFFFFFFFFFF AND DUP2 MSTORE PUSH1 0x20 ADD SWAP1 DUP2 MSTORE PUSH1 0x20 ADD PUSH1 0x0 KECCAK256 SLOAD SWAP1 POP DUP2 DUP2 LT ISZERO PUSH2 0xF95 JUMPI PUSH1 0x40 MLOAD PUSH32 0x8C379A000000000000000000000000000000000000000000000000000000000 DUP2 MSTORE PUSH1 0x4 ADD PUSH2 0xF8C SWAP1 PUSH2 0x19F9 JUMP JUMPDEST PUSH1 0x40 MLOAD DUP1 SWAP2 SUB SWAP1 REVERT JUMPDEST DUP2 DUP2 SUB PUSH1 0x0 DUP1 DUP6 PUSH20 0xFFFFFFFFFFFFFFFFFFFFFFFFFFFFFFFFFFFFFFFF AND PUSH20 0xFFFFFFFFFFFFFFFFFFFFFFFFFFFFFFFFFFFFFFFF AND DUP2 MSTORE PUSH1 0x20 ADD SWAP1 DUP2 MSTORE PUSH1 0x20 ADD PUSH1 0x0 KECCAK256 DUP2 SWAP1 SSTORE POP DUP2 PUSH1 0x2 PUSH1 0x0 DUP3 DUP3 SLOAD PUSH2 0xFEC SWAP2 SWAP1 PUSH2 0x1A19 JUMP JUMPDEST SWAP3 POP POP DUP2 SWAP1 SSTORE POP PUSH1 0x0 PUSH20 0xFFFFFFFFFFFFFFFFFFFFFFFFFFFFFFFFFFFFFFFF AND DUP4 PUSH20 0xFFFFFFFFFFFFFFFFFFFFFFFFFFFFFFFFFFFFFFFF AND PUSH32 0xDDF252AD1BE2C89B69C2B068FC378DAA952BA7F163C4A11628F55A4DF523B3EF DUP5 PUSH1 0x40 MLOAD PUSH2 0x1051 SWAP2 SWAP1 PUSH2 0x124D JUMP JUMPDEST PUSH1 0x40 MLOAD DUP1 SWAP2 SUB SWAP1 LOG3 PUSH2 0x1065 DUP4 PUSH1 0x0 DUP5 PUSH2 0x106F JUMP JUMPDEST POP POP POP JUMP JUMPDEST POP POP POP JUMP JUMPDEST POP POP POP JUMP JUMPDEST PUSH1 0x0 DUP2 MLOAD SWAP1 POP SWAP2 SWAP1 POP JUMP JUMPDEST PUSH1 0x0 DUP3 DUP3 MSTORE PUSH1 0x20 DUP3 ADD SWAP1 POP SWAP3 SWAP2 POP POP JUMP JUMPDEST PUSH1 0x0 JUMPDEST DUP4 DUP2 LT ISZERO PUSH2 0x10AE JUMPI DUP1 DUP3 ADD MLOAD DUP2 DUP5 ADD MSTORE PUSH1 0x20 DUP2 ADD SWAP1 POP PUSH2 0x1093 JUMP JUMPDEST DUP4 DUP2 GT ISZERO PUSH2 0x10BD JUMPI PUSH1 0x0 DUP5 DUP5 ADD MSTORE JUMPDEST POP POP POP POP JUMP JUMPDEST PUSH1 0x0 PUSH1 0x1F NOT PUSH1 0x1F DUP4 ADD AND SWAP1 POP SWAP2 SWAP1 POP JUMP JUMPDEST PUSH1 0x0 PUSH2 0x10DF DUP3 PUSH2 0x1074 JUMP JUMPDEST PUSH2 0x10E9 DUP2 DUP6 PUSH2 0x107F JUMP JUMPDEST SWAP4 POP PUSH2 0x10F9 DUP2 DUP6 PUSH1 0x20 DUP7 ADD PUSH2 0x1090 JUMP JUMPDEST PUSH2 0x1102 DUP2 PUSH2 0x10C3 JUMP JUMPDEST DUP5 ADD SWAP2 POP POP SWAP3 SWAP2 POP POP JUMP JUMPDEST PUSH1 0x0 PUSH1 0x20 DUP3 ADD SWAP1 POP DUP2 DUP2 SUB PUSH1 0x0 DUP4 ADD MSTORE PUSH2 0x1127 DUP2 DUP5 PUSH2 0x10D4 JUMP JUMPDEST SWAP1 POP SWAP3 SWAP2 POP POP JUMP JUMPDEST PUSH1 0x0 DUP1 REVERT JUMPDEST PUSH1 0x0 PUSH20 0xFFFFFFFFFFFFFFFFFFFFFFFFFFFFFFFFFFFFFFFF DUP3 AND SWAP1 POP SWAP2 SWAP1 POP JUMP JUMPDEST PUSH1 0x0 PUSH2 0x115F DUP3 PUSH2 0x1134 JUMP JUMPDEST SWAP1 POP SWAP2 SWAP1 POP JUMP JUMPDEST PUSH2 0x116F DUP2 PUSH2 0x1154 JUMP JUMPDEST DUP2 EQ PUSH2 0x117A JUMPI PUSH1 0x0 DUP1 REVERT JUMPDEST POP JUMP JUMPDEST PUSH1 0x0 DUP2 CALLDATALOAD SWAP1 POP PUSH2 0x118C DUP2 PUSH2 0x1166 JUMP JUMPDEST SWAP3 SWAP2 POP POP JUMP JUMPDEST PUSH1 0x0 DUP2 SWAP1 POP SWAP2 SWAP1 POP JUMP JUMPDEST PUSH2 0x11A5 DUP2 PUSH2 0x1192 JUMP JUMPDEST DUP2 EQ PUSH2 0x11B0 JUMPI PUSH1 0x0 DUP1 REVERT JUMPDEST POP JUMP JUMPDEST PUSH1 0x0 DUP2 CALLDATALOAD SWAP1 POP PUSH2 0x11C2 DUP2 PUSH2 0x119C JUMP JUMPDEST SWAP3 SWAP2 POP POP JUMP JUMPDEST PUSH1 0x0 DUP1 PUSH1 0x40 DUP4 DUP6 SUB SLT ISZERO PUSH2 0x11DF JUMPI PUSH2 0x11DE PUSH2 0x112F JUMP JUMPDEST JUMPDEST PUSH1 0x0 PUSH2 0x11ED DUP6 DUP3 DUP7 ADD PUSH2 0x117D JUMP JUMPDEST SWAP3 POP POP PUSH1 0x20 PUSH2 0x11FE DUP6 DUP3 DUP7 ADD PUSH2 0x11B3 JUMP JUMPDEST SWAP2 POP POP SWAP3 POP SWAP3 SWAP1 POP JUMP JUMPDEST PUSH1 0x0 DUP2 ISZERO ISZERO SWAP1 POP SWAP2 SWAP1 POP JUMP JUMPDEST PUSH2 0x121D DUP2 PUSH2 0x1208 JUMP JUMPDEST DUP3 MSTORE POP POP JUMP JUMPDEST PUSH1 0x0 PUSH1 0x20 DUP3 ADD SWAP1 POP PUSH2 0x1238 PUSH1 0x0 DUP4 ADD DUP5 PUSH2 0x1214 JUMP JUMPDEST SWAP3 SWAP2 POP POP JUMP JUMPDEST PUSH2 0x1247 DUP2 PUSH2 0x1192 JUMP JUMPDEST DUP3 MSTORE POP POP JUMP JUMPDEST PUSH1 0x0 PUSH1 0x20 DUP3 ADD SWAP1 POP PUSH2 0x1262 PUSH1 0x0 DUP4 ADD DUP5 PUSH2 0x123E JUMP JUMPDEST SWAP3 SWAP2 POP POP JUMP JUMPDEST PUSH1 0x0 DUP1 PUSH1 0x0 PUSH1 0x60 DUP5 DUP7 SUB SLT ISZERO PUSH2 0x1281 JUMPI PUSH2 0x1280 PUSH2 0x112F JUMP JUMPDEST JUMPDEST PUSH1 0x0 PUSH2 0x128F DUP7 DUP3 DUP8 ADD PUSH2 0x117D JUMP JUMPDEST SWAP4 POP POP PUSH1 0x20 PUSH2 0x12A0 DUP7 DUP3 DUP8 ADD PUSH2 0x117D JUMP JUMPDEST SWAP3 POP POP PUSH1 0x40 PUSH2 0x12B1 DUP7 DUP3 DUP8 ADD PUSH2 0x11B3 JUMP JUMPDEST SWAP2 POP POP SWAP3 POP SWAP3 POP SWAP3 JUMP JUMPDEST PUSH1 0x0 PUSH1 0xFF DUP3 AND SWAP1 POP SWAP2 SWAP1 POP JUMP JUMPDEST PUSH2 0x12D1 DUP2 PUSH2 0x12BB JUMP JUMPDEST DUP3 MSTORE POP POP JUMP JUMPDEST PUSH1 0x0 PUSH1 0x20 DUP3 ADD SWAP1 POP PUSH2 0x12EC PUSH1 0x0 DUP4 ADD DUP5 PUSH2 0x12C8 JUMP JUMPDEST SWAP3 SWAP2 POP POP JUMP JUMPDEST PUSH1 0x0 PUSH1 0x20 DUP3 DUP5 SUB SLT ISZERO PUSH2 0x1308 JUMPI PUSH2 0x1307 PUSH2 0x112F JUMP JUMPDEST JUMPDEST PUSH1 0x0 PUSH2 0x1316 DUP5 DUP3 DUP6 ADD PUSH2 0x117D JUMP JUMPDEST SWAP2 POP POP SWAP3 SWAP2 POP POP JUMP JUMPDEST PUSH1 0x0 DUP1 PUSH1 0x40 DUP4 DUP6 SUB SLT ISZERO PUSH2 0x1336 JUMPI PUSH2 0x1335 PUSH2 0x112F JUMP JUMPDEST JUMPDEST PUSH1 0x0 PUSH2 0x1344 DUP6 DUP3 DUP7 ADD PUSH2 0x117D JUMP JUMPDEST SWAP3 POP POP PUSH1 0x20 PUSH2 0x1355 DUP6 DUP3 DUP7 ADD PUSH2 0x117D JUMP JUMPDEST SWAP2 POP POP SWAP3 POP SWAP3 SWAP1 POP JUMP JUMPDEST PUSH32 0x4E487B7100000000000000000000000000000000000000000000000000000000 PUSH1 0x0 MSTORE PUSH1 0x22 PUSH1 0x4 MSTORE PUSH1 0x24 PUSH1 0x0 REVERT JUMPDEST PUSH1 0x0 PUSH1 0x2 DUP3 DIV SWAP1 POP PUSH1 0x1 DUP3 AND DUP1 PUSH2 0x13A6 JUMPI PUSH1 0x7F DUP3 AND SWAP2 POP JUMPDEST PUSH1 0x20 DUP3 LT DUP2 EQ ISZERO PUSH2 0x13BA JUMPI PUSH2 0x13B9 PUSH2 0x135F JUMP JUMPDEST JUMPDEST POP SWAP2 SWAP1 POP JUMP JUMPDEST PUSH32 0x4E6F207065726D697373696F6E00000000000000000000000000000000000000 PUSH1 0x0 DUP3 ADD MSTORE POP JUMP JUMPDEST PUSH1 0x0 PUSH2 0x13F6 PUSH1 0xD DUP4 PUSH2 0x107F JUMP JUMPDEST SWAP2 POP PUSH2 0x1401 DUP3 PUSH2 0x13C0 JUMP JUMPDEST PUSH1 0x20 DUP3 ADD SWAP1 POP SWAP2 SWAP1 POP JUMP JUMPDEST PUSH1 0x0 PUSH1 0x20 DUP3 ADD SWAP1 POP DUP2 DUP2 SUB PUSH1 0x0 DUP4 ADD MSTORE PUSH2 0x1425 DUP2 PUSH2 0x13E9 JUMP JUMPDEST SWAP1 POP SWAP2 SWAP1 POP JUMP JUMPDEST PUSH32 0x4E487B7100000000000000000000000000000000000000000000000000000000 PUSH1 0x0 MSTORE PUSH1 0x11 PUSH1 0x4 MSTORE PUSH1 0x24 PUSH1 0x0 REVERT JUMPDEST PUSH1 0x0 PUSH2 0x1466 DUP3 PUSH2 0x1192 JUMP JUMPDEST SWAP2 POP PUSH2 0x1471 DUP4 PUSH2 0x1192 JUMP JUMPDEST SWAP3 POP DUP3 PUSH32 0xFFFFFFFFFFFFFFFFFFFFFFFFFFFFFFFFFFFFFFFFFFFFFFFFFFFFFFFFFFFFFFFF SUB DUP3 GT ISZERO PUSH2 0x14A6 JUMPI PUSH2 0x14A5 PUSH2 0x142C JUMP JUMPDEST JUMPDEST DUP3 DUP3 ADD SWAP1 POP SWAP3 SWAP2 POP POP JUMP JUMPDEST PUSH32 0x45524332303A2064656372656173656420616C6C6F77616E63652062656C6F77 PUSH1 0x0 DUP3 ADD MSTORE PUSH32 0x207A65726F000000000000000000000000000000000000000000000000000000 PUSH1 0x20 DUP3 ADD MSTORE POP JUMP JUMPDEST PUSH1 0x0 PUSH2 0x150D PUSH1 0x25 DUP4 PUSH2 0x107F JUMP JUMPDEST SWAP2 POP PUSH2 0x1518 DUP3 PUSH2 0x14B1 JUMP JUMPDEST PUSH1 0x40 DUP3 ADD SWAP1 POP SWAP2 SWAP1 POP JUMP JUMPDEST PUSH1 0x0 PUSH1 0x20 DUP3 ADD SWAP1 POP DUP2 DUP2 SUB PUSH1 0x0 DUP4 ADD MSTORE PUSH2 0x153C DUP2 PUSH2 0x1500 JUMP JUMPDEST SWAP1 POP SWAP2 SWAP1 POP JUMP JUMPDEST PUSH32 0x45524332303A20617070726F76652066726F6D20746865207A65726F20616464 PUSH1 0x0 DUP3 ADD MSTORE PUSH32 0x7265737300000000000000000000000000000000000000000000000000000000 PUSH1 0x20 DUP3 ADD MSTORE POP JUMP JUMPDEST PUSH1 0x0 PUSH2 0x159F PUSH1 0x24 DUP4 PUSH2 0x107F JUMP JUMPDEST SWAP2 POP PUSH2 0x15AA DUP3 PUSH2 0x1543 JUMP JUMPDEST PUSH1 0x40 DUP3 ADD SWAP1 POP SWAP2 SWAP1 POP JUMP JUMPDEST PUSH1 0x0 PUSH1 0x20 DUP3 ADD SWAP1 POP DUP2 DUP2 SUB PUSH1 0x0 DUP4 ADD MSTORE PUSH2 0x15CE DUP2 PUSH2 0x1592 JUMP JUMPDEST SWAP1 POP SWAP2 SWAP1 POP JUMP JUMPDEST PUSH32 0x45524332303A20617070726F766520746F20746865207A65726F206164647265 PUSH1 0x0 DUP3 ADD MSTORE PUSH32 0x7373000000000000000000000000000000000000000000000000000000000000 PUSH1 0x20 DUP3 ADD MSTORE POP JUMP JUMPDEST PUSH1 0x0 PUSH2 0x1631 PUSH1 0x22 DUP4 PUSH2 0x107F JUMP JUMPDEST SWAP2 POP PUSH2 0x163C DUP3 PUSH2 0x15D5 JUMP JUMPDEST PUSH1 0x40 DUP3 ADD SWAP1 POP SWAP2 SWAP1 POP JUMP JUMPDEST PUSH1 0x0 PUSH1 0x20 DUP3 ADD SWAP1 POP DUP2 DUP2 SUB PUSH1 0x0 DUP4 ADD MSTORE PUSH2 0x1660 DUP2 PUSH2 0x1624 JUMP JUMPDEST SWAP1 POP SWAP2 SWAP1 POP JUMP JUMPDEST PUSH32 0x45524332303A20696E73756666696369656E7420616C6C6F77616E6365000000 PUSH1 0x0 DUP3 ADD MSTORE POP JUMP JUMPDEST PUSH1 0x0 PUSH2 0x169D PUSH1 0x1D DUP4 PUSH2 0x107F JUMP JUMPDEST SWAP2 POP PUSH2 0x16A8 DUP3 PUSH2 0x1667 JUMP JUMPDEST PUSH1 0x20 DUP3 ADD SWAP1 POP SWAP2 SWAP1 POP JUMP JUMPDEST PUSH1 0x0 PUSH1 0x20 DUP3 ADD SWAP1 POP DUP2 DUP2 SUB PUSH1 0x0 DUP4 ADD MSTORE PUSH2 0x16CC DUP2 PUSH2 0x1690 JUMP JUMPDEST SWAP1 POP SWAP2 SWAP1 POP JUMP JUMPDEST PUSH32 0x45524332303A207472616E736665722066726F6D20746865207A65726F206164 PUSH1 0x0 DUP3 ADD MSTORE PUSH32 0x6472657373000000000000000000000000000000000000000000000000000000 PUSH1 0x20 DUP3 ADD MSTORE POP JUMP JUMPDEST PUSH1 0x0 PUSH2 0x172F PUSH1 0x25 DUP4 PUSH2 0x107F JUMP JUMPDEST SWAP2 POP PUSH2 0x173A DUP3 PUSH2 0x16D3 JUMP JUMPDEST PUSH1 0x40 DUP3 ADD SWAP1 POP SWAP2 SWAP1 POP JUMP JUMPDEST PUSH1 0x0 PUSH1 0x20 DUP3 ADD SWAP1 POP DUP2 DUP2 SUB PUSH1 0x0 DUP4 ADD MSTORE PUSH2 0x175E DUP2 PUSH2 0x1722 JUMP JUMPDEST SWAP1 POP SWAP2 SWAP1 POP JUMP JUMPDEST PUSH32 0x45524332303A207472616E7366657220746F20746865207A65726F2061646472 PUSH1 0x0 DUP3 ADD MSTORE PUSH32 0x6573730000000000000000000000000000000000000000000000000000000000 PUSH1 0x20 DUP3 ADD MSTORE POP JUMP JUMPDEST PUSH1 0x0 PUSH2 0x17C1 PUSH1 0x23 DUP4 PUSH2 0x107F JUMP JUMPDEST SWAP2 POP PUSH2 0x17CC DUP3 PUSH2 0x1765 JUMP JUMPDEST PUSH1 0x40 DUP3 ADD SWAP1 POP SWAP2 SWAP1 POP JUMP JUMPDEST PUSH1 0x0 PUSH1 0x20 DUP3 ADD SWAP1 POP DUP2 DUP2 SUB PUSH1 0x0 DUP4 ADD MSTORE PUSH2 0x17F0 DUP2 PUSH2 0x17B4 JUMP JUMPDEST SWAP1 POP SWAP2 SWAP1 POP JUMP JUMPDEST PUSH32 0x45524332303A207472616E7366657220616D6F756E7420657863656564732062 PUSH1 0x0 DUP3 ADD MSTORE PUSH32 0x616C616E63650000000000000000000000000000000000000000000000000000 PUSH1 0x20 DUP3 ADD MSTORE POP JUMP JUMPDEST PUSH1 0x0 PUSH2 0x1853 PUSH1 0x26 DUP4 PUSH2 0x107F JUMP JUMPDEST SWAP2 POP PUSH2 0x185E DUP3 PUSH2 0x17F7 JUMP JUMPDEST PUSH1 0x40 DUP3 ADD SWAP1 POP SWAP2 SWAP1 POP JUMP JUMPDEST PUSH1 0x0 PUSH1 0x20 DUP3 ADD SWAP1 POP DUP2 DUP2 SUB PUSH1 0x0 DUP4 ADD MSTORE PUSH2 0x1882 DUP2 PUSH2 0x1846 JUMP JUMPDEST SWAP1 POP SWAP2 SWAP1 POP JUMP JUMPDEST PUSH32 0x45524332303A206D696E7420746F20746865207A65726F206164647265737300 PUSH1 0x0 DUP3 ADD MSTORE POP JUMP JUMPDEST PUSH1 0x0 PUSH2 0x18BF PUSH1 0x1F DUP4 PUSH2 0x107F JUMP JUMPDEST SWAP2 POP PUSH2 0x18CA DUP3 PUSH2 0x1889 JUMP JUMPDEST PUSH1 0x20 DUP3 ADD SWAP1 POP SWAP2 SWAP1 POP JUMP JUMPDEST PUSH1 0x0 PUSH1 0x20 DUP3 ADD SWAP1 POP DUP2 DUP2 SUB PUSH1 0x0 DUP4 ADD MSTORE PUSH2 0x18EE DUP2 PUSH2 0x18B2 JUMP JUMPDEST SWAP1 POP SWAP2 SWAP1 POP JUMP JUMPDEST PUSH32 0x45524332303A206275726E2066726F6D20746865207A65726F20616464726573 PUSH1 0x0 DUP3 ADD MSTORE PUSH32 0x7300000000000000000000000000000000000000000000000000000000000000 PUSH1 0x20 DUP3 ADD MSTORE POP JUMP JUMPDEST PUSH1 0x0 PUSH2 0x1951 PUSH1 0x21 DUP4 PUSH2 0x107F JUMP JUMPDEST SWAP2 POP PUSH2 0x195C DUP3 PUSH2 0x18F5 JUMP JUMPDEST PUSH1 0x40 DUP3 ADD SWAP1 POP SWAP2 SWAP1 POP JUMP JUMPDEST PUSH1 0x0 PUSH1 0x20 DUP3 ADD SWAP1 POP DUP2 DUP2 SUB PUSH1 0x0 DUP4 ADD MSTORE PUSH2 0x1980 DUP2 PUSH2 0x1944 JUMP JUMPDEST SWAP1 POP SWAP2 SWAP1 POP JUMP JUMPDEST PUSH32 0x45524332303A206275726E20616D6F756E7420657863656564732062616C616E PUSH1 0x0 DUP3 ADD MSTORE PUSH32 0x6365000000000000000000000000000000000000000000000000000000000000 PUSH1 0x20 DUP3 ADD MSTORE POP JUMP JUMPDEST PUSH1 0x0 PUSH2 0x19E3 PUSH1 0x22 DUP4 PUSH2 0x107F JUMP JUMPDEST SWAP2 POP PUSH2 0x19EE DUP3 PUSH2 0x1987 JUMP JUMPDEST PUSH1 0x40 DUP3 ADD SWAP1 POP SWAP2 SWAP1 POP JUMP JUMPDEST PUSH1 0x0 PUSH1 0x20 DUP3 ADD SWAP1 POP DUP2 DUP2 SUB PUSH1 0x0 DUP4 ADD MSTORE PUSH2 0x1A12 DUP2 PUSH2 0x19D6 JUMP JUMPDEST SWAP1 POP SWAP2 SWAP1 POP JUMP JUMPDEST PUSH1 0x0 PUSH2 0x1A24 DUP3 PUSH2 0x1192 JUMP JUMPDEST SWAP2 POP PUSH2 0x1A2F DUP4 PUSH2 0x1192 JUMP JUMPDEST SWAP3 POP DUP3 DUP3 LT ISZERO PUSH2 0x1A42 JUMPI PUSH2 0x1A41 PUSH2 0x142C JUMP JUMPDEST JUMPDEST DUP3 DUP3 SUB SWAP1 POP SWAP3 SWAP2 POP POP JUMP INVALID LOG2 PUSH5 0x6970667358 0x22 SLT KECCAK256 0xD9 0xBC SWAP10 0xEC STATICCALL MULMOD 0xAD PUSH26 0x3B06F3FCEB2DCBDBD92F69115C789122DA8A9EEC3DB688DA6473 PUSH16 0x6C634300080A00330000000000000000 "
    },
    "gasEstimates": {
      "creation": {
        "codeDepositCost": "2205000",
        "executionCost": "infinite",
        "totalCost": "infinite"
      },
      "external": {
        "addAmountDonated(uint256)": "infinite",
        "getAllReputations()": "infinite",
        "getAmountDonated()": "2482",
        "getCompaniesAddresses()": "infinite",
        "getCompaniesNames()": "infinite",
        "getCompanyAddress(string)": "infinite",
        "getCompanyComplaints(string)": "infinite",
        "getReputation(string)": "infinite",
        "getTotalComplaints()": "infinite",
        "newCompanies(string[])": "infinite",
        "newCompany(string)": "infinite",
        "newComplaint(string,string)": "infinite",
        "retireCompany(string)": "infinite",
        "retireComplaint(string,string)": "infinite"
      }
    },
    "methodIdentifiers": {
      "addAmountDonated(uint256)": "448e88d0",
      "getAllReputations()": "2f435b3f",
      "getAmountDonated()": "1c17dee8",
      "getCompaniesAddresses()": "05e5e5a3",
      "getCompaniesNames()": "09a7a006",
      "getCompanyAddress(string)": "d6a16afa",
      "getCompanyComplaints(string)": "6b5f35c2",
      "getReputation(string)": "3d1103f4",
      "getTotalComplaints()": "59f97801",
      "newCompanies(string[])": "08459850",
      "newCompany(string)": "f1e6fe87",
      "newComplaint(string,string)": "d09cdac1",
      "retireCompany(string)": "112e4143",
      "retireComplaint(string,string)": "bfef1851"
    }
  },
  "storageLayout": {
    "storage": [
      {
        "astId": 141,
        "contract": "ReputationControlV2.sol:ReputationControl",
        "label": "tokenContract",
        "offset": 0,
        "slot": "0",
        "type": "t_contract(ReksTokens)126"
      },
      {
        "astId": 146,
        "contract": "ReputationControlV2.sol:ReputationControl",
        "label": "infoCompanies",
        "offset": 0,
        "slot": "1",
        "type": "t_mapping(t_string_memory_ptr,t_struct(CompanyData)138_storage)"
      },
      {
        "astId": 149,
        "contract": "ReputationControlV2.sol:ReputationControl",
        "label": "companies",
        "offset": 0,
        "slot": "2",
        "type": "t_array(t_string_storage)dyn_storage"
      },
      {
        "astId": 153,
        "contract": "ReputationControlV2.sol:ReputationControl",
        "label": "amountDonated",
        "offset": 0,
        "slot": "3",
        "type": "t_uint256"
      }
    ],
    "types": {
      "t_address": {
        "encoding": "inplace",
        "label": "address",
        "numberOfBytes": "20"
      },
      "t_array(t_string_storage)dyn_storage": {
        "base": "t_string_storage",
        "encoding": "dynamic_array",
        "label": "string[]",
        "numberOfBytes": "32"
      },
      "t_contract(ReksTokens)126": {
        "encoding": "inplace",
        "label": "contract ReksTokens",
        "numberOfBytes": "20"
      },
      "t_mapping(t_string_memory_ptr,t_struct(CompanyData)138_storage)": {
        "encoding": "mapping",
        "key": "t_string_memory_ptr",
        "label": "mapping(string => struct ReputationControl.CompanyData)",
        "numberOfBytes": "32",
        "value": "t_struct(CompanyData)138_storage"
      },
      "t_mapping(t_string_memory_ptr,t_uint256)": {
        "encoding": "mapping",
        "key": "t_string_memory_ptr",
        "label": "mapping(string => uint256)",
        "numberOfBytes": "32",
        "value": "t_uint256"
      },
      "t_string_memory_ptr": {
        "encoding": "bytes",
        "label": "string",
        "numberOfBytes": "32"
      },
      "t_string_storage": {
        "encoding": "bytes",
        "label": "string",
        "numberOfBytes": "32"
      },
      "t_struct(CompanyData)138_storage": {
        "encoding": "inplace",
        "label": "struct ReputationControl.CompanyData",
        "members": [
          {
            "astId": 128,
            "contract": "ReputationControlV2.sol:ReputationControl",
            "label": "_address",
            "offset": 0,
            "slot": "0",
            "type": "t_address"
          },
          {
            "astId": 130,
            "contract": "ReputationControlV2.sol:ReputationControl",
            "label": "pos",
            "offset": 0,
            "slot": "1",
            "type": "t_uint256"
          },
          {
            "astId": 134,
            "contract": "ReputationControlV2.sol:ReputationControl",
            "label": "posArray",
            "offset": 0,
            "slot": "2",
            "type": "t_mapping(t_string_memory_ptr,t_uint256)"
          },
          {
            "astId": 137,
            "contract": "ReputationControlV2.sol:ReputationControl",
            "label": "hashComplaints",
            "offset": 0,
            "slot": "3",
            "type": "t_array(t_string_storage)dyn_storage"
          }
        ],
        "numberOfBytes": "128"
      },
      "t_uint256": {
        "encoding": "inplace",
        "label": "uint256",
        "numberOfBytes": "32"
      }
    }
  },
  "userdoc": {
    "kind": "user",
    "methods": {},
    "version": 1
  }
}