{
  "abi": [
    {
      "inputs": [],
      "stateMutability": "nonpayable",
      "type": "constructor"
    },
    {
      "anonymous": false,
      "inputs": [
        {
          "indexed": true,
          "internalType": "address",
          "name": "_operator",
          "type": "address"
        }
      ],
      "name": "Appointment",
      "type": "event"
    },
    {
      "anonymous": false,
      "inputs": [
        {
          "indexed": true,
          "internalType": "address",
          "name": "_participant",
          "type": "address"
        },
        {
          "indexed": false,
          "internalType": "bool",
          "name": "_participation",
          "type": "bool"
        }
      ],
      "name": "Participation",
      "type": "event"
    },
    {
      "anonymous": false,
      "inputs": [
        {
          "indexed": true,
          "internalType": "address",
          "name": "_from",
          "type": "address"
        },
        {
          "indexed": true,
          "internalType": "address",
          "name": "_to",
          "type": "address"
        },
        {
          "indexed": false,
          "internalType": "uint256",
          "name": "_amount",
          "type": "uint256"
        }
      ],
      "name": "Transfer",
      "type": "event"
    },
    {
      "inputs": [
        {
          "internalType": "address",
          "name": "account",
          "type": "address"
        }
      ],
      "name": "balanceOf",
      "outputs": [
        {
          "internalType": "uint256",
          "name": "",
          "type": "uint256"
        }
      ],
      "stateMutability": "view",
      "type": "function"
    },
    {
      "inputs": [
        {
          "internalType": "address",
          "name": "from",
          "type": "address"
        },
        {
          "internalType": "uint256",
          "name": "amount",
          "type": "uint256"
        }
      ],
      "name": "burn",
      "outputs": [],
      "stateMutability": "nonpayable",
      "type": "function"
    },
    {
      "inputs": [
        {
          "internalType": "address",
          "name": "to",
          "type": "address"
        },
        {
          "internalType": "uint256",
          "name": "amount",
          "type": "uint256"
        }
      ],
      "name": "mint",
      "outputs": [],
      "stateMutability": "nonpayable",
      "type": "function"
    },
    {
      "inputs": [],
      "name": "operator",
      "outputs": [
        {
          "internalType": "address",
          "name": "",
          "type": "address"
        }
      ],
      "stateMutability": "view",
      "type": "function"
    },
    {
      "inputs": [
        {
          "internalType": "address",
          "name": "account",
          "type": "address"
        }
      ],
      "name": "participationOf",
      "outputs": [
        {
          "internalType": "bool",
          "name": "",
          "type": "bool"
        }
      ],
      "stateMutability": "view",
      "type": "function"
    },
    {
      "inputs": [
        {
          "internalType": "address",
          "name": "from",
          "type": "address"
        },
        {
          "internalType": "address",
          "name": "to",
          "type": "address"
        },
        {
          "internalType": "uint256",
          "name": "amount",
          "type": "uint256"
        }
      ],
      "name": "reallocate",
      "outputs": [],
      "stateMutability": "nonpayable",
      "type": "function"
    },
    {
      "inputs": [
        {
          "internalType": "address",
          "name": "account",
          "type": "address"
        }
      ],
      "name": "retireAuthorization",
      "outputs": [],
      "stateMutability": "nonpayable",
      "type": "function"
    },
    {
      "inputs": [
        {
          "internalType": "address",
          "name": "account",
          "type": "address"
        }
      ],
      "name": "setAuthorization",
      "outputs": [],
      "stateMutability": "nonpayable",
      "type": "function"
    },
    {
      "inputs": [
        {
          "internalType": "address",
          "name": "newOperator",
          "type": "address"
        }
      ],
      "name": "setOperator",
      "outputs": [],
      "stateMutability": "nonpayable",
      "type": "function"
    },
    {
      "inputs": [
        {
          "internalType": "address",
          "name": "participant",
          "type": "address"
        },
        {
          "internalType": "bool",
          "name": "participation",
          "type": "bool"
        }
      ],
      "name": "setParticipation",
      "outputs": [],
      "stateMutability": "nonpayable",
      "type": "function"
    },
    {
      "inputs": [],
      "name": "totalSupply",
      "outputs": [
        {
          "internalType": "uint256",
          "name": "",
          "type": "uint256"
        }
      ],
      "stateMutability": "view",
      "type": "function"
    }
  ],
  "devdoc": {
    "kind": "dev",
    "methods": {},
    "version": 1
  },
  "evm": {
    "assembly": "    /* \"ReputationControl.sol\":817:5322  contract ERC4974 is IERC4974{... */\n  mstore(0x40, 0x80)\n    /* \"ReputationControl.sol\":1085:1349  constructor() {... */\n  callvalue\n  dup1\n  iszero\n  tag_1\n  jumpi\n  0x00\n  dup1\n  revert\ntag_1:\n  pop\n    /* \"ReputationControl.sol\":1140:1141  0 */\n  0x00\n    /* \"ReputationControl.sol\":1118:1142  msg.sender != address(0) */\n  0xffffffffffffffffffffffffffffffffffffffff\n  and\n    /* \"ReputationControl.sol\":1118:1128  msg.sender */\n  caller\n    /* \"ReputationControl.sol\":1118:1142  msg.sender != address(0) */\n  0xffffffffffffffffffffffffffffffffffffffff\n  and\n  eq\n  iszero\n    /* \"ReputationControl.sol\":1110:1183  require(msg.sender != address(0), \"Operator cannot be the zero address.\") */\n  tag_4\n  jumpi\n  mload(0x40)\n  0x08c379a000000000000000000000000000000000000000000000000000000000\n  dup2\n  mstore\n  0x04\n  add\n  tag_5\n  swap1\n  tag_6\n  jump\t// in\ntag_5:\n  mload(0x40)\n  dup1\n  swap2\n  sub\n  swap1\n  revert\ntag_4:\n    /* \"ReputationControl.sol\":1206:1216  msg.sender */\n  caller\n    /* \"ReputationControl.sol\":1194:1203  _operator */\n  0x03\n  0x00\n    /* \"ReputationControl.sol\":1194:1216  _operator = msg.sender */\n  0x0100\n  exp\n  dup2\n  sload\n  dup2\n  0xffffffffffffffffffffffffffffffffffffffff\n  mul\n  not\n  and\n  swap1\n  dup4\n  0xffffffffffffffffffffffffffffffffffffffff\n  and\n  mul\n  or\n  swap1\n  sstore\n  pop\n    /* \"ReputationControl.sol\":1254:1258  true */\n  0x01\n    /* \"ReputationControl.sol\":1227:1240  _participants */\n  dup1\n    /* \"ReputationControl.sol\":1227:1251  _participants[_operator] */\n  0x00\n    /* \"ReputationControl.sol\":1241:1250  _operator */\n  0x03\n  0x00\n  swap1\n  sload\n  swap1\n  0x0100\n  exp\n  swap1\n  div\n  0xffffffffffffffffffffffffffffffffffffffff\n  and\n    /* \"ReputationControl.sol\":1227:1251  _participants[_operator] */\n  0xffffffffffffffffffffffffffffffffffffffff\n  and\n  0xffffffffffffffffffffffffffffffffffffffff\n  and\n  dup2\n  mstore\n  0x20\n  add\n  swap1\n  dup2\n  mstore\n  0x20\n  add\n  0x00\n  keccak256\n  0x00\n    /* \"ReputationControl.sol\":1227:1258  _participants[_operator] = true */\n  0x0100\n  exp\n  dup2\n  sload\n  dup2\n  0xff\n  mul\n  not\n  and\n  swap1\n  dup4\n  iszero\n  iszero\n  mul\n  or\n  swap1\n  sstore\n  pop\n    /* \"ReputationControl.sol\":1294:1298  true */\n  0x01\n    /* \"ReputationControl.sol\":1269:1280  _authorized */\n  0x02\n    /* \"ReputationControl.sol\":1269:1291  _authorized[_operator] */\n  0x00\n    /* \"ReputationControl.sol\":1281:1290  _operator */\n  0x03\n  0x00\n  swap1\n  sload\n  swap1\n  0x0100\n  exp\n  swap1\n  div\n  0xffffffffffffffffffffffffffffffffffffffff\n  and\n    /* \"ReputationControl.sol\":1269:1291  _authorized[_operator] */\n  0xffffffffffffffffffffffffffffffffffffffff\n  and\n  0xffffffffffffffffffffffffffffffffffffffff\n  and\n  dup2\n  mstore\n  0x20\n  add\n  swap1\n  dup2\n  mstore\n  0x20\n  add\n  0x00\n  keccak256\n  0x00\n    /* \"ReputationControl.sol\":1269:1298  _authorized[_operator] = true */\n  0x0100\n  exp\n  dup2\n  sload\n  dup2\n  0xff\n  mul\n  not\n  and\n  swap1\n  dup4\n  iszero\n  iszero\n  mul\n  or\n  swap1\n  sstore\n  pop\n    /* \"ReputationControl.sol\":1337:1341  true */\n  0x01\n    /* \"ReputationControl.sol\":1309:1322  _participants */\n  dup1\n    /* \"ReputationControl.sol\":1309:1334  _participants[address(0)] */\n  0x00\n    /* \"ReputationControl.sol\":1331:1332  0 */\n  dup1\n    /* \"ReputationControl.sol\":1309:1334  _participants[address(0)] */\n  0xffffffffffffffffffffffffffffffffffffffff\n  and\n  0xffffffffffffffffffffffffffffffffffffffff\n  and\n  dup2\n  mstore\n  0x20\n  add\n  swap1\n  dup2\n  mstore\n  0x20\n  add\n  0x00\n  keccak256\n  0x00\n    /* \"ReputationControl.sol\":1309:1341  _participants[address(0)] = true */\n  0x0100\n  exp\n  dup2\n  sload\n  dup2\n  0xff\n  mul\n  not\n  and\n  swap1\n  dup4\n  iszero\n  iszero\n  mul\n  or\n  swap1\n  sstore\n  pop\n    /* \"ReputationControl.sol\":817:5322  contract ERC4974 is IERC4974{... */\n  jump(tag_7)\n    /* \"#utility.yul\":7:176   */\ntag_8:\n    /* \"#utility.yul\":91:102   */\n  0x00\n    /* \"#utility.yul\":125:131   */\n  dup3\n    /* \"#utility.yul\":120:123   */\n  dup3\n    /* \"#utility.yul\":113:132   */\n  mstore\n    /* \"#utility.yul\":165:169   */\n  0x20\n    /* \"#utility.yul\":160:163   */\n  dup3\n    /* \"#utility.yul\":156:170   */\n  add\n    /* \"#utility.yul\":141:170   */\n  swap1\n  pop\n    /* \"#utility.yul\":7:176   */\n  swap3\n  swap2\n  pop\n  pop\n  jump\t// out\n    /* \"#utility.yul\":182:405   */\ntag_9:\n    /* \"#utility.yul\":322:356   */\n  0x4f70657261746f722063616e6e6f7420626520746865207a65726f2061646472\n    /* \"#utility.yul\":318:319   */\n  0x00\n    /* \"#utility.yul\":310:316   */\n  dup3\n    /* \"#utility.yul\":306:320   */\n  add\n    /* \"#utility.yul\":299:357   */\n  mstore\n    /* \"#utility.yul\":391:397   */\n  0x6573732e00000000000000000000000000000000000000000000000000000000\n    /* \"#utility.yul\":386:388   */\n  0x20\n    /* \"#utility.yul\":378:384   */\n  dup3\n    /* \"#utility.yul\":374:389   */\n  add\n    /* \"#utility.yul\":367:398   */\n  mstore\n    /* \"#utility.yul\":182:405   */\n  pop\n  jump\t// out\n    /* \"#utility.yul\":411:777   */\ntag_10:\n    /* \"#utility.yul\":553:556   */\n  0x00\n    /* \"#utility.yul\":574:641   */\n  tag_15\n    /* \"#utility.yul\":638:640   */\n  0x24\n    /* \"#utility.yul\":633:636   */\n  dup4\n    /* \"#utility.yul\":574:641   */\n  tag_8\n  jump\t// in\ntag_15:\n    /* \"#utility.yul\":567:641   */\n  swap2\n  pop\n    /* \"#utility.yul\":650:743   */\n  tag_16\n    /* \"#utility.yul\":739:742   */\n  dup3\n    /* \"#utility.yul\":650:743   */\n  tag_9\n  jump\t// in\ntag_16:\n    /* \"#utility.yul\":768:770   */\n  0x40\n    /* \"#utility.yul\":763:766   */\n  dup3\n    /* \"#utility.yul\":759:771   */\n  add\n    /* \"#utility.yul\":752:771   */\n  swap1\n  pop\n    /* \"#utility.yul\":411:777   */\n  swap2\n  swap1\n  pop\n  jump\t// out\n    /* \"#utility.yul\":783:1202   */\ntag_6:\n    /* \"#utility.yul\":949:953   */\n  0x00\n    /* \"#utility.yul\":987:989   */\n  0x20\n    /* \"#utility.yul\":976:985   */\n  dup3\n    /* \"#utility.yul\":972:990   */\n  add\n    /* \"#utility.yul\":964:990   */\n  swap1\n  pop\n    /* \"#utility.yul\":1036:1045   */\n  dup2\n    /* \"#utility.yul\":1030:1034   */\n  dup2\n    /* \"#utility.yul\":1026:1046   */\n  sub\n    /* \"#utility.yul\":1022:1023   */\n  0x00\n    /* \"#utility.yul\":1011:1020   */\n  dup4\n    /* \"#utility.yul\":1007:1024   */\n  add\n    /* \"#utility.yul\":1000:1047   */\n  mstore\n    /* \"#utility.yul\":1064:1195   */\n  tag_18\n    /* \"#utility.yul\":1190:1194   */\n  dup2\n    /* \"#utility.yul\":1064:1195   */\n  tag_10\n  jump\t// in\ntag_18:\n    /* \"#utility.yul\":1056:1195   */\n  swap1\n  pop\n    /* \"#utility.yul\":783:1202   */\n  swap2\n  swap1\n  pop\n  jump\t// out\n    /* \"ReputationControl.sol\":817:5322  contract ERC4974 is IERC4974{... */\ntag_7:\n  dataSize(sub_0)\n  dup1\n  dataOffset(sub_0)\n  0x00\n  codecopy\n  0x00\n  return\nstop\n\nsub_0: assembly {\n        /* \"ReputationControl.sol\":817:5322  contract ERC4974 is IERC4974{... */\n      mstore(0x40, 0x80)\n      callvalue\n      dup1\n      iszero\n      tag_1\n      jumpi\n      0x00\n      dup1\n      revert\n    tag_1:\n      pop\n      jumpi(tag_2, lt(calldatasize, 0x04))\n      shr(0xe0, calldataload(0x00))\n      dup1\n      0x570ca735\n      gt\n      tag_14\n      jumpi\n      dup1\n      0x570ca735\n      eq\n      tag_8\n      jumpi\n      dup1\n      0x70a08231\n      eq\n      tag_9\n      jumpi\n      dup1\n      0x9dc29fac\n      eq\n      tag_10\n      jumpi\n      dup1\n      0xb3ab15fb\n      eq\n      tag_11\n      jumpi\n      dup1\n      0xd3df65ee\n      eq\n      tag_12\n      jumpi\n      dup1\n      0xf00eaafc\n      eq\n      tag_13\n      jumpi\n      jump(tag_2)\n    tag_14:\n      dup1\n      0x025c126e\n      eq\n      tag_3\n      jumpi\n      dup1\n      0x0cd8418d\n      eq\n      tag_4\n      jumpi\n      dup1\n      0x18160ddd\n      eq\n      tag_5\n      jumpi\n      dup1\n      0x308b8c00\n      eq\n      tag_6\n      jumpi\n      dup1\n      0x40c10f19\n      eq\n      tag_7\n      jumpi\n    tag_2:\n      0x00\n      dup1\n      revert\n        /* \"ReputationControl.sol\":2036:2197  function setAuthorization(address account) external virtual onlyOperator{... */\n    tag_3:\n      tag_15\n      0x04\n      dup1\n      calldatasize\n      sub\n      dup2\n      add\n      swap1\n      tag_16\n      swap2\n      swap1\n      tag_17\n      jump\t// in\n    tag_16:\n      tag_18\n      jump\t// in\n    tag_15:\n      stop\n        /* \"ReputationControl.sol\":1789:1998  function setParticipation(address participant, bool participation) external virtual override onlyOperator{... */\n    tag_4:\n      tag_19\n      0x04\n      dup1\n      calldatasize\n      sub\n      dup2\n      add\n      swap1\n      tag_20\n      swap2\n      swap1\n      tag_21\n      jump\t// in\n    tag_20:\n      tag_22\n      jump\t// in\n    tag_19:\n      stop\n        /* \"ReputationControl.sol\":2891:2992  function totalSupply() external view virtual returns (uint256) {... */\n    tag_5:\n      tag_23\n      tag_24\n      jump\t// in\n    tag_23:\n      mload(0x40)\n      tag_25\n      swap2\n      swap1\n      tag_26\n      jump\t// in\n    tag_25:\n      mload(0x40)\n      dup1\n      swap2\n      sub\n      swap1\n      return\n        /* \"ReputationControl.sol\":3458:3618  function reallocate(address from, address to, uint256 amount) external virtual override onlyAuthorized(msg.sender){... */\n    tag_6:\n      tag_27\n      0x04\n      dup1\n      calldatasize\n      sub\n      dup2\n      add\n      swap1\n      tag_28\n      swap2\n      swap1\n      tag_29\n      jump\t// in\n    tag_28:\n      tag_30\n      jump\t// in\n    tag_27:\n      stop\n        /* \"ReputationControl.sol\":3000:3218  function mint(address to, uint256 amount) external virtual override onlyAuthorized(msg.sender){... */\n    tag_7:\n      tag_31\n      0x04\n      dup1\n      calldatasize\n      sub\n      dup2\n      add\n      swap1\n      tag_32\n      swap2\n      swap1\n      tag_33\n      jump\t// in\n    tag_32:\n      tag_34\n      jump\t// in\n    tag_31:\n      stop\n        /* \"ReputationControl.sol\":2516:2611  function operator() external view virtual returns (address) {... */\n    tag_8:\n      tag_35\n      tag_36\n      jump\t// in\n    tag_35:\n      mload(0x40)\n      tag_37\n      swap2\n      swap1\n      tag_38\n      jump\t// in\n    tag_37:\n      mload(0x40)\n      dup1\n      swap2\n      sub\n      swap1\n      return\n        /* \"ReputationControl.sol\":2619:2748  function balanceOf(address account) external view virtual override returns (uint256) {... */\n    tag_9:\n      tag_39\n      0x04\n      dup1\n      calldatasize\n      sub\n      dup2\n      add\n      swap1\n      tag_40\n      swap2\n      swap1\n      tag_17\n      jump\t// in\n    tag_40:\n      tag_41\n      jump\t// in\n    tag_39:\n      mload(0x40)\n      tag_42\n      swap2\n      swap1\n      tag_26\n      jump\t// in\n    tag_42:\n      mload(0x40)\n      dup1\n      swap2\n      sub\n      swap1\n      return\n        /* \"ReputationControl.sol\":3226:3450  function burn(address from, uint256 amount) external virtual override onlyAuthorized(msg.sender){... */\n    tag_10:\n      tag_43\n      0x04\n      dup1\n      calldatasize\n      sub\n      dup2\n      add\n      swap1\n      tag_44\n      swap2\n      swap1\n      tag_33\n      jump\t// in\n    tag_44:\n      tag_45\n      jump\t// in\n    tag_43:\n      stop\n        /* \"ReputationControl.sol\":2378:2502  function setOperator(address newOperator) external virtual override onlyOperator{... */\n    tag_11:\n      tag_46\n      0x04\n      dup1\n      calldatasize\n      sub\n      dup2\n      add\n      swap1\n      tag_47\n      swap2\n      swap1\n      tag_17\n      jump\t// in\n    tag_47:\n      tag_48\n      jump\t// in\n    tag_46:\n      stop\n        /* \"ReputationControl.sol\":2205:2370  function retireAuthorization(address account) external virtual onlyOperator{... */\n    tag_12:\n      tag_49\n      0x04\n      dup1\n      calldatasize\n      sub\n      dup2\n      add\n      swap1\n      tag_50\n      swap2\n      swap1\n      tag_17\n      jump\t// in\n    tag_50:\n      tag_51\n      jump\t// in\n    tag_49:\n      stop\n        /* \"ReputationControl.sol\":2756:2883  function participationOf(address account) external view virtual returns (bool) {... */\n    tag_13:\n      tag_52\n      0x04\n      dup1\n      calldatasize\n      sub\n      dup2\n      add\n      swap1\n      tag_53\n      swap2\n      swap1\n      tag_17\n      jump\t// in\n    tag_53:\n      tag_54\n      jump\t// in\n    tag_52:\n      mload(0x40)\n      tag_55\n      swap2\n      swap1\n      tag_56\n      jump\t// in\n    tag_55:\n      mload(0x40)\n      dup1\n      swap2\n      sub\n      swap1\n      return\n        /* \"ReputationControl.sol\":2036:2197  function setAuthorization(address account) external virtual onlyOperator{... */\n    tag_18:\n        /* \"ReputationControl.sol\":1413:1422  _operator */\n      0x03\n      0x00\n      swap1\n      sload\n      swap1\n      0x0100\n      exp\n      swap1\n      div\n      0xffffffffffffffffffffffffffffffffffffffff\n      and\n        /* \"ReputationControl.sol\":1399:1422  msg.sender == _operator */\n      0xffffffffffffffffffffffffffffffffffffffff\n      and\n        /* \"ReputationControl.sol\":1399:1409  msg.sender */\n      caller\n        /* \"ReputationControl.sol\":1399:1422  msg.sender == _operator */\n      0xffffffffffffffffffffffffffffffffffffffff\n      and\n      eq\n        /* \"ReputationControl.sol\":1391:1451  require(msg.sender == _operator, \"You must be the operator\") */\n      tag_58\n      jumpi\n      mload(0x40)\n      0x08c379a000000000000000000000000000000000000000000000000000000000\n      dup2\n      mstore\n      0x04\n      add\n      tag_59\n      swap1\n      tag_60\n      jump\t// in\n    tag_59:\n      mload(0x40)\n      dup1\n      swap2\n      sub\n      swap1\n      revert\n    tag_58:\n        /* \"ReputationControl.sol\":2141:2150  _operator */\n      0x03\n      0x00\n      swap1\n      sload\n      swap1\n      0x0100\n      exp\n      swap1\n      div\n      0xffffffffffffffffffffffffffffffffffffffff\n      and\n        /* \"ReputationControl.sol\":2127:2150  msg.sender == _operator */\n      0xffffffffffffffffffffffffffffffffffffffff\n      and\n        /* \"ReputationControl.sol\":2127:2137  msg.sender */\n      caller\n        /* \"ReputationControl.sol\":2127:2150  msg.sender == _operator */\n      0xffffffffffffffffffffffffffffffffffffffff\n      and\n      eq\n        /* \"ReputationControl.sol\":2119:2151  require(msg.sender == _operator) */\n      tag_62\n      jumpi\n      0x00\n      dup1\n      revert\n    tag_62:\n        /* \"ReputationControl.sol\":2185:2189  true */\n      0x01\n        /* \"ReputationControl.sol\":2162:2173  _authorized */\n      0x02\n        /* \"ReputationControl.sol\":2162:2182  _authorized[account] */\n      0x00\n        /* \"ReputationControl.sol\":2174:2181  account */\n      dup4\n        /* \"ReputationControl.sol\":2162:2182  _authorized[account] */\n      0xffffffffffffffffffffffffffffffffffffffff\n      and\n      0xffffffffffffffffffffffffffffffffffffffff\n      and\n      dup2\n      mstore\n      0x20\n      add\n      swap1\n      dup2\n      mstore\n      0x20\n      add\n      0x00\n      keccak256\n      0x00\n        /* \"ReputationControl.sol\":2162:2189  _authorized[account] = true */\n      0x0100\n      exp\n      dup2\n      sload\n      dup2\n      0xff\n      mul\n      not\n      and\n      swap1\n      dup4\n      iszero\n      iszero\n      mul\n      or\n      swap1\n      sstore\n      pop\n        /* \"ReputationControl.sol\":2036:2197  function setAuthorization(address account) external virtual onlyOperator{... */\n      pop\n      jump\t// out\n        /* \"ReputationControl.sol\":1789:1998  function setParticipation(address participant, bool participation) external virtual override onlyOperator{... */\n    tag_22:\n        /* \"ReputationControl.sol\":1413:1422  _operator */\n      0x03\n      0x00\n      swap1\n      sload\n      swap1\n      0x0100\n      exp\n      swap1\n      div\n      0xffffffffffffffffffffffffffffffffffffffff\n      and\n        /* \"ReputationControl.sol\":1399:1422  msg.sender == _operator */\n      0xffffffffffffffffffffffffffffffffffffffff\n      and\n        /* \"ReputationControl.sol\":1399:1409  msg.sender */\n      caller\n        /* \"ReputationControl.sol\":1399:1422  msg.sender == _operator */\n      0xffffffffffffffffffffffffffffffffffffffff\n      and\n      eq\n        /* \"ReputationControl.sol\":1391:1451  require(msg.sender == _operator, \"You must be the operator\") */\n      tag_64\n      jumpi\n      mload(0x40)\n      0x08c379a000000000000000000000000000000000000000000000000000000000\n      dup2\n      mstore\n      0x04\n      add\n      tag_65\n      swap1\n      tag_60\n      jump\t// in\n    tag_65:\n      mload(0x40)\n      dup1\n      swap2\n      sub\n      swap1\n      revert\n    tag_64:\n        /* \"ReputationControl.sol\":1927:1936  _operator */\n      0x03\n      0x00\n      swap1\n      sload\n      swap1\n      0x0100\n      exp\n      swap1\n      div\n      0xffffffffffffffffffffffffffffffffffffffff\n      and\n        /* \"ReputationControl.sol\":1913:1936  msg.sender == _operator */\n      0xffffffffffffffffffffffffffffffffffffffff\n      and\n        /* \"ReputationControl.sol\":1913:1923  msg.sender */\n      caller\n        /* \"ReputationControl.sol\":1913:1936  msg.sender == _operator */\n      0xffffffffffffffffffffffffffffffffffffffff\n      and\n      eq\n        /* \"ReputationControl.sol\":1905:1937  require(msg.sender == _operator) */\n      tag_67\n      jumpi\n      0x00\n      dup1\n      revert\n    tag_67:\n        /* \"ReputationControl.sol\":1948:1990  _participation(participant, participation) */\n      tag_68\n        /* \"ReputationControl.sol\":1963:1974  participant */\n      dup3\n        /* \"ReputationControl.sol\":1976:1989  participation */\n      dup3\n        /* \"ReputationControl.sol\":1948:1962  _participation */\n      tag_69\n        /* \"ReputationControl.sol\":1948:1990  _participation(participant, participation) */\n      jump\t// in\n    tag_68:\n        /* \"ReputationControl.sol\":1789:1998  function setParticipation(address participant, bool participation) external virtual override onlyOperator{... */\n      pop\n      pop\n      jump\t// out\n        /* \"ReputationControl.sol\":2891:2992  function totalSupply() external view virtual returns (uint256) {... */\n    tag_24:\n        /* \"ReputationControl.sol\":2945:2952  uint256 */\n      0x00\n        /* \"ReputationControl.sol\":2972:2984  _totalSupply */\n      sload(0x04)\n        /* \"ReputationControl.sol\":2965:2984  return _totalSupply */\n      swap1\n      pop\n        /* \"ReputationControl.sol\":2891:2992  function totalSupply() external view virtual returns (uint256) {... */\n      swap1\n      jump\t// out\n        /* \"ReputationControl.sol\":3458:3618  function reallocate(address from, address to, uint256 amount) external virtual override onlyAuthorized(msg.sender){... */\n    tag_30:\n        /* \"ReputationControl.sol\":3561:3571  msg.sender */\n      caller\n        /* \"ReputationControl.sol\":1536:1547  _authorized */\n      0x02\n        /* \"ReputationControl.sol\":1536:1556  _authorized[account] */\n      0x00\n        /* \"ReputationControl.sol\":1548:1555  account */\n      dup3\n        /* \"ReputationControl.sol\":1536:1556  _authorized[account] */\n      0xffffffffffffffffffffffffffffffffffffffff\n      and\n      0xffffffffffffffffffffffffffffffffffffffff\n      and\n      dup2\n      mstore\n      0x20\n      add\n      swap1\n      dup2\n      mstore\n      0x20\n      add\n      0x00\n      keccak256\n      0x00\n      swap1\n      sload\n      swap1\n      0x0100\n      exp\n      swap1\n      div\n      0xff\n      and\n        /* \"ReputationControl.sol\":1528:1557  require(_authorized[account]) */\n      tag_72\n      jumpi\n      0x00\n      dup1\n      revert\n    tag_72:\n        /* \"ReputationControl.sol\":3583:3610  _transfer(from, to, amount) */\n      tag_74\n        /* \"ReputationControl.sol\":3593:3597  from */\n      dup5\n        /* \"ReputationControl.sol\":3599:3601  to */\n      dup5\n        /* \"ReputationControl.sol\":3603:3609  amount */\n      dup5\n        /* \"ReputationControl.sol\":3583:3592  _transfer */\n      tag_75\n        /* \"ReputationControl.sol\":3583:3610  _transfer(from, to, amount) */\n      jump\t// in\n    tag_74:\n        /* \"ReputationControl.sol\":3458:3618  function reallocate(address from, address to, uint256 amount) external virtual override onlyAuthorized(msg.sender){... */\n      pop\n      pop\n      pop\n      pop\n      jump\t// out\n        /* \"ReputationControl.sol\":3000:3218  function mint(address to, uint256 amount) external virtual override onlyAuthorized(msg.sender){... */\n    tag_34:\n        /* \"ReputationControl.sol\":3083:3093  msg.sender */\n      caller\n        /* \"ReputationControl.sol\":1536:1547  _authorized */\n      0x02\n        /* \"ReputationControl.sol\":1536:1556  _authorized[account] */\n      0x00\n        /* \"ReputationControl.sol\":1548:1555  account */\n      dup3\n        /* \"ReputationControl.sol\":1536:1556  _authorized[account] */\n      0xffffffffffffffffffffffffffffffffffffffff\n      and\n      0xffffffffffffffffffffffffffffffffffffffff\n      and\n      dup2\n      mstore\n      0x20\n      add\n      swap1\n      dup2\n      mstore\n      0x20\n      add\n      0x00\n      keccak256\n      0x00\n      swap1\n      sload\n      swap1\n      0x0100\n      exp\n      swap1\n      div\n      0xff\n      and\n        /* \"ReputationControl.sol\":1528:1557  require(_authorized[account]) */\n      tag_77\n      jumpi\n      0x00\n      dup1\n      revert\n    tag_77:\n        /* \"ReputationControl.sol\":3127:3128  0 */\n      0x00\n        /* \"ReputationControl.sol\":3113:3129  to != address(0) */\n      0xffffffffffffffffffffffffffffffffffffffff\n      and\n        /* \"ReputationControl.sol\":3113:3115  to */\n      dup4\n        /* \"ReputationControl.sol\":3113:3129  to != address(0) */\n      0xffffffffffffffffffffffffffffffffffffffff\n      and\n      eq\n      iszero\n        /* \"ReputationControl.sol\":3105:3166  require(to != address(0), \"Cannot mint to the zero address.\") */\n      tag_79\n      jumpi\n      mload(0x40)\n      0x08c379a000000000000000000000000000000000000000000000000000000000\n      dup2\n      mstore\n      0x04\n      add\n      tag_80\n      swap1\n      tag_81\n      jump\t// in\n    tag_80:\n      mload(0x40)\n      dup1\n      swap2\n      sub\n      swap1\n      revert\n    tag_79:\n        /* \"ReputationControl.sol\":3177:3210  _transfer(address(0), to, amount) */\n      tag_82\n        /* \"ReputationControl.sol\":3195:3196  0 */\n      0x00\n        /* \"ReputationControl.sol\":3199:3201  to */\n      dup5\n        /* \"ReputationControl.sol\":3203:3209  amount */\n      dup5\n        /* \"ReputationControl.sol\":3177:3186  _transfer */\n      tag_75\n        /* \"ReputationControl.sol\":3177:3210  _transfer(address(0), to, amount) */\n      jump\t// in\n    tag_82:\n        /* \"ReputationControl.sol\":3000:3218  function mint(address to, uint256 amount) external virtual override onlyAuthorized(msg.sender){... */\n      pop\n      pop\n      pop\n      jump\t// out\n        /* \"ReputationControl.sol\":2516:2611  function operator() external view virtual returns (address) {... */\n    tag_36:\n        /* \"ReputationControl.sol\":2567:2574  address */\n      0x00\n        /* \"ReputationControl.sol\":2594:2603  _operator */\n      0x03\n      0x00\n      swap1\n      sload\n      swap1\n      0x0100\n      exp\n      swap1\n      div\n      0xffffffffffffffffffffffffffffffffffffffff\n      and\n        /* \"ReputationControl.sol\":2587:2603  return _operator */\n      swap1\n      pop\n        /* \"ReputationControl.sol\":2516:2611  function operator() external view virtual returns (address) {... */\n      swap1\n      jump\t// out\n        /* \"ReputationControl.sol\":2619:2748  function balanceOf(address account) external view virtual override returns (uint256) {... */\n    tag_41:\n        /* \"ReputationControl.sol\":2695:2702  uint256 */\n      0x00\n        /* \"ReputationControl.sol\":2722:2731  _balances */\n      dup1\n        /* \"ReputationControl.sol\":2722:2740  _balances[account] */\n      0x00\n        /* \"ReputationControl.sol\":2732:2739  account */\n      dup4\n        /* \"ReputationControl.sol\":2722:2740  _balances[account] */\n      0xffffffffffffffffffffffffffffffffffffffff\n      and\n      0xffffffffffffffffffffffffffffffffffffffff\n      and\n      dup2\n      mstore\n      0x20\n      add\n      swap1\n      dup2\n      mstore\n      0x20\n      add\n      0x00\n      keccak256\n      sload\n        /* \"ReputationControl.sol\":2715:2740  return _balances[account] */\n      swap1\n      pop\n        /* \"ReputationControl.sol\":2619:2748  function balanceOf(address account) external view virtual override returns (uint256) {... */\n      swap2\n      swap1\n      pop\n      jump\t// out\n        /* \"ReputationControl.sol\":3226:3450  function burn(address from, uint256 amount) external virtual override onlyAuthorized(msg.sender){... */\n    tag_45:\n        /* \"ReputationControl.sol\":3311:3321  msg.sender */\n      caller\n        /* \"ReputationControl.sol\":1536:1547  _authorized */\n      0x02\n        /* \"ReputationControl.sol\":1536:1556  _authorized[account] */\n      0x00\n        /* \"ReputationControl.sol\":1548:1555  account */\n      dup3\n        /* \"ReputationControl.sol\":1536:1556  _authorized[account] */\n      0xffffffffffffffffffffffffffffffffffffffff\n      and\n      0xffffffffffffffffffffffffffffffffffffffff\n      and\n      dup2\n      mstore\n      0x20\n      add\n      swap1\n      dup2\n      mstore\n      0x20\n      add\n      0x00\n      keccak256\n      0x00\n      swap1\n      sload\n      swap1\n      0x0100\n      exp\n      swap1\n      div\n      0xff\n      and\n        /* \"ReputationControl.sol\":1528:1557  require(_authorized[account]) */\n      tag_86\n      jumpi\n      0x00\n      dup1\n      revert\n    tag_86:\n        /* \"ReputationControl.sol\":3357:3358  0 */\n      0x00\n        /* \"ReputationControl.sol\":3341:3359  from != address(0) */\n      0xffffffffffffffffffffffffffffffffffffffff\n      and\n        /* \"ReputationControl.sol\":3341:3345  from */\n      dup4\n        /* \"ReputationControl.sol\":3341:3359  from != address(0) */\n      0xffffffffffffffffffffffffffffffffffffffff\n      and\n      eq\n      iszero\n        /* \"ReputationControl.sol\":3333:3396  require(from != address(0), \"Cannot burn to the zero address.\") */\n      tag_88\n      jumpi\n      mload(0x40)\n      0x08c379a000000000000000000000000000000000000000000000000000000000\n      dup2\n      mstore\n      0x04\n      add\n      tag_89\n      swap1\n      tag_90\n      jump\t// in\n    tag_89:\n      mload(0x40)\n      dup1\n      swap2\n      sub\n      swap1\n      revert\n    tag_88:\n        /* \"ReputationControl.sol\":3407:3442  _transfer(from, address(0), amount) */\n      tag_91\n        /* \"ReputationControl.sol\":3417:3421  from */\n      dup4\n        /* \"ReputationControl.sol\":3431:3432  0 */\n      0x00\n        /* \"ReputationControl.sol\":3435:3441  amount */\n      dup5\n        /* \"ReputationControl.sol\":3407:3416  _transfer */\n      tag_75\n        /* \"ReputationControl.sol\":3407:3442  _transfer(from, address(0), amount) */\n      jump\t// in\n    tag_91:\n        /* \"ReputationControl.sol\":3226:3450  function burn(address from, uint256 amount) external virtual override onlyAuthorized(msg.sender){... */\n      pop\n      pop\n      pop\n      jump\t// out\n        /* \"ReputationControl.sol\":2378:2502  function setOperator(address newOperator) external virtual override onlyOperator{... */\n    tag_48:\n        /* \"ReputationControl.sol\":1413:1422  _operator */\n      0x03\n      0x00\n      swap1\n      sload\n      swap1\n      0x0100\n      exp\n      swap1\n      div\n      0xffffffffffffffffffffffffffffffffffffffff\n      and\n        /* \"ReputationControl.sol\":1399:1422  msg.sender == _operator */\n      0xffffffffffffffffffffffffffffffffffffffff\n      and\n        /* \"ReputationControl.sol\":1399:1409  msg.sender */\n      caller\n        /* \"ReputationControl.sol\":1399:1422  msg.sender == _operator */\n      0xffffffffffffffffffffffffffffffffffffffff\n      and\n      eq\n        /* \"ReputationControl.sol\":1391:1451  require(msg.sender == _operator, \"You must be the operator\") */\n      tag_93\n      jumpi\n      mload(0x40)\n      0x08c379a000000000000000000000000000000000000000000000000000000000\n      dup2\n      mstore\n      0x04\n      add\n      tag_94\n      swap1\n      tag_60\n      jump\t// in\n    tag_94:\n      mload(0x40)\n      dup1\n      swap2\n      sub\n      swap1\n      revert\n    tag_93:\n        /* \"ReputationControl.sol\":2469:2494  _setOperator(newOperator) */\n      tag_96\n        /* \"ReputationControl.sol\":2482:2493  newOperator */\n      dup2\n        /* \"ReputationControl.sol\":2469:2481  _setOperator */\n      tag_97\n        /* \"ReputationControl.sol\":2469:2494  _setOperator(newOperator) */\n      jump\t// in\n    tag_96:\n        /* \"ReputationControl.sol\":2378:2502  function setOperator(address newOperator) external virtual override onlyOperator{... */\n      pop\n      jump\t// out\n        /* \"ReputationControl.sol\":2205:2370  function retireAuthorization(address account) external virtual onlyOperator{... */\n    tag_51:\n        /* \"ReputationControl.sol\":1413:1422  _operator */\n      0x03\n      0x00\n      swap1\n      sload\n      swap1\n      0x0100\n      exp\n      swap1\n      div\n      0xffffffffffffffffffffffffffffffffffffffff\n      and\n        /* \"ReputationControl.sol\":1399:1422  msg.sender == _operator */\n      0xffffffffffffffffffffffffffffffffffffffff\n      and\n        /* \"ReputationControl.sol\":1399:1409  msg.sender */\n      caller\n        /* \"ReputationControl.sol\":1399:1422  msg.sender == _operator */\n      0xffffffffffffffffffffffffffffffffffffffff\n      and\n      eq\n        /* \"ReputationControl.sol\":1391:1451  require(msg.sender == _operator, \"You must be the operator\") */\n      tag_99\n      jumpi\n      mload(0x40)\n      0x08c379a000000000000000000000000000000000000000000000000000000000\n      dup2\n      mstore\n      0x04\n      add\n      tag_100\n      swap1\n      tag_60\n      jump\t// in\n    tag_100:\n      mload(0x40)\n      dup1\n      swap2\n      sub\n      swap1\n      revert\n    tag_99:\n        /* \"ReputationControl.sol\":2313:2322  _operator */\n      0x03\n      0x00\n      swap1\n      sload\n      swap1\n      0x0100\n      exp\n      swap1\n      div\n      0xffffffffffffffffffffffffffffffffffffffff\n      and\n        /* \"ReputationControl.sol\":2299:2322  msg.sender == _operator */\n      0xffffffffffffffffffffffffffffffffffffffff\n      and\n        /* \"ReputationControl.sol\":2299:2309  msg.sender */\n      caller\n        /* \"ReputationControl.sol\":2299:2322  msg.sender == _operator */\n      0xffffffffffffffffffffffffffffffffffffffff\n      and\n      eq\n        /* \"ReputationControl.sol\":2291:2323  require(msg.sender == _operator) */\n      tag_102\n      jumpi\n      0x00\n      dup1\n      revert\n    tag_102:\n        /* \"ReputationControl.sol\":2357:2362  false */\n      0x00\n        /* \"ReputationControl.sol\":2334:2345  _authorized */\n      0x02\n        /* \"ReputationControl.sol\":2334:2354  _authorized[account] */\n      0x00\n        /* \"ReputationControl.sol\":2346:2353  account */\n      dup4\n        /* \"ReputationControl.sol\":2334:2354  _authorized[account] */\n      0xffffffffffffffffffffffffffffffffffffffff\n      and\n      0xffffffffffffffffffffffffffffffffffffffff\n      and\n      dup2\n      mstore\n      0x20\n      add\n      swap1\n      dup2\n      mstore\n      0x20\n      add\n      0x00\n      keccak256\n      0x00\n        /* \"ReputationControl.sol\":2334:2362  _authorized[account] = false */\n      0x0100\n      exp\n      dup2\n      sload\n      dup2\n      0xff\n      mul\n      not\n      and\n      swap1\n      dup4\n      iszero\n      iszero\n      mul\n      or\n      swap1\n      sstore\n      pop\n        /* \"ReputationControl.sol\":2205:2370  function retireAuthorization(address account) external virtual onlyOperator{... */\n      pop\n      jump\t// out\n        /* \"ReputationControl.sol\":2756:2883  function participationOf(address account) external view virtual returns (bool) {... */\n    tag_54:\n        /* \"ReputationControl.sol\":2829:2833  bool */\n      0x00\n        /* \"ReputationControl.sol\":2853:2866  _participants */\n      0x01\n        /* \"ReputationControl.sol\":2853:2875  _participants[account] */\n      0x00\n        /* \"ReputationControl.sol\":2867:2874  account */\n      dup4\n        /* \"ReputationControl.sol\":2853:2875  _participants[account] */\n      0xffffffffffffffffffffffffffffffffffffffff\n      and\n      0xffffffffffffffffffffffffffffffffffffffff\n      and\n      dup2\n      mstore\n      0x20\n      add\n      swap1\n      dup2\n      mstore\n      0x20\n      add\n      0x00\n      keccak256\n      0x00\n      swap1\n      sload\n      swap1\n      0x0100\n      exp\n      swap1\n      div\n      0xff\n      and\n        /* \"ReputationControl.sol\":2846:2875  return _participants[account] */\n      swap1\n      pop\n        /* \"ReputationControl.sol\":2756:2883  function participationOf(address account) external view virtual returns (bool) {... */\n      swap2\n      swap1\n      pop\n      jump\t// out\n        /* \"ReputationControl.sol\":4373:4848  function _participation(address participant, bool participation) internal virtual {... */\n    tag_69:\n        /* \"ReputationControl.sol\":4488:4497  _operator */\n      0x03\n      0x00\n      swap1\n      sload\n      swap1\n      0x0100\n      exp\n      swap1\n      div\n      0xffffffffffffffffffffffffffffffffffffffff\n      and\n        /* \"ReputationControl.sol\":4474:4497  msg.sender == _operator */\n      0xffffffffffffffffffffffffffffffffffffffff\n      and\n        /* \"ReputationControl.sol\":4474:4484  msg.sender */\n      caller\n        /* \"ReputationControl.sol\":4474:4497  msg.sender == _operator */\n      0xffffffffffffffffffffffffffffffffffffffff\n      and\n      eq\n        /* \"ReputationControl.sol\":4466:4537  require(msg.sender == _operator,\"Operator cannot change participation\") */\n      tag_105\n      jumpi\n      mload(0x40)\n      0x08c379a000000000000000000000000000000000000000000000000000000000\n      dup2\n      mstore\n      0x04\n      add\n      tag_106\n      swap1\n      tag_107\n      jump\t// in\n    tag_106:\n      mload(0x40)\n      dup1\n      swap2\n      sub\n      swap1\n      revert\n    tag_105:\n        /* \"ReputationControl.sol\":4579:4580  0 */\n      0x00\n        /* \"ReputationControl.sol\":4556:4581  participant != address(0) */\n      0xffffffffffffffffffffffffffffffffffffffff\n      and\n        /* \"ReputationControl.sol\":4556:4567  participant */\n      dup3\n        /* \"ReputationControl.sol\":4556:4581  participant != address(0) */\n      0xffffffffffffffffffffffffffffffffffffffff\n      and\n      eq\n      iszero\n        /* \"ReputationControl.sol\":4548:4617  require(participant != address(0), \"Zero address cannot be removed.\") */\n      tag_108\n      jumpi\n      mload(0x40)\n      0x08c379a000000000000000000000000000000000000000000000000000000000\n      dup2\n      mstore\n      0x04\n      add\n      tag_109\n      swap1\n      tag_110\n      jump\t// in\n    tag_109:\n      mload(0x40)\n      dup1\n      swap2\n      sub\n      swap1\n      revert\n    tag_108:\n        /* \"ReputationControl.sol\":4666:4679  participation */\n      dup1\n        /* \"ReputationControl.sol\":4636:4679  _participants[participant] != participation */\n      iszero\n      iszero\n        /* \"ReputationControl.sol\":4636:4649  _participants */\n      0x01\n        /* \"ReputationControl.sol\":4636:4662  _participants[participant] */\n      0x00\n        /* \"ReputationControl.sol\":4650:4661  participant */\n      dup5\n        /* \"ReputationControl.sol\":4636:4662  _participants[participant] */\n      0xffffffffffffffffffffffffffffffffffffffff\n      and\n      0xffffffffffffffffffffffffffffffffffffffff\n      and\n      dup2\n      mstore\n      0x20\n      add\n      swap1\n      dup2\n      mstore\n      0x20\n      add\n      0x00\n      keccak256\n      0x00\n      swap1\n      sload\n      swap1\n      0x0100\n      exp\n      swap1\n      div\n      0xff\n      and\n        /* \"ReputationControl.sol\":4636:4679  _participants[participant] != participation */\n      iszero\n      iszero\n      eq\n      iszero\n        /* \"ReputationControl.sol\":4628:4730  require(_participants[participant] != participation, \"Participant already has {participation} status\") */\n      tag_111\n      jumpi\n      mload(0x40)\n      0x08c379a000000000000000000000000000000000000000000000000000000000\n      dup2\n      mstore\n      0x04\n      add\n      tag_112\n      swap1\n      tag_113\n      jump\t// in\n    tag_112:\n      mload(0x40)\n      dup1\n      swap2\n      sub\n      swap1\n      revert\n    tag_111:\n        /* \"ReputationControl.sol\":4770:4783  participation */\n      dup1\n        /* \"ReputationControl.sol\":4741:4754  _participants */\n      0x01\n        /* \"ReputationControl.sol\":4741:4767  _participants[participant] */\n      0x00\n        /* \"ReputationControl.sol\":4755:4766  participant */\n      dup5\n        /* \"ReputationControl.sol\":4741:4767  _participants[participant] */\n      0xffffffffffffffffffffffffffffffffffffffff\n      and\n      0xffffffffffffffffffffffffffffffffffffffff\n      and\n      dup2\n      mstore\n      0x20\n      add\n      swap1\n      dup2\n      mstore\n      0x20\n      add\n      0x00\n      keccak256\n      0x00\n        /* \"ReputationControl.sol\":4741:4783  _participants[participant] = participation */\n      0x0100\n      exp\n      dup2\n      sload\n      dup2\n      0xff\n      mul\n      not\n      and\n      swap1\n      dup4\n      iszero\n      iszero\n      mul\n      or\n      swap1\n      sstore\n      pop\n        /* \"ReputationControl.sol\":4813:4824  participant */\n      dup2\n        /* \"ReputationControl.sol\":4799:4840  Participation(participant, participation) */\n      0xffffffffffffffffffffffffffffffffffffffff\n      and\n      0x2c41d9af4701c767a5661c887f466dd2ddfba0572128a2cc04d43bd623445061\n        /* \"ReputationControl.sol\":4826:4839  participation */\n      dup3\n        /* \"ReputationControl.sol\":4799:4840  Participation(participant, participation) */\n      mload(0x40)\n      tag_114\n      swap2\n      swap1\n      tag_56\n      jump\t// in\n    tag_114:\n      mload(0x40)\n      dup1\n      swap2\n      sub\n      swap1\n      log2\n        /* \"ReputationControl.sol\":4373:4848  function _participation(address participant, bool participation) internal virtual {... */\n      pop\n      pop\n      jump\t// out\n        /* \"ReputationControl.sol\":3689:4365  function _transfer(... */\n    tag_75:\n        /* \"ReputationControl.sol\":3834:3843  _operator */\n      0x03\n      0x00\n      swap1\n      sload\n      swap1\n      0x0100\n      exp\n      swap1\n      div\n      0xffffffffffffffffffffffffffffffffffffffff\n      and\n        /* \"ReputationControl.sol\":3820:3843  msg.sender == _operator */\n      0xffffffffffffffffffffffffffffffffffffffff\n      and\n        /* \"ReputationControl.sol\":3820:3830  msg.sender */\n      caller\n        /* \"ReputationControl.sol\":3820:3843  msg.sender == _operator */\n      0xffffffffffffffffffffffffffffffffffffffff\n      and\n      eq\n        /* \"ReputationControl.sol\":3812:3875  require(msg.sender == _operator, \"Sender is not the operator.\") */\n      tag_116\n      jumpi\n      mload(0x40)\n      0x08c379a000000000000000000000000000000000000000000000000000000000\n      dup2\n      mstore\n      0x04\n      add\n      tag_117\n      swap1\n      tag_118\n      jump\t// in\n    tag_117:\n      mload(0x40)\n      dup1\n      swap2\n      sub\n      swap1\n      revert\n    tag_116:\n        /* \"ReputationControl.sol\":3915:3919  true */\n      0x01\n        /* \"ReputationControl.sol\":3894:3919  _participants[to] == true */\n      iszero\n      iszero\n        /* \"ReputationControl.sol\":3894:3907  _participants */\n      0x01\n        /* \"ReputationControl.sol\":3894:3911  _participants[to] */\n      0x00\n        /* \"ReputationControl.sol\":3908:3910  to */\n      dup5\n        /* \"ReputationControl.sol\":3894:3911  _participants[to] */\n      0xffffffffffffffffffffffffffffffffffffffff\n      and\n      0xffffffffffffffffffffffffffffffffffffffff\n      and\n      dup2\n      mstore\n      0x20\n      add\n      swap1\n      dup2\n      mstore\n      0x20\n      add\n      0x00\n      keccak256\n      0x00\n      swap1\n      sload\n      swap1\n      0x0100\n      exp\n      swap1\n      div\n      0xff\n      and\n        /* \"ReputationControl.sol\":3894:3919  _participants[to] == true */\n      iszero\n      iszero\n      eq\n        /* \"ReputationControl.sol\":3886:3966  require(_participants[to] == true, \"{to} address is not an active participant.\") */\n      tag_119\n      jumpi\n      mload(0x40)\n      0x08c379a000000000000000000000000000000000000000000000000000000000\n      dup2\n      mstore\n      0x04\n      add\n      tag_120\n      swap1\n      tag_121\n      jump\t// in\n    tag_120:\n      mload(0x40)\n      dup1\n      swap2\n      sub\n      swap1\n      revert\n    tag_119:\n        /* \"ReputationControl.sol\":3997:3998  0 */\n      0x00\n        /* \"ReputationControl.sol\":3981:3999  from == address(0) */\n      0xffffffffffffffffffffffffffffffffffffffff\n      and\n        /* \"ReputationControl.sol\":3981:3985  from */\n      dup4\n        /* \"ReputationControl.sol\":3981:3999  from == address(0) */\n      0xffffffffffffffffffffffffffffffffffffffff\n      and\n      eq\n        /* \"ReputationControl.sol\":3977:4282  if (from == address(0)) {... */\n      iszero\n      tag_122\n      jumpi\n        /* \"ReputationControl.sol\":4032:4038  amount */\n      dup1\n        /* \"ReputationControl.sol\":4016:4028  _totalSupply */\n      0x04\n      0x00\n        /* \"ReputationControl.sol\":4016:4038  _totalSupply += amount */\n      dup3\n      dup3\n      sload\n      tag_123\n      swap2\n      swap1\n      tag_124\n      jump\t// in\n    tag_123:\n      swap3\n      pop\n      pop\n      dup2\n      swap1\n      sstore\n      pop\n        /* \"ReputationControl.sol\":3977:4282  if (from == address(0)) {... */\n      jump(tag_125)\n    tag_122:\n        /* \"ReputationControl.sol\":4074:4075  0 */\n      0x00\n        /* \"ReputationControl.sol\":4060:4076  to == address(0) */\n      0xffffffffffffffffffffffffffffffffffffffff\n      and\n        /* \"ReputationControl.sol\":4060:4062  to */\n      dup3\n        /* \"ReputationControl.sol\":4060:4076  to == address(0) */\n      0xffffffffffffffffffffffffffffffffffffffff\n      and\n      eq\n        /* \"ReputationControl.sol\":4056:4282  if (to == address(0)) {... */\n      iszero\n      tag_126\n      jumpi\n        /* \"ReputationControl.sol\":4109:4115  amount */\n      dup1\n        /* \"ReputationControl.sol\":4093:4105  _totalSupply */\n      0x04\n      0x00\n        /* \"ReputationControl.sol\":4093:4115  _totalSupply -= amount */\n      dup3\n      dup3\n      sload\n      tag_127\n      swap2\n      swap1\n      tag_128\n      jump\t// in\n    tag_127:\n      swap3\n      pop\n      pop\n      dup2\n      swap1\n      sstore\n      pop\n        /* \"ReputationControl.sol\":4056:4282  if (to == address(0)) {... */\n      jump(tag_129)\n    tag_126:\n        /* \"ReputationControl.sol\":4175:4181  amount */\n      dup1\n        /* \"ReputationControl.sol\":4156:4165  _balances */\n      0x00\n        /* \"ReputationControl.sol\":4156:4171  _balances[from] */\n      dup1\n        /* \"ReputationControl.sol\":4166:4170  from */\n      dup6\n        /* \"ReputationControl.sol\":4156:4171  _balances[from] */\n      0xffffffffffffffffffffffffffffffffffffffff\n      and\n      0xffffffffffffffffffffffffffffffffffffffff\n      and\n      dup2\n      mstore\n      0x20\n      add\n      swap1\n      dup2\n      mstore\n      0x20\n      add\n      0x00\n      keccak256\n      sload\n        /* \"ReputationControl.sol\":4156:4181  _balances[from] >= amount */\n      lt\n      iszero\n        /* \"ReputationControl.sol\":4148:4230  require(_balances[from] >= amount, \"{from} address holds less EXP than {amount}.\") */\n      tag_130\n      jumpi\n      mload(0x40)\n      0x08c379a000000000000000000000000000000000000000000000000000000000\n      dup2\n      mstore\n      0x04\n      add\n      tag_131\n      swap1\n      tag_132\n      jump\t// in\n    tag_131:\n      mload(0x40)\n      dup1\n      swap2\n      sub\n      swap1\n      revert\n    tag_130:\n        /* \"ReputationControl.sol\":4264:4270  amount */\n      dup1\n        /* \"ReputationControl.sol\":4245:4254  _balances */\n      0x00\n        /* \"ReputationControl.sol\":4245:4260  _balances[from] */\n      dup1\n        /* \"ReputationControl.sol\":4255:4259  from */\n      dup6\n        /* \"ReputationControl.sol\":4245:4260  _balances[from] */\n      0xffffffffffffffffffffffffffffffffffffffff\n      and\n      0xffffffffffffffffffffffffffffffffffffffff\n      and\n      dup2\n      mstore\n      0x20\n      add\n      swap1\n      dup2\n      mstore\n      0x20\n      add\n      0x00\n      keccak256\n      0x00\n        /* \"ReputationControl.sol\":4245:4270  _balances[from] -= amount */\n      dup3\n      dup3\n      sload\n      tag_133\n      swap2\n      swap1\n      tag_128\n      jump\t// in\n    tag_133:\n      swap3\n      pop\n      pop\n      dup2\n      swap1\n      sstore\n      pop\n        /* \"ReputationControl.sol\":4056:4282  if (to == address(0)) {... */\n    tag_129:\n        /* \"ReputationControl.sol\":3977:4282  if (from == address(0)) {... */\n    tag_125:\n        /* \"ReputationControl.sol\":4309:4315  amount */\n      dup1\n        /* \"ReputationControl.sol\":4292:4301  _balances */\n      0x00\n        /* \"ReputationControl.sol\":4292:4305  _balances[to] */\n      dup1\n        /* \"ReputationControl.sol\":4302:4304  to */\n      dup5\n        /* \"ReputationControl.sol\":4292:4305  _balances[to] */\n      0xffffffffffffffffffffffffffffffffffffffff\n      and\n      0xffffffffffffffffffffffffffffffffffffffff\n      and\n      dup2\n      mstore\n      0x20\n      add\n      swap1\n      dup2\n      mstore\n      0x20\n      add\n      0x00\n      keccak256\n      0x00\n        /* \"ReputationControl.sol\":4292:4315  _balances[to] += amount */\n      dup3\n      dup3\n      sload\n      tag_134\n      swap2\n      swap1\n      tag_124\n      jump\t// in\n    tag_134:\n      swap3\n      pop\n      pop\n      dup2\n      swap1\n      sstore\n      pop\n        /* \"ReputationControl.sol\":4346:4348  to */\n      dup2\n        /* \"ReputationControl.sol\":4331:4357  Transfer(from, to, amount) */\n      0xffffffffffffffffffffffffffffffffffffffff\n      and\n        /* \"ReputationControl.sol\":4340:4344  from */\n      dup4\n        /* \"ReputationControl.sol\":4331:4357  Transfer(from, to, amount) */\n      0xffffffffffffffffffffffffffffffffffffffff\n      and\n      0xddf252ad1be2c89b69c2b068fc378daa952ba7f163c4a11628f55a4df523b3ef\n        /* \"ReputationControl.sol\":4350:4356  amount */\n      dup4\n        /* \"ReputationControl.sol\":4331:4357  Transfer(from, to, amount) */\n      mload(0x40)\n      tag_135\n      swap2\n      swap1\n      tag_26\n      jump\t// in\n    tag_135:\n      mload(0x40)\n      dup1\n      swap2\n      sub\n      swap1\n      log3\n        /* \"ReputationControl.sol\":3689:4365  function _transfer(... */\n      pop\n      pop\n      pop\n      jump\t// out\n        /* \"ReputationControl.sol\":4856:5172  function _setOperator(address newOperator) internal virtual {... */\n    tag_97:\n        /* \"ReputationControl.sol\":4958:4959  0 */\n      0x00\n        /* \"ReputationControl.sol\":4935:4960  newOperator != address(0) */\n      0xffffffffffffffffffffffffffffffffffffffff\n      and\n        /* \"ReputationControl.sol\":4935:4946  newOperator */\n      dup2\n        /* \"ReputationControl.sol\":4935:4960  newOperator != address(0) */\n      0xffffffffffffffffffffffffffffffffffffffff\n      and\n      eq\n      iszero\n        /* \"ReputationControl.sol\":4927:5001  require(newOperator != address(0), \"Operator cannot be the zero address.\") */\n      tag_137\n      jumpi\n      mload(0x40)\n      0x08c379a000000000000000000000000000000000000000000000000000000000\n      dup2\n      mstore\n      0x04\n      add\n      tag_138\n      swap1\n      tag_139\n      jump\t// in\n    tag_138:\n      mload(0x40)\n      dup1\n      swap2\n      sub\n      swap1\n      revert\n    tag_137:\n        /* \"ReputationControl.sol\":5033:5044  newOperator */\n      dup1\n        /* \"ReputationControl.sol\":5020:5044  _operator != newOperator */\n      0xffffffffffffffffffffffffffffffffffffffff\n      and\n        /* \"ReputationControl.sol\":5020:5029  _operator */\n      0x03\n      0x00\n      swap1\n      sload\n      swap1\n      0x0100\n      exp\n      swap1\n      div\n      0xffffffffffffffffffffffffffffffffffffffff\n      and\n        /* \"ReputationControl.sol\":5020:5044  _operator != newOperator */\n      0xffffffffffffffffffffffffffffffffffffffff\n      and\n      eq\n      iszero\n        /* \"ReputationControl.sol\":5012:5090  require(_operator != newOperator, \"{address} is already assigned as operator\") */\n      tag_140\n      jumpi\n      mload(0x40)\n      0x08c379a000000000000000000000000000000000000000000000000000000000\n      dup2\n      mstore\n      0x04\n      add\n      tag_141\n      swap1\n      tag_142\n      jump\t// in\n    tag_141:\n      mload(0x40)\n      dup1\n      swap2\n      sub\n      swap1\n      revert\n    tag_140:\n        /* \"ReputationControl.sol\":5113:5124  newOperator */\n      dup1\n        /* \"ReputationControl.sol\":5101:5110  _operator */\n      0x03\n      0x00\n        /* \"ReputationControl.sol\":5101:5124  _operator = newOperator */\n      0x0100\n      exp\n      dup2\n      sload\n      dup2\n      0xffffffffffffffffffffffffffffffffffffffff\n      mul\n      not\n      and\n      swap1\n      dup4\n      0xffffffffffffffffffffffffffffffffffffffff\n      and\n      mul\n      or\n      swap1\n      sstore\n      pop\n        /* \"ReputationControl.sol\":5152:5163  newOperator */\n      dup1\n        /* \"ReputationControl.sol\":5140:5164  Appointment(newOperator) */\n      0xffffffffffffffffffffffffffffffffffffffff\n      and\n      0x235b4d5c4596af250d851d446f469c532805433b6138b8c7ad6fcdcd07b9db27\n      mload(0x40)\n      mload(0x40)\n      dup1\n      swap2\n      sub\n      swap1\n      log2\n        /* \"ReputationControl.sol\":4856:5172  function _setOperator(address newOperator) internal virtual {... */\n      pop\n      jump\t// out\n        /* \"#utility.yul\":88:205   */\n    tag_144:\n        /* \"#utility.yul\":197:198   */\n      0x00\n        /* \"#utility.yul\":194:195   */\n      dup1\n        /* \"#utility.yul\":187:199   */\n      revert\n        /* \"#utility.yul\":334:460   */\n    tag_146:\n        /* \"#utility.yul\":371:378   */\n      0x00\n        /* \"#utility.yul\":411:453   */\n      0xffffffffffffffffffffffffffffffffffffffff\n        /* \"#utility.yul\":404:409   */\n      dup3\n        /* \"#utility.yul\":400:454   */\n      and\n        /* \"#utility.yul\":389:454   */\n      swap1\n      pop\n        /* \"#utility.yul\":334:460   */\n      swap2\n      swap1\n      pop\n      jump\t// out\n        /* \"#utility.yul\":466:562   */\n    tag_147:\n        /* \"#utility.yul\":503:510   */\n      0x00\n        /* \"#utility.yul\":532:556   */\n      tag_189\n        /* \"#utility.yul\":550:555   */\n      dup3\n        /* \"#utility.yul\":532:556   */\n      tag_146\n      jump\t// in\n    tag_189:\n        /* \"#utility.yul\":521:556   */\n      swap1\n      pop\n        /* \"#utility.yul\":466:562   */\n      swap2\n      swap1\n      pop\n      jump\t// out\n        /* \"#utility.yul\":568:690   */\n    tag_148:\n        /* \"#utility.yul\":641:665   */\n      tag_191\n        /* \"#utility.yul\":659:664   */\n      dup2\n        /* \"#utility.yul\":641:665   */\n      tag_147\n      jump\t// in\n    tag_191:\n        /* \"#utility.yul\":634:639   */\n      dup2\n        /* \"#utility.yul\":631:666   */\n      eq\n        /* \"#utility.yul\":621:684   */\n      tag_192\n      jumpi\n        /* \"#utility.yul\":680:681   */\n      0x00\n        /* \"#utility.yul\":677:678   */\n      dup1\n        /* \"#utility.yul\":670:682   */\n      revert\n        /* \"#utility.yul\":621:684   */\n    tag_192:\n        /* \"#utility.yul\":568:690   */\n      pop\n      jump\t// out\n        /* \"#utility.yul\":696:835   */\n    tag_149:\n        /* \"#utility.yul\":742:747   */\n      0x00\n        /* \"#utility.yul\":780:786   */\n      dup2\n        /* \"#utility.yul\":767:787   */\n      calldataload\n        /* \"#utility.yul\":758:787   */\n      swap1\n      pop\n        /* \"#utility.yul\":796:829   */\n      tag_194\n        /* \"#utility.yul\":823:828   */\n      dup2\n        /* \"#utility.yul\":796:829   */\n      tag_148\n      jump\t// in\n    tag_194:\n        /* \"#utility.yul\":696:835   */\n      swap3\n      swap2\n      pop\n      pop\n      jump\t// out\n        /* \"#utility.yul\":841:1170   */\n    tag_17:\n        /* \"#utility.yul\":900:906   */\n      0x00\n        /* \"#utility.yul\":949:951   */\n      0x20\n        /* \"#utility.yul\":937:946   */\n      dup3\n        /* \"#utility.yul\":928:935   */\n      dup5\n        /* \"#utility.yul\":924:947   */\n      sub\n        /* \"#utility.yul\":920:952   */\n      slt\n        /* \"#utility.yul\":917:1036   */\n      iszero\n      tag_196\n      jumpi\n        /* \"#utility.yul\":955:1034   */\n      tag_197\n      tag_144\n      jump\t// in\n    tag_197:\n        /* \"#utility.yul\":917:1036   */\n    tag_196:\n        /* \"#utility.yul\":1075:1076   */\n      0x00\n        /* \"#utility.yul\":1100:1153   */\n      tag_198\n        /* \"#utility.yul\":1145:1152   */\n      dup5\n        /* \"#utility.yul\":1136:1142   */\n      dup3\n        /* \"#utility.yul\":1125:1134   */\n      dup6\n        /* \"#utility.yul\":1121:1143   */\n      add\n        /* \"#utility.yul\":1100:1153   */\n      tag_149\n      jump\t// in\n    tag_198:\n        /* \"#utility.yul\":1090:1153   */\n      swap2\n      pop\n        /* \"#utility.yul\":1046:1163   */\n      pop\n        /* \"#utility.yul\":841:1170   */\n      swap3\n      swap2\n      pop\n      pop\n      jump\t// out\n        /* \"#utility.yul\":1176:1266   */\n    tag_150:\n        /* \"#utility.yul\":1210:1217   */\n      0x00\n        /* \"#utility.yul\":1253:1258   */\n      dup2\n        /* \"#utility.yul\":1246:1259   */\n      iszero\n        /* \"#utility.yul\":1239:1260   */\n      iszero\n        /* \"#utility.yul\":1228:1260   */\n      swap1\n      pop\n        /* \"#utility.yul\":1176:1266   */\n      swap2\n      swap1\n      pop\n      jump\t// out\n        /* \"#utility.yul\":1272:1388   */\n    tag_151:\n        /* \"#utility.yul\":1342:1363   */\n      tag_201\n        /* \"#utility.yul\":1357:1362   */\n      dup2\n        /* \"#utility.yul\":1342:1363   */\n      tag_150\n      jump\t// in\n    tag_201:\n        /* \"#utility.yul\":1335:1340   */\n      dup2\n        /* \"#utility.yul\":1332:1364   */\n      eq\n        /* \"#utility.yul\":1322:1382   */\n      tag_202\n      jumpi\n        /* \"#utility.yul\":1378:1379   */\n      0x00\n        /* \"#utility.yul\":1375:1376   */\n      dup1\n        /* \"#utility.yul\":1368:1380   */\n      revert\n        /* \"#utility.yul\":1322:1382   */\n    tag_202:\n        /* \"#utility.yul\":1272:1388   */\n      pop\n      jump\t// out\n        /* \"#utility.yul\":1394:1527   */\n    tag_152:\n        /* \"#utility.yul\":1437:1442   */\n      0x00\n        /* \"#utility.yul\":1475:1481   */\n      dup2\n        /* \"#utility.yul\":1462:1482   */\n      calldataload\n        /* \"#utility.yul\":1453:1482   */\n      swap1\n      pop\n        /* \"#utility.yul\":1491:1521   */\n      tag_204\n        /* \"#utility.yul\":1515:1520   */\n      dup2\n        /* \"#utility.yul\":1491:1521   */\n      tag_151\n      jump\t// in\n    tag_204:\n        /* \"#utility.yul\":1394:1527   */\n      swap3\n      swap2\n      pop\n      pop\n      jump\t// out\n        /* \"#utility.yul\":1533:2001   */\n    tag_21:\n        /* \"#utility.yul\":1598:1604   */\n      0x00\n        /* \"#utility.yul\":1606:1612   */\n      dup1\n        /* \"#utility.yul\":1655:1657   */\n      0x40\n        /* \"#utility.yul\":1643:1652   */\n      dup4\n        /* \"#utility.yul\":1634:1641   */\n      dup6\n        /* \"#utility.yul\":1630:1653   */\n      sub\n        /* \"#utility.yul\":1626:1658   */\n      slt\n        /* \"#utility.yul\":1623:1742   */\n      iszero\n      tag_206\n      jumpi\n        /* \"#utility.yul\":1661:1740   */\n      tag_207\n      tag_144\n      jump\t// in\n    tag_207:\n        /* \"#utility.yul\":1623:1742   */\n    tag_206:\n        /* \"#utility.yul\":1781:1782   */\n      0x00\n        /* \"#utility.yul\":1806:1859   */\n      tag_208\n        /* \"#utility.yul\":1851:1858   */\n      dup6\n        /* \"#utility.yul\":1842:1848   */\n      dup3\n        /* \"#utility.yul\":1831:1840   */\n      dup7\n        /* \"#utility.yul\":1827:1849   */\n      add\n        /* \"#utility.yul\":1806:1859   */\n      tag_149\n      jump\t// in\n    tag_208:\n        /* \"#utility.yul\":1796:1859   */\n      swap3\n      pop\n        /* \"#utility.yul\":1752:1869   */\n      pop\n        /* \"#utility.yul\":1908:1910   */\n      0x20\n        /* \"#utility.yul\":1934:1984   */\n      tag_209\n        /* \"#utility.yul\":1976:1983   */\n      dup6\n        /* \"#utility.yul\":1967:1973   */\n      dup3\n        /* \"#utility.yul\":1956:1965   */\n      dup7\n        /* \"#utility.yul\":1952:1974   */\n      add\n        /* \"#utility.yul\":1934:1984   */\n      tag_152\n      jump\t// in\n    tag_209:\n        /* \"#utility.yul\":1924:1984   */\n      swap2\n      pop\n        /* \"#utility.yul\":1879:1994   */\n      pop\n        /* \"#utility.yul\":1533:2001   */\n      swap3\n      pop\n      swap3\n      swap1\n      pop\n      jump\t// out\n        /* \"#utility.yul\":2007:2084   */\n    tag_153:\n        /* \"#utility.yul\":2044:2051   */\n      0x00\n        /* \"#utility.yul\":2073:2078   */\n      dup2\n        /* \"#utility.yul\":2062:2078   */\n      swap1\n      pop\n        /* \"#utility.yul\":2007:2084   */\n      swap2\n      swap1\n      pop\n      jump\t// out\n        /* \"#utility.yul\":2090:2208   */\n    tag_154:\n        /* \"#utility.yul\":2177:2201   */\n      tag_212\n        /* \"#utility.yul\":2195:2200   */\n      dup2\n        /* \"#utility.yul\":2177:2201   */\n      tag_153\n      jump\t// in\n    tag_212:\n        /* \"#utility.yul\":2172:2175   */\n      dup3\n        /* \"#utility.yul\":2165:2202   */\n      mstore\n        /* \"#utility.yul\":2090:2208   */\n      pop\n      pop\n      jump\t// out\n        /* \"#utility.yul\":2214:2436   */\n    tag_26:\n        /* \"#utility.yul\":2307:2311   */\n      0x00\n        /* \"#utility.yul\":2345:2347   */\n      0x20\n        /* \"#utility.yul\":2334:2343   */\n      dup3\n        /* \"#utility.yul\":2330:2348   */\n      add\n        /* \"#utility.yul\":2322:2348   */\n      swap1\n      pop\n        /* \"#utility.yul\":2358:2429   */\n      tag_214\n        /* \"#utility.yul\":2426:2427   */\n      0x00\n        /* \"#utility.yul\":2415:2424   */\n      dup4\n        /* \"#utility.yul\":2411:2428   */\n      add\n        /* \"#utility.yul\":2402:2408   */\n      dup5\n        /* \"#utility.yul\":2358:2429   */\n      tag_154\n      jump\t// in\n    tag_214:\n        /* \"#utility.yul\":2214:2436   */\n      swap3\n      swap2\n      pop\n      pop\n      jump\t// out\n        /* \"#utility.yul\":2442:2564   */\n    tag_155:\n        /* \"#utility.yul\":2515:2539   */\n      tag_216\n        /* \"#utility.yul\":2533:2538   */\n      dup2\n        /* \"#utility.yul\":2515:2539   */\n      tag_153\n      jump\t// in\n    tag_216:\n        /* \"#utility.yul\":2508:2513   */\n      dup2\n        /* \"#utility.yul\":2505:2540   */\n      eq\n        /* \"#utility.yul\":2495:2558   */\n      tag_217\n      jumpi\n        /* \"#utility.yul\":2554:2555   */\n      0x00\n        /* \"#utility.yul\":2551:2552   */\n      dup1\n        /* \"#utility.yul\":2544:2556   */\n      revert\n        /* \"#utility.yul\":2495:2558   */\n    tag_217:\n        /* \"#utility.yul\":2442:2564   */\n      pop\n      jump\t// out\n        /* \"#utility.yul\":2570:2709   */\n    tag_156:\n        /* \"#utility.yul\":2616:2621   */\n      0x00\n        /* \"#utility.yul\":2654:2660   */\n      dup2\n        /* \"#utility.yul\":2641:2661   */\n      calldataload\n        /* \"#utility.yul\":2632:2661   */\n      swap1\n      pop\n        /* \"#utility.yul\":2670:2703   */\n      tag_219\n        /* \"#utility.yul\":2697:2702   */\n      dup2\n        /* \"#utility.yul\":2670:2703   */\n      tag_155\n      jump\t// in\n    tag_219:\n        /* \"#utility.yul\":2570:2709   */\n      swap3\n      swap2\n      pop\n      pop\n      jump\t// out\n        /* \"#utility.yul\":2715:3334   */\n    tag_29:\n        /* \"#utility.yul\":2792:2798   */\n      0x00\n        /* \"#utility.yul\":2800:2806   */\n      dup1\n        /* \"#utility.yul\":2808:2814   */\n      0x00\n        /* \"#utility.yul\":2857:2859   */\n      0x60\n        /* \"#utility.yul\":2845:2854   */\n      dup5\n        /* \"#utility.yul\":2836:2843   */\n      dup7\n        /* \"#utility.yul\":2832:2855   */\n      sub\n        /* \"#utility.yul\":2828:2860   */\n      slt\n        /* \"#utility.yul\":2825:2944   */\n      iszero\n      tag_221\n      jumpi\n        /* \"#utility.yul\":2863:2942   */\n      tag_222\n      tag_144\n      jump\t// in\n    tag_222:\n        /* \"#utility.yul\":2825:2944   */\n    tag_221:\n        /* \"#utility.yul\":2983:2984   */\n      0x00\n        /* \"#utility.yul\":3008:3061   */\n      tag_223\n        /* \"#utility.yul\":3053:3060   */\n      dup7\n        /* \"#utility.yul\":3044:3050   */\n      dup3\n        /* \"#utility.yul\":3033:3042   */\n      dup8\n        /* \"#utility.yul\":3029:3051   */\n      add\n        /* \"#utility.yul\":3008:3061   */\n      tag_149\n      jump\t// in\n    tag_223:\n        /* \"#utility.yul\":2998:3061   */\n      swap4\n      pop\n        /* \"#utility.yul\":2954:3071   */\n      pop\n        /* \"#utility.yul\":3110:3112   */\n      0x20\n        /* \"#utility.yul\":3136:3189   */\n      tag_224\n        /* \"#utility.yul\":3181:3188   */\n      dup7\n        /* \"#utility.yul\":3172:3178   */\n      dup3\n        /* \"#utility.yul\":3161:3170   */\n      dup8\n        /* \"#utility.yul\":3157:3179   */\n      add\n        /* \"#utility.yul\":3136:3189   */\n      tag_149\n      jump\t// in\n    tag_224:\n        /* \"#utility.yul\":3126:3189   */\n      swap3\n      pop\n        /* \"#utility.yul\":3081:3199   */\n      pop\n        /* \"#utility.yul\":3238:3240   */\n      0x40\n        /* \"#utility.yul\":3264:3317   */\n      tag_225\n        /* \"#utility.yul\":3309:3316   */\n      dup7\n        /* \"#utility.yul\":3300:3306   */\n      dup3\n        /* \"#utility.yul\":3289:3298   */\n      dup8\n        /* \"#utility.yul\":3285:3307   */\n      add\n        /* \"#utility.yul\":3264:3317   */\n      tag_156\n      jump\t// in\n    tag_225:\n        /* \"#utility.yul\":3254:3317   */\n      swap2\n      pop\n        /* \"#utility.yul\":3209:3327   */\n      pop\n        /* \"#utility.yul\":2715:3334   */\n      swap3\n      pop\n      swap3\n      pop\n      swap3\n      jump\t// out\n        /* \"#utility.yul\":3340:3814   */\n    tag_33:\n        /* \"#utility.yul\":3408:3414   */\n      0x00\n        /* \"#utility.yul\":3416:3422   */\n      dup1\n        /* \"#utility.yul\":3465:3467   */\n      0x40\n        /* \"#utility.yul\":3453:3462   */\n      dup4\n        /* \"#utility.yul\":3444:3451   */\n      dup6\n        /* \"#utility.yul\":3440:3463   */\n      sub\n        /* \"#utility.yul\":3436:3468   */\n      slt\n        /* \"#utility.yul\":3433:3552   */\n      iszero\n      tag_227\n      jumpi\n        /* \"#utility.yul\":3471:3550   */\n      tag_228\n      tag_144\n      jump\t// in\n    tag_228:\n        /* \"#utility.yul\":3433:3552   */\n    tag_227:\n        /* \"#utility.yul\":3591:3592   */\n      0x00\n        /* \"#utility.yul\":3616:3669   */\n      tag_229\n        /* \"#utility.yul\":3661:3668   */\n      dup6\n        /* \"#utility.yul\":3652:3658   */\n      dup3\n        /* \"#utility.yul\":3641:3650   */\n      dup7\n        /* \"#utility.yul\":3637:3659   */\n      add\n        /* \"#utility.yul\":3616:3669   */\n      tag_149\n      jump\t// in\n    tag_229:\n        /* \"#utility.yul\":3606:3669   */\n      swap3\n      pop\n        /* \"#utility.yul\":3562:3679   */\n      pop\n        /* \"#utility.yul\":3718:3720   */\n      0x20\n        /* \"#utility.yul\":3744:3797   */\n      tag_230\n        /* \"#utility.yul\":3789:3796   */\n      dup6\n        /* \"#utility.yul\":3780:3786   */\n      dup3\n        /* \"#utility.yul\":3769:3778   */\n      dup7\n        /* \"#utility.yul\":3765:3787   */\n      add\n        /* \"#utility.yul\":3744:3797   */\n      tag_156\n      jump\t// in\n    tag_230:\n        /* \"#utility.yul\":3734:3797   */\n      swap2\n      pop\n        /* \"#utility.yul\":3689:3807   */\n      pop\n        /* \"#utility.yul\":3340:3814   */\n      swap3\n      pop\n      swap3\n      swap1\n      pop\n      jump\t// out\n        /* \"#utility.yul\":3820:3938   */\n    tag_157:\n        /* \"#utility.yul\":3907:3931   */\n      tag_232\n        /* \"#utility.yul\":3925:3930   */\n      dup2\n        /* \"#utility.yul\":3907:3931   */\n      tag_147\n      jump\t// in\n    tag_232:\n        /* \"#utility.yul\":3902:3905   */\n      dup3\n        /* \"#utility.yul\":3895:3932   */\n      mstore\n        /* \"#utility.yul\":3820:3938   */\n      pop\n      pop\n      jump\t// out\n        /* \"#utility.yul\":3944:4166   */\n    tag_38:\n        /* \"#utility.yul\":4037:4041   */\n      0x00\n        /* \"#utility.yul\":4075:4077   */\n      0x20\n        /* \"#utility.yul\":4064:4073   */\n      dup3\n        /* \"#utility.yul\":4060:4078   */\n      add\n        /* \"#utility.yul\":4052:4078   */\n      swap1\n      pop\n        /* \"#utility.yul\":4088:4159   */\n      tag_234\n        /* \"#utility.yul\":4156:4157   */\n      0x00\n        /* \"#utility.yul\":4145:4154   */\n      dup4\n        /* \"#utility.yul\":4141:4158   */\n      add\n        /* \"#utility.yul\":4132:4138   */\n      dup5\n        /* \"#utility.yul\":4088:4159   */\n      tag_157\n      jump\t// in\n    tag_234:\n        /* \"#utility.yul\":3944:4166   */\n      swap3\n      swap2\n      pop\n      pop\n      jump\t// out\n        /* \"#utility.yul\":4172:4281   */\n    tag_158:\n        /* \"#utility.yul\":4253:4274   */\n      tag_236\n        /* \"#utility.yul\":4268:4273   */\n      dup2\n        /* \"#utility.yul\":4253:4274   */\n      tag_150\n      jump\t// in\n    tag_236:\n        /* \"#utility.yul\":4248:4251   */\n      dup3\n        /* \"#utility.yul\":4241:4275   */\n      mstore\n        /* \"#utility.yul\":4172:4281   */\n      pop\n      pop\n      jump\t// out\n        /* \"#utility.yul\":4287:4497   */\n    tag_56:\n        /* \"#utility.yul\":4374:4378   */\n      0x00\n        /* \"#utility.yul\":4412:4414   */\n      0x20\n        /* \"#utility.yul\":4401:4410   */\n      dup3\n        /* \"#utility.yul\":4397:4415   */\n      add\n        /* \"#utility.yul\":4389:4415   */\n      swap1\n      pop\n        /* \"#utility.yul\":4425:4490   */\n      tag_238\n        /* \"#utility.yul\":4487:4488   */\n      0x00\n        /* \"#utility.yul\":4476:4485   */\n      dup4\n        /* \"#utility.yul\":4472:4489   */\n      add\n        /* \"#utility.yul\":4463:4469   */\n      dup5\n        /* \"#utility.yul\":4425:4490   */\n      tag_158\n      jump\t// in\n    tag_238:\n        /* \"#utility.yul\":4287:4497   */\n      swap3\n      swap2\n      pop\n      pop\n      jump\t// out\n        /* \"#utility.yul\":4503:4672   */\n    tag_159:\n        /* \"#utility.yul\":4587:4598   */\n      0x00\n        /* \"#utility.yul\":4621:4627   */\n      dup3\n        /* \"#utility.yul\":4616:4619   */\n      dup3\n        /* \"#utility.yul\":4609:4628   */\n      mstore\n        /* \"#utility.yul\":4661:4665   */\n      0x20\n        /* \"#utility.yul\":4656:4659   */\n      dup3\n        /* \"#utility.yul\":4652:4666   */\n      add\n        /* \"#utility.yul\":4637:4666   */\n      swap1\n      pop\n        /* \"#utility.yul\":4503:4672   */\n      swap3\n      swap2\n      pop\n      pop\n      jump\t// out\n        /* \"#utility.yul\":4678:4852   */\n    tag_160:\n        /* \"#utility.yul\":4818:4844   */\n      0x596f75206d75737420626520746865206f70657261746f720000000000000000\n        /* \"#utility.yul\":4814:4815   */\n      0x00\n        /* \"#utility.yul\":4806:4812   */\n      dup3\n        /* \"#utility.yul\":4802:4816   */\n      add\n        /* \"#utility.yul\":4795:4845   */\n      mstore\n        /* \"#utility.yul\":4678:4852   */\n      pop\n      jump\t// out\n        /* \"#utility.yul\":4858:5224   */\n    tag_161:\n        /* \"#utility.yul\":5000:5003   */\n      0x00\n        /* \"#utility.yul\":5021:5088   */\n      tag_242\n        /* \"#utility.yul\":5085:5087   */\n      0x18\n        /* \"#utility.yul\":5080:5083   */\n      dup4\n        /* \"#utility.yul\":5021:5088   */\n      tag_159\n      jump\t// in\n    tag_242:\n        /* \"#utility.yul\":5014:5088   */\n      swap2\n      pop\n        /* \"#utility.yul\":5097:5190   */\n      tag_243\n        /* \"#utility.yul\":5186:5189   */\n      dup3\n        /* \"#utility.yul\":5097:5190   */\n      tag_160\n      jump\t// in\n    tag_243:\n        /* \"#utility.yul\":5215:5217   */\n      0x20\n        /* \"#utility.yul\":5210:5213   */\n      dup3\n        /* \"#utility.yul\":5206:5218   */\n      add\n        /* \"#utility.yul\":5199:5218   */\n      swap1\n      pop\n        /* \"#utility.yul\":4858:5224   */\n      swap2\n      swap1\n      pop\n      jump\t// out\n        /* \"#utility.yul\":5230:5649   */\n    tag_60:\n        /* \"#utility.yul\":5396:5400   */\n      0x00\n        /* \"#utility.yul\":5434:5436   */\n      0x20\n        /* \"#utility.yul\":5423:5432   */\n      dup3\n        /* \"#utility.yul\":5419:5437   */\n      add\n        /* \"#utility.yul\":5411:5437   */\n      swap1\n      pop\n        /* \"#utility.yul\":5483:5492   */\n      dup2\n        /* \"#utility.yul\":5477:5481   */\n      dup2\n        /* \"#utility.yul\":5473:5493   */\n      sub\n        /* \"#utility.yul\":5469:5470   */\n      0x00\n        /* \"#utility.yul\":5458:5467   */\n      dup4\n        /* \"#utility.yul\":5454:5471   */\n      add\n        /* \"#utility.yul\":5447:5494   */\n      mstore\n        /* \"#utility.yul\":5511:5642   */\n      tag_245\n        /* \"#utility.yul\":5637:5641   */\n      dup2\n        /* \"#utility.yul\":5511:5642   */\n      tag_161\n      jump\t// in\n    tag_245:\n        /* \"#utility.yul\":5503:5642   */\n      swap1\n      pop\n        /* \"#utility.yul\":5230:5649   */\n      swap2\n      swap1\n      pop\n      jump\t// out\n        /* \"#utility.yul\":5655:5837   */\n    tag_162:\n        /* \"#utility.yul\":5795:5829   */\n      0x43616e6e6f74206d696e7420746f20746865207a65726f20616464726573732e\n        /* \"#utility.yul\":5791:5792   */\n      0x00\n        /* \"#utility.yul\":5783:5789   */\n      dup3\n        /* \"#utility.yul\":5779:5793   */\n      add\n        /* \"#utility.yul\":5772:5830   */\n      mstore\n        /* \"#utility.yul\":5655:5837   */\n      pop\n      jump\t// out\n        /* \"#utility.yul\":5843:6209   */\n    tag_163:\n        /* \"#utility.yul\":5985:5988   */\n      0x00\n        /* \"#utility.yul\":6006:6073   */\n      tag_248\n        /* \"#utility.yul\":6070:6072   */\n      0x20\n        /* \"#utility.yul\":6065:6068   */\n      dup4\n        /* \"#utility.yul\":6006:6073   */\n      tag_159\n      jump\t// in\n    tag_248:\n        /* \"#utility.yul\":5999:6073   */\n      swap2\n      pop\n        /* \"#utility.yul\":6082:6175   */\n      tag_249\n        /* \"#utility.yul\":6171:6174   */\n      dup3\n        /* \"#utility.yul\":6082:6175   */\n      tag_162\n      jump\t// in\n    tag_249:\n        /* \"#utility.yul\":6200:6202   */\n      0x20\n        /* \"#utility.yul\":6195:6198   */\n      dup3\n        /* \"#utility.yul\":6191:6203   */\n      add\n        /* \"#utility.yul\":6184:6203   */\n      swap1\n      pop\n        /* \"#utility.yul\":5843:6209   */\n      swap2\n      swap1\n      pop\n      jump\t// out\n        /* \"#utility.yul\":6215:6634   */\n    tag_81:\n        /* \"#utility.yul\":6381:6385   */\n      0x00\n        /* \"#utility.yul\":6419:6421   */\n      0x20\n        /* \"#utility.yul\":6408:6417   */\n      dup3\n        /* \"#utility.yul\":6404:6422   */\n      add\n        /* \"#utility.yul\":6396:6422   */\n      swap1\n      pop\n        /* \"#utility.yul\":6468:6477   */\n      dup2\n        /* \"#utility.yul\":6462:6466   */\n      dup2\n        /* \"#utility.yul\":6458:6478   */\n      sub\n        /* \"#utility.yul\":6454:6455   */\n      0x00\n        /* \"#utility.yul\":6443:6452   */\n      dup4\n        /* \"#utility.yul\":6439:6456   */\n      add\n        /* \"#utility.yul\":6432:6479   */\n      mstore\n        /* \"#utility.yul\":6496:6627   */\n      tag_251\n        /* \"#utility.yul\":6622:6626   */\n      dup2\n        /* \"#utility.yul\":6496:6627   */\n      tag_163\n      jump\t// in\n    tag_251:\n        /* \"#utility.yul\":6488:6627   */\n      swap1\n      pop\n        /* \"#utility.yul\":6215:6634   */\n      swap2\n      swap1\n      pop\n      jump\t// out\n        /* \"#utility.yul\":6640:6822   */\n    tag_164:\n        /* \"#utility.yul\":6780:6814   */\n      0x43616e6e6f74206275726e20746f20746865207a65726f20616464726573732e\n        /* \"#utility.yul\":6776:6777   */\n      0x00\n        /* \"#utility.yul\":6768:6774   */\n      dup3\n        /* \"#utility.yul\":6764:6778   */\n      add\n        /* \"#utility.yul\":6757:6815   */\n      mstore\n        /* \"#utility.yul\":6640:6822   */\n      pop\n      jump\t// out\n        /* \"#utility.yul\":6828:7194   */\n    tag_165:\n        /* \"#utility.yul\":6970:6973   */\n      0x00\n        /* \"#utility.yul\":6991:7058   */\n      tag_254\n        /* \"#utility.yul\":7055:7057   */\n      0x20\n        /* \"#utility.yul\":7050:7053   */\n      dup4\n        /* \"#utility.yul\":6991:7058   */\n      tag_159\n      jump\t// in\n    tag_254:\n        /* \"#utility.yul\":6984:7058   */\n      swap2\n      pop\n        /* \"#utility.yul\":7067:7160   */\n      tag_255\n        /* \"#utility.yul\":7156:7159   */\n      dup3\n        /* \"#utility.yul\":7067:7160   */\n      tag_164\n      jump\t// in\n    tag_255:\n        /* \"#utility.yul\":7185:7187   */\n      0x20\n        /* \"#utility.yul\":7180:7183   */\n      dup3\n        /* \"#utility.yul\":7176:7188   */\n      add\n        /* \"#utility.yul\":7169:7188   */\n      swap1\n      pop\n        /* \"#utility.yul\":6828:7194   */\n      swap2\n      swap1\n      pop\n      jump\t// out\n        /* \"#utility.yul\":7200:7619   */\n    tag_90:\n        /* \"#utility.yul\":7366:7370   */\n      0x00\n        /* \"#utility.yul\":7404:7406   */\n      0x20\n        /* \"#utility.yul\":7393:7402   */\n      dup3\n        /* \"#utility.yul\":7389:7407   */\n      add\n        /* \"#utility.yul\":7381:7407   */\n      swap1\n      pop\n        /* \"#utility.yul\":7453:7462   */\n      dup2\n        /* \"#utility.yul\":7447:7451   */\n      dup2\n        /* \"#utility.yul\":7443:7463   */\n      sub\n        /* \"#utility.yul\":7439:7440   */\n      0x00\n        /* \"#utility.yul\":7428:7437   */\n      dup4\n        /* \"#utility.yul\":7424:7441   */\n      add\n        /* \"#utility.yul\":7417:7464   */\n      mstore\n        /* \"#utility.yul\":7481:7612   */\n      tag_257\n        /* \"#utility.yul\":7607:7611   */\n      dup2\n        /* \"#utility.yul\":7481:7612   */\n      tag_165\n      jump\t// in\n    tag_257:\n        /* \"#utility.yul\":7473:7612   */\n      swap1\n      pop\n        /* \"#utility.yul\":7200:7619   */\n      swap2\n      swap1\n      pop\n      jump\t// out\n        /* \"#utility.yul\":7625:7848   */\n    tag_166:\n        /* \"#utility.yul\":7765:7799   */\n      0x4f70657261746f722063616e6e6f74206368616e676520706172746963697061\n        /* \"#utility.yul\":7761:7762   */\n      0x00\n        /* \"#utility.yul\":7753:7759   */\n      dup3\n        /* \"#utility.yul\":7749:7763   */\n      add\n        /* \"#utility.yul\":7742:7800   */\n      mstore\n        /* \"#utility.yul\":7834:7840   */\n      0x74696f6e00000000000000000000000000000000000000000000000000000000\n        /* \"#utility.yul\":7829:7831   */\n      0x20\n        /* \"#utility.yul\":7821:7827   */\n      dup3\n        /* \"#utility.yul\":7817:7832   */\n      add\n        /* \"#utility.yul\":7810:7841   */\n      mstore\n        /* \"#utility.yul\":7625:7848   */\n      pop\n      jump\t// out\n        /* \"#utility.yul\":7854:8220   */\n    tag_167:\n        /* \"#utility.yul\":7996:7999   */\n      0x00\n        /* \"#utility.yul\":8017:8084   */\n      tag_260\n        /* \"#utility.yul\":8081:8083   */\n      0x24\n        /* \"#utility.yul\":8076:8079   */\n      dup4\n        /* \"#utility.yul\":8017:8084   */\n      tag_159\n      jump\t// in\n    tag_260:\n        /* \"#utility.yul\":8010:8084   */\n      swap2\n      pop\n        /* \"#utility.yul\":8093:8186   */\n      tag_261\n        /* \"#utility.yul\":8182:8185   */\n      dup3\n        /* \"#utility.yul\":8093:8186   */\n      tag_166\n      jump\t// in\n    tag_261:\n        /* \"#utility.yul\":8211:8213   */\n      0x40\n        /* \"#utility.yul\":8206:8209   */\n      dup3\n        /* \"#utility.yul\":8202:8214   */\n      add\n        /* \"#utility.yul\":8195:8214   */\n      swap1\n      pop\n        /* \"#utility.yul\":7854:8220   */\n      swap2\n      swap1\n      pop\n      jump\t// out\n        /* \"#utility.yul\":8226:8645   */\n    tag_107:\n        /* \"#utility.yul\":8392:8396   */\n      0x00\n        /* \"#utility.yul\":8430:8432   */\n      0x20\n        /* \"#utility.yul\":8419:8428   */\n      dup3\n        /* \"#utility.yul\":8415:8433   */\n      add\n        /* \"#utility.yul\":8407:8433   */\n      swap1\n      pop\n        /* \"#utility.yul\":8479:8488   */\n      dup2\n        /* \"#utility.yul\":8473:8477   */\n      dup2\n        /* \"#utility.yul\":8469:8489   */\n      sub\n        /* \"#utility.yul\":8465:8466   */\n      0x00\n        /* \"#utility.yul\":8454:8463   */\n      dup4\n        /* \"#utility.yul\":8450:8467   */\n      add\n        /* \"#utility.yul\":8443:8490   */\n      mstore\n        /* \"#utility.yul\":8507:8638   */\n      tag_263\n        /* \"#utility.yul\":8633:8637   */\n      dup2\n        /* \"#utility.yul\":8507:8638   */\n      tag_167\n      jump\t// in\n    tag_263:\n        /* \"#utility.yul\":8499:8638   */\n      swap1\n      pop\n        /* \"#utility.yul\":8226:8645   */\n      swap2\n      swap1\n      pop\n      jump\t// out\n        /* \"#utility.yul\":8651:8832   */\n    tag_168:\n        /* \"#utility.yul\":8791:8824   */\n      0x5a65726f20616464726573732063616e6e6f742062652072656d6f7665642e00\n        /* \"#utility.yul\":8787:8788   */\n      0x00\n        /* \"#utility.yul\":8779:8785   */\n      dup3\n        /* \"#utility.yul\":8775:8789   */\n      add\n        /* \"#utility.yul\":8768:8825   */\n      mstore\n        /* \"#utility.yul\":8651:8832   */\n      pop\n      jump\t// out\n        /* \"#utility.yul\":8838:9204   */\n    tag_169:\n        /* \"#utility.yul\":8980:8983   */\n      0x00\n        /* \"#utility.yul\":9001:9068   */\n      tag_266\n        /* \"#utility.yul\":9065:9067   */\n      0x1f\n        /* \"#utility.yul\":9060:9063   */\n      dup4\n        /* \"#utility.yul\":9001:9068   */\n      tag_159\n      jump\t// in\n    tag_266:\n        /* \"#utility.yul\":8994:9068   */\n      swap2\n      pop\n        /* \"#utility.yul\":9077:9170   */\n      tag_267\n        /* \"#utility.yul\":9166:9169   */\n      dup3\n        /* \"#utility.yul\":9077:9170   */\n      tag_168\n      jump\t// in\n    tag_267:\n        /* \"#utility.yul\":9195:9197   */\n      0x20\n        /* \"#utility.yul\":9190:9193   */\n      dup3\n        /* \"#utility.yul\":9186:9198   */\n      add\n        /* \"#utility.yul\":9179:9198   */\n      swap1\n      pop\n        /* \"#utility.yul\":8838:9204   */\n      swap2\n      swap1\n      pop\n      jump\t// out\n        /* \"#utility.yul\":9210:9629   */\n    tag_110:\n        /* \"#utility.yul\":9376:9380   */\n      0x00\n        /* \"#utility.yul\":9414:9416   */\n      0x20\n        /* \"#utility.yul\":9403:9412   */\n      dup3\n        /* \"#utility.yul\":9399:9417   */\n      add\n        /* \"#utility.yul\":9391:9417   */\n      swap1\n      pop\n        /* \"#utility.yul\":9463:9472   */\n      dup2\n        /* \"#utility.yul\":9457:9461   */\n      dup2\n        /* \"#utility.yul\":9453:9473   */\n      sub\n        /* \"#utility.yul\":9449:9450   */\n      0x00\n        /* \"#utility.yul\":9438:9447   */\n      dup4\n        /* \"#utility.yul\":9434:9451   */\n      add\n        /* \"#utility.yul\":9427:9474   */\n      mstore\n        /* \"#utility.yul\":9491:9622   */\n      tag_269\n        /* \"#utility.yul\":9617:9621   */\n      dup2\n        /* \"#utility.yul\":9491:9622   */\n      tag_169\n      jump\t// in\n    tag_269:\n        /* \"#utility.yul\":9483:9622   */\n      swap1\n      pop\n        /* \"#utility.yul\":9210:9629   */\n      swap2\n      swap1\n      pop\n      jump\t// out\n        /* \"#utility.yul\":9635:9868   */\n    tag_170:\n        /* \"#utility.yul\":9775:9809   */\n      0x5061727469636970616e7420616c726561647920686173207b70617274696369\n        /* \"#utility.yul\":9771:9772   */\n      0x00\n        /* \"#utility.yul\":9763:9769   */\n      dup3\n        /* \"#utility.yul\":9759:9773   */\n      add\n        /* \"#utility.yul\":9752:9810   */\n      mstore\n        /* \"#utility.yul\":9844:9860   */\n      0x706174696f6e7d20737461747573000000000000000000000000000000000000\n        /* \"#utility.yul\":9839:9841   */\n      0x20\n        /* \"#utility.yul\":9831:9837   */\n      dup3\n        /* \"#utility.yul\":9827:9842   */\n      add\n        /* \"#utility.yul\":9820:9861   */\n      mstore\n        /* \"#utility.yul\":9635:9868   */\n      pop\n      jump\t// out\n        /* \"#utility.yul\":9874:10240   */\n    tag_171:\n        /* \"#utility.yul\":10016:10019   */\n      0x00\n        /* \"#utility.yul\":10037:10104   */\n      tag_272\n        /* \"#utility.yul\":10101:10103   */\n      0x2e\n        /* \"#utility.yul\":10096:10099   */\n      dup4\n        /* \"#utility.yul\":10037:10104   */\n      tag_159\n      jump\t// in\n    tag_272:\n        /* \"#utility.yul\":10030:10104   */\n      swap2\n      pop\n        /* \"#utility.yul\":10113:10206   */\n      tag_273\n        /* \"#utility.yul\":10202:10205   */\n      dup3\n        /* \"#utility.yul\":10113:10206   */\n      tag_170\n      jump\t// in\n    tag_273:\n        /* \"#utility.yul\":10231:10233   */\n      0x40\n        /* \"#utility.yul\":10226:10229   */\n      dup3\n        /* \"#utility.yul\":10222:10234   */\n      add\n        /* \"#utility.yul\":10215:10234   */\n      swap1\n      pop\n        /* \"#utility.yul\":9874:10240   */\n      swap2\n      swap1\n      pop\n      jump\t// out\n        /* \"#utility.yul\":10246:10665   */\n    tag_113:\n        /* \"#utility.yul\":10412:10416   */\n      0x00\n        /* \"#utility.yul\":10450:10452   */\n      0x20\n        /* \"#utility.yul\":10439:10448   */\n      dup3\n        /* \"#utility.yul\":10435:10453   */\n      add\n        /* \"#utility.yul\":10427:10453   */\n      swap1\n      pop\n        /* \"#utility.yul\":10499:10508   */\n      dup2\n        /* \"#utility.yul\":10493:10497   */\n      dup2\n        /* \"#utility.yul\":10489:10509   */\n      sub\n        /* \"#utility.yul\":10485:10486   */\n      0x00\n        /* \"#utility.yul\":10474:10483   */\n      dup4\n        /* \"#utility.yul\":10470:10487   */\n      add\n        /* \"#utility.yul\":10463:10510   */\n      mstore\n        /* \"#utility.yul\":10527:10658   */\n      tag_275\n        /* \"#utility.yul\":10653:10657   */\n      dup2\n        /* \"#utility.yul\":10527:10658   */\n      tag_171\n      jump\t// in\n    tag_275:\n        /* \"#utility.yul\":10519:10658   */\n      swap1\n      pop\n        /* \"#utility.yul\":10246:10665   */\n      swap2\n      swap1\n      pop\n      jump\t// out\n        /* \"#utility.yul\":10671:10848   */\n    tag_172:\n        /* \"#utility.yul\":10811:10840   */\n      0x53656e646572206973206e6f7420746865206f70657261746f722e0000000000\n        /* \"#utility.yul\":10807:10808   */\n      0x00\n        /* \"#utility.yul\":10799:10805   */\n      dup3\n        /* \"#utility.yul\":10795:10809   */\n      add\n        /* \"#utility.yul\":10788:10841   */\n      mstore\n        /* \"#utility.yul\":10671:10848   */\n      pop\n      jump\t// out\n        /* \"#utility.yul\":10854:11220   */\n    tag_173:\n        /* \"#utility.yul\":10996:10999   */\n      0x00\n        /* \"#utility.yul\":11017:11084   */\n      tag_278\n        /* \"#utility.yul\":11081:11083   */\n      0x1b\n        /* \"#utility.yul\":11076:11079   */\n      dup4\n        /* \"#utility.yul\":11017:11084   */\n      tag_159\n      jump\t// in\n    tag_278:\n        /* \"#utility.yul\":11010:11084   */\n      swap2\n      pop\n        /* \"#utility.yul\":11093:11186   */\n      tag_279\n        /* \"#utility.yul\":11182:11185   */\n      dup3\n        /* \"#utility.yul\":11093:11186   */\n      tag_172\n      jump\t// in\n    tag_279:\n        /* \"#utility.yul\":11211:11213   */\n      0x20\n        /* \"#utility.yul\":11206:11209   */\n      dup3\n        /* \"#utility.yul\":11202:11214   */\n      add\n        /* \"#utility.yul\":11195:11214   */\n      swap1\n      pop\n        /* \"#utility.yul\":10854:11220   */\n      swap2\n      swap1\n      pop\n      jump\t// out\n        /* \"#utility.yul\":11226:11645   */\n    tag_118:\n        /* \"#utility.yul\":11392:11396   */\n      0x00\n        /* \"#utility.yul\":11430:11432   */\n      0x20\n        /* \"#utility.yul\":11419:11428   */\n      dup3\n        /* \"#utility.yul\":11415:11433   */\n      add\n        /* \"#utility.yul\":11407:11433   */\n      swap1\n      pop\n        /* \"#utility.yul\":11479:11488   */\n      dup2\n        /* \"#utility.yul\":11473:11477   */\n      dup2\n        /* \"#utility.yul\":11469:11489   */\n      sub\n        /* \"#utility.yul\":11465:11466   */\n      0x00\n        /* \"#utility.yul\":11454:11463   */\n      dup4\n        /* \"#utility.yul\":11450:11467   */\n      add\n        /* \"#utility.yul\":11443:11490   */\n      mstore\n        /* \"#utility.yul\":11507:11638   */\n      tag_281\n        /* \"#utility.yul\":11633:11637   */\n      dup2\n        /* \"#utility.yul\":11507:11638   */\n      tag_173\n      jump\t// in\n    tag_281:\n        /* \"#utility.yul\":11499:11638   */\n      swap1\n      pop\n        /* \"#utility.yul\":11226:11645   */\n      swap2\n      swap1\n      pop\n      jump\t// out\n        /* \"#utility.yul\":11651:11880   */\n    tag_174:\n        /* \"#utility.yul\":11791:11825   */\n      0x7b746f7d2061646472657373206973206e6f7420616e20616374697665207061\n        /* \"#utility.yul\":11787:11788   */\n      0x00\n        /* \"#utility.yul\":11779:11785   */\n      dup3\n        /* \"#utility.yul\":11775:11789   */\n      add\n        /* \"#utility.yul\":11768:11826   */\n      mstore\n        /* \"#utility.yul\":11860:11872   */\n      0x727469636970616e742e00000000000000000000000000000000000000000000\n        /* \"#utility.yul\":11855:11857   */\n      0x20\n        /* \"#utility.yul\":11847:11853   */\n      dup3\n        /* \"#utility.yul\":11843:11858   */\n      add\n        /* \"#utility.yul\":11836:11873   */\n      mstore\n        /* \"#utility.yul\":11651:11880   */\n      pop\n      jump\t// out\n        /* \"#utility.yul\":11886:12252   */\n    tag_175:\n        /* \"#utility.yul\":12028:12031   */\n      0x00\n        /* \"#utility.yul\":12049:12116   */\n      tag_284\n        /* \"#utility.yul\":12113:12115   */\n      0x2a\n        /* \"#utility.yul\":12108:12111   */\n      dup4\n        /* \"#utility.yul\":12049:12116   */\n      tag_159\n      jump\t// in\n    tag_284:\n        /* \"#utility.yul\":12042:12116   */\n      swap2\n      pop\n        /* \"#utility.yul\":12125:12218   */\n      tag_285\n        /* \"#utility.yul\":12214:12217   */\n      dup3\n        /* \"#utility.yul\":12125:12218   */\n      tag_174\n      jump\t// in\n    tag_285:\n        /* \"#utility.yul\":12243:12245   */\n      0x40\n        /* \"#utility.yul\":12238:12241   */\n      dup3\n        /* \"#utility.yul\":12234:12246   */\n      add\n        /* \"#utility.yul\":12227:12246   */\n      swap1\n      pop\n        /* \"#utility.yul\":11886:12252   */\n      swap2\n      swap1\n      pop\n      jump\t// out\n        /* \"#utility.yul\":12258:12677   */\n    tag_121:\n        /* \"#utility.yul\":12424:12428   */\n      0x00\n        /* \"#utility.yul\":12462:12464   */\n      0x20\n        /* \"#utility.yul\":12451:12460   */\n      dup3\n        /* \"#utility.yul\":12447:12465   */\n      add\n        /* \"#utility.yul\":12439:12465   */\n      swap1\n      pop\n        /* \"#utility.yul\":12511:12520   */\n      dup2\n        /* \"#utility.yul\":12505:12509   */\n      dup2\n        /* \"#utility.yul\":12501:12521   */\n      sub\n        /* \"#utility.yul\":12497:12498   */\n      0x00\n        /* \"#utility.yul\":12486:12495   */\n      dup4\n        /* \"#utility.yul\":12482:12499   */\n      add\n        /* \"#utility.yul\":12475:12522   */\n      mstore\n        /* \"#utility.yul\":12539:12670   */\n      tag_287\n        /* \"#utility.yul\":12665:12669   */\n      dup2\n        /* \"#utility.yul\":12539:12670   */\n      tag_175\n      jump\t// in\n    tag_287:\n        /* \"#utility.yul\":12531:12670   */\n      swap1\n      pop\n        /* \"#utility.yul\":12258:12677   */\n      swap2\n      swap1\n      pop\n      jump\t// out\n        /* \"#utility.yul\":12683:12863   */\n    tag_176:\n        /* \"#utility.yul\":12731:12808   */\n      0x4e487b7100000000000000000000000000000000000000000000000000000000\n        /* \"#utility.yul\":12728:12729   */\n      0x00\n        /* \"#utility.yul\":12721:12809   */\n      mstore\n        /* \"#utility.yul\":12828:12832   */\n      0x11\n        /* \"#utility.yul\":12825:12826   */\n      0x04\n        /* \"#utility.yul\":12818:12833   */\n      mstore\n        /* \"#utility.yul\":12852:12856   */\n      0x24\n        /* \"#utility.yul\":12849:12850   */\n      0x00\n        /* \"#utility.yul\":12842:12857   */\n      revert\n        /* \"#utility.yul\":12869:13174   */\n    tag_124:\n        /* \"#utility.yul\":12909:12912   */\n      0x00\n        /* \"#utility.yul\":12928:12948   */\n      tag_290\n        /* \"#utility.yul\":12946:12947   */\n      dup3\n        /* \"#utility.yul\":12928:12948   */\n      tag_153\n      jump\t// in\n    tag_290:\n        /* \"#utility.yul\":12923:12948   */\n      swap2\n      pop\n        /* \"#utility.yul\":12962:12982   */\n      tag_291\n        /* \"#utility.yul\":12980:12981   */\n      dup4\n        /* \"#utility.yul\":12962:12982   */\n      tag_153\n      jump\t// in\n    tag_291:\n        /* \"#utility.yul\":12957:12982   */\n      swap3\n      pop\n        /* \"#utility.yul\":13116:13117   */\n      dup3\n        /* \"#utility.yul\":13048:13114   */\n      0xffffffffffffffffffffffffffffffffffffffffffffffffffffffffffffffff\n        /* \"#utility.yul\":13044:13118   */\n      sub\n        /* \"#utility.yul\":13041:13042   */\n      dup3\n        /* \"#utility.yul\":13038:13119   */\n      gt\n        /* \"#utility.yul\":13035:13142   */\n      iszero\n      tag_292\n      jumpi\n        /* \"#utility.yul\":13122:13140   */\n      tag_293\n      tag_176\n      jump\t// in\n    tag_293:\n        /* \"#utility.yul\":13035:13142   */\n    tag_292:\n        /* \"#utility.yul\":13166:13167   */\n      dup3\n        /* \"#utility.yul\":13163:13164   */\n      dup3\n        /* \"#utility.yul\":13159:13168   */\n      add\n        /* \"#utility.yul\":13152:13168   */\n      swap1\n      pop\n        /* \"#utility.yul\":12869:13174   */\n      swap3\n      swap2\n      pop\n      pop\n      jump\t// out\n        /* \"#utility.yul\":13180:13371   */\n    tag_128:\n        /* \"#utility.yul\":13220:13224   */\n      0x00\n        /* \"#utility.yul\":13240:13260   */\n      tag_295\n        /* \"#utility.yul\":13258:13259   */\n      dup3\n        /* \"#utility.yul\":13240:13260   */\n      tag_153\n      jump\t// in\n    tag_295:\n        /* \"#utility.yul\":13235:13260   */\n      swap2\n      pop\n        /* \"#utility.yul\":13274:13294   */\n      tag_296\n        /* \"#utility.yul\":13292:13293   */\n      dup4\n        /* \"#utility.yul\":13274:13294   */\n      tag_153\n      jump\t// in\n    tag_296:\n        /* \"#utility.yul\":13269:13294   */\n      swap3\n      pop\n        /* \"#utility.yul\":13313:13314   */\n      dup3\n        /* \"#utility.yul\":13310:13311   */\n      dup3\n        /* \"#utility.yul\":13307:13315   */\n      lt\n        /* \"#utility.yul\":13304:13338   */\n      iszero\n      tag_297\n      jumpi\n        /* \"#utility.yul\":13318:13336   */\n      tag_298\n      tag_176\n      jump\t// in\n    tag_298:\n        /* \"#utility.yul\":13304:13338   */\n    tag_297:\n        /* \"#utility.yul\":13363:13364   */\n      dup3\n        /* \"#utility.yul\":13360:13361   */\n      dup3\n        /* \"#utility.yul\":13356:13365   */\n      sub\n        /* \"#utility.yul\":13348:13365   */\n      swap1\n      pop\n        /* \"#utility.yul\":13180:13371   */\n      swap3\n      swap2\n      pop\n      pop\n      jump\t// out\n        /* \"#utility.yul\":13377:13608   */\n    tag_177:\n        /* \"#utility.yul\":13517:13551   */\n      0x7b66726f6d7d206164647265737320686f6c6473206c65737320455850207468\n        /* \"#utility.yul\":13513:13514   */\n      0x00\n        /* \"#utility.yul\":13505:13511   */\n      dup3\n        /* \"#utility.yul\":13501:13515   */\n      add\n        /* \"#utility.yul\":13494:13552   */\n      mstore\n        /* \"#utility.yul\":13586:13600   */\n      0x616e207b616d6f756e747d2e0000000000000000000000000000000000000000\n        /* \"#utility.yul\":13581:13583   */\n      0x20\n        /* \"#utility.yul\":13573:13579   */\n      dup3\n        /* \"#utility.yul\":13569:13584   */\n      add\n        /* \"#utility.yul\":13562:13601   */\n      mstore\n        /* \"#utility.yul\":13377:13608   */\n      pop\n      jump\t// out\n        /* \"#utility.yul\":13614:13980   */\n    tag_178:\n        /* \"#utility.yul\":13756:13759   */\n      0x00\n        /* \"#utility.yul\":13777:13844   */\n      tag_301\n        /* \"#utility.yul\":13841:13843   */\n      0x2c\n        /* \"#utility.yul\":13836:13839   */\n      dup4\n        /* \"#utility.yul\":13777:13844   */\n      tag_159\n      jump\t// in\n    tag_301:\n        /* \"#utility.yul\":13770:13844   */\n      swap2\n      pop\n        /* \"#utility.yul\":13853:13946   */\n      tag_302\n        /* \"#utility.yul\":13942:13945   */\n      dup3\n        /* \"#utility.yul\":13853:13946   */\n      tag_177\n      jump\t// in\n    tag_302:\n        /* \"#utility.yul\":13971:13973   */\n      0x40\n        /* \"#utility.yul\":13966:13969   */\n      dup3\n        /* \"#utility.yul\":13962:13974   */\n      add\n        /* \"#utility.yul\":13955:13974   */\n      swap1\n      pop\n        /* \"#utility.yul\":13614:13980   */\n      swap2\n      swap1\n      pop\n      jump\t// out\n        /* \"#utility.yul\":13986:14405   */\n    tag_132:\n        /* \"#utility.yul\":14152:14156   */\n      0x00\n        /* \"#utility.yul\":14190:14192   */\n      0x20\n        /* \"#utility.yul\":14179:14188   */\n      dup3\n        /* \"#utility.yul\":14175:14193   */\n      add\n        /* \"#utility.yul\":14167:14193   */\n      swap1\n      pop\n        /* \"#utility.yul\":14239:14248   */\n      dup2\n        /* \"#utility.yul\":14233:14237   */\n      dup2\n        /* \"#utility.yul\":14229:14249   */\n      sub\n        /* \"#utility.yul\":14225:14226   */\n      0x00\n        /* \"#utility.yul\":14214:14223   */\n      dup4\n        /* \"#utility.yul\":14210:14227   */\n      add\n        /* \"#utility.yul\":14203:14250   */\n      mstore\n        /* \"#utility.yul\":14267:14398   */\n      tag_304\n        /* \"#utility.yul\":14393:14397   */\n      dup2\n        /* \"#utility.yul\":14267:14398   */\n      tag_178\n      jump\t// in\n    tag_304:\n        /* \"#utility.yul\":14259:14398   */\n      swap1\n      pop\n        /* \"#utility.yul\":13986:14405   */\n      swap2\n      swap1\n      pop\n      jump\t// out\n        /* \"#utility.yul\":14411:14634   */\n    tag_179:\n        /* \"#utility.yul\":14551:14585   */\n      0x4f70657261746f722063616e6e6f7420626520746865207a65726f2061646472\n        /* \"#utility.yul\":14547:14548   */\n      0x00\n        /* \"#utility.yul\":14539:14545   */\n      dup3\n        /* \"#utility.yul\":14535:14549   */\n      add\n        /* \"#utility.yul\":14528:14586   */\n      mstore\n        /* \"#utility.yul\":14620:14626   */\n      0x6573732e00000000000000000000000000000000000000000000000000000000\n        /* \"#utility.yul\":14615:14617   */\n      0x20\n        /* \"#utility.yul\":14607:14613   */\n      dup3\n        /* \"#utility.yul\":14603:14618   */\n      add\n        /* \"#utility.yul\":14596:14627   */\n      mstore\n        /* \"#utility.yul\":14411:14634   */\n      pop\n      jump\t// out\n        /* \"#utility.yul\":14640:15006   */\n    tag_180:\n        /* \"#utility.yul\":14782:14785   */\n      0x00\n        /* \"#utility.yul\":14803:14870   */\n      tag_307\n        /* \"#utility.yul\":14867:14869   */\n      0x24\n        /* \"#utility.yul\":14862:14865   */\n      dup4\n        /* \"#utility.yul\":14803:14870   */\n      tag_159\n      jump\t// in\n    tag_307:\n        /* \"#utility.yul\":14796:14870   */\n      swap2\n      pop\n        /* \"#utility.yul\":14879:14972   */\n      tag_308\n        /* \"#utility.yul\":14968:14971   */\n      dup3\n        /* \"#utility.yul\":14879:14972   */\n      tag_179\n      jump\t// in\n    tag_308:\n        /* \"#utility.yul\":14997:14999   */\n      0x40\n        /* \"#utility.yul\":14992:14995   */\n      dup3\n        /* \"#utility.yul\":14988:15000   */\n      add\n        /* \"#utility.yul\":14981:15000   */\n      swap1\n      pop\n        /* \"#utility.yul\":14640:15006   */\n      swap2\n      swap1\n      pop\n      jump\t// out\n        /* \"#utility.yul\":15012:15431   */\n    tag_139:\n        /* \"#utility.yul\":15178:15182   */\n      0x00\n        /* \"#utility.yul\":15216:15218   */\n      0x20\n        /* \"#utility.yul\":15205:15214   */\n      dup3\n        /* \"#utility.yul\":15201:15219   */\n      add\n        /* \"#utility.yul\":15193:15219   */\n      swap1\n      pop\n        /* \"#utility.yul\":15265:15274   */\n      dup2\n        /* \"#utility.yul\":15259:15263   */\n      dup2\n        /* \"#utility.yul\":15255:15275   */\n      sub\n        /* \"#utility.yul\":15251:15252   */\n      0x00\n        /* \"#utility.yul\":15240:15249   */\n      dup4\n        /* \"#utility.yul\":15236:15253   */\n      add\n        /* \"#utility.yul\":15229:15276   */\n      mstore\n        /* \"#utility.yul\":15293:15424   */\n      tag_310\n        /* \"#utility.yul\":15419:15423   */\n      dup2\n        /* \"#utility.yul\":15293:15424   */\n      tag_180\n      jump\t// in\n    tag_310:\n        /* \"#utility.yul\":15285:15424   */\n      swap1\n      pop\n        /* \"#utility.yul\":15012:15431   */\n      swap2\n      swap1\n      pop\n      jump\t// out\n        /* \"#utility.yul\":15437:15665   */\n    tag_181:\n        /* \"#utility.yul\":15577:15611   */\n      0x7b616464726573737d20697320616c72656164792061737369676e6564206173\n        /* \"#utility.yul\":15573:15574   */\n      0x00\n        /* \"#utility.yul\":15565:15571   */\n      dup3\n        /* \"#utility.yul\":15561:15575   */\n      add\n        /* \"#utility.yul\":15554:15612   */\n      mstore\n        /* \"#utility.yul\":15646:15657   */\n      0x206f70657261746f720000000000000000000000000000000000000000000000\n        /* \"#utility.yul\":15641:15643   */\n      0x20\n        /* \"#utility.yul\":15633:15639   */\n      dup3\n        /* \"#utility.yul\":15629:15644   */\n      add\n        /* \"#utility.yul\":15622:15658   */\n      mstore\n        /* \"#utility.yul\":15437:15665   */\n      pop\n      jump\t// out\n        /* \"#utility.yul\":15671:16037   */\n    tag_182:\n        /* \"#utility.yul\":15813:15816   */\n      0x00\n        /* \"#utility.yul\":15834:15901   */\n      tag_313\n        /* \"#utility.yul\":15898:15900   */\n      0x29\n        /* \"#utility.yul\":15893:15896   */\n      dup4\n        /* \"#utility.yul\":15834:15901   */\n      tag_159\n      jump\t// in\n    tag_313:\n        /* \"#utility.yul\":15827:15901   */\n      swap2\n      pop\n        /* \"#utility.yul\":15910:16003   */\n      tag_314\n        /* \"#utility.yul\":15999:16002   */\n      dup3\n        /* \"#utility.yul\":15910:16003   */\n      tag_181\n      jump\t// in\n    tag_314:\n        /* \"#utility.yul\":16028:16030   */\n      0x40\n        /* \"#utility.yul\":16023:16026   */\n      dup3\n        /* \"#utility.yul\":16019:16031   */\n      add\n        /* \"#utility.yul\":16012:16031   */\n      swap1\n      pop\n        /* \"#utility.yul\":15671:16037   */\n      swap2\n      swap1\n      pop\n      jump\t// out\n        /* \"#utility.yul\":16043:16462   */\n    tag_142:\n        /* \"#utility.yul\":16209:16213   */\n      0x00\n        /* \"#utility.yul\":16247:16249   */\n      0x20\n        /* \"#utility.yul\":16236:16245   */\n      dup3\n        /* \"#utility.yul\":16232:16250   */\n      add\n        /* \"#utility.yul\":16224:16250   */\n      swap1\n      pop\n        /* \"#utility.yul\":16296:16305   */\n      dup2\n        /* \"#utility.yul\":16290:16294   */\n      dup2\n        /* \"#utility.yul\":16286:16306   */\n      sub\n        /* \"#utility.yul\":16282:16283   */\n      0x00\n        /* \"#utility.yul\":16271:16280   */\n      dup4\n        /* \"#utility.yul\":16267:16284   */\n      add\n        /* \"#utility.yul\":16260:16307   */\n      mstore\n        /* \"#utility.yul\":16324:16455   */\n      tag_316\n        /* \"#utility.yul\":16450:16454   */\n      dup2\n        /* \"#utility.yul\":16324:16455   */\n      tag_182\n      jump\t// in\n    tag_316:\n        /* \"#utility.yul\":16316:16455   */\n      swap1\n      pop\n        /* \"#utility.yul\":16043:16462   */\n      swap2\n      swap1\n      pop\n      jump\t// out\n\n    auxdata: 0xa2646970667358221220dea09ca7e498ae8178bf784ef6b12f46d4fef3bf683cf2099917255dc6058aee64736f6c634300080a0033\n}\n",
    "bytecode": {
      "linkReferences": {},
      "object": "60806040523480156200001157600080fd5b50600073ffffffffffffffffffffffffffffffffffffffff163373ffffffffffffffffffffffffffffffffffffffff16141562000085576040517f08c379a00000000000000000000000000000000000000000000000000000000081526004016200007c906200029d565b60405180910390fd5b33600360006101000a81548173ffffffffffffffffffffffffffffffffffffffff021916908373ffffffffffffffffffffffffffffffffffffffff1602179055506001806000600360009054906101000a900473ffffffffffffffffffffffffffffffffffffffff1673ffffffffffffffffffffffffffffffffffffffff1673ffffffffffffffffffffffffffffffffffffffff16815260200190815260200160002060006101000a81548160ff021916908315150217905550600160026000600360009054906101000a900473ffffffffffffffffffffffffffffffffffffffff1673ffffffffffffffffffffffffffffffffffffffff1673ffffffffffffffffffffffffffffffffffffffff16815260200190815260200160002060006101000a81548160ff02191690831515021790555060018060008073ffffffffffffffffffffffffffffffffffffffff1673ffffffffffffffffffffffffffffffffffffffff16815260200190815260200160002060006101000a81548160ff021916908315150217905550620002bf565b600082825260208201905092915050565b7f4f70657261746f722063616e6e6f7420626520746865207a65726f206164647260008201527f6573732e00000000000000000000000000000000000000000000000000000000602082015250565b60006200028560248362000216565b9150620002928262000227565b604082019050919050565b60006020820190508181036000830152620002b88162000276565b9050919050565b61191180620002cf6000396000f3fe608060405234801561001057600080fd5b50600436106100a95760003560e01c8063570ca73511610071578063570ca7351461013c57806370a082311461015a5780639dc29fac1461018a578063b3ab15fb146101a6578063d3df65ee146101c2578063f00eaafc146101de576100a9565b8063025c126e146100ae5780630cd8418d146100ca57806318160ddd146100e6578063308b8c001461010457806340c10f1914610120575b600080fd5b6100c860048036038101906100c3919061109d565b61020e565b005b6100e460048036038101906100df9190611102565b610353565b005b6100ee61044b565b6040516100fb919061115b565b60405180910390f35b61011e600480360381019061011991906111a2565b610455565b005b61013a600480360381019061013591906111f5565b6104bd565b005b610144610595565b6040516101519190611244565b60405180910390f35b610174600480360381019061016f919061109d565b6105bf565b604051610181919061115b565b60405180910390f35b6101a4600480360381019061019f91906111f5565b610607565b005b6101c060048036038101906101bb919061109d565b6106df565b005b6101dc60048036038101906101d7919061109d565b61077b565b005b6101f860048036038101906101f3919061109d565b6108c0565b604051610205919061126e565b60405180910390f35b600360009054906101000a900473ffffffffffffffffffffffffffffffffffffffff1673ffffffffffffffffffffffffffffffffffffffff163373ffffffffffffffffffffffffffffffffffffffff161461029e576040517f08c379a0000000000000000000000000000000000000000000000000000000008152600401610295906112e6565b60405180910390fd5b600360009054906101000a900473ffffffffffffffffffffffffffffffffffffffff1673ffffffffffffffffffffffffffffffffffffffff163373ffffffffffffffffffffffffffffffffffffffff16146102f857600080fd5b6001600260008373ffffffffffffffffffffffffffffffffffffffff1673ffffffffffffffffffffffffffffffffffffffff16815260200190815260200160002060006101000a81548160ff02191690831515021790555050565b600360009054906101000a900473ffffffffffffffffffffffffffffffffffffffff1673ffffffffffffffffffffffffffffffffffffffff163373ffffffffffffffffffffffffffffffffffffffff16146103e3576040517f08c379a00000000000000000000000000000000000000000000000000000000081526004016103da906112e6565b60405180910390fd5b600360009054906101000a900473ffffffffffffffffffffffffffffffffffffffff1673ffffffffffffffffffffffffffffffffffffffff163373ffffffffffffffffffffffffffffffffffffffff161461043d57600080fd5b6104478282610916565b5050565b6000600454905090565b33600260008273ffffffffffffffffffffffffffffffffffffffff1673ffffffffffffffffffffffffffffffffffffffff16815260200190815260200160002060009054906101000a900460ff166104ac57600080fd5b6104b7848484610b52565b50505050565b33600260008273ffffffffffffffffffffffffffffffffffffffff1673ffffffffffffffffffffffffffffffffffffffff16815260200190815260200160002060009054906101000a900460ff1661051457600080fd5b600073ffffffffffffffffffffffffffffffffffffffff168373ffffffffffffffffffffffffffffffffffffffff161415610584576040517f08c379a000000000000000000000000000000000000000000000000000000000815260040161057b90611352565b60405180910390fd5b61059060008484610b52565b505050565b6000600360009054906101000a900473ffffffffffffffffffffffffffffffffffffffff16905090565b60008060008373ffffffffffffffffffffffffffffffffffffffff1673ffffffffffffffffffffffffffffffffffffffff168152602001908152602001600020549050919050565b33600260008273ffffffffffffffffffffffffffffffffffffffff1673ffffffffffffffffffffffffffffffffffffffff16815260200190815260200160002060009054906101000a900460ff1661065e57600080fd5b600073ffffffffffffffffffffffffffffffffffffffff168373ffffffffffffffffffffffffffffffffffffffff1614156106ce576040517f08c379a00000000000000000000000000000000000000000000000000000000081526004016106c5906113be565b60405180910390fd5b6106da83600084610b52565b505050565b600360009054906101000a900473ffffffffffffffffffffffffffffffffffffffff1673ffffffffffffffffffffffffffffffffffffffff163373ffffffffffffffffffffffffffffffffffffffff161461076f576040517f08c379a0000000000000000000000000000000000000000000000000000000008152600401610766906112e6565b60405180910390fd5b61077881610eb2565b50565b600360009054906101000a900473ffffffffffffffffffffffffffffffffffffffff1673ffffffffffffffffffffffffffffffffffffffff163373ffffffffffffffffffffffffffffffffffffffff161461080b576040517f08c379a0000000000000000000000000000000000000000000000000000000008152600401610802906112e6565b60405180910390fd5b600360009054906101000a900473ffffffffffffffffffffffffffffffffffffffff1673ffffffffffffffffffffffffffffffffffffffff163373ffffffffffffffffffffffffffffffffffffffff161461086557600080fd5b6000600260008373ffffffffffffffffffffffffffffffffffffffff1673ffffffffffffffffffffffffffffffffffffffff16815260200190815260200160002060006101000a81548160ff02191690831515021790555050565b6000600160008373ffffffffffffffffffffffffffffffffffffffff1673ffffffffffffffffffffffffffffffffffffffff16815260200190815260200160002060009054906101000a900460ff169050919050565b600360009054906101000a900473ffffffffffffffffffffffffffffffffffffffff1673ffffffffffffffffffffffffffffffffffffffff163373ffffffffffffffffffffffffffffffffffffffff16146109a6576040517f08c379a000000000000000000000000000000000000000000000000000000000815260040161099d90611450565b60405180910390fd5b600073ffffffffffffffffffffffffffffffffffffffff168273ffffffffffffffffffffffffffffffffffffffff161415610a16576040517f08c379a0000000000000000000000000000000000000000000000000000000008152600401610a0d906114bc565b60405180910390fd5b801515600160008473ffffffffffffffffffffffffffffffffffffffff1673ffffffffffffffffffffffffffffffffffffffff16815260200190815260200160002060009054906101000a900460ff1615151415610aa9576040517f08c379a0000000000000000000000000000000000000000000000000000000008152600401610aa09061154e565b60405180910390fd5b80600160008473ffffffffffffffffffffffffffffffffffffffff1673ffffffffffffffffffffffffffffffffffffffff16815260200190815260200160002060006101000a81548160ff0219169083151502179055508173ffffffffffffffffffffffffffffffffffffffff167f2c41d9af4701c767a5661c887f466dd2ddfba0572128a2cc04d43bd62344506182604051610b46919061126e565b60405180910390a25050565b600360009054906101000a900473ffffffffffffffffffffffffffffffffffffffff1673ffffffffffffffffffffffffffffffffffffffff163373ffffffffffffffffffffffffffffffffffffffff1614610be2576040517f08c379a0000000000000000000000000000000000000000000000000000000008152600401610bd9906115ba565b60405180910390fd5b60011515600160008473ffffffffffffffffffffffffffffffffffffffff1673ffffffffffffffffffffffffffffffffffffffff16815260200190815260200160002060009054906101000a900460ff16151514610c75576040517f08c379a0000000000000000000000000000000000000000000000000000000008152600401610c6c9061164c565b60405180910390fd5b600073ffffffffffffffffffffffffffffffffffffffff168373ffffffffffffffffffffffffffffffffffffffff161415610cc8578060046000828254610cbc919061169b565b92505081905550610df3565b600073ffffffffffffffffffffffffffffffffffffffff168273ffffffffffffffffffffffffffffffffffffffff161415610d1b578060046000828254610d0f91906116f1565b92505081905550610df2565b806000808573ffffffffffffffffffffffffffffffffffffffff1673ffffffffffffffffffffffffffffffffffffffff168152602001908152602001600020541015610d9c576040517f08c379a0000000000000000000000000000000000000000000000000000000008152600401610d9390611797565b60405180910390fd5b806000808573ffffffffffffffffffffffffffffffffffffffff1673ffffffffffffffffffffffffffffffffffffffff1681526020019081526020016000206000828254610dea91906116f1565b925050819055505b5b806000808473ffffffffffffffffffffffffffffffffffffffff1673ffffffffffffffffffffffffffffffffffffffff1681526020019081526020016000206000828254610e41919061169b565b925050819055508173ffffffffffffffffffffffffffffffffffffffff168373ffffffffffffffffffffffffffffffffffffffff167fddf252ad1be2c89b69c2b068fc378daa952ba7f163c4a11628f55a4df523b3ef83604051610ea5919061115b565b60405180910390a3505050565b600073ffffffffffffffffffffffffffffffffffffffff168173ffffffffffffffffffffffffffffffffffffffff161415610f22576040517f08c379a0000000000000000000000000000000000000000000000000000000008152600401610f1990611829565b60405180910390fd5b8073ffffffffffffffffffffffffffffffffffffffff16600360009054906101000a900473ffffffffffffffffffffffffffffffffffffffff1673ffffffffffffffffffffffffffffffffffffffff161415610fb3576040517f08c379a0000000000000000000000000000000000000000000000000000000008152600401610faa906118bb565b60405180910390fd5b80600360006101000a81548173ffffffffffffffffffffffffffffffffffffffff021916908373ffffffffffffffffffffffffffffffffffffffff1602179055508073ffffffffffffffffffffffffffffffffffffffff167f235b4d5c4596af250d851d446f469c532805433b6138b8c7ad6fcdcd07b9db2760405160405180910390a250565b600080fd5b600073ffffffffffffffffffffffffffffffffffffffff82169050919050565b600061106a8261103f565b9050919050565b61107a8161105f565b811461108557600080fd5b50565b60008135905061109781611071565b92915050565b6000602082840312156110b3576110b261103a565b5b60006110c184828501611088565b91505092915050565b60008115159050919050565b6110df816110ca565b81146110ea57600080fd5b50565b6000813590506110fc816110d6565b92915050565b600080604083850312156111195761111861103a565b5b600061112785828601611088565b9250506020611138858286016110ed565b9150509250929050565b6000819050919050565b61115581611142565b82525050565b6000602082019050611170600083018461114c565b92915050565b61117f81611142565b811461118a57600080fd5b50565b60008135905061119c81611176565b92915050565b6000806000606084860312156111bb576111ba61103a565b5b60006111c986828701611088565b93505060206111da86828701611088565b92505060406111eb8682870161118d565b9150509250925092565b6000806040838503121561120c5761120b61103a565b5b600061121a85828601611088565b925050602061122b8582860161118d565b9150509250929050565b61123e8161105f565b82525050565b60006020820190506112596000830184611235565b92915050565b611268816110ca565b82525050565b6000602082019050611283600083018461125f565b92915050565b600082825260208201905092915050565b7f596f75206d75737420626520746865206f70657261746f720000000000000000600082015250565b60006112d0601883611289565b91506112db8261129a565b602082019050919050565b600060208201905081810360008301526112ff816112c3565b9050919050565b7f43616e6e6f74206d696e7420746f20746865207a65726f20616464726573732e600082015250565b600061133c602083611289565b915061134782611306565b602082019050919050565b6000602082019050818103600083015261136b8161132f565b9050919050565b7f43616e6e6f74206275726e20746f20746865207a65726f20616464726573732e600082015250565b60006113a8602083611289565b91506113b382611372565b602082019050919050565b600060208201905081810360008301526113d78161139b565b9050919050565b7f4f70657261746f722063616e6e6f74206368616e67652070617274696369706160008201527f74696f6e00000000000000000000000000000000000000000000000000000000602082015250565b600061143a602483611289565b9150611445826113de565b604082019050919050565b600060208201905081810360008301526114698161142d565b9050919050565b7f5a65726f20616464726573732063616e6e6f742062652072656d6f7665642e00600082015250565b60006114a6601f83611289565b91506114b182611470565b602082019050919050565b600060208201905081810360008301526114d581611499565b9050919050565b7f5061727469636970616e7420616c726561647920686173207b7061727469636960008201527f706174696f6e7d20737461747573000000000000000000000000000000000000602082015250565b6000611538602e83611289565b9150611543826114dc565b604082019050919050565b600060208201905081810360008301526115678161152b565b9050919050565b7f53656e646572206973206e6f7420746865206f70657261746f722e0000000000600082015250565b60006115a4601b83611289565b91506115af8261156e565b602082019050919050565b600060208201905081810360008301526115d381611597565b9050919050565b7f7b746f7d2061646472657373206973206e6f7420616e2061637469766520706160008201527f727469636970616e742e00000000000000000000000000000000000000000000602082015250565b6000611636602a83611289565b9150611641826115da565b604082019050919050565b6000602082019050818103600083015261166581611629565b9050919050565b7f4e487b7100000000000000000000000000000000000000000000000000000000600052601160045260246000fd5b60006116a682611142565b91506116b183611142565b9250827fffffffffffffffffffffffffffffffffffffffffffffffffffffffffffffffff038211156116e6576116e561166c565b5b828201905092915050565b60006116fc82611142565b915061170783611142565b92508282101561171a5761171961166c565b5b828203905092915050565b7f7b66726f6d7d206164647265737320686f6c6473206c6573732045585020746860008201527f616e207b616d6f756e747d2e0000000000000000000000000000000000000000602082015250565b6000611781602c83611289565b915061178c82611725565b604082019050919050565b600060208201905081810360008301526117b081611774565b9050919050565b7f4f70657261746f722063616e6e6f7420626520746865207a65726f206164647260008201527f6573732e00000000000000000000000000000000000000000000000000000000602082015250565b6000611813602483611289565b915061181e826117b7565b604082019050919050565b6000602082019050818103600083015261184281611806565b9050919050565b7f7b616464726573737d20697320616c72656164792061737369676e656420617360008201527f206f70657261746f720000000000000000000000000000000000000000000000602082015250565b60006118a5602983611289565b91506118b082611849565b604082019050919050565b600060208201905081810360008301526118d481611898565b905091905056fea2646970667358221220dea09ca7e498ae8178bf784ef6b12f46d4fef3bf683cf2099917255dc6058aee64736f6c634300080a0033",
      "opcodes": "PUSH1 0x80 PUSH1 0x40 MSTORE CALLVALUE DUP1 ISZERO PUSH3 0x11 JUMPI PUSH1 0x0 DUP1 REVERT JUMPDEST POP PUSH1 0x0 PUSH20 0xFFFFFFFFFFFFFFFFFFFFFFFFFFFFFFFFFFFFFFFF AND CALLER PUSH20 0xFFFFFFFFFFFFFFFFFFFFFFFFFFFFFFFFFFFFFFFF AND EQ ISZERO PUSH3 0x85 JUMPI PUSH1 0x40 MLOAD PUSH32 0x8C379A000000000000000000000000000000000000000000000000000000000 DUP2 MSTORE PUSH1 0x4 ADD PUSH3 0x7C SWAP1 PUSH3 0x29D JUMP JUMPDEST PUSH1 0x40 MLOAD DUP1 SWAP2 SUB SWAP1 REVERT JUMPDEST CALLER PUSH1 0x3 PUSH1 0x0 PUSH2 0x100 EXP DUP2 SLOAD DUP2 PUSH20 0xFFFFFFFFFFFFFFFFFFFFFFFFFFFFFFFFFFFFFFFF MUL NOT AND SWAP1 DUP4 PUSH20 0xFFFFFFFFFFFFFFFFFFFFFFFFFFFFFFFFFFFFFFFF AND MUL OR SWAP1 SSTORE POP PUSH1 0x1 DUP1 PUSH1 0x0 PUSH1 0x3 PUSH1 0x0 SWAP1 SLOAD SWAP1 PUSH2 0x100 EXP SWAP1 DIV PUSH20 0xFFFFFFFFFFFFFFFFFFFFFFFFFFFFFFFFFFFFFFFF AND PUSH20 0xFFFFFFFFFFFFFFFFFFFFFFFFFFFFFFFFFFFFFFFF AND PUSH20 0xFFFFFFFFFFFFFFFFFFFFFFFFFFFFFFFFFFFFFFFF AND DUP2 MSTORE PUSH1 0x20 ADD SWAP1 DUP2 MSTORE PUSH1 0x20 ADD PUSH1 0x0 KECCAK256 PUSH1 0x0 PUSH2 0x100 EXP DUP2 SLOAD DUP2 PUSH1 0xFF MUL NOT AND SWAP1 DUP4 ISZERO ISZERO MUL OR SWAP1 SSTORE POP PUSH1 0x1 PUSH1 0x2 PUSH1 0x0 PUSH1 0x3 PUSH1 0x0 SWAP1 SLOAD SWAP1 PUSH2 0x100 EXP SWAP1 DIV PUSH20 0xFFFFFFFFFFFFFFFFFFFFFFFFFFFFFFFFFFFFFFFF AND PUSH20 0xFFFFFFFFFFFFFFFFFFFFFFFFFFFFFFFFFFFFFFFF AND PUSH20 0xFFFFFFFFFFFFFFFFFFFFFFFFFFFFFFFFFFFFFFFF AND DUP2 MSTORE PUSH1 0x20 ADD SWAP1 DUP2 MSTORE PUSH1 0x20 ADD PUSH1 0x0 KECCAK256 PUSH1 0x0 PUSH2 0x100 EXP DUP2 SLOAD DUP2 PUSH1 0xFF MUL NOT AND SWAP1 DUP4 ISZERO ISZERO MUL OR SWAP1 SSTORE POP PUSH1 0x1 DUP1 PUSH1 0x0 DUP1 PUSH20 0xFFFFFFFFFFFFFFFFFFFFFFFFFFFFFFFFFFFFFFFF AND PUSH20 0xFFFFFFFFFFFFFFFFFFFFFFFFFFFFFFFFFFFFFFFF AND DUP2 MSTORE PUSH1 0x20 ADD SWAP1 DUP2 MSTORE PUSH1 0x20 ADD PUSH1 0x0 KECCAK256 PUSH1 0x0 PUSH2 0x100 EXP DUP2 SLOAD DUP2 PUSH1 0xFF MUL NOT AND SWAP1 DUP4 ISZERO ISZERO MUL OR SWAP1 SSTORE POP PUSH3 0x2BF JUMP JUMPDEST PUSH1 0x0 DUP3 DUP3 MSTORE PUSH1 0x20 DUP3 ADD SWAP1 POP SWAP3 SWAP2 POP POP JUMP JUMPDEST PUSH32 0x4F70657261746F722063616E6E6F7420626520746865207A65726F2061646472 PUSH1 0x0 DUP3 ADD MSTORE PUSH32 0x6573732E00000000000000000000000000000000000000000000000000000000 PUSH1 0x20 DUP3 ADD MSTORE POP JUMP JUMPDEST PUSH1 0x0 PUSH3 0x285 PUSH1 0x24 DUP4 PUSH3 0x216 JUMP JUMPDEST SWAP2 POP PUSH3 0x292 DUP3 PUSH3 0x227 JUMP JUMPDEST PUSH1 0x40 DUP3 ADD SWAP1 POP SWAP2 SWAP1 POP JUMP JUMPDEST PUSH1 0x0 PUSH1 0x20 DUP3 ADD SWAP1 POP DUP2 DUP2 SUB PUSH1 0x0 DUP4 ADD MSTORE PUSH3 0x2B8 DUP2 PUSH3 0x276 JUMP JUMPDEST SWAP1 POP SWAP2 SWAP1 POP JUMP JUMPDEST PUSH2 0x1911 DUP1 PUSH3 0x2CF PUSH1 0x0 CODECOPY PUSH1 0x0 RETURN INVALID PUSH1 0x80 PUSH1 0x40 MSTORE CALLVALUE DUP1 ISZERO PUSH2 0x10 JUMPI PUSH1 0x0 DUP1 REVERT JUMPDEST POP PUSH1 0x4 CALLDATASIZE LT PUSH2 0xA9 JUMPI PUSH1 0x0 CALLDATALOAD PUSH1 0xE0 SHR DUP1 PUSH4 0x570CA735 GT PUSH2 0x71 JUMPI DUP1 PUSH4 0x570CA735 EQ PUSH2 0x13C JUMPI DUP1 PUSH4 0x70A08231 EQ PUSH2 0x15A JUMPI DUP1 PUSH4 0x9DC29FAC EQ PUSH2 0x18A JUMPI DUP1 PUSH4 0xB3AB15FB EQ PUSH2 0x1A6 JUMPI DUP1 PUSH4 0xD3DF65EE EQ PUSH2 0x1C2 JUMPI DUP1 PUSH4 0xF00EAAFC EQ PUSH2 0x1DE JUMPI PUSH2 0xA9 JUMP JUMPDEST DUP1 PUSH4 0x25C126E EQ PUSH2 0xAE JUMPI DUP1 PUSH4 0xCD8418D EQ PUSH2 0xCA JUMPI DUP1 PUSH4 0x18160DDD EQ PUSH2 0xE6 JUMPI DUP1 PUSH4 0x308B8C00 EQ PUSH2 0x104 JUMPI DUP1 PUSH4 0x40C10F19 EQ PUSH2 0x120 JUMPI JUMPDEST PUSH1 0x0 DUP1 REVERT JUMPDEST PUSH2 0xC8 PUSH1 0x4 DUP1 CALLDATASIZE SUB DUP2 ADD SWAP1 PUSH2 0xC3 SWAP2 SWAP1 PUSH2 0x109D JUMP JUMPDEST PUSH2 0x20E JUMP JUMPDEST STOP JUMPDEST PUSH2 0xE4 PUSH1 0x4 DUP1 CALLDATASIZE SUB DUP2 ADD SWAP1 PUSH2 0xDF SWAP2 SWAP1 PUSH2 0x1102 JUMP JUMPDEST PUSH2 0x353 JUMP JUMPDEST STOP JUMPDEST PUSH2 0xEE PUSH2 0x44B JUMP JUMPDEST PUSH1 0x40 MLOAD PUSH2 0xFB SWAP2 SWAP1 PUSH2 0x115B JUMP JUMPDEST PUSH1 0x40 MLOAD DUP1 SWAP2 SUB SWAP1 RETURN JUMPDEST PUSH2 0x11E PUSH1 0x4 DUP1 CALLDATASIZE SUB DUP2 ADD SWAP1 PUSH2 0x119 SWAP2 SWAP1 PUSH2 0x11A2 JUMP JUMPDEST PUSH2 0x455 JUMP JUMPDEST STOP JUMPDEST PUSH2 0x13A PUSH1 0x4 DUP1 CALLDATASIZE SUB DUP2 ADD SWAP1 PUSH2 0x135 SWAP2 SWAP1 PUSH2 0x11F5 JUMP JUMPDEST PUSH2 0x4BD JUMP JUMPDEST STOP JUMPDEST PUSH2 0x144 PUSH2 0x595 JUMP JUMPDEST PUSH1 0x40 MLOAD PUSH2 0x151 SWAP2 SWAP1 PUSH2 0x1244 JUMP JUMPDEST PUSH1 0x40 MLOAD DUP1 SWAP2 SUB SWAP1 RETURN JUMPDEST PUSH2 0x174 PUSH1 0x4 DUP1 CALLDATASIZE SUB DUP2 ADD SWAP1 PUSH2 0x16F SWAP2 SWAP1 PUSH2 0x109D JUMP JUMPDEST PUSH2 0x5BF JUMP JUMPDEST PUSH1 0x40 MLOAD PUSH2 0x181 SWAP2 SWAP1 PUSH2 0x115B JUMP JUMPDEST PUSH1 0x40 MLOAD DUP1 SWAP2 SUB SWAP1 RETURN JUMPDEST PUSH2 0x1A4 PUSH1 0x4 DUP1 CALLDATASIZE SUB DUP2 ADD SWAP1 PUSH2 0x19F SWAP2 SWAP1 PUSH2 0x11F5 JUMP JUMPDEST PUSH2 0x607 JUMP JUMPDEST STOP JUMPDEST PUSH2 0x1C0 PUSH1 0x4 DUP1 CALLDATASIZE SUB DUP2 ADD SWAP1 PUSH2 0x1BB SWAP2 SWAP1 PUSH2 0x109D JUMP JUMPDEST PUSH2 0x6DF JUMP JUMPDEST STOP JUMPDEST PUSH2 0x1DC PUSH1 0x4 DUP1 CALLDATASIZE SUB DUP2 ADD SWAP1 PUSH2 0x1D7 SWAP2 SWAP1 PUSH2 0x109D JUMP JUMPDEST PUSH2 0x77B JUMP JUMPDEST STOP JUMPDEST PUSH2 0x1F8 PUSH1 0x4 DUP1 CALLDATASIZE SUB DUP2 ADD SWAP1 PUSH2 0x1F3 SWAP2 SWAP1 PUSH2 0x109D JUMP JUMPDEST PUSH2 0x8C0 JUMP JUMPDEST PUSH1 0x40 MLOAD PUSH2 0x205 SWAP2 SWAP1 PUSH2 0x126E JUMP JUMPDEST PUSH1 0x40 MLOAD DUP1 SWAP2 SUB SWAP1 RETURN JUMPDEST PUSH1 0x3 PUSH1 0x0 SWAP1 SLOAD SWAP1 PUSH2 0x100 EXP SWAP1 DIV PUSH20 0xFFFFFFFFFFFFFFFFFFFFFFFFFFFFFFFFFFFFFFFF AND PUSH20 0xFFFFFFFFFFFFFFFFFFFFFFFFFFFFFFFFFFFFFFFF AND CALLER PUSH20 0xFFFFFFFFFFFFFFFFFFFFFFFFFFFFFFFFFFFFFFFF AND EQ PUSH2 0x29E JUMPI PUSH1 0x40 MLOAD PUSH32 0x8C379A000000000000000000000000000000000000000000000000000000000 DUP2 MSTORE PUSH1 0x4 ADD PUSH2 0x295 SWAP1 PUSH2 0x12E6 JUMP JUMPDEST PUSH1 0x40 MLOAD DUP1 SWAP2 SUB SWAP1 REVERT JUMPDEST PUSH1 0x3 PUSH1 0x0 SWAP1 SLOAD SWAP1 PUSH2 0x100 EXP SWAP1 DIV PUSH20 0xFFFFFFFFFFFFFFFFFFFFFFFFFFFFFFFFFFFFFFFF AND PUSH20 0xFFFFFFFFFFFFFFFFFFFFFFFFFFFFFFFFFFFFFFFF AND CALLER PUSH20 0xFFFFFFFFFFFFFFFFFFFFFFFFFFFFFFFFFFFFFFFF AND EQ PUSH2 0x2F8 JUMPI PUSH1 0x0 DUP1 REVERT JUMPDEST PUSH1 0x1 PUSH1 0x2 PUSH1 0x0 DUP4 PUSH20 0xFFFFFFFFFFFFFFFFFFFFFFFFFFFFFFFFFFFFFFFF AND PUSH20 0xFFFFFFFFFFFFFFFFFFFFFFFFFFFFFFFFFFFFFFFF AND DUP2 MSTORE PUSH1 0x20 ADD SWAP1 DUP2 MSTORE PUSH1 0x20 ADD PUSH1 0x0 KECCAK256 PUSH1 0x0 PUSH2 0x100 EXP DUP2 SLOAD DUP2 PUSH1 0xFF MUL NOT AND SWAP1 DUP4 ISZERO ISZERO MUL OR SWAP1 SSTORE POP POP JUMP JUMPDEST PUSH1 0x3 PUSH1 0x0 SWAP1 SLOAD SWAP1 PUSH2 0x100 EXP SWAP1 DIV PUSH20 0xFFFFFFFFFFFFFFFFFFFFFFFFFFFFFFFFFFFFFFFF AND PUSH20 0xFFFFFFFFFFFFFFFFFFFFFFFFFFFFFFFFFFFFFFFF AND CALLER PUSH20 0xFFFFFFFFFFFFFFFFFFFFFFFFFFFFFFFFFFFFFFFF AND EQ PUSH2 0x3E3 JUMPI PUSH1 0x40 MLOAD PUSH32 0x8C379A000000000000000000000000000000000000000000000000000000000 DUP2 MSTORE PUSH1 0x4 ADD PUSH2 0x3DA SWAP1 PUSH2 0x12E6 JUMP JUMPDEST PUSH1 0x40 MLOAD DUP1 SWAP2 SUB SWAP1 REVERT JUMPDEST PUSH1 0x3 PUSH1 0x0 SWAP1 SLOAD SWAP1 PUSH2 0x100 EXP SWAP1 DIV PUSH20 0xFFFFFFFFFFFFFFFFFFFFFFFFFFFFFFFFFFFFFFFF AND PUSH20 0xFFFFFFFFFFFFFFFFFFFFFFFFFFFFFFFFFFFFFFFF AND CALLER PUSH20 0xFFFFFFFFFFFFFFFFFFFFFFFFFFFFFFFFFFFFFFFF AND EQ PUSH2 0x43D JUMPI PUSH1 0x0 DUP1 REVERT JUMPDEST PUSH2 0x447 DUP3 DUP3 PUSH2 0x916 JUMP JUMPDEST POP POP JUMP JUMPDEST PUSH1 0x0 PUSH1 0x4 SLOAD SWAP1 POP SWAP1 JUMP JUMPDEST CALLER PUSH1 0x2 PUSH1 0x0 DUP3 PUSH20 0xFFFFFFFFFFFFFFFFFFFFFFFFFFFFFFFFFFFFFFFF AND PUSH20 0xFFFFFFFFFFFFFFFFFFFFFFFFFFFFFFFFFFFFFFFF AND DUP2 MSTORE PUSH1 0x20 ADD SWAP1 DUP2 MSTORE PUSH1 0x20 ADD PUSH1 0x0 KECCAK256 PUSH1 0x0 SWAP1 SLOAD SWAP1 PUSH2 0x100 EXP SWAP1 DIV PUSH1 0xFF AND PUSH2 0x4AC JUMPI PUSH1 0x0 DUP1 REVERT JUMPDEST PUSH2 0x4B7 DUP5 DUP5 DUP5 PUSH2 0xB52 JUMP JUMPDEST POP POP POP POP JUMP JUMPDEST CALLER PUSH1 0x2 PUSH1 0x0 DUP3 PUSH20 0xFFFFFFFFFFFFFFFFFFFFFFFFFFFFFFFFFFFFFFFF AND PUSH20 0xFFFFFFFFFFFFFFFFFFFFFFFFFFFFFFFFFFFFFFFF AND DUP2 MSTORE PUSH1 0x20 ADD SWAP1 DUP2 MSTORE PUSH1 0x20 ADD PUSH1 0x0 KECCAK256 PUSH1 0x0 SWAP1 SLOAD SWAP1 PUSH2 0x100 EXP SWAP1 DIV PUSH1 0xFF AND PUSH2 0x514 JUMPI PUSH1 0x0 DUP1 REVERT JUMPDEST PUSH1 0x0 PUSH20 0xFFFFFFFFFFFFFFFFFFFFFFFFFFFFFFFFFFFFFFFF AND DUP4 PUSH20 0xFFFFFFFFFFFFFFFFFFFFFFFFFFFFFFFFFFFFFFFF AND EQ ISZERO PUSH2 0x584 JUMPI PUSH1 0x40 MLOAD PUSH32 0x8C379A000000000000000000000000000000000000000000000000000000000 DUP2 MSTORE PUSH1 0x4 ADD PUSH2 0x57B SWAP1 PUSH2 0x1352 JUMP JUMPDEST PUSH1 0x40 MLOAD DUP1 SWAP2 SUB SWAP1 REVERT JUMPDEST PUSH2 0x590 PUSH1 0x0 DUP5 DUP5 PUSH2 0xB52 JUMP JUMPDEST POP POP POP JUMP JUMPDEST PUSH1 0x0 PUSH1 0x3 PUSH1 0x0 SWAP1 SLOAD SWAP1 PUSH2 0x100 EXP SWAP1 DIV PUSH20 0xFFFFFFFFFFFFFFFFFFFFFFFFFFFFFFFFFFFFFFFF AND SWAP1 POP SWAP1 JUMP JUMPDEST PUSH1 0x0 DUP1 PUSH1 0x0 DUP4 PUSH20 0xFFFFFFFFFFFFFFFFFFFFFFFFFFFFFFFFFFFFFFFF AND PUSH20 0xFFFFFFFFFFFFFFFFFFFFFFFFFFFFFFFFFFFFFFFF AND DUP2 MSTORE PUSH1 0x20 ADD SWAP1 DUP2 MSTORE PUSH1 0x20 ADD PUSH1 0x0 KECCAK256 SLOAD SWAP1 POP SWAP2 SWAP1 POP JUMP JUMPDEST CALLER PUSH1 0x2 PUSH1 0x0 DUP3 PUSH20 0xFFFFFFFFFFFFFFFFFFFFFFFFFFFFFFFFFFFFFFFF AND PUSH20 0xFFFFFFFFFFFFFFFFFFFFFFFFFFFFFFFFFFFFFFFF AND DUP2 MSTORE PUSH1 0x20 ADD SWAP1 DUP2 MSTORE PUSH1 0x20 ADD PUSH1 0x0 KECCAK256 PUSH1 0x0 SWAP1 SLOAD SWAP1 PUSH2 0x100 EXP SWAP1 DIV PUSH1 0xFF AND PUSH2 0x65E JUMPI PUSH1 0x0 DUP1 REVERT JUMPDEST PUSH1 0x0 PUSH20 0xFFFFFFFFFFFFFFFFFFFFFFFFFFFFFFFFFFFFFFFF AND DUP4 PUSH20 0xFFFFFFFFFFFFFFFFFFFFFFFFFFFFFFFFFFFFFFFF AND EQ ISZERO PUSH2 0x6CE JUMPI PUSH1 0x40 MLOAD PUSH32 0x8C379A000000000000000000000000000000000000000000000000000000000 DUP2 MSTORE PUSH1 0x4 ADD PUSH2 0x6C5 SWAP1 PUSH2 0x13BE JUMP JUMPDEST PUSH1 0x40 MLOAD DUP1 SWAP2 SUB SWAP1 REVERT JUMPDEST PUSH2 0x6DA DUP4 PUSH1 0x0 DUP5 PUSH2 0xB52 JUMP JUMPDEST POP POP POP JUMP JUMPDEST PUSH1 0x3 PUSH1 0x0 SWAP1 SLOAD SWAP1 PUSH2 0x100 EXP SWAP1 DIV PUSH20 0xFFFFFFFFFFFFFFFFFFFFFFFFFFFFFFFFFFFFFFFF AND PUSH20 0xFFFFFFFFFFFFFFFFFFFFFFFFFFFFFFFFFFFFFFFF AND CALLER PUSH20 0xFFFFFFFFFFFFFFFFFFFFFFFFFFFFFFFFFFFFFFFF AND EQ PUSH2 0x76F JUMPI PUSH1 0x40 MLOAD PUSH32 0x8C379A000000000000000000000000000000000000000000000000000000000 DUP2 MSTORE PUSH1 0x4 ADD PUSH2 0x766 SWAP1 PUSH2 0x12E6 JUMP JUMPDEST PUSH1 0x40 MLOAD DUP1 SWAP2 SUB SWAP1 REVERT JUMPDEST PUSH2 0x778 DUP2 PUSH2 0xEB2 JUMP JUMPDEST POP JUMP JUMPDEST PUSH1 0x3 PUSH1 0x0 SWAP1 SLOAD SWAP1 PUSH2 0x100 EXP SWAP1 DIV PUSH20 0xFFFFFFFFFFFFFFFFFFFFFFFFFFFFFFFFFFFFFFFF AND PUSH20 0xFFFFFFFFFFFFFFFFFFFFFFFFFFFFFFFFFFFFFFFF AND CALLER PUSH20 0xFFFFFFFFFFFFFFFFFFFFFFFFFFFFFFFFFFFFFFFF AND EQ PUSH2 0x80B JUMPI PUSH1 0x40 MLOAD PUSH32 0x8C379A000000000000000000000000000000000000000000000000000000000 DUP2 MSTORE PUSH1 0x4 ADD PUSH2 0x802 SWAP1 PUSH2 0x12E6 JUMP JUMPDEST PUSH1 0x40 MLOAD DUP1 SWAP2 SUB SWAP1 REVERT JUMPDEST PUSH1 0x3 PUSH1 0x0 SWAP1 SLOAD SWAP1 PUSH2 0x100 EXP SWAP1 DIV PUSH20 0xFFFFFFFFFFFFFFFFFFFFFFFFFFFFFFFFFFFFFFFF AND PUSH20 0xFFFFFFFFFFFFFFFFFFFFFFFFFFFFFFFFFFFFFFFF AND CALLER PUSH20 0xFFFFFFFFFFFFFFFFFFFFFFFFFFFFFFFFFFFFFFFF AND EQ PUSH2 0x865 JUMPI PUSH1 0x0 DUP1 REVERT JUMPDEST PUSH1 0x0 PUSH1 0x2 PUSH1 0x0 DUP4 PUSH20 0xFFFFFFFFFFFFFFFFFFFFFFFFFFFFFFFFFFFFFFFF AND PUSH20 0xFFFFFFFFFFFFFFFFFFFFFFFFFFFFFFFFFFFFFFFF AND DUP2 MSTORE PUSH1 0x20 ADD SWAP1 DUP2 MSTORE PUSH1 0x20 ADD PUSH1 0x0 KECCAK256 PUSH1 0x0 PUSH2 0x100 EXP DUP2 SLOAD DUP2 PUSH1 0xFF MUL NOT AND SWAP1 DUP4 ISZERO ISZERO MUL OR SWAP1 SSTORE POP POP JUMP JUMPDEST PUSH1 0x0 PUSH1 0x1 PUSH1 0x0 DUP4 PUSH20 0xFFFFFFFFFFFFFFFFFFFFFFFFFFFFFFFFFFFFFFFF AND PUSH20 0xFFFFFFFFFFFFFFFFFFFFFFFFFFFFFFFFFFFFFFFF AND DUP2 MSTORE PUSH1 0x20 ADD SWAP1 DUP2 MSTORE PUSH1 0x20 ADD PUSH1 0x0 KECCAK256 PUSH1 0x0 SWAP1 SLOAD SWAP1 PUSH2 0x100 EXP SWAP1 DIV PUSH1 0xFF AND SWAP1 POP SWAP2 SWAP1 POP JUMP JUMPDEST PUSH1 0x3 PUSH1 0x0 SWAP1 SLOAD SWAP1 PUSH2 0x100 EXP SWAP1 DIV PUSH20 0xFFFFFFFFFFFFFFFFFFFFFFFFFFFFFFFFFFFFFFFF AND PUSH20 0xFFFFFFFFFFFFFFFFFFFFFFFFFFFFFFFFFFFFFFFF AND CALLER PUSH20 0xFFFFFFFFFFFFFFFFFFFFFFFFFFFFFFFFFFFFFFFF AND EQ PUSH2 0x9A6 JUMPI PUSH1 0x40 MLOAD PUSH32 0x8C379A000000000000000000000000000000000000000000000000000000000 DUP2 MSTORE PUSH1 0x4 ADD PUSH2 0x99D SWAP1 PUSH2 0x1450 JUMP JUMPDEST PUSH1 0x40 MLOAD DUP1 SWAP2 SUB SWAP1 REVERT JUMPDEST PUSH1 0x0 PUSH20 0xFFFFFFFFFFFFFFFFFFFFFFFFFFFFFFFFFFFFFFFF AND DUP3 PUSH20 0xFFFFFFFFFFFFFFFFFFFFFFFFFFFFFFFFFFFFFFFF AND EQ ISZERO PUSH2 0xA16 JUMPI PUSH1 0x40 MLOAD PUSH32 0x8C379A000000000000000000000000000000000000000000000000000000000 DUP2 MSTORE PUSH1 0x4 ADD PUSH2 0xA0D SWAP1 PUSH2 0x14BC JUMP JUMPDEST PUSH1 0x40 MLOAD DUP1 SWAP2 SUB SWAP1 REVERT JUMPDEST DUP1 ISZERO ISZERO PUSH1 0x1 PUSH1 0x0 DUP5 PUSH20 0xFFFFFFFFFFFFFFFFFFFFFFFFFFFFFFFFFFFFFFFF AND PUSH20 0xFFFFFFFFFFFFFFFFFFFFFFFFFFFFFFFFFFFFFFFF AND DUP2 MSTORE PUSH1 0x20 ADD SWAP1 DUP2 MSTORE PUSH1 0x20 ADD PUSH1 0x0 KECCAK256 PUSH1 0x0 SWAP1 SLOAD SWAP1 PUSH2 0x100 EXP SWAP1 DIV PUSH1 0xFF AND ISZERO ISZERO EQ ISZERO PUSH2 0xAA9 JUMPI PUSH1 0x40 MLOAD PUSH32 0x8C379A000000000000000000000000000000000000000000000000000000000 DUP2 MSTORE PUSH1 0x4 ADD PUSH2 0xAA0 SWAP1 PUSH2 0x154E JUMP JUMPDEST PUSH1 0x40 MLOAD DUP1 SWAP2 SUB SWAP1 REVERT JUMPDEST DUP1 PUSH1 0x1 PUSH1 0x0 DUP5 PUSH20 0xFFFFFFFFFFFFFFFFFFFFFFFFFFFFFFFFFFFFFFFF AND PUSH20 0xFFFFFFFFFFFFFFFFFFFFFFFFFFFFFFFFFFFFFFFF AND DUP2 MSTORE PUSH1 0x20 ADD SWAP1 DUP2 MSTORE PUSH1 0x20 ADD PUSH1 0x0 KECCAK256 PUSH1 0x0 PUSH2 0x100 EXP DUP2 SLOAD DUP2 PUSH1 0xFF MUL NOT AND SWAP1 DUP4 ISZERO ISZERO MUL OR SWAP1 SSTORE POP DUP2 PUSH20 0xFFFFFFFFFFFFFFFFFFFFFFFFFFFFFFFFFFFFFFFF AND PUSH32 0x2C41D9AF4701C767A5661C887F466DD2DDFBA0572128A2CC04D43BD623445061 DUP3 PUSH1 0x40 MLOAD PUSH2 0xB46 SWAP2 SWAP1 PUSH2 0x126E JUMP JUMPDEST PUSH1 0x40 MLOAD DUP1 SWAP2 SUB SWAP1 LOG2 POP POP JUMP JUMPDEST PUSH1 0x3 PUSH1 0x0 SWAP1 SLOAD SWAP1 PUSH2 0x100 EXP SWAP1 DIV PUSH20 0xFFFFFFFFFFFFFFFFFFFFFFFFFFFFFFFFFFFFFFFF AND PUSH20 0xFFFFFFFFFFFFFFFFFFFFFFFFFFFFFFFFFFFFFFFF AND CALLER PUSH20 0xFFFFFFFFFFFFFFFFFFFFFFFFFFFFFFFFFFFFFFFF AND EQ PUSH2 0xBE2 JUMPI PUSH1 0x40 MLOAD PUSH32 0x8C379A000000000000000000000000000000000000000000000000000000000 DUP2 MSTORE PUSH1 0x4 ADD PUSH2 0xBD9 SWAP1 PUSH2 0x15BA JUMP JUMPDEST PUSH1 0x40 MLOAD DUP1 SWAP2 SUB SWAP1 REVERT JUMPDEST PUSH1 0x1 ISZERO ISZERO PUSH1 0x1 PUSH1 0x0 DUP5 PUSH20 0xFFFFFFFFFFFFFFFFFFFFFFFFFFFFFFFFFFFFFFFF AND PUSH20 0xFFFFFFFFFFFFFFFFFFFFFFFFFFFFFFFFFFFFFFFF AND DUP2 MSTORE PUSH1 0x20 ADD SWAP1 DUP2 MSTORE PUSH1 0x20 ADD PUSH1 0x0 KECCAK256 PUSH1 0x0 SWAP1 SLOAD SWAP1 PUSH2 0x100 EXP SWAP1 DIV PUSH1 0xFF AND ISZERO ISZERO EQ PUSH2 0xC75 JUMPI PUSH1 0x40 MLOAD PUSH32 0x8C379A000000000000000000000000000000000000000000000000000000000 DUP2 MSTORE PUSH1 0x4 ADD PUSH2 0xC6C SWAP1 PUSH2 0x164C JUMP JUMPDEST PUSH1 0x40 MLOAD DUP1 SWAP2 SUB SWAP1 REVERT JUMPDEST PUSH1 0x0 PUSH20 0xFFFFFFFFFFFFFFFFFFFFFFFFFFFFFFFFFFFFFFFF AND DUP4 PUSH20 0xFFFFFFFFFFFFFFFFFFFFFFFFFFFFFFFFFFFFFFFF AND EQ ISZERO PUSH2 0xCC8 JUMPI DUP1 PUSH1 0x4 PUSH1 0x0 DUP3 DUP3 SLOAD PUSH2 0xCBC SWAP2 SWAP1 PUSH2 0x169B JUMP JUMPDEST SWAP3 POP POP DUP2 SWAP1 SSTORE POP PUSH2 0xDF3 JUMP JUMPDEST PUSH1 0x0 PUSH20 0xFFFFFFFFFFFFFFFFFFFFFFFFFFFFFFFFFFFFFFFF AND DUP3 PUSH20 0xFFFFFFFFFFFFFFFFFFFFFFFFFFFFFFFFFFFFFFFF AND EQ ISZERO PUSH2 0xD1B JUMPI DUP1 PUSH1 0x4 PUSH1 0x0 DUP3 DUP3 SLOAD PUSH2 0xD0F SWAP2 SWAP1 PUSH2 0x16F1 JUMP JUMPDEST SWAP3 POP POP DUP2 SWAP1 SSTORE POP PUSH2 0xDF2 JUMP JUMPDEST DUP1 PUSH1 0x0 DUP1 DUP6 PUSH20 0xFFFFFFFFFFFFFFFFFFFFFFFFFFFFFFFFFFFFFFFF AND PUSH20 0xFFFFFFFFFFFFFFFFFFFFFFFFFFFFFFFFFFFFFFFF AND DUP2 MSTORE PUSH1 0x20 ADD SWAP1 DUP2 MSTORE PUSH1 0x20 ADD PUSH1 0x0 KECCAK256 SLOAD LT ISZERO PUSH2 0xD9C JUMPI PUSH1 0x40 MLOAD PUSH32 0x8C379A000000000000000000000000000000000000000000000000000000000 DUP2 MSTORE PUSH1 0x4 ADD PUSH2 0xD93 SWAP1 PUSH2 0x1797 JUMP JUMPDEST PUSH1 0x40 MLOAD DUP1 SWAP2 SUB SWAP1 REVERT JUMPDEST DUP1 PUSH1 0x0 DUP1 DUP6 PUSH20 0xFFFFFFFFFFFFFFFFFFFFFFFFFFFFFFFFFFFFFFFF AND PUSH20 0xFFFFFFFFFFFFFFFFFFFFFFFFFFFFFFFFFFFFFFFF AND DUP2 MSTORE PUSH1 0x20 ADD SWAP1 DUP2 MSTORE PUSH1 0x20 ADD PUSH1 0x0 KECCAK256 PUSH1 0x0 DUP3 DUP3 SLOAD PUSH2 0xDEA SWAP2 SWAP1 PUSH2 0x16F1 JUMP JUMPDEST SWAP3 POP POP DUP2 SWAP1 SSTORE POP JUMPDEST JUMPDEST DUP1 PUSH1 0x0 DUP1 DUP5 PUSH20 0xFFFFFFFFFFFFFFFFFFFFFFFFFFFFFFFFFFFFFFFF AND PUSH20 0xFFFFFFFFFFFFFFFFFFFFFFFFFFFFFFFFFFFFFFFF AND DUP2 MSTORE PUSH1 0x20 ADD SWAP1 DUP2 MSTORE PUSH1 0x20 ADD PUSH1 0x0 KECCAK256 PUSH1 0x0 DUP3 DUP3 SLOAD PUSH2 0xE41 SWAP2 SWAP1 PUSH2 0x169B JUMP JUMPDEST SWAP3 POP POP DUP2 SWAP1 SSTORE POP DUP2 PUSH20 0xFFFFFFFFFFFFFFFFFFFFFFFFFFFFFFFFFFFFFFFF AND DUP4 PUSH20 0xFFFFFFFFFFFFFFFFFFFFFFFFFFFFFFFFFFFFFFFF AND PUSH32 0xDDF252AD1BE2C89B69C2B068FC378DAA952BA7F163C4A11628F55A4DF523B3EF DUP4 PUSH1 0x40 MLOAD PUSH2 0xEA5 SWAP2 SWAP1 PUSH2 0x115B JUMP JUMPDEST PUSH1 0x40 MLOAD DUP1 SWAP2 SUB SWAP1 LOG3 POP POP POP JUMP JUMPDEST PUSH1 0x0 PUSH20 0xFFFFFFFFFFFFFFFFFFFFFFFFFFFFFFFFFFFFFFFF AND DUP2 PUSH20 0xFFFFFFFFFFFFFFFFFFFFFFFFFFFFFFFFFFFFFFFF AND EQ ISZERO PUSH2 0xF22 JUMPI PUSH1 0x40 MLOAD PUSH32 0x8C379A000000000000000000000000000000000000000000000000000000000 DUP2 MSTORE PUSH1 0x4 ADD PUSH2 0xF19 SWAP1 PUSH2 0x1829 JUMP JUMPDEST PUSH1 0x40 MLOAD DUP1 SWAP2 SUB SWAP1 REVERT JUMPDEST DUP1 PUSH20 0xFFFFFFFFFFFFFFFFFFFFFFFFFFFFFFFFFFFFFFFF AND PUSH1 0x3 PUSH1 0x0 SWAP1 SLOAD SWAP1 PUSH2 0x100 EXP SWAP1 DIV PUSH20 0xFFFFFFFFFFFFFFFFFFFFFFFFFFFFFFFFFFFFFFFF AND PUSH20 0xFFFFFFFFFFFFFFFFFFFFFFFFFFFFFFFFFFFFFFFF AND EQ ISZERO PUSH2 0xFB3 JUMPI PUSH1 0x40 MLOAD PUSH32 0x8C379A000000000000000000000000000000000000000000000000000000000 DUP2 MSTORE PUSH1 0x4 ADD PUSH2 0xFAA SWAP1 PUSH2 0x18BB JUMP JUMPDEST PUSH1 0x40 MLOAD DUP1 SWAP2 SUB SWAP1 REVERT JUMPDEST DUP1 PUSH1 0x3 PUSH1 0x0 PUSH2 0x100 EXP DUP2 SLOAD DUP2 PUSH20 0xFFFFFFFFFFFFFFFFFFFFFFFFFFFFFFFFFFFFFFFF MUL NOT AND SWAP1 DUP4 PUSH20 0xFFFFFFFFFFFFFFFFFFFFFFFFFFFFFFFFFFFFFFFF AND MUL OR SWAP1 SSTORE POP DUP1 PUSH20 0xFFFFFFFFFFFFFFFFFFFFFFFFFFFFFFFFFFFFFFFF AND PUSH32 0x235B4D5C4596AF250D851D446F469C532805433B6138B8C7AD6FCDCD07B9DB27 PUSH1 0x40 MLOAD PUSH1 0x40 MLOAD DUP1 SWAP2 SUB SWAP1 LOG2 POP JUMP JUMPDEST PUSH1 0x0 DUP1 REVERT JUMPDEST PUSH1 0x0 PUSH20 0xFFFFFFFFFFFFFFFFFFFFFFFFFFFFFFFFFFFFFFFF DUP3 AND SWAP1 POP SWAP2 SWAP1 POP JUMP JUMPDEST PUSH1 0x0 PUSH2 0x106A DUP3 PUSH2 0x103F JUMP JUMPDEST SWAP1 POP SWAP2 SWAP1 POP JUMP JUMPDEST PUSH2 0x107A DUP2 PUSH2 0x105F JUMP JUMPDEST DUP2 EQ PUSH2 0x1085 JUMPI PUSH1 0x0 DUP1 REVERT JUMPDEST POP JUMP JUMPDEST PUSH1 0x0 DUP2 CALLDATALOAD SWAP1 POP PUSH2 0x1097 DUP2 PUSH2 0x1071 JUMP JUMPDEST SWAP3 SWAP2 POP POP JUMP JUMPDEST PUSH1 0x0 PUSH1 0x20 DUP3 DUP5 SUB SLT ISZERO PUSH2 0x10B3 JUMPI PUSH2 0x10B2 PUSH2 0x103A JUMP JUMPDEST JUMPDEST PUSH1 0x0 PUSH2 0x10C1 DUP5 DUP3 DUP6 ADD PUSH2 0x1088 JUMP JUMPDEST SWAP2 POP POP SWAP3 SWAP2 POP POP JUMP JUMPDEST PUSH1 0x0 DUP2 ISZERO ISZERO SWAP1 POP SWAP2 SWAP1 POP JUMP JUMPDEST PUSH2 0x10DF DUP2 PUSH2 0x10CA JUMP JUMPDEST DUP2 EQ PUSH2 0x10EA JUMPI PUSH1 0x0 DUP1 REVERT JUMPDEST POP JUMP JUMPDEST PUSH1 0x0 DUP2 CALLDATALOAD SWAP1 POP PUSH2 0x10FC DUP2 PUSH2 0x10D6 JUMP JUMPDEST SWAP3 SWAP2 POP POP JUMP JUMPDEST PUSH1 0x0 DUP1 PUSH1 0x40 DUP4 DUP6 SUB SLT ISZERO PUSH2 0x1119 JUMPI PUSH2 0x1118 PUSH2 0x103A JUMP JUMPDEST JUMPDEST PUSH1 0x0 PUSH2 0x1127 DUP6 DUP3 DUP7 ADD PUSH2 0x1088 JUMP JUMPDEST SWAP3 POP POP PUSH1 0x20 PUSH2 0x1138 DUP6 DUP3 DUP7 ADD PUSH2 0x10ED JUMP JUMPDEST SWAP2 POP POP SWAP3 POP SWAP3 SWAP1 POP JUMP JUMPDEST PUSH1 0x0 DUP2 SWAP1 POP SWAP2 SWAP1 POP JUMP JUMPDEST PUSH2 0x1155 DUP2 PUSH2 0x1142 JUMP JUMPDEST DUP3 MSTORE POP POP JUMP JUMPDEST PUSH1 0x0 PUSH1 0x20 DUP3 ADD SWAP1 POP PUSH2 0x1170 PUSH1 0x0 DUP4 ADD DUP5 PUSH2 0x114C JUMP JUMPDEST SWAP3 SWAP2 POP POP JUMP JUMPDEST PUSH2 0x117F DUP2 PUSH2 0x1142 JUMP JUMPDEST DUP2 EQ PUSH2 0x118A JUMPI PUSH1 0x0 DUP1 REVERT JUMPDEST POP JUMP JUMPDEST PUSH1 0x0 DUP2 CALLDATALOAD SWAP1 POP PUSH2 0x119C DUP2 PUSH2 0x1176 JUMP JUMPDEST SWAP3 SWAP2 POP POP JUMP JUMPDEST PUSH1 0x0 DUP1 PUSH1 0x0 PUSH1 0x60 DUP5 DUP7 SUB SLT ISZERO PUSH2 0x11BB JUMPI PUSH2 0x11BA PUSH2 0x103A JUMP JUMPDEST JUMPDEST PUSH1 0x0 PUSH2 0x11C9 DUP7 DUP3 DUP8 ADD PUSH2 0x1088 JUMP JUMPDEST SWAP4 POP POP PUSH1 0x20 PUSH2 0x11DA DUP7 DUP3 DUP8 ADD PUSH2 0x1088 JUMP JUMPDEST SWAP3 POP POP PUSH1 0x40 PUSH2 0x11EB DUP7 DUP3 DUP8 ADD PUSH2 0x118D JUMP JUMPDEST SWAP2 POP POP SWAP3 POP SWAP3 POP SWAP3 JUMP JUMPDEST PUSH1 0x0 DUP1 PUSH1 0x40 DUP4 DUP6 SUB SLT ISZERO PUSH2 0x120C JUMPI PUSH2 0x120B PUSH2 0x103A JUMP JUMPDEST JUMPDEST PUSH1 0x0 PUSH2 0x121A DUP6 DUP3 DUP7 ADD PUSH2 0x1088 JUMP JUMPDEST SWAP3 POP POP PUSH1 0x20 PUSH2 0x122B DUP6 DUP3 DUP7 ADD PUSH2 0x118D JUMP JUMPDEST SWAP2 POP POP SWAP3 POP SWAP3 SWAP1 POP JUMP JUMPDEST PUSH2 0x123E DUP2 PUSH2 0x105F JUMP JUMPDEST DUP3 MSTORE POP POP JUMP JUMPDEST PUSH1 0x0 PUSH1 0x20 DUP3 ADD SWAP1 POP PUSH2 0x1259 PUSH1 0x0 DUP4 ADD DUP5 PUSH2 0x1235 JUMP JUMPDEST SWAP3 SWAP2 POP POP JUMP JUMPDEST PUSH2 0x1268 DUP2 PUSH2 0x10CA JUMP JUMPDEST DUP3 MSTORE POP POP JUMP JUMPDEST PUSH1 0x0 PUSH1 0x20 DUP3 ADD SWAP1 POP PUSH2 0x1283 PUSH1 0x0 DUP4 ADD DUP5 PUSH2 0x125F JUMP JUMPDEST SWAP3 SWAP2 POP POP JUMP JUMPDEST PUSH1 0x0 DUP3 DUP3 MSTORE PUSH1 0x20 DUP3 ADD SWAP1 POP SWAP3 SWAP2 POP POP JUMP JUMPDEST PUSH32 0x596F75206D75737420626520746865206F70657261746F720000000000000000 PUSH1 0x0 DUP3 ADD MSTORE POP JUMP JUMPDEST PUSH1 0x0 PUSH2 0x12D0 PUSH1 0x18 DUP4 PUSH2 0x1289 JUMP JUMPDEST SWAP2 POP PUSH2 0x12DB DUP3 PUSH2 0x129A JUMP JUMPDEST PUSH1 0x20 DUP3 ADD SWAP1 POP SWAP2 SWAP1 POP JUMP JUMPDEST PUSH1 0x0 PUSH1 0x20 DUP3 ADD SWAP1 POP DUP2 DUP2 SUB PUSH1 0x0 DUP4 ADD MSTORE PUSH2 0x12FF DUP2 PUSH2 0x12C3 JUMP JUMPDEST SWAP1 POP SWAP2 SWAP1 POP JUMP JUMPDEST PUSH32 0x43616E6E6F74206D696E7420746F20746865207A65726F20616464726573732E PUSH1 0x0 DUP3 ADD MSTORE POP JUMP JUMPDEST PUSH1 0x0 PUSH2 0x133C PUSH1 0x20 DUP4 PUSH2 0x1289 JUMP JUMPDEST SWAP2 POP PUSH2 0x1347 DUP3 PUSH2 0x1306 JUMP JUMPDEST PUSH1 0x20 DUP3 ADD SWAP1 POP SWAP2 SWAP1 POP JUMP JUMPDEST PUSH1 0x0 PUSH1 0x20 DUP3 ADD SWAP1 POP DUP2 DUP2 SUB PUSH1 0x0 DUP4 ADD MSTORE PUSH2 0x136B DUP2 PUSH2 0x132F JUMP JUMPDEST SWAP1 POP SWAP2 SWAP1 POP JUMP JUMPDEST PUSH32 0x43616E6E6F74206275726E20746F20746865207A65726F20616464726573732E PUSH1 0x0 DUP3 ADD MSTORE POP JUMP JUMPDEST PUSH1 0x0 PUSH2 0x13A8 PUSH1 0x20 DUP4 PUSH2 0x1289 JUMP JUMPDEST SWAP2 POP PUSH2 0x13B3 DUP3 PUSH2 0x1372 JUMP JUMPDEST PUSH1 0x20 DUP3 ADD SWAP1 POP SWAP2 SWAP1 POP JUMP JUMPDEST PUSH1 0x0 PUSH1 0x20 DUP3 ADD SWAP1 POP DUP2 DUP2 SUB PUSH1 0x0 DUP4 ADD MSTORE PUSH2 0x13D7 DUP2 PUSH2 0x139B JUMP JUMPDEST SWAP1 POP SWAP2 SWAP1 POP JUMP JUMPDEST PUSH32 0x4F70657261746F722063616E6E6F74206368616E676520706172746963697061 PUSH1 0x0 DUP3 ADD MSTORE PUSH32 0x74696F6E00000000000000000000000000000000000000000000000000000000 PUSH1 0x20 DUP3 ADD MSTORE POP JUMP JUMPDEST PUSH1 0x0 PUSH2 0x143A PUSH1 0x24 DUP4 PUSH2 0x1289 JUMP JUMPDEST SWAP2 POP PUSH2 0x1445 DUP3 PUSH2 0x13DE JUMP JUMPDEST PUSH1 0x40 DUP3 ADD SWAP1 POP SWAP2 SWAP1 POP JUMP JUMPDEST PUSH1 0x0 PUSH1 0x20 DUP3 ADD SWAP1 POP DUP2 DUP2 SUB PUSH1 0x0 DUP4 ADD MSTORE PUSH2 0x1469 DUP2 PUSH2 0x142D JUMP JUMPDEST SWAP1 POP SWAP2 SWAP1 POP JUMP JUMPDEST PUSH32 0x5A65726F20616464726573732063616E6E6F742062652072656D6F7665642E00 PUSH1 0x0 DUP3 ADD MSTORE POP JUMP JUMPDEST PUSH1 0x0 PUSH2 0x14A6 PUSH1 0x1F DUP4 PUSH2 0x1289 JUMP JUMPDEST SWAP2 POP PUSH2 0x14B1 DUP3 PUSH2 0x1470 JUMP JUMPDEST PUSH1 0x20 DUP3 ADD SWAP1 POP SWAP2 SWAP1 POP JUMP JUMPDEST PUSH1 0x0 PUSH1 0x20 DUP3 ADD SWAP1 POP DUP2 DUP2 SUB PUSH1 0x0 DUP4 ADD MSTORE PUSH2 0x14D5 DUP2 PUSH2 0x1499 JUMP JUMPDEST SWAP1 POP SWAP2 SWAP1 POP JUMP JUMPDEST PUSH32 0x5061727469636970616E7420616C726561647920686173207B70617274696369 PUSH1 0x0 DUP3 ADD MSTORE PUSH32 0x706174696F6E7D20737461747573000000000000000000000000000000000000 PUSH1 0x20 DUP3 ADD MSTORE POP JUMP JUMPDEST PUSH1 0x0 PUSH2 0x1538 PUSH1 0x2E DUP4 PUSH2 0x1289 JUMP JUMPDEST SWAP2 POP PUSH2 0x1543 DUP3 PUSH2 0x14DC JUMP JUMPDEST PUSH1 0x40 DUP3 ADD SWAP1 POP SWAP2 SWAP1 POP JUMP JUMPDEST PUSH1 0x0 PUSH1 0x20 DUP3 ADD SWAP1 POP DUP2 DUP2 SUB PUSH1 0x0 DUP4 ADD MSTORE PUSH2 0x1567 DUP2 PUSH2 0x152B JUMP JUMPDEST SWAP1 POP SWAP2 SWAP1 POP JUMP JUMPDEST PUSH32 0x53656E646572206973206E6F7420746865206F70657261746F722E0000000000 PUSH1 0x0 DUP3 ADD MSTORE POP JUMP JUMPDEST PUSH1 0x0 PUSH2 0x15A4 PUSH1 0x1B DUP4 PUSH2 0x1289 JUMP JUMPDEST SWAP2 POP PUSH2 0x15AF DUP3 PUSH2 0x156E JUMP JUMPDEST PUSH1 0x20 DUP3 ADD SWAP1 POP SWAP2 SWAP1 POP JUMP JUMPDEST PUSH1 0x0 PUSH1 0x20 DUP3 ADD SWAP1 POP DUP2 DUP2 SUB PUSH1 0x0 DUP4 ADD MSTORE PUSH2 0x15D3 DUP2 PUSH2 0x1597 JUMP JUMPDEST SWAP1 POP SWAP2 SWAP1 POP JUMP JUMPDEST PUSH32 0x7B746F7D2061646472657373206973206E6F7420616E20616374697665207061 PUSH1 0x0 DUP3 ADD MSTORE PUSH32 0x727469636970616E742E00000000000000000000000000000000000000000000 PUSH1 0x20 DUP3 ADD MSTORE POP JUMP JUMPDEST PUSH1 0x0 PUSH2 0x1636 PUSH1 0x2A DUP4 PUSH2 0x1289 JUMP JUMPDEST SWAP2 POP PUSH2 0x1641 DUP3 PUSH2 0x15DA JUMP JUMPDEST PUSH1 0x40 DUP3 ADD SWAP1 POP SWAP2 SWAP1 POP JUMP JUMPDEST PUSH1 0x0 PUSH1 0x20 DUP3 ADD SWAP1 POP DUP2 DUP2 SUB PUSH1 0x0 DUP4 ADD MSTORE PUSH2 0x1665 DUP2 PUSH2 0x1629 JUMP JUMPDEST SWAP1 POP SWAP2 SWAP1 POP JUMP JUMPDEST PUSH32 0x4E487B7100000000000000000000000000000000000000000000000000000000 PUSH1 0x0 MSTORE PUSH1 0x11 PUSH1 0x4 MSTORE PUSH1 0x24 PUSH1 0x0 REVERT JUMPDEST PUSH1 0x0 PUSH2 0x16A6 DUP3 PUSH2 0x1142 JUMP JUMPDEST SWAP2 POP PUSH2 0x16B1 DUP4 PUSH2 0x1142 JUMP JUMPDEST SWAP3 POP DUP3 PUSH32 0xFFFFFFFFFFFFFFFFFFFFFFFFFFFFFFFFFFFFFFFFFFFFFFFFFFFFFFFFFFFFFFFF SUB DUP3 GT ISZERO PUSH2 0x16E6 JUMPI PUSH2 0x16E5 PUSH2 0x166C JUMP JUMPDEST JUMPDEST DUP3 DUP3 ADD SWAP1 POP SWAP3 SWAP2 POP POP JUMP JUMPDEST PUSH1 0x0 PUSH2 0x16FC DUP3 PUSH2 0x1142 JUMP JUMPDEST SWAP2 POP PUSH2 0x1707 DUP4 PUSH2 0x1142 JUMP JUMPDEST SWAP3 POP DUP3 DUP3 LT ISZERO PUSH2 0x171A JUMPI PUSH2 0x1719 PUSH2 0x166C JUMP JUMPDEST JUMPDEST DUP3 DUP3 SUB SWAP1 POP SWAP3 SWAP2 POP POP JUMP JUMPDEST PUSH32 0x7B66726F6D7D206164647265737320686F6C6473206C65737320455850207468 PUSH1 0x0 DUP3 ADD MSTORE PUSH32 0x616E207B616D6F756E747D2E0000000000000000000000000000000000000000 PUSH1 0x20 DUP3 ADD MSTORE POP JUMP JUMPDEST PUSH1 0x0 PUSH2 0x1781 PUSH1 0x2C DUP4 PUSH2 0x1289 JUMP JUMPDEST SWAP2 POP PUSH2 0x178C DUP3 PUSH2 0x1725 JUMP JUMPDEST PUSH1 0x40 DUP3 ADD SWAP1 POP SWAP2 SWAP1 POP JUMP JUMPDEST PUSH1 0x0 PUSH1 0x20 DUP3 ADD SWAP1 POP DUP2 DUP2 SUB PUSH1 0x0 DUP4 ADD MSTORE PUSH2 0x17B0 DUP2 PUSH2 0x1774 JUMP JUMPDEST SWAP1 POP SWAP2 SWAP1 POP JUMP JUMPDEST PUSH32 0x4F70657261746F722063616E6E6F7420626520746865207A65726F2061646472 PUSH1 0x0 DUP3 ADD MSTORE PUSH32 0x6573732E00000000000000000000000000000000000000000000000000000000 PUSH1 0x20 DUP3 ADD MSTORE POP JUMP JUMPDEST PUSH1 0x0 PUSH2 0x1813 PUSH1 0x24 DUP4 PUSH2 0x1289 JUMP JUMPDEST SWAP2 POP PUSH2 0x181E DUP3 PUSH2 0x17B7 JUMP JUMPDEST PUSH1 0x40 DUP3 ADD SWAP1 POP SWAP2 SWAP1 POP JUMP JUMPDEST PUSH1 0x0 PUSH1 0x20 DUP3 ADD SWAP1 POP DUP2 DUP2 SUB PUSH1 0x0 DUP4 ADD MSTORE PUSH2 0x1842 DUP2 PUSH2 0x1806 JUMP JUMPDEST SWAP1 POP SWAP2 SWAP1 POP JUMP JUMPDEST PUSH32 0x7B616464726573737D20697320616C72656164792061737369676E6564206173 PUSH1 0x0 DUP3 ADD MSTORE PUSH32 0x206F70657261746F720000000000000000000000000000000000000000000000 PUSH1 0x20 DUP3 ADD MSTORE POP JUMP JUMPDEST PUSH1 0x0 PUSH2 0x18A5 PUSH1 0x29 DUP4 PUSH2 0x1289 JUMP JUMPDEST SWAP2 POP PUSH2 0x18B0 DUP3 PUSH2 0x1849 JUMP JUMPDEST PUSH1 0x40 DUP3 ADD SWAP1 POP SWAP2 SWAP1 POP JUMP JUMPDEST PUSH1 0x0 PUSH1 0x20 DUP3 ADD SWAP1 POP DUP2 DUP2 SUB PUSH1 0x0 DUP4 ADD MSTORE PUSH2 0x18D4 DUP2 PUSH2 0x1898 JUMP JUMPDEST SWAP1 POP SWAP2 SWAP1 POP JUMP INVALID LOG2 PUSH5 0x6970667358 0x22 SLT KECCAK256 0xDE LOG0 SWAP13 0xA7 0xE4 SWAP9 0xAE DUP2 PUSH25 0xBF784EF6B12F46D4FEF3BF683CF2099917255DC6058AEE6473 PUSH16 0x6C634300080A00330000000000000000 "
    },
    "gasEstimates": {
      "creation": {
        "codeDepositCost": "1283400",
        "executionCost": "102993",
        "totalCost": "1386393"
      },
      "external": {
        "balanceOf(address)": "2863",
        "burn(address,uint256)": "infinite",
        "mint(address,uint256)": "infinite",
        "operator()": "2522",
        "participationOf(address)": "2993",
        "reallocate(address,address,uint256)": "infinite",
        "retireAuthorization(address)": "29240",
        "setAuthorization(address)": "29153",
        "setOperator(address)": "30360",
        "setParticipation(address,bool)": "infinite",
        "totalSupply()": "2482"
      },
      "internal": {
        "_balanceOf(address)": "infinite",
        "_participation(address,bool)": "infinite",
        "_setOperator(address)": "infinite",
        "_transfer(address,address,uint256)": "infinite"
      }
    },
    "methodIdentifiers": {
      "balanceOf(address)": "70a08231",
      "burn(address,uint256)": "9dc29fac",
      "mint(address,uint256)": "40c10f19",
      "operator()": "570ca735",
      "participationOf(address)": "f00eaafc",
      "reallocate(address,address,uint256)": "308b8c00",
      "retireAuthorization(address)": "d3df65ee",
      "setAuthorization(address)": "025c126e",
      "setOperator(address)": "b3ab15fb",
      "setParticipation(address,bool)": "0cd8418d",
      "totalSupply()": "18160ddd"
    }
  },
  "storageLayout": {
    "storage": [
      {
        "astId": 68,
        "contract": "ReputationControl.sol:ERC4974",
        "label": "_balances",
        "offset": 0,
        "slot": "0",
        "type": "t_mapping(t_address,t_uint256)"
      },
      {
        "astId": 72,
        "contract": "ReputationControl.sol:ERC4974",
        "label": "_participants",
        "offset": 0,
        "slot": "1",
        "type": "t_mapping(t_address,t_bool)"
      },
      {
        "astId": 76,
        "contract": "ReputationControl.sol:ERC4974",
        "label": "_authorized",
        "offset": 0,
        "slot": "2",
        "type": "t_mapping(t_address,t_bool)"
      },
      {
        "astId": 78,
        "contract": "ReputationControl.sol:ERC4974",
        "label": "_operator",
        "offset": 0,
        "slot": "3",
        "type": "t_address"
      },
      {
        "astId": 80,
        "contract": "ReputationControl.sol:ERC4974",
        "label": "_totalSupply",
        "offset": 0,
        "slot": "4",
        "type": "t_uint256"
      }
    ],
    "types": {
      "t_address": {
        "encoding": "inplace",
        "label": "address",
        "numberOfBytes": "20"
      },
      "t_bool": {
        "encoding": "inplace",
        "label": "bool",
        "numberOfBytes": "1"
      },
      "t_mapping(t_address,t_bool)": {
        "encoding": "mapping",
        "key": "t_address",
        "label": "mapping(address => bool)",
        "numberOfBytes": "32",
        "value": "t_bool"
      },
      "t_mapping(t_address,t_uint256)": {
        "encoding": "mapping",
        "key": "t_address",
        "label": "mapping(address => uint256)",
        "numberOfBytes": "32",
        "value": "t_uint256"
      },
      "t_uint256": {
        "encoding": "inplace",
        "label": "uint256",
        "numberOfBytes": "32"
      }
    }
  },
  "userdoc": {
    "kind": "user",
    "methods": {},
    "version": 1
  }
}